:100000000C94B8020C94E0020C94E0020C94E00210
:100010000C94E0020C94E0020C94E0020C94E002D8
:100020000C94E0020C94E0020C9442060C94EC0652
:100030000C94FB050C94E0020C94E0020C94E0029A
:100040000C94B1050C94E0020C94940A0C94D00A20
:100050000C942B0B0C94E0020C94E0020C94E00244
:100060000C9466090C94E0027322852288228F2268
:100070009622C422CB22D822E522F122F122F122BB
:10008000F122F122F122F122F122F122F122F122D8
:10009000F122F122F122F122F122F122F122F122C8
:1000A000F122F122F122F12273228022852288227C
:1000B0008F2296229D22AA22B72273287528802893
:1000C00047298628AA28CE2847294729472947298A
:1000D000E82838296A2973297C298C29A129C5296E
:1000E000DF29132A552A552A552A552A402A492AF2
:1000F000772A812A8B2A952A9F2AA92AB32ABD2AE0
:10010000C72AD12A084AD73B3BCE016E84BCBFFD2B
:10011000C12F3D6C74319ABD56833DDA3D00C77FD7
:1001200011BED9E4BB4C3E916BAAAABE0000008070
:100130003F05A84CCDB2D44EB93836A9020C50B9FF
:10014000918688083CA6AAAA2ABE000000803F0724
:10015000634236B79BD8A71A39685618AEBAAB5562
:100160008C1D3CB7CC5763BD6DEDFD753EF6177227
:1001700031BF000000803F08000000BE92244912F9
:100180003EABAAAA2ABECDCCCC4C3E00000080BE1D
:10019000ABAAAAAA3E00000000BF000000803F00FA
:1001A00000000000084178D3BB4387D1133D190EEE
:1001B0003CC3BD4282AD2B3E68EC8276BED98FE156
:1001C000A93E4C80EFFFBE01C4FF7F3F000000004E
:1001D00000000001020300000000240027002A00A4
:1001E00000000000250028002B000404040404047F
:1001F00004040202020202020303030303030102D6
:1002000004081020408001020408102001020408A4
:100210001020000000080002010000030407000095
:10022000000000000000014C617469747564650091
:10023000000000000000000000000020000000009E
:1002400000000900024C6F6E6769747564650000F8
:10025000000000000000000000200000000000007E
:100260000900035370656564000000000000000091
:10027000000000000000006B6D2F6800000001000E
:100280000452656C2E20416C7469740000000000FB
:1002900000000000006D00000000000001010541A9
:1002A0006C74697475646500000000000000000053
:1002B0000000006D000000000000010006566172A1
:1002C000696F000000000000000000000000000056
:1002D000006D2F7300000000080207446973746109
:1002E0006E63650000000000000000000000006D6B
:1002F0000000000000000100085472697000000056
:10030000000000000000000000000000006B6D0015
:100310000000000001020948656164696E67000021
:100320000000000000000000000000B0000000001D
:10033000000001000A436F75727365000000000041
:10034000000000000000000000B0000000000000FD
:1003500001000B536174656C6C6974657300000077
:10036000000000000000002000000000000000006D
:100370000C48444F50000000000000000000000046
:1003800000000000002000000000000001020D50ED
:100390007265737375726500000000000000000054
:1003A0000000006850610000000008020E54656DF6
:1003B00070657261747572650000000000000000D5
:1003C00000B043000000000001010F48756D696432
:1003D00069747900000000000000000000000025A2
:1003E000724800000000010110566F6C746167656F
:1003F0003100000000000000000000000056000076
:1004000000000000010211566F6C746167653200D4
:100410000000000000000000000000560000000086
:100420000000010212566F6C7461676533000000B2
:100430000000000000000000005600000000000066
:10044000010213566F6C7461676534000000000090
:100450000000000000000056000000000000010243
:100460001443757272656E74310000000000000064
:1004700000000000004100000000000001011543E1
:10048000757272656E74320000000000000000009A
:1004900000000041000000000000010116437572D9
:1004A00072656E7433000000000000000000000060
:1004B00000410000000000000101174375727265E1
:1004C0006E743400000000000000000000000041D5
:1004D000000000000000010118436170616369744D
:1004E000793100000000000000000000006D41684C
:1004F000000000000400194361706163697479327F
:1005000000000000000000000000006D41680000D5
:10051000000004001A43617061636974793300005C
:100520000000000000000000006D416800000000B5
:1005300004001B436170616369747934000000003A
:10054000000000000000006D416800000000040091
:10055000000000000000000000000000000000009B
:100560000000000000000000000000000000412C1E
:1005700011241FBECFEFD8E0DEBFCDBF13E0A0E057
:10058000B1E0E2E0F3E702C005900D92AC33B107B1
:10059000D9F726E0ACE3B3E001C01D92AC3FB2074F
:1005A000E1F712E0C8EBD2E004C02197FE010E94FF
:1005B0007433C73BD107C9F70E940E160C947F39DC
:1005C0000C940000CF92DF92EF92FF920F931F9353
:1005D000CF93DF936C017A018B01C0E0D0E0CE15A0
:1005E000DF0589F0D8016D918D01D601ED91FC9167
:1005F0000190F081E02DC6010995892B11F47E014F
:1006000002C02196ECCFC701DF91CF911F910F91CE
:10061000FF90EF90DF90CF9008953FB7F8948091CE
:100620008D0490918E04A0918F04B091900426B512
:10063000A89B05C02F3F19F00196A11DB11D3FBF1A
:10064000BA2FA92F982F8827820F911DA11DB11DA8
:10065000BC01CD0143E0660F771F881F991F4A95A3
:10066000D1F708955091400340913F03852F90E0CA
:10067000242F30E0541710F4805B9F4F821B930BA4
:10068000089580914003E0913F038E1751F0EF5F92
:10069000E03508F0E0E0F0E0E85CFB4F808190E0BE
:1006A00008958FEF9FEF08958091400390913F034D
:1006B000891769F09F5F903508F090E0E92FF0E02E
:1006C000E85CFB4F808190933F0390E008958FEFAB
:1006D0009FEF089580913E038111FCCF0895809192
:1006E0003D038F5F843408F080E090913C039817BD
:1006F000E1F32FB7F89490913E03992341F0E82F4E
:10070000F0E0E251FC4F608380933D031DC081E027
:1007100080933E03609333041092320482E086BBE0
:1007200080916F00826080936F00809180008F7352
:10073000806880938000809184009091850040962D
:1007400090938900809388002FBF81E090E0089506
:1007500085ED8093BC008091BC0084FDFCCF10929D
:10076000D90408954091C903262F30E0240F311D8C
:1007700021323105DCF42091D9042430C9F4FC0184
:1007800080E090E0861758F43091C9032191DC0194
:10079000A955BC4FA30FB11D2C930196F3CF8091A7
:1007A000C903680F6093C90380E0089581E008954C
:1007B00082E008950895E091920480919104E817F1
:1007C00030F4F0E0ED56FB4F808190E008958FEF1C
:1007D0009FEF08959091920480919104981750F49E
:1007E000E92FF0E0ED56FB4F208130E09F5F9093C2
:1007F000920402C02FEF3FEFC90108958091910448
:1008000090E020919204821B91090895CF92DF928B
:10081000EF92FF920F931F93CF93DF937C01262FCC
:10082000972F8A018091DA04882391F0C62FD72F61
:100830006E01C40ED51ECC15DD0571F06991D7018E
:10084000ED91FC910190F081E02DC7010995F3CF66
:10085000642F822F0E94B203C801DF91CF911F91B4
:100860000F91FF90EF90DF90CF900895CF93DF939B
:100870001F92CDB7DEB769832091DA042223D1F02D
:100880002091FC04203240F021E030E0FC01338371
:10089000228380E090E015C08091DB04E82FF0E037
:1008A000E452FB4F998190838F5F8093DB048093A8
:1008B000FC0405C061E0CE0101960E94B20381E014
:1008C00090E00F90DF91CF910895089580E090E03F
:1008D00008951F93CF93DF93F894EC01CA57DF4F2D
:1008E0002881203400F5DC01AE57BF4F1C911196D2
:1008F0005C91119770E0411103C020E030E002C02C
:1009000020E031E0622B732BE12FF52F71836083A0
:10091000329628812F5F2883EA17FB0710F0FC012D
:100920003296ED93FC93FC01E057FF4F80818111DB
:1009300008C081E080838091C1008F7688628093B7
:10094000C1007894DF91CF911F910895FC01E15788
:10095000FF4F2081222301F1F894A091A503B091CB
:10096000A603A357BF4F0D90BC91A02D4C912081A1
:10097000215020833297208131812F5F3F4FBC016E
:1009800065577F4F2617370718F09C0129573F4FAF
:1009900031832083789401C040E0842F0895089526
:1009A00008950E949436CF93DF9390E0FC01E250CB
:1009B000FE4F2491FC01E651FE4F8491882361F1A2
:1009C00090E0880F991FFC01EA52FE4FC591D49127
:1009D000FC01E052FE4FA591B491611109C09FB78F
:1009E000F8948881209582238883EC912E230BC074
:1009F000623061F49FB7F8943881822F8095832309
:100A00008883EC912E2B2C939FBF06C08FB7F89450
:100A1000E8812E2B28838FBFDF91CF91089510920C
:100A2000C0008CE08093C10086E38093C2001092E6
:100A3000C50082E38093C40062E080E00E94D3049A
:100A400062E081E00C94D304CF93DF93EC010E9429
:100A50000F05FE01329680E8DF011D928A95E9F7C5
:100A6000DE01AE57BF4F1196FC93EE93129611968E
:100A7000FC93EE93EC57FF4F108231961082118257
:100A80001282138217961196FC93EE931296ED93B1
:100A9000FC933896108231961082D093A603C093AF
:100AA000A503DF91CF9108958E3008F08E508770A6
:100AB000806480937C0080917A00806480937A00C7
:100AC00080917A0086FDFCCF80917800209179009A
:100AD00090E0922B08958F929F92AF92BF92CF9207
:100AE000DF92EF92FF926B017C010E940D034B019C
:100AF0005C01C114D104E104F104F1F00E940D0382
:100B0000DC01CB0188199909AA09BB09883E9340E9
:100B1000A105B10570F321E0C21AD108E108F1087E
:100B200088EE880E83E0981EA11CB11CC114D1046C
:100B3000E104F10419F7DDCFFF90EF90DF90CF9043
:100B4000BF90AF909F908F9008952FB7F8946091C9
:100B5000890470918A0480918B0490918C042FBF3A
:100B600008951F920F920FB60F9211242F933F9367
:100B70008F939F93AF93BF938091890490918A0440
:100B8000A0918B04B0918C043091880426E0230F4F
:100B90002D3720F40296A11DB11D05C029E8230FB1
:100BA0000396A11DB11D209388048093890490931E
:100BB0008A04A0938B04B0938C0480918D0490914F
:100BC0008E04A0918F04B09190040196A11DB11DD7
:100BD00080938D0490938E04A0938F04B09390041F
:100BE000BF91AF919F918F913F912F910F900FBE29
:100BF0000F901F9018951F920F920FB60F9211240D
:100C00002F938F939F93EF93FF9380916F008B7F30
:100C100080936F00809181008F7B80938100809111
:100C2000410320913704205890913604893020F4F4
:100C30009695922B8F5FFACF909336048091400364
:100C40008F5F803508F080E020913F03821739F0F4
:100C5000E82FF0E0E85CFB4F908380934003109214
:100C60004103809181008F7B809381001092370433
:100C7000FF91EF919F918F912F910F900FBE0F9049
:100C80001F9018951F920F920FB60F9211242F9359
:100C90003F934F935F936F937F938F939F93AF9304
:100CA000BF93EF93FF9380918600909187004091CE
:100CB000370420918100442331F02F7B2093810061
:100CC0001092370406C020642093810020E820930E
:100CD000370430914103311125C041116CC020917E
:100CE000420330914303280F391F30938B00209328
:100CF0008A0024E026BB20916F00246020936F00BF
:100D00002091440330914503820F931F3695279518
:100D1000820F931F909335048093340481E0809375
:100D2000410349C04091340450913504609144031B
:100D300070914503DB01A095B09520913604E091B8
:100D40003704841B950BA817B90768F126952E2B3D
:100D5000460F571F3F5F861B970B3930A0F3209338
:100D6000360480916F008B7F80936F0080914003E9
:100D70008F5F803508F080E090913F03891749F03C
:100D8000E82FF0E090913604E85CFB4F908380936D
:100D90004003809181008F7B809381001092370403
:100DA0001092410308C020933604509335044093B9
:100DB000340430934103FF91EF91BF91AF919F9124
:100DC0008F917F916F915F914F913F912F910F90F4
:100DD0000FBE0F901F9018951F920F920FB60F9293
:100DE00011242F933F934F935F936F937F938F9330
:100DF0009F93EF93FF9380913E0360913304209182
:100E000088003091890040914403509145039091AE
:100E100032048A30F8F4240F351F893019F0762F08
:100E2000717001C071E066958F5F791791F39091B1
:100E30008000772311F0906C02C09F7390689093AC
:100E4000800030938900209388007093320460936F
:100E500033044AC090913D03E0913C039E1319C0B6
:100E60008A3051F48BE080933E03240F351F30937A
:100E70008900209388003AC010923E038091800040
:100E80008F738093800080916F008D7F80936F00BF
:100E90002DC0EF5FE43408F0E0E0E0933C03F0E0C5
:100EA000E251FC4F90819093330410923204909160
:100EB00080009F739068909380008A3059F48091ED
:100EC000440390914503280F391F309389002093E4
:100ED000880009C08091840090918500409690938D
:100EE00089008093880081E080933E03FF91EF9119
:100EF0009F918F917F916F915F914F913F912F9132
:100F00000F900FBE0F901F901895CF93DF93EC01B9
:100F10008A859B85AC85BD858E839F83A887B9878D
:100F20000E94A5056A837B838C839D8381E08983EE
:100F30008883DF91CF9108954F925F926F927F9255
:100F40008F929F92AF92BF92CF92DF92EF92FF92D9
:100F50000F931F93CF93DF93CDB7DEB760970FB694
:100F6000F894DEBF0FBECDBF69837A838B839C83E9
:100F7000CA01B90127013801A60195010E94E92D96
:100F800025E33AEF4EE85CE30E9427316B017C01D8
:100F90000E94E4316D877E878F87988BC701B601E9
:100FA0000E94CD2E6D837E838F83988725E33AEF51
:100FB0004EE85CE369817A818B819C810E942731B4
:100FC0006B017C0125E33AEF4EE85CE3C301B2011B
:100FD0000E9427312B013C01C701B6010E94E43178
:100FE0004B015C01C701B6010E94CD2E69837A8353
:100FF0008B839C83C301B2010E94E43169877A87A5
:101000008B879C87C301B2010E94CD2E6B017C01AE
:1010100029853A854B855C8569817A818B819C81A4
:101020000E9427312B013C01A7019601C501B401A3
:101030000E9427312D813E814F8158850E942731A2
:101040009B01AC01C301B2010E94E92D9B01AC01DF
:101050000E9427312B013C012D853E854F85588903
:10106000C701B6010E9427319B01AC010E942731C4
:101070009B01AC01C301B2010E94EA2D0E94F23132
:101080002B013C0129853A854B855C85C501B4015E
:101090000E9427314B015C01A701960169817A8189
:1010A0008B819C810E9427312D813E814F81588503
:1010B0000E9427319B01AC01C501B4010E94EA2DB9
:1010C0009B01AC01C301B2010E94692E26E73BE7F8
:1010D00042EC5AE40E94273160960FB6F894DEBFC6
:1010E0000FBECDBFDF91CF911F910F91FF90EF9079
:1010F000DF90CF90BF90AF909F908F907F906F9038
:101100005F904F9008952F923F924F925F926F920F
:101110007F928F929F92AF92BF92CF92DF92EF9287
:10112000FF920F931F93CF93DF93D82FC92F8B017B
:101130000E948E2D24E630E040E050E00E943333E0
:1011400049015A019B01AC0160E876E988E990E029
:101150000E9423336B017C01F80191828082ED2F84
:10116000FC2F2191822F022E000C990BC0970A9719
:10117000C0F32E3239F51F0180E8882E86E9982EBB
:1011800088E9A82EB12C9AE0492E512C612C712CA3
:10119000F101C1911F010C2E000CDD0BE097CA304C
:1011A000D10580F4C501B401A30192010E9433333B
:1011B00049015A01DE010E948533C60ED71EE81E82
:1011C000F91EE6CFA5E0B0E0A70196010E947A33B0
:1011D0006F5F7F4F8F4F9F4F23E030E040E050E044
:1011E0000E943333F801228333834483558316826C
:1011F000DF91CF911F910F91FF90EF90DF90CF90F3
:10120000BF90AF909F908F907F906F905F904F9026
:101210003F902F900895FF920F931F93CF93DF93EA
:10122000EC01FF24F39488818D3211F0F12C01C080
:101230002196CE010E948E2D9B01AC01A4E6B0E068
:101240000E947A33FE014991242F042E000C330BA7
:10125000205331092A303105A8F34E3241F521815E
:10126000022E000C330B205331092A303105F8F4DB
:101270004AE0429F8001439F100D1124012E000C73
:10128000220B330B600F711F821F931F0281002EF0
:10129000000C110B005311090A30110540F4012E06
:1012A000000C220B330B600F711F821F931FFF2056
:1012B00039F090958095709561957F4F8F4F9F4F36
:1012C000DF91CF911F910F91FF9008951F920F9280
:1012D0000FB60F9211242F933F934F935F936F9309
:1012E0007F938F939F93AF93BF93EF93FF938091DF
:1012F000B900887F803609F49CC068F5883209F40B
:101300005BC090F4803109F454C038F4882309F4A8
:10131000F6C0883009F44DC0F6C0883109F44CC0DD
:10132000803209F45DC0EFC0803409F468C048F42D
:10133000803309F455C0883309F0E5C08093D704A1
:10134000D8C0803509F44FC0883509F45DC08834B1
:1013500009F0D9C0D6C0883909F4C7C0A8F48837C5
:1013600009F467C038F4883609F463C0803709F49B
:1013700060C0C9C0883809F4B8C0803909F45FC0BA
:10138000803809F0C0C05BC0803B09F486C038F4E7
:10139000803A09F466C0883A09F47FC0B4C0803C42
:1013A00009F4A7C0883C09F4A4C0883B09F48AC0AA
:1013B000AAC08091B40410C09091D6048091D50445
:1013C000981770F5E091D60481E08E0F8093D604D3
:1013D000F0E0EB54FB4F80818093BB0085EC86C02E
:1013E0008093D7048EC0E091D60481E08E0F809365
:1013F000D6048091BB00F0E0EB54FB4F80839091CA
:10140000D6048091D5046EC0E091D60481E08E0FA1
:101410008093D6048091BB00F0E0EB54FB4F8083B7
:101420008091D80481116DC081E08093B30484EA77
:1014300061C083E08093D9041092ED03CFCF8091F7
:10144000ED03803208F051C0E091ED0381E08E0F92
:101450008093ED038091BB00F0E0E353FC4F808369
:10146000BDCF85EC8093BC001092D9048091ED0330
:10147000803230F4E091ED03F0E0E353FC4F108252
:101480006091ED0370E0E091CB03F091CC038DEC23
:1014900093E009951092ED0336C084E08093D9045F
:1014A0001092CA031092C903E091C703F091C803D8
:1014B00009958091C903811105C081E08093C9031A
:1014C0001092A703E091CA0381E08E0F8093CA03B4
:1014D000F0E0E955FC4F80818093BB009091CA03F6
:1014E0008091C903981708F479CF85E88093BC00F0
:1014F0000AC085EC8093BC001092D90404C01092FD
:10150000D7040E94A803FF91EF91BF91AF919F91E3
:101510008F917F916F915F914F913F912F910F909C
:101520000FBE0F901F9018951F920F920FB60F923B
:1015300011242F933F938F939F93AF93BF93EF9378
:10154000FF938091C600803FF1F0982F9F70D9F4EF
:101550002091A5033091A603F901E557FF4FA08123
:10156000B1818C93D901A157BF4F8C918F5F8C9320
:101570008081918101968E179F0718F0C9018957C4
:101580009F4F91838083FF91EF91BF91AF919F9186
:101590008F913F912F910F900FBE0F901F90189534
:1015A0001F920F920FB60F9211242F933F934F93D8
:1015B0005F938F939F93EF93FF938091A5039091F7
:1015C000A603FC01EA57FF4F2081222351F13297F5
:1015D0000190F081E02D208131818091C10030FFA8
:1015E00002C0816001C08E7F8093C1002093C6003D
:1015F0002091A5033091A603F901EA57FF4F80819E
:10160000815080833297808191810296A9014E5743
:101610005F4F8417950710F0C9010296918380836C
:101620000DC08091C1008F7D80648093C100E091E6
:10163000A503F091A603E057FF4F1082FF91EF91B1
:101640009F918F915F914F913F912F910F900FBE7E
:101650000F901F9018951F920F920FB60F921124A2
:101660002F933F938F939F93EF93FF93E1ECF0E0E1
:101670008081877B806980838091A5039091A603F8
:101680009C0129573F4FFC01E557FF4F31832083D1
:1016900032963183208332961082FF91EF919F9191
:1016A0008F913F912F910F900FBE0F901F90189523
:1016B000CF92DF92EF92FF920F931F93CF93DF931E
:1016C000CDB7DEB76E970FB6F894DEBF0FBECDBFB5
:1016D0008C017B016A012EE1269FC001279F900D9E
:1016E0001124DA015A966D917C915B97680F791FEE
:1016F0004EE150E0CE0101960E94B52D8D8DF8018E
:10170000868F89818283EE0CFF1CEE0CFF1CD601B4
:101710005C96ED91FC915D97EE0DFF1D80819181AE
:10172000A281B381F80183839483A583B683A80142
:10173000485F5F4FFE013296DA0190E0819181119E
:1017400006C0392FD8015C969C93232F0FC093318C
:1017500019F09F5F8D93F2CF33E1F4CF8331910580
:1017600094F4FA01E80FF91F70832F5F622F631B57
:10177000E1E0F0E0EC0FFD1FE60FF11D7589822F0F
:1017800090E07111EBCFF801658FFA01E80FF91FB6
:1017900010828E8D813031F0823041F480E4F80186
:1017A000878F04C080E2D8015F968C93D8015E9643
:1017B0008C91843091F030F4882361F08130A1F471
:1017C00083E00FC0883041F0893051F0853061F4FA
:1017D00084E007C082E001C085E0F80180A304C076
:1017E00085E0D80190968C936E960FB6F894DEBF84
:1017F0000FBECDBFDF91CF911F910F91FF90EF9062
:10180000DF90CF9008950C94DB2D0C94D32D209174
:10181000FC049091D506213208F04AC08091D90489
:101820008111FCCF32E03093D90431E03093D804F9
:101830003FEF3093D7041092D6042093D504ACED3B
:10184000B4E045EB54E0FA013E2F341B321718F494
:101850003D913193F9CF1092B4042091B404990FC3
:10186000922B9093B4049091B304913061F4109250
:10187000B3049091B4049093BB009091BC0093FD8D
:10188000F8CF95EC01C095EE9093BC009091D904EF
:101890009230E1F39091D7049F3F79F08091D70483
:1018A000803241F08091D704803331F084E005C06C
:1018B00081E003C082E001C083E01092DB0410925B
:1018C000FC041092DA04089591E09093DA04809376
:1018D000D5061092DB041092FC040895CF93DF9399
:1018E000D82FC62F809133050E94640C6D2F8DEF89
:1018F00094E00E9436046C2F8DEF94E00E94360431
:10190000DF91CF910C94070C9091D9049111FCCFE9
:1019100091E09093D9049093D8042FEF2093D704AB
:101920001092D604260F2093D5049093B40490917E
:10193000B404880F892B8093B4048091B304813060
:1019400061F41092B3048091B4048093BB00809141
:10195000BC0083FDF8CF85EC01C085EE8093BC0010
:101960008091D9048130E1F38091D604861710F478
:101970006091D604A5EBB4E023E934E0F9018E2FA1
:10198000821B861718F48D918193F9CF862F0895C5
:10199000613208F060E20E94840C109292048093FD
:1019A000910408950F931F93CF93DF931F92CDB7A8
:1019B000DEB7682F03E315E0F801808169830E9498
:1019C000640C69818DEF94E00E9436040E94070C3C
:1019D00061E0F80180810E94C80C8DEF94E00E94C4
:1019E000EA030F90DF91CF911F910F910895CF924D
:1019F000DF92EF92FF920F931F93CF93DF931F928B
:101A0000CDB7DEB7682F03E315E0F8018081698365
:101A10000E94640C69818DEF94E00E9436040E945C
:101A2000070C63E0F80180810E94C80C8DEF94E000
:101A30000E94EA036C01990FEE08FF08FE2CED2CC2
:101A4000DC2CCC248DEF94E00E94EA03AC01990FCA
:101A5000660B770BC42AD52AE62AF72AFE2CED2C32
:101A6000DC2CCC248DEF94E00E94EA03092E000CBC
:101A7000AA0BBB0BBC01CD016C297D298E299F29A6
:101A80000F90DF91CF911F910F91FF90EF90DF901A
:101A9000CF9008950F931F93CF93DF931F92CDB7ED
:101AA000DEB7682F03E315E0F801808169830E94A7
:101AB000640C69818DEF94E00E9436040E94070C4B
:101AC00062E0F80180810E94C80C8DEF94E00E94D2
:101AD000EA03182F8DEF94E00E94EA0320E030E043
:101AE000312F822B932B0F90DF91CF911F910F916C
:101AF00008950E944A0D9827892798270895CF9323
:101B000066EB80EE0E946E0C64E670E080E090E090
:101B10000E946B0588E80E94790D90933E058093A2
:101B20003D058AE80E94790D9093400580933F051A
:101B30008CE80E94790D90934205809341058EE8D0
:101B40000E94790D909344058093430580E90E949B
:101B5000790D909346058093450582E90E94790DA1
:101B6000909348058093470584E90E94790D9093EE
:101B70004A058093490586E90E94790D90934C05AA
:101B800080934B0588E90E94790D90934E058093D0
:101B90004D058AE90E94790D9093500580934F0579
:101BA0008CE90E94790D90935205809351058EE93E
:101BB0000E94790D909354058093530580913405CC
:101BC000823009F03FC081EA0E94D20C8093550513
:101BD00081EE0E94790D909357058093560583EE10
:101BE0000E94D20C8093580584EE0E94D20CC82F1C
:101BF00085EE0E94D20C282F2F7030E1C39FC001C8
:101C00001124822B90935A058093590586EE0E94E9
:101C1000D20CC82F85EE0E94D20C90E024E095955E
:101C200087952A95E1F740E1C49F90011124822B0A
:101C3000932B90935C0580935B0587EE0E94D20CFA
:101C400080935D0589ED80935F05809160058F71BC
:101C500080628093600580915E05807C80628093C5
:101C60005E0580913405823021F461E082EF0E94AC
:101C70006E0C90915E05692F677080E2689F9001FD
:101C80001124892F869586958695877048E0849FD4
:101C9000B0011124622B732B97FB992790F9692BC4
:101CA00085EF0E946E0C90915F05692F677080E24E
:101CB000689F90011124892F869586958695877057
:101CC00048E0849FB0011124622B732B9295969566
:101CD00096959370692B84EFCF910C946E0C90E0E5
:101CE000FC01EE5EFD4F2491FC01E250FE4F349169
:101CF000FC01E651FE4FE491EE23B1F1222339F1CC
:101D0000233091F038F42130A9F0223001F584B568
:101D10008F7D12C0273091F02830A1F02430B9F423
:101D2000809180008F7D03C0809180008F778093A9
:101D300080000DC084B58F7784BD09C08091B0004C
:101D40008F7703C08091B0008F7D8093B000F0E06A
:101D5000EE0FFF1FE052FE4FA591B4918FB7F8949C
:101D6000EC913E2B3C938FBF0895109292041092F9
:101D700091041092DB041092FC041092D90481E0CB
:101D80008093D8041092B30482E10E946F0E83E125
:101D90000E946F0EE9EBF0E080818E7F808380816E
:101DA0008D7F808380E28093B80085E48093BC00BF
:101DB0000895809333050E94B50E80ED0E94D20CE9
:101DC000883521F0803641F482E001C081E08093C3
:101DD00034050E947F0D02C01092340580913405B5
:101DE00090E008958F929F92AF92BF92CF92DF9230
:101DF000EF92FF928AEF0E94F70CE3E3F5E0428551
:101E000053854A01A12CB12CC72ED82EE92EFF24D0
:101E1000E7FCFA94C818D908EA08FB08DC01CB01F2
:101E200037E0B595A795979587953A95D1F7B50180
:101E3000A401440F551F661F771F4C015D01841AD2
:101E4000950AA60AB70AA5019401A485B5850E9442
:101E500085334B015C013BE0B594A794979487943C
:101E60003A95D1F7A7019601C701B6010E94233325
:101E70009B01AC016CE055954795379527956A9580
:101E8000D1F7A685B7850E948533DC01CB017EE0C2
:101E9000B595A795979587957A95D1F7A501940162
:101EA000280F391F4A1F5B1F2683378340875187BE
:101EB000A5E0B0E00E947A33DC01CB0180589F4F4F
:101EC000AF4FBF4F692F7A2F8B2F992787FD9A9598
:101ED0000E94822F20E030E048EC52E40E94D22E93
:101EE000FF90EF90DF90CF90BF90AF909F908F903A
:101EF00008952F923F924F925F926F927F928F92AE
:101F00009F92AF92BF92CF92DF92EF92FF920F9388
:101F10001F93CF93DF93CDB7DEB7A2970FB6F89498
:101F2000DEBF0FBECDBF0E94F20E87EF0E94F70CFE
:101F30006A8F7B8F8C8F9D8F8091390590913A05A8
:101F4000A0913B05B0913C056C017D01FF0CCC08D4
:101F5000DC2C76019C01AD016C2D7C2D8C2D9C2DF3
:101F6000345F4140510961097109810991092AA32E
:101F700039A349835A836B837C838D839E83590164
:101F80006A017B018C010E948D332A8B3B8B4C8B29
:101F90005D8B6E8B7F8B888F998F80914D058E8F97
:101FA000E0914E05EF83F0914B05FF8F80914C053A
:101FB0008887E0914905E8A3F0914A05F987B09038
:101FC0004605A09045051B2D110F110BC12ED12EDA
:101FD000E12EF12E012F2AA139A149815A816B816D
:101FE0007C818D819E810E948D330CE00E94F734AC
:101FF00019012A013B014C01B0904805A09047050A
:102000001B2D110F110BC12ED12EE12EF12E012F00
:102010002A893B894C895D896E897F89888D998D54
:102020000E948D3308E00E94103551016201730156
:1020300084010E942E3570588F4F9F4F209043058A
:10204000309044055101C12CD12CE12CF12C00E041
:1020500010E00E948D3301E20E9410352A873B87F1
:102060004C875D876E877F87888B998BA0E00E9465
:102070004C3509F45EC1AE8C1F81110F110BBF806E
:10208000C12ED12EE12EF12E012F2A893B894C89B8
:102090005D896E897F89888D998D0E948D331901A4
:1020A0002A013B014C01AF8C1885110F110BB8842C
:1020B000C12ED12EE12EF12E012F2AA139A1498165
:1020C0005A816B817C818D819E810E948D3301E1DB
:1020D0000E94F73459016A017B018C019101A20130
:1020E000B301C4010E942E3519012A013B014C01A4
:1020F0004A8D5B8D6C8D7D8D84E0759567955795C8
:1021000047958A95D1F780E090E0A0E1B0E0841B8C
:10211000950BA60BB70B6C017D01FF0CCC08DC2CDA
:1021200076019C01AD016C2D7C2D8C2D9C2D0FE139
:102130000E94F734F901B42FA52F6C837D83898326
:102140009A8328A19985990F990B3985492F592F81
:10215000692F792F892F03E20E94F73459016A0110
:102160007B018C019101A201B301C4010E942E35B3
:1021700059016A017B018C019F014B2F5A2F6C8101
:102180007D8189819A810E9443354901542E652EB3
:10219000B62FA72FF82FE92F03E00E94F734540140
:1021A000C52CD62CEB2EFA2E0F2F1E2F0E94433556
:1021B00059016A017B01782E192F03E00E94F73440
:1021C000072D0E94433503E00E94F7345401C52CCB
:1021D000D62CEB2EFA2E0F2F1E2F0E94433502E035
:1021E0000E94F7340F2F0E94433501E00E94F7341C
:1021F0000F2F0E944335AA84BB84CC84DD84EE84F7
:10220000FF84088919890E94223428873F834983E3
:102210005A836B837C838D839E830DE00E941035EF
:10222000922E832E742E652E562E472E382E292E52
:102230003091540520915305932F990F990BA92C98
:10224000B82CC72CD62CE52CF42C032D122D492F9D
:10225000592F692F792F892F0E948D330E948D333A
:1022600009E10E94103559016A017B018C01288522
:102270003F8149815A816B817C818D819E810E9441
:102280002E3519012A013B014C0130915205209154
:102290005105932F990F990BA884BF80C980DA80CC
:1022A000EB80FC800D811E81492F592F692F792FDA
:1022B000892F0E948D3303E10E94103559016A0174
:1022C0007B018C019101A201B301C4010E942E3552
:1022D00008E00E941035522E632E742E852E962E05
:1022E000F72FE82FB92F3091500520914F05932FEC
:1022F000990F990B492F592F692F792F892F04E0B6
:102300000E94F73459016A017B018C01252D362D7D
:10231000472D582D692D7F2F8E2F9B2F0E942E35F4
:102320000E947A2F20E030E040E85BE30E942731F2
:1023300003C060E070E0CB01A2960FB6F894DEBF58
:102340000FBECDBFDF91CF911F910F91FF90EF9006
:10235000DF90CF90BF90AF909F908F907F906F90C5
:102360005F904F903F902F90089561157105D1F0C7
:10237000019719F4E9EDF5E002C0E9ECF5E0DB01C5
:102380009F01205F3F4F80E040E29D91992321F023
:10239000811102C0908302C0408381E03196E21730
:1023A000F30799F70895FF920F931F93CF93DF934D
:1023B000CDB7DEB76E970FB6F894DEBF0FBECDBFB8
:1023C0001092800510927F0586E292E090937C0542
:1023D00080937B0580E2E3E8F5E0DF011D928A95BA
:1023E000E9F7F12C00E010E060917B0570917C052D
:1023F000600F711F4EE150E0CE0101960E94B52D95
:10240000E981EE23B1F0E03220F4F0E0EF59FA4F29
:10241000F2A280917F0590918005019690938005AE
:1024200080937F05025E1F4FF394003CB3E01B07CF
:10243000D9F66E960FB6F894DEBF0FBECDBFDF9112
:10244000CF911F910F91FF9008952F923F924F923D
:102450005F926F927F929F92AF92BF92CF92DF92E4
:10246000EF92FF920F931F93CF93DF93CDB7DEB719
:10247000A1970FB6F894DEBF0FBECDBF811118C073
:102480001092AB051092B10510917A05812F880F3B
:10249000880F880F8093B205412F50E066E675E003
:1024A00083EB95E00E94AC36BAE09B2E910EA8C15A
:1024B000282F269530E040917F05509180054217E6
:1024C00053070CF473C080FD71C000E010E0CC2411
:1024D000CA94DC2C760180917F05909180050817C5
:1024E00019070CF061C020918205622F70E01B82F9
:1024F000CC82DD82EE82FF821D8E1E8E1F8E18A280
:1025000019A2FB01A3E0F595E795AA95E1F7ED5532
:10251000FA4F808190E0277002C0959587952A95A3
:10252000E2F7817099278887892B31F041E655E0E1
:10253000CE0101960E94580B809182058F5F809397
:10254000820590E020917F053091800582179307E6
:1025500014F0109282058885882319F11092AB053A
:102560008B818093B1058D8D28E0829FC00111245D
:102570009E8D892B8093B20580E02AE0280FE9E048
:10258000F0E0EC0FFD1FE80FF11D9081992339F069
:102590008F5FE22FF0E0E755FA4F9083EECF922E57
:1025A0002FC10F5F1F4F97CF912C2AC180E48093DA
:1025B000AB0500E010E058E0952ECC24CA94DC2C4A
:1025C00076017AE1672E712C20918105622F70E0EF
:1025D0001B82CC82DD82EE82FF821D8E1E8E1F8EBC
:1025E00018A219A2FB0143E0F595E7954A95E1F79A
:1025F000ED55FA4F808190E0277002C09595879540
:102600002A95E2F7817099278887892B31F041E676
:1026100055E0CE0101960E94580B809181058F5F95
:102620008093810590E0A0907F05B09080058A1589
:102630009B0514F0109281058885882309F4D0C089
:102640008C819D81AE81BF818F3F5FEF9507A5078C
:10265000B50709F4C5C03B81692D70E04F8D51E08D
:10266000590D303168F067557A4F242F2F70FB01D8
:10267000208322E0290DE52FF0E0E755FA4F0BC04B
:10268000252F67557A4F50E1359FF0011124342FE3
:102690003F703E2BFB01308369A170E030E0443095
:1026A000B9F128F4442369F04130D9F095C048309D
:1026B00009F466C0493009F480C0453009F08CC087
:1026C00042C0482F4F71B7FD02C080E001C080E8D2
:1026D000F901E755FA4F842B98A1892B808381E07B
:1026E0007CC0F901E755FA4F8083A9014F5F5F4F26
:1026F000E92FEF71B7FD02C080E001C080E8DA0188
:10270000A755BA4F8E2B98A1892B8C9382E065C078
:10271000A9014F595A4FFA01E85BFF4F8083319668
:102720009083A9014E5F5F4FEA2FEF71B7FD02C0A2
:1027300080E001C080E8DA01A755BA4F8E2B98A13E
:10274000892B8C931BC0A9014F595A4FFA01E85BA2
:10275000FF4F808331969083A9014E5F5F4F1D012B
:10276000552437FC5094452CB7FD02C080E001C0D1
:1027700080E8FA01E755FA4F282A208283E02DC02D
:10278000A9014F595A4FFA01E85BFF4F80833196F8
:1027900090833196A083A9014D5F5F4FEB2FEF71BE
:1027A000B7FD02C080E001C080E8DA01A755BA4F4A
:1027B0008E2B98A1892B8C930DC0A9014F595A4F8C
:1027C000FA01E85BFF4F8083319690833196A083B6
:1027D0003196B08384E001C080E0982E920E02C052
:1027E00060E070E00F5F1F4F0A151B054CF4892D48
:1027F00090E09301261B370B821793070CF4E4CE6D
:102800008EE78093A9058FE28093AA058091AB059E
:102810009EEF990D892B8093AB0589E08093AC05E1
:1028200084EA8093AD058091EB058093AE0580919D
:10283000EC058093AF051092B005292D30E0EBEA4E
:10284000F5E080E092E09E1B57E0492F4E0F4915BE
:1028500060F44191842748E087FF03C0880F8527F3
:1028600001C0880F4150C1F7F0CFF901E755FA4F89
:1028700080838091A7059091A805DC01ED91FC91E2
:102880000280F381E02D40E06EE7099511E091169A
:1028900098F08091A7059091A805DC01ED91FC913D
:1028A000A12FB0E0A755BA4F0280F381E02D41E09F
:1028B0006C9109951F5FEBCFA1960FB6F894DEBF20
:1028C0000FBECDBFDF91CF911F910F91FF90EF9081
:1028D000DF90CF90BF90AF909F907F906F905F9070
:1028E0004F903F902F900895CF93DF938091A7054D
:1028F0009091A805DC01ED91FC910280F381E02D1F
:1029000040E06EEF09958091C905882311F1C9EC6B
:10291000D5E08091A7059091A8056991DC01ED9122
:10292000FC910280F381E02D41E00995B5E0C93EBC
:10293000DB0779F78091A7059091A805DC01ED915F
:10294000FC910280F381E02D40E06FEFDF91CF91A9
:102950000994C0E2D0E08091A7059091A805DC0120
:10296000ED91FC910280F381E02D41E060E009955A
:10297000219789F7DFCFCF93DF931F92CDB7DEB7D3
:1029800020917F0530918005232B21F489830E94BB
:10299000D31189818032D0F4E82FF0E0EF59FA4F5B
:1029A00082A1E82FF0E093E0F595E7959A95E1F79D
:1029B000ED55FA4F282F277081E090E001C0880F75
:1029C0002A95EAF780959081892380831092650586
:1029D00010928205109281050F90DF91CF9108959A
:1029E000813208F080E2682F87E70E94840C109201
:1029F0009204809391040895682F8DEF94E00C94D5
:102A00003604CF93DF931F92CDB7DEB7682F809146
:102A1000280569830E94640C80E290E00E94FC1407
:102A200069818DEF94E00E9436040F90DF91CF9181
:102A30000C94070CCF93C82F0E94640C8FE090E099
:102A40000E94FC140E94070C61E08C2F0E94C80CAD
:102A50009091910480919204981729F08DEF94E061
:102A6000CF910C94EA038FEF9FEFCF9108952091BF
:102A70007D0530917E052115310589F0803278F48D
:102A8000E82FF0E0EF59FA4F82A1F90194E0899F15
:102A9000E00DF11D112440835183628373830895F7
:102AA0004F925F926F927F92AF92BF92CF92DF92DE
:102AB000EF92FF920F931F93CF93DF9300D000D03C
:102AC000CDB7DEB7082FA62E69017A01AE014F5FA0
:102AD0005F4FC701B6010E94F3302B013C01898191
:102AE0009A81AB81BC81BC01CD019F770E944B2FA5
:102AF000B62E172F2AE939E949E15FE3C301B20194
:102B00000E94273120E030E543EC57E40E94273152
:102B10009F770E944B2F3B011170A11002C090E0E3
:102B200001C090E2192B20E030E0A901C701B601F5
:102B30000E94C82E881F8827881F8295880F880FBB
:102B4000807C712F782BA3016B2D802F0F900F901D
:102B50000F900F90DF91CF911F910F91FF90EF9009
:102B6000DF90CF90BF90AF907F906F905F904F902D
:102B70000C9437151F93CF93DF9387E70E94640C63
:102B800060E08DEF94E00E9436040E94070C87E716
:102B90000E94640C83E090E00E94F01490919104F4
:102BA000809192049817F1F38DEF94E00E94EA036C
:102BB000D82F8DEF94E00E94EA03182F8DEF94E058
:102BC0000E94EA03C82F0E94070C812F90E0A0E02A
:102BD000B0E0BA2FA92F982F8827AD2BBC01CD01CB
:102BE0006C2BDF91CF911F910895CF93DF9387E7EF
:102BF0000E94640CC6EDD6E08D8590E0805B9F4F0F
:102C00000E94FC140E94070C6C8570E080E090E04C
:102C10000E946B05DF91CF910C94BA15CF93DF938F
:102C2000CDB7DEB7E1970FB6F894DEBF0FBECDBFCC
:102C3000789484B5826084BD84B5816084BD85B597
:102C4000826085BD85B5816085BD80916E008160A3
:102C500080936E0010928100809181008260809349
:102C6000810080918100816080938100809180004B
:102C70008160809380008091B10084608093B10076
:102C80008091B00081608093B00080917A00846070
:102C900080937A0080917A00826080937A0080919C
:102CA0007A008E7F80937A0080917A00806880938A
:102CB0007A001092C1001092770381E0809378032C
:102CC0001092890310928A0310928B0310928C0346
:102CD00086E70E94D90E80931905811105C087E708
:102CE0000E94D90E8093190580911905811148C061
:102CF0008DE5809328050E941A158D3B910541F4BE
:102D000081E090E090932705809326050C94A22BF8
:102D10008B3B910511F00C94C72B10922705109254
:102D200026050C94A22B019711F00C94D62B84E26B
:102D300090E090932C0580932B0585E290E0909392
:102D40002E0580932D0580E390E0909330058093CD
:102D50002F0581E390E090933205809331050E9426
:102D6000B50E80912605909127058130910511F0CF
:102D70000C94C02B80EB0E94011584E08093190510
:102D800080911905823049F018F4813031F04AC041
:102D9000833041F1843031F145C08BE794E1AEE6F8
:102DA000BFE380931A0590931B05A0931C05B09375
:102DB0001D058EEA97E4A1EEBDE380931E05909376
:102DC0001F05A0932005B093210585E090E0A0E0C9
:102DD000B0E08093220590932305A0932405B0933F
:102DE000250520C08DEC9CECACE4BFE380931A0574
:102DF00090931B05A0931C05B0931D058DEC9CECD6
:102E0000ACE4BEE380931E0590931F05A0932005BC
:102E1000B0932105109222051092230510922405EB
:102E20001092250581E090E00E94050C8F3F11F083
:102E30008093770382E090E00E94050C8F3F31F091
:102E400091E0811101C090E09093780303E010E0DD
:102E5000C8010E94050C8F3F21F0F801EA57FC4F92
:102E600080830F5F1F4F0730110591F78AE090E0D4
:102E70000E94050C8F3FA1F0682F70E080E090E089
:102E80000E94802F20E030E048EC52E40E94D22ED5
:102E900060931A0570931B0580931C0590931D0584
:102EA0008BE090E00E94050C8F3FA1F0682F70E04E
:102EB00080E090E00E94802F20E030E048EC52E477
:102EC0000E94D22E60931E0570931F0580932005EB
:102ED000909321058CE090E00E94050C8F3F59F003
:102EE00090E0A0E0B0E08093220590932305A093AA
:102EF0002405B093250580919A0690919B06892B15
:102F0000B9F48CE090E00E946735FC0113821282D4
:102F100088EE93E0A0E0B0E084839583A683B78336
:102F20008BE091E091838083F0939B06E0939A0677
:102F300010926F001092800081E88093810081E4FC
:102F400093E0909345038093440389E19EE190933D
:102F500043038093420362E088E00E94D30489E047
:102F60000E946F0E61E089E00E94D3041092410339
:102F70001092400310923F0310923E0310923D03C3
:102F800010923C0380E286BB80936F0068EE73E092
:102F900080E090E00E946B0580911905811103C0CB
:102FA00086E00E94BB1480917703813021F08091EC
:102FB0001905823019F08FE00E94BB1480917703CD
:102FC000813021F080911905811106C08DE00E94A9
:102FD000BB148EE00E94BB1480917703811109C05D
:102FE00081E00E94BB1482E00E94BB1483E00E9437
:102FF000BB148091770381110AC08091190581115A
:1030000006C084E00E94BB1485E00E94BB1480913E
:103010007703823091F087E00E94BB1488E00E9421
:10302000BB1489E00E94BB148AE00E94BB148BE0B1
:103030000E94BB148CE00E94BB1409E813E0F0E18D
:10304000EF2EF80181918F01823010F08E2D0FC08C
:1030500074E0F72EFE0CE8E0DE2EDE0C813019F075
:103060008E2D0E94BB148F2D0E94BB148D2D0E94AB
:10307000BB14E394F4E1EF12E4CF86E78093EB0511
:1030800082E38093EC0580917A0581119EC080E2F5
:10309000E9EAF5E0DF011D928A95E9F740E250E0A8
:1030A00060E270E089EC95E00E94B53643E150E0C3
:1030B0006FE571E086E695E00E94CC3688E080936B
:1030C0007A0580917F0590918005892B11F40E94EB
:1030D000D31100917F0510918005013CBFE11B07D2
:1030E00030F4C801880F991F880F991F02C08FEF15
:1030F0009FEF0E946735FC0120E030E04FEF5FEF6B
:10310000BA012017310739F04193519361937193BC
:103110002F5F3F4FF6CF80937D0590937E0581E929
:1031200090E00E94673521E9FC0111922A95E9F7A8
:103130002DE131E0DC012D933C939093A805809321
:10314000A7050E9424051092650510928205109231
:1031500081050E94A5056B017C01B0EDCB0EB7E0A7
:10316000DB1EE11CF11C80917B0590917C05892B75
:10317000F9F00E94A5056C157D058E059F05C0F42C
:1031800000E010E080917F05909180058017910705
:1031900054F3802F880F0E9425120E94741466E950
:1031A00070E080E090E00E946B050F5F1F4FEACF58
:1031B0008091A7059091A805DC01ED91FC91048018
:1031C000F581E02D09958111F3CF0E94A5050091AD
:1031D000A1031091A2032091A3033091A4030D87B2
:1031E0001E872F87388BDC01CB01801B910BA20B34
:1031F000B30B87399105A105B10538F480917703A8
:10320000882311F40C94742735C7809119058823FD
:1032100009F468C68330D1F0843009F030C480915D
:1032200028050E94640C88EA90E00E94FC140E9429
:10323000070C63E0809128050E94C80C80919104DE
:1032400090E020919204821B910979C387E70E9444
:10325000640C8091E30690E0805C9F4F0E94FC1418
:103260000E94070C6091E20670E080E090E00E940E
:103270006B050E94BA156D8B7E8B8F8B988F0E9489
:10328000F5152091DE063091DF06890120E030E05F
:10329000322F212F102F00272B013C01401A510AF9
:1032A000620A730AE091DC06F091DD068090D80690
:1032B0009090D906940140E050E060E070E080E03A
:1032C00090E000E10E94F734F22E132F1A014B0117
:1032D000898399879F0140E050E0C301B2010E94B9
:1032E000E633D22EE32E042FB52FF62FE72FB82E7C
:1032F000C92EA0E00E944C355CF4AFE70E94373540
:10330000D22EE32E042FB52FF62FE72FB82EC92E7D
:103310002D2D3E2D402F5B2F6F2F7E2F8B2D9C2D23
:1033200007E00E94103559016A01E62EF72F082F99
:10333000E92F2F2D312FA101B40189819985FF2E0D
:103340001E2F0E942E35298F3F8F48A359A36AA3B1
:103350007BA38CA39DA36091D6067091D706A09005
:10336000DA06B090DB0680E090E020E030E840E054
:1033700050E00E94F533D22EE32EF42E152F1B01C0
:103380004C01950140E050E0C301B2010E94E633D8
:10339000022FA32E4983B52FF62FE72FB82EC92E63
:1033A000A0E00E944C3584F421503F4F4F4F5F4FB7
:1033B0006F4F7F4F8F4F9F4F022FA32E4983B52F03
:1033C000F62FE72FB82EC92E202F3A2D49815B2FDB
:1033D0006F2F7E2F8B2D9C2D08E00E9410355901F8
:1033E000C42EB52FA62FF72F082FE92F2D2D3E2DF8
:1033F0004F2D512FB101C401DB2EEA2EFF2E1E2FBF
:103400000E942E3528AB39AB4EA35FA368A779A7DE
:103410008AA79BA72091E0063091E10640E050E0AA
:10342000C301B2010E94E633F22E032F142FB52FF1
:10343000F62FE72FD82EE92EA0E00E944C3584F419
:103440002150310940485F4F6F4F7F4F8F4F9F4F43
:10345000F22E032F142FB52FF62FE72FD82EE92E9B
:103460002F2D302F412F5B2F6F2F7E2F8D2D9E2DD7
:1034700007E10E94103529833A834B835C836D8377
:103480007E838F839887C980DA80EB80FC8010ED83
:10349000C10E17E0D11EE11CF11C1092E80610923B
:1034A000E9061092EA061092EB061092EC061092D2
:1034B000ED061092EE061092EF061092F0061092B2
:1034C000F1061092F2061092F3061092F406109292
:1034D000F5061092F6061092F70620EDC21627E0C8
:1034E000D206E104F1040CF0C8C029813A814B8175
:1034F0005C81CA01B9010E9423339B01AC01A5E0A4
:10350000B0E00E947A334B015C01B594A794979484
:1035100087942B013C01770C4408542C3201809293
:10352000E8069092E906A092EA06B092EB06409275
:10353000EC064092ED064092EE064092EF068B01BB
:103540009C0142E035952795179507954A95D1F747
:1035500009871A872B873C870093F0061093F106A2
:103560002093F2063093F3064092F4064092F5065B
:103570004092F6064092F70614E2C1161AEFD10601
:103580001FEFE106F1060CF078C069817A818B812A
:103590009C816455724F8F4F9F4F9B01AC010E94DD
:1035A0002333698B7A8B8B8B9C8BA7E0B0E09B01DC
:1035B000AC010E947A337B018C019B01AC01550F59
:1035C000220B322FA90129833A834B835C83940118
:1035D000A501642D742D842D942D57016801E98077
:1035E000FE2C0E2D1E2D0E942E352093E8063093C2
:1035F000E9064093EA065093EB066093EC0670935D
:10360000ED068093EE069093EF06ABE0B0E02989DB
:103610003A894B895C890E947A337B018C0115952C
:103620000795F794E7949B01AC01550F220B322FBD
:10363000A90129833A834B835C8329853A854B858D
:103640005C85642D742D842D942D57016801E980CB
:10365000FE2C0E2D1E2D0E942E352093F006309349
:10366000F1064093F2065093F3066093F4067093CC
:10367000F5068093F6069093F7068D899E89AF89AB
:10368000B88D1C012D0128A939A94EA15FA168A5FB
:1036900079A58AA59BA5A090F006B090F106C090F0
:1036A000F206D090F306E090F406F090F506009153
:1036B000F6061091F7060E94433559016A017B0115
:1036C0008C019101A20160E070E080E090E00E9436
:1036D0008D33122FE32ED42EB52FF62FE72FF82E91
:1036E000092FA0E00E944C3584F421503109404E4E
:1036F0005F4F6F4F7F4F8F4F9F4F122FE32ED42E70
:10370000B52FF62FE72FF82E092F212F3E2D4D2D07
:103710005B2F6F2F7E2F8F2D902F05E10E9410358C
:103720004901742E652EB62FA72FF82FE92F298D6A
:103730003F8D48A159A16AA17BA18CA19DA1A09018
:10374000E806B090E906C090EA06D090EB06E0905B
:10375000EC06F090ED060091EE061091EF060E9447
:10376000433559016A017B018C019401472D562D87
:103770006B2F7A2F8F2F9E2F0E944335122FE32E0F
:10378000D42EB52FF62FE72FF82E092FA0E00E9498
:103790004C3584F4215030484F4F5F4F6F4F7F4F6F
:1037A0008F4F9F4F122FE32ED42EB52FF62FE72FDA
:1037B000F82E092F212F3E2D4D2D5B2F6F2F7E2FA1
:1037C0008F2D902F0FE00E941035352E2987232E44
:1037D000498B622F732F842F952F0E94822F20E810
:1037E00036EE45EC57E40E94D22E2BEA3CED42E443
:1037F0005EE30E9494319B01AC0160E070E080E8E0
:103800009FE30E94E92D20E03AE24DE257E40E9456
:10381000273120E030E048EC52E40E9427310E943A
:10382000442F4B015C010E94F5152091DE0630917A
:10383000DF06890120E030E0322F212F102F0027F2
:103840006B017C01C01AD10AE20AF30A2091E0065A
:103850003091E10640E050E0C701B6010E94E63336
:103860003901042FB52FF62FE72F2C01A0E00E947D
:103870004C3574F42150310940485F4F6F4F7F4FF2
:103880008F4F9F4F3901042FB52FF62FE72F2C01B3
:103890009301402F5B2F6F2F7E2FC20107E10E9403
:1038A000103529833A834B835C836D837E838F83BA
:1038B000988749805A806B807C8090ED490E97E014
:1038C000591E611C711CA0ED4A16A7E05A0661043E
:1038D00071044CF01092E4061092E5061092E60690
:1038E0001092E70613C0A7019601C701B6010E9416
:1038F000233320E030E0A9010E9455332093E406F1
:103900003093E5064093E6065093E7068091E4067F
:103910009091E506A091E606B091E7069301820139
:10392000081B190B2A0B3B0BC901B8010E94822FFF
:1039300020E030E048EC52E40E94D22E96C0833062
:103940009105ECF38DEF94E00E94EA03182F8DEFC0
:1039500094E00E94EA03082F8DEF94E00E94EA03AE
:10396000482F880F550B660B770BBA015527442754
:10397000412B0E8F1D8E2D8D3E8DC901A0E0B0E034
:103980008A019B01082B192B2A2B3B2BC901B8015B
:103990000E94822F20E030E040E859E30E94273166
:1039A0000E94442F6987272E898B392E932D0E94E0
:1039B000822F20E030E54DE754E40E94D22E2EE421
:1039C00034ED42E45EE30E9494319B01AC0160E07F
:1039D00070E080E89FE30E94E92D2DEC3AE24DE291
:1039E00057E40E94273120E030E048EC52E40E9486
:1039F00027310E94442F4B015C01809128050E94D1
:103A0000640C8BEA90E00E94FC140E94070C62E0B8
:103A1000809128050E94C80C8091910490E020912B
:103A20009204821B910982309105ECF38DEF94E0B2
:103A30000E94EA03082F8DEF94E00E94EA03982F7A
:103A40008827BC01602B072E000C880B990B0E9465
:103A5000822F20E030E040EF53E40E94D22E20E09D
:103A600030E04AE252E40E94EA2D20E030E040E2F9
:103A700051E40E9427310E94442F8B0144C10E94CF
:103A8000790F0E94442F6987272E898B392E0E9437
:103A9000790F20E030E048EC52E40E94D22E20E082
:103AA00030E54DE754E40E94D22E21E03EED42E4A1
:103AB0005EE30E9494319B01AC0160E070E080E81D
:103AC0009FE30E94E92D20E03AE24DE257E40E9494
:103AD000273120E030E048EC52E40E9427310E9478
:103AE000442F4B015C010E94F20E20E030E040E2E6
:103AF00051E40E9427310E94442F8B0180911905C7
:103B0000823009F000C10E94F20E8DEF0E944A0D32
:103B10006C01E12CF12CC11420E8D206E104F1047F
:103B200009F4E0C04090390550903A0560903B059B
:103B300070903C053CE2531A31E0630A71088EE054
:103B4000CC0CDD1CEE1CFF1C8A95D1F72091590589
:103B500030915A05C901330FAA0BBB0B24E1880F22
:103B6000991FAA1FBB1F2A95D1F7C81AD90AEA0ABA
:103B7000FB0AA0915B05B0915C05A30192010E9434
:103B80008533C61AD70AE80AF90A40E4D40EE11CC4
:103B9000F11C3FE0F594E794D794C7943A95D1F798
:103BA000A0915D050A2E000CBB0BA30192010E949F
:103BB00085339B01AC016AE055954795379527956C
:103BC0006A95D1F729833A834B835C83A09158058A
:103BD000B0E0A30192010E947A33DC01CB017BE0CB
:103BE000B595A795979587957A95D1F7BC01CD01A5
:103BF00070588F4F9F4F29813A814B815C810E9481
:103C00002333DC01CB01EAE0B595A795979587951D
:103C1000EA95D1F79C01AD01405E5F4FA09156053A
:103C2000B09157050E948533DC01CB01905EAF4F08
:103C3000BF4FBC01CD01FEE09595879577956795BF
:103C4000FA95D1F7A70196010E9423336B017C01FD
:103C5000AFE09595879577956795AA95D1F79B01E4
:103C6000AC010E9423339B01AC01B7E05595479509
:103C700037952795BA95D1F7A0915505B0E00E94E8
:103C80007A33DC01CB0124E0B595A795979587950C
:103C90002A95D1F7C81AD90AEA0AFB0AF7FE03C027
:103CA000C12CD12C7601D701C60131E0C316D10455
:103CB000E10439E1F30624F080E090E0A0E0B9E10E
:103CC000BC01CD01BCE09595879577956795BA9530
:103CD000D1F70E94822F20E030E040E85AE30E94B2
:103CE000273104C060E070E080EC9FE720E030E026
:103CF00040E251E40E9427310E94442FAB01BC01F5
:103D00008FE00E94371580919D0390919E03A091B2
:103D10009F03B091A003A5019401281B390B4A0B06
:103D20005B0BCA01B9010E94822F6B017C010E94CA
:103D3000A50580929D0390929E03A0929F03B0924E
:103D4000A0032D853E854F855889621B730B840B1C
:103D5000950B0E94802F9B01AC0160E070E08AE728
:103D600094E40E94D22E9B01AC01C701B6010E94CF
:103D700027310E94442F0E94822F2B013C01209169
:103D8000990330919A0340919B0350919C03609159
:103D90001A0570911B0580911C0590911D050E94CC
:103DA00027316B017C0120911E0530911F05409148
:103DB000200550912105C301B2010E9427319B01CA
:103DC000AC01C701B6010E94EA2D6093990370937C
:103DD0009A0380939B0390939C030E94442F4090EE
:103DE0002205509023056090240570902505461605
:103DF0005706680679063CF46B017C01C418D508A7
:103E0000E608F70816C0CC24DD247601C418D508CE
:103E1000E608F7086C157D058E059F053CF46B01DF
:103E20007C01C40CD51CE61CF71C03C0C12CD12C92
:103E300076010E94A5056C3775418105910588F4CE
:103E40008092950390929603A0929703B092980364
:103E50001092990310929A0310929B0310929C0364
:103E60002EC08091950390919603A0919703B091F5
:103E70009803A5019401281B390B4A0B5B0BCA015F
:103E8000B9012AE030E040E050E00E945533209331
:103E90009103309392034093930350939403C5018D
:103EA000B40124E630E040E050E00E945533209316
:103EB0008D0330938E0340938F0350939003B7018B
:103EC000A60186E00E9437154985522D6989732D18
:103ED0008DE00E943715A801110F660B770B8EE05D
:103EE0000E9437150E94A5056093A1037093A20359
:103EF0008093A3039093A40372EDE72E71E0F72E55
:103F0000E9E0AE2EE5E0BE2E09E713E0F9E88F2EDA
:103F1000F3E09F2EA0E12A2ED4013D904D01B1E0A7
:103F20003B1229C0F70180810E945405BC01990F02
:103F3000880B990B0E94822F20E030EC4FE754E46D
:103F40000E94D22E20E030E44EE455E40E94273156
:103F5000D5012D913D914D915C910E94273120E03A
:103F600030E040E251E40E94D22E0E94442FAB0187
:103F7000BC01822D70C0B1E0B31508F06EC0E5E061
:103F8000E31528F062E7C62E66E0D62E04C05CE892
:103F9000C52EDD24D394D7018C910E945405BC0119
:103FA000990F880B990B0E94822F20E030EC4FE78D
:103FB00054E40E94D22E20E030E44EE455E40E9406
:103FC00027312B013C01B60180E090E00E94802F58
:103FD0009B01AC01C301B2010E94E92D2B013C0100
:103FE000E32DF0E0EB5DFE4F608170E080E090E05B
:103FF0000E94822F9B01AC01C301B2010E94D22E0C
:104000002B013C0120E030E040E251E40E942731E6
:104010000E94442FAB01BC0184E0820D0E94371541
:1040200020E030E040EC51E4C301B2010E94D22E06
:10403000F80120813181428153810E94EA2DD8010B
:104040006D937D938D939C9313970E94442FAB01A6
:10405000BC0188E0820D0E943715BFEFEB1AFB0A06
:10406000E4E0AE0EB11C23940C5F1F4FF4E12F125D
:1040700053CFC4C880919A0690919B06892B09F46E
:1040800049C432E0E32EAA24A39447E0F42E8091A1
:104090009A0690919B06DC01ED91FC910084F185DC
:1040A000E02D0995892B09F435C480919A069091E9
:1040B0009B06DC01ED91FC910284F385E02D0995CE
:1040C000B82E80918A0690918B06A0918C06B091B3
:1040D0008D060196A11DB11D80938A0690938B06D3
:1040E000A0938C06B0938D06B4E2BB1609F4BDC252
:1040F000E0918406BB153CF0FAE0BF1679F00DE0C4
:10410000B012C0C20BC01AE2B11641F02CE2B212DA
:10411000B9C2809171068B2580937106EF3008F04B
:104120007BC1F0E0ED58F94F108280917206882330
:1041300009F474C1209173063FEB320F822F022ED7
:10414000000C990B363010F4C79707C02156263063
:1041500018F48755910901C0C097282F2295207F18
:10416000309174064FEB430F832F032E000C990BF5
:10417000463010F4C79707C03156363018F48755CB
:10418000910901C0C097820F90917106891331C1C6
:104190008091960690919706A0919806B091990605
:1041A0000196A11DB11D8093960690939706A0934A
:1041B0009806B093990680918506882399F080919E
:1041C0008E0690918F06A0919006B091910601966F
:1041D000A11DB11D80938E0690938F06A09390062B
:1041E000B093910610918206112309F46BC011302F
:1041F00009F0D0C08091150690911606A09117067F
:10420000B09118068093110690931206A09313069E
:10421000B09314060E94A5056093190670931A06C0
:1042200080931B0690931C061093100610930F06A4
:104230008091230690912406A0912506B091260630
:1042400080931F0690932006A0932106B093220628
:104250000E94A5056093270670932806809329067F
:1042600090932A0610931E0610931D0680918506D2
:10427000882309F48FC0EDEFF5E0AFEEB5E08F2DA8
:1042800001900D928A95E1F7E4E0F6E0A6EFB5E043
:104290008F2D01900D928A95E1F70E94A5056093FC
:1042A0000B0670930C0680930D0690930E061093E8
:1042B000EE051093ED058BE296E00E94850789E3F9
:1042C00096E066C08091230690912406A091250671
:1042D000B091260680931F0690932006A093210696
:1042E000B09322060E94A5056093270670932806C6
:1042F0008093290690932A06A0921E06A0921D067E
:1043000080918506882321F1EDEFF5E0AFEEB5E071
:104310008F2D01900D928A95E1F7E4E0F6E0A6EF8B
:10432000B5E08F2D01900D928A95E1F70E94A505C9
:1043300060930B0670930C0680930D0690930E0607
:10434000A092EE05A092ED0587E496E00E94850715
:1043500080915F0690916006A0916106B09162061F
:1043600080935B0690935C06A0935D06B0935E0617
:104370000E94A505609357067093580680935906CE
:1043800090935A06A0925606A092550683E696E0B0
:104390000E94850700918806109189060115110574
:1043A00009F451C1E0918806F091890666A177A1D0
:1043B000F80186A197A10E94BC36892B09F043C160
:1043C000B801C80140960E94C5360E94A505D801D3
:1043D00090966D937D938D939C9393979596AC92C5
:1043E00095979496AC9294979A960D911C919B9761
:1043F000D5CF8091920690919306A0919406B091AA
:1044000095060196A11DB11D809392069093930687
:10441000A0939406B093950680E016C19091830610
:10442000911149C068E671E083E796E00E94BC36CE
:10443000892B41F06EE671E083E796E00E94BC367E
:10444000892B19F4A092820615C064E771E083E716
:1044500096E00E94BC36892B41F06AE771E083E761
:1044600096E00E94BC36892B19F41092820602C095
:10447000E092820680918606909187069093890645
:104480008093880600918806109189060115110510
:1044900019F2F801C6A0D7A063E776E0C6010E9432
:1044A000BC3697FD02C00C94312CD8019A968D91A0
:1044B0009C919B97E3CFE0918206E23009F491C092
:1044C00080917306882309F48CC000E2E09FF0011C
:1044D0001124E92B3197E932F10508F082C0EC5C38
:1044E000FF4F0C94743383E796E00E940B096093AE
:1044F000230670932406809325069093260671C0A8
:1045000091E0813409F043C043C06DEF75E009C00C
:1045100091E0833509F090E09093030662C064E077
:1045200076E083E796E00E9483085BC091E08735E0
:1045300009F090E090930A0654C083E796E00E9449
:104540000B09609335067093360680933706909377
:10455000380647C083E796E00E940B096093430644
:104560007093440680934506909346063AC083E7CD
:1045700096E00E948E2D6093150670931606809328
:104580001706909318062DC091E081330CF490E04B
:104590009093850626C083E796E00E948E2D609357
:1045A0005F0670936006809361069093620619C05F
:1045B00083E796E00E940B0960936D0670936E0688
:1045C00080936F06909370060CC083E796E00E947C
:1045D0000B09609351067093520680935306909393
:1045E000540600918806109189060115110509F4F9
:1045F00013CFE0918806F091890666A177A1F801B2
:1046000086A197A10E94BC36892B09F005CFD8015D
:1046100098962D913C9199978091830690E082170E
:1046200093070CF4F9CE2817390739F440E150E02C
:1046300063E776E0C8010E94CC36D8019A960D91C6
:104640001C919B97D2CF81E0909183069F5F9093BE
:1046500083061092840691E0BAE2BB1290E0909338
:104660007206882309F413CD21C01092840610929B
:10467000830610927106E0928206109272061092E2
:10468000850605CDEE3040F481E08E0F80938406E0
:10469000F0E0ED58F94FB082809172068111F7CCAD
:1046A000809171068B2580937106F1CC1092EE05F6
:1046B0006091EF057091F00580E090E00E94802FFE
:1046C0006B017C016091F1057091F2058091F30519
:1046D0009091F4050E94802F28E23BE64EE65EE4CE
:1046E0000E94D22E9B01AC01C701B6010E94EA2DA7
:1046F0002091F505DC01CB012111B05880939C0677
:1047000090939D06A0939E06B0939F066091F60538
:104710007091F70580E090E00E94802F6B017C0192
:104720006091F8057091F9058091FA059091FB056B
:104730000E94802F28E23BE64EE65EE40E94D22EE5
:104740009B01AC01C701B6010E94EA2D2091FC0536
:10475000DC01CB012111B0588093A0069093A106F3
:10476000A093A206B093A3068091ED05882389F05B
:104770000E94A50500910B0610910C0620910D06D4
:1047800030910E06DC01CB01801B910BA20BB30B09
:1047900003C08FEF9FEFDC018093BC069093BD06B2
:1047A000A093BE06B093BF0610922C06609131060E
:1047B0007091320680913306909134060E94822FC8
:1047C0006B017C0126E53EE04DEE5FE30E94273160
:1047D00020E030E048EC52E40E94D22E0E94442FA8
:1047E0006093AC067093AD068093AE069093AF06CF
:1047F0002EEB3CE443E95FE3C701B6010E94273199
:1048000020E030E048EC52E40E94D22E0E94442F77
:104810006093B0067093B1068093B2069093B3068E
:104820001092480660914D0670914E0680914F0699
:10483000909150060E94822F6B017C0120E030E0B5
:1048400048EC52E40E94D22E0E94442F6093A406AA
:104850007093A5068093A6069093A70628E439EFE7
:1048600041E550E4C701B6010E94273120E030E065
:1048700048EC52E40E94D22E0E94442F6093A80676
:104880007093A9068093AA069093AB0610923A06FD
:1048900060913F06709140068091410690914206DA
:1048A0000E94822F20E030E048EC52E40E94D22E99
:1048B0000E94442F6093B4067093B5068093B606A9
:1048C0009093B706109264068091690690916A06EB
:1048D000A0916B06B0916C068093B8069093B906D0
:1048E000A093BA06B093BB068091ED058093C006F5
:1048F0001092560680915B0690915C06A0915D0631
:10490000B0915E068093C1069093C206A093C30641
:10491000B093C4068091760381112AC08091C006AD
:10492000882309F49BC78091BC069091BD06A09195
:10493000BE06B091BF06803D9740A105B1050CF0C1
:104940008DC781E08093760380917503811110C03B
:104950000E94A505DC01CB0188579C4EAF4FBF4F8D
:104960008093710390937203A0937303B0937403C5
:1049700080917603882309F443C200919C0610912C
:104980009D0620919E0630919F0609831A832B83F2
:104990003C832091A0063091A1064091A20650913F
:1049A000A30629873A874B875C874091AC065091D4
:1049B000AD066091AE067091AF0683E00E94371598
:1049C0004091B4065091B5066091B6067091B70655
:1049D00089E00E94371580917503811153C0C09002
:1049E0007103D0907203E0907303F09074030E94FF
:1049F000A505C616D706E806F90608F043C081E00B
:104A00008093750309811A812B813C8100936D038A
:104A100010936E0320936F033093700329853A85BA
:104A20004B855C852093690330936A0340936B0345
:104A300050936C0389819A81AB81BC81809365031B
:104A400090936603A0936703B09368032093610378
:104A5000309362034093630350936403809119057C
:104A6000811110C08091A4069091A506A091A60680
:104A7000B091A7068093950390939603A093970314
:104A8000B09398034091A4065091A5066091A606A4
:104A90007091A70640938D0350938E0360938F030C
:104AA000709390038091190581111AC0809195032C
:104AB00090919603A0919703B09198039A01AB014E
:104AC000281B390B4A0B5B0BAAE0B0E00E947A333B
:104AD0006093910370939203809393039093940354
:104AE00080917503882309F47BC14090690350903D
:104AF0006A0360906B0370906C0380916D039091DA
:104B00006E03A0916F03B0917003898B9A8BAB8B6E
:104B1000BC8B630152017C018D0129853A854B854F
:104B20005C8569817A818B819C810E949C070E94AF
:104B30004B2F6D877E878F87988B3090780333203B
:104B4000C1F16091910370919203809193039091D0
:104B500094032AE030E040E050E00E945533CA015F
:104B6000B9010E94822F6B017C016D857E858F8546
:104B700098890E94802F4B015C01A7019601C70113
:104B8000B6010E9427316B017C01A5019401C5018A
:104B9000B4010E9427319B01AC01C701B6010E94FC
:104BA000EA2D0E94F2310E944B2F6D877E878F87FE
:104BB000988BA301920169857A858B859C850E94DB
:104BC000E92D25E33AEF4EE85CE30E9427314B01E3
:104BD0005C0125E33AEF4EE85CE369897A898B89C9
:104BE0009C890E9427312B013C0125E33AEF4EE8D6
:104BF0005CE369817A818B819C810E9427316B0102
:104C00007C01C501B4010E94E4316D8B7E8B8F8BDA
:104C1000988FC701B6010E94CD2E698B7A8B8B8B42
:104C20009C8BC301B2010E94E431698F7A8F8B8F14
:104C30009C8FC501B4010E94CD2E4B015C012989D6
:104C40003A894B895C89698D7A8D8B8D9C8D0E9408
:104C50002731A50194010E9427314B015C01C3015A
:104C6000B2010E94CD2E2B013C01C701B6010E946A
:104C7000E4319B01AC01C301B2010E942731A501BF
:104C800094010E94E92D6B017C0129893A894B89A5
:104C90005C896D897E898F89988D0E942731A70153
:104CA00096010E94692E6B017C0120E030E0A90191
:104CB0000E94C82E87FF0AC02BED3FE049EC50E46C
:104CC000C701B6010E94EA2D6B017C0121EE3EE294
:104CD00045E652E4C701B6010E9427310E94442FE5
:104CE0002B013C01A0906103B0906203C09063036C
:104CF000D0906403E0906503F09066030091670331
:104D00001091680329853A854B855C8569817A8194
:104D10008B819C810E949C076B017C01332009F4EC
:104D200046C060919103709192038091930390919A
:104D300094032AE030E040E050E00E945533CA017D
:104D4000B9010E94822F9B01AC010E9427314B01C7
:104D50005C01A7019601C701B6010E9427319B01A2
:104D6000AC01C501B4010E94EA2D0E94F2319B0101
:104D7000AC0160915D0370915E0380915F0390913F
:104D800060032CA73DA74EA75FA70E94802F2CA5EC
:104D90003DA54EA55FA50E94EA2D0E944B2F609372
:104DA0005D0370935E0380935F03909360030981BA
:104DB0001A812B813C810093650310936603209335
:104DC00067033093680329853A854B855C8520937A
:104DD00061033093620340936303509364033FC0C5
:104DE00010925D0310925E0310925F0310926003B5
:104DF000412C512C32011D861E861F86188A2FC019
:104E000080911905811108C01092910310929203AC
:104E1000109293031092940310928D0310928E03BC
:104E200010928F031092900340E050E0BA0183E0AB
:104E30000E94371540E050E0BA0189E00E94371522
:104E4000412C512C32011D861E861F86188A198618
:104E50001A861B861C8619821A821B821C82298153
:104E60003A814B815C8160E081E00E945015298588
:104E70003A854B855C8561E082E00E945015B30164
:104E8000A2018AE00E9437154091C1065091C206E6
:104E90006091C3067091C4068BE00E943715409163
:104EA000B8065091B9066091BA067091BB068CE0C5
:104EB0000E94371560915D0370915E0380915F03DE
:104EC000909160032AE030E040E050E00E943333EC
:104ED000BA01A90188E00E9437154D855E856F856E
:104EE000788987E00E943715409191035091920391
:104EF000609193037091940384E00E943715409170
:104F00008D0350918E0360918F037091900385E023
:104F10000E9437158091A7059091A805DC01ED91BD
:104F2000FC910480F581E02D0995182F811105C0B1
:104F300080910001882309F44EC30E94A505C0900A
:104F40005903D0905A03E0905B03F0905C036C151A
:104F50007D058E059F0508F43EC30E94A505DC0172
:104F6000CB0188539F4FAF4FBF4F8093590390930E
:104F70005A03A0935B03B0935C0301E0E12CF12C96
:104F800029E0D22E103E51F480915703909158039E
:104F90008D3091050CF08DC101960BC0103771F466
:104FA0008091570390915803181619060CF081C18F
:104FB0000197909358038093570382C0103D09F0E6
:104FC00082C06090570370905803B6E06B1671046E
:104FD00069F1E7E06E16710409F44BC0F5E06F1655
:104FE000710409F05EC080901A0590901B05A09096
:104FF0001C05B0901D0528E431EE4AE75FE3C501CA
:10500000B4010E94C82E87FF4CC02AE037ED43E26E
:105010005CE3C501B4010E94EA2D60931A05709308
:105020001B0580931C0590931D053BC080901E05B9
:1050300090901F05A0902005B090210528E431EE46
:105040004AE75FE3C501B4010E94C82E87FF29C06B
:105050002AE037ED43E25CE3C501B4010E94EA2D8A
:1050600060931E0570931F05809320059093210582
:1050700018C08091220590912305A0912405B0913C
:10508000250584369105A105B1055CF40196A11DA5
:10509000B11D8093220590932305A0932405B0931E
:1050A0002505C30108978430910550F4FC01E757AA
:1050B000FC4F8081811102C0D08202C08150808368
:1050C00000930001F6C0103B09F0F3C0E0915703D4
:1050D000F09158033197ED30F10508F0D8C0E35A4C
:1050E000FF4F0C947433F7010995809177038F5F1C
:1050F000833018F480937703CAC010927703C7C037
:1051000080917803802780937803C1C080901A052E
:1051100090901B05A0901C05B0901D052AE037ED6E
:1051200043E25CE3C501B4010E94E63018160CF0BE
:10513000AEC02AE037ED43E25CE3C501B4010E9452
:10514000E92D60931A0570931B0580931C059093BD
:105150001D059DC080901E0590901F05A090200504
:10516000B09021052AE037ED43E25CE3C501B401CC
:105170000E94E63018160CF08AC02AE037ED43E2B0
:105180005CE3C501B4010E94E92D60931E05709394
:105190001F05809320059093210579C080912205F9
:1051A00090912305A0912405B091250518161906A4
:1051B0001A061B060CF06BC00197A109B109809378
:1051C000220590932305A0932405B09325055FC085
:1051D0006091770381E090E00E94030C6091780376
:1051E00082E090E00E94030C89E8882E83E0982EEC
:1051F00093E0A92EB12CD4016D914D01C5010E94FF
:10520000030CBFEFAB1ABB0AE7E0AE16B10499F787
:1052100020E030E048EC52E460911A0570911B05E3
:1052200080911C0590911D050E9427310E94442FFA
:105230008AE090E00E94030C20E030E048EC52E469
:1052400060911E0570911F058091200590912105A8
:105250000E9427310E94442F8BE090E00E94030CB3
:10526000609122058CE090E00E94030CF701099503
:10527000A12CB12C6FEFC5010E94030CFFEFAF1AF8
:10528000BF0A24E1A216B104A9F7F7010995E0913C
:105290005703F09158033897E430F10508F010CF28
:1052A000E757FC4F80818F5F8A3008F408CF108267
:1052B00007CF80910001882309F48DC1E091570345
:1052C000F0915803EE30F10508F0EFC0E659FF4FBA
:1052D0000C94743360E871E080E090E00E94B511B6
:1052E00060E971E0DEC06DE971E080E090E00E946D
:1052F000B5116AEA71E0D5C080917703813049F039
:1053000028F08230C1F46FEC71E011C066EB71E0FF
:105310000EC064EC71E00BC080917703882309F420
:1053200031CE80917803882349F06AEE71E080E005
:1053300090E00E94B5116DED71E0B3C06BEF71E0CC
:10534000F6CF6CE072E080E090E00E94B5118091B1
:1053500019058230A1F040F4882371F0813009F002
:10536000A4C06BE272E09DC0833061F0843009F02C
:105370009CC062E572E095C06DE172E092C068E3A6
:1053800072E08FC065E472E08CC0809119058823BB
:1053900009F4F8CD20E030E048EC52E460911A05C1
:1053A00070911B0580911C0590911D050E9427316D
:1053B0000E94442F7F936F938CE592E019C08091F7
:1053C0001905882309F4DECD20E030E048EC52E4F2
:1053D00060911E0570911F05809120059091210517
:1053E0000E9427310E94442F7F936F938CE792E0B5
:1053F0009F938F9386E493E09F938F930E94DB3675
:1054000066E473E080E090E00E94B5116CE672E023
:1054100081E090E00E94B5110F900F900F900F90D7
:105420000F900F9042C080911905882309F4AACDEE
:10543000809125058F93809124058F93809123057A
:105440008F93809122058F938CE892E09F938F93A6
:1054500086E493E09F938F930E94DB3666E473E0CB
:1054600080E090E00E94B5116CE672E081E090E08F
:105470000E94B5110FB6F894DEBF0FBECDBF15C0A8
:105480006AE972E080E090E00E94B5116BEA72E098
:1054900008C066EB72E080E090E00E94B51165EC18
:1054A00072E081E090E00E94B511009157031091E5
:1054B0005803C8010897049708F08BC061ED72E0AB
:1054C00086E493E00E94C53689E2800F809347030B
:1054D000F801EF57FC4FE0818E2F90E08A30910564
:1054E00008F06BC0FC01E858FF4F0C947433E6E4FD
:1054F000F3E0DF010D900020E9F7CD016BEB71E0E7
:1055000059C0E6E4F3E0DF010D900020E9F7CD019A
:1055100066ED72E04FC0E6E4F3E0DF010D9000209D
:10552000E9F7CD016EED72E045C0E6E4F3E0DF019E
:105530000D900020E9F7CD0169EE72E03BC0E6E492
:10554000F3E0DF010D900020E9F7CD0165EF72E097
:1055500031C0E6E4F3E0DF010D900020E9F7CD0172
:1055600061E073E027C0E6E4F3E0DF010D90002086
:10557000E9F7CD016DE073E01DC0E6E4F3E0DF0183
:105580000D900020E9F7CD0168E173E013C0E6E477
:10559000F3E0DF010D900020E9F7CD0164E273E054
:1055A00009C0E6E4F3E0DF010D900020E9F7CD014A
:1055B00060E373E001970E94C53666E473E080E023
:1055C00090E00E94B5116CE672E081E090E00E94EC
:1055D000B51110920001C0906105D0906205E09075
:1055E0006305F0906405B6E9CB0ED11CE11CF11CFB
:1055F0000E94A5056C157D058E059F0508F498C0D1
:105600000E94A50560936105709362058093630510
:10561000909364058091EA05882351F18091A70554
:105620009091A805DC01ED91FC910280F381E02DC1
:1056300040E06EE709958091A7059091A805DC01EF
:10564000ED91FC910280F381E02D41E061E9099543
:105650008091A7059091A805DC01ED91FC91028055
:10566000F381E02D41E061E309951092EA055EC007
:10567000F090E905FF2009F44BC00F2D0F2C000C12
:10568000110BC8010E949D36892B31F0C8010E9480
:10569000A436F82E10E001C011E08091A70590918A
:1056A000A805DC01ED91FC910280F381E02D40E042
:1056B0006EE709958091A7059091A805DC01ED9111
:1056C000FC910280F381E02D41E062E00995809138
:1056D000A7059091A805DC01ED91FC910280F38172
:1056E000E02D111102C062E201C063E241E00995C0
:1056F0008091A7059091A805DC01ED91FC910280B5
:10570000F381E02D41E06F2D09951092E9050EC05F
:1057100080917B0590917C05892B41F080916505F6
:1057200091E0980F909365050E9425120E947414D1
:1057300080E090E0892B11F40C94E5180E940000A1
:105740000C94E5188091260590912705009711F09B
:105750000C94931683E290E090932C0580932B0594
:1057600084E290E090932E0580932D0585E290E0F1
:105770009093300580932F0586E290E00C94AB1651
:10578000892B11F00C94BD1680EE0C94BB168CE5A1
:10579000809328050E941A158D3B910511F40C94F5
:1057A00080168B3B910511F40C948D1687E70E94AF
:1057B000640C0E94070C81110C94C0160E94B50E57
:1057C00087E70E94640C8EE190E00E94FC140E9426
:1057D000070C8AE08093E20688E08093E30664E6A3
:1057E00070E080E090E00E946B05A6EDEA2EA6E056
:1057F000FA2EB2EACB2E87E70E94640C6C2D8DEF57
:1058000094E00E9436040E94070C87E70E94640C13
:1058100082E090E00E94F0149091910480919204B3
:105820009817F1F38DEF94E00E94EA03D82E8DEFE4
:1058300094E00E94EA03B82E0E94070C1D2D00E0A0
:10584000C8018B29D7018D939D937D01C394C39487
:10585000BEEACB12D0CF83E00C94BE161092760332
:1058600087C863E776E0C6010E94BC3618161906A1
:1058700014F00C940C2210928906109288060C9455
:105880000C22EDEFF4E01382128288EE93E0A0E0A8
:10589000B0E084839583A683B78383E391E091830B
:1058A0008083EDEEF5E01082118213821282148261
:1058B0001582168217821086128611861386148628
:1058C000158616861786118A108A128A138A148AF8
:1058D000158A168A108E178A118E128E138E148EC8
:1058E000158E12A213A214A215A216A217A210AA14
:1058F00011AA12AA13AA14AA15AA10922B06109282
:105900002C06109231061092320610923306109235
:1059100034061092390610923A0610923F06109201
:1059200040061092410610924206109247061092CD
:10593000480610924D0610924E0610924F06109295
:105940005006109255061092560610925B06109261
:105950005C0610925D0610925E061092630610922D
:1059600064061092690610926A0610926B061092F5
:105970006C06109271061092720682E08093820685
:105980001092830610928406109285061092870664
:1059900010928606109289061092880610928A0646
:1059A00010928B0610928C0610928D0610928E0625
:1059B00010928F0610929006109291061092920605
:1059C00010929306109294061092950610929606E5
:1059D00010929706109298061092990610927306EC
:1059E00010929B0610929A0610929C0610929D06A9
:1059F00010929E0610929F061092A0061092A10689
:105A00001092A2061092A3061092A4061092A50668
:105A10001092A6061092A7061092A8061092A90648
:105A20001092AA061092AB061092AC061092AD0628
:105A30001092AE061092AF061092B0061092B10608
:105A40001092B2061092B3061092B8061092B906E0
:105A50001092BA061092BB061092BC061092BD06B8
:105A60001092BE061092BF061092C1061092C20696
:105A70001092C3061092C406E1E6F5E0108211828E
:105A8000128213821482118E138E128E158E148E32
:105A9000178E168E10A211A21092A8051092A705BB
:105AA0001092E9051092EA0586E78093EB0582E300
:105AB0008093EC0515828FEF9FEFDC018093A305A7
:105AC0009093A405A093A505B093A60580E2E3E812
:105AD000F5E0DF011D928A95E9F7E6E2F5E082E064
