:100000000C94B9020C94E1020C94E1020C94E1020C
:100010000C94E1020C94E1020C94E1020C94E102D4
:100020000C94E1020C94E1020C9443060C94ED064E
:100030000C94FC050C94E1020C94E1020C94E10296
:100040000C94B2050C94E1020C94950A0C94D10A1C
:100050000C942C0B0C94E1020C94E1020C94E10240
:100060000C9467090C94E1027222842287228E226A
:100070009522C322CA22D722E422F022F022F022C3
:10008000F022F022F022F022F022F022F022F022E0
:10009000F022F022F022F022F022F022F022F022D0
:1000A000F022F022F022F02272227F228422872284
:1000B0008E2295229C22A922B622722874287F289B
:1000C00046298528A928CD28462946294629462992
:1000D000E7283729692972297B298B29A029C42976
:1000E000DE29122A542A542A542A542A3F2A482AFA
:1000F000762A802A8A2A942A9E2AA82AB22ABC2AE8
:10010000C62AD02ADA2AE42AEE2A084AD73B3BCE6E
:10011000016E84BCBFFDC12F3D6C74319ABD568306
:100120003DDA3D00C77F11BED9E4BB4C3E916BAABE
:10013000AABE000000803F05A84CCDB2D44EB9380D
:1001400036A9020C50B9918688083CA6AAAA2ABEF4
:10015000000000803F07634236B79BD8A71A396872
:100160005618AEBAAB558C1D3CB7CC5763BD6DED80
:10017000FD753EF6177231BF000000803F08000099
:1001800000BE922449123EABAAAA2ABECDCCCC4CCA
:100190003E00000080BEABAAAAAA3E00000000BF3D
:1001A000000000803F0000000000084178D3BB43FE
:1001B00087D1133D190E3CC3BD4282AD2B3E68EC86
:1001C0008276BED98FE1A93E4C80EFFFBE01C4FF0D
:1001D0007F3F000000000000000000002400270016
:1001E0002A0000000000250028002B00040404045D
:1001F00004040404020202020202030303030303D1
:1002000001020408102040800102040810200102AD
:100210000408102000000008000201000003040789
:100220000000000000000000014C617469747564F6
:100230006500000000000000000000000020000039
:10024000000000000900024C6F6E676974756465F8
:10025000000000000000000000000020000000007E
:100260000000090003537065656400000000000091
:100270000000000000000000006B6D2F680000000F
:1002800001000452656C2E20416C746974000000FA
:10029000000000000000006D0000000000000101EF
:1002A00005416C746974756465000000000000000D
:1002B00000000000006D0000000000000100065674
:1002C0006172696F00000000000000000000000083
:1002D0000000006D2F7300000000080207446973DE
:1002E00074616E6365000000000000000000000003
:1002F000006D0000000000000100085472697000E9
:100300000000000000000000000000000000006B82
:100310006D000000000001020948656164696E67B4
:1003200000000000000000000000000000B000001D
:100330000000000001000A436F7572736500000041
:100340000000000000000000000000B000000000FD
:10035000000001000B536174656C6C697465730077
:10036000000000000000000000200000000000006D
:1003700000000C48444F5000000000000000000046
:10038000000000000000002000000000000001024A
:100390000D507265737375726500000000000000F7
:1003A00000000000006850610000000008020E54C8
:1003B000656D706572617475726500000000000003
:1003C000000000B043000000000001010F48756DFF
:1003D00069646974790000000000000000000000FA
:1003E0000025724800000000010110566F6C746116
:1003F00067653100000000000000000000000056AA
:10040000000000000000010211566F6C7461676506
:100410003200000000000000000000000056000054
:1004200000000000010212566F6C746167653300B2
:100430000000000000000000000000560000000066
:100440000000010213566F6C746167653400000090
:100450000000000000000000005600000000000046
:1004600001021443757272656E7431000000000061
:100470000000000000000041000000000000010139
:100480001543757272656E74320000000000000042
:1004900000000000004100000000000001011643C0
:1004A000757272656E743300000000000000000079
:1004B00000000041000000000000010117437572B8
:1004C00072656E743400000000000000000000003F
:1004D00000410000000000000101184361706163E9
:1004E0006974793100000000000000000000006D18
:1004F0004168000000000400194361706163697481
:10050000793200000000000000000000006D41682A
:100510000000000004001A4361706163697479335C
:1005200000000000000000000000006D41680000B5
:10053000000004001B43617061636974793400003A
:100540000000000000000000006D41680000000095
:100550000400000000000000000000000000000097
:10056000000000000000000000000000000000008B
:100570005E2C11241FBECFEFD8E0DEBFCDBF13E04D
:10058000A0E0B1E0ECE3F3E702C005900D92A436E1
:10059000B107D9F727E0A4E6B3E001C01D92A53268
:1005A000B207E1F712E0C9EBD2E004C02197FE01E7
:1005B0000E949133C83BD107C9F70E940F160C94D3
:1005C0009C390C940000CF92DF92EF92FF920F9330
:1005D0001F93CF93DF936C017A018B01C0E0D0E0D1
:1005E000CE15DF0589F0D8016D918D01D601ED9111
:1005F000FC910190F081E02DC6010995892B11F441
:100600007E0102C02196ECCFC701DF91CF911F91EF
:100610000F91FF90EF90DF90CF9008953FB7F8943F
:100620008091B6049091B704A091B804B091B90438
:1006300026B5A89B05C02F3F19F00196A11DB11D3D
:100640003FBFBA2FA92F982F8827820F911DA11D78
:10065000B11DBC01CD0142E0660F771F881F991FB5
:100660004A95D1F708955091680340916703852F0B
:1006700090E0242F30E0541710F4805B9F4F821BD2
:10068000930B089580916803E09167038E1751F0F2
:10069000EF5FE03508F0E0E0F0E0EF59FB4F8081DC
:1006A00090E008958FEF9FEF0895809168039091F7
:1006B0006703891769F09F5F903508F090E0E92F94
:1006C000F0E0EF59FB4F80819093670390E008952D
:1006D0008FEF9FEF0895809166038111FCCF0895FD
:1006E000809165038F5F843408F080E0909164030B
:1006F0009817E1F32FB7F89490916603992341F08E
:10070000E82FF0E0E95EFB4F6083809365031DC036
:1007100081E08093660360935C0410925B0482E046
:1007200086BB80916F00826080936F008091800013
:100730008F73806880938000809184009091850001
:10074000409690938900809388002FBF81E090E0CD
:10075000089585ED8093BC008091BC0084FDFCCFA2
:100760001092020508954091F203262F30E0240FE5
:10077000311D21323105DCF4209102052430C9F409
:10078000FC0180E090E0861758F43091F20321914B
:10079000DC01A053BC4FA30FB11D2C930196F3CFE6
:1007A0008091F203680F6093F20380E0089581E086
:1007B000089582E008950895E091BB048091BA0401
:1007C000E81730F4F0E0E454FB4F808190E00895A6
:1007D0008FEF9FEF08959091BB048091BA04981712
:1007E00050F4E92FF0E0E454FB4F208130E09F5FAC
:1007F0009093BB0402C02FEF3FEFC9010895809191
:10080000BA0490E02091BB04821B91090895CF9215
:10081000DF92EF92FF920F931F93CF93DF937C01B0
:10082000262F972F8A0180910305882391F0C62FE8
:10083000D72F6E01C40ED51ECC15DD0571F0699160
:10084000D701ED91FC910190F081E02DC701099550
:10085000F3CF642F822F0E94B303C801DF91CF91A1
:100860001F910F91FF90EF90DF90CF900895CF935D
:10087000DF931F92CDB7DEB7698320910305222352
:10088000D1F020912505203240F021E030E0FC013C
:100890003383228380E090E015C080910405E82F27
:1008A000F0E0EB5FFA4F998190838F5F80930405AE
:1008B0008093250505C061E0CE0101960E94B30337
:1008C00081E090E00F90DF91CF910895089580E04E
:1008D00090E008951F93CF93DF93F894EC01CA57EB
:1008E000DF4F2881203400F5DC01AE57BF4F1C914B
:1008F00011965C91119770E0411103C020E030E047
:1009000002C020E031E0622B732BE12FF52F7183C1
:100910006083329628812F5F2883EA17FB0710F047
:10092000FC013296ED93FC93FC01E057FF4F808170
:10093000811108C081E080838091C1008F76886238
:100940008093C1007894DF91CF911F910895FC01AD
:10095000E157FF4F2081222301F1F894A091CE03AB
:10096000B091CF03A357BF4F0D90BC91A02D4C91D8
:100970002081215020833297208131812F5F3F4F8A
:10098000BC0165577F4F2617370718F09C01295780
:100990003F4F31832083789401C040E0842F089535
:1009A000089508950E94B136CF93DF9390E0FC0143
:1009B000E050FE4F2491FC01E451FE4F84918823C6
:1009C00061F190E0880F991FFC01E852FE4FC5913C
:1009D000D491FC01EE51FE4FA591B491611109C073
:1009E0009FB7F8948881209582238883EC912E23E9
:1009F0000BC0623061F49FB7F8943881822F8095E4
:100A000083238883EC912E2B2C939FBF06C08FB736
:100A1000F894E8812E2B28838FBFDF91CF91089522
:100A20001092C0008CE08093C10086E38093C200E6
:100A30001092C50086E68093C40062E080E00E94C8
:100A4000D40462E081E00C94D404CF93DF93EC01F2
:100A50000E941005FE01329680E8DF011D928A9502
:100A6000E9F7DE01AE57BF4F1196FC93EE93129655
:100A70001196FC93EE93EC57FF4F10823196108243
:100A800011821282138217961196FC93EE9312969E
:100A9000ED93FC933896108231961082D093CF0359
:100AA000C093CE03DF91CF9108958E3008F08E5021
:100AB0008770806480937C0080917A00806480934A
:100AC0007A0080917A0086FDFCCF80917800209199
:100AD000790090E0922B08958F929F92AF92BF92EF
:100AE000CF92DF92EF92FF926B017C010E940E0386
:100AF0004B015C01C114D104E104F104F1F00E9446
:100B00000E03DC01CB0188199909AA09BB09883EAB
:100B10009340A105B10570F321E0C21AD108E108A4
:100B2000F10888EE880E83E0981EA11CB11CC11448
:100B3000D104E104F10419F7DDCFFF90EF90DF90CD
:100B4000CF90BF90AF909F908F9008952FB7F8945B
:100B50006091B2047091B3048091B4049091B50493
:100B60002FBF08951F920F920FB60F9211242F934B
:100B70003F938F939F93AF93BF938091B2049091D3
:100B8000B304A091B404B091B5043091B10423E052
:100B9000230F2D3720F40196A11DB11D05C026E8B5
:100BA000230F0296A11DB11D2093B1048093B204BE
:100BB0009093B304A093B404B093B5048091B604A9
:100BC0009091B704A091B804B091B9040196A11D09
:100BD000B11D8093B6049093B704A093B804B0936A
:100BE000B904BF91AF919F918F913F912F910F9039
:100BF0000FBE0F901F9018951F920F920FB60F9275
:100C000011242F938F939F93EF93FF9380916F0005
:100C10008B7F80936F00809181008F7B8093810018
:100C20008091690320916004205890915F0489307D
:100C300020F49695922B8F5FFACF90935F0480916A
:100C400068038F5F803508F080E02091670382178A
:100C500039F0E82FF0E0EF59FB4F90838093680361
:100C600010926903809181008F7B809381001092A4
:100C70006004FF91EF919F918F912F910F900FBE84
:100C80000F901F9018951F920F920FB60F9211247C
:100C90002F933F934F935F936F937F938F939F9384
:100CA000AF93BF93EF93FF9380918600909187005D
:100CB0004091600420918100442331F02F7B2093E8
:100CC00081001092600406C020642093810020E817
:100CD0002093600430916903311125C041116CC02B
:100CE00020916A0330916B03280F391F30938B00DA
:100CF00020938A0024E026BB20916F00246020937B
:100D00006F0020916C0330916D03820F931F369515
:100D10002795820F931F90935E0480935D0481E07A
:100D20008093690349C040915D0450915E046091D5
:100D30006C0370916D03DB01A095B09520915F0469
:100D4000E0916004841B950BA817B90768F12695FC
:100D50002E2B460F571F3F5F861B970B3930A0F392
:100D600020935F0480916F008B7F80936F00809150
:100D700068038F5F803508F080E0909167038917E2
:100D800049F0E82FF0E090915F04EF59FB4F90831A
:100D900080936803809181008F7B80938100109203
:100DA00060041092690308C020935F0450935E04AE
:100DB00040935D0430936903FF91EF91BF91AF9130
:100DC0009F918F917F916F915F914F913F912F9163
:100DD0000F900FBE0F901F9018951F920F920FB695
:100DE0000F9211242F933F934F935F936F937F93B1
:100DF0008F939F93EF93FF938091660360915C04C0
:100E0000209188003091890040916C0350916D03CE
:100E100090915B048A30F8F4240F351F893019F063
:100E2000762F717001C071E066958F5F791791F32D
:100E300090918000772311F0906C02C09F739068AE
:100E400090938000309389002093880070935B0416
:100E500060935C044AC090916503E09164039E1323
:100E600019C08A3051F48BE080936603240F351F3C
:100E700030938900209388003AC0109266038091D5
:100E800080008F738093800080916F008D7F8093AE
:100E90006F002DC0EF5FE43408F0E0E0E0936403FE
:100EA000F0E0E95EFB4F908190935C0410925B044C
:100EB000909180009F739068909380008A3059F4DD
:100EC00080916C0390916D03280F391F3093890036
:100ED0002093880009C080918400909185004096FD
:100EE000909389008093880081E080936603FF914E
:100EF000EF919F918F917F916F915F914F913F9172
:100F00002F910F900FBE0F901F901895CF93DF93E6
:100F1000EC018A859B85AC85BD858E839F83A887E0
:100F2000B9870E94A6056A837B838C839D8381E0B9
:100F300089838883DF91CF9108954F925F926F925A
:100F40007F928F929F92AF92BF92CF92DF92EF9259
:100F5000FF920F931F93CF93DF93CDB7DEB76097C8
:100F60000FB6F894DEBF0FBECDBF69837A838B8343
:100F70009C83CA01B90127013801A60195010E948D
:100F8000062E25E33AEF4EE85CE30E9444316B0104
:100F90007C010E9401326D877E878F87988BC70105
:100FA000B6010E94EA2E6D837E838F83988725E3A6
:100FB0003AEF4EE85CE369817A818B819C810E94E3
:100FC00044316B017C0125E33AEF4EE85CE3C30159
:100FD000B2010E9444312B013C01C701B6010E94BD
:100FE00001324B015C01C701B6010E94EA2E698300
:100FF0007A838B839C83C301B2010E94013269878B
:101000007A878B879C87C301B2010E94EA2E6B010D
:101010007C0129853A854B855C8569817A818B8144
:101020009C810E9444312B013C01A7019601C5011E
:10103000B4010E9444312D813E814F8158850E9428
:1010400044319B01AC01C301B2010E94062E9B01F9
:10105000AC010E9444312B013C012D853E854F851A
:101060005889C701B6010E9444319B01AC010E941E
:1010700044319B01AC01C301B2010E94072E0E94C2
:101080000F322B013C0129853A854B855C85C501D2
:10109000B4010E9444314B015C01A70196016981B2
:1010A0007A818B819C810E9444312D813E814F81C8
:1010B00058850E9444319B01AC01C501B4010E94D6
:1010C000072E9B01AC01C301B2010E94862E26E7C8
:1010D0003BE742EC5AE40E94443160960FB6F89424
:1010E000DEBF0FBECDBFDF91CF911F910F91FF905B
:1010F000EF90DF90CF90BF90AF909F908F907F90B8
:101100006F905F904F9008952F923F924F925F9211
:101110006F927F928F929F92AF92BF92CF92DF9207
:10112000EF92FF920F931F93CF93DF93D82FC92F86
:101130008B010E94AB2D24E630E040E050E00E949D
:10114000503349015A019B01AC0160E876E988E916
:1011500090E00E9440336B017C01F8019182808213
:10116000ED2FFC2F2191822F022E000C990BC0979E
:101170000A97C0F32E3239F51F0180E8882E86E9E0
:10118000982E88E9A82EB12C9AE0492E512C612C7A
:10119000712CF101C1911F010C2E000CDD0BE097A9
:1011A000CA30D10580F4C501B401A30192010E94A7
:1011B000503349015A01DE010E94A233C60ED71EE8
:1011C000E81EF91EE6CFA5E0B0E0A70196010E9457
:1011D00097336F5F7F4F8F4F9F4F23E030E040E0AA
:1011E00050E00E945033F8012283338344835583B7
:1011F0001682DF91CF911F910F91FF90EF90DF90BA
:10120000CF90BF90AF909F908F907F906F905F90A6
:101210004F903F902F900895FF920F931F93CF937D
:10122000DF93EC01FF24F39488818D3211F0F12CCF
:1012300001C02196CE010E94AB2D9B01AC01A4E61A
:10124000B0E00E949733FE014991242F042E000C38
:10125000330B205331092A303105A8F34E3241F5C2
:101260002181022E000C330B205331092A30310525
:10127000F8F44AE0429F8001439F100D1124012E93
:10128000000C220B330B600F711F821F931F028112
:10129000002E000C110B005311090A30110540F407
:1012A000012E000C220B330B600F711F821F931F46
:1012B000FF2039F090958095709561957F4F8F4F05
:1012C0009F4FDF91CF911F910F91FF9008951F9233
:1012D0000F920FB60F9211242F933F934F935F936A
:1012E0006F937F938F939F93AF93BF93EF93FF93EE
:1012F0008091B900887F803609F49CC068F58832F7
:1013000009F45BC090F4803109F454C038F48823A8
:1013100009F4F6C0883009F44DC0F6C0883109F4EC
:101320004CC0803209F45DC0EFC0803409F468C05D
:1013300048F4803309F455C0883309F0E5C0809340
:101340000005D8C0803509F44FC0883509F45DC068
:10135000883409F0D9C0D6C0883909F4C7C0A8F4C8
:10136000883709F467C038F4883609F463C08037D9
:1013700009F460C0C9C0883809F4B8C0803909F4DC
:101380005FC0803809F0C0C05BC0803B09F486C0F4
:1013900038F4803A09F466C0883A09F47FC0B4C0D2
:1013A000803C09F4A7C0883C09F4A4C0883B09F438
:1013B0008AC0AAC08091DD0410C09091FF04809182
:1013C000FE04981770F5E091FF0481E08E0F809382
:1013D000FF04F0E0E252FB4F80818093BB0085EC7C
:1013E00086C0809300058EC0E091FF0481E08E0FDF
:1013F0008093FF048091BB00F0E0E252FB4F8083BA
:101400009091FF048091FE046EC0E091FF0481E0A2
:101410008E0F8093FF048091BB00F0E0E252FB4FFF
:1014200080838091010581116DC081E08093DC048F
:1014300084EA61C083E08093020510921604CFCF46
:1014400080911604803208F051C0E091160481E0CA
:101450008E0F809316048091BB00F0E0EA50FC4FA1
:101460008083BDCF85EC8093BC00109202058091F3
:101470001604803230F4E0911604F0E0EA50FC4F9C
:1014800010826091160470E0E091F403F091F5038E
:1014900086EF93E009951092160436C084E080939D
:1014A00002051092F3031092F203E091F003F09121
:1014B000F10309958091F203811105C081E08093C9
:1014C000F2031092D003E091F30381E08E0F80933A
:1014D000F303F0E0E053FC4F80818093BB009091D8
:1014E000F3038091F203981708F479CF85E880938D
:1014F000BC000AC085EC8093BC001092020504C0B9
:10150000109200050E94A903FF91EF91BF91AF9146
:101510009F918F917F916F915F914F913F912F910B
:101520000F900FBE0F901F9018951F920F920FB63D
:101530000F9211242F933F938F939F93AF93BF9359
:10154000EF93FF938091C600803FF1F0982F9F703A
:10155000D9F42091CE033091CF03F901E557FF4F25
:10156000A081B1818C93D901A157BF4F8C918F5F1E
:101570008C938081918101968E179F0718F0C90185
:1015800089579F4F91838083FF91EF91BF91AF91D6
:101590009F918F913F912F910F900FBE0F901F90B1
:1015A00018951F920F920FB60F9211242F933F930D
:1015B0004F935F938F939F93EF93FF938091CE030D
:1015C0009091CF03FC01EA57FF4F2081222351F174
:1015D00032970190F081E02D208131818091C1000E
:1015E00030FF02C0816001C08E7F8093C1002093D4
:1015F000C6002091CE033091CF03F901EA57FF4F87
:101600008081815080833297808191810296A901E7
:101610004E575F4F8417950710F0C90102969183CA
:1016200080830DC08091C1008F7D80648093C10054
:10163000E091CE03F091CF03E057FF4F1082FF916E
:10164000EF919F918F915F914F913F912F910F90CB
:101650000FBE0F901F9018951F920F920FB60F920A
:1016600011242F933F938F939F93EF93FF93E1EC7C
:10167000F0E08081877B806980838091CE039091A8
:10168000CF039C0129573F4FFC01E557FF4F3183A2
:10169000208332963183208332961082FF91EF911E
:1016A0009F918F913F912F910F900FBE0F901F90A0
:1016B0001895CF92DF92EF92FF920F931F93CF93E3
:1016C000DF93CDB7DEB76E970FB6F894DEBF0FBECF
:1016D000CDBF8C017B016A012EE1269FC001279FAF
:1016E000900D1124DA015A966D917C915B97680FE9
:1016F000791F4EE150E0CE0101960E94D22D8D8DD2
:10170000F801868F89818283EE0CFF1CEE0CFF1C92
:10171000D6015C96ED91FC915D97EE0DFF1D8081E9
:101720009181A281B381F80183839483A583B683D9
:10173000A801485F5F4FFE013296DA0190E0819187
:10174000811106C0392FD8015C969C93232F0FC0BE
:10175000933119F09F5F8D93F2CF33E1F4CF833152
:10176000910594F4FA01E80FF91F70832F5F622F3F
:10177000631BE1E0F0E0EC0FFD1FE60FF11D758942
:10178000822F90E07111EBCFF801658FFA01E80F1D
:10179000F91F10828E8D813031F0823041F480E467
:1017A000F801878F04C080E2D8015F968C93D8013E
:1017B0005E968C91843091F030F4882361F0813012
:1017C000A1F483E00FC0883041F0893051F08530BA
:1017D00061F484E007C082E001C085E0F80180A3E5
:1017E00004C085E0D80190968C936E960FB6F8945D
:1017F000DEBF0FBECDBFDF91CF911F910F91FF9044
:10180000EF90DF90CF9008950C94F82D0C94F02D6C
:10181000209125059091FE06213208F04AC0809162
:1018200002058111FCCF32E03093020531E03093A4
:1018300001053FEF309300051092FF042093FE0452
:10184000A5E0B5E04EED54E0FA013E2F341B32170F
:1018500018F43D913193F9CF1092DD042091DD040D
:10186000990F922B9093DD049091DC04913061F4F8
:101870001092DC049091DD049093BB009091BC0029
:1018800093FDF8CF95EC01C095EE9093BC0090913C
:1018900002059230E1F3909100059F3F79F080912D
:1018A0000005803241F080910005803331F084E002
:1018B00005C081E003C082E001C083E0109204050E
:1018C0001092250510920305089591E09093030569
:1018D0008093FE0610920405109225050895CF937B
:1018E000DF93D82FC62F80915C050E94650C6D2F69
:1018F00086E295E00E9437046C2F86E295E00E9414
:101900003704DF91CF910C94080C9091020591114E
:10191000FCCF91E090930205909301052FEF209367
:1019200000051092FF04260F2093FE049093DD041F
:101930009091DD04880F892B8093DD048091DC0475
:10194000813061F41092DC048091DD048093BB004F
:101950008091BC0083FDF8CF85EC01C085EE8093BB
:10196000BC00809102058130E1F38091FF0486176D
:1019700010F46091FF04AEEDB4E02CEB34E0F9011B
:101980008E2F821B861718F48D918193F9CF862FA5
:101990000895613208F060E20E94850C1092BB0449
:1019A0008093BA0408950F931F93CF93DF931F92F0
:1019B000CDB7DEB7682F0CE515E0F80180816983AB
:1019C0000E94650C698186E295E00E9437040E94BE
:1019D000080C61E0F80180810E94C90C86E295E064
:1019E0000E94EB030F90DF91CF911F910F9108950B
:1019F000CF92DF92EF92FF920F931F93CF93DF93DB
:101A00001F92CDB7DEB7682F0CE515E0F801808195
:101A100069830E94650C698186E295E00E94370423
:101A20000E94080C63E0F80180810E94C90C86E2E4
:101A300095E00E94EB036C01990FEE08FF08FE2C65
:101A4000ED2CDC2CCC2486E295E00E94EB03AC016B
:101A5000990F660B770BC42AD52AE62AF72AFE2CA3
:101A6000ED2CDC2CCC2486E295E00E94EB03092EC1
:101A7000000CAA0BBB0BBC01CD016C297D298E2962
:101A80009F290F90DF91CF911F910F91FF90EF90C1
:101A9000DF90CF9008950F931F93CF93DF931F9202
:101AA000CDB7DEB7682F0CE515E0F80180816983BA
:101AB0000E94650C698186E295E00E9437040E94CD
:101AC000080C62E0F80180810E94C90C86E295E072
:101AD0000E94EB03182F86E295E00E94EB0320E0C2
:101AE00030E0312F822B932B0F90DF91CF911F91FC
:101AF0000F9108950E944B0D9827892798270895E4
:101B0000CF9366EB80EE0E946F0C64E670E080E09D
:101B100090E00E946C0588E80E947A0D909367051A
:101B2000809366058AE80E947A0D909369058093F8
:101B300068058CE80E947A0D90936B0580936A0586
:101B40008EE80E947A0D90936D0580936C0580E974
:101B50000E947A0D90936F0580936E0582E90E9432
:101B60007A0D909371058093700584E90E947A0D37
:101B7000909373058093720586E90E947A0D909385
:101B800075058093740588E90E947A0D9093770516
:101B9000809376058AE90E947A0D90937905809367
:101BA00078058CE90E947A0D90937B0580937A05E5
:101BB0008EE90E947A0D90937D0580937C0580913B
:101BC0005D05823009F03FC081EA0E94D30C80930A
:101BD0007E0581EE0E947A0D9093800580937F05AB
:101BE00083EE0E94D30C8093810584EE0E94D30C77
:101BF000C82F85EE0E94D30C282F2F7030E1C39F91
:101C0000C0011124822B909383058093820586EE78
:101C10000E94D30CC82F85EE0E94D30C90E024E0E4
:101C2000959587952A95E1F740E1C49F900111248D
:101C3000822B932B909385058093840587EE0E94D9
:101C4000D30C8093860589ED809388058091890562
:101C50008F7180628093890580918705807C806286
:101C60008093870580915D05823021F461E082EFE9
:101C70000E946F0C90918705692F677080E2689FC2
:101C800090011124892F869586958695877048E066
:101C9000849FB0011124622B732B97FB992790F935
:101CA000692B85EF0E946F0C90918805692F6770F2
:101CB00080E2689F90011124892F869586958695EC
:101CC000877048E0849FB0011124622B732B92959A
:101CD000969596959370692B84EFCF910C946F0C29
:101CE00090E0FC01EC5EFD4F2491FC01E050FE4FC2
:101CF0003491FC01E451FE4FE491EE23B1F1222333
:101D000039F1233091F038F42130A9F0223001F577
:101D100084B58F7D12C0273091F02830A1F0243097
:101D2000B9F4809180008F7D03C0809180008F770F
:101D3000809380000DC084B58F7784BD09C08091E9
:101D4000B0008F7703C08091B0008F7D8093B0008A
:101D5000F0E0EE0FFF1FEE51FE4FA591B4918FB74B
:101D6000F894EC913E2B3C938FBF08951092BB04E6
:101D70001092BA04109204051092250510920205E3
:101D800081E0809301051092DC0482E10E94700ED4
:101D900083E10E94700EE9EBF0E080818E7F80830A
:101DA00080818D7F808388E48093B80085E4809370
:101DB000BC00089580935C050E94B60E80ED0E94E1
:101DC000D30C883521F0803641F482E001C081E0F7
:101DD00080935D050E94800D02C010925D05809188
:101DE0005D0590E008958F929F92AF92BF92CF923F
:101DF000DF92EF92FF928AEF0E94F80CECE5F5E09B
:101E0000428553854A01A12CB12CC72ED82EE92E2C
:101E1000FF24E7FCFA94C818D908EA08FB08DC019B
:101E2000CB0137E0B595A795979587953A95D1F76A
:101E3000B501A401440F551F661F771F4C015D01BA
:101E4000841A950AA60AB70AA5019401A485B58546
:101E50000E94A2334B015C013BE0B594A794979498
:101E600087943A95D1F7A7019601C701B6010E9460
:101E700040339B01AC016CE055954795379527950C
:101E80006A95D1F7A685B7850E94A233DC01CB0104
:101E90007EE0B595A795979587957A95D1F7A50199
:101EA0009401280F391F4A1F5B1F26833783408701
:101EB0005187A5E0B0E00E949733DC01CB01805848
:101EC0009F4FAF4FBF4F692F7A2F8B2F992787FDD9
:101ED0009A950E949F2F20E030E048EC52E40E9447
:101EE000EF2EFF90EF90DF90CF90BF90AF909F903C
:101EF0008F9008952F923F924F925F926F927F92B0
:101F00008F929F92AF92BF92CF92DF92EF92FF9209
:101F10000F931F93CF93DF93CDB7DEB7A2970FB682
:101F2000F894DEBF0FBECDBF0E94F30E87EF0E9474
:101F3000F80C6A8F7B8F8C8F9D8F809162059091BA
:101F40006305A0916405B09165056C017D01FF0CEE
:101F5000CC08DC2C76019C01AD016C2D7C2D8C2DE8
:101F60009C2D345F41405109610971098109910932
:101F70002AA339A349835A836B837C838D839E83F1
:101F800059016A017B018C010E94AA332A8B3B8B89
:101F90004C8B5D8B6E8B7F8B888F998F80917605B4
:101FA0008E8FE0917705EF83F0917405FF8F80911C
:101FB00075058887E0917205E8A3F0917305F987AC
:101FC000B0906F05A0906E051B2D110F110BC12E47
:101FD000D12EE12EF12E012F2AA139A149815A815A
:101FE0006B817C818D819E810E94AA330CE00E94CE
:101FF000143519012A013B014C01B0907105A090E4
:1020000070051B2D110F110BC12ED12EE12EF12EBB
:10201000012F2A893B894C895D896E897F89888D4A
:10202000998D0E94AA3308E00E942D35510162016A
:10203000730184010E944B3570588F4F9F4F209041
:102040006C0530906D055101C12CD12CE12CF12C87
:1020500000E010E00E94AA3301E20E942D352A8799
:102060003B874C875D876E877F87888B998BA0E045
:102070000E94693509F45EC1AE8C1F81110F110BEE
:10208000BF80C12ED12EE12EF12E012F2A893B894E
:102090004C895D896E897F89888D998D0E94AA33CC
:1020A00019012A013B014C01AF8C1885110F110B4E
:1020B000B884C12ED12EE12EF12E012F2AA139A1F3
:1020C00049815A816B817C818D819E810E94AA33D6
:1020D00001E10E94143559016A017B018C019101D3
:1020E000A201B301C4010E944B3519012A013B0131
:1020F0004C014A8D5B8D6C8D7D8D84E07595679567
:10210000579547958A95D1F780E090E0A0E1B0E03F
:10211000841B950BA60BB70B6C017D01FF0CCC0843
:10212000DC2C76019C01AD016C2D7C2D8C2D9C2D21
:102130000FE10E941435F901B42FA52F6C837D8324
:1021400089839A8328A19985990F990B3985492FFD
:10215000592F692F792F892F03E20E9414355901D5
:102160006A017B018C019101A201B301C4010E94AB
:102170004B3559016A017B018C019F014B2F5A2F6E
:102180006C817D8189819A810E9460354901542E3C
:10219000652EB62FA72FF82FE92F03E00E941435E4
:1021A0005401C52CD62CEB2EFA2E0F2F1E2F0E9479
:1021B000603559016A017B01782E192F03E00E94D6
:1021C0001435072D0E94603503E00E941435540138
:1021D000C52CD62CEB2EFA2E0F2F1E2F0E94603509
:1021E00002E00E9414350F2F0E94603501E00E942A
:1021F00014350F2F0E946035AA84BB84CC84DD8403
:10220000EE84FF84088919890E943F3428873F8320
:1022100049835A836B837C838D839E830DE00E9468
:102220002D35922E832E742E652E562E472E382E47
:10223000292E30917D0520917C05932F990F990BC4
:10224000A92CB82CC72CD62CE52CF42C032D122D40
:10225000492F592F692F792F892F0E94AA330E9465
:10226000AA3309E10E942D3559016A017B018C01D5
:1022700028853F8149815A816B817C818D819E8136
:102280000E944B3519012A013B014C0130917B051D
:1022900020917A05932F990F990BA884BF80C9804C
:1022A000DA80EB80FC800D811E81492F592F692F28
:1022B000792F892F0E94AA3303E10E942D355901FD
:1022C0006A017B018C019101A201B301C4010E944A
:1022D0004B3508E00E942D35522E632E742E852E2C
:1022E000962EF72FE82FB92F309179052091780598
:1022F000932F990F990B492F592F692F792F892FD8
:1023000004E00E94143559016A017B018C01252DDE
:10231000362D472D582D692D7F2F8E2F9B2F0E94F4
:102320004B350E94972F20E030E040E85BE30E94AD
:10233000443103C060E070E0CB01A2960FB6F89480
:10234000DEBF0FBECDBFDF91CF911F910F91FF90E8
:10235000EF90DF90CF90BF90AF909F908F907F9045
:102360006F905F904F903F902F9008956115710589
:10237000D1F0019719F4E2E0F6E002C0E2EFF5E0F7
:10238000DB019F01205F3F4F80E040E29D91992358
:1023900021F0811102C0908302C0408381E0319618
:1023A000E217F30799F70895FF920F931F93CF93C6
:1023B000DF93CDB7DEB76E970FB6F894DEBF0FBED2
:1023C000CDBF1092A9051092A80588E292E09093E3
:1023D000A5058093A40580E2ECEAF5E0DF011D92FB
:1023E0008A95E9F7F12C00E010E06091A405709166
:1023F000A505600F711F4EE150E0CE0101960E94CD
:10240000D22DE981EE23B1F0E03220F4F0E0E6577E
:10241000FA4FF2A28091A8059091A9050196909398
:10242000A9058093A805025E1F4FF394003CB3E01A
:102430001B07D9F66E960FB6F894DEBF0FBECDBF60
:10244000DF91CF911F910F91FF9008952F923F92AE
:102450004F925F926F927F929F92AF92BF92CF9274
:10246000DF92EF92FF920F931F93CF93DF93CDB73D
:10247000DEB7A1970FB6F894DEBF0FBECDBF8111B6
:1024800018C01092D4051092DA051091A305812F7F
:10249000880F880F880F8093DB05412F50E06FE88D
:1024A00075E08CED95E00E94C936BAE09B2E910E46
:1024B000A8C1282F269530E04091A8055091A90584
:1024C000421753070CF473C080FD71C000E010E0A8
:1024D000CC24CA94DC2C76018091A8059091A905A2
:1024E000081719070CF061C02091AB05622F70E04E
:1024F0001B82CC82DD82EE82FF821D8E1E8E1F8E9D
:1025000018A219A2FB01A3E0F595E795AA95E1F7BA
:10251000E453FA4F808190E0277002C0959587952B
:102520002A95E2F7817099278887892B31F04AE84C
:1025300055E0CE0101960E94590B8091AB058F5F4B
:102540008093AB0590E02091A8053091A9058217F2
:10255000930714F01092AB058885882319F1109227
:10256000D4058B818093DA058D8D28E0829FC00190
:1025700011249E8D892B8093DB0580E02AE0280FB3
:10258000E9E0F0E0EC0FFD1FE80FF11D90819923C9
:1025900039F08F5FE22FF0E0EE52FA4F9083EECFEA
:1025A000922E2FC10F5F1F4F97CF912C2AC180E42D
:1025B0008093D40500E010E058E0952ECC24CA9416
:1025C000DC2C76017AE1672E712C2091AA05622F0E
:1025D00070E01B82CC82DD82EE82FF821D8E1E8E19
:1025E0001F8E18A219A2FB0143E0F595E7954A95C5
:1025F000E1F7E453FA4F808190E0277002C095958F
:1026000087952A95E2F7817099278887892B31F081
:102610004AE855E0CE0101960E94590B8091AA0527
:102620008F5F8093AA0590E0A090A805B090A905BF
:102630008A159B0514F01092AA058885882309F451
:10264000D0C08C819D81AE81BF818F3F5FEF9507A8
:10265000A507B50709F4C5C03B81692D70E04F8D12
:1026600051E0590D303168F06E527A4F242F2F709F
:10267000FB01208322E0290DE52FF0E0EE52FA4F16
:102680000BC0252F6E527A4F50E1359FF001112477
:10269000342F3F703E2BFB01308369A170E030E0A6
:1026A0004430B9F128F4442369F04130D9F095C0A1
:1026B000483009F466C0493009F480C0453009F05B
:1026C0008CC042C0482F4F71B7FD02C080E001C0EE
:1026D00080E8F901EE52FA4F842B98A1892B808370
:1026E00081E07CC0F901EE52FA4F8083A9014F5F6F
:1026F0005F4FE92FEF71B7FD02C080E001C080E8B5
:10270000DA01AE52BA4F8E2B98A1892B8C9382E0BE
:1027100065C0A90146575A4FFA01E85BFF4F808315
:1027200031969083A9014E5F5F4FEA2FEF71B7FD9D
:1027300002C080E001C080E8DA01AE52BA4F8E2BB1
:1027400098A1892B8C931BC0A90146575A4FFA01B7
:10275000E85BFF4F808331969083A9014E5F5F4F06
:102760001D01552437FC5094452CB7FD02C080E074
:1027700001C080E8FA01EE52FA4F282A208283E055
:102780002DC0A90146575A4FFA01E85BFF4F8083DD
:10279000319690833196A083A9014D5F5F4FEB2F57
:1027A000EF71B7FD02C080E001C080E8DA01AE52EF
:1027B000BA4F8E2B98A1892B8C930DC0A901465737
:1027C0005A4FFA01E85BFF4F808331969083319630
:1027D000A0833196B08384E001C080E0982E920EF1
:1027E00002C060E070E00F5F1F4F0A151B054CF43C
:1027F000892D90E09301261B370B821793070CF469
:10280000E4CE8EE78093D2058FE28093D30580914A
:10281000D4059EEF990D892B8093D40589E0809390
:10282000D50584EA8093D605809114068093D70558
:10283000809115068093D8051092D905292D30E096
:10284000E4EDF5E080E092E09E1B57E0492F4E0F4B
:10285000491560F44191842748E087FF03C0880F41
:10286000852701C0880F4150C1F7F0CFF901EE5222
:10287000FA4F80838091D0059091D105DC01ED91D4
:10288000FC910280F381E02D40E06EE7099511E0B4
:10289000911698F08091D0059091D105DC01ED91D1
:1028A000FC91A12FB0E0AE52BA4F0280F381E02D2F
:1028B00041E06C9109951F5FEBCFA1960FB6F8949C
:1028C000DEBF0FBECDBFDF91CF911F910F91FF9063
:1028D000EF90DF90CF90BF90AF909F907F906F90E0
:1028E0005F904F903F902F900895CF93DF9380910A
:1028F000D0059091D105DC01ED91FC910280F3812E
:10290000E02D40E06EEF09958091F205882311F1EA
:10291000C2EFD5E08091D0059091D1056991DC019D
:10292000ED91FC910280F381E02D41E00995B6E044
:10293000C231DB0779F78091D0059091D105DC0198
:10294000ED91FC910280F381E02D40E06FEFDF918B
:10295000CF910994C0E2D0E08091D0059091D1054B
:10296000DC01ED91FC910280F381E02D41E060E01B
:102970000995219789F7DFCFCF93DF931F92CDB7CA
:10298000DEB72091A8053091A905232B21F4898376
:102990000E94D41189818032D0F4E82FF0E0E6570C
:1029A000FA4F82A1E82FF0E093E0F595E7959A952C
:1029B000E1F7E453FA4F282F277081E090E001C03F
:1029C000880F2A95EAF78095908189238083109259
:1029D0008E051092AB051092AA050F90DF91CF9152
:1029E0000895813208F080E2682F87E70E94850C05
:1029F0001092BB048093BA040895682F86E295E094
:102A00000C943704CF93DF931F92CDB7DEB7682FB6
:102A10008091510569830E94650C80E290E00E94DC
:102A2000FD14698186E295E00E9437040F90DF91E2
:102A3000CF910C94080CCF93C82F0E94650C8FE0A7
:102A400090E00E94FD140E94080C61E08C2F0E940F
:102A5000C90C9091BA048091BB04981729F086E2C2
:102A600095E0CF910C94EB038FEF9FEFCF910895FA
:102A70002091A6053091A7052115310589F08032F6
:102A800078F4E82FF0E0E657FA4F82A1F90194E0DC
:102A9000899FE00DF11D112440835183628373836C
:102AA00008954F925F926F927F92AF92BF92CF92B2
:102AB000DF92EF92FF920F931F93CF93DF9300D09B
:102AC00000D0CDB7DEB7082FA62E69017A01AE017E
:102AD0004F5F5F4FC701B6010E9410312B013C01CF
:102AE00089819A81AB81BC81BC01CD019F770E9415
:102AF000682FB62E172F2AE939E949E15FE3C301B0
:102B0000B2010E94443120E030E543EC57E40E94DA
:102B100044319F770E94682F3B011170A11002C0C1
:102B200090E001C090E2192B20E030E0A901C7013C
:102B3000B6010E94E52E881F8827881F8295880F7E
:102B4000880F807C712F782BA3016B2D802F0F9025
:102B50000F900F900F90DF91CF911F910F91FF90E9
:102B6000EF90DF90CF90BF90AF907F906F905F908D
:102B70004F900C9438151F93CF93DF9387E70E94F3
:102B8000650C60E086E295E00E9437040E94080C24
:102B900087E70E94650C83E090E00E94F114909119
:102BA000BA048091BB049817F1F386E295E00E9485
:102BB000EB03D82F86E295E00E94EB03182F86E204
:102BC00095E00E94EB03C82F0E94080C812F90E033
:102BD000A0E0B0E0BA2FA92F982F8827AD2BBC0119
:102BE000CD016C2BDF91CF911F910895CF93DF938F
:102BF00087E70E94650CCFEFD6E08D8590E0805B83
:102C00009F4F0E94FD140E94080C6C8570E080E0CC
:102C100090E00E946C05DF91CF910C94BB15CF938F
:102C2000DF93CDB7DEB7E0970FB6F894DEBF0FBEE7
:102C3000CDBF789484B5826084BD84B5816084BD45
:102C400085B5826085BD85B5816085BD80916E004A
:102C5000816080936E00109281008091810082607B
:102C600080938100809181008160809381008091B8
:102C700080008160809380008091B10084608093A7
:102C8000B1008091B00081608093B00080917A00A3
:102C9000846080937A0080917A00826080937A00C9
:102CA00080917A00816080937A0080917A008068B8
:102CB00080937A001092C10010929F0381E080936C
:102CC000A0031092B1031092B2031092B3031092BA
:102CD000B40386E70E94DA0E80934205811105C095
:102CE00087E70E94DA0E80934205809142058111A8
:102CF00048C08DE5809351050E941B158D3B9105C1
:102D000041F481E090E09093500580934F050C943E
:102D1000BF2B8B3B910511F00C94E42B10925005C6
:102D200010924F050C94BF2B019711F00C94F32BCC
:102D300084E290E0909355058093540585E290E0FD
:102D4000909357058093560580E390E09093590542
:102D50008093580581E390E090935B0580935A053A
:102D60000E94B60E80914F059091500581309105DB
:102D700011F00C94DD2B80EB0E94021584E080930F
:102D8000420580914205823049F018F4813031F0DB
:102D90004AC0833041F1843031F145C08EEA97E476
:102DA000A1E6BFE38093430590934405A0934505B6
:102DB000B09346058AE999E9A9E1BEE38093470506
:102DC00090934805A0934905B0934A0585E090E0AB
:102DD000A0E0B0E080934B0590934C05A0934D0587
:102DE000B0934E0520C08DEC9CECACE4BFE3809327
:102DF000430590934405A0934505B09346058DEC9B
:102E00009CECACE4BEE38093470590934805A09307
:102E10004905B0934A0510924B0510924C0510924B
:102E20004D0510924E0581E090E00E94060C8F3F08
:102E300011F080939F0382E090E00E94060C8F3F88
:102E400031F091E0811101C090E09093A00303E084
:102E500010E0C8010E94060C8F3F21F0F801E255F6
:102E6000FC4F80830F5F1F4F0730110591F78AE0F9
:102E700090E00E94060C8F3FA1F0682F70E080E088
:102E800090E00E949D2F20E030E048EC52E40E9448
:102E9000EF2E60934305709344058093450590930E
:102EA00046058BE090E00E94060C8F3FA1F0682F52
:102EB00070E080E090E00E949D2F20E030E048EC40
:102EC00052E40E94EF2E609347057093480580936B
:102ED000490590934A058CE090E00E94060C8F3FD4
:102EE00059F090E0A0E0B0E080934B0590934C0542
:102EF000A0934D05B0934E058091C3069091C406F2
:102F0000892BB9F48CE090E00E948435FC01138297
:102F1000128288EE93E0A0E0B0E084839583A683DC
:102F2000B7838BE091E091838083F093C406E093B4
:102F3000C30610926F001092800081E88093810098
:102F400083E896E090936D0380936C038BE39CE39E
:102F500090936B0380936A0362E088E00E94D4043C
:102F600089E00E94700E61E089E00E94D404109212
:102F7000690310926803109267031092660310921F
:102F800065031092640380E286BB80936F0068EE55
:102F900073E080E090E00E946C0580914205811111
:102FA00003C086E00E94BC1480919F03813021F011
:102FB00080914205823019F08FE00E94BC1480910C
:102FC0009F03813021F080914205811106C08DE080
:102FD0000E94BC148EE00E94BC1480919F0381115A
:102FE00009C081E00E94BC1482E00E94BC1483E00E
:102FF0000E94BC1480919F0381110AC080914205F8
:10300000811106C084E00E94BC1485E00E94BC14BB
:1030100080919F03823091F087E00E94BC1488E089
:103020000E94BC1489E00E94BC148AE00E94BC1477
:103030008BE00E94BC148CE00E94BC1401EB13E0F6
:10304000F0E1EF2EF80181918F01823010F08E2D8A
:103050000FC074E0F72EFE0CE8E0DE2EDE0C8130AF
:1030600019F08E2D0E94BC148F2D0E94BC148D2D42
:103070000E94BC14E394F4E1EF12E4CF86E780935E
:10308000140682E3809315068091A30581119EC0EA
:1030900080E2E2EDF5E0DF011D928A95E9F740E27A
:1030A00050E060E270E082EF95E00E94D23643E1AA
:1030B00050E066E671E08FE895E00E94E93688E02E
:1030C0008093A3058091A8059091A905892B11F4FF
:1030D0000E94D4110091A8051091A905013CBFE1FF
:1030E0001B0730F4C801880F991F880F991F02C071
:1030F0008FEF9FEF0E948435FC0120E030E04FEF1E
:103100005FEFBA012017310739F041935193619372
:1031100071932F5F3F4FF6CF8093A6059093A7053D
:1031200081E990E00E94843521E9FC0111922A9501
:10313000E9F72DE131E0DC012D933C939093D1052B
:103140008093D0050E94250510928E051092AB0544
:103150001092AA050E94A6056B017C01B0EDCB0E72
:10316000B7E0DB1EE11CF11C8091A4059091A50540
:10317000892BF9F00E94A6056C157D058E059F052B
:10318000C0F400E010E08091A8059091A905801797
:10319000910754F3802F880F0E9426120E94751405
:1031A00066E970E080E090E00E946C050F5F1F4FC1
:1031B000EACF8091D0059091D105DC01ED91FC9191
:1031C0000480F581E02D09958111F3CF0E94A605B9
:1031D0000091CA031091CB032091CC033091CD0311
:1031E000DC01CB01801B910BA20BB30B853B91053E
:1031F000A105B10538F480919F03882311F40C9444
:10320000732737C780914205882309F46AC6833043
:10321000D1F0843009F030C4809151050E94650CD2
:1032200088EA90E00E94FD140E94080C63E08091FF
:1032300051050E94C90C8091BA0490E02091BB0412
:10324000821B910979C387E70E94650C80910C0766
:1032500090E0805C9F4F0E94FD140E94080C6091DA
:103260000B0770E080E090E00E946C050E94BB15A7
:10327000698B7A8B8B8B9C8B0E94F61520910707AC
:1032800030910807890120E030E0322F212F102FE4
:1032900000272B013C01401A510A620A730AE0918F
:1032A0000507F091060780900107909002079401AE
:1032B00040E050E060E070E080E090E000E10E94DB
:1032C0001435F22E132F1A014B01898399879F0120
:1032D00040E050E0C301B2010E940334D22EE32E3D
:1032E000042FB52FF62FE72FB82EC92EA0E00E948D
:1032F00069355CF4AFE70E945435D22EE32E042FDB
:10330000B52FF62FE72FB82EC92E2D2D3E2D402F8D
:103310005B2F6F2F7E2F8B2D9C2D07E00E942D356C
:1033200059016A01E62EF72F082FE92F2F2D312F93
:10333000A101B40189819985FF2E1E2F0E944B3572
:103340002D8B398F4F8F58A369A37AA38BA39CA38E
:103350006091FF0670910007A0900307B0900407EA
:1033600080E090E020E030E840E050E00E9412343D
:10337000D22EE32EF42E152F1B014C01950140E0B7
:1033800050E0C301B2010E940334022FA32E4983EF
:10339000B52FF62FE72FB82EC92EA0E00E94693571
:1033A00084F421503F4F4F4F5F4F6F4F7F4F8F4FF0
:1033B0009F4F022FA32E4983B52FF62FE72FB82E4C
:1033C000C92E202F3A2D49815B2F6F2F7E2F8B2DF9
:1033D0009C2D08E00E942D355901C42EB52FA62F33
:1033E000F72F082FE92F2D2D3E2D4F2D512FB101F5
:1033F000C401DB2EEA2EFF2E1E2F0E944B352FA775
:1034000038AB4DA35EA36FA378A789A79AA7209195
:10341000090730910A0740E050E0C301B2010E9461
:103420000334F22E032F142FB52FF62FE72FD82EAB
:10343000E92EA0E00E94693584F42150310940480A
:103440005F4F6F4F7F4F8F4F9F4FF22E032F142FE1
:10345000B52FF62FE72FD82EE92E2F2D302F412F05
:103460005B2F6F2F7E2F8D2D9E2D07E10E942D3516
:1034700029833A834B835C836D837E838F83988714
:10348000C980DA80EB80FC80B0EDCB0EB7E0DB1EAC
:10349000E11CF11C109211071092120710921307F1
:1034A0001092140710921507109216071092170722
:1034B000109218071092190710921A0710921B0702
:1034C00010921C0710921D0710921E0710921F07E2
:1034D00010922007E0EDCE16E7E0DE06E104F104ED
:1034E0000CF0C8C029813A814B815C81CA01B901C5
:1034F0000E9440339B01AC01A5E0B0E00E949733ED
:103500004B015C01B594A794979487942B013C01DF
:10351000770C4408542C32018092110790921207C4
:10352000A0921307B0921407409215074092160715
:1035300040921707409218078B019C0142E0359595
:103540002795179507954A95D1F709871A872B87ED
:103550003C870093190710931A0720931B07309399
:103560001C0740921D0740921E0740921F07409281
:10357000200714E2C1161AEFD1061FEFE106F1068B
:103580000CF078C069817A818B819C816455724F7F
:103590008F4F9F4F9B01AC010E9440336D877E8708
:1035A0008F87988BA7E0B0E09B01AC010E94973316
:1035B0007B018C019B01AC01550F220B322FA9011D
:1035C00029833A834B835C839401A501642D742D78
:1035D000842D942D57016801E980FE2C0E2D1E2D9F
:1035E0000E944B3520931107309312074093130725
:1035F000509314076093150770931607809317076D
:1036000090931807ABE0B0E02D853E854F85588933
:103610000E9497337B018C0115950795F794E794E9
:103620009B01AC01550F220B322FA90129833A834C
:103630004B835C8329853A854B855C85642D742D8D
:10364000842D942D57016801E980FE2C0E2D1E2D2E
:103650000E944B352093190730931A0740931B079C
:1036600050931C0760931D0770931E0780931F07DC
:103670009093200789899A89AB89BC891C012D0107
:103680002FA538A94DA15EA16FA178A589A59AA5FE
:10369000A0901907B0901A07C0901B07D0901C0784
:1036A000E0901D07F0901E0700911F071091200762
:1036B0000E94603559016A017B018C019101A201D0
:1036C00060E070E080E090E00E94AA33122FE32EC9
:1036D000D42EB52FF62FE72FF82E092FA0E00E9449
:1036E000693584F421503109404E5F4F6F4F7F4F51
:1036F0008F4F9F4F122FE32ED42EB52FF62FE72F8B
:10370000F82E092F212F3E2D4D2D5B2F6F2F7E2F51
:103710008F2D902F05E10E942D354901742E652EC5
:10372000B62FA72FF82FE92F2D89398D4F8D58A14E
:1037300069A17AA18BA19CA1A0901107B09012075A
:10374000C0901307D0901407E0901507F09016076B
:1037500000911707109118070E94603559016A01FE
:103760007B018C019401472D562D6B2F7A2F8F2FC3
:103770009E2F0E946035122FE32ED42EB52FF62FE8
:10378000E72FF82E092FA0E00E94693584F421501C
:1037900030484F4F5F4F6F4F7F4F8F4F9F4F122FCC
:1037A000E32ED42EB52FF62FE72FF82E092F212F39
:1037B0003E2D4D2D5B2F6F2F7E2F8F2D902F0FE0E5
:1037C0000E942D35352E2987232E4D87622F732F8A
:1037D000842F952F0E949F2F20E836EE45EC57E46A
:1037E0000E94EF2E2BEA3CED42E45EE30E94B131F1
:1037F0009B01AC0160E070E080E89FE30E94062E30
:1038000020E03AE24DE257E40E94443120E030E00B
:1038100048EC52E40E9444310E94612F4B015C014C
:103820000E94F6152091070730910807890120E0D2
:1038300030E0322F212F102F00276B017C01C01A9E
:10384000D10AE20AF30A2091090730910A0740E001
:1038500050E0C701B6010E9403343901042FB52F8F
:10386000F62FE72F2C01A0E00E94693574F4215057
:10387000310940485F4F6F4F7F4F8F4F9F4F390146
:10388000042FB52FF62FE72F2C019301402F5B2F2C
:103890006F2F7E2FC20107E10E942D3529833A83C5
:1038A0004B835C836D837E838F83988749805A80A6
:1038B0006B807C8090ED490E97E0591E611C711C55
:1038C000A0ED4A16A7E05A06610471044CF010926C
:1038D0000D0710920E0710920F071092100713C0D9
:1038E000A7019601C701B6010E94403320E030E0F5
:1038F000A9010E94723320930D0730930E07409365
:103900000F075093100780910D0790910E07A0911B
:103910000F07B091100793018201081B190B2A0BA6
:103920003B0BC901B8010E949F2F20E030E048EC1A
:1039300052E40E94EF2E96C083309105ECF386E2AC
:1039400095E00E94EB03182F86E295E00E94EB03BE
:10395000082F86E295E00E94EB03482F880F550B55
:10396000660B770BBA0155274427412B0E8F1D8E0E
:103970002D8D3E8DC901A0E0B0E08A019B01082B8E
:10398000192B2A2B3B2BC901B8010E949F2F20E045
:1039900030E040E859E30E9444310E94612F69877A
:1039A000272E8D87392E932D0E949F2F20E030E502
:1039B0004DE754E40E94EF2E2EE434ED42E45EE342
:1039C0000E94B1319B01AC0160E070E080E89FE3B0
:1039D0000E94062E2DEC3AE24DE257E40E9444315B
:1039E00020E030E048EC52E40E9444310E94612F14
:1039F0004B015C01809151050E94650C8BEA90E0BF
:103A00000E94FD140E94080C62E0809151050E9402
:103A1000C90C8091BA0490E02091BB04821B9109EB
:103A200082309105ECF386E295E00E94EB03082FCB
:103A300086E295E00E94EB03982F8827BC01602B5B
:103A4000072E000C880B990B0E949F2F20E030E07E
:103A500040EF53E40E94EF2E20E030E04AE252E4CF
:103A60000E94072E20E030E040E251E40E94443101
:103A70000E94612F8B0144C10E947A0F0E94612F26
:103A80006987272E8D87392E0E947A0F20E030E03B
:103A900048EC52E40E94EF2E20E030E54DE754E47C
:103AA0000E94EF2E21E03EED42E45EE30E94B13140
:103AB0009B01AC0160E070E080E89FE30E94062E6D
:103AC00020E03AE24DE257E40E94443120E030E049
:103AD00048EC52E40E9444310E94612F4B015C018A
:103AE0000E94F30E20E030E040E251E40E944431B5
:103AF0000E94612F8B0180914205823009F000C144
:103B00000E94F30E8DEF0E944B0D6C01E12CF12C05
:103B1000C11420E8D206E104F10409F4E0C04090A9
:103B200062055090630560906405709065053CE205
:103B3000531A31E0630A71088EE0CC0CDD1CEE1CD8
:103B4000FF1C8A95D1F72091820530918305C90128
:103B5000330FAA0BBB0B24E1880F991FAA1FBB1FB1
:103B60002A95D1F7C81AD90AEA0AFB0AA091840556
:103B7000B0918505A30192010E94A233C61AD70A0B
:103B8000E80AF90A40E4D40EE11CF11C3FE0F59488
:103B9000E794D794C7943A95D1F7A09186050A2E59
:103BA000000CBB0BA30192010E94A2339B01AC014C
:103BB0006AE055954795379527956A95D1F72983FA
:103BC0003A834B835C83A0918105B0E0A30192010D
:103BD0000E949733DC01CB017BE0B595A7959795C3
:103BE00087957A95D1F7BC01CD0170588F4F9F4FC3
:103BF00029813A814B815C810E944033DC01CB01F9
:103C0000EAE0B595A79597958795EA95D1F79C0138
:103C1000AD01405E5F4FA0917F05B09180050E948D
:103C2000A233DC01CB01905EAF4FBF4FBC01CD0191
:103C3000FEE09595879577956795FA95D1F7A70159
:103C400096010E9440336B017C01AFE0959587950A
:103C500077956795AA95D1F79B01AC010E944033F7
:103C60009B01AC01B7E05595479537952795BA95D7
:103C7000D1F7A0917E05B0E00E949733DC01CB0123
:103C800024E0B595A795979587952A95D1F7C81AF9
:103C9000D90AEA0AFB0AF7FE03C0C12CD12C76012F
:103CA000D701C60131E0C316D104E10439E1F306BE
:103CB00024F080E090E0A0E0B9E1BC01CD01BCE0DF
:103CC0009595879577956795BA95D1F70E949F2F1F
:103CD00020E030E040E85AE30E94443104C060E054
:103CE00070E080EC9FE720E030E040E251E40E9489
:103CF00044310E94612FAB01BC018FE00E94381556
:103D00008091C903811114C081E08093C90380921E
:103D1000C5039092C603A092C703B092C8038092D5
:103D2000C1039092C203A092C303B092C4032EC0F9
:103D30008091C5039091C603A091C703B091C803B9
:103D4000A5019401281B390B4A0B5B0BCA01B90171
:103D50002AE030E040E050E00E9472332093BD033F
:103D60003093BE034093BF035093C003C501B40119
:103D700024E630E040E050E00E9472332093B90323
:103D80003093BA034093BB035093BC038091C103AB
:103D90009091C203A091C303B091C403A501940103
:103DA000281B390B4A0B5B0BCA01B9010E949F2FDC
:103DB0006B017C010E94A6054090CA035090CB0382
:103DC0006090CC037090CD0364197509860997093A
:103DD0000E949D2F9B01AC0160E070E08AE794E4B3
:103DE0000E94EF2E9B01AC01C701B6010E94443135
:103DF0000E94612F8092C1039092C203A092C303DC
:103E0000B092C4030E949F2F4B015C012091B50327
:103E10003091B6034091B7035091B80360914305C8
:103E20007091440580914505909146050E9444316A
:103E30006B017C012091470530914805409149056F
:103E400050914A05C501B4010E9444319B01AC0167
:103E5000C701B6010E94072E6093B5037093B603A5
:103E60008093B7039093B8030E94612FC0904B05D5
:103E7000D0904C05E0904D05F0904E05C616D70643
:103E8000E806F9063CF4AB01BC014C195D096E096A
:103E90007F0916C08824992454018C189D08AE0807
:103EA000BF08681579058A059B053CF4AB01BC0188
:103EB0004C0D5D1D6E1D7F1D03C040E050E0BA013A
:103EC00086E00E9438154985522D6D85732D8DE051
:103ED0000E943815A801110F660B770B8EE00E9427
:103EE00038150E94A6056093CA037093CB03809394
:103EF000CC039093CD0372E3E72E71E0F72EE2E35B
:103F0000AE2EE5E0BE2E01EA13E0F1EB8F2EF3E0DA
:103F10009F2EA0E12A2ED4013D904D01B1E03B122D
:103F200029C0F70180810E945505BC01990F880BBB
:103F3000990B0E949F2F20E030EC4FE754E40E9441
:103F4000EF2E20E030E44CE955E40E944431D501E5
:103F50002D913D914D915C910E94443120E030E0E3
:103F600040E251E40E94EF2E0E94612FAB01BC01A0
:103F7000822D70C0B1E0B31508F06EC0E8E0E31523
:103F800028F064ECC62E69E0D62E04C058E5C52E94
:103F900052E0D52ED7018C910E945505BC01990F96
:103FA000880B990B0E949F2F20E030EC4FE754E4E0
:103FB0000E94EF2E20E030E44CE955E40E944431A9
:103FC0002B013C01B60180E090E00E949D2F9B01F7
:103FD000AC01C301B2010E94062E2B013C01E32D6E
:103FE000F0E0EB5DFE4F608170E080E090E00E94C9
:103FF0009F2F9B01AC01C301B2010E94EF2E2B0148
:104000003C0120E030E040E251E40E9444310E9453
:10401000612FAB01BC0184E0820D0E9438152FEFA7
:104020003FEF4FE951E4C301B2010E94EF2EF801C6
:1040300020813181428153810E94072ED8016D93E6
:104040007D938D939C9313970E94612FAB01BC01CC
:1040500088E0820D0E943815BFEFEB1AFB0AE4E0FE
:10406000AE0EB11C23940C5F1F4FF4E12F1253CFFF
:10407000C2C88091C3069091C406892B09F449C433
:1040800032E0E32EAA24A39447E0F42E8091C306E5
:104090009091C406DC01ED91FC910084F185E02D46
:1040A0000995892B09F435C48091C3069091C40603
:1040B000DC01ED91FC910284F385E02D0995B82E89
:1040C0008091B3069091B406A091B506B091B60662
:1040D0000196A11DB11D8093B3069093B406A093E1
:1040E000B506B093B606B4E2BB1609F4BDC2E091C2
:1040F000AD06BB153CF0FAE0BF1679F00DE0B0124A
:10410000C0C20BC01AE2B11641F02CE2B212B9C221
:1041100080919A068B2580939A06EF3008F07BC138
:10412000F0E0E456F94F108280919B06882309F451
:1041300074C120919C063FEB320F822F022E000C9F
:10414000990B363010F4C79707C02156263018F463
:104150008755910901C0C097282F2295207F309163
:104160009D064FEB430F832F032E000C990B463017
:1041700010F4C79707C03156363018F487559109A7
:1041800001C0C097820F90919A06891331C1809126
:10419000BF069091C006A091C106B091C2060196DB
:1041A000A11DB11D8093BF069093C006A093C106C8
:1041B000B093C2068091AE06882399F08091B7062D
:1041C0009091B806A091B906B091BA060196A11DCA
:1041D000B11D8093B7069093B806A093B906B0932B
:1041E000BA061091AB06112309F46BC0113009F027
:1041F000D0C080913E0690913F06A0914006B091BC
:10420000410680933A0690933B06A0933C06B093F8
:104210003D060E94A6056093420670934306809374
:104220004406909345061093390610933806809102
:104230004C0690914D06A0914E06B0914F0680938A
:10424000480690934906A0934A06B0934B060E94F5
:10425000A605609350067093510680935206909382
:10426000530610934706109346068091AE068823A6
:1042700009F48FC0E6E2F6E0A8E1B6E08F2D0190E8
:104280000D928A95E1F7EDE2F6E0AFE1B6E08F2D11
:1042900001900D928A95E1F70E94A605609334067D
:1042A0007093350680933606909337061093170661
:1042B0001093160684E596E00E94860782E696E053
:1042C00066C080914C0690914D06A0914E06B0912B
:1042D0004F068093480690934906A0934A06B093F0
:1042E0004B060E94A605609350067093510680937A
:1042F000520690935306A0924706A09246068091DC
:10430000AE06882321F1E6E2F6E0A8E1B6E08F2DC3
:1043100001900D928A95E1F7EDE2F6E0AFE1B6E0AB
:104320008F2D01900D928A95E1F70E94A60560936A
:104330003406709335068093360690933706A09224
:104340001706A092160680E796E00E9486078091E5
:10435000880690918906A0918A06B0918B06809379
:10436000840690938506A0938606B09387060E94E4
:10437000A6056093800670938106809382069093D1
:104380008306A0927F06A0927E068CE896E00E94AB
:1043900086070091B1061091B2060115110509F4C6
:1043A00051C1E091B106F091B20666A177A1F80182
:1043B00086A197A10E94D936892B09F043C1B80183
:1043C000C80140960E94E2360E94A605D801909648
:1043D0006D937D938D939C9393979596AC929597BF
:1043E0009496AC9294979A960D911C919B97D5CFE9
:1043F0008091BB069091BC06A091BD06B091BE060F
:104400000196A11DB11D8093BB069093BC06A0939D
:10441000BD06B093BE0680E016C19091AC06911126
:1044200049C06FE671E08CE996E00E94D936892B8D
:1044300041F065E771E08CE996E00E94D936892B5E
:1044400019F4A092AB0615C06BE771E08CE996E019
:104450000E94D936892B41F061E871E08CE996E041
:104460000E94D936892B19F41092AB0602C0E09253
:10447000AB068091AF069091B0069093B206809300
:10448000B1060091B1061091B2060115110519F29D
:10449000F801C6A0D7A06CE976E0C6010E94D93623
:1044A00097FD02C00C944E2CD8019A968D919C9148
:1044B0009B97E3CFE091AB06E23009F491C0809185
:1044C0009C06882309F48CC000E2E09FF0011124CF
:1044D000E92B3197E932F10508F082C0EC5CFF4F1F
:1044E0000C9491338CE996E00E940C0960934C0681
:1044F00070934D0680934E0690934F0671C091E0E5
:10450000813409F043C043C066E276E009C091E01F
:10451000833509F090E090932C0662C06DE276E05E
:104520008CE996E00E9484085BC091E0873509F031
:1045300090E09093330654C08CE996E00E940C09F9
:1045400060935E0670935F068093600690936106A9
:1045500047C08CE996E00E940C0960936C0670934A
:104560006D0680936E0690936F063AC08CE996E0D4
:104570000E94AB2D60933E0670933F0680934006E9
:10458000909341062DC091E081330CF490E090931C
:10459000AE0626C08CE996E00E94AB2D609388069B
:1045A0007093890680938A0690938B0619C08CE9D4
:1045B00096E00E940C09609396067093970680938C
:1045C0009806909399060CC08CE996E00E940C091D
:1045D00060937A0670937B0680937C0690937D06A9
:1045E0000091B1061091B2060115110509F413CF1F
:1045F000E091B106F091B20666A177A1F80186A11B
:1046000097A10E94D936892B09F005CFD801989639
:104610002D913C9199978091AC0690E08217930779
:104620000CF4F9CE2817390739F440E150E06CE971
:1046300076E0C8010E94E936D8019A960D911C9146
:104640009B97D2CF81E09091AC069F5F9093AC0690
:104650001092AD0691E0BAE2BB1290E090939B06F7
:10466000882309F413CD21C01092AD061092AC0638
:1046700010929A06E092AB0610929B061092AE063C
:1046800005CDEE3040F481E08E0F8093AD06F0E072
:10469000E456F94FB08280919B068111F7CC80914E
:1046A0009A068B2580939A06F1CC1092170660919A
:1046B00018067091190680E090E00E949D2F6B0112
:1046C0007C0160911A0670911B0680911C069091E6
:1046D0001D060E949D2F28E23BE64EE65EE40E9406
:1046E000EF2E9B01AC01C701B6010E94072E20915D
:1046F0001E06DC01CB012111B0588093C5069093B2
:10470000C606A093C706B093C80660911F067091B5
:10471000200680E090E00E949D2F6B017C0160915B
:1047200021067091220680912306909124060E9412
:104730009D2F28E23BE64EE65EE40E94EF2E9B01B1
:10474000AC01C701B6010E94072E20912506DC01AD
:10475000CB012111B0588093C9069093CA06A0934B
:10476000CB06B093CC0680911606882389F00E9470
:10477000A605009134061091350620913606309139
:104780003706DC01CB01801B910BA20BB30B03C0DE
:104790008FEF9FEFDC018093E5069093E606A093F0
:1047A000E706B093E8061092550660915A0670919C
:1047B0005B0680915C0690915D060E949F2F6B01C5
:1047C0007C0126E53EE04DEE5FE30E94443120E0AF
:1047D00030E048EC52E40E94EF2E0E94612F60937B
:1047E000D5067093D6068093D7069093D8062EEB05
:1047F0003CE443E95FE3C701B6010E94443120E095
:1048000030E048EC52E40E94EF2E0E94612F60934A
:10481000D9067093DA068093DB069093DC0610923B
:104820007106609176067091770680917806909176
:1048300079060E949F2F6B017C0120E030E048EC5C
:1048400052E40E94EF2E0E94612F6093CD06709378
:10485000CE068093CF069093D00628E439EF41E549
:1048600050E4C701B6010E94443120E030E048EC3A
:1048700052E40E94EF2E0E94612F6093D106709344
:10488000D2068093D3069093D4061092630660916B
:1048900068067091690680916A0690916B060E9485
:1048A0009F2F20E030E048EC52E40E94EF2E0E945F
:1048B000612F6093DD067093DE068093DF06909390
:1048C000E00610928D068091920690919306A09139
:1048D0009406B09195068093E1069093E206A0932A
:1048E000E306B093E406809116068093E9061092E1
:1048F0007F068091840690918506A0918606B091EE
:1049000087068093EA069093EB06A093EC06B0939B
:10491000ED0680919E0381112AC08091E9068823CB
:1049200009F4B9C78091E5069091E606A091E706E3
:10493000B091E806803D9740A105B1050CF0ABC7EA
:1049400081E080939E0380919D03811110C00E949D
:10495000A605DC01CB0188579C4EAF4FBF4F80931B
:10496000990390939A03A0939B03B0939C03809127
:104970009E03882309F443C20091C5061091C60620
:104980002091C7063091C80609831A832B833C8384
:104990002091C9063091CA064091CB065091CC06B1
:1049A00029873A874B875C874091D5065091D60678
:1049B0006091D7067091D80683E00E943815409127
:1049C000DD065091DE066091DF067091E00689E019
:1049D0000E94381580919D03811153C0C0909903A6
:1049E000D0909A03E0909B03F0909C030E94A60550
:1049F000C616D706E806F90608F043C081E08093A2
:104A00009D0309811A812B813C81009395031093AA
:104A10009603209397033093980329853A854B8515
:104A20005C852093910330939203409393035093BA
:104A3000940389819A81AB81BC8180938D0390938B
:104A40008E03A0938F03B093900320938903309338
:104A50008A0340938B0350938C038091420581110C
:104A600010C08091CD069091CE06A091CF06B09156
:104A7000D0068093C5039093C603A093C703B09359
:104A8000C8034091CD065091CE066091CF0670913B
:104A9000D0064093B9035093BA036093BB0370935D
:104AA000BC038091420581111AC08091C503909189
:104AB000C603A091C703B091C8039A01AB01281B9C
:104AC000390B4A0B5B0BAAE0B0E00E94973360936E
:104AD000BD037093BE038093BF039093C003809186
:104AE0009D03882309F47BC1409091035090920369
:104AF0006090930370909403809195039091960336
:104B0000A0919703B0919803898B9A8BAB8BBC8B48
:104B1000630152017C018D0129853A854B855C85B5
:104B200069817A818B819C810E949D070E94682FF8
:104B30006D877E878F87988B3090A0033320C1F1DB
:104B40006091BD037091BE038091BF039091C0033B
:104B50002AE030E040E050E00E947233CA01B9011F
:104B60000E949F2F6B017C016D857E858F859889C2
:104B70000E949D2F4B015C01A7019601C701B60160
:104B80000E9444316B017C01A5019401C501B4016F
:104B90000E9444319B01AC01C701B6010E94072E5F
:104BA0000E940F320E94682F6D877E878F87988BB7
:104BB000A301920169857A858B859C850E94062ECA
:104BC00025E33AEF4EE85CE30E9444314B015C017F
:104BD00025E33AEF4EE85CE369897A898B899C8901
:104BE0000E9444312B013C0125E33AEF4EE85CE39F
:104BF00069817A818B819C810E9444316B017C01A7
:104C0000C501B4010E9401326D8B7E8B8F8B988F12
:104C1000C701B6010E94EA2E698B7A8B8B8B9C8B25
:104C2000C301B2010E940132698F7A8F8B8F9C8FF2
:104C3000C501B4010E94EA2E4B015C0129893A8921
:104C40004B895C89698D7A8D8B8D9C8D0E94443156
:104C5000A50194010E9444314B015C01C301B201E2
:104C60000E94EA2E2B013C01C701B6010E940132CD
:104C70009B01AC01C301B2010E944431A501940122
:104C80000E94062E6B017C0129893A894B895C8937
:104C90006D897E898F89988D0E944431A701960184
:104CA0000E94862E6B017C0120E030E0A9010E9469
:104CB000E52E87FF0AC02BED3FE049EC50E4C70129
:104CC000B6010E94072E6B017C0121EE3EE245E613
:104CD00052E4C701B6010E9444310E94612F2B01AA
:104CE0003C01A0908903B0908A03C0908B03D090C0
:104CF0008C03E0908D03F0908E0300918F03109150
:104D0000900329853A854B855C8569817A818B8101
:104D10009C810E949D076B017C01332009F446C0F1
:104D20006091BD037091BE038091BF039091C00359
:104D30002AE030E040E050E00E947233CA01B9013D
:104D40000E949F2F9B01AC010E9444314B015C01EA
:104D5000A7019601C701B6010E9444319B01AC0135
:104D6000C501B4010E94072E0E940F329B01AC01C5
:104D700060918503709186038091870390918803E9
:104D80002BA73CA74DA75EA70E949D2F2BA53CA556
:104D90004DA55EA50E94072E0E94682F6093850393
:104DA00070938603809387039093880309811A8107
:104DB0002B813C8100938D0310938E0320938F03EE
:104DC0003093900329853A854B855C852093890330
:104DD00030938A0340938B0350938C033FC010920F
:104DE0008503109286031092870310928803412C4A
:104DF000512C32011D861E861F86188A2FC0809175
:104E00004205811108C01092BD031092BE0310929A
:104E1000BF031092C0031092B9031092BA0310920C
:104E2000BB031092BC0340E050E0BA0183E00E9453
:104E3000381540E050E0BA0189E00E943815412C55
:104E4000512C32011D861E861F86188A19861A86E5
:104E50001B861C8619821A821B821C8229813A8138
:104E60004B815C8160E081E00E94511529853A8583
:104E70004B855C8561E082E00E945115B301A2017F
:104E80008AE00E9438154091EA065091EB06609145
:104E9000EC067091ED068BE00E9438154091E1061A
:104EA0005091E2066091E3067091E4068CE00E9466
:104EB00038156091850370918603809187039091E6
:104EC00088032AE030E040E050E00E945033BA010D
:104ED000A90188E00E9438154D855E856F85788927
:104EE00087E00E9438154091BD035091BE03609148
:104EF000BF037091C00384E00E9438154091B9034C
:104F00005091BA036091BB037091BC0385E00E948D
:104F100038158091D0059091D105DC01ED91FC917F
:104F20000480F581E02D0995182F811105C080912D
:104F30000001882309F46CC30E94A605C090810378
:104F4000D0908203E0908303F09084036C157D057C
:104F50008E059F0508F45CC30E94A605DC01CB0109
:104F600088539F4FAF4FBF4F80938103909382032D
:104F7000A0938303B093840301E0E12CF12C2CE097
:104F8000D22E103E51F480917F03909180038D309A
:104F900091050CF08DC101960BC0103771F4809112
:104FA0007F0390918003181619060CF081C10197B8
:104FB0009093800380937F0382C0103D09F082C0EC
:104FC00060907F0370908003B6E06B16710469F106
:104FD000E7E06E16710409F44BC0F5E06F1671043A
:104FE00009F05EC08090430590904405A09045056F
:104FF000B090460528E431EE4AE75FE3C501B4010D
:105000000E94E52E87FF4CC02AE037ED43E25CE3C7
:10501000C501B4010E94072E6093430570934405B7
:1050200080934505909346053BC08090470590903E
:105030004805A0904905B0904A0528E431EE4AE7BA
:105040005FE3C501B4010E94E52E87FF29C02AE075
:1050500037ED43E25CE3C501B4010E94072E609383
:105060004705709348058093490590934A0518C0F9
:1050700080914B0590914C05A0914D05B0914E0546
:1050800084369105A105B1055CF40196A11DB11D01
:1050900080934B0590934C05A0934D05B0934E051E
:1050A000C30108978430910550F4FC01EF54FC4F84
:1050B0008081811102C0D08202C081508083009320
:1050C0000001F6C0103B09F0F3C0E0917F03F091BE
:1050D00080033197ED30F10508F0D8C0E35AFF4F57
:1050E0000C949133F701099580919F038F5F833072
:1050F00018F480939F03CAC010929F03C7C0809189
:10510000A00380278093A003C1C0809043059090A6
:105110004405A0904505B09046052AE037ED43E2EE
:105120005CE3C501B4010E94033118160CF0AEC057
:105130002AE037ED43E25CE3C501B4010E94062E8C
:10514000609343057093440580934505909346050D
:105150009DC08090470590904805A0904905B0906B
:105160004A052AE037ED43E25CE3C501B4010E9441
:10517000033118160CF08AC02AE037ED43E25CE3F5
:10518000C501B4010E94062E60934705709348053F
:105190008093490590934A0579C080914B05909181
:1051A0004C05A0914D05B0914E05181619061A062A
:1051B0001B060CF06BC00197A109B10980934B0548
:1051C00090934C05A0934D05B0934E055FC0609140
:1051D0009F0381E090E00E94040C6091A00382E0B4
:1051E00090E00E94040C81EB882E83E0982E93E0DF
:1051F000A92EB12CD4016D914D01C5010E94040C62
:10520000BFEFAB1ABB0AE7E0AE16B10499F720E096
:1052100030E048EC52E46091430570914405809180
:105220004505909146050E9444310E94612F8AE015
:1052300090E00E94040C20E030E048EC52E46091E1
:105240004705709148058091490590914A050E9453
:1052500044310E94612F8BE090E00E94040C609129
:105260004B058CE090E00E94040CF7010995A12CFD
:10527000B12C6FEFC5010E94040CFFEFAF1ABF0AFB
:1052800024E1A216B104A9F7F7010995E0917F0383
:10529000F09180033897E430F10508F010CFEF5417
:1052A000FC4F80818F5F8D3008F408CF108207CFCC
:1052B00080910001882309F4ABC1E0917F03F09154
:1052C0008003EE30F10508F0EFC0E659FF4F0C9473
:1052D000913367E871E080E090E00E94B61167E9E1
:1052E00071E0DEC066EA71E080E090E00E94B611F5
:1052F00063EB71E0D5C080919F03813049F028F0C5
:105300008230C1F468ED71E011C06FEB71E00EC046
:105310006DEC71E00BC080919F03882309F431CEBE
:105320008091A003882349F063EF71E080E090E072
:105330000E94B61166EE71E0B3C064E072E0F6CF91
:1053400065E172E080E090E00E94B6118091420534
:105350008230A1F040F4882371F0813009F0A4C0BC
:1053600064E372E09DC0833061F0843009F09CC03A
:105370006BE572E095C066E272E092C061E472E0B3
:105380008FC06EE472E08CC080914205882309F4DE
:10539000F8CD20E030E048EC52E460914305709194
:1053A000440580914505909146050E9444310E9434
:1053B000612F7F936F9385E692E019C0809142053B
:1053C000882309F4DECD20E030E048EC52E460911F
:1053D0004705709148058091490590914A050E94C2
:1053E00044310E94612F7F936F9385E892E09F93F1
:1053F0008F938EE693E09F938F930E94F8366EE62C
:1054000073E080E090E00E94B61165E772E081E011
:1054100090E00E94B6110F900F900F900F900F9098
:105420000F9042C080914205882309F4AACD809153
:105430004E058F9380914D058F9380914C058F93EE
:1054400080914B058F9385E992E09F938F938EE631
:1054500093E09F938F930E94F8366EE673E080E0AE
:1054600090E00E94B61165E772E081E090E00E9452
:10547000B6110FB6F894DEBF0FBECDBF15C063EAFC
:1054800072E080E090E00E94B61164EB72E008C028
:105490006FEB72E080E090E00E94B6116EEC72E07B
:1054A00081E090E00E94B61100917F03109180038B
:1054B000C8010897049708F0A9C06AED72E08EE66B
:1054C00093E00E94E23689E2800F80936F03F80137
:1054D000E755FC4FE0818E2F90E08D30910508F06C
:1054E00089C0FC01E858FF4F0C949133EEE6F3E0DD
:1054F000DF010D900020E9F7CD0164EC71E077C089
:10550000EEE6F3E0DF010D900020E9F7CD016FED4D
:1055100072E06DC0EEE6F3E0DF010D900020E9F7E8
:10552000CD0167EE72E063C0EEE6F3E0DF010D90BF
:105530000020E9F7CD0161EF72E059C0EEE6F3E03B
:10554000DF010D900020E9F7CD016BEF72E04FC055
:10555000EEE6F3E0DF010D900020E9F7CD0165E014
:1055600073E045C0EEE6F3E0DF010D900020E9F7BF
:10557000CD0160E173E03BC0EEE6F3E0DF010D90AA
:105580000020E9F7CD016CE173E031C0EEE6F3E015
:10559000DF010D900020E9F7CD0168E273E027C03C
:1055A000EEE6F3E0DF010D900020E9F7CD0164E3C2
:1055B00073E01DC0EEE6F3E0DF010D900020E9F797
:1055C000CD016FE373E013C0EEE6F3E0DF010D9071
:1055D0000020E9F7CD016BE473E009C0EEE6F3E0EB
:1055E000DF010D900020E9F7CD0167E573E0019739
:1055F0000E94E2366EE673E080E090E00E94B61111
:1056000065E772E081E090E00E94B611109200011F
:10561000C0908A05D0908B05E0908C05F0908D05A8
:10562000B6E9CB0ED11CE11CF11C0E94A6056C153D
:105630007D058E059F0508F498C00E94A60560931D
:105640008A0570938B0580938C0590938D058091CE
:105650001306882351F18091D0059091D105DC018A
:10566000ED91FC910280F381E02D40E06EE7099519
:105670008091D0059091D105DC01ED91FC910280E3
:10568000F381E02D41E061E909958091D005909189
:10569000D105DC01ED91FC910280F381E02D41E028
:1056A00061E30995109213065EC0F0901206FF2088
:1056B00009F44BC00F2D0F2C000C110BC8010E94D8
:1056C000BA36892B31F0C8010E94C136F82E10E09D
:1056D00001C011E08091D0059091D105DC01ED91E0
:1056E000FC910280F381E02D40E06EE70995809106
:1056F000D0059091D105DC01ED91FC910280F38100
:10570000E02D41E062E009958091D0059091D105AE
:10571000DC01ED91FC910280F381E02D111102C0BA
:1057200062E201C063E241E009958091D005909169
:10573000D105DC01ED91FC910280F381E02D41E087
:105740006F2D0995109212060EC08091A4059091BC
:10575000A505892B41F080918E0591E0980F9093DB
:105760008E050E9426120E94751480E090E0892B1D
:1057700011F40C94E6180E9400000C94E618809135
:105780004F0590915005009711F00C94941683E208
:1057900090E0909355058093540584E290E09093B7
:1057A00057058093560585E290E0909359058093C4
:1057B000580586E290E00C94AC16892B11F00C94FD
:1057C000BE1680EE0C94BC168CE5809351050E94A9
:1057D0001B158D3B910511F40C9481168B3B9105A3
:1057E00011F40C948E1687E70E94650C0E94080C39
:1057F00081110C94C1160E94B60E87E70E94650CB9
:105800008EE190E00E94FD140E94080C8AE08093D3
:105810000B0788E080930C0764E670E080E090E07E
:105820000E946C05AFEFEA2EA6E0FA2EB2EACB2E6C
:1058300087E70E94650C6C2D86E295E00E94370494
:105840000E94080C87E70E94650C82E090E00E94AD
:10585000F1149091BA048091BB049817F1F386E299
:1058600095E00E94EB03D82E86E295E00E94EB03C0
:10587000B82E0E94080C1D2D00E0C8018B29D7010D
:105880008D939D937D01C394C394BEEACB12D0CF78
:1058900083E00C94BF1610929E0369C86CE976E011
:1058A000C6010E94D9361816190614F00C940B2262
:1058B0001092B2061092B1060C940B22E6E2F5E0CB
:1058C0001382128288EE93E0A0E0B0E08483958397
:1058D000A683B7838AE391E091838083E6E1F6E0D3
:1058E000108211821382128214821582168217820C
:1058F00010861286118613861486158616861786DC
:10590000118A108A128A138A148A158A168A108EAE
:10591000178A118E128E138E148E158E12A213A258
:1059200014A215A216A217A210AA11AA12AA13AAAB
:1059300014AA15AA109254061092550610925A06EF
:1059400010925B0610925C0610925D061092620641
:1059500010926306109268061092690610926A0609
:1059600010926B06109270061092710610927606D5
:1059700010927706109278061092790610927E06A1
:1059800010927F0610928406109285061092860669
:105990001092870610928C0610928D061092920635
:1059A00010929306109294061092950610929A0601
:1059B00010929B0682E08093AB061092AC06109288
:1059C000AD061092AE061092B0061092AF0610927D
:1059D000B2061092B1061092B3061092B40610925D
:1059E000B5061092B6061092B7061092B80610923D
:1059F000B9061092BA061092BB061092BC0610921D
:105A0000BD061092BE061092BF061092C0061092FC
:105A1000C1061092C20610929C061092C406109203
:105A2000C3061092C5061092C6061092C7061092C1
:105A3000C8061092C9061092CA061092CB061092A0
:105A4000CC061092CD061092CE061092CF06109280
:105A5000D0061092D1061092D2061092D306109260
:105A6000D4061092D5061092D6061092D706109240
:105A7000D8061092D9061092DA061092DB06109220
:105A8000DC061092E1061092E2061092E3061092F4
:105A9000E4061092E5061092E6061092E7061092D0
:105AA000E8061092EA061092EB061092EC061092AD
:105AB000ED06EAE8F5E01082118212821382148268
:105AC000118E138E128E158E148E178E168E10A2B6
:105AD00011A21092D1051092D005109212061092C8
