:100000000C9401030C9429030C9429030C942903E8
:100010000C9429030C9429030C9429030C942903B0
:100020000C9429030C9429030C9475080C941F0953
:100030000C942E080C9429030C9429030C94290386
:100040000C947C060C9429030C94B20A0C94EE0ACE
:100050000C94490B0C9429030C9429030C94290348
:100060000C9400070C9429038B269D26A026A72616
:10007000AE26DC26E326F026FD26092709270927D8
:1000800009270927092709270927092709270927F0
:1000900009270927092709270927092709270927E0
:1000A00009270927092709278B2698269D26A02698
:1000B000A726AE26B526C226CF26A82BBD2BD82B29
:1000C000DF2BE72BAB2BEF2B102C312C3A2C552CA4
:1000D000692C732C7D2C432C872C902C084AD73B01
:1000E0003BCE016E84BCBFFDC12F3D6C74319ABD07
:1000F00056833DDA3D00C77F11BED9E4BB4C3E912B
:100100006BAAAABE000000803F05A84CCDB2D44E19
:10011000B93836A9020C50B9918688083CA6AAAA1B
:100120002ABE000000803F07634236B79BD8A71A5B
:1001300039685618AEBAAB558C1D3CB7CC5763BD69
:100140006DEDFD753EF6177231BF000000803F086F
:10015000000000BE922449123EABAAAA2ABECDCC12
:10016000CC4C3E00000080BEABAAAAAA3E00000014
:1001700000BF000000803F0000000000084178D36D
:10018000BB4387D1133D190E3CC3BD4282AD2B3E0C
:1001900068EC8276BED98FE1A93E4C80EFFFBE01AC
:1001A000C4FF7F3F000000000000014C61746974CF
:1001B00075646500000000000000000000000020E1
:1001C0000000000000000900024C6F6E6769747542
:1001D0006465000000000000000000000020000036
:1001E0000000000009000353706565640000000012
:1001F00000000000000000000000006D70680000BA
:10020000000001000452656C2E20416C746974007A
:100210000000000000000000006674000000000004
:10022000010105416C74697475646500000000008B
:1002300000000000000000667400000000000100E3
:1002400006566172696F00000000000000000000A7
:10025000000000000066742F7300000008020744CD
:10026000697374616E6365000000000000000000A7
:1002700000000066742E000000000100084865615F
:1002800064696E67000000000000000000000000CC
:1002900000B0000000000000010009436F75727398
:1002A000650000000000000000000000000000B039
:1002B00000000000000001000A536174656C6C6965
:1002C00074657300000000000000000000200000C2
:1002D0000000000000000B48444F500000000000E8
:1002E00000000000000000000000002000000000EE
:1002F000000001020C507265737375726500000096
:10030000000000000000000000696E484700000087
:1003100008020D54656D7065726174757265000038
:1003200000000000000000B04600000000000101D5
:100330000E48756D69646974790000000000000062
:1003400000000000002572480000000001010F5667
:100350006F6C7461676531000000000000000000F0
:1003600000000056000000000000010210566F6CF3
:1003700074616765320000000000000000000000AA
:100380000056000000000000010200000000000014
:10039000000000000000000000000000000000005D
:1003A0000000000000000000014C61746974756475
:1003B00065000000000000000000000000200000B8
:1003C000000000000900024C6F6E67697475646577
:1003D00000000000000000000000002000000000FD
:1003E0000000090003537065656400000000000010
:1003F0000000000000000000006B6D2F680000008E
:1004000001000452656C2E20416C74697400000078
:10041000000000000000006D00000000000001016D
:1004200005416C746974756465000000000000008B
:1004300000000000006D00000000000001000656F2
:100440006172696F00000000000000000000000001
:100450000000006D2F73000000000802074469735C
:1004600074616E6365000000000000000000000081
:10047000006D00000000000001000848656164692B
:100480006E6700000000000000000000000000B0E7
:10049000000000000000010009436F7572736500E1
:1004A00000000000000000000000000000B000009C
:1004B0000000000001000A536174656C6C6974658A
:1004C0007300000000000000000000200000000099
:1004D000000000000B48444F5000000000000000E6
:1004E00000000000000000000020000000000000EC
:1004F00001020C5072657373757265000000000094
:1005000000000000000000685061000000000802C8
:100510000D54656D70657261747572650000000040
:100520000000000000B043000000000001010E4880
:10053000756D6964697479000000000000000000B6
:100540000000002572480000000001010F566F6C8A
:1005500074616765310000000000000000000000C9
:100560000056000000000000010210566F6C74611C
:100570006765320000000000000000000000005627
:100580000000000000000102000000000000000068
:10059000000000000000000000000000000000005B
:1005A00000000000000000000000240027002A00D6
:1005B00000000000250028002B00000000002300A0
:1005C00026002900040404040404040402020202B4
:1005D0000202030303030303010204081020408006
:1005E0000102040810200102040810200000000885
:1005F00000020100000304070000000000000000EA
:100600007D2E11241FBECFEFD8E0DEBFCDBF12E09C
:10061000A0E0B1E0ECECF1E702C005900D92AE393C
:10062000B107D9F726E0AEE9B2E001C01D92AD34C2
:10063000B207E1F713E0C1E0D3E004C02197FE0167
:100640000E94AC35C030D107C9F70E94061C0C943B
:10065000E4380C940000CF92DF92EF92FF920F9358
:100660001F93CF93DF936C017A018B01C0E0D0E040
:10067000CE15DF0589F0D8016D918D01D601ED9180
:10068000FC910190F081E02DC6010995892B11F4B0
:100690007E0102C02196ECCFC701DF91CF911F915F
:1006A0000F91FF90EF90DF90CF900895833081F00D
:1006B00028F4813099F08230A1F008958730A9F0B4
:1006C0008830B9F08430D1F4809180008F7D03C0F0
:1006D000809180008F7780938000089584B58F7714
:1006E00002C084B58F7D84BD08958091B0008F775E
:1006F00003C08091B0008F7D8093B00008953FB714
:10070000F8948091E2039091E303A091E403B09107
:10071000E50326B5A89B05C02F3F19F00196A11D42
:10072000B11D3FBFBA2FA92F982F8827820F911D87
:10073000A11DB11DBC01CD0143E0660F771F881FCD
:10074000991F4A95D1F7089585ED8093BC0080915B
:10075000BC0084FDFCCF10922E0408954091B70395
:10076000262F30E0240F311D21323105DCF4209199
:100770002E042430C9F4FC0180E090E0861758F480
:100780003091B7032191DC01AB56BC4FA30FB11DD3
:100790002C930196F3CF8091B703680F6093B70352
:1007A00080E0089581E0089582E008950895E09141
:1007B000E7038091E603E81730F4F0E0E851FC4FDE
:1007C000808190E008958FEF9FEF08959091E70367
:1007D0008091E603981750F4E92FF0E0E851FC4FC0
:1007E000208130E09F5F9093E70302C02FEF3FEF3F
:1007F000C90108958091E60390E02091E703821BF0
:1008000091090895CF92DF92EF92FF920F931F9379
:10081000CF93DF937C01262F972F8A01809151047B
:10082000882391F0C62FD72F6E01C40ED51ECC158C
:10083000DD0571F06991D701ED91FC910190F08196
:10084000E02DC7010995F3CF642F822F0E94AE03DC
:10085000C801DF91CF911F910F91FF90EF90DF9032
:10086000CF900895CF93DF931F92CDB7DEB7698302
:10087000209151042223D1F020914F04203240F0E6
:1008800021E030E0FC013383228380E090E015C05A
:1008900080915004E82FF0E0E15DFB4F9981908357
:1008A0008F5F8093500480934F0405C061E0CE01B8
:1008B00001960E94AE0381E090E00F90DF91CF910E
:1008C00008955091A2024091A102852F90E0242F1B
:1008D00030E0541710F4805B9F4F821B930B0895F8
:1008E0008091A202E091A1028E1751F0EF5FE035F6
:1008F00008F0E0E0F0E0EB5BFC4F808190E00895D1
:100900008FEF9FEF08958091A2029091A102891725
:1009100069F09F5F903508F090E0E92FF0E0EB5B25
:10092000FC4F80819093A10290E008958FEF9FEF9C
:1009300008958091A0028111FCCF089580919F02BB
:100940008F5F843408F080E090919E029817E1F365
:100950002FB7F8949091A002992341F0E82FF0E08E
:10096000E550FD4F608380939F021DC081E080931E
:10097000A0026093400310923F0382E086BB809107
:100980006F00826080936F00809180008F73806819
:100990008093800080918400909185004096909390
:1009A0008900809388002FBF81E090E0089508952A
:1009B00080E090E008951F93CF93DF93F894EC01CB
:1009C000CA57DF4F2881203400F5DC01AE57BF4FF6
:1009D0001C9111965C91119770E0411103C020E0C9
:1009E00030E002C020E031E0622B732BE12FF52FC5
:1009F00071836083329628812F5F2883EA17FB0773
:100A000010F0FC013296ED93FC93FC01E057FF4F90
:100A10008081811108C081E080838091C1008F7640
:100A200088628093C1007894DF91CF911F910895DF
:100A3000FC01E157FF4F2081222301F1F894A0919E
:100A4000F902B091FA02A357BF4F0D90BC91A02DAF
:100A50004C912081215020833297208131812F5F5A
:100A60003F4FBC0165577F4F2617370718F09C0191
:100A700029573F4F31832083789401C040E0842F71
:100A80000895089508950E949A38CF93DF93282FF0
:100A900030E0F901E451FA4F8491F901E852FA4F3C
:100AA000D491F901EC53FA4FC491CC2391F0811108
:100AB0000E945603EC2FF0E0EE0FFF1FE654FA4FB2
:100AC000A591B491EC91ED2381E090E021F480E0D8
:100AD00002C080E090E0DF91CF9108951F93CF9303
:100AE000DF93282F30E0F901E451FA4F8491F901A6
:100AF000E852FA4FD491F901EC53FA4FC491CC2348
:100B0000C9F0162F81110E945603EC2FF0E0EE0F72
:100B1000FF1FE055FA4FA591B4918FB7F8941111CA
:100B200005C09C91ED2FE095E92302C0EC91ED2BDF
:100B3000EC938FBFDF91CF911F910895CF93DF93F7
:100B400090E0FC01E852FA4F2491FC01EC53FA4F7B
:100B50008491882361F190E0880F991FFC01EA5588
:100B6000FA4FC591D491FC01E055FA4FA591B4918B
:100B7000611109C09FB7F8948881209582238883EA
:100B8000EC912E230BC0623061F49FB7F89438814A
:100B9000822F809583238883EC912E2B2C939FBFEB
:100BA00006C08FB7F894E8812E2B28838FBFDF9182
:100BB000CF9108951092C0008CE08093C10086E32D
:100BC0008093C2001092C50082E38093C40062E06B
:100BD00080E00E949E0562E081E00C949E05CF9328
:100BE000DF93EC010E94DA05FE01329680E8DF0116
:100BF0001D928A95E9F7DE01AE57BF4F1196FC931F
:100C0000EE9312961196FC93EE93EC57FF4F1082E1
:100C10003196108211821282138217961196FC93DC
:100C2000EE931296ED93FC933896108231961082D3
:100C3000D093FA02C093F902DF91CF9108958E30DC
:100C400008F08E508770806480937C0080917A00D9
:100C5000806480937A0080917A0086FDFCCF809139
:100C600078002091790090E0922B08958F929F92C6
:100C7000AF92BF92CF92DF92EF92FF926B017C0115
:100C80000E947F034B015C01C114D104E104F10413
:100C9000F1F00E947F03DC01CB0188199909AA09B0
:100CA000BB09883E9340A105B10570F321E0C21A4B
:100CB000D108E108F10888EE880E83E0981EA11C97
:100CC000B11CC114D104E104F10419F7DDCFFF9088
:100CD000EF90DF90CF90BF90AF909F908F9008954E
:100CE0002FB7F8946091DE037091DF038091E003E9
:100CF0009091E1032FBF08951F920F920FB60F92AC
:100D000011242F933F938F939F93AF93BF93809121
:100D1000DE039091DF03A091E003B091E1033091F5
:100D2000DD0326E0230F2D3720F40296A11DB11D0F
:100D300005C029E8230F0396A11DB11D2093DD03F3
:100D40008093DE039093DF03A093E003B093E1036D
:100D50008091E2039091E303A091E403B091E50355
:100D60000196A11DB11D8093E2039093E303A0932C
:100D7000E403B093E503BF91AF919F918F913F91B1
:100D80002F910F900FBE0F901F901895CF93CFB754
:100D9000F8948091DC03811127C0EEECF5E084919A
:100DA000E2EEF5E09491E82FF0E0EE0FFF1FEA5538
:100DB000FA4FA591B491EC91E92321F461E08AE026
:100DC0000E946E0561E08AE00E949E058CB58061FC
:100DD0008CBD8CB580648CBD61E08DE00E949E0569
:100DE00061E08BE00E949E058091DC038F5F809321
:100DF000DC03CFBFCF91089508958CBD9DBD0895AC
:100E00001F920F920FB60F9211242F933F934F937F
:100E10005F936F937F938F939F93AF93BF93EF9362
:100E2000FF938091B900887F803609F49CC068F5F3
:100E3000883209F45BC090F4803109F454C038F46E
:100E4000882309F4F6C0883009F44DC0F6C0883113
:100E500009F44CC0803209F45DC0EFC0803409F45D
:100E600068C048F4803309F455C0883309F0E5C000
:100E700080932C04D8C0803509F44FC0883509F41C
:100E80005DC0883409F0D9C0D6C0883909F4C7C01C
:100E9000A8F4883709F467C038F4883609F463C0C9
:100EA000803709F460C0C9C0883809F4B8C08039F7
:100EB00009F45FC0803809F0C0C05BC0803B09F412
:100EC00086C038F4803A09F466C0883A09F47FC0D5
:100ED000B4C0803C09F4A7C0883C09F4A4C0883B96
:100EE00009F48AC0AAC08091090410C090912B0413
:100EF00080912A04981770F5E0912B0481E08E0F01
:100F000080932B04F0E0E65FFB4F80818093BB0071
:100F100085EC86C080932C048EC0E0912B0481E088
:100F20008E0F80932B048091BB00F0E0E65FFB4FB7
:100F3000808390912B0480912A046EC0E0912B0451
:100F400081E08E0F80932B048091BB00F0E0E65F80
:100F5000FB4F808380912D0481116DC081E08093CF
:100F6000080484EA61C083E080932E041092DB03BE
:100F7000CFCF8091DB03803208F051C0E091DB03DA
:100F800081E08E0F8093DB038091BB00F0E0E5549D
:100F9000FC4F8083BDCF85EC8093BC0010922E0463
:100FA0008091DB03803230F4E091DB03F0E0E55424
:100FB000FC4F10826091DB0370E0E091B903F09187
:100FC000BA038BEB93E009951092DB0336C084E003
:100FD00080932E041092B8031092B703E091B503EA
:100FE000F091B60309958091B703811105C081E0A6
:100FF0008093B70310929503E091B80381E08E0FC0
:101000008093B803F0E0EB56FC4F80818093BB00E7
:101010009091B8038091B703981708F479CF85E8C9
:101020008093BC000AC085EC8093BC0010922E0413
:1010300004C010922C040E94A403FF91EF91BF9171
:10104000AF919F918F917F916F915F914F913F9160
:101050002F910F900FBE0F901F9018951F920F9217
:101060000FB60F9211242F938F939F93EF93FF93BB
:1010700080916F008B7F80936F00809181008F7BC8
:10108000809381008091A302209144032058909185
:101090004303893020F49695922B8F5FFACF90937B
:1010A00043038091A2028F5F803508F080E0209199
:1010B000A102821739F0E82FF0E0EB5BFC4F908340
:1010C0008093A2021092A302809181008F7B809373
:1010D000810010924403FF91EF919F918F912F9186
:1010E0000F900FBE0F901F9018951F920F920FB682
:1010F0000F9211242F933F934F935F936F937F939E
:101100008F939F93AF93BF93EF93FF93809186004C
:10111000909187004091440320918100442331F055
:101120002F7B209381001092440306C020642093FB
:10113000810020E8209344033091A302311125C09F
:1011400041116CC02091A4023091A502280F391FD3
:1011500030938B0020938A0024E026BB20916F00FF
:10116000246020936F002091A6023091A702820F85
:10117000931F36952795820F931F90934203809378
:10118000410381E08093A30249C040914103509103
:1011900042036091A6027091A702DB01A095B09571
:1011A00020914303E0914403841B950BA817B907D2
:1011B00068F126952E2B460F571F3F5F861B970B16
:1011C0003930A0F32093430380916F008B7F80938D
:1011D0006F008091A2028F5F803508F080E09091CF
:1011E000A102891749F0E82FF0E090914303EB5BEF
:1011F000FC4F90838093A202809181008F7B80932B
:101200008100109244031092A30208C0209343036C
:1012100050934203409341033093A302FF91EF9117
:10122000BF91AF919F918F917F916F915F914F91FE
:101230003F912F910F900FBE0F901F9018951F9206
:101240000F920FB60F9211242F933F934F935F93FA
:101250006F937F938F939F93EF93FF938091A0025F
:101260006091400320918800309189004091A6024E
:101270005091A70290913F038A30F8F4240F351F54
:10128000893019F0762F717001C071E066958F5F1B
:10129000791791F390918000772311F0906C02C040
:1012A0009F7390689093800030938900209388000A
:1012B00070933F03609340034AC090919F02E09176
:1012C0009E029E1319C08A3051F48BE08093A002D5
:1012D000240F351F30938900209388003AC0109264
:1012E000A002809180008F738093800080916F00B6
:1012F0008D7F80936F002DC0EF5FE43408F0E0E055
:10130000E0939E02F0E0E550FD4F90819093400302
:1013100010923F03909180009F739068909380009B
:101320008A3059F48091A6029091A702280F391FA4
:10133000309389002093880009C0809184009091A7
:1013400085004096909389008093880081E0809387
:10135000A002FF91EF919F918F917F916F915F918B
:101360004F913F912F910F900FBE0F901F901895A6
:10137000CF93DF93EC018A859B85AC85BD858E83F9
:101380009F83A887B9870E9470066A837B838C83BA
:101390009D8381E089838883DF91CF9108952F9287
:1013A0003F924F925F926F927F928F929F92AF92F5
:1013B000BF92CF92DF92EF92FF920F931F93CF9342
:1013C000DF93D82FC92F8B010E94B72F24E630E07E
:1013D00040E050E00E946B3549015A019B01AC018D
:1013E00060E876E988E990E00E9447356B017C016E
:1013F000F80191828082ED2FFC2F2191822F022E05
:10140000000C990BC0970A97C0F32E3239F51F01D3
:1014100080E8882E86E9982E88E9A82EB12C9AE0DB
:10142000492E512C612C712CF101C1911F010C2E00
:10143000000CDD0BE097CA30D10580F4C501B40182
:10144000A30192010E946B3549015A01DE010E94FD
:10145000BD35C60ED71EE81EF91EE6CFA5E0B0E0EA
:10146000A70196010E94B2356F5F7F4F8F4F9F4F4C
:1014700023E030E040E050E00E946B35F801228329
:101480003383448355831682DF91CF911F910F914F
:10149000FF90EF90DF90CF90BF90AF909F908F9094
:1014A0007F906F905F904F903F902F900895FF92A4
:1014B0000F931F93CF93DF93EC01FF24F394888164
:1014C0008D3211F0F12C01C02196CE010E94B72F70
:1014D0009B01AC01A4E6B0E00E94B235FE01499147
:1014E000242F042E000C330B205331092A303105F0
:1014F000A8F34E3241F52181022E000C330B20530C
:1015000031092A303105F8F44AE0429F8001439FB7
:10151000100D1124012E000C220B330B600F711FD4
:10152000821F931F0281002E000C110B0053110922
:101530000A30110540F4012E000C220B330B600F12
:10154000711F821F931FFF2039F090958095709531
:1015500061957F4F8F4F9F4FDF91CF911F910F91DB
:10156000FF9008951F920F920FB60F9211242F93A0
:101570003F938F939F93AF93BF93EF93FF9380918C
:10158000C600803FF1F0982F9F70D9F42091F902A6
:101590003091FA02F901E557FF4FA081B1818C9398
:1015A000D901A157BF4F8C918F5F8C93808191811E
:1015B00001968E179F0718F0C90189579F4F918395
:1015C0008083FF91EF91BF91AF919F918F913F9158
:1015D0002F910F900FBE0F901F9018951F920F9292
:1015E0000FB60F9211242F933F934F935F938F93D6
:1015F0009F93EF93FF938091F9029091FA02FC017F
:10160000EA57FF4F2081222351F132970190F08158
:10161000E02D208131818091C10030FF02C08160C6
:1016200001C08E7F8093C1002093C6002091F902F3
:101630003091FA02F901EA57FF4F8081815080838F
:101640003297808191810296A9014E575F4F84178E
:10165000950710F0C9010296918380830DC0809197
:10166000C1008F7D80648093C100E091F902F09108
:10167000FA02E057FF4F1082FF91EF919F918F91F7
:101680005F914F913F912F910F900FBE0F901F9040
:1016900018951F920F920FB60F9211242F933F931C
:1016A0008F939F93EF93FF93E1ECF0E08081877B32
:1016B000806980838091F9029091FA029C012957F8
:1016C0003F4FFC01E557FF4F318320833296318332
:1016D000208332961082FF91EF919F918F913F91DD
:1016E0002F910F900FBE0F901F901895CF92DF9201
:1016F000EF92FF920F931F93CF93DF93CDB7DEB797
:101700006E970FB6F894DEBF0FBECDBF8C017B0184
:101710006A012EE1269FC001279F900D1124DA0156
:101720005A966D917C915B97680F791F4EE150E05E
:10173000CE0101960E94DE2F8D8DF801868F898162
:101740008283EE0CFF1CEE0CFF1CD6015C96ED9123
:10175000FC915D97EE0DFF1D80819181A281B38187
:10176000F80183839483A583B683A801485F5F4F04
:10177000FE013296DA0190E08191811106C0392F85
:10178000D8015C969C93232F0FC0933119F09F5F73
:101790008D93F2CF33E1F4CF8331910594F4FA01C4
:1017A000E80FF91F70832F5F622F631BE1E0F0E009
:1017B000EC0FFD1FE60FF11D7589822F90E071116E
:1017C000EBCFF801658FFA01E80FF91F10828E8DBB
:1017D000813031F0823041F480E4F801878F04C019
:1017E00080E2D8015F968C93D8015E968C9184300C
:1017F00091F030F4882361F08130A1F483E00FC0D0
:10180000883041F0893051F0853061F484E007C0C0
:1018100082E001C085E0F80180A304C085E0D80122
:1018200090968C936E960FB6F894DEBF0FBECDBF28
:10183000DF91CF911F910F91FF90EF90DF90CF90AC
:1018400008950C940430813208F080E2682F87E715
:101850000E94CD191092E7038093E6030895613248
:1018600008F060E20E94CD191092E7038093E6032E
:101870000895CF92DF92EF92FF92CF93C82F80917D
:10188000DB058F3FC9F58091D2050E9428196C2F86
:1018900082E594E00E9432040E94321963E0809154
:1018A000D2050E942F0C82E594E00E94E6036C01B1
:1018B000990FEE08FF08FE2CED2CDC2CCC2482E5E1
:1018C00094E00E94E603AC01990F660B770BC42AE3
:1018D000D52AE62AF72AFE2CED2CDC2CCC2482E536
:1018E00094E00E94E603AC01990F660B770BC42AC3
:1018F000D52AE62AF72A33C08091DE058F3F21F4EE
:1019000081E590E00E94FD0660E08091DB050E9489
:101910006E058C2F80680E94E81880E00E94E8180D
:10192000C82ED12CE12CF12CFE2CED2CDC2CCC245F
:1019300080E00E94E818C82AFE2CED2CDC2CCC2478
:1019400080E00E94E818C82A61E08091DB050E94CF
:101950006E058091DE058F3F11F40E94FC06C701E1
:10196000B601CF91FF90EF90DF90CF900895CF9385
:10197000C82F8091DB058F3FB1F48091D2050E9482
:1019800028196C2F82E594E00E9432040E943219DB
:1019900061E08091D2050E942F0C82E594E00E94C4
:1019A000E603C82F20C08091DE058F3F21F481E53A
:1019B00090E00E94FD0660E08091DB050E946E05CC
:1019C0008C2F80680E94E81880E00E94E818C82FD9
:1019D00061E08091DB050E946E058091DE058F3FFE
:1019E00011F40E94FC068C2FCF910895CF93DF93C2
:1019F000C82F8091DB058F3F01F58091D2050E94B1
:101A000028196C2F82E594E00E9432040E9432195A
:101A100062E08091D2050E942F0C82E594E00E9442
:101A2000E603C82F82E594E00E94E60320E030E060
:101A30003C2FE901C82BD92B29C08091DE058F3FAF
:101A400021F481E590E00E94FD0660E08091DB05D5
:101A50000E946E058C2F80680E94E81880E00E942A
:101A6000E818C82F80E00E94E8182C2F30E0322FB1
:101A70002227E901C82B61E08091DB050E946E05F9
:101A80008091DE058F3F11F40E94FC06CE01DF91AC
:101A9000CF9108950E94F60C9827892798270895DA
:101AA0001092E7031092E6031092500410924F0434
:101AB00010922E0481E080932D041092080461E0BE
:101AC00082E10E946E0561E083E10E946E05E9EB10
:101AD000F0E080818E7F808380818D7F808380E2B3
:101AE0008093B80085E48093BC000895EF92FF9244
:101AF0000F931F93CF93DF9390910F069F3F39F47D
:101B00008EBD00000DB407FEFDCF8EB528C0D82FC6
:101B100007E010E0C0E0EE24E394F12CCC0F60E08D
:101B200080910F060E946E05B701002E01C0660F5E
:101B30000A94EAF76D2380910D060E946E0561E01C
:101B400080910F060E946E0580910E060E94450549
:101B5000892B09F0C1600150110900F78C2FDF912A
:101B6000CF911F910F91FF90EF900895CF92DF9248
:101B7000EF92FF92CF93C82F80910C068F3FC9F54B
:101B8000809103060E9428196C2F82E594E00E9440
:101B900032040E94321963E0809103060E942F0CE8
:101BA00082E594E00E94E6036C01990FEE08FF08BD
:101BB000FE2CED2CDC2CCC2482E594E00E94E60384
:101BC000AC01990F660B770BC42AD52AE62AF72AAF
:101BD000FE2CED2CDC2CCC2482E594E00E94E60364
:101BE000AC01990F660B770BC42AD52AE62AF72A8F
:101BF00033C080910F068F3F21F481E590E00E9471
:101C0000FD0660E080910C060E946E058C2F8068B6
:101C10000E94760D80E00E94760DC82ED12CE12C1A
:101C2000F12CFE2CED2CDC2CCC2480E00E94760DD7
:101C3000C82AFE2CED2CDC2CCC2480E00E94760DF2
:101C4000C82A61E080910C060E946E0580910F0603
:101C50008F3F11F40E94FC06C701B601CF91FF909F
:101C6000EF90DF90CF900895CF93DF93C82F8091AE
:101C70000C068F3F01F5809103060E9428196C2FF6
:101C800082E594E00E9432040E94321962E0809161
:101C900003060E942F0C82E594E00E94E603C82F01
:101CA00082E594E00E94E60320E030E03C2FE90169
:101CB000C82BD92B29C080910F068F3F21F481E5D5
:101CC00090E00E94FD0660E080910C060E946E0587
:101CD0008C2F80680E94760D80E00E94760DC82FC0
:101CE00080E00E94760D2C2F30E0322F2227E90170
:101CF000C82B61E080910C060E946E0580910F0652
:101D00008F3F11F40E94FC069C2F8D2FDF91CF9105
:101D100008950F931F93CF93DF931F92CDB7DEB734
:101D2000682F87E769830E942819698182E594E01A
:101D30000E9432040E94321987E70E94281982E02B
:101D400090E00E94230C82E594E00E94E60300E00C
:101D500010E0182F82E594E00E94E603082B192B6F
:101D60000E943219C8010F90DF91CF911F910F91FE
:101D700008951F93CF93DF931F92CDB7DEB7682FDF
:101D800087E769830E942819698182E594E00E94AF
:101D900032040E94321987E70E94281981E090E0FE
:101DA0000E94230C82E594E00E94E603182F0E9413
:101DB0003219812F0F90DF91CF911F9108952091BB
:101DC0007A0430917B042115310589F0803278F452
:101DD000E82FF0E0E25AFB4F82A1F90194E0899FDD
:101DE000E00DF11D112440835183628373830895B4
:101DF0004F925F926F927F92AF92BF92CF92DF929B
:101E0000EF92FF920F931F93CF93DF9300D000D0F8
:101E1000CDB7DEB7082FA62E69017A01AE014F5F5C
:101E20005F4FC701B6010E9417332B013C01898126
:101E30009A81AB81BC81BC01CD019F770E94743136
:101E4000B62E172F2AE939E949E15FE3C301B20150
:101E50000E944B3320E030E543EC57E40E944B33C3
:101E60009F770E9474313B011170A11002C090E075
:101E700001C090E2192B20E030E0A901C701B601B2
:101E80000E94F130881F8827881F8295880F880F4D
:101E9000807C712F782BA3016B2D802F0F900F90DA
:101EA0000F900F90DF91CF911F910F91FF90EF90C6
:101EB000DF90CF90BF90AF907F906F905F904F90EA
:101EC0000C94DF0E8F929F92AF92BF92CF92DF92CF
:101ED000EF92FF928AEF0E94390C6115710520E89C
:101EE0008207910509F47CC04091DF055091E0051F
:101EF0004A01A12CB12CC72ED82EE92EFF24E7FCD5
:101F0000FA94C818D908EA08FB08DC01CB0137E0CD
:101F1000B595A795979587953A95D1F7B501A40101
:101F2000440F551F661F771F4C015D01841A950AE7
:101F3000A60AB70AA5019401A091E105B091E205B6
:101F40000E94BD354B015C01FBE0B594A7949794CA
:101F50008794FA95D1F7A7019601C701B6010E94AF
:101F600047359B01AC01ACE05595479537952795D2
:101F7000AA95D1F7A091E305B091E4050E94BD3583
:101F8000DC01CB012EE0B595A795979587952A950D
:101F9000D1F7A5019401280F391F4A1F5B1F209319
:101FA000D7053093D8054093D9055093DA05A5E0BD
:101FB000B0E00E94B235DC01CB0180589F4FAF4F9B
:101FC000BF4F692F7A2F8B2F992787FD9A950E94F3
:101FD000AB3120E030E048EC52E40E94FB3004C01A
:101FE00060E070E080EC9FE7FF90EF90DF90CF9093
:101FF000BF90AF909F908F9008952F923F924F92F5
:102000005F926F927F928F929F92AF92BF92CF9288
:10201000DF92EF92FF920F931F93CF93DF93CDB791
:10202000DEB7A2970FB6F894DEBF0FBECDBF0E94F9
:10203000620F87EF0E94390C6F83788789879A87B0
:10204000611571058048910509F4FDC18091D7059E
:102050009091D805A091D905B091DA056C017D0168
:10206000FF0CCC08DC2C76019C01AD016C2D7C2D85
:102070008C2D9C2D345F4140510961097109810902
:1020800091092AA339A349835A836B837C838D8367
:102090009E8359016A017B018C010E94C5352E8BFC
:1020A0003F8B488F598F6A8F7B8F8C8F9D8F80914C
:1020B000EF058E8F9091F0059B87A091ED05AF8F76
:1020C000B091EE05BC87E091EB05E8A3F091EC053B
:1020D000FD87B090E805A090E7051B2D110F110BAF
:1020E000C12ED12EE12EF12E012F2AA139A1498135
:1020F0005A816B817C818D819E810E94C5350CE067
:102100000E94F53619012A013B014C01B090EA0505
:10211000A090E9051B2D110F110BC12ED12EE12E20
:10212000F12E012F2E893F89488D598D6A8D7B8D27
:102130008C8D9D8D0E94C53508E00E940E3751019F
:102140006201730184010E942C3770588F4F9F4F9A
:102150002090E5053090E6055101C12CD12CE12CF1
:10216000F12C00E010E00E94C53501E20E940E371C
:102170002E873F87488B598B6A8B7B8B8C8B9D8BF3
:10218000A0E00E943E3709F463C1AE8C1B85110F9D
:10219000110BBB84C12ED12EE12EF12E012F2E89E1
:1021A0003F89488D598D6A8D7B8D8C8D9D8D0E94C8
:1021B000C53519012A013B014C01AF8C1C85110F5B
:1021C000110BBC84C12ED12EE12EF12E012F2AA19C
:1021D00039A149815A816B817C818D819E810E94C8
:1021E000C53501E10E94F53659016A017B018C0178
:1021F0009101A201B301C4010E942C3719012A01E7
:102200003B014C014F81588569857A8584E075953D
:102210006795579547958A95D1F780E090E0A0E1C2
:10222000B0E0841B950BA60BB70B6C017D01FF0C76
:10223000CC08DC2C76019C01AD016C2D7C2D8C2D05
:102240009C2D0FE10E94F536F901B42FA52F6C8368
:102250007D8389839A8328A19D85990F990B3D855C
:10226000492F592F692F792F892F03E20E94F536C4
:1022700059016A017B018C019101A201B301C401E2
:102280000E942C3759016A017B018C019F014B2F61
:102290005A2F6C817D8189819A810E94353749014D
:1022A000542E652EB62FA72FF82FE92F03E00E949A
:1022B000F5365401C52CD62CEB2EFA2E0F2F1E2FDF
:1022C0000E94353759016A017B01782E192F03E0EE
:1022D0000E94F536072D0E94353703E00E94F5363F
:1022E0005401C52CD62CEB2EFA2E0F2F1E2F0E9438
:1022F000353702E00E94F5360F2F0E94353701E096
:102300000E94F5360F2F0E943537AE84BF84C888EF
:10231000D988EA88FB880C891D890E9420362B8782
:102320003F8349835A836B837C838D839E830DE037
:102330000E940E37922E832E742E652E562E472E17
:10234000382E292E3091F6052091F505932F990FFF
:10235000990BA92CB82CC72CD62CE52CF42C032DCA
:10236000122D492F592F692F792F892F0E94C5359A
:102370000E94C53509E10E940E3759016A017B01AF
:102380008C012B853F8149815A816B817C818D81B4
:102390009E810E942C3719012A013B014C0130918A
:1023A000F4052091F305932F990F990BAB84BF800F
:1023B000C980DA80EB80FC800D811E81492F592F66
:1023C000692F792F892F0E94C53503E10E940E37AE
:1023D00059016A017B018C019101A201B301C40181
:1023E0000E942C3708E00E940E37522E632E742E66
:1023F000852E962EF72FE82FB92F3091F2052091D8
:10240000F105932F990F990B492F592F692F792F88
:10241000892F04E00E94F53659016A017B018C0185
:10242000252D362D472D582D692D7F2F8E2F9B2F33
:102430000E942C370E94A33120E030E040E85BE3AB
:102440000E944B3308C060E070E080EC9FE703C05F
:1024500060E070E0CB01A2960FB6F894DEBF0FBE2D
:10246000CDBFDF91CF911F910F91FF90EF90DF9043
:10247000CF90BF90AF909F908F907F906F905F9024
:102480004F903F902F9008958F929F92AF92BF925E
:10249000CF92DF92EF92FF928AEF0E94B60DE3E0B7
:1024A000F6E0458556854A01A12CB12CC72ED82EC1
:1024B000E92EFF24E7FCFA94C818D908EA08FB08BB
:1024C000DC01CB0137E0B595A795979587953A95AF
:1024D000D1F7B501A401440F551F661F771F4C01AA
:1024E0005D01841A950AA60AB70AA5019401A78579
:1024F000B0890E94BD354B015C013BE0B594A794C7
:10250000979487943A95D1F7A7019601C701B60130
:102510000E9447359B01AC016CE055954795379576
:1025200027956A95D1F7A189B2890E94BD35DC0152
:10253000CB017EE0B595A795979587957A95D1F7CC
:10254000A5019401280F391F4A1F5B1F258336837D
:1025500047835087A5E0B0E00E94B235DC01CB0193
:1025600080589F4FAF4FBF4F692F7A2F8B2F9927DE
:1025700087FD9A950E94AB3120E030E048EC52E4B0
:102580000E94FB30FF90EF90DF90CF90BF90AF9014
:102590009F908F9008952F923F924F925F926F92EB
:1025A0007F928F929F92AF92BF92CF92DF92EF92E3
:1025B000FF920F931F93CF93DF93CDB7DEB7A29710
:1025C0000FB6F894DEBF0FBECDBF0E94441287EF56
:1025D0000E94B60D6A8F7B8F8C8F9D8F809108062D
:1025E00090910906A0910A06B0910B066C017D013D
:1025F000FF0CCC08DC2C76019C01AD016C2D7C2DF0
:102600008C2D9C2D345F414051096109710981096C
:1026100091092AA339A349835A836B837C838D83D1
:102620009E8359016A017B018C010E94C5352A8B6A
:102630003B8B4C8B5D8B6E8B7F8B888F998F8091C2
:1026400020068E8FE0912106EF83F0911E06FF8F0A
:1026500080911F068887E0911C06E8A3F0911D0673
:10266000F987B0901906A09018061B2D110F110BB9
:10267000C12ED12EE12EF12E012F2AA139A149819F
:102680005A816B817C818D819E810E94C5350CE0D1
:102690000E94F53619012A013B014C01B0901B063E
:1026A000A0901A061B2D110F110BC12ED12EE12E59
:1026B000F12E012F2A893B894C895D896E897F899A
:1026C000888D998D0E94C53508E00E940E37510112
:1026D0006201730184010E942C3770588F4F9F4F05
:1026E00020901606309017065101C12CD12CE12CF8
:1026F000F12C00E010E00E94C53501E20E940E3787
:102700002A873B874C875D876E877F87888B998B6D
:10271000A0E00E943E3709F45EC1AE8C1F81110F0C
:10272000110BBF80C12ED12EE12EF12E012F2A894F
:102730003B894C895D896E897F89888D998D0E943E
:10274000C53519012A013B014C01AF8C1885110FC9
:10275000110BB884C12ED12EE12EF12E012F2AA10A
:1027600039A149815A816B817C818D819E810E9432
:10277000C53501E10E94F53659016A017B018C01E2
:102780009101A201B301C4010E942C3719012A0151
:102790003B014C014A8D5B8D6C8D7D8D84E0759580
:1027A0006795579547958A95D1F780E090E0A0E12D
:1027B000B0E0841B950BA60BB70B6C017D01FF0CE1
:1027C000CC08DC2C76019C01AD016C2D7C2D8C2D70
:1027D0009C2D0FE10E94F536F901B42FA52F6C83D3
:1027E0007D8389839A8328A19985990F990B3985CF
:1027F000492F592F692F792F892F03E20E94F5362F
:1028000059016A017B018C019101A201B301C4014C
:102810000E942C3759016A017B018C019F014B2FCB
:102820005A2F6C817D8189819A810E9435374901B7
:10283000542E652EB62FA72FF82FE92F03E00E9404
:10284000F5365401C52CD62CEB2EFA2E0F2F1E2F49
:102850000E94353759016A017B01782E192F03E058
:102860000E94F536072D0E94353703E00E94F536A9
:102870005401C52CD62CEB2EFA2E0F2F1E2F0E94A2
:10288000353702E00E94F5360F2F0E94353701E000
:102890000E94F5360F2F0E943537AA84BB84CC8462
:1028A000DD84EE84FF84088919890E9420362887F8
:1028B0003F8349835A836B837C838D839E830DE0A2
:1028C0000E940E37922E832E742E652E562E472E82
:1028D000382E292E3091270620912606932F990F06
:1028E000990BA92CB82CC72CD62CE52CF42C032D35
:1028F000122D492F592F692F792F892F0E94C53505
:102900000E94C53509E10E940E3759016A017B0119
:102910008C0128853F8149815A816B817C818D8121
:102920009E810E942C3719012A013B014C013091F4
:10293000250620912406932F990F990BA884BF8018
:10294000C980DA80EB80FC800D811E81492F592FD0
:10295000692F792F892F0E94C53503E10E940E3718
:1029600059016A017B018C019101A201B301C401EB
:102970000E942C3708E00E940E37522E632E742ED0
:10298000852E962EF72FE82FB92F30912306209110
:102990002206932F990F990B492F592F692F792FC1
:1029A000892F04E00E94F53659016A017B018C01F0
:1029B000252D362D472D582D692D7F2F8E2F9B2F9E
:1029C0000E942C370E94A33120E030E040E85BE316
:1029D0000E944B3303C060E070E0CB01A2960FB6BB
:1029E000F894DEBF0FBECDBFDF91CF911F910F9145
:1029F000FF90EF90DF90CF90BF90AF909F908F901F
:102A00007F906F905F904F903F902F900895FF922E
:102A10000F931F93CF93DF93CDB7DEB76E970FB6AB
:102A2000F894DEBF0FBECDBF10927D0410927C04DF
:102A3000909379048093780480E2E0E8F4E0DF0189
:102A40001D928A95E9F7F12C00E010E0609178047E
:102A500070917904600F711F4EE150E0CE01019634
:102A60000E94DE2FE981EE23B1F0E03220F4F0E0A5
:102A7000E25AFB4FF2A280917C0490917D04019672
:102A800090937D0480937C04025E1F4FF394003C7E
:102A9000B3E01B07D9F66E960FB6F894DEBF0FBEF3
:102AA000CDBFDF91CF911F910F91FF9008956115D8
:102AB0007105D1F0019719F4E6EDF4E002C0E6ECFF
:102AC000F4E0DB019F01205F3F4F80E040E29D91F9
:102AD000992321F0811102C0908302C0408381E0DC
:102AE0003196E217F30799F708952F923F924F928C
:102AF0005F926F927F929F92AF92BF92CF92DF923E
:102B0000EF92FF920F931F93CF93DF93CDB7DEB772
:102B1000A1970FB6F894DEBF0FBECDBF811118C0CC
:102B20001092A8041092AE0410917704812F880FA0
:102B3000880F880F8093AF04412F50E063E674E064
:102B400080EB94E00E94B238BAE09B2E910EA8C1AF
:102B5000282F269530E040917C0450917D04421747
:102B600053070CF473C080FD71C000E010E0CC246A
:102B7000CA94DC2C760180917C0490917D04081726
:102B800019070CF061C020917F04622F70E01B8256
:102B9000CC82DD82EE82FF821D8E1E8E1F8E18A2D9
:102BA00019A2FB01A3E0F595E795AA95E1F7E05698
:102BB000FB4F808190E0277002C0959587952A95FC
:102BC000E2F7817099278887892B31F04EE554E030
:102BD000CE0101960E94760B80917F048F5F8093D7
:102BE0007F0490E020917C0430917D04821793074C
:102BF00014F010927F048885882319F11092A8049C
:102C00008B818093AE048D8D28E0829FC0011124BA
:102C10009E8D892B8093AF0480E02AE0280FE9E0A5
:102C2000F0E0EC0FFD1FE80FF11D9081992339F0C2
:102C30008F5FE22FF0E0EA55FB4F9083EECF922EAC
:102C40002FC10F5F1F4F97CF912C2AC180E4809333
:102C5000A80400E010E058E0952ECC24CA94DC2CA7
:102C600076017AE1672E712C20917E04622F70E04C
:102C70001B82CC82DD82EE82FF821D8E1E8E1F8E15
:102C800018A219A2FB0143E0F595E7954A95E1F7F3
:102C9000E056FB4F808190E0277002C095958795A4
:102CA0002A95E2F7817099278887892B31F04EE5C4
:102CB00054E0CE0101960E94760B80917E048F5FD6
:102CC00080937E0490E0A0907C04B0907D048A15EF
:102CD0009B0514F010927E048885882309F4D0C0E7
:102CE0008C819D81AE81BF818F3F5FEF9507A507E6
:102CF000B50709F4C5C03B81692D70E04F8D51E0E7
:102D0000590D303168F06A557B4F242F2F70FB012D
:102D1000208322E0290DE52FF0E0EA55FB4F0BC0A0
:102D2000252F6A557B4F50E1359FF0011124342F38
:102D30003F703E2BFB01308369A170E030E04430EE
:102D4000B9F128F4442369F04130D9F095C04830F6
:102D500009F466C0493009F480C0453009F08CC0E0
:102D600042C0482F4F71B7FD02C080E001C080E82B
:102D7000F901EA55FB4F842B98A1892B808381E0D0
:102D80007CC0F901EA55FB4F8083A9014F5F5F4F7B
:102D9000E92FEF71B7FD02C080E001C080E8DA01E1
:102DA000AA55BB4F8E2B98A1892B8C9382E065C0CE
:102DB000A901425A5B4FFA01E85BFF4F80833196CD
:102DC0009083A9014E5F5F4FEA2FEF71B7FD02C0FC
:102DD00080E001C080E8DA01AA55BB4F8E2B98A194
:102DE000892B8C931BC0A901425A5B4FFA01E85B07
:102DF000FF4F808331969083A9014E5F5F4F1D0185
:102E0000552437FC5094452CB7FD02C080E001C02A
:102E100080E8FA01EA55FB4F282A208283E02DC082
:102E2000A901425A5B4FFA01E85BFF4F808331965C
:102E300090833196A083A9014D5F5F4FEB2FEF7117
:102E4000B7FD02C080E001C080E8DA01AA55BB4F9F
:102E50008E2B98A1892B8C930DC0A901425A5B4FF0
:102E6000FA01E85BFF4F8083319690833196A0830F
:102E70003196B08384E001C080E0982E920E02C0AB
:102E800060E070E00F5F1F4F0A151B054CF4892DA1
:102E900090E09301261B370B821793070CF4E4CEC6
:102EA0008EE78093A6048FE28093A7048091A80404
:102EB0009EEF990D892B8093A80489E08093A90443
:102EC00084EA8093AA048091E8048093AB04809103
:102ED000E9048093AC041092AD04292D30E0E8EAB7
:102EE000F4E080E092E09E1B57E0492F4E0F491519
:102EF00060F44191842748E087FF03C0880F85274D
:102F000001C0880F4150C1F7F0CFF901EA55FB4FDE
:102F100080838091A4049091A504DC01ED91FC9143
:102F20000280F381E02D40E06EE7099511E09116F3
:102F300098F08091A4049091A504DC01ED91FC919E
:102F4000A12FB0E0AA55BB4F0280F381E02D41E0F4
:102F50006C9109951F5FEBCFA1960FB6F894DEBF79
:102F60000FBECDBFDF91CF911F910F91FF90EF90DA
:102F7000DF90CF90BF90AF909F907F906F905F90C9
:102F80004F903F902F900895CF93DF938091A404AA
:102F90009091A504DC01ED91FC910280F381E02D7C
:102FA00040E06EEF09958091C604882311F1C6ECCC
:102FB000D4E08091A4049091A5046991DC01ED9185
:102FC000FC910280F381E02D41E00995B4E0C63E1A
:102FD000DB0779F78091A4049091A504DC01ED91C1
:102FE000FC910280F381E02D40E06FEFDF91CF9103
:102FF0000994C0E2D0E08091A4049091A504DC0182
:10300000ED91FC910280F381E02D41E060E00995B3
:10301000219789F7DFCFCF92DF92EF92FF92CF9384
:10302000DF93EC0180E2E6EAF4E0DF011D928A958D
:10303000E9F740E250E060E270E086EC94E00E9444
:10304000BB3843E150E06AE972E083E694E00E9415
:10305000D23883E08093770480917C0490917D0442
:10306000892B19F4CE010E940715C0917C04D091E0
:103070007D04C13CBFE1DB0730F4CE01880F991F0E
:10308000880F991F02C08FEF9FEF0E946D37FC01E0
:1030900020E030E04FEF5FEFBA012C173D0739F029
:1030A00041935193619371932F5F3F4FF6CF80937C
:1030B0007A0490937B0481E990E00E946D3721E9C6
:1030C000FC0111922A95E9F72BE231E0DC012D9306
:1030D0003C939093A5048093A4040E94EF05109262
:1030E000620410927F0410927E040E9470066B01AD
:1030F0007C01B0EDCB0EB7E0DB1EE11CF11C809132
:10310000780490917904892BF1F00E9470066C1577
:103110007D058E059F05B8F4C0E0D0E080917C0469
:1031200090917D048C179D0754F38C2F880F0E947B
:1031300075150E94C41766E970E080E090E00E9477
:1031400036062196EBCF8091A4049091A504DC0172
:10315000ED91FC910480F581E02D09958111F3CF6B
:10316000DF91CF91FF90EF90DF90CF900895CF93B4
:10317000C82FCB0120917C0430917D04232B21F4B6
:10318000009711F00E940715C032D0F4EC2FF0E048
:10319000E25AFB4F82A1E82FF0E093E0F595E79526
:1031A0009A95E1F7E056FB4F282F277081E090E0D9
:1031B00001C0880F2A95EAF7809590818923808342
:1031C0001092620410927F0410927E04CF910895B1
:1031D000EF92FF920F931F93CF93DF939091DE05B1
:1031E0009F3F39F48EBD00000DB407FEFDCF8EB5B4
:1031F00028C0D82F07E010E0C0E0EE24E394F12CC3
:10320000CC0F60E08091DE050E946E05B701002EB4
:1032100001C0660F0A94EAF76D238091DC050E94D5
:103220006E0561E08091DE050E946E058091DD05EE
:103230000E944505892B09F0C1600150110900F772
:103240008C2FDF91CF911F910F91FF90EF900895F8
:1032500091E090935104809348061092500410928C
:103260004F04089520914F0490914806213208F0B0
:103270004AC080912E048111FCCF32E030932E049D
:1032800031E030932D043FEF30932C0410922B0447
:1032900020932A04AFE2B4E04AE054E0FA013E2F62
:1032A000341B321718F43D913193F9CF1092090471
:1032B00020910904990F922B90930904909108048E
:1032C000913061F410920804909109049093BB002E
:1032D0009091BC0093FDF8CF95EC01C095EE9093D2
:1032E000BC0090912E049230E1F390912C049F3F0A
:1032F00079F080912C04803241F080912C0480334D
:1033000031F084E005C081E003C082E001C083E0C9
:103310001092500410924F04109251040895CF93CC
:10332000DF93D82FC62F8091DB058F3F91F48091DA
:10333000D2050E9428196D2F82E594E00E94320484
:103340006C2F82E594E00E943204DF91CF910C94BF
:1033500032198091DE058F3F21F481E590E00E94D3
:10336000FD0660E08091DB050E946E058D2F8F7752
:103370000E94E8188C2F0E94E81861E08091DB051C
:103380000E946E058091DE058F3F21F4DF91CF9181
:103390000C94FC06DF91CF91089590912E04911129
:1033A000FCCF91E090932E0490932D042FEF209367
:1033B0002C0410922B04260F20932A0490930904C6
:1033C00090910904880F892B809309048091080447
:1033D000813061F410920804809109048093BB004D
:1033E0008091BC0083FDF8CF85EC01C085EE809311
:1033F000BC0080912E048130E1F380912B0486176C
:1034000010F460912B04AAE0B4E028EE33E0F90157
:103410008E2F821B861718F48D918193F9CF862FFA
:10342000089587E70E94281964EF82E594E00E94DE
:1034300032046EE282E594E00E9432040E94321966
:1034400065E070E080E090E00E94360686EF0C9424
:10345000890E3F924F925F926F927F928F929F92CE
:10346000AF92BF92CF92DF92EF92FF920F931F9392
:10347000CF93DF93CDB7DEB728970FB6F894DEBFB2
:103480000FBECDBF0E94111A6C01E12CF12C1091DE
:1034900031061295110F110F107C1C5C87E70E94FA
:1034A000281964EF82E594E00E943204612F82E5DE
:1034B00094E00E9432040E943219809131068111F9
:1034C00005C065E070E080E090E012C0813029F432
:1034D00068E070E080E090E00BC0823029F46EE09C
:1034E00070E080E090E004C06AE170E080E090E08D
:1034F0000E94360686EF0E94890E4C01A12CB12C49
:10350000BA2CA92C982C882488EF0E94B90E882AFE
:10351000309031068091460690914706A7019601AA
:10352000281B390B41095109A0914406B091450669
:103530000E94B2356B017C01AFE0F594E794D7941B
:10354000C794AA95D1F760913E0670913F06CB01D2
:10355000770FAA0BBB0BBC01CD01BBE0660F771F39
:10356000881F991FBA95D1F72091400630914106E6
:103570008901330F220B330BA90198012C0D3D1D3E
:103580004E1D5F1D0E948D35C20ED31EE41EF51E1A
:1035900020EAC21A2FE0D20AE108F108A701960139
:1035A000C701B6010E9447359B01AC011CE055954F
:1035B0004795379527951A95D1F729833A834B83F9
:1035C0005C830091320610913306A0913606B091CB
:1035D0003706A70196010E94BD352B013C018DE005
:1035E00075946794579447948A95D1F7A0913806BB
:1035F000B091390629813A814B815C810E94BD35A9
:10360000BB2797FDB095AB2F840D951DA61DB71D4B
:103610000296A11DB11D32E0B595A79597958795A6
:103620003A95D1F79C01AD0130584F4F5F4FA091B3
:103630004206B09143060E94B2352B013C014FE097
:1036400076946794579447944A95D1F788E090E030
:1036500083199109A501940104C0569547953795A2
:1036600027958A95D2F72D833E834F83588748014B
:10367000110FAA08BB0852E0880C991CAA1CBB1C9D
:103680005A95D1F7A0913A06B0913B0629813A812B
:103690004B815C810E94BD359B01AC016BE055956F
:1036A0004795379527956A95D1F729833A834B83B8
:1036B0005C83A0913406B0913506A70196010E9463
:1036C000BD35DC01CB017BE0B595A7959795879536
:1036D0007A95D1F729813A814B815C81820F931FC2
:1036E000A41FB51F880D991DAA1DBB1D032C04C066
:1036F000880F991FAA1FBB1F0A94D2F7BC01CD01E6
:103700006E5F7F4F8F4F9F4F24E030E040E050E0EE
:103710000E948D358D819E81AF81B885821B930B70
:10372000A40BB50B9C01AD0180E593ECA0E0B0E0EB
:10373000BC01CD0104C096958795779567953A941D
:10374000D2F70E94473597FD0BC0660F771F881F81
:10375000991FA30192010E946B3569017A010AC089
:10376000A30192010E946B3569017A01CC0CDD1C2A
:10377000EE1CFF1C9927F7FC9A958F2D7E2D6D2D41
:103780009B01AC010E9447359B01AC01AEEDBBE053
:103790000E94B2354C01BB2497FCB094AB2CA3E43F
:1037A000B3EEA70196010E94C035BB2797FDB095E7
:1037B000AB2F880D991DAA1DBB1D8153914FAF4F93
:1037C000BF4F44E0B595A795979587954A95D1F752
:1037D000BC01CD016C0D7D1D8E1D9F1D28960FB661
:1037E000F894DEBF0FBECDBFDF91CF911F910F9137
:1037F000FF90EF90DF90CF90BF90AF909F908F9011
:103800007F906F905F904F903F900895CF93DF939C
:10381000CDB7DEB768970FB6F894DEBF0FBECDBF49
:10382000789484B5826084BD84B5816084BD85B59B
:10383000826085BD85B5816085BD80916E008160A7
:1038400080936E001092810080918100826080934D
:10385000810080918100816080938100809180004F
:103860008160809380008091B10084608093B1007A
:103870008091B00081608093B00080917A00846074
:1038800080937A0080917A00826080937A008091A0
:103890007A008E7F80937A0080917A00806880938E
:1038A0007A001092C1001092BD021092BC0201E099
:1038B00010E01093CD020093CC0281E08093CE0201
:1038C0001092AB021092AA0283E0809331060E940C
:1038D000500D80ED0E94B90E853511F00C943A2DF3
:1038E0008AEA0E94890E90933306809332068CEA0E
:1038F0000E94890E90933506809334068EEA0E94CA
:10390000890E909337068093360680EB0E94890ECD
:10391000909343068093420682EB0E94890E909317
:1039200045068093440684EB0E94890E90934706D7
:103930008093460686EB0E94890E90933906809309
:10394000380688EB0E94890E90933B0680933A06D6
:103950008AEB0E94890E90933D0680933C068CEB87
:103960000E94890E90933F0680933E068EEB0E9444
:10397000890E9093410680934006109302010093B4
:10398000010180E090E0A0E0BFE380930301909309
:103990000401A0930501B093060180930701909361
:1039A0000801A0930901B0930A0110920B01109233
:1039B0000C0110920D0110920E0104C188E80E94C2
:1039C0004A0D9093E0058093DF058AE80E944A0D36
:1039D0009093E2058093E1058CE80E944A0D909354
:1039E000E4058093E3058EE80E944A0D9093E60576
:1039F0008093E50580E90E944A0D9093E805809345
:103A0000E70582E90E944A0D9093EA058093E90553
:103A100084E90E944A0D9093EC058093EB0586E9BA
:103A20000E944A0D9093EE058093ED0588E90E946F
:103A30004A0D9093F0058093EF058AE90E944A0DA4
:103A40009093F2058093F1058CE90E944A0D9093C2
:103A5000F4058093F3058EE90E944A0D9093F605D4
:103A60008093F50581EA0E94B70C8093F70581EEFB
:103A70000E944A0D9093F9058093F80583EE0E9409
:103A8000B70C8093FA0584EE0E94B70C182F85EED0
:103A90000E94B70C282F2F7030E1139FC001112412
:103AA000822B9093FC058093FB0586EE0E94B70C59
:103AB000182F85EE0E94B70C90E054E095958795FD
:103AC0005A95E1F740E1149F90011124822B932B2A
:103AD0009093FE058093FD0587EE0E94B70C8093BE
:103AE000FF058DEE80930106809102068F71806A3A
:103AF0008093020680910006807C8093000665E03A
:103B000082EF0E948F1990910006692F677050E232
:103B1000659F90011124892F8695869586958770DB
:103B2000A8E08A9FB0011124622B732B97FB992781
:103B300090F9692B85EF0E948F1990910106692FEA
:103B40006770B0E26B9F90011124892F869586954E
:103B500086958770E8E08E9FB0011124622B732B4D
:103B60009295969596959370692B84EF0E948F1984
:103B700083E090E090930201809301018EEA97E444
:103B8000A1E6BFE38093030190930401A093050194
:103B9000B09306018AE999E9A9E1BEE380930701A0
:103BA00090930801A0930901B0930A0183E090E08B
:103BB000A0E0B0E080930B0190930C01A0930D0165
:103BC000B0930E0180E090E00E94FC2F8F3F29F01F
:103BD00090E09093BD028093BC0281E090E00E944F
:103BE000FC2F8F3F29F090E09093CD028093CC0280
:103BF00082E090E00E94FC2F8F3F31F091E0811134
:103C000001C090E09093CE0283E090E00E94FC2FF0
:103C10008F3F31F091E0811101C090E09093AB02B1
:103C200084E090E00E94FC2F8F3F31F091E0811101
:103C300001C090E09093AA02809197059091980519
:103C4000892BB9F48CE090E00E946D37FC0113825F
:103C5000128288EE93E0A0E0B0E084839583A6838F
:103C6000B78389E191E091838083F0939805E09395
:103C7000970510926F001092800081E88093810078
:103C800081E493E09093A7028093A60289E19EE1EC
:103C90009093A5028093A40262E088E00E949E05B2
:103CA00061E089E00E946E0561E089E00E949E0566
:103CB0001092A3021092A2021092A1021092A002EE
:103CC00010929F0210929E0280E286BB80936F004A
:103CD00068EE73E080E090E00E943606809101017A
:103CE00090910201892B51F468EA73E086E00E940A
:103CF000B7186AEA71E086E00E94B7188091CC029A
:103D00009091CD02019731F08091010190910201D3
:103D1000039751F068EA73E08EE00E94B7186AEAF0
:103D200071E08EE00E94B7188091CC029091CD0294
:103D3000019731F08091010190910201892BA1F44A
:103D400068EA73E08CE00E94B71868EA73E08DE0DF
:103D50000E94B7186AEA71E08CE00E94B7186AEA1C
:103D600071E08DE00E94B7188091CC029091CD0255
:103D7000892BF1F468EA73E081E00E94B71868EAE1
:103D800073E082E00E94B71868EA73E083E00E9463
:103D9000B7186AEA71E081E00E94B7186AEA71E038
:103DA00082E00E94B7186AEA71E083E00E94B718C7
:103DB0008091CC029091CD02892BD1F480910101A8
:103DC00090910201892BA1F468EA73E084E00E94DB
:103DD000B71868EA73E085E00E94B7186AEA71E0F4
:103DE00084E00E94B7186AEA71E085E00E94B71883
:103DF0008091CC029091CD02029791F168EA73E034
:103E000087E00E94B71868EA73E088E00E94B7185C
:103E100068EA73E089E00E94B71868EA73E08AE014
:103E20000E94B71868EA73E08BE00E94B7186AEA4C
:103E300071E087E00E94B7186AEA71E088E00E94AA
:103E4000B7186AEA71E089E00E94B7186AEA71E07F
:103E50008AE00E94B7186AEA71E08BE00E94B71806
:103E60008091AB0281110AC068EA73E08FE00E9482
:103E7000B7186AEA71E08FE00E94B7188091AA0231
:103E800081110AC068EA73E080E10E94B7186AEA0B
:103E900071E080E10E94B71886E78093E80482E32E
:103EA0008093E9042091BC023091BD028091770497
:103EB000232B51F4811104C088EA93E00E940B186F
:103EC00047E6242E312C66C18111FACF8AEA91E0AF
:103ED000F5CF8091010190910201009709F05CC13A
:103EE0008091CC029091CD02892B09F0D9C48091A8
:103EF000BC029091BD02019709F09EC06091D3026F
:103F00007091D4028091D5029091D6020E94AB317B
:103F10002FEB3EE04CE95EE30E94FB300E946D31E6
:103F20006093D3027093D4028093D5029093D6020B
:103F30006091CF027091D0028091D1029091D20213
:103F40000E94AB312FEB3EE04CE95EE30E94FB3078
:103F50000E946D316093CF027093D0028093D102A2
:103F60009093D2026091D7027091D8028091D902C9
:103F70009091DA020E94AB312FEB3EE04CE95EE318
:103F80000E94FB300E946D316093D7027093D8027B
:103F90008093D9029093DA026091B0027091B102DD
:103FA0008091B2029091B3020E94A93128E439EFC6
:103FB00041E550E40E944B330E9474316093B0029B
:103FC0007093B1028093B2029093B3026091F502B4
:103FD0007091F6028091F7029091F8020E94AB3145
:103FE0002DED38EE41EF5CE30E944B330E946D31C2
:103FF0006093F5027093F6028093F7029093F802B3
:104000006091EF027091F002072E000C880B990B63
:104010000E94AB3126E636E646EE5FE30E944B3364
:1040200020E030E040EA53E40E9413300E946D31FA
:104030007093F0026093EF024091D3025091D4024A
:104040006091D5027091D60284E00E94DF0E40910B
:10405000CF025091D0026091D1027091D20285E0DE
:104060000E94DF0E4091D7025091D8026091D90290
:104070007091DA0286E00E94DF0E4091B00250910A
:10408000B1026091B2027091B30287E00E94DF0E2C
:104090004091F5025091F6026091F7027091F8029A
:1040A0008CE00E94DF0E4091EF025091F002052E4D
:1040B000000C660B770B8DE00E94DF0E4091ED0245
:1040C0005091EE02052E000C660B770B8EE00E94DD
:1040D000DF0E8091AB02882369F080E00E941F060A
:1040E000B1010E945735AB01770F660B770B8FE05C
:1040F0000E94DF0E8091AA02882369F081E00E946D
:104100001F06B1010E945735AB01770F660B770B85
:1041100080E10E94DF0E8091A4049091A504DC014F
:10412000ED91FC910480F581E02D0995803E11F020
:104130000C94822B8091A8029091A902883091055D
:1041400044F401969093A9028093A802B1E0B09341
:1041500000018091000181110C94252CC0905E0417
:10416000D0905F04E0906004F090610426E9C20EF4
:10417000D11CE11CF11C0E9470066C157D058E059A
:104180009F0510F00C94A02CE0E0F0E0309709F4CB
:10419000A0CE099517E09DCE8230910509F49AC012
:1041A0008330910509F4E3C0019709F023C20E940E
:1041B000291A6093F5027093F6028093F7029093A8
:1041C000F8020E94291A0E94AB3120E836EE45EC35
:1041D00057E40E94FB3021E03EED42E45EE30E94A2
:1041E000B8339B01AC0160E070E080E89FE30E947F
:1041F000123020E03AE24DE257E40E944B3320E0D7
:1042000030E048EC52E40E944B330E946D316093E1
:10421000F1027093F2028093F3029093F4020E94F1
:10422000111AA0E0B0E040914606509147066C019B
:104230007D01C41AD50AE108F108A7019601A091F1
:104240004406B09145060E94B2356B017C018FE0B7
:10425000F594E794D794C7948A95D1F760913E0678
:1042600070913F06CB01770FAA0BBB0BBC01CD01B0
:104270002BE0660F771F881F991F2A95D1F7209191
:104280004006309141064901330FAA08BB08A70137
:104290009601280D391D4A1D5B1D0E948D35D701E1
:1042A000C601820F931FA41FB51F0896A11DB11D43
:1042B000BC01CD0134E095958795779567953A9542
:1042C000D1F70E94AB3120E030E040E251E40E949F
:1042D000FB3040C00E94CB120E946D316093F5020A
:1042E0007093F6028093F7029093F8020E94CB122B
:1042F00020E030E048EC52E40E94FB3020E030E562
:104300004DE754E40E94FB3021E03EED42E45EE3E1
:104310000E94B8339B01AC0160E070E080E89FE34D
:104320000E94123020E03AE24DE257E40E944B3303
:1043300020E030E048EC52E40E944B330E946D31A3
:104340006093F1027093F2028093F3029093F4026F
:104350000E94441220E030E040E251E40E944B33DE
:104360000E946D317093F0026093EF0243C10E948E
:10437000FD0F0E946D316093F5027093F6028093F9
:10438000F7029093F8020E94FD0F20E030E048EC25
:1043900052E40E94FB3020E030E54DE754E40E94F7
:1043A000FB3021E03EED42E45EE30E94B8339B0126
:1043B000AC0160E070E080E89FE30E94123020E0F2
:1043C0003AE24DE257E40E944B3320E030E048EC03
:1043D00052E40E944B330E946D316093F10270935E
:1043E000F2028093F3029093F4020E94620F20E0A5
:1043F00030E040E251E40E944B330E946D317093F3
:10440000F0026093EF020E94620F8DEF0E94F60CA3
:104410006C01E12CF12CC11420E8D206E104F10476
:1044200009F4D8C08090D7059090D805A090D90500
:10443000B090DA053CE2931A31E0A30AB1083EE0FD
:10444000CC0CDD1CEE1CFF1C3A95D1F72091FB052E
:104450003091FC05C901330FAA0BBB0B44E1880F57
:10446000991FAA1FBB1F4A95D1F7C81AD90AEA0A91
:10447000FB0AA091FD05B091FE05A50194010E94E3
:10448000BD35C61AD70AE80AF90A40E4D40EE11C81
:10449000F11C5FE0F594E794D794C7945A95D1F74F
:1044A000A091FF050A2E000CBB0BA50194010E94F0
:1044B000BD352B013C016AE075946794579447948D
:1044C0006A95D1F7A091FA05B0E00E94B235DC01FF
:1044D000CB017BE0B595A795979587957A95D1F710
:1044E000BC01CD0170588F4F9F4FA30192010E94D4
:1044F0004735DC01CB01EAE0B595A79597958795FF
:10450000EA95D1F79C01AD01405E5F4FA091F8059F
:10451000B091F9050E94BD35DC01CB01905EAF4F33
:10452000BF4FBC01CD01FEE09595879577956795C6
:10453000FA95D1F7A70196010E9447356B017C01DE
:10454000AFE09595879577956795AA95D1F79B01EB
:10455000AC010E9447359B01AC01B7E055954795EA
:1045600037952795BA95D1F7A091F705B0E00E944D
:10457000B235DC01CB0104E0B595A79597958795F9
:104580000A95D1F7C81AD90AEA0AFB0AF7FE03C04E
:10459000C12CD12C7601D701C60151E0C516D1043A
:1045A000E10459E1F50624F080E090E0A0E0B9E1F3
:1045B000BC01CD012CE095958795779567952A9557
:1045C000D1F70E94AB3120E030E040E85AE30E948E
:1045D0004B3304C060E070E080EC9FE720E030E007
:1045E00040E251E40E944B330E946D317093EE0221
:1045F0006093ED02C090EB02D090EC02DA82C982A7
:10460000960123313105C1F48091F1029091F202BB
:10461000A091F302B091F4028093E7029093E80234
:10462000A093E902B093EA021092E3021092E4022E
:104630001092E5021092E6020E9470064090DF029E
:104640005090E0026090E1027090E202DC01CB0148
:1046500084199509A609B70987399105A105B105FE
:1046600008F4C1C0C090F102D090F202E090F302D1
:10467000F090F4028091DB029091DC02A091DD02C7
:10468000B091DE02A7019601281B390B4A0B5B0B88
:10469000CA01B9010E94AB316D837E838F839887F5
:1046A0000E9470064B015C010E9470066093DF025D
:1046B0007093E0028093E1029093E202C092DB02E9
:1046C000D092DC02E092DD02F092DE02C501B4017C
:1046D00064197509860997090E94A9319B01AC01EB
:1046E00060E070E08AE794E40E94FB309B01AC013B
:1046F0006D817E818F8198850E944B330E946D3140
:104700000E94AB312B013C012091E3023091E40285
:104710004091E5025091E60260910301709104011D
:1047200080910501909106010E944B334B015C0181
:1047300020910701309108014091090150910A012F
:10474000C301B2010E944B339B01AC01C501B4010E
:104750000E9413306093E3027093E4028093E502B9
:104760009093E6020E946D31C0900B01D0900C0135
:10477000E0900D01F0900E01C616D706E806F90686
:104780007CF4AB01BC014C195D096E097F094093B3
:10479000D7025093D8026093D9027093DA0223C0F3
:1047A0008824992454018C189D08AE08BF08681508
:1047B00079058A059B057CF4DC01CB018C0D9D1DE0
:1047C000AE1DBF1D8093D7029093D802A093D9024B
:1047D000B093DA0208C01092D7021092D802109259
:1047E000D9021092DA028090F1029090F202A09029
:1047F000F302B090F4028091E7029091E802A09158
:10480000E902B091EA0275016401C81AD90AEA0AFC
:10481000FB0AC701B6012AE030E040E050E00E9408
:104820008D352093D3023093D4024093D502509318
:10483000D602C501B40124E630E040E050E00E9419
:104840008D352093CF023093D0024093D102509304
:10485000D20229813A81243131050CF041CB790112
:104860003FEFE31AF30AF092EC02E092EB021092AF
:10487000D7021092D8021092D9021092DA02109246
:10488000D3021092D4021092D5021092D602109246
:10489000CF021092D0021092D1021092D20220CBFD
:1048A0008091970590919805892B09F44DC48091CA
:1048B000970590919805DC01ED91FC910084F185BC
:1048C000E02D0995892B09F43FC4809197059091BB
:1048D0009805DC01ED91FC910284F385E02D0995AA
:1048E000082F8091870590918805A0918905B09146
:1048F0008A050196A11DB11D8093870590938805B7
:10490000A0938905B0938A05043209F4C6C2E091E8
:104910008105053234F40A3071F00D3009F0CBC254
:104920000AC00A3241F00C3209F0C5C280916E050E
:10493000802780936E05EF3008F083C1F0E0E059E6
:10494000FA4F108280916F05882309F47CC1209171
:1049500070053FEB320F822F022E000C990B363080
:1049600010F4C79707C02156263018F487559109CF
:1049700001C0C097282F2295207F309171054FEB01
:10498000430F832F032E000C990B463010F4C7976A
:1049900007C03156363018F48755910901C0C097C9
:1049A000820F90916E05891339C180919305909182
:1049B0009405A0919505B09196050196A11DB11D94
:1049C0008093930590939405A0939505B0939605D5
:1049D00080918205882399F080918B0590918C05B8
:1049E000A0918D05B0918E050196A11DB11D8093FA
:1049F0008B0590938C05A0938D05B0938E05F09058
:104A00007F05FF2009F46BC0B1E0FB12D4C0809198
:104A1000120590911305A0911405B091150580938E
:104A20000E0590930F05A0931005B09311050E94F9
:104A30007006609316057093170580931805909380
:104A40001905F0920D05F0920C05809120059091CA
:104A50002105A0912205B091230580931C05909318
:104A60001D05A0931E05B0931F050E94700660935C
:104A70002405709325058093260590932705F092D1
:104A80001B05F0921A0580918205882309F493C0D2
:104A9000EAEFF4E0ACEEB4E0812F01900D928A953C
:104AA000E1F7E1E0F5E0A3EFB4E0812F01900D9292
:104AB0008A95E1F70E9470066093080570930905D6
:104AC00080930A0590930B05F092EB04F092EA04B0
:104AD00088E295E00E94B80986E395E06AC080917B
:104AE000200590912105A0912205B0912305809386
:104AF0001C0590931D05A0931E05B0931F050E94F1
:104B00007006609324057093250580932605909385
:104B10002705E1E0E0931B05E0931A0580918205EB
:104B2000882329F1EAEFF4E0ACEEB4E0812F0190A4
:104B30000D928A95E1F7E1E0F5E0A3EFB4E0812F73
:104B400001900D928A95E1F70E9470066093080526
:104B50007093090580930A0590930B05F1E0F0939B
:104B6000EB04F093EA0484E495E00E94B809809194
:104B70005C0590915D05A0915E05B0915F05809305
:104B8000580590935905A0935A05B0935B050E9470
:104B90007006609354057093550580935605909365
:104BA0005705CC24C394C0925305C092520580E6A9
:104BB00095E00E94B809E0908505F0908605E11423
:104BC000F10409F458C1E0918505F091860566A1CC
:104BD00077A1D70196968D919C9197970E94C238A4
:104BE000892B09F048C1B701C70140960E94CB3814
:104BF0000E947006D70190966D937D938D939C9340
:104C00009397E1E09596EC939597F1E09496FC9359
:104C100094979A96ED90FC909B97D1CF80918F05B9
:104C200090919005A0919105B09192050196A11DDA
:104C3000B11D80938F0590939005A0939105B0933B
:104C4000920580E019C19091800591114CC065E6F4
:104C500071E080E795E00E94C238892B41F06BE655
:104C600071E080E795E00E94C238892B21F4B1E021
:104C7000B0937F0516C061E771E080E795E00E9480
:104C8000C238892B41F067E771E080E795E00E9428
:104C9000C238892B19F410927F0503C0E2E0E0933B
:104CA0007F0580918305909184059093860580937C
:104CB0008505E0908505F0908605E114F10409F47E
:104CC000C0CFF701C6A0D7A060E775E0C6010E947B
:104CD000C23897FD02C00C946D2ED7019A968D9123
:104CE0009C919B97E2CFE0917F05E23009F491C05F
:104CF00080917005882309F48CC020E2E29FF001C6
:104D00001124E92B3197E932F10508F082C0EC5CFF
:104D1000FF4F0C94AC3580E795E00E94570A6093F2
:104D2000200570932105809322059093230571C07F
:104D300091E0813409F043C043C06AEF74E009C0D8
:104D400091E0833509F090E09093000562C061E046
:104D500075E080E795E00E94CF095BC091E0873560
:104D600009F090E09093070554C080E795E00E9419
:104D7000570A6093320570933305809334059093FE
:104D8000350547C080E795E00E94570A60934005CB
:104D90007093410580934205909343053AC080E7A4
:104DA00095E00E94B72F60931205709313058093CE
:104DB0001405909315052DC091E081330CF490E01B
:104DC0009093820526C080E795E00E94B72F6093FC
:104DD0005C0570935D0580935E0590935F0519C037
:104DE00080E795E00E94570A60936A0570936B050F
:104DF00080936C0590936D050CC080E795E00E9450
:104E0000570A60934E0570934F0580935005909319
:104E10005105E0908505F0908605E114F10409F450
:104E200010CFE0918505F091860566A177A1F70185
:104E300086A197A10E94C238892B09F002CFD70121
:104E400098962D913C9199978091800590E08217DA
:104E500093070CF4F6CE2817390739F440E150E0F7
:104E600060E775E0C7010E94D238D7019A96ED90AD
:104E7000FC909B97D2CF81E0909180059F5F9093AB
:104E800080051092810591E00A3209F090E090933C
:104E90006F05882309F40BCD23C010928105109271
:104EA000800510926E05B2E0B0937F0510926F05F9
:104EB00010928205FCCCEE3040F481E08E0F80939E
:104EC0008105F0E0E059FA4F008380916F05811170
:104ED000EECC80916E05B02EB826B0926E05E7CC70
:104EE0001092EB046091EC047091ED0480E090E08E
:104EF0000E94A9316B017C016091EE047091EF0476
:104F00008091F0049091F1040E94A93128E23BE6DF
:104F10004EE65EE40E94FB309B01AC01C701B60186
:104F20000E9413302091F204DC01CB012111B05812
:104F30008093990590939A05A0939B05B0939C0547
:104F40006091F3047091F40480E090E00E94A93134
:104F50006B017C016091F5047091F6048091F70477
:104F60009091F8040E94A93128E23BE64EE65EE407
:104F70000E94FB309B01AC01C701B6010E941330B7
:104F80002091F904DC01CB012111B05880939D05DB
:104F900090939E05A0939F05B093A0058091EA048D
:104FA000882389F00E947006C0900805D0900905FA
:104FB000E0900A05F0900B05DC01CB018C199D09EE
:104FC000AE09BF0903C08FEF9FEFDC018093B905E5
:104FD0009093BA05A093BB05B093BC051092290528
:104FE00060912E0570912F058091300590913105CB
:104FF0000E94AB316B017C0126E53EE04DEE5FE3A4
:105000000E944B3320E030E048EC52E40E94FB3039
:105010000E946D316093A9057093AA058093AB053A
:105020009093AC052EEB3CE443E95FE3C701B60186
:105030000E944B3320E030E048EC52E40E94FB3009
:105040000E946D316093AD057093AE058093AF05FE
:105050009093B0051092450560914A0570914B05FB
:1050600080914C0590914D050E94AB316B017C0104
:1050700020E030E048EC52E40E94FB300E946D31A9
:105080006093A1057093A2058093A3059093A40556
:1050900028E439EF41E550E4C701B6010E944B33E3
:1050A00020E030E048EC52E40E94FB300E946D3179
:1050B0006093A5057093A6058093A7059093A80516
:1050C0001092370560913C0570913D0580913E0539
:1050D00090913F050E94AB3120E030E048EC52E473
:1050E0000E94FB300E946D316093B1057093B20550
:1050F0008093B3059093B405109261058091660585
:1051000090916705A0916805B09169058093B505F8
:105110009093B605A093B705B093B8058091EA04C3
:105120008093BD05109253058091580590915905C3
:10513000A0915A05B0915B058093BE059093BF0581
:10514000A093C005B093C1058091CB0281112AC004
:105150008091BD05882309F4BDC58091B905909162
:10516000BA05A091BB05B091BC05803D9740A10553
:10517000B1050CF0AFC5F1E0F093CB028091CA020B
:10518000811110C00E947006DC01CB0188579C4E33
:10519000AF4FBF4F8093C6029093C702A093C8023F
:1051A000B093C9028091CB02882309F42EC280906B
:1051B000990590909A05A0909B05B0909C058092CF
:1051C000C2029092C302A092C402B092C502C090E3
:1051D0009D05D0909E05E0909F05F090A005C0929F
:1051E000BE02D092BF02E092C002F092C102809152
:1051F000BC029091BD02892B49F44091A9055091C0
:10520000AA056091AB057091AC0508C04091AD0551
:105210005091AE056091AF057091B00583E00E949A
:10522000DF0E4091B1055091B2056091B3057091C8
:10523000B40588E00E94DF0E8091CA0281113DC052
:105240004090C6025090C7026090C8027090C90298
:10525000141415041604170484F50E9470064616EB
:1052600057066806790648F521E02093CA02809225
:10527000B8029092B902A092BA02B092BB02C09258
:10528000B402D092B502E092B602F092B7028091D9
:10529000010190910201892B81F48091A1059091E7
:1052A000A205A091A305B091A4058093E702909375
:1052B000E802A093E902B093EA024091A10550915F
:1052C000A2056091A3057091A4054093CF0250936D
:1052D000D0026093D1027093D2028091010190912B
:1052E0000201892BD1F48091E7029091E802A0910C
:1052F000E902B091EA029A01AB01281B390B4A0B73
:105300005B0BAAE0B0E00E94B2356093D3027093C9
:10531000D4028093D5029093D6028091CA0288234A
:1053200009F462C12091B4023091B5024091B602F5
:105330005091B70260919D0570919E0580919F05E7
:105340009091A0050E94123025E33AEF4EE85CE30D
:105350000E944B336B017C010E94083469877A8775
:105360008B879C87C701B6010E94F63069837A83D8
:105370008B839C8325E33AEF4EE85CE360919905CB
:1053800070919A0580919B0590919C050E944B33EA
:105390002B013C0125E33AEF4EE85CE36091B80253
:1053A0007091B9028091BA029091BB020E944B3376
:1053B0006B017C01C301B2010E9408344B015C0106
:1053C000C301B2010E94F6306D837E838F8398877C
:1053D000C701B6010E9408346D877E878F87988B3E
:1053E000C701B6010E94F6306B017C012D853E8518
:1053F0004F8558896D817E818F8198850E944B33BE
:10540000698B7A8B8B8B9C8BA7019601C501B401AC
:105410000E944B336D8B7E8B8F8B988F29813A81C5
:105420004B815C810E944B339B01AC0169897A8975
:105430008B899C890E9412309B01AC010E944B33E6
:105440002B013C0129853A854B855C85C701B60156
:105450000E944B339B01AC010E944B339B01AC017A
:10546000C301B2010E9413300E9416342B013C018B
:105470002D853E854F855889C501B4010E944B3367
:105480004B015C01A70196016D817E818F8198851A
:105490000E944B3329813A814B815C810E944B33BE
:1054A0009B01AC01C501B4010E9413309B01AC010A
:1054B000C301B2010E94923026E73BE742EC5AE476
:1054C0000E944B330E9474316B017C016093B002E7
:1054D0007093B1028093B2029093B3028091CE0296
:1054E0008823D1F16091D3027091D4028091D502CA
:1054F0009091D6022AE030E040E050E00E948D35E5
:10550000CA01B9010E94AB314B015C01C701B60170
:105510000E94A9316B017C01A5019401C501B40170
:105520000E944B334B015C01A7019601C701B601F4
:105530000E944B339B01AC01C501B4010E941330A2
:105540000E9416340E9474316093B0027093B102CD
:105550008093B2029093B30229813A814B815C819E
:1055600069897A898B899C890E944B339B01AC01A4
:105570006D897E898F89988D0E9412306B017C0124
:105580002D813E814F81588569857A858B859C85E3
:105590000E944B33A70196010E9492306B017C015F
:1055A00020E030E0A9010E94F13087FF0AC02BED16
:1055B0003FE049EC50E4C701B6010E9413306B0193
:1055C0007C0121EE3EE245E652E4C701B6010E94AD
:1055D0004B330E946D316093AC027093AD028093A7
:1055E000AE029093AF0253C01092B0021092B1027B
:1055F0001092B2021092B3021092AC021092AD025D
:105600001092AE021092AF0242C01092C2021092EB
:10561000C3021092C4021092C5021092BE021092F0
:10562000BF021092C0021092C102809101019091BC
:105630000201892B41F41092D3021092D4021092ED
:10564000D5021092D6021092CF021092D002109280
:10565000D1021092D2021092B0021092B1021092B6
:10566000B2021092B3021092AC021092AD021092EC
:10567000AE021092AF0240E050E0BA0183E00E9417
:10568000DF0E40E050E0BA0188E00E94DF0E20917A
:10569000C2023091C3024091C4025091C50260E041
:1056A00081E00E94F80E2091BE023091BF0240912D
:1056B000C0025091C10261E082E00E94F80E409168
:1056C000AC025091AD026091AE027091AF0289E0E0
:1056D0000E94DF0E4091BE055091BF056091C0054C
:1056E0007091C1058AE00E94DF0E4091B50550918E
:1056F000B6056091B7057091B8058BE00E94DF0E8A
:105700000C94771F803799F48091A8029091A90298
:105710001816190614F00C94A92001979093A90269
:105720008093A802E1E0E09300010C94A920803B63
:1057300011F00C94A920E091A802F091A9023197F0
:10574000E830F10508F07CC0E35AFF4F0C94AC350B
:10575000E0E0F0E009958091BC029091BD02892BB8
:1057600039F481E090E09093BD028093BC0268C060
:105770001092BD021092BC0263C08091CC02909145
:10578000CD02009719F481E090E005C081309105C9
:1057900039F482E090E09093CD028093CC0250C027
:1057A000029709F04DC01092CD021092CC0248C071
:1057B0008091CE02F1E08F278093CE0241C080918C
:1057C000AB02CC24C3948C258093AB0239C080916A
:1057D000AA02DD24D3948D258093AA0231C0609162
:1057E000BC0280E090E00E94210C6091CC0281E03C
:1057F00090E00E94210C6091CE0282E090E00E9435
:10580000210C6091AB0283E090E00E94210C60913A
:10581000AA0284E090E00E94210CE0E0F0E009950B
:10582000E12CF12C6FEFC7010E94210CFFEFEF1A62
:10583000FF0A2AE0E216F104A9F7E0E0F0E009959A
:10584000F1E0F09300010C94A920E091A802F091FE
:10585000A902E930F10508F06FC0EB59FF4F0C9435
:10586000AC356DE771E080E090E00E9457156DE87F
:1058700071E05EC062E971E080E090E00E9457153F
:1058800062EA71E055C08091BC029091BD02892B03
:1058900019F46EEA71E002C06EEB71E080E090E016
:1058A0000E9457156FEC71E043C08091CC0290913B
:1058B000CD02009719F46CED71E0F0CF81309105C5
:1058C00019F46AEE71E0EACF029761F765EF71E0D3
:1058D000E5CF8091CE02882319F063E072E0DECF3D
:1058E00064E172E0DBCF8091AB02882319F065E2BE
:1058F00072E0D4CF64E372E0D1CF8091AA02882312
:1059000019F064E472E0CACF63E572E0C7CF63E6E2
:1059100072E080E090E00E94571564E772E008C0F2
:105920006FE772E080E090E00E9457156EE872E049
:1059300081E090E00E945715109200010C94AE2077
:105940000E94700660935E0470935F04809360040D
:10595000909361048091E704882351F18091A4041D
:105960009091A504DC01ED91FC910280F381E02D82
:1059700040E06EE709958091A4049091A504DC01B4
:10598000ED91FC910280F381E02D41E061E9099500
:105990008091A4049091A504DC01ED91FC9102801A
:1059A000F381E02D41E061E309951092E7045EC0C8
:1059B000F090E604FF2009F44BC0CF2C0F2C000C14
:1059C000DD08C6010E94A338892B31F0C6010E9470
:1059D000AA38F82E00E001C001E08091A404909163
:1059E000A504DC01ED91FC910280F381E02D40E003
:1059F0006EE709958091A4049091A504DC01ED91D6
:105A0000FC910280F381E02D41E062E009958091F4
:105A1000A4049091A504DC01ED91FC910280F38136
:105A2000E02D011102C062E201C063E241E009958C
:105A30008091A4049091A504DC01ED91FC91028079
:105A4000F381E02D41E06F2D09951092E6040EC020
:105A50008091780490917904892B41F080916204BF
:105A600091E0980F909362040E9475150E94C417EC
:105A70000C94C42086E78093030680910C068F3F28
:105A800019F40E94500D1CC061E00E946E0561E097
:105A900080910C060E949E0580910F068F3F19F49D
:105AA0000E94C6060DC061E00E949E0561E08091E3
:105AB0000D060E949E0560E080910E060E949E05E4
:105AC00080910C068F3FB1F4809103060E94281943
:105AD00060ED82E594E00E9432040E94321961E098
