:100000000C94BB020C94E3020C94E3020C94E30204
:100010000C94E3020C94E3020C94E3020C94E302CC
:100020000C94E3020C94E3020C9445060C94EF0646
:100030000C94FE050C94E3020C94E3020C94E3028E
:100040000C94B4050C94E3020C94970A0C94D30A14
:100050000C942E0B0C94E3020C94E3020C94E30238
:100060000C9469090C94E302762288228B22922256
:100070009922C722CE22DB22E822F422F422F422A3
:10008000F422F422F422F422F422F422F422F422C0
:10009000F422F422F422F422F422F422F422F422B0
:1000A000F422F422F422F4227622832288228B2264
:1000B00092229922A022AD22BA227628782883287B
:1000C0004A298928AD28D1284A294A294A294A2972
:1000D000EB283B296D2976297F298F29A429C82956
:1000E000E229162A582A582A582A582A432A4C2ADA
:1000F0007A2A842A8E2A982AA22AAC2AB62AC02AC8
:10010000CA2AD42ADE2AE82AF22A084AD73B3BCE5A
:10011000016E84BCBFFDC12F3D6C74319ABD568306
:100120003DDA3D00C77F11BED9E4BB4C3E916BAABE
:10013000AABE000000803F05A84CCDB2D44EB9380D
:1001400036A9020C50B9918688083CA6AAAA2ABEF4
:10015000000000803F07634236B79BD8A71A396872
:100160005618AEBAAB558C1D3CB7CC5763BD6DED80
:10017000FD753EF6177231BF000000803F08000099
:1001800000BE922449123EABAAAA2ABECDCCCC4CCA
:100190003E00000080BEABAAAAAA3E00000000BF3D
:1001A000000000803F0000000000084178D3BB43FE
:1001B00087D1133D190E3CC3BD4282AD2B3E68EC86
:1001C0008276BED98FE1A93E4C80EFFFBE01C4FF0D
:1001D0007F3F00000000000000010203000000005B
:1001E000240027002A0000000000250028002B0022
:1001F00004040404040404040202020202020303CD
:1002000003030303010204081020408001020408D4
:100210001020010204081020000000080002010064
:10022000000304070000000000000000014C61749E
:1002300069747564650000000000000000000000A3
:1002400000200000000000000900024C6F6E67698A
:1002500074756465000000000000000000000020CC
:100260000000000000000900035370656564000091
:10027000000000000000000000000000006B6D2F77
:100280006800000001000452656C2E20416C746906
:1002900074000000000000000000006D000000007D
:1002A0000000010105416C7469747564650000000B
:1002B0000000000000000000006D000000000000D1
:1002C000010006566172696F000000000000000026
:1002D000000000000000006D2F7300000000080205
:1002E0000744697374616E636500000000000000DC
:1002F00000000000006D0000000000000100085434
:1003000072697000000000000000000000000000A2
:100310000000006B6D0000000000010209486561EB
:1003200064696E670000000000000000000000002B
:1003300000B000000000000001000A436F757273F6
:10034000650000000000000000000000000000B098
:1003500000000000000001000B536174656C6C69C3
:100360007465730000000000000000000020000021
:100370000000000000000C48444F50000000000046
:10038000000000000000000000000020000000004D
:10039000000001020D5072657373757265000000F4
:1003A0000000000000000000006850610000000034
:1003B00008020E54656D7065726174757265000097
:1003C00000000000000000B0430000000000010138
:1003D0000F48756D696469747900000000000000C1
:1003E00000000000002572480000000001011056C6
:1003F0006F6C746167653100000000000000000050
:1004000000000056000000000000010211566F6C51
:100410007461676532000000000000000000000009
:100420000056000000000000010212566F6C74615B
:100430006765330000000000000000000000005667
:10044000000000000000010213566F6C74616765C4
:100450003400000000000000000000000056000012
:100460000000000001021443757272656E74310061
:10047000000000000000000000000041000000003B
:10048000000001011543757272656E743200000040
:10049000000000000000000000410000000000001B
:1004A00001011643757272656E743300000000001E
:1004B00000000000000000410000000000000101F9
:1004C0001743757272656E743400000000000000FE
:1004D000000000000041000000000000010118437E
:1004E00061706163697479310000000000000000F0
:1004F0000000006D416800000000040019436170B5
:10050000616369747932000000000000000000009F
:10051000006D41680000000004001A4361706163CF
:100520006974793300000000000000000000006DD5
:1005300041680000000004001B436170616369743E
:10054000793400000000000000000000006D4168E8
:100550000000000004000000000000000000000097
:10056000000000000000000000000000000000008B
:1005700000000000622C11241FBECFEFD8E0DEBFC8
:10058000CDBF13E0A0E0B1E0E4E4F3E702C00590E2
:100590000D92AE35B107D9F727E0AEE5B3E001C063
:1005A0001D92AE31B207E1F712E0CBEBD2E004C00E
:1005B0002197FE010E949533CA3BD107C9F70E94DB
:1005C00011160C94A0390C940000CF92DF92EF9298
:1005D000FF920F931F93CF93DF936C017A018B01EE
:1005E000C0E0D0E0CE15DF0589F0D8016D918D0116
:1005F000D601ED91FC910190F081E02DC6010995A5
:10060000892B11F47E0102C02196ECCFC701DF9146
:10061000CF911F910F91FF90EF90DF90CF900895B1
:100620003FB7F8948091AF049091B004A091B104C9
:10063000B091B20426B5A89B05C02F3F19F00196D2
:10064000A11DB11D3FBFBA2FA92F982F8827820F58
:10065000911DA11DB11DBC01CD0142E0660F771FA8
:10066000881F991F4A95D1F70895509162034091D0
:100670006103852F90E0242F30E0541710F4805B45
:100680009F4F821B930B089580916203E091610359
:100690008E1751F0EF5FE03508F0E0E0F0E0E65A49
:1006A000FB4F808190E008958FEF9FEF0895809138
:1006B000620390916103891769F09F5F903508F09C
:1006C00090E0E92FF0E0E65AFB4F808190936103C0
:1006D00090E008958FEF9FEF08958091600381115E
:1006E000FCCF089580915F038F5F843408F080E031
:1006F00090915E039817E1F32FB7F89490916003FF
:10070000992341F0E82FF0E0E05FFB4F6083809396
:100710005F031DC081E080936003609355041092D5
:10072000540482E086BB80916F00826080936F00EA
:10073000809180008F738068809380008091840016
:1007400090918500409690938900809388002FBFF8
:1007500081E090E0089585ED8093BC008091BC001D
:1007600084FDFCCF1092FB0408954091EB03262FEB
:1007700030E0240F311D21323105DCF42091FB04DF
:100780002430C9F4FC0180E090E0861758F43091E1
:10079000EB032191DC01A753BC4FA30FB11D2C9398
:1007A0000196F3CF8091EB03680F6093EB0380E039
:1007B000089581E0089582E008950895E091B404D9
:1007C0008091B304E81730F4F0E0EB54FB4F8081E4
:1007D00090E008958FEF9FEF08959091B404809179
:1007E000B304981750F4E92FF0E0EB54FB4F20814D
:1007F00030E09F5F9093B40402C02FEF3FEFC90138
:1008000008958091B30490E02091B404821B910973
:100810000895CF92DF92EF92FF920F931F93CF93A1
:10082000DF937C01262F972F8A018091FC04882377
:1008300091F0C62FD72F6E01C40ED51ECC15DD0545
:1008400071F06991D701ED91FC910190F081E02D5B
:10085000C7010995F3CF642F822F0E94B503C80109
:10086000DF91CF911F910F91FF90EF90DF90CF908C
:100870000895CF93DF931F92CDB7DEB769832091A0
:10088000FC042223D1F020911E05203240F021E00B
:1008900030E0FC013383228380E090E015C080913A
:1008A000FD04E82FF0E0E250FB4F998190838F5FC9
:1008B0008093FD0480931E0505C061E0CE01019682
:1008C0000E94B50381E090E00F90DF91CF910895F1
:1008D000089580E090E008951F93CF93DF93F894FC
:1008E000EC01CA57DF4F2881203400F5DC01AE57F8
:1008F000BF4F1C9111965C91119770E0411103C09C
:1009000020E030E002C020E031E0622B732BE12FC9
:10091000F52F71836083329628812F5F2883EA1731
:10092000FB0710F0FC013296ED93FC93FC01E057BD
:10093000FF4F8081811108C081E080838091C100D8
:100940008F7688628093C1007894DF91CF911F9158
:100950000895FC01E157FF4F2081222301F1F89413
:10096000A091C703B091C803A357BF4F0D90BC918E
:10097000A02D4C91208121502083329720813181FC
:100980002F5F3F4FBC0165577F4F2617370718F081
:100990009C0129573F4F31832083789401C040E068
:1009A000842F0895089508950E94B536CF93DF935C
:1009B00090E0FC01EC5FFD4F2491FC01E051FE4F03
:1009C0008491882361F190E0880F991FFC01E45223
:1009D000FE4FC591D491FC01EA51FE4FA591B4910F
:1009E000611109C09FB7F89488812095822388837C
:1009F000EC912E230BC0623061F49FB7F8943881DC
:100A0000822F809583238883EC912E2B2C939FBF7C
:100A100006C08FB7F894E8812E2B28838FBFDF9113
:100A2000CF9108951092C0008CE08093C10086E3BE
:100A30008093C2001092C50086E68093C40062E0F5
:100A400080E00E94D60462E081E00C94D604CF934B
:100A5000DF93EC010E941205FE01329680E8DF016F
:100A60001D928A95E9F7DE01AE57BF4F1196FC93B0
:100A7000EE9312961196FC93EE93EC57FF4F108273
:100A80003196108211821282138217961196FC936E
:100A9000EE931296ED93FC93389610823196108265
:100AA000D093C803C093C703DF91CF9108958E30D0
:100AB00008F08E508770806480937C0080917A006B
:100AC000806480937A0080917A0086FDFCCF8091CB
:100AD00078002091790090E0922B08958F929F9258
:100AE000AF92BF92CF92DF92EF92FF926B017C01A7
:100AF0000E9410034B015C01C114D104E104F10414
:100B0000F1F00E941003DC01CB0188199909AA09B0
:100B1000BB09883E9340A105B10570F321E0C21ADC
:100B2000D108E108F10888EE880E83E0981EA11C28
:100B3000B11CC114D104E104F10419F7DDCFFF9019
:100B4000EF90DF90CF90BF90AF909F908F900895DF
:100B50002FB7F8946091AB047091AC048091AD0410
:100B60009091AE042FBF08951F920F920FB60F926F
:100B700011242F933F938F939F93AF93BF938091B3
:100B8000AB049091AC04A091AD04B091AE0430914F
:100B9000AA0423E0230F2D3720F40196A11DB11DD7
:100BA00005C026E8230F0296A11DB11D2093AA04BB
:100BB0008093AB049093AC04A093AD04B093AE04C7
:100BC0008091AF049091B004A091B104B091B204AF
:100BD0000196A11DB11D8093AF049093B004A09322
:100BE000B104B093B204BF91AF919F918F913F91A7
:100BF0002F910F900FBE0F901F9018951F920F927C
:100C00000FB60F9211242F938F939F93EF93FF931F
:100C100080916F008B7F80936F00809181008F7B2C
:100C20008093810080916303209159042058909112
:100C30005804893020F49695922B8F5FFACF9093C9
:100C40005804809162038F5F803508F080E0209126
:100C50006103821739F0E82FF0E0E65AFB4F9083EA
:100C60008093620310926303809181008F7B809355
:100C7000810010925904FF91EF919F918F912F91D4
:100C80000F900FBE0F901F9018951F920F920FB6E6
:100C90000F9211242F933F934F935F936F937F9302
:100CA0008F939F93AF93BF93EF93FF9380918600B1
:100CB000909187004091590420918100442331F0A4
:100CC0002F7B209381001092590406C0206420934A
:100CD000810020E82093590430916303311125C02D
:100CE00041116CC02091640330916503280F391FB6
:100CF00030938B0020938A0024E026BB20916F0064
:100D0000246020936F002091660330916703820F67
:100D1000931F36952795820F931F909357048093C6
:100D2000560481E08093630349C04091560450917A
:100D300057046091660370916703DB01A095B0953D
:100D400020915804E0915904841B950BA817B9070A
:100D500068F126952E2B460F571F3F5F861B970B7A
:100D60003930A0F32093580480916F008B7F8093DB
:100D70006F00809162038F5F803508F080E0909172
:100D80006103891749F0E82FF0E090915804E65A82
:100D9000FB4F908380936203809181008F7B8093CF
:100DA0008100109259041092630308C020935804E4
:100DB000509357044093560430936303FF91EF918F
:100DC000BF91AF919F918F917F916F915F914F9163
:100DD0003F912F910F900FBE0F901F9018951F926B
:100DE0000F920FB60F9211242F933F934F935F935F
:100DF0006F937F938F939F93EF93FF938091600303
:100E000060915504209188003091890040916603DB
:100E100050916703909154048A30F8F4240F351FE1
:100E2000893019F0762F717001C071E066958F5F7F
:100E3000791791F390918000772311F0906C02C0A4
:100E40009F7390689093800030938900209388006E
:100E500070935404609355044AC090915F03E091ED
:100E60005E039E1319C08A3051F48BE080936003B7
:100E7000240F351F30938900209388003AC01092C8
:100E80006003809180008F738093800080916F0059
:100E90008D7F80936F002DC0EF5FE43408F0E0E0B9
:100EA000E0935E03F0E0E05FFB4F90819093550488
:100EB00010925404909180009F73906890938000EA
:100EC0008A3059F48091660390916703280F391F87
:100ED000309389002093880009C08091840090910C
:100EE00085004096909389008093880081E08093EC
:100EF0006003FF91EF919F918F917F916F915F912F
:100F00004F913F912F910F900FBE0F901F9018950A
:100F1000CF93DF93EC018A859B85AC85BD858E835D
:100F20009F83A887B9870E94A8056A837B838C83E7
:100F30009D8381E089838883DF91CF9108954F92CB
:100F40005F926F927F928F929F92AF92BF92CF9259
:100F5000DF92EF92FF920F931F93CF93DF93CDB762
:100F6000DEB760970FB6F894DEBF0FBECDBF6983C2
:100F70007A838B839C83CA01B90127013801A601BA
:100F800095010E940A2E25E33AEF4EE85CE30E94A9
:100F900048316B017C010E9405326D877E878F8707
:100FA000988BC701B6010E94EE2E6D837E838F83DE
:100FB000988725E33AEF4EE85CE369817A818B817B
:100FC0009C810E9448316B017C0125E33AEF4EE899
:100FD0005CE3C301B2010E9448312B013C01C7010F
:100FE000B6010E9405324B015C01C701B6010E94A7
:100FF000EE2E69837A838B839C83C301B2010E94A6
:10100000053269877A878B879C87C301B2010E946A
:10101000EE2E6B017C0129853A854B855C856981C3
:101020007A818B819C810E9448312B013C01A70170
:101030009601C501B4010E9448312D813E814F8146
:1010400058850E9448319B01AC01C301B2010E9446
:101050000A2E9B01AC010E9448312B013C012D85D9
:101060003E854F855889C701B6010E9448319B01D2
:10107000AC010E9448319B01AC01C301B2010E9446
:101080000B2E0E9413322B013C0129853A854B859A
:101090005C85C501B4010E9448314B015C01A70188
:1010A000960169817A818B819C810E9448312D81D2
:1010B0003E814F8158850E9448319B01AC01C5019A
:1010C000B4010E940B2E9B01AC01C301B2010E942E
:1010D0008A2E26E73BE742EC5AE40E9448316096AC
:1010E0000FB6F894DEBF0FBECDBFDF91CF911F9139
:1010F0000F91FF90EF90DF90CF90BF90AF909F90B7
:101100008F907F906F905F904F9008952F923F92B5
:101110004F925F926F927F928F929F92AF92BF9207
:10112000CF92DF92EF92FF920F931F93CF93DF93B3
:10113000D82FC92F8B010E94AF2D24E630E040E06C
:1011400050E00E94543349015A019B01AC0160E810
:1011500076E988E990E00E9444336B017C01F80154
:1011600091828082ED2FFC2F2191822F022E000C84
:10117000990BC0970A97C0F32E3239F51F0180E80A
:10118000882E86E9982E88E9A82EB12C9AE0492E5F
:10119000512C612C712CF101C1911F010C2E000CFE
:1011A000DD0BE097CA30D10580F4C501B401A3017D
:1011B00092010E94543349015A01DE010E94A63374
:1011C000C60ED71EE81EF91EE6CFA5E0B0E0A701C7
:1011D00096010E949B336F5F7F4F8F4F9F4F23E09D
:1011E00030E040E050E00E945433F8012283338322
:1011F000448355831682DF91CF911F910F91FF9009
:10120000EF90DF90CF90BF90AF909F908F907F90A6
:101210006F905F904F903F902F900895FF920F93A3
:101220001F93CF93DF93EC01FF24F39488818D32D9
:1012300011F0F12C01C02196CE010E94AF2D9B012F
:10124000AC01A4E6B0E00E949B33FE014991242F3B
:10125000042E000C330B205331092A303105A8F33A
:101260004E3241F52181022E000C330B20533109FF
:101270002A303105F8F44AE0429F8001439F100D67
:101280001124012E000C220B330B600F711F821FE3
:10129000931F0281002E000C110B005311090A301C
:1012A000110540F4012E000C220B330B600F711F4F
:1012B000821F931FFF2039F090958095709561955E
:1012C0007F4F8F4F9F4FDF91CF911F910F91FF90D5
:1012D00008951F920F920FB60F9211242F933F93F0
:1012E0004F935F936F937F938F939F93AF93BF932E
:1012F000EF93FF938091B900887F803609F49CC0FA
:1013000068F5883209F45BC090F4803109F454C068
:1013100038F4882309F4F6C0883009F44DC0F6C0CB
:10132000883109F44CC0803209F45DC0EFC08034CC
:1013300009F468C048F4803309F455C0883309F0D3
:10134000E5C08093F904D8C0803509F44FC08835D2
:1013500009F45DC0883409F0D9C0D6C0883909F4D1
:10136000C7C0A8F4883709F467C038F4883609F490
:1013700063C0803709F460C0C9C0883809F4B8C0B8
:10138000803909F45FC0803809F0C0C05BC0803B81
:1013900009F486C038F4803A09F466C0883A09F442
:1013A0007FC0B4C0803C09F4A7C0883C09F4A4C045
:1013B000883B09F48AC0AAC08091D60410C09091DD
:1013C000F8048091F704981770F5E091F80481E033
:1013D0008E0F8093F804F0E0E952FB4F80818093F8
:1013E000BB0085EC86C08093F9048EC0E091F804C0
:1013F00081E08E0F8093F8048091BB00F0E0E95209
:10140000FB4F80839091F8048091F7046EC0E091C7
:10141000F80481E08E0F8093F8048091BB00F0E027
:10142000E952FB4F80838091FA0481116DC081E005
:101430008093D50484EA61C083E08093FB0410921A
:101440000F04CFCF80910F04803208F051C0E0919B
:101450000F0481E08E0F80930F048091BB00F0E0B9
:10146000E151FC4F8083BDCF85EC8093BC0010928E
:10147000FB0480910F04803230F4E0910F04F0E01F
:10148000E151FC4F108260910F0470E0E091ED0398
:10149000F091EE038FEE93E0099510920F0436C0A1
:1014A00084E08093FB041092EC031092EB03E09134
:1014B000E903F091EA0309958091EB03811105C0DE
:1014C00081E08093EB031092C903E091EC0381E08B
:1014D0008E0F8093EC03F0E0E753FC4F8081809304
:1014E000BB009091EC038091EB03981708F479CF3F
:1014F00085E88093BC000AC085EC8093BC00109204
:10150000FB0404C01092F9040E94AB03FF91EF9119
:10151000BF91AF919F918F917F916F915F914F910B
:101520003F912F910F900FBE0F901F9018951F9213
:101530000F920FB60F9211242F933F938F939F9387
:10154000AF93BF93EF93FF938091C600803FF1F07C
:10155000982F9F70D9F42091C7033091C803F901E7
:10156000E557FF4FA081B1818C93D901A157BF4F9F
:101570008C918F5F8C938081918101968E179F074C
:1015800018F0C90189579F4F91838083FF91EF9194
:10159000BF91AF919F918F913F912F910F900FBE6F
:1015A0000F901F9018951F920F920FB60F92112453
:1015B0002F933F934F935F938F939F93EF93FF935B
:1015C0008091C7039091C803FC01EA57FF4F208127
:1015D000222351F132970190F081E02D2081318159
:1015E0008091C10030FF02C0816001C08E7F809376
:1015F000C1002093C6002091C7033091C803F901B0
:10160000EA57FF4F8081815080833297808191819A
:101610000296A9014E575F4F8417950710F0C90134
:101620000296918380830DC08091C1008F7D80647C
:101630008093C100E091C703F091C803E057FF4FCA
:101640001082FF91EF919F918F915F914F913F9108
:101650002F910F900FBE0F901F9018951F920F9211
:101660000FB60F9211242F933F938F939F93EF9375
:10167000FF93E1ECF0E08081877B8069808380913B
:10168000C7039091C8039C0129573F4FFC01E557C0
:10169000FF4F31832083329631832083329610822C
:1016A000FF91EF919F918F913F912F910F900FBEDE
:1016B0000F901F901895CF92DF92EF92FF920F93A9
:1016C0001F93CF93DF93CDB7DEB76E970FB6F89425
:1016D000DEBF0FBECDBF8C017B016A012EE1269FCC
:1016E000C001279F900D1124DA015A966D917C91CB
:1016F0005B97680F791F4EE150E0CE0101960E9482
:10170000D62D8D8DF801868F89818283EE0CFF1C8A
:10171000EE0CFF1CD6015C96ED91FC915D97EE0DF1
:10172000FF1D80819181A281B381F801838394831D
:10173000A583B683A801485F5F4FFE013296DA01A8
:1017400090E08191811106C0392FD8015C969C935D
:10175000232F0FC0933119F09F5F8D93F2CF33E1A8
:10176000F4CF8331910594F4FA01E80FF91F7083E7
:101770002F5F622F631BE1E0F0E0EC0FFD1FE60F2F
:10178000F11D7589822F90E07111EBCFF801658F03
:10179000FA01E80FF91F10828E8D813031F082300E
:1017A00041F480E4F801878F04C080E2D8015F969D
:1017B0008C93D8015E968C91843091F030F488231C
:1017C00061F08130A1F483E00FC0883041F08930AE
:1017D00051F0853061F484E007C082E001C085E00B
:1017E000F80180A304C085E0D80190968C936E9692
:1017F0000FB6F894DEBF0FBECDBFDF91CF911F9122
:101800000F91FF90EF90DF90CF9008950C94FC2DF6
:101810000C94F42D20911E059091F706213208F0CA
:101820004AC08091FB048111FCCF32E03093FB046D
:1018300031E03093FA043FEF3093F9041092F8044A
:101840002093F704AEEFB4E047ED54E0FA013E2FE9
:10185000341B321718F43D913193F9CF1092D6040E
:101860002091D604990F922B9093D6049091D50491
:10187000913061F41092D5049091D6049093BB00FE
:101880009091BC0093FDF8CF95EC01C095EE90933C
:10189000BC009091FB049230E1F39091F9049F3FDA
:1018A00079F08091F904803241F08091F90480331D
:1018B00031F084E005C081E003C082E001C083E034
:1018C0001092FD0410921E051092FC04089591E000
:1018D0009093FC048093F7061092FD0410921E056D
:1018E0000895CF93DF93D82FC62F809155050E947E
:1018F000670C6D2F8FE195E00E9439046C2F8FE10A
:1019000095E00E943904DF91CF910C940A0C9091DC
:10191000FB049111FCCF91E09093FB049093FA04A7
:101920002FEF2093F9041092F804260F2093F70468
:101930009093D6049091D604880F892B8093D60477
:101940008091D504813061F41092D5048091D60441
:101950008093BB008091BC0083FDF8CF85EC01C073
:1019600085EE8093BC008091FB048130E1F380918F
:10197000F804861710F46091F804A7EDB4E025EBA5
:1019800034E0F9018E2F821B861718F48D91819314
:10199000F9CF862F0895613208F060E20E94870C2B
:1019A0001092B4048093B30408950F931F93CF93C0
:1019B000DF931F92CDB7DEB7682F05E515E0F8017C
:1019C000808169830E94670C69818FE195E00E94A4
:1019D00039040E940A0C61E0F80180810E94CB0C5E
:1019E0008FE195E00E94ED030F90DF91CF911F9161
:1019F0000F910895CF92DF92EF92FF920F931F9372
:101A0000CF93DF931F92CDB7DEB7682F05E515E0C2
:101A1000F801808169830E94670C69818FE195E0FC
:101A20000E9439040E940A0C63E0F80180810E9440
:101A3000CB0C8FE195E00E94ED036C01990FEE084D
:101A4000FF08FE2CED2CDC2CCC248FE195E00E94CD
:101A5000ED03AC01990F660B770BC42AD52AE62A51
:101A6000F72AFE2CED2CDC2CCC248FE195E00E9493
:101A7000ED03092E000CAA0BBB0BBC01CD016C2998
:101A80007D298E299F290F90DF91CF911F910F9172
:101A9000FF90EF90DF90CF9008950F931F93CF9317
:101AA000DF931F92CDB7DEB7682F05E515E0F8018B
:101AB000808169830E94670C69818FE195E00E94B3
:101AC00039040E940A0C62E0F80180810E94CB0C6C
:101AD0008FE195E00E94ED03182F8FE195E00E94C1
:101AE000ED0320E030E0312F822B932B0F90DF911C
:101AF000CF911F910F9108950E944D0D982789272E
:101B000098270895CF9366EB80EE0E94710C64E6EF
:101B100070E080E090E00E946E0588E80E947C0DF5
:101B20009093600580935F058AE80E947C0D9093F6
:101B30006205809361058CE80E947C0D909364059A
:101B4000809363058EE80E947C0D909366058093D8
:101B5000650580E90E947C0D909368058093670578
:101B600082E90E947C0D90936A058093690584E95F
:101B70000E947C0D90936C0580936B0586E90E9412
:101B80007C0D90936E0580936D0588E90E947C0D15
:101B90009093700580936F058AE90E947C0D909365
:101BA0007205809371058CE90E947C0D90937405F9
:101BB000809373058EE90E947C0D90937605809347
:101BC000750580915605823009F03FC081EA0E9478
:101BD000D50C8093770581EE0E947C0D909379055A
:101BE0008093780583EE0E94D50C80937A0584EE6D
:101BF0000E94D50CC82F85EE0E94D50C282F2F707F
:101C000030E1C39FC0011124822B90937C05809307
:101C10007B0586EE0E94D50CC82F85EE0E94D50C60
:101C200090E024E0959587952A95E1F740E1C49FDF
:101C300090011124822B932B90937E0580937D0538
:101C400087EE0E94D50C80937F0589ED80938105F6
:101C5000809182058F7180628093820580918005DA
:101C6000807C80628093800580915605823021F4CB
:101C700061E082EF0E94710C90918005692F67707E
:101C800080E2689F90011124892F8695869586951C
:101C9000877048E0849FB0011124622B732B97FB5F
:101CA000992790F9692B85EF0E94710C909181051D
:101CB000692F677080E2689F90011124892F8695B3
:101CC00086958695877048E0849FB0011124622B29
:101CD000732B9295969596959370692B84EFCF917F
:101CE0000C94710C90E0FC01E85EFD4F2491FC0126
:101CF000EC5FFD4F3491FC01E051FE4FE491EE2387
:101D0000B1F1222339F1233091F038F42130A9F0D8
:101D1000223001F584B58F7D12C0273091F0283034
:101D2000A1F02430B9F4809180008F7D03C08091B0
:101D300080008F77809380000DC084B58F7784BD3D
:101D400009C08091B0008F7703C08091B0008F7D73
:101D50008093B000F0E0EE0FFF1FEA51FE4FA59117
:101D6000B4918FB7F894EC913E2B3C938FBF0895BC
:101D70001092B4041092B3041092FD0410921E0548
:101D80001092FB0481E08093FA041092D50482E162
:101D90000E94720E83E10E94720EE9EBF0E08081F6
:101DA0008E7F808380818D7F808388E48093B800DC
:101DB00085E48093BC000895809355050E94B80E79
:101DC00080ED0E94D50C883521F0803641F482E008
:101DD00001C081E0809356050E94820D02C01092DE
:101DE00056058091560590E008958F929F92AF928C
:101DF000BF92CF92DF92EF92FF928AEF0E94FA0C8D
:101E0000E5E5F5E0428553854A01A12CB12CC72EAA
:101E1000D82EE92EFF24E7FCFA94C818D908EA085E
:101E2000FB08DC01CB0137E0B595A7959795879521
:101E30003A95D1F7B501A401440F551F661F771FCE
:101E40004C015D01841A950AA60AB70AA5019401FE
:101E5000A485B5850E94A6334B015C013BE0B59497
:101E6000A794979487943A95D1F7A7019601C70153
:101E7000B6010E9444339B01AC016CE05595479537
:101E8000379527956A95D1F7A685B7850E94A63321
:101E9000DC01CB017EE0B595A795979587957A955E
:101EA000D1F7A5019401280F391F4A1F5B1F268314
:101EB000378340875187A5E0B0E00E949B33DC0167
:101EC000CB0180589F4FAF4FBF4F692F7A2F8B2F79
:101ED000992787FD9A950E94A32F20E030E048ECD7
:101EE00052E40E94F32EFF90EF90DF90CF90BF90CE
:101EF000AF909F908F9008952F923F924F925F9254
:101F00006F927F928F929F92AF92BF92CF92DF9209
:101F1000EF92FF920F931F93CF93DF93CDB7DEB76E
:101F2000A2970FB6F894DEBF0FBECDBF0E94F50E8C
:101F300087EF0E94FA0C6A8F7B8F8C8F9D8F809128
:101F40005B0590915C05A0915D05B0915E056C010B
:101F50007D01FF0CCC08DC2C76019C01AD016C2DC1
:101F60007C2D8C2D9C2D345F4140510961097109F4
:101F7000810991092AA339A349835A836B837C83FE
:101F80008D839E8359016A017B018C010E94AE33CF
:101F90002A8B3B8B4C8B5D8B6E8B7F8B888F998FC5
:101FA00080916F058E8FE0917005EF83F0916D0544
:101FB000FF8F80916E058887E0916B05E8A3F09113
:101FC0006C05F987B0906805A09067051B2D110F6F
:101FD000110BC12ED12EE12EF12E012F2AA139A1F4
:101FE00049815A816B817C818D819E810E94AE33B3
:101FF0000CE00E94183519012A013B014C01B090F8
:102000006A05A09069051B2D110F110BC12ED12E51
:10201000E12EF12E012F2A893B894C895D896E8939
:102020007F89888D998D0E94AE3308E00E943135FA
:1020300051016201730184010E944F3570588F4F26
:102040009F4F20906505309066055101C12CD12C21
:10205000E12CF12C00E010E00E94AE3301E20E947E
:1020600031352A873B874C875D876E877F87888BD2
:10207000998BA0E00E946D3509F45EC1AE8C1F8182
:10208000110F110BBF80C12ED12EE12EF12E012F89
:102090002A893B894C895D896E897F89888D998DD4
:1020A0000E94AE3319012A013B014C01AF8C188507
:1020B000110F110BB884C12ED12EE12EF12E012F5C
:1020C0002AA139A149815A816B817C818D819E81B0
:1020D0000E94AE3301E10E94183559016A017B016B
:1020E0008C019101A201B301C4010E944F35190175
:1020F0002A013B014C014A8D5B8D6C8D7D8D84E006
:1021000075956795579547958A95D1F780E090E04A
:10211000A0E1B0E0841B950BA60BB70B6C017D0111
:10212000FF0CCC08DC2C76019C01AD016C2D7C2DC4
:102130008C2D9C2D0FE10E941835F901B42FA52F8D
:102140006C837D8389839A8328A19985990F990B44
:102150003985492F592F692F792F892F03E20E9442
:10216000183559016A017B018C019101A201B3016B
:10217000C4010E944F3559016A017B018C019F0106
:102180004B2F5A2F6C817D8189819A810E94643501
:102190004901542E652EB62FA72FF82FE92F03E003
:1021A0000E9418355401C52CD62CEB2EFA2E0F2F79
:1021B0001E2F0E94643559016A017B01782E192F68
:1021C00003E00E941835072D0E94643503E00E9449
:1021D00018355401C52CD62CEB2EFA2E0F2F1E2F9E
:1021E0000E94643502E00E9418350F2F0E9464356A
:1021F00001E00E9418350F2F0E946435AA84BB8429
:10220000CC84DD84EE84FF84088919890E944334DC
:1022100028873F8349835A836B837C838D839E8386
:102220000DE00E943135922E832E742E652E562E8F
:10223000472E382E292E3091760520917505932F43
:10224000990F990BA92CB82CC72CD62CE52CF42C63
:10225000032D122D492F592F692F792F892F0E9475
:10226000AE330E94AE3309E10E94313559016A0153
:102270007B018C0128853F8149815A816B817C815A
:102280008D819E810E944F3519012A013B014C012D
:102290003091740520917305932F990F990BA884A1
:1022A000BF80C980DA80EB80FC800D811E81492FC0
:1022B000592F692F792F892F0E94AE3303E10E9495
:1022C000313559016A017B018C019101A201B301F1
:1022D000C4010E944F3508E00E943135522E632E12
:1022E000742E852E962EF72FE82FB92F3091720578
:1022F00020917105932F990F990B492F592F692F11
:10230000792F892F04E00E94183559016A017B0159
:102310008C01252D362D472D582D692D7F2F8E2F81
:102320009B2F0E944F350E949B2F20E030E040E819
:102330005BE30E94483103C060E070E0CB01A296ED
:102340000FB6F894DEBF0FBECDBFDF91CF911F91C6
:102350000F91FF90EF90DF90CF90BF90AF909F9044
:102360008F907F906F905F904F903F902F90089547
:1023700061157105D1F0019719F4EBEFF5E002C09A
:10238000EBEEF5E0DB019F01205F3F4F80E040E294
:102390009D91992321F0811102C0908302C0408356
:1023A00081E03196E217F30799F70895FF920F93B2
:1023B0001F93CF93DF93CDB7DEB76E970FB6F89428
:1023C000DEBF0FBECDBF1092A2051092A1058CE218
:1023D00092E090939E0580939D0580E2E5EAF5E00A
:1023E000DF011D928A95E9F7F12C00E010E0609181
:1023F0009D0570919E05600F711F4EE150E0CE016A
:1024000001960E94D62DE981EE23B1F0E03220F44E
:10241000F0E0ED57FA4FF2A28091A1059091A2054C
:1024200001969093A2058093A105025E1F4FF3943D
:10243000003CB3E01B07D9F66E960FB6F894DEBFEA
:102440000FBECDBFDF91CF911F910F91FF900895E7
:102450002F923F924F925F926F927F929F92AF9294
:10246000BF92CF92DF92EF92FF920F931F93CF9381
:10247000DF93CDB7DEB7A1970FB6F894DEBF0FBEDE
:10248000CDBF811118C01092CD051092D3051091C7
:102490009C05812F880F880F880F8093D405412FCA
:1024A00050E068E875E085ED95E00E94CD36BAE031
:1024B0009B2E910EA8C1282F269530E04091A105B2
:1024C0005091A205421753070CF473C080FD71C0F0
:1024D00000E010E0CC24CA94DC2C76018091A105A8
:1024E0009091A205081719070CF061C02091A4056E
:1024F000622F70E01B82CC82DD82EE82FF821D8E15
:102500001E8E1F8E18A219A2FB01A3E0F595E79578
:10251000AA95E1F7EB53FA4F808190E0277002C053
:10252000959587952A95E2F7817099278887892B59
:1025300031F043E855E0CE0101960E945B0B80919B
:10254000A4058F5F8093A40590E02091A1053091B0
:10255000A2058217930714F01092A405888588239A
:1025600019F11092CD058B818093D3058D8D28E0D4
:10257000829FC00111249E8D892B8093D40580E019
:102580002AE0280FE9E0F0E0EC0FFD1FE80FF11D55
:102590009081992339F08F5FE22FF0E0E553FA4FF5
:1025A0009083EECF922E2FC10F5F1F4F97CF912CAC
:1025B0002AC180E48093CD0500E010E058E0952E1C
:1025C000CC24CA94DC2C76017AE1672E712C209100
:1025D000A305622F70E01B82CC82DD82EE82FF8237
:1025E0001D8E1E8E1F8E18A219A2FB0143E0F595C9
:1025F000E7954A95E1F7EB53FA4F808190E0277019
:1026000002C0959587952A95E2F78170992788876A
:10261000892B31F043E855E0CE0101960E945B0B17
:102620008091A3058F5F8093A30590E0A090A10502
:10263000B090A2058A159B0514F01092A305888519
:10264000882309F4D0C08C819D81AE81BF818F3FEA
:102650005FEF9507A507B50709F4C5C03B81692D54
:1026600070E04F8D51E0590D303168F065537A4F6D
:10267000242F2F70FB01208322E0290DE52FF0E0AD
:10268000E553FA4F0BC0252F65537A4F50E1359F24
:10269000F0011124342F3F703E2BFB01308369A1E0
:1026A00070E030E04430B9F128F4442369F041305F
:1026B000D9F095C0483009F466C0493009F480C0AB
:1026C000453009F08CC042C0482F4F71B7FD02C0A1
:1026D00080E001C080E8F901E553FA4F842B98A10E
:1026E000892B808381E07CC0F901E553FA4F808318
:1026F000A9014F5F5F4FE92FEF71B7FD02C080E086
:1027000001C080E8DA01A553BA4F8E2B98A1892B1E
:102710008C9382E065C0A9014D575A4FFA01E85BDE
:10272000FF4F808331969083A9014E5F5F4FEA2F60
:10273000EF71B7FD02C080E001C080E8DA01A55367
:10274000BA4F8E2B98A1892B8C931BC0A9014D5792
:102750005A4FFA01E85BFF4F808331969083A901BD
:102760004E5F5F4F1D01552437FC5094452CB7FD3B
:1027700002C080E001C080E8FA01E553FA4F282A40
:10278000208283E02DC0A9014D575A4FFA01E85B22
:10279000FF4F8083319690833196A083A9014D5FCE
:1027A0005F4FEB2FEF71B7FD02C080E001C080E802
:1027B000DA01A553BA4F8E2B98A1892B8C930DC0AB
:1027C000A9014D575A4FFA01E85BFF4F80833196BC
:1027D00090833196A0833196B08384E001C080E07D
:1027E000982E920E02C060E070E00F5F1F4F0A1536
:1027F0001B054CF4892D90E09301261B370B8217A3
:1028000093070CF4E4CE8EE78093CB058FE28093A0
:10281000CC058091CD059EEF990D892B8093CD0538
:1028200089E08093CE0584EA8093CF0580910D06E0
:102830008093D00580910E068093D1051092D20529
:10284000292D30E0EDECF5E080E092E09E1B57E0B2
:10285000492F4E0F491560F44191842748E087FFC6
:1028600003C0880F852701C0880F4150C1F7F0CF02
:10287000F901E553FA4F80838091C9059091CA050B
:10288000DC01ED91FC910280F381E02D40E06EE7E8
:10289000099511E0911698F08091C9059091CA05AB
:1028A000DC01ED91FC91A12FB0E0A553BA4F02805D
:1028B000F381E02D41E06C9109951F5FEBCFA1966C
:1028C0000FB6F894DEBF0FBECDBFDF91CF911F9141
:1028D0000F91FF90EF90DF90CF90BF90AF909F90BF
:1028E0007F906F905F904F903F902F900895CF937F
:1028F000DF938091C9059091CA05DC01ED91FC91AF
:102900000280F381E02D40E06EEF09958091EB05A8
:10291000882311F1CBEED5E08091C9059091CA05CD
:102920006991DC01ED91FC910280F381E02D41E0A1
:102930000995B6E0CB30DB0779F78091C905909116
:10294000CA05DC01ED91FC910280F381E02D40E0AD
:102950006FEFDF91CF910994C0E2D0E08091C9057B
:102960009091CA05DC01ED91FC910280F381E02D8C
:1029700041E060E00995219789F7DFCFCF93DF939E
:102980001F92CDB7DEB72091A1053091A205232B70
:1029900021F489830E94D61189818032D0F4E82FF6
:1029A000F0E0ED57FA4F82A1E82FF0E093E0F595C3
:1029B000E7959A95E1F7EB53FA4F282F277081E0BE
:1029C00090E001C0880F2A95EAF7809590818923CD
:1029D0008083109287051092A4051092A3050F9092
:1029E000DF91CF910895813208F080E2682F87E768
:1029F0000E94870C1092B4048093B3040895682F4A
:102A00008FE195E00C943904CF93DF931F92CDB7FB
:102A1000DEB7682F80914A0569830E94670C80E2C7
:102A200090E00E94FF1469818FE195E00E943904D3
:102A30000F90DF91CF910C940A0CCF93C82F0E9476
:102A4000670C8FE090E00E94FF140E940A0C61E086
:102A50008C2F0E94CB0C9091B3048091B4049817F2
:102A600029F08FE195E0CF910C94ED038FEF9FEF6C
:102A7000CF91089520919F053091A0052115310532
:102A800089F0803278F4E82FF0E0ED57FA4F82A118
:102A9000F90194E0899FE00DF11D112440835183D9
:102AA0006283738308954F925F926F927F92AF9289
:102AB000BF92CF92DF92EF92FF920F931F93CF932B
:102AC000DF9300D000D0CDB7DEB7082FA62E690166
:102AD0007A01AE014F5F5F4FC701B6010E9414310A
:102AE0002B013C0189819A81AB81BC81BC01CD0164
:102AF0009F770E946C2FB62E172F2AE939E949E1FA
:102B00005FE3C301B2010E94483120E030E543ECAD
:102B100057E40E9448319F770E946C2F3B0111704F
:102B2000A11002C090E001C090E2192B20E030E03B
:102B3000A901C701B6010E94E92E881F8827881FB6
:102B40008295880F880F807C712F782BA3016B2DC5
:102B5000802F0F900F900F900F90DF91CF911F91CA
:102B60000F91FF90EF90DF90CF90BF90AF907F904C
:102B70006F905F904F900C943A151F93CF93DF9313
:102B800087E70E94670C60E08FE195E00E943904BE
:102B90000E940A0C87E70E94670C83E090E00E9485
:102BA000F3149091B3048091B4049817F1F38FE17A
:102BB00095E00E94ED03D82F8FE195E00E94ED0390
:102BC000182F8FE195E00E94ED03C82F0E940A0C98
:102BD000812F90E0A0E0B0E0BA2FA92F982F88278E
:102BE000AD2BBC01CD016C2BDF91CF911F910895CE
:102BF000CF93DF9387E70E94670CC8EFD6E08D85FF
:102C000090E0805B9F4F0E94FF140E940A0C6C852D
:102C100070E080E090E00E946E05DF91CF910C940F
:102C2000BD15CF93DF93CDB7DEB7E1970FB6F8941C
:102C3000DEBF0FBECDBF789484B5826084BD84B5FD
:102C4000816084BD85B5826085BD85B5816085BDA7
:102C500080916E00816080936E001092810080915F
:102C600081008260809381008091810081608093E7
:102C70008100809180008160809380008091B1000C
:102C800084608093B1008091B00081608093B00037
:102C900080917A00846080937A0080917A008260CB
:102CA00080937A0080917A00816080937A0080918D
:102CB0007A00806880937A001092C1001092990384
:102CC00081E080939A031092AB031092AC031092B0
:102CD000AD031092AE0386E70E94DC0E80933B05A5
:102CE000811105C087E70E94DC0E80933B0580912F
:102CF0003B05811148C08DE580934A050E941D1552
:102D00008D3B910541F481E090E0909349058093DB
:102D100048050C94C32B8B3B910511F00C94E82BC8
:102D200010924905109248050C94C32B019711F09D
:102D30000C94F72B84E290E090934E0580934D0520
:102D400085E290E09093500580934F0580E390E0FA
:102D5000909352058093510581E390E09093540540
:102D6000809353050E94B80E8091480590914905C3
:102D70008130910511F00C94E12B80EB0E94041539
:102D800084E080933B0580913B05823049F018F444
:102D9000813031F04AC0833041F1843031F145C097
:102DA0008BE794E1AEE6BFE380933C0590933D054D
:102DB000A0933E05B0933F058EEA97E4A1EEBDE3F4
:102DC0008093400590934105A0934205B09343053D
:102DD00085E090E0A0E0B0E0809344059093450545
:102DE000A0934605B093470520C08DEC9CECACE465
:102DF000BFE380933C0590933D05A0933E05B093BF
:102E00003F058DEC9CECACE4BEE3809340059093D1
:102E10004105A0934205B0934305109244051092DA
:102E20004505109246051092470581E090E00E940A
:102E3000080C8F3F11F08093990382E090E00E948C
:102E4000080C8F3F31F091E0811101C090E0909328
:102E50009A0303E010E0C8010E94080C8F3F21F0A4
:102E6000F801E855FC4F80830F5F1F4F07301105B5
:102E700091F78AE090E00E94080C8F3FA1F0682F44
:102E800070E080E090E00E94A12F20E030E048EC6C
:102E900052E40E94F32E60933C0570933D058093AD
:102EA0003E0590933F058BE090E00E94080C8F3F19
:102EB000A1F0682F70E080E090E00E94A12F20E058
:102EC00030E048EC52E40E94F32E6093400570938A
:102ED000410580934205909343058CE090E00E9469
:102EE000080C8F3F59F090E0A0E0B0E080934405DB
:102EF00090934505A0934605B09347058091BC0685
:102F00009091BD06892BB9F48CE090E00E94883541
:102F1000FC011382128288EE93E0A0E0B0E084838B
:102F20009583A683B7838BE091E091838083F093B0
:102F3000BD06E093BC0610926F001092800081E8FD
:102F40008093810083E896E0909367038093660303
:102F50008BE39CE3909365038093640362E088E0D5
:102F60000E94D60489E00E94720E61E089E00E940E
:102F7000D6041092630310926203109261031092C0
:102F8000600310925F0310925E0380E286BB809321
:102F90006F0068EE73E080E090E00E946E05809123
:102FA0003B05811103C086E00E94BE148091990305
:102FB000813021F080913B05823019F08FE00E9432
:102FC000BE1480919903813021F080913B058111DD
:102FD00006C08DE00E94BE148EE00E94BE14809157
:102FE0009903811109C081E00E94BE1482E00E9411
:102FF000BE1483E00E94BE148091990381110AC01F
:1030000080913B05811106C084E00E94BE1485E0DA
:103010000E94BE1480919903823091F087E00E9453
:10302000BE1488E00E94BE1489E00E94BE148AE0AB
:103030000E94BE148BE00E94BE148CE00E94BE145D
:103040000BEA13E0F0E1EF2EF80181918F0182305D
:1030500010F08E2D0FC074E0F72EFE0CE8E0DE2E8F
:10306000DE0C813019F08E2D0E94BE148F2D0E942F
:10307000BE148D2D0E94BE14E394F4E1EF12E4CF50
:1030800086E780930D0682E380930E0680919C056F
:1030900081119EC080E2EBECF5E0DF011D928A9584
:1030A000E9F740E250E060E270E08BEE95E00E94CC
:1030B000D63643E150E062E671E088E895E00E9490
:1030C000ED3688E080939C058091A1059091A20542
:1030D000892B11F40E94D6110091A1051091A2052F
:1030E000013CBFE11B0730F4C801880F991F880F0E
:1030F000991F02C08FEF9FEF0E948835FC0120E0EE
:1031000030E04FEF5FEFBA012017310739F04193FC
:103110005193619371932F5F3F4FF6CF80939F053B
:103120009093A00581E990E00E94883521E9FC0197
:1031300011922A95E9F72DE131E0DC012D933C93C2
:103140009093CA058093C9050E94270510928705B0
:103150001092A4051092A3050E94A8056B017C01A2
:10316000B0EDCB0EB7E0DB1EE11CF11C80919D059C
:1031700090919E05892BF9F00E94A8056C157D059C
:103180008E059F05C0F400E010E08091A1059091AC
:10319000A2058017910754F3802F880F0E942812F0
:1031A0000E94771466E970E080E090E00E946E056E
:1031B0000F5F1F4FEACF8091C9059091CA05DC01CE
:1031C000ED91FC910480F581E02D09958111F3CFFB
:1031D0000E94A8050091C3031091C4032091C50368
:1031E0003091C6030D871E872F87388BDC01CB01FA
:1031F000801B910BA20BB30B87399105A105B1057B
:1032000038F480919903882311F40C94772735C7FB
:1032100080913B05882309F468C68330D1F084305F
:1032200009F030C480914A050E94670C88EA90E05A
:103230000E94FF140E940A0C63E080914A050E94DC
:10324000CB0C8091B30490E02091B404821B9109CF
:1032500079C387E70E94670C8091050790E0805C46
:103260009F4F0E94FF140E940A0C6091040770E0B7
:1032700080E090E00E946E050E94BD156D8B7E8BF4
:103280008F8B988F0E94F8152091000730910107CD
:10329000890120E030E0322F212F102F00272B0151
:1032A0003C01401A510A620A730AE091FE06F0914D
:1032B000FF068090FA069090FB06940140E050E0F3
:1032C00060E070E080E090E000E10E941835F22EAE
:1032D000132F1A014B01898399879F0140E050E029
:1032E000C301B2010E940734D22EE32E042FB52F62
:1032F000F62FE72FB82EC92EA0E00E946D355CF4A2
:10330000AFE70E945835D22EE32E042FB52FF62FAB
:10331000E72FB82EC92E2D2D3E2D402F5B2F6F2F5E
:103320007E2F8B2D9C2D07E00E94313559016A01BB
:10333000E62EF72F082FE92F2F2D312FA101B401F1
:1033400089819985FF2E1E2F0E944F35298F3F8F2F
:1033500048A359A36AA37BA38CA39DA36091F806FD
:103360007091F906A090FC06B090FD0680E090E018
:1033700020E030E840E050E00E941634D22EE32EE8
:10338000F42E152F1B014C01950140E050E0C301C4
:10339000B2010E940734022FA32E4983B52FF62FC6
:1033A000E72FB82EC92EA0E00E946D3584F421507D
:1033B0003F4F4F4F5F4F6F4F7F4F8F4F9F4F022FAA
:1033C000A32E4983B52FF62FE72FB82EC92E202F15
:1033D0003A2D49815B2F6F2F7E2F8B2D9C2D08E07E
:1033E0000E9431355901C42EB52FA62FF72F082F73
:1033F000E92F2D2D3E2D4F2D512FB101C401DB2E74
:10340000EA2EFF2E1E2F0E944F3528AB39AB4EA35C
:103410005FA368A779A78AA79BA72091020730918D
:10342000030740E050E0C301B2010E940734F22ECE
:10343000032F142FB52FF62FE72FD82EE92EA0E05B
:103440000E946D3584F42150310940485F4F6F4F21
:103450007F4F8F4F9F4FF22E032F142FB52FF62F34
:10346000E72FD82EE92E2F2D302F412F5B2F6F2FD6
:103470007E2F8D2D9E2D07E10E94313529833A83C1
:103480004B835C836D837E838F839887C980DA80CA
:10349000EB80FC8010EDC10E17E0D11EE11CF11C89
:1034A00010920A0710920B0710920C0710920D074A
:1034B00010920E0710920F0710921007109211072A
:1034C000109212071092130710921407109215070A
:1034D00010921607109217071092180710921907EA
:1034E00020EDC21627E0D206E104F1040CF0C8C0BA
:1034F00029813A814B815C81CA01B9010E94443320
:103500009B01AC01A5E0B0E00E949B334B015C0144
:10351000B594A794979487942B013C01770C4408A9
:10352000542C320180920A0790920B07A0920C074C
:10353000B0920D0740920E0740920F07409210077D
:10354000409211078B019C0142E035952795179514
:1035500007954A95D1F709871A872B873C870093EF
:103560001207109313072093140730931507409206
:10357000160740921707409218074092190714E265
:10358000C1161AEFD1061FEFE106F1060CF078C064
:1035900069817A818B819C816455724F8F4F9F4FD7
:1035A0009B01AC010E944433698B7A8B8B8B9C8B83
:1035B000A7E0B0E09B01AC010E949B337B018C0132
:1035C0009B01AC01550F220B322FA90129833A83AD
:1035D0004B835C839401A501642D742D842D942D5F
:1035E00057016801E980FE2C0E2D1E2D0E944F35DB
:1035F00020930A0730930B0740930C0750930D0755
:1036000060930E0770930F07809310079093110734
:10361000ABE0B0E029893A894B895C890E949B33F1
:103620007B018C0115950795F794E7949B01AC01FC
:10363000550F220B322FA90129833A834B835C83D8
:1036400029853A854B855C85642D742D842D942DB8
:1036500057016801E980FE2C0E2D1E2D0E944F356A
:1036600020931207309313074093140750931507C4
:1036700060931607709317078093180790931907A4
:103680008D899E89AF89B88D1C012D0128A939A982
:103690004EA15FA168A579A58AA59BA5A090120758
:1036A000B0901307C0901407D0901507E09016074C
:1036B000F090170700911807109119070E946435C0
:1036C00059016A017B018C019101A20160E070E067
:1036D00080E090E00E94AE33122FE32ED42EB52F5F
:1036E000F62FE72FF82E092FA0E00E946D3584F405
:1036F00021503109404E5F4F6F4F7F4F8F4F9F4F8B
:10370000122FE32ED42EB52FF62FE72FF82E092FE8
:10371000212F3E2D4D2D5B2F6F2F7E2F8F2D902F24
:1037200005E10E9431354901742E652EB62FA72F71
:10373000F82FE92F298D3F8D48A159A16AA17BA1BE
:103740008CA19DA1A0900A07B0900B07C0900C0718
:10375000D0900D07E0900E07F0900F070091100732
:10376000109111070E94643559016A017B018C0197
:103770009401472D562D6B2F7A2F8F2F9E2F0E944D
:103780006435122FE32ED42EB52FF62FE72FF82E07
:10379000092FA0E00E946D3584F4215030484F4F2E
:1037A0005F4F6F4F7F4F8F4F9F4F122FE32ED42EBF
:1037B000B52FF62FE72FF82E092F212F3E2D4D2D57
:1037C0005B2F6F2F7E2F8F2D902F0FE00E943135B2
:1037D000352E2987232E498B622F732F842F952F07
:1037E0000E94A32F20E836EE45EC57E40E94F32E0A
:1037F0002BEA3CED42E45EE30E94B5319B01AC0153
:1038000060E070E080E89FE30E940A2E20E03AE248
:103810004DE257E40E94483120E030E048EC52E4A9
:103820000E9448310E94652F4B015C010E94F815EF
:103830002091000730910107890120E030E0322F0C
:10384000212F102F00276B017C01C01AD10AE20A38
:10385000F30A209102073091030740E050E0C701CE
:10386000B6010E9407343901042FB52FF62FE72F38
:103870002C01A0E00E946D3574F4215031094048BC
:103880005F4F6F4F7F4F8F4F9F4F3901042FB52FE1
:10389000F62FE72F2C019301402F5B2F6F2F7E2FE8
:1038A000C20107E10E94313529833A834B835C834F
:1038B0006D837E838F83988749805A806B807C805C
:1038C00090ED490E97E0591E611C711CA0ED4A163F
:1038D000A7E05A06610471044CF01092060710929A
:1038E0000707109208071092090713C0A701960155
:1038F000C701B6010E94443320E030E0A9010E94D4
:1039000076332093060730930707409308075093B8
:1039100009078091060790910707A0910807B091C9
:10392000090793018201081B190B2A0B3B0BC901E4
:10393000B8010E94A32F20E030E048EC52E40E943E
:10394000F32E96C083309105ECF38FE195E00E9451
:10395000ED03182F8FE195E00E94ED03082F8FE112
:1039600095E00E94ED03482F880F550B660B770BEF
:10397000BA0155274427412B0E8F1D8E2D8D3E8D6C
:10398000C901A0E0B0E08A019B01082B192B2A2B6A
:103990003B2BC901B8010E94A32F20E030E040E892
:1039A00059E30E9448310E94652F6987272E898B31
:1039B000392E932D0E94A32F20E030E54DE754E4EB
:1039C0000E94F32E2EE434ED42E45EE30E94B53112
:1039D0009B01AC0160E070E080E89FE30E940A2E4A
:1039E0002DEC3AE24DE257E40E94483120E030E00D
:1039F00048EC52E40E9448310E94652F4B015C0163
:103A000080914A050E94670C8BEA90E00E94FF14A7
:103A10000E940A0C62E080914A050E94CB0C8091C2
:103A2000B30490E02091B404821B91098230910587
:103A3000ECF38FE195E00E94ED03082F8FE195E014
:103A40000E94ED03982F8827BC01602B072E000CE5
:103A5000880B990B0E94A32F20E030E040EF53E445
:103A60000E94F32E20E030E04AE252E40E940B2E46
:103A700020E030E040E251E40E9448310E94652F8E
:103A80008B0144C10E947C0F0E94652F6987272EFD
:103A9000898B392E0E947C0F20E030E048EC52E404
:103AA0000E94F32E20E030E54DE754E40E94F32E0F
:103AB00021E03EED42E45EE30E94B5319B01AC01A2
:103AC00060E070E080E89FE30E940A2E20E03AE286
:103AD0004DE257E40E94483120E030E048EC52E4E7
:103AE0000E9448310E94652F4B015C010E94F50E37
:103AF00020E030E040E251E40E9448310E94652F0E
:103B00008B0180913B05823009F000C10E94F50EC7
:103B10008DEF0E944D0D6C01E12CF12CC11420E8B9
:103B2000D206E104F10409F4E0C040905B05509036
:103B30005C0560905D0570905E053CE2531A31E0D3
:103B4000630A71088EE0CC0CDD1CEE1CFF1C8A950C
:103B5000D1F720917B0530917C05C901330FAA0B69
:103B6000BB0B24E1880F991FAA1FBB1F2A95D1F711
:103B7000C81AD90AEA0AFB0AA0917D05B0917E0510
:103B8000A30192010E94A633C61AD70AE80AF90ACD
:103B900040E4D40EE11CF11C3FE0F594E794D79487
:103BA000C7943A95D1F7A0917F050A2E000CBB0B64
:103BB000A30192010E94A6339B01AC016AE05595D6
:103BC0004795379527956A95D1F729833A834B8393
:103BD0005C83A0917A05B0E0A30192010E949B331F
:103BE000DC01CB017BE0B595A795979587957A95F4
:103BF000D1F7BC01CD0170588F4F9F4F29813A8179
:103C00004B815C810E944433DC01CB01EAE0B59535
:103C1000A79597958795EA95D1F79C01AD01405EF0
:103C20005F4FA0917805B09179050E94A633DC0121
:103C3000CB01905EAF4FBF4FBC01CD01FEE095952B
:103C4000879577956795FA95D1F7A70196010E9418
:103C500044336B017C01AFE0959587957795679527
:103C6000AA95D1F79B01AC010E9444339B01AC01A2
:103C7000B7E05595479537952795BA95D1F7A09117
:103C80007705B0E00E949B33DC01CB0124E0B595C1
:103C9000A795979587952A95D1F7C81AD90AEA0A60
:103CA000FB0AF7FE03C0C12CD12C7601D701C60157
:103CB00031E0C316D104E10439E1F30624F080E0D9
:103CC00090E0A0E0B9E1BC01CD01BCE095958795FD
:103CD00077956795BA95D1F70E94A32F20E030E041
:103CE00040E85AE30E94483104C060E070E080EC94
:103CF0009FE720E030E040E251E40E9448310E941A
:103D0000652FAB01BC018FE00E943A158091BF0383
:103D10009091C003A091C103B091C203A501940189
:103D2000281B390B4A0B5B0BCA01B9010E94A32F58
:103D30006B017C010E94A8058092BF039092C00392
:103D4000A092C103B092C2032D853E854F8558894C
:103D5000621B730B840B950B0E94A12F9B01AC017E
:103D600060E070E08AE794E40E94F32E9B01AC01CE
:103D7000C701B6010E9448310E94652F0E94A32FFF
:103D80002B013C012091BB033091BC034091BD034A
:103D90005091BE0360913C0570913D0580913E05B8
:103DA00090913F050E9448316B017C0120914005B4
:103DB000309141054091420550914305C301B20144
:103DC0000E9448319B01AC01C701B6010E940B2E35
:103DD0006093BB037093BC038093BD039093BE03B9
:103DE0000E94652F4090440550904505609046051F
:103DF0007090470546165706680679063CF46B0135
:103E00007C01C418D508E608F70816C0CC24DD24C8
:103E10007601C418D508E608F7086C157D058E05EF
:103E20009F053CF46B017C01C40CD51CE61CF71CFF
:103E300003C0C12CD12C76010E94A8056C377541B6
:103E40008105910588F48092B7039092B803A092FF
:103E5000B903B092BA031092BB031092BC03109244
:103E6000BD031092BE032EC08091B7039091B8039A
:103E7000A091B903B091BA03A5019401281B390B95
:103E80004A0B5B0BCA01B9012AE030E040E050E088
:103E90000E9476332093B3033093B4034093B50369
:103EA0005093B603C501B40124E630E040E050E091
:103EB0000E9476332093AF033093B0034093B10355
:103EC0005093B203B701A60186E00E943A154985D6
:103ED000522D6989732D8DE00E943A15A801110FAA
:103EE000660B770B8EE00E943A150E94A80560933E
:103EF000C3037093C4038093C5039093C60378ED06
:103F0000E72E71E0F72EEBE2AE2EE5E0BE2E0BE9D8
:103F100013E0FBEA8F2EF3E09F2EA0E12A2ED401BE
:103F20003D904D01B1E03B1229C0F70180810E9414
:103F30005705BC01990F880B990B0E94A32F20E015
:103F400030EC4FE754E40E94F32E20E030E44CE9DB
:103F500055E40E944831D5012D913D914D915C91E0
:103F60000E94483120E030E040E251E40E94F32E0C
:103F70000E94652FAB01BC01822D70C0B1E0B3156A
:103F800008F06EC0E8E0E31528F064ECC62E69E0A6
:103F9000D62E04C058E5C52E52E0D52ED7018C91FF
:103FA0000E945705BC01990F880B990B0E94A32F03
:103FB00020E030EC4FE754E40E94F32E20E030E4A0
:103FC0004CE955E40E9448312B013C01B60180E0E8
:103FD00090E00E94A12F9B01AC01C301B2010E949D
:103FE0000A2E2B013C01E32DF0E0EB5DFE4F6081DA
:103FF00070E080E090E00E94A32F9B01AC01C30120
:10400000B2010E94F32E2B013C0120E030E040E29F
:1040100051E40E9448310E94652FAB01BC0184E04D
:10402000820D0E943A1520E030E040EC51E4C301DB
:10403000B2010E94F32EF801208131814281538127
:104040000E940B2ED8016D937D938D939C931397B3
:104050000E94652FAB01BC0188E0820D0E943A15D9
:10406000BFEFEB1AFB0AE4E0AE0EB11C23940C5F29
:104070001F4FF4E12F1253CFC4C88091BC0690911A
:10408000BD06892B09F449C432E0E32EAA24A39487
:1040900047E0F42E8091BC069091BD06DC01ED91C5
:1040A000FC910084F185E02D0995892B09F435C434
:1040B0008091BC069091BD06DC01ED91FC910284DB
:1040C000F385E02D0995B82E8091AC069091AD0650
:1040D000A091AE06B091AF060196A11DB11D8093CF
:1040E000AC069093AD06A093AE06B093AF06B4E2D3
:1040F000BB1609F4BDC2E091A606BB153CF0FAE080
:10410000BF1679F00DE0B012C0C20BC01AE2B116B2
:1041100041F02CE2B212B9C2809193068B258093B4
:104120009306EF3008F07BC1F0E0EB56F94F1082B8
:1041300080919406882309F474C1209195063FEB81
:10414000320F822F022E000C990B363010F4C797D5
:1041500007C02156263018F48755910901C0C09731
:10416000282F2295207F309196064FEB430F832F07
:10417000032E000C990B463010F4C79707C0315638
:10418000363018F48755910901C0C097820F90917D
:104190009306891331C18091B8069091B906A09118
:1041A000BA06B091BB060196A11DB11D8093B80659
:1041B0009093B906A093BA06B093BB068091A70668
:1041C000882399F08091B0069091B106A091B20633
:1041D000B091B3060196A11DB11D8093B0069093D6
:1041E000B106A093B206B093B3061091A4061123B2
:1041F00009F46BC0113009F0D0C08091370690915E
:104200003806A0913906B0913A0680933306909310
:104210003406A0933506B09336060E94A805609335
:104220003B0670933C0680933D0690933E061093A8
:104230003206109331068091450690914606A09172
:104240004706B09148068093410690934206A0939A
:104250004306B09344060E94A805609349067093F4
:104260004A0680934B0690934C0610934006109399
:104270003F068091A706882309F48FC0EFE1F6E09E
:10428000A1E1B6E08F2D01900D928A95E1F7E6E26B
:10429000F6E0A8E1B6E08F2D01900D928A95E1F746
:1042A0000E94A80560932D0670932E0680932F061A
:1042B000909330061093100610930F068DE496E04D
:1042C0000E9488078BE596E066C080914506909134
:1042D0004606A0914706B091480680934106909308
:1042E0004206A0934306B09344060E94A80560933B
:1042F000490670934A0680934B0690934C06A09211
:104300004006A0923F068091A706882321F1EFE1A5
:10431000F6E0A1E1B6E08F2D01900D928A95E1F7CC
:10432000E6E2F6E0A8E1B6E08F2D01900D928A95C5
:10433000E1F70E94A80560932D0670932E068093E6
:104340002F0690933006A0921006A0920F0689E6E1
:1043500096E00E9488078091810690918206A09144
:104360008306B091840680937D0690937E06A09389
:104370007F06B09380060E94A8056093790670932B
:104380007A0680937B0690937C06A0927806A09292
:10439000770685E896E00E9488070091AA061091AA
:1043A000AB060115110509F451C1E091AA06F0917F
:1043B000AB0666A177A1F80186A197A10E94DD3620
:1043C000892B09F043C1B801C80140960E94E63626
:1043D0000E94A805D80190966D937D938D939C9330
:1043E00093979596AC9295979496AC9294979A964B
:1043F0000D911C919B97D5CF8091B4069091B506F5
:10440000A091B606B091B7060196A11DB11D80938B
:10441000B4069093B506A093B606B093B70680E0B5
:1044200016C19091A506911149C06BE671E085E92E
:1044300096E00E94DD36892B41F061E771E085E965
:1044400096E00E94DD36892B19F4A092A40615C0CF
:1044500067E771E085E996E00E94DD36892B41F03F
:104460006DE771E085E996E00E94DD36892B19F44D
:104470001092A40602C0E092A4068091A806909132
:10448000A9069093AB068093AA060091AA06109104
:10449000AB060115110519F2F801C6A0D7A065E910
:1044A00076E0C6010E94DD3697FD02C00C94522CC6
:1044B000D8019A968D919C919B97E3CFE091A406A9
:1044C000E23009F491C080919506882309F48CC0EC
:1044D00000E2E09FF0011124E92B3197E932F10568
:1044E00008F082C0EC5CFF4F0C94953385E996E0B0
:1044F0000E940E0960934506709346068093470616
:104500009093480671C091E0813409F043C043C0E4
:104510006FE176E009C091E0833509F090E0909377
:10452000250662C066E276E085E996E00E9486088C
:104530005BC091E0873509F090E090932C0654C061
:1045400085E996E00E940E0960935706709358061D
:104550008093590690935A0647C085E996E00E94D9
:104560000E096093650670936606809367069093C4
:1045700068063AC085E996E00E94AF2D6093370641
:10458000709338068093390690933A062DC091E0D7
:1045900081330CF490E09093A70626C085E996E05D
:1045A0000E94AF2D609381067093820680938306EC
:1045B0009093840619C085E996E00E940E096093E5
:1045C0008F067093900680939106909392060CC08C
:1045D00085E996E00E940E09609373067093740655
:1045E00080937506909376060091AA061091AB060B
:1045F0000115110509F413CFE091AA06F091AB065D
:1046000066A177A1F80186A197A10E94DD36892BCA
:1046100009F005CFD80198962D913C9199978091FA
:10462000A50690E0821793070CF4F9CE28173907F6
:1046300039F440E150E065E976E0C8010E94ED36CA
:10464000D8019A960D911C919B97D2CF81E09091C1
:10465000A5069F5F9093A5061092A60691E0BAE288
:10466000BB1290E090939406882309F413CD21C0E7
:104670001092A6061092A50610929306E092A40648
:10468000109294061092A70605CDEE3040F481E01A
:104690008E0F8093A606F0E0EB56F94FB082809122
:1046A00094068111F7CC809193068B258093930615
:1046B000F1CC10921006609111067091120680E004
:1046C00090E00E94A12F6B017C0160911306709114
:1046D000140680911506909116060E94A12F28E2DB
:1046E0003BE64EE65EE40E94F32E9B01AC01C7015F
:1046F000B6010E940B2E20911706DC01CB0121117F
:10470000B0588093BE069093BF06A093C006B093A6
:10471000C106609118067091190680E090E00E9431
:10472000A12F6B017C0160911A0670911B0680918C
:104730001C0690911D060E94A12F28E23BE64EE642
:104740005EE40E94F32E9B01AC01C701B6010E94FA
:104750000B2E20911E06DC01CB012111B058809355
:10476000C2069093C306A093C406B093C506809179
:104770000F06882389F00E94A80500912D0610914C
:104780002E0620912F0630913006DC01CB01801BD4
:10479000910BA20BB30B03C08FEF9FEFDC01809353
:1047A000DE069093DF06A093E006B093E106109238
:1047B0004E06609153067091540680915506909173
:1047C00056060E94A32F6B017C0126E53EE04DEECC
:1047D0005FE30E94483120E030E048EC52E40E9460
:1047E000F32E0E94652F6093CE067093CF068093C0
:1047F000D0069093D1062EEB3CE443E95FE3C7017A
:10480000B6010E94483120E030E048EC52E40E94BA
:10481000F32E0E94652F6093D2067093D306809387
:10482000D4069093D50610926A0660916F06709137
:10483000700680917106909172060E94A32F6B0101
:104840007C0120E030E048EC52E40E94F32E0E940C
:10485000652F6093C6067093C7068093C806909331
:10486000C90628E439EF41E550E4C701B6010E94CA
:10487000483120E030E048EC52E40E94F32E0E94E0
:10488000652F6093CA067093CB068093CC069093F5
:10489000CD0610925C06609161067091620680916F
:1048A0006306909164060E94A32F20E030E048EC5C
:1048B00052E40E94F32E0E94652F6093D6067093F7
:1048C000D7068093D8069093D906109286068091D9
:1048D0008B0690918C06A0918D06B0918E068093E8
:1048E000DA069093DB06A093DC06B093DD06809198
:1048F0000F068093E2061092780680917D069091D3
:104900007E06A0917F06B09180068093E306909387
:10491000E406A093E506B093E60680919803811122
:104920002AC08091E206882309F4B9C78091DE0687
:104930009091DF06A091E006B091E106803D97409E
:10494000A105B1050CF0ABC781E08093980380917D
:104950009703811110C00E94A805DC01CB01885784
:104960009C4EAF4FBF4F8093930390939403A093BB
:104970009503B093960380919803882309F443C26A
:104980000091BE061091BF062091C0063091C1066D
:1049900009831A832B833C832091C2063091C3067E
:1049A0004091C4065091C50629873A874B875C879A
:1049B0004091CE065091CF066091D0067091D106FD
:1049C00083E00E943A154091D6065091D706609137
:1049D000D8067091D90689E00E943A158091970314
:1049E000811153C0C0909303D0909403E09095033D
:1049F000F09096030E94A805C616D706E806F906A9
:104A000008F043C081E08093970309811A812B81CC
:104A10003C8100938F031093900320939103309374
:104A2000920329853A854B855C8520938B033093CF
:104A30008C0340938D0350938E0389819A81AB81BF
:104A4000BC818093870390938803A0938903B093DC
:104A50008A03209383033093840340938503509308
:104A6000860380913B05811110C08091C60690910C
:104A7000C706A091C806B091C9068093B70390936A
:104A8000B803A093B903B093BA034091C6065091FE
:104A9000C7066091C8067091C9064093AF03509352
:104AA000B0036093B1037093B20380913B05811111
:104AB0001AC08091B7039091B803A091B903B09147
:104AC000BA039A01AB01281B390B4A0B5B0BAAE016
:104AD000B0E00E949B336093B3037093B403809360
:104AE000B5039093B60380919703882309F47BC1A3
:104AF00040908B0350908C0360908D0370908E03D8
:104B000080918F0390919003A0919103B0919203B3
:104B1000898B9A8BAB8BBC8B630152017C018D011D
:104B200029853A854B855C8569817A818B819C8159
:104B30000E949F070E946C2F6D877E878F87988BBE
:104B400030909A033320C1F16091B3037091B403A4
:104B50008091B5039091B6032AE030E040E050E048
:104B60000E947633CA01B9010E94A32F6B017C0118
:104B70006D857E858F8598890E94A12F4B015C01F0
:104B8000A7019601C701B6010E9448316B017C0163
:104B9000A5019401C501B4010E9448319B01AC01FB
:104BA000C701B6010E940B2E0E9413320E946C2F87
:104BB0006D877E878F87988BA301920169857A859F
:104BC0008B859C850E940A2E25E33AEF4EE85CE334
:104BD0000E9448314B015C0125E33AEF4EE85CE36B
:104BE00069897A898B899C890E9448312B013C0113
:104BF00025E33AEF4EE85CE369817A818B819C8101
:104C00000E9448316B017C01C501B4010E9405324C
:104C10006D8B7E8B8F8B988FC701B6010E94EE2E15
:104C2000698B7A8B8B8B9C8BC301B2010E940532FE
:104C3000698F7A8F8B8F9C8FC501B4010E94EE2EF5
:104C40004B015C0129893A894B895C89698D7A8D90
:104C50008B8D9C8D0E944831A50194010E944831A2
:104C60004B015C01C301B2010E94EE2E2B013C01FD
:104C7000C701B6010E9405329B01AC01C301B2011C
:104C80000E944831A50194010E940A2E6B017C010B
:104C900029893A894B895C896D897E898F89988DAC
:104CA0000E944831A70196010E948A2E6B017C0167
:104CB00020E030E0A9010E94E92E87FF0AC02BED19
:104CC0003FE049EC50E4C701B6010E940B2E6B0196
:104CD0007C0121EE3EE245E652E4C701B6010E94A6
:104CE00048310E94652F2B013C01A0908303B090B6
:104CF0008403C0908503D0908603E0908703F090F2
:104D000088030091890310918A0329853A854B8590
:104D10005C8569817A818B819C810E949F076B01F0
:104D20007C01332009F446C06091B3037091B40351
:104D30008091B5039091B6032AE030E040E050E066
:104D40000E947633CA01B9010E94A32F9B01AC01D6
:104D50000E9448314B015C01A7019601C701B601D1
:104D60000E9448319B01AC01C501B4010E940B2E89
:104D70000E9413329B01AC0160917F03709180030C
:104D800080918103909182032CA73DA74EA75FA736
:104D90000E94A12F2CA53DA54EA55FA50E940B2E1C
:104DA0000E946C2F60937F03709380038093810334
:104DB0009093820309811A812B813C8100938703A0
:104DC000109388032093890330938A0329853A85B9
:104DD0004B855C8520938303309384034093850344
:104DE000509386033FC010927F031092800310926D
:104DF000810310928203412C512C32011D861E86A4
:104E00001F86188A2FC080913B05811108C010921F
:104E1000B3031092B4031092B5031092B60310922C
:104E2000AF031092B0031092B1031092B20340E0AE
:104E300050E0BA0183E00E943A1540E050E0BA0128
:104E400089E00E943A15412C512C32011D861E86A4
:104E50001F86188A19861A861B861C8619821A8252
:104E60001B821C8229813A814B815C8160E081E058
:104E70000E94531529853A854B855C8561E082E067
:104E80000E945315B301A2018AE00E943A15409195
:104E9000E3065091E4066091E5067091E6068BE02A
:104EA0000E943A154091DA065091DB066091DC06CB
:104EB0007091DD068CE00E943A1560917F0370913D
:104EC000800380918103909182032AE030E040E0EA
:104ED00050E00E945433BA01A90188E00E943A15BB
:104EE0004D855E856F85788987E00E943A154091EF
:104EF000B3035091B4036091B5037091B60384E09D
:104F00000E943A154091AF035091B0036091B103F4
:104F10007091B20385E00E943A158091C905909185
:104F2000CA05DC01ED91FC910480F581E02D099525
:104F3000182F811105C080910001882309F46CC3EA
:104F40000E94A805C0907B03D0907C03E0907D0375
:104F5000F0907E036C157D058E059F0508F45CC3FB
:104F60000E94A805DC01CB0188539F4FAF4FBF4F74
:104F700080937B0390937C03A0937D03B0937E0387
:104F800001E0E12CF12C2CE0D22E103E51F4809166
:104F9000790390917A038D3091050CF08DC10196C3
:104FA0000BC0103771F48091790390917A03181631
:104FB00019060CF081C1019790937A0380937903CD
:104FC00082C0103D09F082C06090790370907A032E
:104FD000B6E06B16710469F1E7E06E16710409F42E
:104FE0004BC0F5E06F16710409F05EC080903C057F
:104FF00090903D05A0903E05B0903F0528E431EE2D
:105000004AE75FE3C501B4010E94E92E87FF4CC067
:105010002AE037ED43E25CE3C501B4010E940B2EA8
:1050200060933C0570933D0580933E0590933F054A
:105030003BC08090400590904105A0904205B09003
:10504000430528E431EE4AE75FE3C501B4010E945D
:10505000E92E87FF29C02AE037ED43E25CE3C50172
:10506000B4010E940B2E609340057093410580931C
:1050700042059093430518C08091440590914505E1
:10508000A0914605B091470584369105A105B1056B
:105090005CF40196A11DB11D8093440590934505D4
:1050A000A0934605B0934705C30108978430910546
:1050B00050F4FC01E555FC4F8081811102C0D08283
:1050C00002C08150808300930001F6C0103B09F0BC
:1050D000F3C0E0917903F0917A033197ED30F10557
:1050E00008F0D8C0E35AFF4F0C949533F7010995A7
:1050F000809199038F5F833018F480939903CAC01D
:1051000010929903C7C080919A03802780939A03D5
:10511000C1C080903C0590903D05A0903E05B090A8
:105120003F052AE037ED43E25CE3C501B4010E948C
:10513000073118160CF0AEC02AE037ED43E25CE30D
:10514000C501B4010E940A2E60933C0570933D0591
:1051500080933E0590933F059DC0809040059090C0
:105160004105A0904205B09043052AE037ED43E2A7
:105170005CE3C501B4010E94073118160CF08AC027
:105180002AE037ED43E25CE3C501B4010E940A2E38
:1051900060934005709341058093420590934305C9
:1051A00079C08091440590914505A0914605B09144
:1051B0004705181619061A061B060CF06BC0019756
:1051C000A109B1098093440590934505A093460534
:1051D000B09347055FC06091990381E090E00E9421
:1051E000060C60919A0382E090E00E94060C8BEA24
:1051F000882E83E0982E93E0A92EB12CD4016D91D6
:105200004D01C5010E94060CBFEFAB1ABB0AE7E0D7
:10521000AE16B10499F720E030E048EC52E460911A
:105220003C0570913D0580913E0590913F050E949F
:1052300048310E94652F8AE090E00E94060C20E031
:1052400030E048EC52E46091400570914105809156
:105250004205909143050E9448310E94652F8BE0E2
:1052600090E00E94060C609144058CE090E00E9462
:10527000060CF7010995A12CB12C6FEFC5010E9416
:10528000060CFFEFAF1ABF0A24E1A216B104A9F77A
:10529000F7010995E0917903F0917A033897E430AA
:1052A000F10508F010CFE555FC4F80818F5F8D3000
:1052B00008F408CF108207CF80910001882309F4F9
:1052C000ABC1E0917903F0917A03EE30F10508F07B
:1052D000EFC0E659FF4F0C94953363E871E080E02E
:1052E00090E00E94B81163E971E0DEC060EA71E00D
:1052F00080E090E00E94B8116DEA71E0D5C0809125
:105300009903813049F028F08230C1F462ED71E0F8
:1053100011C069EB71E00EC067EC71E00BC08091C9
:105320009903882309F431CE80919A03882349F0A8
:105330006DEE71E080E090E00E94B81160EE71E0E7
:10534000B3C06EEF71E0F6CF6FE072E080E090E006
:105350000E94B81180913B058230A1F040F488236F
:1053600071F0813009F0A4C06EE272E09DC083301C
:1053700061F0843009F09CC065E572E095C060E2A0
:1053800072E092C06BE372E08FC068E472E08CC0A0
:1053900080913B05882309F4F8CD20E030E048EC0B
:1053A00052E460913C0570913D0580913E059091DD
:1053B0003F050E9448310E94652F7F936F938FE5D0
:1053C00092E019C080913B05882309F4DECD20E0EE
:1053D00030E048EC52E460914005709141058091C5
:1053E0004205909143050E9448310E94652F7F93AA
:1053F0006F938FE792E09F938F9388E693E09F935C
:105400008F930E94FC3668E673E080E090E00E9493
:10541000B8116FE672E081E090E00E94B8110F9041
:105420000F900F900F900F900F9042C080913B050E
:10543000882309F4AACD809147058F938091460572
:105440008F93809145058F93809144058F938FE8CA
:1054500092E09F938F9388E693E09F938F930E94AF
:10546000FC3668E673E080E090E00E94B8116FE6D9
:1054700072E081E090E00E94B8110FB6F894DEBFB0
:105480000FBECDBF15C06DE972E080E090E00E94D4
:10549000B8116EEA72E008C069EB72E080E090E05B
:1054A0000E94B81168EC72E081E090E00E94B811AF
:1054B0000091790310917A03C8010897049708F0C6
:1054C000A9C064ED72E088E693E00E94E63689E2C6
:1054D000800F80936903F801ED55FC4FE0818E2F1A
:1054E00090E08D30910508F089C0FC01E858FF4F2D
:1054F0000C949533E8E6F3E0DF010D900020E9F726
:10550000CD016EEB71E077C0E8E6F3E0DF010D90CE
:105510000020E9F7CD0169ED72E06DC0E8E6F3E047
:10552000DF010D900020E9F7CD0161EE72E063C06C
:10553000E8E6F3E0DF010D900020E9F7CD016BEE26
:1055400072E059C0E8E6F3E0DF010D900020E9F7D2
:10555000CD0165EF72E04FC0E8E6F3E0DF010D90AA
:105560000020E9F7CD016FEF72E045C0E8E6F3E017
:10557000DF010D900020E9F7CD016AE073E03BC048
:10558000E8E6F3E0DF010D900020E9F7CD0166E1E8
:1055900073E031C0E8E6F3E0DF010D900020E9F7A9
:1055A000CD0162E273E027C0E8E6F3E0DF010D9091
:1055B0000020E9F7CD016EE273E01DC0E8E6F3E0FC
:1055C000DF010D900020E9F7CD0169E373E013C01E
:1055D000E8E6F3E0DF010D900020E9F7CD0165E496
:1055E00073E009C0E8E6F3E0DF010D900020E9F781
:1055F000CD0161E573E001970E94E63668E673E04D
:1056000080E090E00E94B8116FE672E081E090E0E7
:105610000E94B81110920001C0908305D0908405BB
:10562000E0908505F0908605B6E9CB0ED11CE11C13
:10563000F11C0E94A8056C157D058E059F0508F4D8
:1056400098C00E94A8056093830570938405809399
:1056500085059093860580910C06882351F18091F1
:10566000C9059091CA05DC01ED91FC910280F3819E
:10567000E02D40E06EE709958091C9059091CA053B
:10568000DC01ED91FC910280F381E02D41E061E9C4
:1056900009958091C9059091CA05DC01ED91FC91B5
:1056A0000280F381E02D41E061E3099510920C0640
:1056B0005EC0F0900B06FF2009F44BC00F2D0F2C9D
:1056C000000C110BC8010E94BE36892B31F0C801B5
:1056D0000E94C536F82E10E001C011E08091C90586
:1056E0009091CA05DC01ED91FC910280F381E02DDF
:1056F00040E06EE709958091C9059091CA05DC01EB
:10570000ED91FC910280F381E02D41E062E009958A
:105710008091C9059091CA05DC01ED91FC91028050
:10572000F381E02D111102C062E201C063E241E0A9
:1057300009958091C9059091CA05DC01ED91FC9114
:105740000280F381E02D41E06F2D099510920B0648
:105750000EC080919D0590919E05892B41F080910E
:10576000870591E0980F909387050E9428120E9468
:10577000771480E090E0892B11F40C94E8180E94D3
:1057800000000C94E8188091480590914905009715
:1057900011F00C94961683E290E090934E0580935E
:1057A0004D0584E290E09093500580934F0585E28B
:1057B00090E0909352058093510586E290E00C941E
:1057C000AE16892B11F00C94C01680EE0C94BE1608
:1057D0008CE580934A050E941D158D3B910511F4BF
:1057E0000C9483168B3B910511F40C94901687E76B
:1057F0000E94670C0E940A0C81110C94C3160E942F
:10580000B80E87E70E94670C8EE190E00E94FF14BB
:105810000E940A0C8AE08093040788E080930507C1
:1058200064E670E080E090E00E946E05A8EFEA2E4A
:10583000A6E0FA2EB2EACB2E87E70E94670C6C2D09
:105840008FE195E00E9439040E940A0C87E70E94CC
:10585000670C82E090E00E94F3149091B304809171
:10586000B4049817F1F38FE195E00E94ED03D82E70
:105870008FE195E00E94ED03B82E0E940A0C1D2DC9
:1058800000E0C8018B29D7018D939D937D01C394BE
:10589000C394BEEACB12D0CF83E00C94C116109211
:1058A000980369C865E976E0C6010E94DD361816DE
:1058B000190614F00C940F221092AB061092AA064F
:1058C0000C940F22EFE1F5E01382128288EE93E050
:1058D000A0E0B0E084839583A683B78386E391E05C
:1058E00091838083EFE0F6E01082118213821282AE
:1058F00014821582168217821086128611861386EC
:105900001486158616861786118A108A128A138ABB
:10591000148A158A168A108E178A118E128E138E8B
:10592000148E158E12A213A214A215A216A217A2EB
:1059300010AA11AA12AA13AA14AA15AA10924D0607
:1059400010924E061092530610925406109255066D
:105950001092560610925B0610925C061092610639
:105960001092620610926306109264061092690605
:1059700010926A0610926F061092700610927106CD
:1059800010927206109277061092780610927D0699
:1059900010927E0610927F06109280061092850665
:1059A0001092860610928B0610928C0610928D062D
:1059B00010928E06109293061092940682E08093C5
:1059C000A4061092A5061092A6061092A7061092A1
:1059D000A9061092A8061092AB061092AA06109281
:1059E000AC061092AD061092AE061092AF06109261
:1059F000B0061092B1061092B2061092B306109241
:105A0000B4061092B5061092B6061092B706109220
:105A1000B8061092B9061092BA061092BB06109200
:105A200095061092BD061092BC061092BE0610920A
:105A3000BF061092C0061092C1061092C2061092C4
:105A4000C3061092C4061092C5061092C6061092A4
:105A5000C7061092C8061092C9061092CA06109284
:105A6000CB061092CC061092CD061092CE06109264
:105A7000CF061092D0061092D1061092D206109244
:105A8000D3061092D4061092D5061092DA06109220
:105A9000DB061092DC061092DD061092DE061092F4
:105AA000DF061092E0061092E1061092E3061092D3
:105AB000E4061092E5061092E606E3E8F5E01082AF
:105AC0001182128213821482118E138E128E158E01
:105AD000148E178E168E10A211A21092CA05109263
