:100000000C94B7020C94DF020C94DF020C94DF0214
:100010000C94DF020C94DF020C94DF020C94DF02DC
:100020000C94DF020C94DF020C9441060C94EB0656
:100030000C94FA050C94DF020C94DF020C94DF029E
:100040000C94B0050C94DF020C94930A0C94CF0A24
:100050000C942A0B0C94DF020C94DF020C94DF0248
:100060000C9465090C94DF02A022B222B522BC22B6
:10007000C322F122F822052312231E231E231E234E
:100080001E231E231E231E231E231E231E231E2368
:100090001E231E231E231E231E231E231E231E2358
:1000A0001E231E231E231E23A022AD22B222B52210
:1000B000BC22C322CA22D722E422F526F82603272F
:1000C000CC2709272D275127CC27CC27CC27CC2775
:1000D0006B27BC27EF27F8270128112826284A2854
:1000E00064289828DA28DA28DA28DA28C528CE28D9
:1000F000FC28062910291A2924292E2938294229C1
:100100004C295629084AD73B3BCE016E84BCBFFD23
:10011000C12F3D6C74319ABD56833DDA3D00C77FD7
:1001200011BED9E4BB4C3E916BAAAABE0000008070
:100130003F05A84CCDB2D44EB93836A9020C50B9FF
:10014000918688083CA6AAAA2ABE000000803F0724
:10015000634236B79BD8A71A39685618AEBAAB5562
:100160008C1D3CB7CC5763BD6DEDFD753EF6177227
:1001700031BF000000803F08000000BE92244912F9
:100180003EABAAAA2ABECDCCCC4C3E00000080BE1D
:10019000ABAAAAAA3E00000000BF000000803F00FA
:1001A00000000000084178D3BB4387D1133D190EEE
:1001B0003CC3BD4282AD2B3E68EC8276BED98FE156
:1001C000A93E4C80EFFFBE01C4FF7F3F000000004E
:1001D000000000000000240027002A00014C617488
:1001E00069747564650000000000000000000000F4
:1001F00000200000000000000900024C6F6E6769DB
:10020000747564650000000000000000000000201C
:1002100000000000000009000353706565640000E1
:10022000000000000000000000000000006B6D2FC7
:100230006800000001000452656C2E20416C746956
:1002400074000000000000000000006D00000000CD
:100250000000010105416C7469747564650000005B
:100260000000000000000000006D00000000000021
:10027000010006566172696F000000000000000076
:10028000000000000000006D2F7300000000080255
:100290000744697374616E6365000000000000002C
:1002A00000000000006D0000000000000100085484
:1002B00072697000000000000000000000000000F3
:1002C0000000006B6D000000000004020948656139
:1002D00064696E670000000000000000000000007C
:1002E00000B000000000000001000A436F75727347
:1002F000650000000000000000000000000000B0E9
:1003000000000000000001000B536174656C6C6913
:100310007465730000000000000000000020000071
:100320000000000000000C48444F50000000000096
:10033000000000000000000000000020000000009D
:10034000000001020D507265737375726500000044
:100350000000000000000000006850610000000084
:1003600008020E54656D70657261747572650000E7
:1003700000000000000000B0430000000000010188
:100380000F48756D69646974790000000000000011
:100390000000000000257248000000000101105616
:1003A0006F6C7461676531000000000000000000A0
:1003B00000000056000000000000010211566F6CA2
:1003C000746167653200000000000000000000005A
:1003D0000056000000000000010212566F6C7461AC
:1003E00067653300000000000000000000000056B8
:1003F000000000000000010213566F6C7461676515
:100400003400000000000000000000000056000062
:100410000000000001021443757272656E743100B1
:10042000000000000000000000000041000000008B
:10043000000001011543757272656E743200000090
:10044000000000000000000000410000000000006B
:1004500001011643757272656E743300000000006E
:100460000000000000000041000000000000010149
:100470001743757272656E7434000000000000004E
:1004800000000000004100000000000001011843CE
:100490006170616369747931000000000000000040
:1004A0000000006D41680000000004001943617005
:1004B00061636974793200000000000000000000F0
:1004C000006D41680000000004001A436170616320
:1004D0006974793300000000000000000000006D26
:1004E00041680000000004001B436170616369748F
:1004F000793400000000000000000000006D416839
:1005000000000000040000000000000000000000E7
:1005100000000000000000000000000000000000DB
:100520000000000000000000250028002B0004044B
:10053000040404040404020202020202030303038B
:100540000303010204081020408001020408102067
:10055000010204081020000000080002010000034E
:1005600004070000000000000000762B582B112427
:100570001FBECFEFD8E0DEBFCDBF13E0A0E0B1E0FB
:10058000EAE0F1E702C005900D92A632B107D9F773
:1005900026E0A6E2B3E001C01D92A83BB207E1F756
:1005A00012E0C6EBD2E004C02197FE010E946D323A
:1005B000C53BD107C9F70E946B160C9478380C9490
:1005C0000000CF92DF92EF92FF920F931F93CF9391
:1005D000DF936C017A018B01C0E0D0E0CE15DF051E
:1005E00089F0D8016D918D01D601ED91FC910190BA
:1005F000F081E02DC6010995892B11F47E0102C01E
:100600002196ECCFC701DF91CF911F910F91FF9001
:10061000EF90DF90CF9008953FB7F89480917804E1
:1006200090917904A0917A04B0917B0426B5A89B9F
:1006300005C02F3F19F00196A11DB11D3FBFBA2F74
:10064000A92F982F8827820F911DA11DB11DBC01D4
:10065000CD0143E0660F771F881F991F4A95D1F798
:10066000089550912A0340912903852F90E0242F6B
:1006700030E0541710F4805B9F4F821B930B08955A
:1006800080912A03E09129038E1751F0EF5FE03546
:1006900008F0E0E0F0E0ED5DFB4F808190E0089530
:1006A0008FEF9FEF089580912A0390912903891776
:1006B00069F09F5F903508F090E0E92FF0E0ED5D84
:1006C000FB4F80819093290390E008958FEF9FEF77
:1006D0000895809128038111FCCF0895809127030C
:1006E0008F5F843408F080E0909126039817E1F33F
:1006F0002FB7F89490912803992341F0E82FF0E068
:10070000E752FC4F6083809327031DC081E08093F4
:10071000280360931E0410921D0482E086BB809122
:100720006F00826080936F00809180008F7380687B
:1007300080938000809184009091850040969093F2
:100740008900809388002FBF81E090E0089585EDB7
:100750008093BC008091BC0084FDFCCF1092C40447
:1007600008954091B403262F30E0240F311D21322B
:100770003105DCF42091C4042430C9F4FC0180E08C
:1007800090E0861758F43091B4032191DC01AE5605
:10079000BC4FA30FB11D2C930196F3CF8091B403EE
:1007A000680F6093B40380E0089581E0089582E0CB
:1007B00008950895E0917D0480917C04E81730F459
:1007C000F0E0E258FB4F808190E008958FEF9FEFBB
:1007D000089590917D0480917C04981750F4E92F3E
:1007E000F0E0E258FB4F208130E09F5F90937D0462
:1007F00002C02FEF3FEFC901089580917C0490E083
:1008000020917D04821B91090895CF92DF92EF928F
:10081000FF920F931F93CF93DF937C01262F972F87
:100820008A018091C504882391F0C62FD72F6E01CD
:10083000C40ED51ECC15DD0571F06991D701ED917F
:10084000FC910190F081E02DC7010995F3CF642F51
:10085000822F0E94B103C801DF91CF911F910F91A8
:10086000FF90EF90DF90CF900895CF93DF931F928A
:10087000CDB7DEB769832091C5042223D1F0209142
:10088000E704203240F021E030E0FC013383228392
:1008900080E090E015C08091C604E82FF0E0E953B5
:1008A000FB4F998190838F5F8093C6048093E70408
:1008B00005C061E0CE0101960E94B10381E090E0A5
:1008C0000F90DF91CF9108951F93CF93DF93F8940A
:1008D000EC01CA57DF4F2881203400F5DC01AE5708
:1008E000BF4F1C9111965C91119770E0411103C0AC
:1008F00020E030E002C020E031E0622B732BE12FDA
:10090000F52F71836083329628812F5F2883EA1741
:10091000FB0710F0FC013296ED93FC93FC01E057CD
:10092000FF4F8081811108C081E080838091C100E8
:100930008F7688628093C1007894DF91CF911F9168
:100940000895FC01E157FF4F2081222301F1F89423
:10095000A0919003B0919103A357BF4F0D90BC910C
:10096000A02D4C912081215020833297208131810C
:100970002F5F3F4FBC0165577F4F2617370718F091
:100980009C0129573F4F31832083789401C040E078
:10099000842F089508950895089580E090E00895C3
:1009A0000E948D35CF93DF9390E0FC01EE5BFA4F10
:1009B0002491FC01E25DFA4F8491882361F190E07B
:1009C000880F991FFC01EE52FE4FC591D491FC0196
:1009D000EC5DFA4FA591B491611109C09FB7F894ED
:1009E0008881209582238883EC912E230BC062306E
:1009F00061F49FB7F8943881822F80958323888390
:100A0000EC912E2B2C939FBF06C08FB7F894E881F2
:100A10002E2B28838FBFDF91CF9108951092C000B5
:100A20008CE08093C10086E38093C2001092C500E1
:100A300082E38093C40062E080E00E94D20462E01E
:100A400081E00C94D204CF93DF93EC010E940E0559
:100A5000FE01329680E8DF011D928A95E9F7DE01FA
:100A6000AE57BF4F1196FC93EE9312961196FC93DE
:100A7000EE93EC57FF4F1082319610821182128252
:100A8000138217961196FC93EE931296ED93FC93B6
:100A90003896108231961082D0939103C0939003C0
:100AA000DF91CF9108958E3008F08E50877080646A
:100AB00080937C0080917A00806480937A0080919A
:100AC0007A0086FDFCCF809178002091790090E03B
:100AD000922B08958F929F92AF92BF92CF92DF9206
:100AE000EF92FF926B017C010E940C034B015C01B1
:100AF000C114D104E104F104F1F00E940C03DC0103
:100B0000CB0188199909AA09BB09883E9340A10520
:100B1000B10570F321E0C21AD108E108F10888EEAE
:100B2000880E83E0981EA11CB11CC114D104E104FD
:100B3000F10419F7DDCFFF90EF90DF90CF90BF90D9
:100B4000AF909F908F9008952FB7F89460917404A0
:100B50007091750480917604909177042FBF089569
:100B60001F920F920FB60F9211242F933F938F93E2
:100B70009F93AF93BF938091740490917504A0915B
:100B80007604B09177043091730426E0230F2D375B
:100B900020F40296A11DB11D05C029E8230F03967C
:100BA000A11DB11D20937304809374049093750468
:100BB000A0937604B093770480917804909179049F
:100BC000A0917A04B0917B040196A11DB11D809380
:100BD000780490937904A0937A04B0937B04BF9136
:100BE000AF919F918F913F912F910F900FBE0F90DA
:100BF0001F9018951F920F920FB60F9211242F93EA
:100C00008F939F93EF93FF9380916F008B7F8093DF
:100C10006F00809181008F7B8093810080912B03F6
:100C200020912204205890912104893020F4969537
:100C3000922B8F5FFACF9093210480912A038F5FCC
:100C4000803508F080E020912903821739F0E82FE1
:100C5000F0E0ED5DFB4F908380932A0310922B030D
:100C6000809181008F7B8093810010922204FF91FC
:100C7000EF919F918F912F910F900FBE0F901F902A
:100C800018951F920F920FB60F9211242F933F9336
:100C90004F935F936F937F938F939F93AF93BF9384
:100CA000EF93FF93809186009091870040912204FA
:100CB00020918100442331F02F7B209381001092FA
:100CC000220406C020642093810020E8209322049F
:100CD00030912B03311125C041116CC020912C03A0
:100CE00030912D03280F391F30938B0020938A00F9
:100CF00024E026BB20916F00246020936F00209198
:100D00002E0330912F03820F931F36952795820F64
:100D1000931F9093200480931F0481E080932B0302
:100D200049C040911F045091200460912E0370919E
:100D30002F03DB01A095B09520912104E0912204BE
:100D4000841B950BA817B90768F126952E2B460F23
:100D5000571F3F5F861B970B3930A0F32093210468
:100D600080916F008B7F80936F0080912A038F5F4B
:100D7000803508F080E090912903891749F0E82F29
:100D8000F0E090912104ED5DFB4F908380932A0366
:100D9000809181008F7B80938100109222041092B9
:100DA0002B0308C0209321045093200440931F0478
:100DB00030932B03FF91EF91BF91AF919F918F9152
:100DC0007F916F915F914F913F912F910F900FBE47
:100DD0000F901F9018951F920F920FB60F9211242B
:100DE0002F933F934F935F936F937F938F939F9333
:100DF000EF93FF938091280360911E042091880057
:100E00003091890040912E0350912F0390911D0441
:100E10008A30F8F4240F351F893019F0762F71705D
:100E200001C071E066958F5F791791F39091800012
:100E3000772311F0906C02C09F73906890938000AC
:100E4000309389002093880070931D0460931E04E2
:100E50004AC090912703E09126039E1319C08A305F
:100E600051F48BE080932803240F351F30938900C1
:100E7000209388003AC010922803809180008F73DD
:100E80008093800080916F008D7F80936F002DC0D4
:100E9000EF5FE43408F0E0E0E0932603F0E0E7528F
:100EA000FC4F908190931E0410921D04909180003D
:100EB0009F739068909380008A3059F480912E033C
:100EC00090912F03280F391F3093890020938800B9
:100ED00009C080918400909185004096909389008C
:100EE0008093880081E080932803FF91EF919F9188
:100EF0008F917F916F915F914F913F912F910F90C3
:100F00000FBE0F901F901895CF93DF93EC018A8549
:100F10009B85AC85BD858E839F83A887B9870E94FA
:100F2000A4056A837B838C839D8381E08983888386
:100F3000DF91CF9108954F925F926F927F928F923F
:100F40009F92AF92BF92CF92DF92EF92FF920F9358
:100F50001F93CF93DF93CDB7DEB760970FB6F894AA
:100F6000DEBF0FBECDBF69837A838B839C83CA01AA
:100F7000B90127013801A60195010E94E22C25E361
:100F80003AEF4EE85CE30E9420306B017C010E9446
:100F9000DD306D877E878F87988BC701B6010E94F1
:100FA000C62D6D837E838F83988725E33AEF4EE8C5
:100FB0005CE369817A818B819C810E9420306B0186
:100FC0007C0125E33AEF4EE85CE3C301B2010E94E5
:100FD00020302B013C01C701B6010E94DD304B01DE
:100FE0005C01C701B6010E94C62D69837A838B8399
:100FF0009C83C301B2010E94DD3069877A878B87A9
:101000009C87C301B2010E94C62D6B017C0129851A
:101010003A854B855C8569817A818B819C810E94B0
:1010200020302B013C01A7019601C501B4010E94AB
:1010300020302D813E814F8158850E9420309B01B8
:10104000AC01C301B2010E94E22C9B01AC010E94E1
:1010500020302B013C012D853E854F855889C701E5
:10106000B6010E9420309B01AC010E9420309B0100
:10107000AC01C301B2010E94E32C0E94EB302B01B2
:101080003C0129853A854B855C85C501B4010E94E8
:1010900020304B015C01A701960169817A818B8127
:1010A0009C810E9420302D813E814F8158850E9475
:1010B00020309B01AC01C501B4010E94E32C9B01CF
:1010C000AC01C301B2010E94622D26E73BE742EC6E
:1010D0005AE40E94203060960FB6F894DEBF0FBE2F
:1010E000CDBFDF91CF911F910F91FF90EF90DF90D7
:1010F000CF90BF90AF909F908F907F906F905F90B8
:101100004F9008952F923F924F925F926F927F92ED
:101110008F929F92AF92BF92CF92DF92EF92FF9207
:101120000F931F93CF93DF93D82FC92F8B010E946A
:10113000872C24E630E040E050E00E942C32490148
:101140005A019B01AC0160E876E988E990E00E94D1
:101150001C326B017C01F80191828082ED2FFC2F03
:101160002191822F022E000C990BC0970A97C0F391
:101170002E3239F51F0180E8882E86E9982E88E9FD
:10118000A82EB12C9AE0492E512C612C712CF10122
:10119000C1911F010C2E000CDD0BE097CA30D10568
:1011A00080F4C501B401A30192010E942C324901CF
:1011B0005A01DE010E947E32C60ED71EE81EF91EBD
:1011C000E6CFA5E0B0E0A70196010E9473326F5F01
:1011D0007F4F8F4F9F4F23E030E040E050E00E9470
:1011E0002C32F80122833383448355831682DF91A6
:1011F000CF911F910F91FF90EF90DF90CF90BF9014
:10120000AF909F908F907F906F905F904F903F90A6
:101210002F900895FF920F931F93CF93DF93EC01CC
:10122000FF24F39488818D3211F0F12C01C02196B6
:10123000CE010E94872C9B01AC01A4E6B0E00E9485
:101240007332FE014991242F042E000C330B2053DE
:1012500031092A303105A8F34E3241F52181022EA1
:10126000000C330B205331092A303105F8F44AE0E1
:10127000429F8001439F100D1124012E000C220B70
:10128000330B600F711F821F931F0281002E000C11
:10129000110B005311090A30110540F4012E000C06
:1012A000220B330B600F711F821F931FFF2039F039
:1012B00090958095709561957F4F8F4F9F4FDF91EF
:1012C000CF911F910F91FF9008951F920F920FB62B
:1012D0000F9211242F933F934F935F936F937F93BC
:1012E0008F939F93AF93BF93EF93FF938091B90038
:1012F000887F803609F49CC068F5883209F45BC0A9
:1013000090F4803109F454C038F4882309F4F6C00D
:10131000883009F44DC0F6C0883109F44CC08032E1
:1013200009F45DC0EFC0803409F468C048F480332C
:1013300009F455C0883309F0E5C08093C204D8C0D1
:10134000803509F44FC0883509F45DC0883409F050
:10135000D9C0D6C0883909F4C7C0A8F4883709F4C1
:1013600067C038F4883609F463C0803709F460C078
:10137000C9C0883809F4B8C0803909F45FC0803822
:1013800009F0C0C05BC0803B09F486C038F4803AE5
:1013900009F466C0883A09F47FC0B4C0803C09F4FF
:1013A000A7C0883C09F4A4C0883B09F48AC0AAC03D
:1013B00080919F0410C09091C1048091C00498173F
:1013C00070F5E091C10481E08E0F8093C104F0E0DC
:1013D000E056FB4F80818093BB0085EC86C08093F4
:1013E000C2048EC0E091C10481E08E0F8093C104DD
:1013F0008091BB00F0E0E056FB4F80839091C104E8
:101400008091C0046EC0E091C10481E08E0F809392
:10141000C1048091BB00F0E0E056FB4F80838091D7
:10142000C30481116DC081E080939E0484EA61C091
:1014300083E08093C4041092D803CFCF8091D80367
:10144000803208F051C0E091D80381E08E0F809384
:10145000D8038091BB00F0E0E854FC4F8083BDCFFF
:1014600085EC8093BC001092C4048091D803803234
:1014700030F4E091D803F0E0E854FC4F1082609122
:10148000D80370E0E091B603F091B70388EB93E0E6
:1014900009951092D80336C084E08093C40410925A
:1014A000B5031092B403E091B203F091B303099530
:1014B0008091B403811105C081E08093B403109240
:1014C0009203E091B50381E08E0F8093B503F0E0C5
:1014D000EE56FC4F80818093BB009091B5038091C4
:1014E000B403981708F479CF85E88093BC000AC04C
:1014F00085EC8093BC001092C40404C01092C20416
:101500000E94A703FF91EF91BF91AF919F918F919F
:101510007F916F915F914F913F912F910F900FBEEF
:101520000F901F9018951F920F920FB60F921124D3
:101530002F933F938F939F93AF93BF93EF93FF931B
:101540008091C600803FF1F0982F9F70D9F42091D0
:10155000900330919103F901E557FF4FA081B181CC
:101560008C93D901A157BF4F8C918F5F8C93808151
:10157000918101968E179F0718F0C90189579F4FD7
:1015800091838083FF91EF91BF91AF919F918F9154
:101590003F912F910F900FBE0F901F9018951F92A3
:1015A0000F920FB60F9211242F933F934F935F9397
:1015B0008F939F93EF93FF9380919003909191036A
:1015C000FC01EA57FF4F2081222351F1329701900D
:1015D000F081E02D208131818091C10030FF02C077
:1015E000816001C08E7F8093C1002093C60020914E
:1015F000900330919103F901EA57FF4F80818150A8
:1016000080833297808191810296A9014E575F4F66
:101610008417950710F0C9010296918380830DC04D
:101620008091C1008F7D80648093C100E091900320
:10163000F0919103E057FF4F1082FF91EF919F913E
:101640008F915F914F913F912F910F900FBE0F900F
:101650001F9018951F920F920FB60F9211242F937F
:101660003F938F939F93EF93FF93E1ECF0E08081A2
:10167000877B8069808380919003909191039C0186
:1016800029573F4FFC01E557FF4F318320833296A6
:101690003183208332961082FF91EF919F918F9139
:1016A0003F912F910F900FBE0F901F901895CF92E2
:1016B000DF92EF92FF920F931F93CF93DF93CDB7FB
:1016C000DEB76E970FB6F894DEBF0FBECDBF8C01AC
:1016D0007B016A012EE1269FC001279F900D1124F6
:1016E000DA015A966D917C915B97680F791F4EE1F4
:1016F00050E0CE0101960E94AE2C8D8DF801868FB0
:1017000089818283EE0CFF1CEE0CFF1CD6015C96D7
:10171000ED91FC915D97EE0DFF1D80819181A2817D
:10172000B381F80183839483A583B683A801485FBE
:101730005F4FFE013296DA0190E08191811106C07F
:10174000392FD8015C969C93232F0FC0933119F049
:101750009F5F8D93F2CF33E1F4CF8331910594F401
:10176000FA01E80FF91F70832F5F622F631BE1E01E
:10177000F0E0EC0FFD1FE60FF11D7589822F90E060
:101780007111EBCFF801658FFA01E80FF91F108294
:101790008E8D813031F0823041F480E4F801878F02
:1017A00004C080E2D8015F968C93D8015E968C913C
:1017B000843091F030F4882361F08130A1F483E02B
:1017C0000FC0883041F0893051F0853061F484E0F9
:1017D00007C082E001C085E0F80180A304C085E075
:1017E000D80190968C936E960FB6F894DEBF0FBE1C
:1017F000CDBFDF91CF911F910F91FF90EF90DF90C0
:10180000CF9008950C94D42C0C94CC2C2091E70408
:1018100090919106213208F04AC08091C404811150
:10182000FCCF32E03093C40431E03093C3043FEF87
:101830003093C2041092C1042093C004A7ECB4E01A
:1018400040EA54E0FA013E2F341B321718F43D9160
:101850003193F9CF10929F0420919F04990F922BFE
:1018600090939F0490919E04913061F410929E0495
:1018700090919F049093BB009091BC0093FDF8CF92
:1018800095EC01C095EE9093BC009091C404923009
:10189000E1F39091C2049F3F79F08091C2048032BD
:1018A00041F08091C204803331F084E005C081E0D2
:1018B00003C082E001C083E01092C6041092E704E6
:1018C0001092C504089591E09093C5048093910609
:1018D0001092C6041092E7040895CF93DF93D82F97
:1018E000C62F80911E050E94630C6D2F88EE94E038
:1018F0000E9435046C2F88EE94E00E943504DF913D
:10190000CF910C94060C9091C4049111FCCF91E0FE
:101910009093C4049093C3042FEF2093C2041092B9
:10192000C104260F2093C00490939F0490919F04BC
:10193000880F892B80939F0480919E04813061F4ED
:1019400010929E0480919F048093BB008091BC0004
:1019500083FDF8CF85EC01C085EE8093BC008091BB
:10196000C4048130E1F38091C104861710F46091C2
:10197000C104A0EAB4E02EE734E0F9018E2F821B07
:10198000861718F48D918193F9CF862F08956132CF
:1019900008F060E20E94830C10927D0480937C0426
:1019A00008950F931F93CF93DF931F92CDB7DEB7A8
:1019B000682F0EE115E0F801808169830E94630CB5
:1019C000698188EE94E00E9435040E94060C61E073
:1019D000F80180810E94C70C88EE94E00E94E90320
:1019E0000F90DF91CF911F910F910895CF92DF92C9
:1019F000EF92FF920F931F93CF93DF931F92CDB778
:101A0000DEB7682F0EE115E0F801808169830E943E
:101A1000630C698188EE94E00E9435040E94060CF4
:101A200063E0F80180810E94C70C88EE94E00E9478
:101A3000E9036C01990FEE08FF08FE2CED2CDC2C5D
:101A4000CC2488EE94E00E94E903AC01990F660B68
:101A5000770BC42AD52AE62AF72AFE2CED2CDC2C9B
:101A6000CC2488EE94E00E94E903092E000CAA0B16
:101A7000BB0BBC01CD016C297D298E299F290F90BC
:101A8000DF91CF911F910F91FF90EF90DF90CF905A
:101A900008950F931F93CF93DF931F92CDB7DEB7B7
:101AA000682F0EE115E0F801808169830E94630CC4
:101AB000698188EE94E00E9435040E94060C62E081
:101AC000F80180810E94C70C88EE94E00E94E9032F
:101AD000182F88EE94E00E94E90320E030E0312FD7
:101AE000822B932B0F90DF91CF911F910F9108952F
:101AF0000E94490D9827892798270895CF9366EB70
:101B000080EE0E946D0C64E670E080E090E00E9440
:101B10006A0588E80E94780D90932905809328052E
:101B20008AE80E94780D90932B0580932A058CE813
:101B30000E94780D90932D0580932C058EE80E94CD
:101B4000780D90932F0580932E0580E90E94780DE3
:101B5000909331058093300582E90E94780D90932F
:101B600033058093320584E90E94780D9093350502
:101B70008093340586E90E94780D90933705809311
:101B8000360588E90E94780D9093390580933805D1
:101B90008AE90E94780D90933B0580933A058CE981
:101BA0000E94780D90933D0580933C058EE90E943C
:101BB000780D90933F0580933E0580911F058230FC
:101BC00009F03FC081EA0E94D10C8093400581EE6C
:101BD0000E94780D909342058093410583EE0E9408
:101BE000D10C8093430584EE0E94D10CC82F85EE62
:101BF0000E94D10C282F2F7030E1C39FC001112407
:101C0000822B909345058093440586EE0E94D10C6B
:101C1000C82F85EE0E94D10C90E024E09595879521
:101C20002A95E1F740E1C49F90011124822B932B68
:101C3000909347058093460587EE0E94D10C8093D0
:101C4000480589ED80934A0580914B058F7180622C
:101C500080934B0580914905807C80628093490583
:101C600080911F05823021F461E082EF0E946D0CAB
:101C700090914905692F677080E2689F9001112457
:101C8000892F869586958695877048E0849FB00158
:101C90001124622B732B97FB992790F9692B85EF01
:101CA0000E946D0C90914A05692F677080E2689FD1
:101CB00090011124892F869586958695877048E036
:101CC000849FB0011124622B732B92959695969563
:101CD0009370692B84EFCF910C946D0C90E0FC0114
:101CE000EA5AFA4F2491FC01EE5BFA4F3491FC0161
:101CF000E25DFA4FE491EE23B1F1222339F1233072
:101D000091F038F42130A9F0223001F584B58F7DAF
:101D100012C0273091F02830A1F02430B9F480911E
:101D200080008F7D03C0809180008F77809380003A
:101D30000DC084B58F7784BD09C08091B0008F77C6
:101D400003C08091B0008F7D8093B000F0E0EE0F73
:101D5000FF1FEC5DFA4FA591B4918FB7F894EC9109
:101D60003E2B3C938FBF089510927D0410927C040B
:101D70001092C6041092E7041092C40481E080938C
:101D8000C30410929E0482E10E946E0E83E10E94C1
:101D90006E0EE9EBF0E080818E7F808380818D7F05
:101DA000808380E28093B80085E48093BC0008952E
:101DB00080931E050E94B40E80ED0E94D10C8835E0
:101DC00021F0803641F482E001C081E080931F055C
:101DD0000E947E0D02C010921F0580911F0590E0A9
:101DE00008958F929F92AF92BF92CF92DF92EF921F
:101DF000FF928AEF0E94F60CEEE1F5E042855385F2
:101E00004A01A12CB12CC72ED82EE92EFF24E7FCC5
:101E1000FA94C818D908EA08FB08DC01CB0137E0BE
:101E2000B595A795979587953A95D1F7B501A401F2
:101E3000440F551F661F771F4C015D01841A950AD8
:101E4000A60AB70AA5019401A485B5850E947E3231
:101E50004B015C013BE0B594A794979487943A9525
:101E6000D1F7A7019601C701B6010E941C329B0160
:101E7000AC016CE055954795379527956A95D1F754
:101E8000A685B7850E947E32DC01CB017EE0B59548
:101E9000A795979587957A95D1F7A5019401280F75
:101EA000391F4A1F5B1F2683378340875187A5E070
:101EB000B0E00E947332DC01CB0180589F4FAF4FDE
:101EC000BF4F692F7A2F8B2F992787FD9A950E94F4
:101ED0007B2E20E030E048EC52E40E94CB2DFF90B6
:101EE000EF90DF90CF90BF90AF909F908F9008952C
:101EF0002F923F924F925F926F927F928F929F921A
:101F0000AF92BF92CF92DF92EF92FF920F931F9307
:101F1000CF93DF93CDB7DEB7A2970FB6F894DEBFAD
:101F20000FBECDBF0E94F10E87EF0E94F60C6A8FA4
:101F30007B8F8C8F9D8F8091240590912505A0919A
:101F40002605B09127056C017D01FF0CCC08DC2C27
:101F500076019C01AD016C2D7C2D8C2D9C2D345F68
:101F60004140510961097109810991092AA339A3E5
:101F700049835A836B837C838D839E8359016A01D5
:101F80007B018C010E9486322A8B3B8B4C8B5D8BB4
:101F90006E8B7F8B888F998F809138058E8FE09123
:101FA0003905EF83F0913605FF8F809137058887DB
:101FB000E0913405E8A3F0913505F987B09031053B
:101FC000A09030051B2D110F110BC12ED12EE12E2B
:101FD000F12E012F2AA139A149815A816B817C817F
:101FE0008D819E810E9486320CE00E94F03319019F
:101FF0002A013B014C01B0903305A09032051B2D06
:10200000110F110BC12ED12EE12EF12E012F2A8995
:102010003B894C895D896E897F89888D998D0E9465
:10202000863208E00E940934510162017301840183
:102030000E94273470588F4F9F4F20902E0530906C
:102040002F055101C12CD12CE12CF12C00E010E026
:102050000E94863201E20E9409342A873B874C871E
:102060005D876E877F87888B998BA0E00E944534BF
:1020700009F45EC1AE8C1F81110F110BBF80C12E00
:10208000D12EE12EF12E012F2A893B894C895D89C1
:102090006E897F89888D998D0E94863219012A0167
:1020A0003B014C01AF8C1885110F110BB884C12E68
:1020B000D12EE12EF12E012F2AA139A149815A8179
:1020C0006B817C818D819E810E94863201E10E941C
:1020D000F03359016A017B018C019101A201B30126
:1020E000C4010E94273419012A013B014C014A8D89
:1020F0005B8D6C8D7D8D84E07595679557954795C3
:102100008A95D1F780E090E0A0E1B0E0841B950BC8
:10211000A60BB70B6C017D01FF0CCC08DC2C760103
:102120009C01AD016C2D7C2D8C2D9C2D0FE10E940E
:10213000F033F901B42FA52F6C837D8389839A83B3
:1021400028A19985990F990B3985492F592F692F06
:10215000792F892F03E20E94F03359016A017B0134
:102160008C019101A201B301C4010E9427345901DD
:102170006A017B018C019F014B2F5A2F6C817D815D
:1021800089819A810E943C344901542E652EB62FD4
:10219000A72FF82FE92F03E00E94F0335401C52C3C
:1021A000D62CEB2EFA2E0F2F1E2F0E943C345901F5
:1021B0006A017B01782E192F03E00E94F033072D6E
:1021C0000E943C3403E00E94F0335401C52CD62C0D
:1021D000EB2EFA2E0F2F1E2F0E943C3402E00E949D
:1021E000F0330F2F0E943C3401E00E94F0330F2F98
:1021F0000E943C34AA84BB84CC84DD84EE84FF84BA
:10220000088919890E941B3328873F8349835A8391
:102210006B837C838D839E830DE00E940934922E14
:10222000832E742E652E562E472E382E292E309151
:102230003F0520913E05932F990F990BA92CB82C9F
:10224000C72CD62CE52CF42C032D122D492F592FF9
:10225000692F792F892F0E9486320E94863209E1E8
:102260000E94093459016A017B018C0128853F8154
:1022700049815A816B817C818D819E810E942734A6
:1022800019012A013B014C0130913D0520913C058B
:10229000932F990F990BA884BF80C980DA80EB80B7
:1022A000FC800D811E81492F592F692F792F892F8D
:1022B0000E94863203E10E94093459016A017B01C0
:1022C0008C019101A201B301C4010E94273408E0EE
:1022D0000E940934522E632E742E852E962EF72FCF
:1022E000E82FB92F30913B0520913A05932F990F94
:1022F000990B492F592F692F792F892F04E00E94BC
:10230000F03359016A017B018C01252D362D472DB3
:10231000582D692D7F2F8E2F9B2F0E9427340E94CE
:10232000732E20E030E040E85BE30E94203003C0E1
:1023300060E070E0CB01A2960FB6F894DEBF0FBE4E
:10234000CDBFDF91CF911F910F91FF90EF90DF9064
:10235000CF90BF90AF909F908F907F906F905F9045
:102360004F903F902F90089561157105D1F001971E
:1023700019F4EDE7F6E002C0EDE6F6E0DB019F01BF
:10238000205F3F4F80E040E29D91992321F0811131
:1023900002C0908302C0408381E03196E217F307C8
:1023A00099F70895FF920F931F93CF93DF93CDB7C3
:1023B000DEB76E970FB6F894DEBF0FBECDBF10929A
:1023C0002406109223068CED91E0909320068093D2
:1023D0001F0680E2E7E2F6E0DF011D928A95E9F749
:1023E000F12C00E010E060911F0670912006600F54
:1023F000711F4EE150E0CE0101960E94AE2CE981A2
:10240000EE23B1F0E03220F4F0E0EB5FF94FF2A2FE
:102410008091230690912406019690932406809340
:102420002306025E1F4FF394003CB3E01B07D9F66E
:102430006E960FB6F894DEBF0FBECDBFDF91CF9181
:102440001F910F91FF900895CF93DF9380914B06DA
:1024500090914C06DC01ED91FC910280F381E02D1E
:1024600040E06EEF099580916D06882311F1CDE66D
:10247000D6E080914B0690914C066991DC01ED917C
:10248000FC910280F381E02D41E00995B6E0CD3862
:10249000DB0779F780914B0690914C06DC01ED91BA
:1024A000FC910280F381E02D40E06FEFDF91CF914E
:1024B0000994C0E2D0E080914B0690914C06DC017B
:1024C000ED91FC910280F381E02D41E060E00995FF
:1024D000219789F7DFCF2F923F924F925F926F92B1
:1024E0007F929F92AF92BF92CF92DF92EF92FF9234
:1024F0000F931F93CF93DF93CDB7DEB7A1970FB69E
:10250000F894DEBF0FBECDBF811118C010924F06E8
:102510001092550610911E06812F880F880F880F84
:1025200080935606412F50E06AE076E087E596E01A
:102530000E94A535BAE09B2E910EA8C1282F2695A2
:1025400030E04091230650912406421753070CF4C3
:1025500073C080FD71C000E010E0CC24CA94DC2C74
:1025600076018091230690912406081719070CF034
:1025700061C020912606622F70E01B82CC82DD8232
:10258000EE82FF821D8E1E8E1F8E18A219A2FB01E5
:10259000A3E0F595E795AA95E1F7E95BF94F80810E
:1025A00090E0277002C0959587952A95E2F7817093
:1025B00099278887892B31F045E056E0CE010196B6
:1025C0000E94570B809126068F5F8093260690E02D
:1025D00020912306309124068217930714F010925D
:1025E00026068885882319F110924F068B818093E7
:1025F00055068D8D28E0829FC00111249E8D892B68
:102600008093560680E02AE0280FE9E0F0E0EC0F26
:10261000FD1FE80FF11D9081992339F08F5FE22FA4
:10262000F0E0E35BF94F9083EECF922E2FC10F5F66
:102630001F4F97CF912C2AC180E480934F0600E072
:1026400010E058E0952ECC24CA94DC2C76017AE177
:10265000672E712C20912506622F70E01B82CC82A0
:10266000DD82EE82FF821D8E1E8E1F8E18A219A2A1
:10267000FB0143E0F595E7954A95E1F7E95BF94FF2
:10268000808190E0277002C0959587952A95E2F7A2
:10269000817099278887892B31F045E056E0CE017B
:1026A00001960E94570B809125068F5F8093250627
:1026B00090E0A0902306B09024068A159B0514F0A4
:1026C000109225068885882309F4D0C08C819D81CD
:1026D000AE81BF818F3F5FEF9507A507B50709F46E
:1026E000C5C03B81692D70E04F8D51E0590D3031EF
:1026F00068F0635B794F242F2F70FB01208322E069
:10270000290DE52FF0E0E35BF94F0BC0252F635B4C
:10271000794F50E1359FF0011124342F3F703E2B4B
:10272000FB01308369A170E030E04430B9F128F456
:10273000442369F04130D9F095C0483009F466C0AF
:10274000493009F480C0453009F08CC042C0482FA0
:102750004F71B7FD02C080E001C080E8F901E35B82
:10276000F94F842B98A1892B808381E07CC0F901EB
:10277000E35BF94F8083A9014F5F5F4FE92FEF7152
:10278000B7FD02C080E001C080E8DA01A35BB94F69
:102790008E2B98A1892B8C9382E065C0A9014B5F99
:1027A000594FFA01E85BFF4F808331969083A9016E
:1027B0004E5F5F4FEA2FEF71B7FD02C080E001C0AE
:1027C00080E8DA01A35BB94F8E2B98A1892B8C93FB
:1027D0001BC0A9014B5F594FFA01E85BFF4F808393
:1027E00031969083A9014E5F5F4F1D01552437FC40
:1027F0005094452CB7FD02C080E001C080E8FA018A
:10280000E35BF94F282A208283E02DC0A9014B5FAA
:10281000594FFA01E85BFF4F8083319690833196E0
:10282000A083A9014D5F5F4FEB2FEF71B7FD02C091
:1028300080E001C080E8DA01A35BB94F8E2B98A13C
:10284000892B8C930DC0A9014B5F594FFA01E85BAE
:10285000FF4F8083319690833196A0833196B08369
:1028600084E001C080E0982E920E02C060E070E02B
:102870000F5F1F4F0A151B054CF4892D90E0930143
:10288000261B370B821793070CF4E4CE8EE7809358
:102890004D068FE280934E0680914F069EEF990D74
:1028A000892B80934F0689E08093500684EA8093B9
:1028B000510680918F0680935206809190068093F6
:1028C000530610925406292D30E0EFE4F6E080E044
:1028D00092E09E1B57E0492F4E0F491560F441913D
:1028E000842748E087FF03C0880F852701C0880F31
:1028F0004150C1F7F0CFF901E35BF94F808380913C
:102900004B0690914C06DC01ED91FC910280F38125
:10291000E02D40E06EE7099511E0911698F0809166
:102920004B0690914C06DC01ED91FC91A12FB0E09B
:10293000A35BB94F0280F381E02D41E06C910995D2
:102940001F5FEBCFA1960FB6F894DEBF0FBECDBFD1
:10295000DF91CF911F910F91FF90EF90DF90CF907B
:10296000BF90AF909F907F906F905F904F903F90FF
:102970002F900895CF93DF931F92CDB7DEB72091AC
:10298000230630912406232B21F489830E94D2113F
:1029900089818032D0F4E82FF0E0EB5FF94F82A11B
:1029A000E82FF0E093E0F595E7959A95E1F7E95B7C
:1029B000F94F282F277081E090E001C0880F2A95F9
:1029C000EAF78095908189238083109209061092FE
:1029D0002606109225060F90DF91CF91089581323F
:1029E00008F080E2682F87E70E94830C10927D0434
:1029F00080937C040895682F88EE94E00C9435044D
:102A0000CF93DF931F92CDB7DEB7682F8091130568
:102A100069830E94630C80E290E00E94FB1469814C
:102A200088EE94E00E9435040F90DF91CF910C94D2
:102A3000060CCF93C82F0E94630C8FE090E00E9499
:102A4000FB140E94060C61E08C2F0E94C70C909131
:102A50007C0480917D04981729F088EE94E0CF9152
:102A60000C94E9038FEF9FEFCF91089520912106F9
:102A7000309122062115310589F0803278F4E82F53
:102A8000F0E0EB5FF94F82A1F90194E0899FE00D3E
:102A9000F11D1124408351836283738308954F9203
:102AA0005F926F927F92AF92BF92CF92DF92EF923E
:102AB000FF920F931F93CF93DF9300D000D0CDB739
:102AC000DEB7082FA62E69017A01AE014F5F5F4F76
:102AD000C701B6010E94EC2F2B013C0189819A812C
:102AE000AB81BC81BC01CD019F770E94442EB62EE4
:102AF000172F2AE939E949E15FE3C301B2010E94D6
:102B0000203020E030E543EC57E40E9420309F77EE
:102B10000E94442E3B011170A11002C090E001C040
:102B200090E2192B20E030E0A901C701B6010E9414
:102B3000C12D881F8827881F8295880F880F807C69
:102B4000712F782BA3016B2D802F0F900F900F907A
:102B50000F90DF91CF911F910F91FF90EF90DF9039
:102B6000CF90BF90AF907F906F905F904F900C94FC
:102B70003615CF92DF92EF92FF9210925905609135
:102B800061057091620580E090E00E94792E6B01F2
:102B90007C01609163057091640580916505909159
:102BA00066050E94792E28E23BE64EE65EE40E942E
:102BB000CB2D9B01AC01C701B6010E94E32C2091F3
:102BC000670521119058FF90EF90DF90CF90089506
:102BD000CF92DF92EF92FF921092590560915A05C1
:102BE00070915B0580E090E00E94792E6B017C0182
:102BF00060915C0570915D0580915E0590915F0527
:102C00000E94792E28E23BE64EE65EE40E94CB2D40
:102C10009B01AC01C701B6010E94E32C2091600525
:102C200021119058FF90EF90DF90CF9008951F935F
:102C3000CF93DF9387E70E94630C60E088EE94E017
:102C40000E9435040E94060C87E70E94630C83E013
:102C500090E00E94EF1490917C0480917D0498177D
:102C6000F1F388EE94E00E94E903D82F88EE94E017
:102C70000E94E903182F88EE94E00E94E903C82F10
:102C80000E94060C812F90E0A0E0B0E0BA2FA92F9F
:102C9000982F8827AD2BBC01CD016C2BDF91CF91F4
:102CA0001F910895CF93DF9387E70E94630CC2E9D9
:102CB000D6E08D8590E0805B9F4F0E94FB140E94C0
:102CC000060C6C8570E080E090E00E946A05DF9160
:102CD000CF910C941716CF93DF93CDB7DEB7AD9796
:102CE0000FB6F894DEBF0FBECDBF789484B5826076
:102CF00084BD84B5816084BD85B5826085BD85B5A0
:102D0000816085BD80916E00816080936E0010921D
:102D10008100809181008260809381008091810098
:102D20008160809381008091800081608093800029
:102D30008091B10084608093B1008091B000816087
:102D40008093B00080917A00846080937A008091B3
:102D50007A00826080937A0080917A008E7F8093DF
:102D60007A0080917A00806880937A001092C10086
:102D70001092610381E080936203109273031092BA
:102D80007403109275031092760386E70E94D80EA2
:102D900080930405811105C087E70E94D80E8093B7
:102DA000040580910405811148C08DE580931305C9
:102DB0000E9419158D3B910541F481E090E09093BC
:102DC0001205809311050C94272A8B3B910511F075
:102DD0000C944C2A10921205109211050C94272A7B
:102DE000019711F00C945B2A84E290E09093170510
:102DF0008093160585E290E090931905809318055D
:102E000080E390E090931B0580931A0581E390E0A6
:102E100090931D0580931C050E94B40E80911105AE
:102E2000909112058130910511F00C94452A80EBA8
:102E30000E94001584E0809304058091040582308F
:102E400049F018F4813031F04AC0833041F18430C8
:102E500031F145C08EEA97E4A1E6BFE38093050512
:102E600090930605A0930705B09308058AE999E9B0
:102E7000A9E1BEE38093090590930A05A0930B0591
:102E8000B0930C0585E090E0A0E0B0E080930D05E4
:102E900090930E05A0930F05B093100520C08DEC04
:102EA0009CECACE4BFE38093050590930605A093EA
:102EB0000705B09308058DEC9CECACE4BEE3809371
:102EC000090590930A05A0930B05B0930C05109289
:102ED0000D0510920E0510920F051092100581E05D
:102EE00090E00E94040C8F3F11F08093610382E018
:102EF00090E00E94040C8F3F31F091E0811101C0FD
:102F000090E09093620303E010E0C8010E94040C7B
:102F10008F3F21F0F801E059FC4F80830F5F1F4F76
:102F20000730110591F78AE090E00E94040C8F3F72
:102F3000A1F0682F70E080E090E00E94792E20E000
:102F400030E048EC52E40E94CB2D6093050570936D
:102F5000060580930705909308058BE090E00E949A
:102F6000040C8F3FA1F0682F70E080E090E00E9499
:102F7000792E20E030E048EC52E40E94CB2D6093A3
:102F8000090570930A0580930B0590930C058CE05E
:102F900090E00E94040C8F3F59F090E0A0E0B0E078
:102FA00080930D0590930E05A0930F05B093100527
:102FB00010926F001092800081E88093810081E47C
:102FC00093E090932F0380932E0389E19EE19093E9
:102FD0002D0380932C0362E088E00E94D20489E0F4
:102FE0000E946E0E61E089E00E94D20410922B03D1
:102FF00010922A031092290310922803109227039B
:103000001092260380E286BB80936F0080910405B6
:10301000811103C086E00E94BA148091610381305F
:1030200021F080910405823019F08FE00E94BA14DB
:1030300080916103813021F080910405811106C0E7
:103040008DE00E94BA148EE00E94BA148091610350
:10305000811109C081E00E94BA1482E00E94BA1472
:1030600083E00E94BA148091610381110AC08091AB
:103070000405811106C084E00E94BA1485E00E9414
:10308000BA1480916103823091F087E00E94BA14F3
:1030900088E00E94BA1489E00E94BA148AE00E9473
:1030A000BA148BE00E94BA148CE00E94BA1403E7B1
:1030B00013E0F0E1EF2EF80181918F01823010F0E2
:1030C0008E2D0FC074E0F72EFE0CE8E0DE2EDE0C35
:1030D000813019F08E2D0E94BA148F2D0E94BA14DF
:1030E0008D2D0E94BA14E394F4E1EF12E4CF86E749
:1030F00080938F0682E38093900680911E06811153
:10310000ABC080E2EDE4F6E0DF011D928A95E9F7BD
:1031100040E250E060E270E08DE696E00E94AE355D
:1031200043E150E065E471E08AE096E00E94C53535
:1031300088E080931E068091230690912406892BB7
:1031400011F40E94D2110091230610912406013C33
:10315000BFE11B0730F4C801880F991F880F991F22
:1031600002C08FEF9FEF0E946034FC0120E030E04E
:103170004FEF5FEFBA012017310739F041935193B8
:10318000619371932F5F3F4FF6CF80932106909309
:10319000220681E990E00E94603421E9FC0111924D
:1031A0002A95E9F72BE031E0DC012D933C939093D5
:1031B0004C0680934B060E9423051092090610923C
:1031C0002606109225060E94A4056B017C01B0ED35
:1031D000CB0EB7E0DB1EE11CF11C80911F06909125
:1031E0002006892B61F10E94A4056C157D058E05D2
:1031F0009F0528F504E010E00E94241266E970E0C3
:1032000080E090E00E946A0501501109A9F700E0F2
:1032100010E0809123069091240680179107ECF22C
:10322000802F880F0E946B120E94241266E970E0C2
:1032300080E090E00E946A050F5F1F4FEACF809107
:103240004B0690914C06DC01ED91FC910480F581D8
:10325000E02D09958111F3CF0E94A40500918C0304
:1032600010918D0320918E0330918F03DC01CB01EF
:10327000801B910BA20BB30B853B9105A105B105FA
:1032800030F480916103811139C70C94F825809145
:103290000405882309F46AC68330D1F0843009F02C
:1032A00030C4809113050E94630C88EA90E00E946C
:1032B000FB140E94060C63E0809113050E94C70C6A
:1032C00080917C0490E020917D04821B910979C358
:1032D00087E70E94630C80919F0690E0805C9F4F7F
:1032E0000E94FB140E94060C60919E0670E080E034
:1032F00090E00E946A050E941716698B7A8B8B8B6F
:103300009C8B0E94521620919A0630919B0689014F
:1033100020E030E0322F212F102F00272B013C011D
:10332000401A510A620A730AE0919806F0919906D0
:103330008090940690909506940140E050E060E003
:1033400070E080E090E000E10E94F033F22E132F55
:103350001A014B01898399879F0140E050E0C30126
:10336000B2010E94DF32D22EE32E042FB52FF62FAA
:10337000E72FB82EC92EA0E00E9445345CF4AFE7D9
:103380000E943034D22EE32E042FB52FF62FE72FD4
:10339000B82EC92E2D2D3E2D402F5B2F6F2F7E2F47
:1033A0008B2D9C2D07E00E94093459016A01E62EFD
:1033B000F72F082FE92F2F2D312FA101B40189817B
:1033C0009985FF2E1E2F0E9427342D8B3B8F4C8F0B
:1033D0005D8F6E8F7F8F88A399A360919206709105
:1033E0009306A0909606B090970680E090E020E0CB
:1033F00030E840E050E00E94EE32D22EE32EF42E70
:10340000152F1B014C01950140E050E0C301B201B2
:103410000E94DF32022FA32E4983B52FF62FE72F0C
:10342000B82EC92EA0E00E94453484F421503F4FAD
:103430004F4F5F4F6F4F7F4F8F4F9F4F022FA32EE6
:103440004983B52FF62FE72FB82EC92E202F3A2DFE
:1034500049815B2F6F2F7E2F8B2D9C2D08E00E94C2
:1034600009345901C42EB52FA62FF72F082FE92FA5
:103470002D2D3E2D4F2D512FB101C401DB2EEA2EF3
:10348000FF2E1E2F0E9427342CA73DA74AA35BA323
:103490006CA37DA38EA39FA320919C0630919D06D3
:1034A00040E050E0C301B2010E94DF32F22E032F50
:1034B000142FB52FF62FE72FD82EE92EA0E00E946B
:1034C000453484F42150310940485F4F6F4F7F4F9E
:1034D0008F4F9F4FF22E032F142FB52FF62FE72F6C
:1034E000D82EE92E2F2D302F412F5B2F6F2F7E2FBF
:1034F0008D2D9E2D07E10E94093429833A834B8349
:103500005C836D837E838F839887C980DA80EB80AC
:10351000FC80B0EDCB0EB7E0DB1EE11CF11C10927D
:10352000A4061092A5061092A6061092A706109265
:10353000A8061092A9061092AA061092AB06109245
:10354000AC061092AD061092AE061092AF06109225
:10355000B0061092B1061092B2061092B306E0EDDA
:10356000CE16E7E0DE06E104F1040CF0C8C02981C4
:103570003A814B815C81CA01B9010E941C329B01D6
:10358000AC01A5E0B0E00E9473324B015C01B59440
:10359000A794979487942B013C01770C4408542CF2
:1035A00032018092A4069092A506A092A606B0923F
:1035B000A7064092A8064092A9064092AA06409209
:1035C000AB068B019C0142E0359527951795079531
:1035D0004A95D1F709871A872B873C870093AC0659
:1035E0001093AD062093AE063093AF064092B0061E
:1035F0004092B1064092B2064092B30614E2C11660
:103600001AEFD1061FEFE106F1060CF078C06981D0
:103610007A818B819C816455724F8F4F9F4F9B01A4
:10362000AC010E941C326D877E878F87988BA7E044
:10363000B0E09B01AC010E9473327B018C019B01C5
:10364000AC01550F220B322FA90129833A834B83FA
:103650005C839401A501642D742D842D942D570154
:103660006801E980FE2C0E2D1E2D0E942734209328
:10367000A4063093A5064093A6065093A706609330
:10368000A8067093A9068093AA069093AB06ABE0B8
:10369000B0E02D853E854F8558890E9473327B01AD
:1036A0008C0115950795F794E7949B01AC01550F94
:1036B000220B322FA90129833A834B835C8329850E
:1036C0003A854B855C85642D742D842D942D57018E
:1036D0006801E980FE2C0E2D1E2D0E9427342093B8
:1036E000AC063093AD064093AE065093AF066093A0
:1036F000B0067093B1068093B2069093B3068989A1
:103700009A89AB89BC891C012D012CA53DA54AA134
:103710005BA16CA17DA18EA19FA1A090AC06B090F1
:10372000AD06C090AE06D090AF06E090B006F09027
:10373000B1060091B2061091B3060E943C345901C3
:103740006A017B018C019101A20160E070E080E0E0
:1037500090E00E948632122FE32ED42EB52FF62F42
:10376000E72FF82E092FA0E00E94453484F4215061
:103770003109404E5F4F6F4F7F4F8F4F9F4F122F3A
:10378000E32ED42EB52FF62FE72FF82E092F212F59
:103790003E2D4D2D5B2F6F2F7E2F8F2D902F05E10E
:1037A0000E9409344901742E652EB62FA72FF82FD9
:1037B000E92F2D893B8D4C8D5D8D6E8D7F8D88A180
:1037C00099A1A090A406B090A506C090A606D0909E
:1037D000A706E090A806F090A9060091AA0610910D
:1037E000AB060E943C3459016A017B018C019401B3
:1037F000472D562D6B2F7A2F8F2F9E2F0E943C34F2
:10380000122FE32ED42EB52FF62FE72FF82E092FE7
:10381000A0E00E94453484F4215030484F4F5F4F60
:103820006F4F7F4F8F4F9F4F122FE32ED42EB52F08
:10383000F62FE72FF82E092F212F3E2D4D2D5B2F30
:103840006F2F7E2F8F2D902F0FE00E940934352E81
:103850002987232E4D87622F732F842F952F0E9447
:103860007B2E20E836EE45EC57E40E94CB2D2BEA68
:103870003CED42E45EE30E948D309B01AC0160E0D0
:1038800070E080E89FE30E94E22C20E03AE24DE203
:1038900057E40E94203020E030E048EC52E40E94DF
:1038A00020300E943D2E4B015C010E945216209157
:1038B0009A0630919B06890120E030E0322F212FBB
:1038C000102F00276B017C01C01AD10AE20AF30A0B
:1038D00020919C0630919D0640E050E0C701B60162
:1038E0000E94DF323901042FB52FF62FE72F2C016C
:1038F000A0E00E94453474F42150310940485F4FE4
:103900006F4F7F4F8F4F9F4F3901042FB52FF62FE9
:10391000E72F2C019301402F5B2F6F2F7E2FC201C9
:1039200007E10E94093429833A834B835C836D83CA
:103930007E838F83988749805A806B807C8090ED4E
:10394000490E97E0591E611C711CA0ED4A16A7E0B4
:103950005A06610471044CF01092A0061092A10660
:103960001092A2061092A30613C0A7019601C701E8
:10397000B6010E941C3220E030E0A9010E944E32C4
:103980002093A0063093A1064093A2065093A3066D
:103990008091A0069091A106A091A206B091A306E5
:1039A00093018201081B190B2A0B3B0BC901B801BB
:1039B0000E947B2E20E030E048EC52E40E94CB2DA8
:1039C00096C083309105ECF388EE94E00E94E90301
:1039D000182F88EE94E00E94E903082F88EE94E007
:1039E0000E94E903482F880F550B660B770BBA012D
:1039F00055274427412B0A8F198E298D3A8DC901ED
:103A0000A0E0B0E08A019B01082B192B2A2B3B2B4D
:103A1000C901B8010E947B2E20E030E040E859E364
:103A20000E9420300E943D2E6987272E8D87392ED7
:103A3000932D0E947B2E20E030E54DE754E40E9458
:103A4000CB2D2EE434ED42E45EE30E948D309B01E9
:103A5000AC0160E070E080E89FE30E94E22C2DEC76
:103A60003AE24DE257E40E94203020E030E048EC9A
:103A700052E40E9420300E943D2E4B015C01809157
:103A800013050E94630C8BEA90E00E94FB140E94D5
:103A9000060C62E0809113050E94C70C80917C04A3
:103AA00090E020917D04821B910982309105ECF316
:103AB00088EE94E00E94E903082F88EE94E00E94CB
:103AC000E903982F8827BC01602B072E000C880B78
:103AD000990B0E947B2E20E030E040EF53E40E94DF
:103AE000CB2D20E030E04AE252E40E94E32C20E0BB
:103AF00030E040E251E40E9420300E943D2E8B01D4
:103B000044C10E94780F0E943D2E6987272E8D8721
:103B1000392E0E94780F20E030E048EC52E40E94F9
:103B2000CB2D20E030E54DE754E40E94CB2D21E081
:103B30003EED42E45EE30E948D309B01AC0160E00B
:103B400070E080E89FE30E94E22C20E03AE24DE240
:103B500057E40E94203020E030E048EC52E40E941C
:103B600020300E943D2E4B015C010E94F10E20E0AE
:103B700030E040E251E40E9420300E943D2E8B0153
:103B800080910405823009F000C10E94F10E8DEF92
:103B90000E94490D6C01E12CF12CC11420E8D206E1
:103BA000E104F10409F4E0C040902405509025059B
:103BB00060902605709027053CE2531A31E0630AB5
:103BC0007108AEE0CC0CDD1CEE1CFF1CAA95D1F7F1
:103BD0002091440530914505C901330FAA0BBB0B59
:103BE00024E1880F991FAA1FBB1F2A95D1F7C81A75
:103BF000D90AEA0AFB0AA0914605B0914705A3013C
:103C000092010E947E32C61AD70AE80AF90A40E4F5
:103C1000D40EE11CF11C3FE0F594E794D794C794CF
:103C20003A95D1F7A09148050A2E000CBB0BA301D1
:103C300092010E947E329B01AC016AE05595479546
:103C4000379527956A95D1F729833A834B835C830F
:103C5000A0914305B0E0A30192010E947332DC0100
:103C6000CB017BE0B595A795979587957A95D1F788
:103C7000BC01CD0170588F4F9F4F29813A814B81F4
:103C80005C810E941C32DC01CB01EAE0B595A7956E
:103C900097958795EA95D1F79C01AD01405E5F4FFE
:103CA000A0914105B09142050E947E32DC01CB011A
:103CB000905EAF4FBF4FBC01CD01FEE0959587955B
:103CC00077956795FA95D1F7A70196010E941C3266
:103CD0006B017C01AFE09595879577956795AA95DF
:103CE000D1F79B01AC010E941C329B01AC01B7E0F3
:103CF0005595479537952795BA95D1F7A0914005E9
:103D0000B0E00E947332DC01CB0124E0B595A795A9
:103D1000979587952A95D1F7C81AD90AEA0AFB0A16
:103D2000F7FE03C0C12CD12C7601D701C60131E0CA
:103D3000C316D104E10439E1F30624F080E090E0F9
:103D4000A0E0B9E1BC01CD01FCE0959587957795A0
:103D50006795FA95D1F70E947B2E20E030E040E88D
:103D60005AE30E94203004C060E070E080EC9FE7DE
:103D700020E030E040E251E40E9420300E943D2EDD
:103D8000AB01BC018FE00E94361580918B0381113D
:103D900014C081E080938B03809287039092880304
:103DA000A0928903B0928A03809283039092840345
:103DB000A0928503B09286032EC0809187039091D4
:103DC0008803A0918903B0918A03A5019401281B5F
:103DD000390B4A0B5B0BCA01B9012AE030E040E025
:103DE00050E00E944E3220937F0330938003409333
:103DF000810350938203C501B40124E630E040E022
:103E000050E00E944E3220937B0330937C0340931A
:103E10007D0350937E038091830390918403A0914E
:103E20008503B0918603A5019401281B390B4A0B29
:103E30005B0BCA01B9010E947B2E6B017C010E94C1
:103E4000A40540908C0350908D0360908E03709079
:103E50008F0364197509860997090E94792E9B01C1
:103E6000AC0160E070E08AE794E40E94CB2D9B01F6
:103E7000AC01C701B6010E9420300E943D2E809205
:103E8000830390928403A0928503B09286030E94DC
:103E90007B2E4B015C012091770330917803409198
:103EA000790350917A036091050570910605809120
:103EB0000705909108050E9420306B017C0120913C
:103EC000090530910A0540910B0550910C05C5017B
:103ED000B4010E9420309B01AC01C701B6010E94D1
:103EE000E32C609377037093780380937903909326
:103EF0007A030E943D2EC0900D05D0900E05E090F3
:103F00000F05F0901005C616D706E806F9063CF432
:103F1000AB01BC014C195D096E097F0916C08824EC
:103F2000992454018C189D08AE08BF0868157905BE
:103F30008A059B053CF4AB01BC014C0D5D1D6E1D5B
:103F40007F1D03C040E050E0BA0186E00E943615B4
:103F50004985522D6D85732D8DE00E943615A8017F
:103F6000110F660B770B8EE00E9436150E94A40598
:103F700060938C0370938D0380938E0390938F03D3
:103F80005DE1E52E51E0F52E64EFA62E64E0B62E3D
:103F900003E613E073E7872E73E0972EE0E12E2E01
:103FA000D4013D904D01B1E03B1229C0F701808161
:103FB0000E945305BC01990F880B990B0E947B2E20
:103FC00020E030EC4FE754E40E94CB2D20E030E4B9
:103FD0004EE455E40E942030D5012D913D914D9144
:103FE0005C910E94203020E030E040E251E40E94E9
:103FF000CB2D0E943D2EAB01BC01822D70C0B1E0E3
:10400000B31508F06EC0E5E0E31528F042E7C42ED2
:1040100046E0D42E04C03CE8C32EDD24D394D7015F
:104020008C910E945305BC01990F880B990B0E943B
:104030007B2E20E030EC4FE754E40E94CB2D20E0B3
:1040400030E44EE455E40E9420302B013C01B601DF
:1040500080E090E00E94792E9B01AC01C301B20187
:104060000E94E22C2B013C01E32DF0E0ED5EFE4FBF
:10407000608170E080E090E00E947B2E9B01AC01AB
:10408000C301B2010E94CB2D2B013C0120E030E0A6
:1040900040E251E40E9420300E943D2EAB01BC0161
:1040A00084E0820D0E9436152FEF3FEF4FE951E477
:1040B000C301B2010E94CB2DF801208131814281E0
:1040C00053810E94E32CD8016D937D938D939C9333
:1040D00013970E943D2EAB01BC0188E0820D0E9427
:1040E0003615BFEFEB1AFB0AE4E0AE0EB11C2394C9
:1040F0000C5F1F4FF4E12F1253CFC3C88CE495E03F
:104100000E943103892B09F4DCC28CE495E00E9403
:104110005303D82E8091F5059091F605A091F705EF
:10412000B091F8050196A11DB11D8093F5059093FE
:10413000F605A093F705B093F80504E2D01609F44C
:10414000C6C2E091EF050D153CF01AE0D11679F0EA
:104150002DE0D212CAC20BC03AE2D31641F04CE2B3
:10416000D412C3C28091DC058D258093DC05EF302D
:1041700008F07FC1F0E0E252FA4F10828091DD0535
:10418000882309F478C12091DE053FEB320F822F9E
:10419000022E000C990B363010F4C79707C0215639
:1041A000263018F48755910901C0C097282F229511
:1041B000207F3091DF054FEB430F832F032E000C40
:1041C000990B463010F4C79707C03156363018F4B3
:1041D0008755910901C0C097820F9091DC05891322
:1041E00035C18091010690910206A0910306B0911D
:1041F00004060196A11DB11D80930106909302064D
:10420000A0930306B09304068091F005882399F0EB
:104210008091F9059091FA05A091FB05B091FC05FC
:104220000196A11DB11D8093F9059093FA05A09305
:10423000FB05B093FC051091ED05112309F46BC04B
:10424000113009F0D2C08091800590918105A09134
:104250008205B091830580937C0590937D05A093A2
:104260007E05B0937F050E94A4056093840570933A
:104270008505809386059093870510937B051093A1
:104280007A0580918E0590918F05A0919005B0914F
:10429000910580938A0590938B05A0938C05B0932C
:1042A0008D050E94A40560939205709393058093F9
:1042B0009405909395051093890510938805809136
:1042C000F005882309F491C087E0E8E6F5E0AAE567
:1042D000B5E001900D928A95E1F787E0EFE6F5E011
:1042E000A1E6B5E001900D928A95E1F70E94A40540
:1042F00060937605709377058093780590937905A0
:10430000109359051093580586E995E00E9484079B
:1043100084EA95E068C080918E0590918F05A09108
:104320009005B091910580938A0590938B05A09399
:104330008C05B0938D050E94A4056093920570933F
:104340009305809394059093950511E0109389054A
:10435000109388058091F005882321F187E0E8E635
:10436000F5E0AAE5B5E001900D928A95E1F787E0C6
:10437000EFE6F5E0A1E6B5E001900D928A95E1F750
:104380000E94A40560937605709377058093780565
:1043900090937905109359051093580582EB95E099
:1043A0000E9484078091CA059091CB05A091CC050D
:1043B000B091CD058093C6059093C705A093C8051D
:1043C000B093C9050E94A4056093C2057093C3050C
:1043D0008093C4059093C50581E08093C1058093C7
:1043E000C0058EEC95E00E9484070091F3051091C2
:1043F000F405FF24F3940115110509F451C1E0916E
:10440000F305F091F40566A177A1F80186A197A1C3
:104410000E94B535892B09F043C1B801C801409607
:104420000E94BE350E94A405D80190966D937D939D
:104430008D939C9393979596FC9295979496FC9266
:1044400094979A960D911C919B97D5CF8091FD05DD
:104450009091FE05A091FF05B09100060196A11D67
:10446000B11D8093FD059093FE05A093FF05B093C9
:10447000000680E016C19091EE05911149C06EE4EE
:1044800071E08EED95E00E94B535892B41F064E531
:1044900071E08EED95E00E94B535892B11F481E035
:1044A00014C06AE571E08EED95E00E94B535892B68
:1044B00041F060E671E08EED95E00E94B535892B04
:1044C00019F41092ED0503C082E08093ED05809110
:1044D000F1059091F2059093F4058093F305009116
:1044E000F3051091F4050115110519F2F801E6A084
:1044F000F7A06EED75E0C7010E94B53597FD02C0CB
:104500000C94482BD8019A968D919C919B97E3CF60
:10451000E091ED05E23009F491C08091DE05882339
:1045200009F48CC000E2E09FF0011124E92B3197DF
:10453000E932F10508F082C0EC5CFF4F0C946D325B
:104540008EED95E00E940A0960938E0570938F05A9
:10455000809390059093910571C091E0813409F0AA
:1045600043C043C068E675E009C091E0833509F0B7
:1045700090E090936E0562C06FE675E08EED95E079
:104580000E9482085BC091E0873509F090E090932B
:10459000750554C08EED95E00E940A096093A00550
:1045A0007093A1058093A2059093A30547C08EED5B
:1045B00095E00E940A096093AE057093AF05809361
:1045C000B0059093B1053AC08EED95E00E94872C1E
:1045D0006093800570938105809382059093830595
:1045E0002DC091E081330CF490E09093F00526C04B
:1045F0008EED95E00E94872C6093CA057093CB05E1
:104600008093CC059093CD0519C08EED95E00E9466
:104610000A096093D8057093D9058093DA059093C1
:10462000DB050CC08EED95E00E940A096093BC0585
:104630007093BD058093BE059093BF050091F3056F
:104640001091F4050115110509F413CFE091F3055C
:10465000F091F40566A177A1F80186A197A10E94C7
:10466000B535892B09F005CFD80198962D913C914D
:1046700099978091EE0590E0821793070CF4F9CE9C
:104680002817390739F440E150E06EED75E0C801B4
:104690000E94C535D8019A960D911C919B97D2CF57
:1046A00081E09091EE059F5F9093EE051092EF05EB
:1046B00091E0BAE2DB1290E09093DD05882309F4E3
:1046C000BCC680915805882309F44DC722C01092BA
:1046D000EF051092EE051092DC0582E08093ED0567
:1046E0001092DD051092F005A8C6EE3040F481E08E
:1046F0008E0F8093EF05F0E0E252FA4FD082809166
:10470000DD0581119AC68091DC058D258093DC053D
:1047100094C60E94A405009176051091770520911A
:10472000780530917905DC01CB01801B910BA20B40
:10473000B30B803D9740A105B10508F014C70E9456
:10474000E8159B01AC0160E081E00E944F150E94DA
:10475000B9159B01AC0161E082E00E944F151092F7
:10476000B3056091B8057091B9058091BA05909133
:10477000BB050E947B2E20E030E048EC52E40E9412
:10478000CB2D0E943D2E69877A878B879C8760930B
:104790007B0370937C0380937D0390937E03109240
:1047A000970560919C0570919D0580919E05909163
:1047B0009F050E947B2E26E53EE04DEE5FE30E94C2
:1047C000203020E030E048EC52E40E94CB2D0E94E3
:1047D0003D2EAB01BC0183E00E9436151092A50569
:1047E0006091AA057091AB058091AC059091AD05E3
:1047F0000E947B2E20E030E048EC52E40E94CB2D5A
:104800000E943D2EAB01BC0189E00E9436158091CB
:104810005F0390916003883BBBE09B070CF4DCC610
:104820008091040581111CC08091870390918803B9
:10483000A0918903B0918A0329853A854B855C85CF
:10484000281B390B4A0B5B0BAAE0B0E00E947332C5
:1048500060937F037093800380938103909382031E
:1048600040905703509058036090590370905A033A
:1048700000915B0310915C0320915D0330915E0316
:104880000D871E872F87388B0E94B9159B01AC01BD
:1048900068A739A74AA75BA70E94E81563015201E0
:1048A000ED84FE840F85188928A539A54AA55BA546
:1048B0000E949B070E94442E69837A838B839C838A
:1048C000309062033320C1F160917F0370918003C7
:1048D00080918103909182032AE030E040E050E033
:1048E0000E944E32CA01B9010E947B2E6B017C01ED
:1048F00069817A818B819C810E94792E4B015C01B8
:10490000A7019601C701B6010E9420306B017C010E
:10491000A5019401C501B4010E9420309B01AC01A6
:10492000C701B6010E94E32C0E94EB300E94442E86
:1049300069837A838B839C830E94B9154B015C0148
:104940000E94E8156B017C01A3019201C501B4012D
:104950000E94E22C25E33AEF4EE85CE30E9420300F
:104960004B015C0125E33AEF4EE85CE36D857E8503
:104970008F8598890E9420302B013C0125E33AEF76
:104980004EE85CE3C701B6010E9420306B017C0158
:10499000C501B4010E94DD30698B7A8B8B8B9C8BB7
:1049A000C701B6010E94C62D6D877E878F87988BC1
:1049B000C301B2010E94DD306D8B7E8B8F8B988F8F
:1049C000C501B4010E94C62D4B015C012D853E85B9
:1049D0004F8558896D897E898F89988D0E942030F6
:1049E000A50194010E9420304B015C01C301B2017A
:1049F0000E94C62D2B013C01C701B6010E94DD308B
:104A00009B01AC01C301B2010E942030A5019401B9
:104A10000E94E22C6B017C012D853E854F855889D3
:104A200069897A898B899C890E942030A701960127
:104A30000E94622D6B017C0120E030E0A9010E9400
:104A4000C12D87FF0AC02BED3FE049EC50E4C701C0
:104A5000B6010E94E32C6B017C0121EE3EE245E6AB
:104A600052E4C701B6010E9420300E943D2EAB01E6
:104A7000BC018AE00E943615A0904F03B09050030D
:104A8000C0905103D0905203409053035090540370
:104A900060905503709056030E94B9159B01AC01BC
:104AA00068A739A74AA75BA70E94E815830172018E
:104AB00028A539A54AA55BA50E949B076B017C012F
:104AC0003320B1F180914B0390914C03A0914D03A1
:104AD000B0914E0329853A854B855C85281B390B9F
:104AE0004A0B5B0BCA01B9010E947B2E9B01AC01F2
:104AF0000E9420304B015C01A7019601C701B6015D
:104B00000E9420309B01AC01C501B4010E94E32C3E
:104B10000E94EB306B017C0189859A85AB85BC8551
:104B200080934B0390934C03A0934D03B0934E039B
:104B300060914703709148038091490390914A0323
:104B40000E94792EA70196010E94E32C0E94442E18
:104B500060934703709348038093490390934A03FB
:104B60000E94E81560935303709354038093550398
:104B7000909356030E94B91560934F0370935003AE
:104B800080935103909352031092C1054091C60542
:104B90005091C7056091C8057091C9058BE00E94CE
:104BA00036151092CF054091D4055091D5056091EE
:104BB000D6057091D7058CE00E94361560914703A9
:104BC000709148038091490390914A032AE030E0B4
:104BD00040E050E00E942C32BA01A90188E00E9416
:104BE000361549815A816B817C8187E00E94361598
:104BF00040917F0350918003609181037091820303
:104C000084E00E94361540917B0350917C036091B3
:104C10007D0370917E0385E00E94361580914B06DE
:104C200090914C06DC01ED91FC910480F581E02D22
:104C30000995182F811105C080910001882309F47E
:104C40004FC30E94A405C0904303D0904403E0905A
:104C50004503F09046036C157D058E059F0508F40D
:104C60003FC30E94A405DC01CB0188539F4FAF4F87
:104C7000BF4F8093430390934403A0934503B093A5
:104C8000460301E029E0B22E103E51F48091410329
:104C9000909142038D3091050CF090C101960BC0AC
:104CA000103771F480914103909142031816190650
:104CB0000CF084C10197909342038093410382C01A
:104CC000103D09F082C08090410390904203B6E00D
:104CD0008B16910469F1E7E08E16910409F44BC03C
:104CE000F5E08F16910409F05EC0C0900505D090E4
:104CF0000605E0900705F090080528E431EE4AE744
:104D00005FE3C701B6010E94C12D87FF4CC02AE0B6
:104D100037ED43E25CE3C701B6010E94E32C6093E8
:104D200005057093060580930705909308053BC021
:104D3000C0900905D0900A05E0900B05F0900C0595
:104D400028E431EE4AE75FE3C701B6010E94C12DB6
:104D500087FF29C02AE037ED43E25CE3C701B601D3
:104D60000E94E32C6093090570930A0580930B055C
:104D700090930C0518C080910D0590910E05A0919F
:104D80000F05B091100584369105A105B1055CF4BD
:104D90000196A11DB11D80930D0590930E05A09362
:104DA0000F05B0931005C40108978430910550F4A5
:104DB000FC01ED58FC4F8081811102C0B08202C01D
:104DC0008150808300930001F9C0103B09F0F6C0C8
:104DD000E0914103F09142033197ED30F10508F085
:104DE000DBC0E35AFF4F0C946D32E0E0F0E0099530
:104DF000809161038F5F833018F480936103CCC08E
:104E000010926103C9C0809162038027809362037E
:104E1000C3C0C0900505D0900605E0900705F0904E
:104E200008052AE037ED43E25CE3C701B6010E94C2
:104E3000DF2F18160CF0B0C02AE037ED43E25CE338
:104E4000C701B6010E94E22C609305057093060528
:104E500080930705909308059FC0C0900905D090E6
:104E60000A05E0900B05F0900C052AE037ED43E2CF
:104E70005CE3C701B6010E94DF2F18160CF08CC04E
:104E80002AE037ED43E25CE3C701B6010E94E22C61
:104E90006093090570930A0580930B0590930C05A8
:104EA0007BC080910D0590910E05A0910F05B091EA
:104EB0001005181619061A061B060CF06DC001978E
:104EC000A109B10980930D0590930E05A0930F05DC
:104ED000B093100561C06091610381E090E00E9491
:104EE000020C6091620382E090E00E94020C83E772
:104EF000C82E83E0D82E93E0E92EF12CD6016D91D7
:104F00006D01C7010E94020CBFEFEB1AFB0AE7E03C
:104F1000EE16F10499F720E030E048EC52E460919D
:104F200005057091060580910705909108050E947E
:104F300020300E943D2E8AE090E00E94020C20E08A
:104F400030E048EC52E46091090570910A058091C7
:104F50000B0590910C050E9420300E943D2E8BE0A5
:104F600090E00E94020C60910D058CE090E00E94A0
:104F7000020CE0E0F0E00995E12CF12C6FEFC701A5
:104F80000E94020CFFEFEF1AFF0A24E1E216F1047F
:104F9000A9F7E0E0F0E00995E0914103F0914203C8
:104FA0003897E430F10508F00DCFED58FC4F8081C3
:104FB0008F5F8A3008F405CF108204CF8091000102
:104FC000882309F48DC1E0914103F0914203EE3052
:104FD000F10508F0EFC0E659FF4F0C946D3266E61C
:104FE00071E080E090E00E94B41166E771E0DEC0FD
:104FF00066E871E080E090E00E94B41163E971E03E
:10500000D5C080916103813049F028F08230C1F42D
:1050100068EB71E011C06FE971E00EC06DEA71E0FC
:105020000BC080916103882309F42ECE8091620326
:10503000882349F063ED71E080E090E00E94B411B4
:1050400066EC71E0B3C064EE71E0F6CF65EF71E03D
:1050500080E090E00E94B411809104058230A1F0BC
:1050600040F4882371F0813009F0A4C064E172E05B
:105070009DC0833061F0843009F09CC06BE372E026
:1050800095C066E072E092C061E272E08FC06EE2AD
:1050900072E08CC080910405882309F4F5CD20E0EE
:1050A00030E048EC52E4609105057091060580916E
:1050B0000705909108050E9420300E943D2E7F93A5
:1050C0006F9385E492E019C080910405882309F468
:1050D000DBCD20E030E048EC52E4609109057091AE
:1050E0000A0580910B0590910C050E9420300E94CA
:1050F0003D2E7F936F9385E692E09F938F9380E39D
:1051000093E09F938F930E94D43560E373E080E037
:1051100090E00E94B41165E572E081E090E00E94A9
:10512000B4110F900F900F900F900F900F9042C0FE
:1051300080910405882309F4A7CD809110058F93F1
:1051400080910F058F9380910E058F9380910D05AF
:105150008F9385E792E09F938F9380E393E09F93F3
:105160008F930E94D43560E373E080E090E00E946A
:10517000B41165E572E081E090E00E94B4110FB6D1
:10518000F894DEBF0FBECDBF15C063E872E080E0CB
:1051900090E00E94B41164E972E008C06FE972E027
:1051A00080E090E00E94B4116EEA72E081E090E04D
:1051B0000E94B4110091410310914203C801089765
:1051C000049708F08BC06AEB72E080E393E00E94E2
:1051D000BE3589E2800F80933103F801E559FC4F19
:1051E000E0818E2F90E08A30910508F06BC0FC01C1
:1051F000E858FF4F0C946D32E0E3F3E0DF010D90CF
:105200000020E9F7CD0164EA71E059C0E0E3F3E082
:10521000DF010D900020E9F7CD016FEB72E04FC088
:10522000E0E3F3E0DF010D900020E9F7CD0167EC4A
:1052300072E045C0E0E3F3E0DF010D900020E9F704
:10524000CD0162ED72E03BC0E0E3F3E0DF010D90E1
:105250000020E9F7CD016EED72E031C0E0E3F3E04C
:10526000DF010D900020E9F7CD016AEE72E027C062
:10527000E0E3F3E0DF010D900020E9F7CD0166EFF8
:1052800072E01DC0E0E3F3E0DF010D900020E9F7DC
:10529000CD0161E073E013C0E0E3F3E0DF010D90C6
:1052A0000020E9F7CD016DE073E009C0E0E3F3E031
:1052B000DF010D900020E9F7CD0169E173E001976E
:1052C0000E94BE3560E373E080E090E00E94B4117C
:1052D00065E572E081E090E00E94B4111092000157
:1052E000C0900506D0900606E0900706F0900806EC
:1052F000B6E9CB0ED11CE11CF11C0E94A4056C1573
:105300007D058E059F0508F498C00E94A405609352
:105310000506709306068093070690930806809111
:105320008E06882351F180914B0690914C06DC014A
:10533000ED91FC910280F381E02D40E06EE709954C
:1053400080914B0690914C06DC01ED91FC9102801E
:10535000F381E02D41E061E9099580914B06909140
:105360004C06DC01ED91FC910280F381E02D41E0DF
:1053700061E3099510928E065EC0F0908D06FF20C5
:1053800009F44BC00F2D0F2C000C110BC8010E940B
:105390009635892B31F0C8010E949D35F82E10E01A
:1053A00001C011E080914B0690914C06DC01ED911B
:1053B000FC910280F381E02D40E06EE70995809139
:1053C0004B0690914C06DC01ED91FC910280F3813B
:1053D000E02D41E062E0099580914B0690914C06EA
:1053E000DC01ED91FC910280F381E02D111102C0EE
:1053F00062E201C063E241E0099580914B06909121
:105400004C06DC01ED91FC910280F381E02D41E03E
:105410006F2D099510928D060EC080911F069091F8
:105420002006892B41F08091090691E0980F909316
:1054300009060E946B120E94241280E090E0892BE2
:1054400011F40C942C190E9400000C942C198091DA
:10545000110590911205009711F00C94F01683E25B
:1054600090E0909317058093160584E290E0909366
:1054700019058093180585E290E090931B058093B1
:105480001A0586E290E00C940817892B11F00C9411
:105490001A1780EE0C9418178CE5809313050E9460
:1054A00019158D3B910511F40C94DD168B3B91057C
:1054B00011F40C94EA1687E70E94630C0E94060C14
:1054C00081110C941D170E94B40E87E70E94630C93
:1054D0008EE190E00E94FB140E94060C8AE080930B
:1054E0009E0688E080939F0664E670E080E090E08E
:1054F0000E946A05A2E9EA2EA6E0FA2EB2EACB2EB5
:1055000087E70E94630C6C2D88EE94E00E943504BE
:105510000E94060C87E70E94630C82E090E00E94E4
:10552000EF1490917C0480917D049817F1F388EE3C
:1055300094E00E94E903D82E88EE94E00E94E903EB
:10554000B82E0E94060C1D2D00E0C8018B29D70142
:105550008D939D937D01C394C394BEEACB12D0CFAB
:1055600083E00C941B1720E030E0A90160E081E0AB
:105570000E944F1520E030E0A90161E082E00E9426
:105580004F1580910405811108C010927F0310927D
:105590008003109281031092820310927B03109279
:1055A0007C0310927D0310927E0340E050E0BA012C
:1055B0008AE00E94361540E050E0BA0183E00E9484
:1055C000361540E050E0BA0189E00E943615198294
:1055D0001A821B821C82D8CA019690936003809322
:1055E0005F030E94E8156B017C0160935B0370937D
:1055F0005C0380935D0390935E030E94B9156093F2
:105600005703709358038093590390935A03C092A1
:105610005303D0925403E0925503F09256036093E3
:105620004F03709350038093510390935203109251
:10563000B3056091B8057091B9058091BA05909154
:10564000BB050E947B2E20E030E048EC52E40E9433
:10565000CB2D0E943D2E60934B0370934C0380939F
:105660004D0390934E0310924703109248031092FB
:10567000490310924A03209104052111A8CF609399
:105680008703709388038093890390938A039FCF45
:105690006EED75E0C7010E94B5351816190614F0B5
:1056A0000C9439221092F4051092F3050C943922CF
:1056B00087E391E090934D0580934C0580916F00B6
:1056C0008B7F80936F0080916F008F7D80936F0040
:1056D0008091290380932A03809128038111FCCFB4
:1056E00080916F008D7F80936F000895CF93DF933B
:1056F000E8EEF4E01382128288EE93E0A0E0B0E0DE
:1057000084839583A683B78325E231E031832083A8
:10571000E5E0F6E010821182128213821482118E6B
:10572000138E128E158E148E178E168E10A211A245
:1057300010924C0610924B0610928D0610928E0617
:1057400026E720938F0622E32093900615824FEFE1
:105750005FEFBA01409347065093480660934906AD
:1057600070934A0620E2E7E2F6E0EF0119922A95EB
:10577000E9F7E8E5F5E010821182138212821482C3
:105780001582168217821086128611861386148659
:10579000158616861786118A108A128A138A148A29
:1057A000158A168A108E178A118E128E138E148EF9
:1057B000158E12A213A214A215A216A217A210AA45
:1057C00011AA12AA13AA14AA15AA10929605109249
:1057D000970510929C0510929D0510929E051092BF
:1057E0009F051092A4051092A5051092AA0510928B
:1057F000AB051092AC051092AD051092B205109257
:10580000B3051092B8051092B9051092BA0510921E
:10581000BB051092C0051092C1051092C6051092EA
:10582000C7051092C8051092C9051092CE051092B6
:10583000CF051092D4051092D5051092D60510927E
:10584000D7051092DC051092DD0522E02093ED05CE
:105850001092EE051092EF051092F0051092F205ED
:105860001092F1051092F4051092F3051092F505CF
:105870001092F6051092F7051092F8051092F905AE
:105880001092FA051092FB051092FC051092FD058E
:105890001092FE051092FF0510920006109201066C
:1058A0001092020610920306109204061092DE0572
:1058B000ECE4F5E01382128284839583A683B78398
:1058C00087E391E091838083E1E1F5E082E090E07D
:1058D000918380838DE5828310920405E4EFF4E0E8
:1058E00080E090E0A0E4B0E480839183A283B3835E
:1058F00084839583A683B78380879187A287B387A4
:1059000084879587A687B787DF91CF9108951F93E6
:10591000FC0199278827BC01E89411911032E9F322
:10592000193010F01E30C8F31B3251F01D3249F40B
:10593000689406C00E94B72C610F711D811D911DD6
:10594000119110531A30B0F33EF4909580957095F4
:1059500061957F4F8F4F9F4F1F910895FB01DC0191
:1059600002C005900D9241505040D8F70895592F2C
:10597000482F372F262F660F771F881F991F660F16
:10598000771F881F991F620F731F841F951F660F53
:10599000771F881F991F0895F999FECF92BD81BD89
:1059A000F89A992780B50895262FF999FECF1FBA46
:1059B00092BD81BD20BD0FB6F894FA9AF99A0FBE38
:1059C000019608955058BB27AA270E94FA2C0C94E0
:1059D000912F0E94582F38F00E945F2F20F039F449
:1059E0009F3F19F426F40C941E2F0EF4E095E7FB6C
:1059F0000C94182FE92F0E94B62F58F3BA1762079C
:105A000073078407950720F079F4A6F50C94D82F36
:105A10000EF4E0950B2EBA2FA02D0B01B9019001C9
:105A20000C01CA01A0011124FF27591B99F0593F0D
:105A300050F4503E68F11A16F040A22F232F342F55
:105A40004427585FF3CF469537952795A795F040A3
:105A50005395C9F77EF41F16BA0B620B730B840BB8
:105A6000BAF09150A1F0FF0FBB1F661F771F881F70
:105A7000C2F70EC0BA0F621F731F841F48F48795C8
:105A800077956795B795F7959E3F08F0B0CF9395BA
:105A9000880F08F09927EE0F9795879508950E9433
:105AA000582F60F080E891E009F49EEF0E945F2F8C
:105AB00028F040E851E071F45EEF0CC00C941E2F0A
:105AC0000C94D82FE92FE0780E94B62F40F3092ECE
:105AD000052AB1F3261737074807590738F00E2E65
