:100000000C94FE020C9426030C9426030C942603F5
:100010000C9426030C9426030C9426030C942603BC
:100020000C9426030C9426030C94B6070C946008D9
:100030000C946F070C9426030C9426030C9426034F
:100040000C94F7050C9426030C94F3090C942F0AD6
:100050000C948A0A0C9426030C9426030C94260311
:100060000C9441060C942603662078207B20822085
:100070008920B720BE20CB20D820E420E420E42033
:10008000E420E420E420E420E420E420E420E42050
:10009000E420E420E420E420E420E420E420E42040
:1000A000E420E420E420E4206620732078207B20F4
:1000B0008220892090209D20AA20B425C925E425EE
:1000C0002A26EB25F225B725F9251A263F264826AC
:1000D0005D2678268226A326AD265126B726C02681
:1000E000084AD73B3BCE016E84BCBFFDC12F3D6C9F
:1000F00074319ABD56833DDA3D00C77F11BED9E405
:10010000BB4C3E916BAAAABE000000803F05A84CE4
:10011000CDB2D44EB93836A9020C50B991868808B0
:100120003CA6AAAA2ABE000000803F07634236B759
:100130009BD8A71A39685618AEBAAB558C1D3CB778
:10014000CC5763BD6DEDFD753EF6177231BF0000F3
:1001500000803F08000000BE922449123EABAAAACC
:100160002ABECDCCCC4C3E00000080BEABAAAAAAD1
:100170003E00000000BF000000803F0000000000C3
:10018000084178D3BB4387D1133D190E3CC3BD4210
:1001900082AD2B3E68EC8276BED98FE1A93E4C80C1
:1001A000EFFFBE01C4FF7F3F000000000000014CD4
:1001B000617469747564650000000000000000004F
:1001C000000000200000000000000900024C6F6EDB
:1001D000676974756465000000000000000000009D
:1001E00000200000000000000900035370656564F2
:1001F0000000000000000000000000000000006D92
:1002000070680000000001000452656C2E20416CF3
:1002100074697400000000000000000000667400B3
:1002200000000000010105416C746974756465008B
:1002300000000000000000000000006674000000E4
:100240000000010006566172696F000000000000A6
:1002500000000000000000000066742F7300000022
:1002600008020744697374616E6365000000000052
:100270000000000000000066742E00000000010075
:100280000848656164696E670000000000000000B6
:100290000000000000B00000000000000100094361
:1002A0006F75727365000000000000000000000020
:1002B000000000B000000000000001000A5361745B
:1002C000656C6C697465730000000000000000003C
:1002D000002000000000000000000B48444F5000C8
:1002E00000000000000000000000000000000020EE
:1002F00000000000000001020C50726573737572FB
:1003000065000000000000000000000000696E4869
:100310004700000008020D54656D706572617475C8
:100320007265000000000000000000B04600000000
:10033000000001010E48756D696469747900000060
:1003400000000000000000000025724800000000CE
:1003500001010F566F6C7461676531000000000089
:100360000000000000000056000000000000010234
:1003700010566F6C74616765320000000000000069
:100380000000000000560000000000000102000014
:10039000000000000000000000000000000000005D
:1003A000000000000000000000000000014C61742B
:1003B0006974756465000000000000000000000022
:1003C00000200000000000000900024C6F6E676909
:1003D000747564650000000000000000000000204B
:1003E0000000000000000900035370656564000010
:1003F000000000000000000000000000006B6D2FF6
:100400006800000001000452656C2E20416C746984
:1004100074000000000000000000006D00000000FB
:100420000000010105416C74697475646500000089
:100430000000000000000000006D0000000000004F
:10044000010006566172696F0000000000000000A4
:10045000000000000000006D2F7300000000080283
:100460000744697374616E6365000000000000005A
:1004700000000000006D00000000000001000848BE
:10048000656164696E670000000000000000000004
:10049000000000B0000000000000010009436F757B
:1004A0007273650000000000000000000000000002
:1004B00000B000000000000001000A536174656C88
:1004C0006C697465730000000000000000000020EB
:1004D00000000000000000000B48444F50000000E6
:1004E00000000000000000000000000000200000EC
:1004F0000000000001020C50726573737572650094
:1005000000000000000000000000006850610000D2
:10051000000008020D54656D706572617475726536
:10052000000000000000000000B0430000000000D8
:1005300001010E48756D696469747900000000005E
:1005400000000000000000257248000000000101CA
:100550000F566F6C74616765310000000000000089
:1005600000000000005600000000000001021056CC
:100570006F6C7461676532000000000000000000CD
:100580000000005600000000000001020000000012
:10059000000000000000000000000000000000005B
:1005A0000000000000000000000000000000240027
:1005B00027002A0000000000250028002B0004046A
:1005C00004040404040402020202020203030303FB
:1005D00003030102040810204080010204081020D7
:1005E00001020408102000000008000201000003BE
:1005F000040700000000000000007B2711241FBE3C
:10060000CFEFD8E0DEBFCDBF12E0A0E0B1E0EEE575
:10061000F3E602C005900D92A43FB107D9F726E09A
:10062000A4EFB2E001C01D92A537B207E1F712E0D6
:10063000CEEFD2E004C02197FE010E94892ECD3F6B
:10064000D107C9F70E94D2170C94AD310C94000069
:10065000CF92DF92EF92FF920F931F93CF93DF938E
:100660006C017A018B01C0E0D0E0CE15DF0589F086
:10067000D8016D918D01D601ED91FC910190F08131
:10068000E02DC6010995892B11F47E0102C0219647
:10069000ECCFC701DF91CF911F910F91FF90EF90A9
:1006A000DF90CF9008953FB7F89480913B049091EC
:1006B0003C04A0913D04B0913E0426B5A89B05C022
:1006C0002F3F19F00196A11DB11D3FBFBA2FA92FD1
:1006D000982F8827820F911DA11DB11DBC01CD014E
:1006E00043E0660F771F881F991F4A95D1F7089539
:1006F00085ED8093BC008091BC0084FDFCCF1092FE
:100700008704089540911104262F30E0240F311DF5
:1007100021323105DCF4209187042430C9F4FC0136
:1007200080E090E0861758F4309111042191DC01AB
:10073000A151BC4FA30FB11D2C930196F3CF809113
:100740001104680F6093110480E0089581E008951A
:1007500082E008950895E091400480913F04E817F5
:1007600030F4F0E0EF5BFB4F808190E008958FEF75
:100770009FEF08959091400480913F04981750F4A2
:10078000E92FF0E0EF5BFB4F208130E09F5F90931B
:10079000400402C02FEF3FEFC901089580913F044C
:1007A00090E020914004821B91090895CF92DF923E
:1007B000EF92FF920F931F93CF93DF937C01262F2D
:1007C000972F8A0180918804882391F0C62FD72F14
:1007D0006E01C40ED51ECC15DD0571F06991D701EF
:1007E000ED91FC910190F081E02DC7010995F3CFC7
:1007F000642F822F0E948203C801DF91CF911F9145
:100800000F91FF90EF90DF90CF900895CF93DF93FB
:100810001F92CDB7DEB76983209188042223D1F0DF
:100820002091AA04203240F021E030E0FC01338323
:10083000228380E090E015C080918904E82FF0E0E9
:10084000E657FB4F998190838F5F80938904809353
:10085000AA0405C061E0CE0101960E94820381E0F6
:1008600090E00F90DF91CF9108955091F802409160
:10087000F702852F90E0242F30E0541710F4805BAE
:100880009F4F821B930B08958091F802E091F7022D
:100890008E1751F0EF5FE03508F0E0E0F0E0E15650
:1008A000FC4F808190E008958FEF9FEF0895809135
:1008B000F8029091F702891769F09F5F903508F070
:1008C00090E0E92FF0E0E156FC4F80819093F70231
:1008D00090E008958FEF9FEF08958091F6028111C7
:1008E000FCCF08958091F5028F5F843408F080E09A
:1008F0009091F4029817E1F32FB7F8949091F602D3
:10090000992341F0E82FF0E0EB5AFC4F608380938D
:10091000F5021DC081E08093F60260939A03109265
:10092000990382E086BB80916F00826080936F00A4
:10093000809180008F738068809380008091840014
:1009400090918500409690938900809388002FBFF6
:1009500081E090E00895089580E090E008951F936D
:10096000CF93DF93F894EC01CA57DF4F28812034EE
:1009700000F5DC01AE57BF4F1C9111965C911197A9
:1009800070E0411103C020E030E002C020E031E01F
:10099000622B732BE12FF52F7183608332962881B0
:1009A0002F5F2883EA17FB0710F0FC013296ED93C6
:1009B000FC93FC01E057FF4F8081811108C081E06A
:1009C00080838091C1008F7688628093C100789483
:1009D000DF91CF911F910895FC01E157FF4F2081D6
:1009E000222301F1F894A0915303B0915403A3572B
:1009F000BF4F0D90BC91A02D4C91208121502083A0
:100A00003297208131812F5F3F4FBC0165577F4F67
:100A10002617370718F09C0129573F4F3183208351
:100A2000789401C040E0842F0895089508950E94AD
:100A30006331CF93DF9390E0FC01EE52FA4F2491A3
:100A4000FC01E254FA4F8491882361F190E0880F11
:100A5000991FFC01E655FA4FC591D491FC01EC5465
:100A6000FA4FA591B491611109C09FB7F89488819C
:100A7000209582238883EC912E230BC0623061F491
:100A80009FB7F8943881822F809583238883EC91D7
:100A90002E2B2C939FBF06C08FB7F894E8812E2B86
:100AA00028838FBFDF91CF9108951092C0008CE012
:100AB0008093C10086E38093C2001092C50082E358
:100AC0008093C40062E080E00E94190562E081E04A
:100AD0000C941905CF93DF93EC010E945505FE019C
:100AE000329680E8DF011D928A95E9F7DE01AE5764
:100AF000BF4F1196FC93EE9312961196FC93EE93D2
:100B0000EC57FF4F108231961082118212821382AD
:100B100017961196FC93EE931296ED93FC933896EC
:100B2000108231961082D0935403C0935303DF9107
:100B3000CF9108958E3008F08E5087708064809336
:100B40007C0080917A00806480937A0080917A00A2
:100B500086FDFCCF809178002091790090E0922B67
:100B600008958F929F92AF92BF92CF92DF92EF92B1
:100B7000FF926B017C010E9453034B015C01C11485
:100B8000D104E104F104F1F00E945303DC01CB0134
:100B900088199909AA09BB09883E9340A105B105A6
:100BA00070F321E0C21AD108E108F10888EE880E3E
:100BB00083E0981EA11CB11CC114D104E104F1040E
:100BC00019F7DDCFFF90EF90DF90CF90BF90AF90FF
:100BD0009F908F9008952FB7F8946091370470918B
:100BE00038048091390490913A042FBF08951F92E0
:100BF0000F920FB60F9211242F933F938F939F93D1
:100C0000AF93BF938091370490913804A091390439
:100C1000B0913A043091360426E0230F2D3720F4AA
:100C20000296A11DB11D05C029E8230F0396A11D41
:100C3000B11D209336048093370490933804A09319
:100C40003904B0933A0480913B0490913C04A09104
:100C50003D04B0913E040196A11DB11D80933B045B
:100C600090933C04A0933D04B0933E04BF91AF9198
:100C70009F918F913F912F910F900FBE0F901F90DA
:100C800018951F920F920FB60F9211242F933F9336
:100C90004F935F936F937F938F939F93AF93BF9384
:100CA000EF93FF938091B900887F803609F49CC050
:100CB00068F5883209F45BC090F4803109F454C0BF
:100CC00038F4882309F4F6C0883009F44DC0F6C022
:100CD000883109F44CC0803209F45DC0EFC0803423
:100CE00009F468C048F4803309F455C0883309F02A
:100CF000E5C080938504D8C0803509F44FC088359D
:100D000009F45DC0883409F0D9C0D6C0883909F427
:100D1000C7C0A8F4883709F467C038F4883609F4E6
:100D200063C0803709F460C0C9C0883809F4B8C00E
:100D3000803909F45FC0803809F0C0C05BC0803BD7
:100D400009F486C038F4803A09F466C0883A09F498
:100D50007FC0B4C0803C09F4A7C0883C09F4A4C09B
:100D6000883B09F48AC0AAC08091620410C09091A7
:100D7000840480918304981770F5E091840481E0E5
:100D80008E0F80938404F0E0ED59FB4F80818093B7
:100D9000BB0085EC86C0809385048EC0E0918404FE
:100DA00081E08E0F809384048091BB00F0E0ED59C8
:100DB000FB4F808390918404809183046EC0E09106
:100DC000840481E08E0F809384048091BB00F0E066
:100DD000ED59FB4F80838091860481116DC081E0C5
:100DE0008093610484EA61C083E080938704109259
:100DF0003504CFCF80913504803208F051C0E091A6
:100E0000350481E08E0F809335048091BB00F0E0C3
:100E1000EB5EFB4F8083BDCF85EC8093BC001092CE
:100E2000870480913504803230F4E0913504F0E09D
:100E3000EB5EFB4F10826091350470E0E09113048B
:100E4000F091140485E194E009951092350436C0C0
:100E500084E0809387041092120410921104E091B0
:100E60000F04F0911004099580911104811105C0BF
:100E700081E0809311041092EF03E091120481E06D
:100E80008E0F80931204F0E0E151FC4F808180933B
:100E9000BB009091120480911104981708F479CF47
:100EA00085E88093BC000AC085EC8093BC0010925A
:100EB000870404C0109285040E947803FF91EF918B
:100EC000BF91AF919F918F917F916F915F914F9162
:100ED0003F912F910F900FBE0F901F9018951F926A
:100EE0000F920FB60F9211242F938F939F93EF932E
:100EF000FF9380916F008B7F80936F0080918100C2
:100F00008F7B809381008091F90220919E0320586D
:100F100090919D03893020F49695922B8F5FFACFA4
:100F200090939D038091F8028F5F803508F080E0F8
:100F30002091F702821739F0E82FF0E0E156FC4FDC
:100F400090838093F8021092F902809181008F7B48
:100F50008093810010929E03FF91EF919F918F915A
:100F60002F910F900FBE0F901F9018951F920F9208
:100F70000FB60F9211242F933F934F935F936F936C
:100F80007F938F939F93AF93BF93EF93FF93809142
:100F900086009091870040919E0320918100442318
:100FA00031F02F7B2093810010929E0306C02064B5
:100FB0002093810020E820939E033091F9023111A3
:100FC00025C041116CC02091FA023091FB02280F1C
:100FD000391F30938B0020938A0024E026BB209198
:100FE0006F00246020936F002091FC023091FD027D
:100FF000820F931F36952795820F931F90939C0322
:1010000080939B0381E08093F90249C040919B0348
:1010100050919C036091FC027091FD02DB01A09550
:10102000B09520919D03E0919E03841B950BA8171A
:10103000B90768F126952E2B460F571F3F5F861B79
:10104000970B3930A0F320939D0380916F008B7F25
:1010500080936F008091F8028F5F803508F080E008
:101060009091F702891749F0E82FF0E090919D03E5
:10107000E156FC4F90838093F802809181008F7B32
:101080008093810010929E031092F90208C0209371
:101090009D0350939C0340939B033093F902FF916F
:1010A000EF91BF91AF919F918F917F916F915F91E0
:1010B0004F913F912F910F900FBE0F901F90189559
:1010C0001F920F920FB60F9211242F933F934F93BD
:1010D0005F936F937F938F939F93EF93FF93809191
:1010E000F60260919A032091880030918900409126
:1010F000FC025091FD02909199038A30F8F4240F7C
:10110000351F893019F0762F717001C071E0669536
:101110008F5F791791F390918000772311F0906C95
:1011200002C09F7390689093800030938900209351
:1011300088007093990360939A034AC09091F502D6
:10114000E091F4029E1319C08A3051F48BE0809331
:10115000F602240F351F30938900209388003AC08F
:101160001092F602809180008F73809380008091AE
:101170006F008D7F80936F002DC0EF5FE43408F027
:10118000E0E0E093F402F0E0EB5AFC4F90819093A2
:101190009A0310929903909180009F7390689093A6
:1011A00080008A3059F48091FC029091FD02280F52
:1011B000391F309389002093880009C080918400F2
:1011C000909185004096909389008093880081E0FB
:1011D0008093F602FF91EF919F918F917F916F9194
:1011E0005F914F913F912F910F900FBE0F901F90E5
:1011F0001895CF93DF93EC018A859B85AC85BD85DF
:101200008E839F83A887B9870E94EB056A837B83BF
:101210008C839D8381E089838883DF91CF910895BA
:101220002F923F924F925F926F927F928F929F92F6
:10123000AF92BF92CF92DF92EF92FF920F931F93E4
:10124000CF93DF93D82FC92F8B010E94A82824E6C3
:1012500030E040E050E00E94482E49015A019B01D5
:10126000AC0160E876E988E990E00E94382E6B01D5
:101270007C01F80191828082ED2FFC2F2191822F39
:10128000022E000C990BC0970A97C0F32E3239F545
:101290001F0180E8882E86E9982E88E9A82EB12CB7
:1012A0009AE0492E512C612C712CF101C1911F0142
:1012B0000C2E000CDD0BE097CA30D10580F4C5017F
:1012C000B401A30192010E94482E49015A01DE0196
:1012D0000E949A2EC60ED71EE81EF91EE6CFA5E084
:1012E000B0E0A70196010E948F2E6F5F7F4F8F4F56
:1012F0009F4F23E030E040E050E00E94482EF8018C
:1013000022833383448355831682DF91CF911F91CB
:101310000F91FF90EF90DF90CF90BF90AF909F9094
:101320008F907F906F905F904F903F902F90089597
:10133000FF920F931F93CF93DF93EC01FF24F3945D
:1013400088818D3211F0F12C01C02196CE010E94CE
:10135000A8289B01AC01A4E6B0E00E948F2EFE01FC
:101360004991242F042E000C330B205331092A30CD
:101370003105A8F34E3241F52181022E000C330BCA
:10138000205331092A303105F8F44AE0429F8001A8
:10139000439F100D1124012E000C220B330B600F04
:1013A000711F821F931F0281002E000C110B00532E
:1013B00011090A30110540F4012E000C220B330BE9
:1013C000600F711F821F931FFF2039F09095809549
:1013D000709561957F4F8F4F9F4FDF91CF911F91F8
:1013E0000F91FF9008951F920F920FB60F92112444
:1013F0002F933F938F939F93AF93BF93EF93FF935D
:101400008091C600803FF1F0982F9F70D9F4209111
:10141000530330915403F901E557FF4FA081B18187
:101420008C93D901A157BF4F8C918F5F8C93808192
:10143000918101968E179F0718F0C90189579F4F18
:1014400091838083FF91EF91BF91AF919F918F9195
:101450003F912F910F900FBE0F901F9018951F92E4
:101460000F920FB60F9211242F933F934F935F93D8
:101470008F939F93EF93FF93809153039091540325
:10148000FC01EA57FF4F2081222351F1329701904E
:10149000F081E02D208131818091C10030FF02C0B8
:1014A000816001C08E7F8093C1002093C60020918F
:1014B000530330915403F901EA57FF4F8081815063
:1014C00080833297808191810296A9014E575F4FA8
:1014D0008417950710F0C9010296918380830DC08F
:1014E0008091C1008F7D80648093C100E09153039F
:1014F000F0915403E057FF4F1082FF91EF919F91BD
:101500008F915F914F913F912F910F900FBE0F9050
:101510001F9018951F920F920FB60F9211242F93C0
:101520003F938F939F93EF93FF93E1ECF0E08081E3
:10153000877B8069808380915303909154039C0141
:1015400029573F4FFC01E557FF4F318320833296E7
:101550003183208332961082FF91EF919F918F917A
:101560003F912F910F900FBE0F901F901895CF9223
:10157000DF92EF92FF920F931F93CF93DF93CDB73C
:10158000DEB76E970FB6F894DEBF0FBECDBF8C01ED
:101590007B016A012EE1269FC001279F900D112437
:1015A000DA015A966D917C915B97680F791F4EE135
:1015B00050E0CE0101960E94CF288D8DF801868FD4
:1015C00089818283EE0CFF1CEE0CFF1CD6015C9619
:1015D000ED91FC915D97EE0DFF1D80819181A281BF
:1015E000B381F80183839483A583B683A801485F00
:1015F0005F4FFE013296DA0190E08191811106C0C1
:10160000392FD8015C969C93232F0FC0933119F08A
:101610009F5F8D93F2CF33E1F4CF8331910594F442
:10162000FA01E80FF91F70832F5F622F631BE1E05F
:10163000F0E0EC0FFD1FE60FF11D7589822F90E0A1
:101640007111EBCFF801658FFA01E80FF91F1082D5
:101650008E8D813031F0823041F480E4F801878F43
:1016600004C080E2D8015F968C93D8015E968C917D
:10167000843091F030F4882361F08130A1F483E06C
:101680000FC0883041F0893051F0853061F484E03A
:1016900007C082E001C085E0F80180A304C085E0B6
:1016A000D80190968C936E960FB6F894DEBF0FBE5D
:1016B000CDBFDF91CF911F910F91FF90EF90DF9001
:1016C000CF9008950C94F5282091AA049091640677
:1016D000213208F04AC0809187048111FCCF32E0AA
:1016E0003093870431E0309386043FEF30938504D4
:1016F0001092840420938304AAE8B4E043E654E003
:10170000FA013E2F341B321718F43D913193F9CF73
:101710001092620420916204990F922B90936204BC
:1017200090916104913061F410926104909162048F
:101730009093BB009091BC0093FDF8CF95EC01C055
:1017400095EE9093BC00909187049230E1F39091D4
:1017500085049F3F79F080918504803241F080912B
:101760008504803331F084E005C081E003C082E06D
:1017700001C083E0109289041092AA041092880498
:101780000895909187049111FCCF613208F060E2D6
:1017900091E090938704909386042FEF2093850423
:1017A00010928404260F20938304909362049091F6
:1017B0006204880F892B80936204809161048130D8
:1017C00061F410926104809162048093BB00809167
:1017D000BC0083FDF8CF85EC01C085EE8093BC0092
:1017E000809187048130E1F380918404861710F49E
:1017F00060918404A3E6B4E021E434E0F9018E2F83
:10180000821B861718F48D918193F9CF10924004B2
:1018100060933F04862F0895CF93C62F90911F06A3
:1018200021E020938804909364061092890410921A
:10183000AA04682F85E696E00E9406046C2F85E6D0
:1018400096E00E940604CF910C94640BCF93DF9333
:10185000CFE1D6E0988121E020938804909364063C
:10186000109289041092AA04682F85E696E00E94DF
:1018700006040E94640B61E088810E94C10B85E62A
:1018800096E00E94BA03DF91CF910895CF93DF9342
:10189000CFE1D6E0988121E02093880490936406FC
:1018A000109289041092AA04682F85E696E00E949F
:1018B00006040E94640B62E088810E94C10B85E6E9
:1018C00096E00E94BA03C82F85E696E00E94BA030C
:1018D00020E030E03C2F822B932BDF91CF910895B5
:1018E0000E94460C9827892798270895CF9366EB86
:1018F00080EE0E940C0C64E670E080E090E00E94B4
:10190000B10588E80E94700C9093410680934006D0
:101910008AE80E94700C90934306809342068CE8FC
:101920000E94700C90934506809344068EE80E94B6
:10193000700C909347068093460680E90E94700CD5
:10194000909349068093480682E90E94700C909318
:101950004B0680934A0684E90E94700C90934D06D2
:1019600080934C0686E90E94700C90934F068093FA
:101970004E0688E90E94700C9093510680935006A1
:101980008AE90E94700C90935306809352068CE96A
:101990000E94700C90935506809354068EE90E9425
:1019A000700C9093570680935606809120068330E2
:1019B00009F03FC081EA0E94260C8093580681EE10
:1019C0000E94700C90935A068093590683EE0E94F1
:1019D000260C80935B0684EE0E94260CC82F85EEB1
:1019E0000E94260C282F2F7030E1C39FC0011124C4
:1019F000822B90935D0680935C0686EE0E94260CF7
:101A0000C82F85EE0E94260C90E024E095958795DE
:101A10002A95E1F740E1C49F90011124822B932B7A
:101A200090935F0680935E0687EE0E94260C80935B
:101A300060068DEE80936206809163068F71806AE6
:101A40008093630680916106807C8093610680911B
:101A50002006833021F465E082EF0E940C0C909107
:101A60006106692F677080E2689F90011124892FB9
:101A7000869586958695877048E0849FB0011124ED
:101A8000622B732B97FB992790F9692B85EF0E94A6
:101A90000C0C90916206692F677080E2689F90013C
:101AA0001124892F869586958695877048E0849FB6
:101AB000B0011124622B732B929596959695937095
:101AC000692B84EFCF910C940C0C90E0FC01EA514F
:101AD000FA4F2491FC01EE52FA4F3491FC01E2548A
:101AE000FA4FE491EE23B1F1222339F1233091F042
:101AF00038F42130A9F0223001F584B58F7D12C071
:101B0000273091F02830A1F02430B9F48091800082
:101B10008F7D03C0809180008F77809380000DC0FF
:101B200084B58F7784BD09C08091B0008F7703C0E2
:101B30008091B0008F7D8093B000F0E0EE0FFF1F2A
:101B4000EC54FA4FA591B4918FB7F894EC913E2BD9
:101B50003C938FBF0895CF9380931F06109240044B
:101B600010923F04109289041092AA0410928704E4
:101B7000C1E0C09386041092610482E10E94650D69
:101B800083E10E94650D8091B9008E7F8093B9003A
:101B90008091B9008D7F8093B90080E28093B80076
:101BA00085E48093BC0080ED0E94260C883509F402
:101BB00059C0803609F458C0853509F05BC0C09320
:101BC000200683E0809329068AEA0E94460C9093BF
:101BD0002B0680932A068CEA0E94460C90932D06D1
:101BE00080932C068EEA0E94460C90932F068093D9
:101BF0002E0680EB0E94460C90933B0680933A069B
:101C000082EB0E94460C90933D0680933C0684EB49
:101C10000E94460C90933F0680933E0686EB0E94FE
:101C2000460C909331068093300688EB0E94460C58
:101C300090933306809332068AEB0E94460C909371
:101C40003506809334068CEB0E94460C9093370641
:101C5000809336068EEB0E94460C90933906809353
:101C600038060AC082E001C083E0809320060E940B
:101C7000760C02C0109220068091200690E0CF9151
:101C800008956EE284EF0E940C0C65E070E080E045
:101C900090E00E94B10586EF0C94460CCF92DF9243
:101CA000EF92FF92CF93DF93CFE1D6E0988121E0CE
:101CB0002093880490936406109289041092AA04D9
:101CC000682F85E696E00E9406040E94640B63E09C
:101CD00088810E94C10B85E696E00E94BA036C01E0
:101CE000990FEE08FF08FE2CED2CDC2CCC2485E6A9
:101CF00096E00E94BA03AC01990F660B770BC42AD9
:101D0000D52AE62AF72AFE2CED2CDC2CCC2485E6FD
:101D100096E00E94BA03092E000CAA0BBB0BBC0173
:101D2000CD016C297D298E299F29DF91CF91FF90CC
:101D3000EF90DF90CF9008958F929F92AF92BF92D5
:101D4000CF92DF92EF92FF920F931F938091200624
:101D5000813009F058C00E94410EAC0160E070E093
:101D600080913E0690913F069A01AB01281B390BEA
:101D700041095109A0913C06B0913D060E948F2E69
:101D80006B017C018FE0F594E794D794C7948A9512
:101D9000D1F76091360670913706CB01770FAA0B09
:101DA000BB0BBC01CD012BE0660F771F881F991F6D
:101DB0002A95D1F720913806309139068901330FE1
:101DC000220B330BA90198012C0D3D1D4E1D5F1DEB
:101DD0000E946A2ED701C601820F931FA41FB51F50
:101DE0000896A11DB11DBC01CD0134E095958795E4
:101DF000779567953A95D1F70E949C2A20E030E0CC
:101E000040E251E47CC08AEF0E944E0E40914006B1
:101E1000509141064A01A12CB12CC72ED82EE92E93
:101E2000FF24E7FCFA94C818D908EA08FB08DC018B
:101E3000CB0137E0B595A795979587953A95D1F75A
:101E4000B501A401440F551F661F771F4C015D01AA
:101E5000841A950AA60AB70AA5019401A091420620
:101E6000B09143060E949A2E4B015C01FBE0B594B1
:101E7000A79497948794FA95D1F7A7019601C70183
:101E8000B6010E94382E9B01AC01ACE055954795F8
:101E900037952795AA95D1F7A0914406B0914506AC
:101EA0000E949A2EDC01CB011EE0B595A79597956F
:101EB00087951A95D1F7A5019401280F391F4A1F5C
:101EC0005B1F2093250630932606409327065093E8
:101ED0002806A5E0B0E00E948F2EDC01CB018058DF
:101EE0009F4FAF4FBF4F692F7A2F8B2F992787FDB9
:101EF0009A950E949C2A20E030E048EC52E40E942F
:101F0000EC291F910F91FF90EF90DF90CF90BF9041
:101F1000AF909F908F900895FF920F931F93CF9350
:101F2000DF93CDB7DEB76E970FB6F894DEBF0FBE66
:101F3000CDBF1092CA041092C9049093C604809336
:101F4000C50480E2EDECF4E0DF011D928A95E9F72B
:101F5000F12C00E010E06091C5047091C604600FA0
:101F6000711F4EE150E0CE0101960E94CF28E98119
:101F7000EE23B1F0E03220F4F0E0E555FB4FF2A2A1
:101F80008091C9049091CA0401969093CA048093E9
:101F9000C904025E1F4FF394003CB3E01B07D9F65F
:101FA0006E960FB6F894DEBF0FBECDBFDF91CF9116
:101FB0001F910F91FF9008952F923F924F925F9241
:101FC0006F927F928F929F92AF92BF92CF92DF9249
:101FD000EF92FF920F931F93CF93DF93CDB7DEB7AE
:101FE000A8970FB6F894DEBF0FBECDBF8091200634
:101FF000813009F0A3C10E94410E6C01E12CF12C4B
:10200000609129066295660F660F607C6C5C84EFB8
:102010000E940C0C80912906811105C065E070E0DA
:1020200080E090E012C0813029F468E070E080E048
:1020300090E00BC0823029F46EE070E080E090E028
:1020400004C06AE170E080E090E00E94B10586EF94
:102050000E94460C4C01A12CB12CBA2CA92C982C16
:10206000882488EF0E94260C882A309029068091C7
:102070003E0690913F06A7019601281B390B4109A6
:102080005109A0913C06B0913D060E948F2E6B0134
:102090007C010FE0F594E794D794C7940A95D1F7A3
:1020A0006091360670913706CB01770FAA0BBB0BF8
:1020B000BC01CD012BE0660F771F881F991F2A9561
:1020C000D1F720913806309139068901330F220B60
:1020D000330BA90198012C0D3D1D4E1D5F1D0E9463
:1020E0006A2EC20ED31EE41EF51E20EAC21A2FE08D
:1020F000D20AE108F108A7019601C701B6010E94C2
:10210000382E9B01AC016CE0559547953795279586
:102110006A95D1F729833A834B835C8300912A0621
:1021200010912B06A0912E06B0912F06A7019601C3
:102130000E949A2E2B013C017DE075946794579480
:1021400047947A95D1F7A0913006B0913106298154
:102150003A814B815C810E949A2EBB2797FDB095F6
:10216000AB2F840D951DA61DB71D0296A11DB11D97
:10217000F2E0B595A79597958795FA95D1F79C01CB
:10218000AD0130584F4F5F4FA0913A06B0913B06DA
:102190000E948F2E2B013C01AFE0769467945794F8
:1021A0004794AA95D1F788E090E083199109A50199
:1021B000940104C056954795379527958A95D2F78F
:1021C0002D833E834F8358874801110FAA08BB080F
:1021D000B2E0880C991CAA1CBB1CBA95D1F7A0913F
:1021E0003206B091330629813A814B815C810E948D
:1021F0009A2E9B01AC011BE0559547953795279585
:102200001A95D1F729833A834B835C83A0912C06DE
:10221000B0912D06A70196010E949A2EDC01CB01F8
:102220000BE0B595A795979587950A95D1F72981E4
:102230003A814B815C81820F931FA41FB51F880DCB
:10224000991DAA1DBB1D032C04C0880F991FAA1F2E
:10225000BB1F0A94D2F7BC01CD016E5F7F4F8F4F39
:102260009F4F24E030E040E050E00E946A2E8D81D4
:102270009E81AF81B885821B930BA40BB50B9C018B
:10228000AD0180E593ECA0E0B0E0BC01CD0104C05D
:1022900096958795779567953A94D2F70E94382E50
:1022A00097FD0BC0660F771F881F991FA30192012E
:1022B0000E94482E69017A010AC0A30192010E947E
:1022C000482E69017A01CC0CDD1CEE1CFF1C9927FD
:1022D000F7FC9A958F2D7E2D6D2D9B01AC010E94F0
:1022E000382E9B01AC01AEEDBBE00E948F2E4C015D
:1022F000BB2497FCB094AB2CA3E4B3EEA7019601EA
:102300000E949D2EBB2797FDB095AB2F880D991D80
:10231000AA1DBB1D8153914FAF4FBF4FF4E0B59540
:10232000A79597958795FA95D1F7BC01CD016C0DCE
:102330007D1D8E1D9F1D0E949C2A07C20E949C0E1F
:1023400087EF0E944E0E68A379A38AA39BA3809176
:10235000250690912606A0912706B09128066C01CB
:102360007D01FF0CCC08DC2C76019C01AD016C2DAD
:102370007C2D8C2D9C2D345F4140510961097109E0
:102380008109910928A73FA349835D8369877A87DB
:102390008B879C8759016A017B018C010E94A22EC8
:1023A000288F398F4A8F5B8F6C8F7D8F8E8F9F8F99
:1023B000909150069CA3A0915106AD87B0914E0616
:1023C000BDA3E0914F06EE87F0914C06FEA320914D
:1023D0004D062F87B0904906A09048061B2D110F7F
:1023E000110BC12ED12EE12EF12E012F28A53FA1D8
:1023F00049815D8169857A858B859C850E94A22EA5
:102400000CE00E94D22F19012A013B014C01B0902F
:102410004B06A0904A061B2D110F110BC12ED12E79
:10242000E12EF12E012F288D398D4A8D5B8D6C8D1B
:102430007D8D8E8D9F8D0E94A22E08E00E94EB2F35
:1024400051016201730184010E94093070588F4F5D
:102450009F4FA0904606B0904706C12CD12CE12C8E
:10246000F12C00E010E00E94A22E01E20E94EB2F6E
:10247000288B398B4A8B5B8B6C8B7D8B8E8B9F8BE8
:10248000A0E00E941B3009F45DC1ACA01D85110FB6
:10249000110BBD84C12ED12EE12EF12E012F288DDE
:1024A000398D4A8D5B8D6C8D7D8D8E8D9F8D0E94BB
:1024B000A22E19012A013B014C01ADA01E85110F6E
:1024C000110BBE84C12ED12EE12EF12E012F28A595
:1024D0003FA149815D8169857A858B859C850E94B4
:1024E000A22E01E10E94D22F59016A017B018C01C9
:1024F0009101A201B301C4010E94093019012A010E
:102500003B014C0148A159A16AA17BA184E07595CA
:102510006795579547958A95D1F780E090E0A0E1BF
:10252000B0E0841B950BA60BB70B6C017D01FF0C73
:10253000CC08DC2C76019C01AD016C2D7C2D8C2D02
:102540009C2D0FE10E94D22FF901B42FA52F6A878D
:102550007B8789839D832EA19F85990F990B3F854A
:10256000492F592F692F792F892F03E20E94D22FEB
:1025700059016A017B018C019101A201B301C401DF
:102580000E94093059016A017B018C019F014B2F88
:102590005A2F6A857B8589819D810E94123049016D
:1025A000542E652EB62FA72FF82FE92F03E00E9497
:1025B000D22F5401C52CD62CEB2EFA2E0F2F1E2F06
:1025C0000E94123059016A017B01782E192F03E015
:1025D0000E94D22F072D0E94123003E00E94D22FBA
:1025E0005401C52CD62CEB2EFA2E0F2F1E2F0E9435
:1025F000123002E00E94D22F0F2F0E94123001E011
:102600000E94D22F0F2F0E941230A888B988CA8842
:10261000DB88EC88FD880E891F890E94FD2E490108
:1026200049835D8369877A878B879C870DE00E9449
:10263000EB2F2D873E87742E652E562E472E382E73
:10264000292E3091570620915606932F990F990BFA
:10265000AD84BE84C72CD62CE52CF42C032D122D72
:10266000492F592F692F792F892F0E94A22E0E945E
:10267000A22E09E10E94EB2F59016A017B018C0116
:10268000940149815D8169857A858B859C850E944D
:10269000093019014E875D872B013C0130915506A9
:1026A00020915406932F990F990B5401C980DD8016
:1026B000E984FA840B851C85492F592F692F792FBE
:1026C000892F0E94A22E03E10E94EB2F59016A017B
:1026D0007B018C0191014E855D85B201C3010E9491
:1026E000093008E00E94EB2F522E632E742E852EA7
:1026F000962EF72FE82FB92F3091530620915206CE
:10270000932F990F990B492F592F692F792F892FC3
:1027100004E00E94D22F59016A017B018C01252D12
:10272000362D472D582D692D7F2F8E2F9B2F0E94E0
:1027300009300E94942A20E030E040E85BE30E94E8
:102740003C2C03C060E070E0CB01A8960FB6F89473
:10275000DEBF0FBECDBFDF91CF911F910F91FF90D4
:10276000EF90DF90CF90BF90AF909F908F907F9031
:102770006F905F904F903F902F9008956115710575
:10278000D1F0019719F4E3E2F5E002C0E3E1F5E0EE
:10279000DB019F01205F3F4F80E040E29D91992344
:1027A00021F0811102C0908302C0408381E0319604
:1027B000E217F30799F708952F923F924F925F9295
:1027C0006F927F929F92AF92BF92CF92DF92EF92E1
:1027D000FF920F931F93CF93DF93CDB7DEB7A197EF
:1027E0000FB6F894DEBF0FBECDBF811118C0109296
:1027F000F5041092FB041091C404812F880F880FF8
:10280000880F8093FC04412F50E060EB74E08DEF63
:1028100094E00E947B31BAE09B2E910EA8C1282F34
:10282000269530E04091C9045091CA0442175307DD
:102830000CF473C080FD71C000E010E0CC24CA9499
:10284000DC2C76018091C9049091CA0408171907FD
:102850000CF061C02091CC04622F70E01B82CC820E
:10286000DD82EE82FF821D8E1E8E1F8E18A219A29F
:10287000FB01A3E0F595E795AA95E1F7E351FB4F3E
:10288000808190E0277002C0959587952A95E2F7A0
:10289000817099278887892B31F04BEA54E0CE016B
:1028A00001960E94B70A8091CC048F5F8093CC047C
:1028B00090E02091C9043091CA048217930714F064
:1028C0001092CC048885882319F11092F5048B812D
:1028D0008093FB048D8D28E0829FC00111249E8D82
:1028E000892B8093FC0480E02AE0280FE9E0F0E0E7
:1028F000EC0FFD1FE80FF11D9081992339F08F5FD8
:10290000E22FF0E0ED50FB4F9083EECF922E2FC1DF
:102910000F5F1F4F97CF912C2AC180E48093F5045D
:1029200000E010E058E0952ECC24CA94DC2C76010F
:102930007AE1672E712C2091CB04622F70E01B820C
:10294000CC82DD82EE82FF821D8E1E8E1F8E18A22B
:1029500019A2FB0143E0F595E7954A95E1F7E351AC
:10296000FB4F808190E0277002C0959587952A954E
:10297000E2F7817099278887892B31F04BEA54E080
:10298000CE0101960E94B70A8091CB048F5F80939D
:10299000CB0490E0A090C904B090CA048A159B05AE
:1029A00014F01092CB048885882309F4D0C08C8160
:1029B0009D81AE81BF818F3F5FEF9507A507B5076A
:1029C00009F4C5C03B81692D70E04F8D51E0590D70
:1029D000303168F06D507B4F242F2F70FB01208326
:1029E00022E0290DE52FF0E0ED50FB4F0BC0252F25
:1029F0006D507B4F50E1359FF0011124342F3F7013
:102A00003E2BFB01308369A170E030E04430B9F126
:102A100028F4442369F04130D9F095C0483009F4D6
:102A200066C0493009F480C0453009F08CC042C00E
:102A3000482F4F71B7FD02C080E001C080E8F90166
:102A4000ED50FB4F842B98A1892B808381E07CC0C3
:102A5000F901ED50FB4F8083A9014F5F5F4FE92FD4
:102A6000EF71B7FD02C080E001C080E8DA01AD502F
:102A7000BB4F8E2B98A1892B8C9382E065C0A90156
:102A800045555B4FFA01E85BFF4F80833196908399
:102A9000A9014E5F5F4FEA2FEF71B7FD02C080E0E2
:102AA00001C080E8DA01AD50BB4F8E2B98A1892B75
:102AB0008C931BC0A90145555B4FFA01E85BFF4FA2
:102AC000808331969083A9014E5F5F4F1D0155248D
:102AD00037FC5094452CB7FD02C080E001C080E86F
:102AE000FA01ED50FB4F282A208283E02DC0A90176
:102AF00045555B4FFA01E85BFF4F80833196908329
:102B00003196A083A9014D5F5F4FEB2FEF71B7FDA9
:102B100002C080E001C080E8DA01AD50BB4F8E2BCF
:102B200098A1892B8C930DC0A90145555B4FFA01E3
:102B3000E85BFF4F8083319690833196A083319676
:102B4000B08384E001C080E0982E920E02C060E065
:102B500070E00F5F1F4F0A151B054CF4892D90E0A4
:102B60009301261B370B821793070CF4E4CE8EE7F4
:102B70008093F3048FE28093F4048091F5049EEF38
:102B8000990D892B8093F50489E08093F60484EAFB
:102B90008093F704809135058093F8048091360581
:102BA0008093F9041092FA04292D30E0E5EFF4E067
:102BB00080E092E09E1B57E0492F4E0F491560F4CC
:102BC0004191842748E087FF03C0880F852701C013
:102BD000880F4150C1F7F0CFF901ED50FB4F8083D2
:102BE0008091F1049091F204DC01ED91FC9102805E
:102BF000F381E02D40E06EE7099511E0911698F021
:102C00008091F1049091F204DC01ED91FC91A12FEF
:102C1000B0E0AD50BB4F0280F381E02D41E06C91FC
:102C200009951F5FEBCFA1960FB6F894DEBF0FBEDC
:102C3000CDBFDF91CF911F910F91FF90EF90DF906B
:102C4000CF90BF90AF909F907F906F905F904F908C
:102C50003F902F900895CF93DF938091F10490914E
:102C6000F204DC01ED91FC910280F381E02D40E063
:102C70006EEF099580911305882311F1C3E1D5E02A
:102C80008091F1049091F2046991DC01ED91FC9145
:102C90000280F381E02D41E00995B5E0C333DB0705
:102CA00079F78091F1049091F204DC01ED91FC91AF
:102CB0000280F381E02D40E06FEFDF91CF91099426
:102CC000C0E2D0E08091F1049091F204DC01ED913A
:102CD000FC910280F381E02D41E060E009952197AD
:102CE00089F7DFCFCF92DF92EF92FF92CF93DF93FE
:102CF000EC0180E2E3EFF4E0DF011D928A95E9F751
:102D000040E250E060E270E083E195E00E948431AF
:102D100043E150E06FEE72E080EB94E00E949B3163
:102D200083E08093C4048091C9049091CA04892BE4
:102D300019F4CE010E948C0FC091C904D091CA042D
:102D4000C13CBFE1DB0730F4CE01880F991F880F2B
:102D5000991F02C08FEF9FEF0E943630FC0120E0E8
:102D600030E04FEF5FEFBA012C173D0739F0419388
:102D70005193619371932F5F3F4FF6CF8093C704B8
:102D80009093C80481E990E00E94363021E9FC016B
:102D900011922A95E9F72BE531E0DC012D933C9364
:102DA0009093F2048093F1040E946A051092AF049C
:102DB0001092CC041092CB040E94EB056B017C01B5
:102DC000B0EDCB0EB7E0DB1EE11CF11C8091C50419
:102DD0009091C604892BF1F00E94EB056C157D05DE
:102DE0008E059F05B8F4C0E0D0E08091C9049091B1
:102DF000CA048C179D0754F38C2F880F0E94DC1394
:102E00000E942B1666E970E080E090E00E94B10518
:102E10002196EBCF8091F1049091F204DC01ED91C9
:102E2000FC910480F581E02D09958111F3CFDF91AC
:102E3000CF91FF90EF90DF90CF900895CF93C82F60
:102E4000CB012091C9043091CA04232B21F40097AF
:102E500011F00E948C0FC032D0F4EC2FF0E0E55559
:102E6000FB4F82A1E82FF0E093E0F595E7959A9566
:102E7000E1F7E351FB4F282F277081E090E001C07C
:102E8000880F2A95EAF78095908189238083109294
:102E9000AF041092CC041092CB04CF9108952091EE
:102EA000C7043091C8042115310589F0803278F4C7
:102EB000E82FF0E0E555FB4F82A1F90194E0899FEE
:102EC000E00DF11D112440835183628373830895C3
:102ED0004F925F926F927F92AF92BF92CF92DF92AA
:102EE000EF92FF920F931F93CF93DF9300D000D008
:102EF000CDB7DEB7082FA62E69017A01AE014F5F6C
:102F00005F4FC701B6010E94082C2B013C0189814B
:102F10009A81AB81BC81BC01CD019F770E94652A5B
:102F2000B62E172F2AE939E949E15FE3C301B2015F
:102F30000E943C2C20E030E543EC57E40E943C2CFE
:102F40009F770E94652A3B011170A11002C090E09A
:102F500001C090E2192B20E030E0A901C701B601C1
:102F60000E94E229881F8827881F8295880F880F72
:102F7000807C712F782BA3016B2D802F0F900F90E9
:102F80000F900F90DF91CF911F910F91FF90EF90D5
:102F9000DF90CF90BF90AF907F906F905F904F90F9
:102FA0000C944F17CF93DF93CDB7DEB768970FB66A
:102FB000F894DEBF0FBECDBF789484B5826084BD27
:102FC00084B5816084BD85B5826085BD85B581602D
:102FD00085BD80916E00816080936E0010928100AB
:102FE0008091810082608093810080918100816066
:102FF0008093810080918000816080938000809127
:10300000B10084608093B1008091B00081608093B2
:10301000B00080917A00846080937A0080917A0079
:10302000826080937A0080917A008E7F80937A000C
:1030300080917A00806880937A001092C10010928B
:10304000170310921603109227031092260381E0B3
:1030500080932803109205031092040386E70E94D0
:10306000AB0D9093020180930101892B39F487E71E
:103070000E94AB0D909302018093010180910101A8
:10308000909102018230910519F18330910501F18F
:10309000019709F041C080E090E0A0E0BFE3809399
:1030A000030190930401A0930501B093060180935E
:1030B000070190930801A0930901B0930A011092AF
:1030C0000B0110920C0110920D0110920E0124C000
:1030D0008EEA97E4A1E6BFE3809303019093040195
:1030E000A0930501B09306018AE999E9A9E1BEE33D
:1030F0008093070190930801A0930901B0930A01FE
:1031000083E090E0A0E0B0E080930B0190930C018D
:10311000A0930D01B0930E0180E090E00E94ED2895
:103120008F3F29F090E0909317038093160381E07E
:1031300090E00E94ED288F3F29F090E090932703C4
:103140008093260382E090E00E94ED288F3F31F0CB
:1031500091E0811101C090E09093280383E090E01A
:103160000E94ED288F3F31F091E0811101C090E085
:103170009093050384E090E00E94ED288F3F31F0AA
:1031800091E0811101C090E0909304038091E405E7
:103190009091E505892BB9F48CE090E00E943630DF
:1031A000FC011382128288EE93E0A0E0B0E08483F9
:1031B0009583A683B78389E191E091838083F0931F
:1031C000E505E093E40510926F001092800081E81D
:1031D0008093810081E493E09093FD028093FC0250
:1031E00089E19EE19093FB028093FA0262E088E01D
:1031F0000E94190589E00E94650D61E089E00E9446
:1032000019051092F9021092F8021092F70210922A
:10321000F6021092F5021092F40280E286BB8093CF
:103220006F0068EE73E080E090E00E94B10580914D
:10323000010190910201892B51F46CEA73E086E060
:103240000E941E176EEA71E086E00E941E178091B0
:10325000260390912703019731F08091010190910D
:103260000201039751F06CEA73E08EE00E941E1792
:103270006EEA71E08EE00E941E1780912603909105
:103280002703019731F08091010190910201892B70
:10329000A1F46CEA73E08CE00E941E176CEA73E004
:1032A0008DE00E941E176EEA71E08CE00E941E17EE
:1032B0006EEA71E08DE00E941E17809126039091C6
:1032C0002703892BF1F46CEA73E081E00E941E175A
:1032D0006CEA73E082E00E941E176CEA73E083E000
:1032E0000E941E176EEA71E081E00E941E176EEACE
:1032F00071E082E00E941E176EEA71E083E00E9496
:103300001E178091260390912703892BD1F4809179
:10331000010190910201892BA1F46CEA73E084E031
:103320000E941E176CEA73E085E00E941E176EEA89
:1033300071E084E00E941E176EEA71E085E00E9451
:103340001E178091260390912703029791F16CEA52
:1033500073E087E00E941E176CEA73E088E00E9429
:103360001E176CEA73E089E00E941E176CEA73E096
:103370008AE00E941E176CEA73E08BE00E941E1721
:103380006EEA71E087E00E941E176EEA71E088E045
:103390000E941E176EEA71E089E00E941E176EEA15
:1033A00071E08AE00E941E176EEA71E08BE00E94D5
:1033B0001E178091050381110AC06CEA73E08FE04B
:1033C0000E941E176EEA71E08FE00E941E17809126
:1033D000040381110AC06CEA73E080E10E941E17A9
:1033E0006EEA71E080E10E941E1786E78093350542
:1033F00082E3809336052091160330911703809164
:10340000C404232B59F4811104C08CEA93E00E9478
:10341000721680E0282E80E0382E8EC18111F9CFFF
:103420008EEA91E0F4CFE0900101F0900201E11406
:10343000F10409F083C18091260390912703892B21
:1034400009F00BC48091160390911703019709F0BE
:103450009EC060912D0370912E0380912F03909157
:1034600030030E949C2A2FEB3EE04CE95EE30E9471
:10347000EC290E945E2A60932D0370932E038093A3
:103480002F03909330036091290370912A03809158
:103490002B0390912C030E949C2A2FEB3EE04CE9D9
:1034A0005EE30E94EC290E945E2A609329037093D8
:1034B0002A0380932B0390932C0360913103709126
:1034C000320380913303909134030E949C2A2FEBA6
:1034D0003EE04CE95EE30E94EC290E945E2A609384
:1034E00031037093320380933303909334036091DC
:1034F0000A0370910B0380910C0390910D030E94BD
:103500009A2A28E439EF41E550E40E943C2C0E94BD
:10351000652A60930A0370930B0380930C039093C6
:103520000D0360914F03709150038091510390916E
:1035300052030E949C2A2DED38EE41EF5CE30E947D
:103540003C2C0E945E2A60934F037093500380933B
:103550005103909352036091490370914A03072EDF
:10356000000C880B990B0E949C2A26E636E646EE54
:103570005FE30E943C2C20E030E040EA53E40E94EC
:1035800004290E945E2A70934A0360934903409184
:103590002D0350912E0360912F037091300384E02E
:1035A0000E944F174091290350912A0360912B03E9
:1035B00070912C0385E00E944F1740913103509188
:1035C0003203609133037091340386E00E944F17F9
:1035D00040910A0350910B0360910C0370910D030D
:1035E00087E00E944F1740914F0350915003609124
:1035F0005103709152038CE00E944F174091490390
:1036000050914A03052E000C660B770B8DE00E944B
:103610004F174091470350914803052E000C660B4D
:10362000770B8EE00E944F1780910503882341F1AC
:1036300080E00E949A05BC01990F880B990B0E94AB
:103640009C2A23E333E343E550E40E943C2C20E032
:1036500030E040E85AE30E943C2C20E030E040E4B7
:1036600050E40E943C2C20E030E048EC52E40E9400
:103670003C2C0E945E2AAB01BC018FE00E944F17D8
:1036800080910403882341F181E00E949A05BC01E6
:10369000990F880B990B0E949C2A23E333E343E59F
:1036A00050E40E943C2C20E030E040E85AE30E94C5
:1036B0003C2C20E030E040E450E40E943C2C20E030
:1036C00030E048EC52E40E943C2C0E945E2AAB01A0
:1036D000BC0180E10E944F178091F1049091F204A7
:1036E000DC01ED91FC910480F581E02D0995082F16
:1036F00081110C945D258091000181110C945D2550
:10370000C090AB04D090AC04E090AD04F090AE0457
:1037100026E9C20ED11CE11CF11C0E94EB056C15C0
:103720007D058E059F0510F00C94D02621143104E0
:1037300009F479CE0E94000017E075CE0E94DC0FDC
:103740000E945E2A60934F0370935003809351034D
:10375000909352030E94DC0F20E030E048EC52E4EA
:103760000E94EC2920E030E54DE754E40E94EC296A
:1037700021E03EED42E45EE30E94A92C9B01AC01F6
:1037800060E070E080E89FE30E94032920E03AE2D5
:103790004DE257E40E943C2C20E030E048EC52E43B
:1037A0000E943C2C0E945E2A4B015C0160934B03FB
:1037B00070934C0380934D0390934E030E949C0E94
:1037C00020E030E040E251E40E943C2C0E945E2A5E
:1037D00070934A036093490323E0E216F10409F071
:1037E000FFC00E949C0E8DEF0E94460C6C01E12CE4
:1037F000F12CC11430E8D306E104F10409F4E0C06F
:103800004090250650902606609027067090280666
:103810004CE2541A41E0640A71083EE0CC0CDD1C15
:10382000EE1CFF1C3A95D1F720915C0630915D06A5
:10383000C901330FAA0BBB0B44E1880F991FAA1FC4
:10384000BB1F4A95D1F7C81AD90AEA0AFB0AA09108
:103850005E06B0915F06A30192010E949A2EC61ADD
:10386000D70AE80AF90A50E4D50EE11CF11C5FE022
:10387000F594E794D794C7945A95D1F7A091600630
:103880000A2E000CBB0BA30192010E949A2E9B01F1
:10389000AC016AE055954795379527956A95D1F71C
:1038A00029833A834B835C83A0915B06B0E0A3013C
:1038B00092010E948F2EDC01CB017BE0B595A7958C
:1038C000979587957A95D1F7BC01CD0170588F4FA8
:1038D0009F4F29813A814B815C810E94382EDC0107
:1038E000CB01EAE0B595A79597958795EA95D1F72D
:1038F0009C01AD01405E5F4FA0915906B0915A0600
:103900000E949A2EDC01CB01905EAF4FBF4FBC01ED
:10391000CD01FEE09595879577956795FA95D1F756
:10392000A70196010E94382E6B017C01AFE09595AE
:10393000879577956795AA95D1F79B01AC010E9471
:10394000382E9B01AC01B7E05595479537952795E3
:10395000BA95D1F7A0915806B0E00E948F2EDC01F5
:10396000CB0104E0B595A795979587950A95D1F772
:10397000C81AD90AEA0AFB0AF7FE03C0C12CD12CE7
:103980007601D701C60131E0C316D104E10439E163
:10399000F30624F080E090E0A0E0B9E1BC01CD01A5
:1039A0002CE095958795779567952A95D1F70E9494
:1039B0009C2A20E030E040E85AE30E943C2C04C0FE
:1039C00060E070E080EC9FE720E030E040E251E40E
:1039D0000E943C2C0E945E2A709348036093470328
:1039E00040914503509146035A8349834331510521
:1039F00081F48092410390924203A0924303B092DB
:103A0000440310923D0310923E0310923F03109224
:103A100040030E94EB05C0903903D0903A03E09038
:103A20003B03F0903C03DC01CB018C199D09AE09EE
:103A3000BF0987399105A105B10508F4B9C0809186
:103A4000350390913603A0913703B0913803A50157
:103A50009401281B390B4A0B5B0BCA01B9010E9468
:103A60009C2A6D837E838F8398870E94EB052B01B0
:103A70003C010E94EB056093390370933A038093F5
:103A80003B0390933C038092350390923603A092BF
:103A90003703B0923803C301B2016C197D098E0956
:103AA0009F090E949A2A9B01AC0160E070E08AE7BE
:103AB00094E40E94EC299B01AC016D817E818F8191
:103AC00098850E943C2C0E945E2A0E949C2A6B01D1
:103AD0007C0120913D0330913E0340913F03509182
:103AE0004003609103017091040180910501909160
:103AF00006010E943C2C2B013C01209107013091D2
:103B000008014091090150910A01C701B6010E94C4
:103B10003C2C9B01AC01C301B2010E9404296093BB
:103B20003D0370933E0380933F03909340030E94B4
:103B30005E2AC0900B01D0900C01E0900D01F09036
:103B40000E01C616D706E806F9067CF4AB01BC01E7
:103B50004C195D096E097F0940933103509332037C
:103B6000609333037093340323C0442455243201FB
:103B70004C185D086E087F08641575058605970565
:103B80007CF4DC01CB018C0D9D1DAE1DBF1D80930F
:103B9000310390933203A0933303B093340308C0EE
:103BA00010923103109232031092330310923403B7
:103BB0008091410390914203A0914303B09144034B
:103BC000A5019401281B390B4A0B5B0BCA01B901F3
:103BD0002AE030E040E050E00E946A2E20932D035E
:103BE00030932E0340932F0350933003C501B4014B
:103BF00024E630E040E050E00E946A2E2093290342
:103C000030932A0340932B0350932C0349815A810C
:103C1000443151050CF00FCC7A015FEFE51AF50A3B
:103C2000F0924603E0924503109231031092320362
:103C3000109233031092340310922D0310922E032E
:103C400010922F03109230031092290310922A032E
:103C500010922B0310922C03EECB8091E4059091EF
:103C6000E505892B09F44BC48091E4059091E505A5
:103C7000DC01ED91FC910084F185E02D0995892B03
:103C800009F43DC48091E4059091E505DC01ED91D6
:103C9000FC910284F385E02D0995082F8091D405CD
:103CA0009091D505A091D605B091D7050196A11D9B
:103CB000B11D8093D4059093D505A093D605B093FC
:103CC000D705043209F4C4C2E091CE05053234F4BC
:103CD0000A3071F00D3009F0C9C20AC00A3241F051
:103CE0000C3209F0C3C28091BB0580278093BB05CD
:103CF000EF3008F083C1F0E0E354FA4F1082809176
:103D0000BC05882309F47CC12091BD053FEB320F2F
:103D1000822F022E000C990B363010F4C79707C083
:103D20002156263018F48755910901C0C097829515
:103D3000807F9091BE054FEB490F292F092E000C73
:103D4000330B463018F42753310908C0915696308A
:103D500018F42755310902C020533109820F909180
:103D6000BB05891338C18091E0059091E105A091D0
:103D7000E205B091E3050196A11DB11D8093E00518
:103D80009093E105A093E205B093E3058091CF0500
:103D9000882399F08091D8059091D905A091DA05F2
:103DA000B091DB050196A11DB11D8093D8059093BC
:103DB000D905A093DA05B093DB05F090CC05FF2080
:103DC00009F46BC0B1E0FB12D3C080915F05909104
:103DD0006005A0916105B091620580935B059093A9
:103DE0005C05A0935D05B0935E050E94EB056093B2
:103DF0006305709364058093650590936605F09262
:103E00005A05F092590580916D0590916E05A0912B
:103E10006F05B09170058093690590936A05A09332
:103E20006B05B0936C050E94EB0560937105709370
:103E300072058093730590937405F0926805F09273
:103E400067058091CF05882309F492C0E7E4F5E087
:103E5000A9E3B5E0812F01900D928A95E1F7EEE498
:103E6000F5E0A0E4B5E0812F01900D928A95E1F78D
:103E70000E94EB0560935505709356058093570596
:103E800090935805F0923805F092370585E795E054
:103E90000E94F90883E895E069C080916D059091D2
:103EA0006E05A0916F05B0917005809369059093A0
:103EB0006A05A0936B05B0936C050E94EB056093B7
:103EC0007105709372058093730590937405E1E01A
:103ED000E0936805E09367058091CF05882329F179
:103EE000E7E4F5E0A9E3B5E0812F01900D928A9512
:103EF000E1F7EEE4F5E0A0E4B5E0812F01900D924A
:103F00008A95E1F70E94EB0560935505709356057D
:103F10008093570590935805F1E0F0933805F0939E
:103F2000370581E995E00E94F9088091A9059091F3
:103F3000AA05A091AB05B091AC058093A50590931F
:103F4000A605A093A705B093A8050E94EB05609372
:103F5000A1057093A2058093A3059093A40521E089
:103F60002093A00520939F058DEA95E00E94F90813
:103F7000E090D205F090D305E114F10409F456C1A4
:103F8000E091D205F091D30566A177A1D70196966D
:103F90008D919C9197970E948B31892B09F046C196
:103FA000B701C70140960E9494310E94EB05D701EA
:103FB00090966D937D938D939C939397E1E0959666
:103FC000EC939597F1E09496FC9394979A96ED90E4
:103FD000FC909B97D1CF8091DC059091DD05A0915D
:103FE000DE05B091DF050196A11DB11D8093DC05B2
:103FF0009093DD05A093DE05B093DF0580E017C147
:104000009091CD0591114AC065E671E08DEB95E088
:104010000E948B31892B41F06BE671E08DEB95E0CE
:104020000E948B31892B21F4B1E0B093CC0516C0EE
:1040300061E771E08DEB95E00E948B31892B41F0B7
:1040400067E771E08DEB95E00E948B31892B19F4C5
:104050001092CC0503C0E2E0E093CC058091D0053E
:104060009091D1059093D3058093D205E090D2052D
:10407000F090D305E114F10409F4C0CFF701C6A014
:10408000D7A06DEB75E0C6010E948B3197FF25C765
:10409000D7019A968D919C919B97E4CFE091CC05A6
:1040A000E23009F491C08091BD05882309F48CC0E9
:1040B00020E2E29FF0011124E92B3197E932F1056A
:1040C00008F082C0EC5CFF4F0C94892E8DEB95E0DC
:1040D0000E94980960936D0570936E0580936F053B
:1040E0009093700571C091E0813409F043C043C0E2
:1040F00067E475E009C091E0833509F090E09093A2
:104100004D0562C06EE475E08DEB95E00E941009EC
:104110005BC091E0873509F090E09093540554C05E
:104120008DEB95E00E94980960937F057093800560
:10413000809381059093820547C08DEB95E00E94A6
:10414000980960938D0570938E0580938F059093E9
:1041500090053AC08DEB95E00E94A82860935F051A
:104160007093600580936105909362052DC091E086
:1041700081330CF490E09093CF0526C08DEB95E051
:104180000E94A8286093A9057093AA058093AB05A7
:104190009093AC0519C08DEB95E00E94980960934F
:1041A000B7057093B8058093B9059093BA050CC014
:1041B0008DEB95E00E94980960939B0570939C0598
:1041C00080939D0590939E05E090D205F090D305D5
:1041D000E114F10409F412CFE091D205F091D30576
:1041E00066A177A1F70186A197A10E948B31892B47
:1041F00009F004CFD70198962D913C919997809121
:10420000CD0590E0821793070CF4F8CE28173907F4
:1042100039F440E150E06DEB75E0C7010E949B313D
:10422000D7019A96ED90FC909B97D2CF81E0909128
:10423000CD059F5F9093CD051092CE0591E00A3297
:1042400009F090E09093BC05882309F40DCD23C0BC
:104250001092CE051092CD051092BB05B2E0B0933E
:10426000CC051092BC051092CF05FECCEE3040F488
:1042700081E08E0F8093CE05F0E0E354FA4F008387
:104280008091BC058111F0CC8091BB05B02EB82681
:10429000B092BB05E9CC1092380560913905709158
:1042A0003A0580E090E00E949A2A6B017C016091BF
:1042B0003B0570913C0580913D0590913E050E9423
:1042C0009A2A28E23BE64EE65EE40E94EC299B0136
:1042D000AC01C701B6010E94042920913F05DC0111
:1042E000CB012111B0588093E6059093E705A09388
:1042F000E805B093E905609140057091410580E0C3
:1043000090E00E949A2A6B017C01609142057091B5
:10431000430580914405909145050E949A2A28E220
:104320003BE64EE65EE40E94EC299B01AC01C7012E
:10433000B6010E94042920914605DC01CB01211120
:10434000B0588093EA059093EB05A093EC05B093E9
:10435000ED0580913705882389F00E94EB05C09018
:104360005505D0905605E0905705F0905805DC01B2
:10437000CB018C199D09AE09BF0903C08FEF9FEFD8
:10438000DC018093060690930706A0930806B0937D
:1043900009061092760560917B0570917C058091ED
:1043A0007D0590917E050E949C2A6B017C0126E58B
:1043B0003EE04DEE5FE30E943C2C20E030E048EC14
:1043C00052E40E94EC290E945E2A6093F6057093E5
:1043D000F7058093F8059093F9052EEB3CE443E94B
:1043E0005FE3C701B6010E943C2C20E030E048ECBE
:1043F00052E40E94EC290E945E2A6093FA057093B1
:10440000FB058093FC059093FD0510929205609149
:104410009705709198058091990590919A050E9451
:104420009C2A6B017C0120E030E048EC52E40E94C1
:10443000EC290E945E2A6093EE057093EF0580934D
:10444000F0059093F10528E439EF41E550E4C70108
:10445000B6010E943C2C20E030E048EC52E40E947F
:10446000EC290E945E2A6093F2057093F305809315
:10447000F4059093F505109284056091890570917B
:104480008A0580918B0590918C050E949C2A20E0E2
:1044900030E048EC52E40E94EC290E945E2A6093CE
:1044A000FE057093FF05809300069093010610921D
:1044B000AE058091B3059091B405A091B505B0917A
:1044C000B6058093020690930306A0930406B0936A
:1044D00005068091370580930A061092A005809109
:1044E000A5059091A605A091A705B091A805809378
:1044F0000B0690930C06A0930D06B0930E068091C8
:10450000250381112AC080910A06882309F4E2C498
:104510008091060690910706A0910806B0910906C1
:10452000803D9740A105B1050CF0D4C4B1E0B09333
:10453000250380912403811110C00E94EB05DC014A
:10454000CB0188579C4EAF4FBF4F80932003909371
:104550002103A0932203B093230380912503882392
:1045600009F42EC28090E6059090E705A090E8053A
:10457000B090E90580921C0390921D03A0921E0347
:10458000B0921F03C090EA05D090EB05E090EC05D7
:10459000F090ED05C0921803D0921903E0921A032F
:1045A000F0921B038091160390911703892B49F415
:1045B0004091F6055091F7056091F8057091F90565
:1045C00008C04091FA055091FB056091FC0570917F
:1045D000FD0583E00E944F174091FE055091FF05B5
:1045E000609100067091010688E00E944F1780914B
:1045F000240381113DC0409020035090210360901E
:10460000220370902303141415041604170484F570
:104610000E94EB05461657066806790648F5E1E064
:10462000E09324038092120390921303A092140348
:10463000B0921503C0920E03D0920F03E0921003C4
:10464000F09211038091010190910201892B81F474
:104650008091EE059091EF05A091F005B091F105E4
:104660008093410390934203A0934303B093440388
:104670004091EE055091EF056091F0057091F105C4
:104680004093290350932A0360932B0370932C03C8
:104690008091010190910201892BD1F48091410315
:1046A00090914203A0914303B09144039A01AB015E
:1046B000281B390B4A0B5B0BAAE0B0E00E948F2E3F
:1046C00060932D0370932E0380932F0390933003F8
:1046D00080912403882309F462C120910E03309154
:1046E0000F0340911003509111036091EA057091FE
:1046F000EB058091EC059091ED050E94032925E3DF
:104700003AEF4EE85CE30E943C2C6B017C010E9476
:10471000F92C69877A878B879C87C701B6010E942D
:10472000E72969837A838B839C8325E33AEF4EE8FC
:104730005CE36091E6057091E7058091E805909152
:10474000E9050E943C2C2B013C0125E33AEF4EE8A1
:104750005CE36091120370911303809114039091B4
:1047600015030E943C2C6B017C01C301B2010E9425
:10477000F92C4B015C01C301B2010E94E7296D8352
:104780007E838F839887C701B6010E94F92C6D87BD
:104790007E878F87988BC701B6010E94E7296B013E
:1047A0007C012D853E854F8558896D817E818F8165
:1047B00098850E943C2C698B7A8B8B8B9C8BA701F4
:1047C0009601C501B4010E943C2C6D8B7E8B8F8BB2
:1047D000988F29813A814B815C810E943C2C9B01FE
:1047E000AC0169897A898B899C890E9403299B0184
:1047F000AC010E943C2C2B013C0129853A854B855C
:104800005C85C701B6010E943C2C9B01AC010E9453
:104810003C2C9B01AC01C301B2010E9404290E94FF
:10482000072D2B013C012D853E854F855889C501FB
:10483000B4010E943C2C4B015C01A70196016D81E3
:104840007E818F8198850E943C2C29813A814B8101
:104850005C810E943C2C9B01AC01C501B4010E940B
:1048600004299B01AC01C301B2010E94832926E700
:104870003BE742EC5AE40E943C2C0E94652A6B0103
:104880007C0160930A0370930B0380930C03909355
:104890000D03809128038823D1F160912D0370913D
:1048A0002E0380912F03909130032AE030E040E006
:1048B00050E00E946A2ECA01B9010E949C2A4B0155
:1048C0005C01C701B6010E949A2A6B017C01A50117
:1048D0009401C501B4010E943C2C4B015C01A7016D
:1048E0009601C701B6010E943C2C9B01AC01C50199
:1048F000B4010E9404290E94072D0E94652A60933A
:104900000A0370930B0380930C0390930D0329818A
:104910003A814B815C8169897A898B899C890E9463
:104920003C2C9B01AC016D897E898F89988D0E94FA
:1049300003296B017C012D813E814F81588569855A
:104940007A858B859C850E943C2CA70196010E944C
:1049500083296B017C0120E030E0A9010E94E2295B
:1049600087FF0AC02BED3FE049EC50E4C701B601D8
:104970000E9404296B017C0121EE3EE245E652E4EF
:10498000C701B6010E943C2C0E945E2A6093060378
:1049900070930703809308039093090353C0109208
:1049A0000A0310920B0310920C0310920D03109245
:1049B000060310920703109208031092090342C0E5
:1049C00010921C0310921D0310921E0310921F03DD
:1049D000109218031092190310921A0310921B03DD
:1049E0008091010190910201892B41F410922D03D5
:1049F00010922E0310922F0310923003109229036D
:104A000010922A0310922B0310922C0310920A0387
:104A100010920B0310920C0310920D0310920603D8
:104A200010920703109208031092090340E050E02F
:104A3000BA0183E00E944F1740E050E0BA0188E0DD
:104A40000E944F1720911C0330911D0340911E03BB
:104A500050911F0360E081E00E94681720911803C5
:104A60003091190340911A0350911B0361E082E0D9
:104A70000E94681740910603509107036091080354
:104A80007091090389E00E944F1740910B065091E5
:104A90000C0660910D0670910E068AE00E944F1779
:104AA000409102065091030660910406709105063C
:104AB0008BE00E944F170C94221A0E94EB05C090C5
:104AC0000003D0900103E0900203F09003036C1503
:104AD0007D058E059F0510F40C94801B0E94EB054C
:104AE000DC01CB0188539F4FAF4FBF4F8093000332
:104AF00090930103A0930203B0930303003E89F453
:104B00008091FE029091FF02893091050CF0A5C0C2
:104B100001969093FF028093FE02B1E0B0930001F2
:104B20009CC0003789F48091FE029091FF02181614
:104B300019060CF092C001979093FF028093FE0239
:104B4000E1E0E093000189C0003B09F086C0E091FC
:104B5000FE02F091FF023197E930F10508F07AC0CA
:104B6000E35AFF4F0C94892EE0E0F0E00995809124
:104B7000160390911703892B39F481E090E090930C
:104B800017038093160366C0109217031092160342
:104B900061C08091260390912703009719F481E06A
:104BA00090E005C08130910539F482E090E0909367
:104BB0002703809326034EC0029709F04BC0109242
:104BC00027031092260346C080912803F1E08F2727
:104BD000809328033FC08091050321E082278093C2
:104BE000050338C08091040331E0832780930403D8
:104BF00031C06091160380E090E00E94620B6091EA
:104C0000260381E090E00E94620B6091280382E01D
:104C100090E00E94620B6091050383E090E00E94A7
:104C2000620B6091040384E090E00E94620BE0E07C
:104C3000F0E00995E12CF12C6FEFC7010E94F528F7
:104C4000FFEFEF1AFF0A2AE0E216F104A9F7E0E00D
:104C5000F0E00995F1E0F0930001809100018823D4
:104C600011F40C94801BE091FE02F091FF02EA30F7
:104C7000F10508F091C0EA59FF4F0C94892E6DE7B9
:104C800071E080E090E00E94BE136DE871E080C0AA
:104C90006CE971E080E090E00E94BE136DEA71E083
:104CA00077C08091160390911703892B19F469EB53
:104CB00071E017C069EC71E014C0809126039091F7
:104CC00027038130910541F08230910541F0892B15
:104CD00061F467EE71E005C065EF71E002C060E06D
:104CE00072E080E090E00E94BE136AED71E050C077
:104CF00080912803882319F06EE072E0F2CF6FE113
:104D000072E0EFCF60E372E080E090E00E94BE13BB
:104D100080910101909102018130910571F02CF494
:104D2000892BD1F561E472E033C08230910541F006
:104D3000039791F56DE672E02BC06FE472E028C036
:104D400060E672E025C080910503882319F06AE7C8
:104D500072E0C7CF69E872E0C4CF80910403882372
:104D600019F069E972E0BDCF68EA72E0BACF68EB8A
:104D700072E080E090E00E94BE1369EC72E008C02F
:104D800064ED72E080E090E00E94BE1363EE72E09A
:104D900081E090E00E94BE13109200010C94801BF1
:104DA0000E94EB056093AB047093AC048093AD0458
:104DB0009093AE0480913405882351F18091F104E1
:104DC0009091F204DC01ED91FC910280F381E02DE1
:104DD00040E06EE709958091F1049091F204DC01C6
:104DE000ED91FC910280F381E02D41E061E90995AC
:104DF0008091F1049091F204DC01ED91FC9102802C
:104E0000F381E02D41E061E30995109234055EC025
:104E1000F0903305FF2009F44BC0CF2C0F2C000C71
:104E2000DD08C6010E946C31892B31F0C6010E9459
:104E30007331F82E00E001C001E08091F1049091FF
:104E4000F204DC01ED91FC910280F381E02D40E061
:104E50006EE709958091F1049091F204DC01ED91E7
:104E6000FC910280F381E02D41E062E009958091A0
:104E7000F1049091F204DC01ED91FC910280F38148
:104E8000E02D011102C062E201C063E241E0099538
:104E90008091F1049091F204DC01ED91FC9102808B
:104EA000F381E02D41E06F2D0995109233050EC07E
:104EB0008091C5049091C604892B41F08091AF0484
:104EC00091E0980F9093AF040E94DC130E942B1680
:104ED0000C94961B1092250340CB6DEB75E0C60138
:104EE0000E948B31181619060CF088C81092D30551
:104EF0001092D20583C8E5E6F6E01382128288EEAE
:104F000093E0A0E0B0E084839583A683B7838BE22F
:104F100091E091838083E7E3F5E0108211821382B0
:104F200012821482158216821782108612861186CA
:104F300013861486158616861786118A108A128A99
:104F4000138A148A158A168A108E178A118E128E69
:104F5000138E148E158E12A213A214A215A216A2DD
:104F600017A210AA11AA12AA13AA14AA15AA10927B
:104F700075051092760510927B0510927C051092B3
:104F80007D0510927E051092830510928405109283
:104F9000890510928A0510928B0510928C0510924B
:104FA0009105109292051092970510929805109213
:104FB000990510929A0510929F051092A0051092E3
:104FC000A5051092A6051092A7051092A8051092AB
:104FD000AD051092AE051092B3051092B405109273
:104FE000B5051092B6051092BB051092BC0582E083
:104FF0008093CC051092CD051092CE051092CF056E
:105000001092D1051092D0051092D3051092D205BE
:105010001092D4051092D5051092D6051092D7059E
:105020001092D8051092D9051092DA051092DB057E
:105030001092DC051092DD051092DE051092DF055E
:105040001092E0051092E1051092E2051092E3053E
:105050001092BD051092E5051092E4051092E60548
:105060001092E7051092E8051092E9051092EA0502
:105070001092EB051092EC051092ED051092EE05E2
:105080001092EF051092F0051092F1051092F205C2
:105090001092F3051092F4051092F5051092F605A2
:1050A0001092F7051092F8051092F9051092FA0582
:1050B0001092FB051092FC051092FD05109202065D
:1050C000109203061092040610920506109206062E
:1050D00010920706109208061092090610920B060D
:1050E00010920C0610920D0610920E06EBEAF4E0F8
:1050F00010821182128213821482118E138E128EEC
:10510000158E148E178E168E10A211A21092F20414
:105110001092F104109233051092340586E78093C3
:10512000350582E38093360515828FEF9FEFDC0112
:105130008093ED049093EE04A093EF04B093F004F9
:1051400080E2EDECF4E0DF011D928A95E9F7089525
:105150001F93FC0199278827BC01E8941191103214
:10516000E9F3193010F01E30C8F31B3251F01D3234
:1051700049F4689406C00E94D828610F711D811DF2
:10518000911D119110531A30B0F33EF49095809513
:10519000709561957F4F8F4F9F4F1F910895FB0131
:1051A000DC0102C005900D9241505040D8F708959F
:1051B000592F482F372F262F660F771F881F991FCB
:1051C000660F771F881F991F620F731F841F951F1B
:1051D000660F771F881F991F0895F999FECF92BD1A
:1051E00081BDF89A992780B50895262FF999FECFA9
:1051F0001FBA92BD81BD20BD0FB6F894FA9AF99AF4
:105200000FBE019608955058BB27AA270E941B295C
:105210000C94B22B0E94792B38F00E94802B20F046
:1052200039F49F3F19F426F40C943F2B0EF4E095CB
:10523000E7FB0C94392BE92F0E94D72B58F3BA17B0
:10524000620773078407950720F079F4A6F50C949C
:10525000F92B0EF4E0950B2EBA2FA02D0B01B901FE
:1052600090010C01CA01A0011124FF27591B99F0DC
:10527000593F50F4503E68F11A16F040A22F232FE8
:10528000342F4427585FF3CF469537952795A79538
:10529000F0405395C9F77EF41F16BA0B620B730BDF
:1052A000840BBAF09150A1F0FF0FBB1F661F771F50
:1052B000881FC2F70EC0BA0F621F731F841F48F405
:1052C000879577956795B795F7959E3F08F0B0CF8E
:1052D0009395880F08F09927EE0F97958795089575
:1052E0000E94792B60F080E891E009F49EEF0E9423
:1052F000802B28F040E851E071F45EEF0CC00C9474
:105300003F2B0C94F92BE92FE0780E94D72B40F328
:10531000092E052AB1F3261737074807590738F031
:105320000E2E07F8E02569F0E025E0640AC0EF637F
:1053300007F8009407FADB01B9019D01DC01CA01FD
:10534000AD01EF930E94032A0E94B22B0E94B32961
:105350005F91552339F02BED3FE049E450FD49ECD6
:105360000C9404290895DF93DD27B92FBF7740E817
:105370005FE31616170648075B0718F4D92F0E943B
:10538000002C9F938F937F936F930E94472DE0EEA5
:10539000F0E00E94522B0E94B22B2F913F914F912F
:1053A0005F910E944F2CDD2351F09058A2EA2AED24
:1053B0003FE049EC5FE3D0785D270E941B29DF9135
:1053C0000C94B22B0E94152B08F481E008950E94E2
:1053D000892BE3950C94C32B0E94002A0C94B22BCA
:1053E0000E94802B58F00E94792B40F029F45F3FF7
:1053F00029F00C94392B51110C94FA2B0C943F2B5F
:105400000E94D72B68F39923B1F3552391F3951B91
:10541000550BBB27AA2762177307840738F09F5FD5
:105420005F4F220F331F441FAA1FA9F335D00E2E42
:105430003AF0E0E832D091505040E695001CCAF7AF
:105440002BD0FE2F29D0660F771F881FBB1F261772
:1054500037074807AB07B0E809F0BB0B802DBF0149
:10546000FF2793585F4F3AF09E3F510578F00C9418
:10547000392B0C94FA2B5F3FE4F3983ED4F38695D6
:1054800077956795B795F7959F5FC9F7880F911D39
:105490009695879597F90895E1E0660F771F881F25
:1054A000BB1F621773078407BA0720F0621B730BD8
:1054B000840BBA0BEE1F88F7E09508950E94652AC9
:1054C0006894B1110C94FA2B08950E94DF2B88F098
:1054D0009F5798F0B92F9927B751B0F0E1F0660FB8
:1054E000771F881F991F1AF0BA95C9F714C0B130F9
:1054F00091F00E94F92BB1E008950C94F92B672FDD
:10550000782F8827B85F39F0B93FCCF38695779527
:105510006795B395D9F73EF4909580957095619510
:105520007F4F8F4F9F4F089597FB16F40E94422B99
:105530000C94D82AE89409C097FB3EF49095809586
:10554000709561957F4F8F4F9F4F9923A9F0F92F49
:1055500096E9BB279395F695879577956795B795C7
:10556000F111F8CFFAF4BB0F11F460FF1BC06F5FAD
:105570007F4F8F4F9F4F16C0882311F096E911C0BF
:10558000772321F09EE8872F762F05C0662371F0E0
:1055900096E8862F70E060E02AF09A95660F771FF4
:1055A000881FDAF7880F9695879597F90895E894FC
:1055B000F92F96EBFF2381F0121613061406440B05
:1055C0009395F69587957795679557954040FF2376
:1055D000B9F71BC099270895882351F49850D2F742
:1055E000872B762F652F542F432F322F20E0B1F3D6
:1055F000121613061406440B88233AF09A95440FAA
:10560000551F661F771F881FCAF755234AF4440F9A
:10561000551F11F460FF04C06F5F7F4F8F4F9F4F86
:10562000880F9695879597F90895990F0008550F5B
:10563000AA0BE0E8FEEF16161706E807F907C0F018
:1056400012161306E407F50798F0621B730B840B20
:10565000950B39F40A2661F0232B242B252B21F4FA
:1056600008950A2609F4A140A6958FEF811D811D9A
:10567000089597F99F6780E870E060E008959FEFD4
:1056800080EC089590958095709560955095409523
:10569000309521953F4F4F4F5F4F6F4F7F4F8F4F4B
:1056A0009F4F0895DF93CF931F930F93FF92EF9235
:1056B000DF927B018C01689406C0DA2EEF010E9414
:1056C0004F2CFE01E894A591259135914591559176
:1056D000A6F3EF010E941B29FE019701A801DA94AD
:1056E00069F7DF90EF90FF900F911F91CF91DF91BD
:1056F000089500240A941616170618060906089538
:1057000000240A94121613061406050608950C9434
:105710003F2B0E94DF2BD8F3E894E0E0BB279F5794
:10572000F0F02AED3FE049EC06C0EE0FBB0F661F1C
:10573000771F881F28F0B23A62077307840728F0A2
:10574000B25A620B730B840BE3959A9572F780380B
:1057500030F49A95BB0F661F771F881FD2F79048C9
:105760000C94872D092E0394000C11F4882352F019
:10577000BB0F40F4BF2B11F460FF04C06F5F7F4F7D
:105780008F4F9F4F0895EF93E0FF07C0A2EA2AEDE5
:105790003FE049EC5FEB0E941B290E94B22B0F9067
:1057A000039401FC9058EDE0F1E00C949A2D57FD24
:1057B0009058440F551F59F05F3F71F04795880F7F
:1057C00097FB991F61F09F3F79F087950895121616
:1057D00013061406551FF2CF4695F1DF08C01616C2
:1057E00017061806991FF1CF869571056105089473
:1057F0000895E894BB2766277727CB0197F908958A
:105800009B01AC0160E070E080E89FE30C94EC2920
:10581000FA01DC01AA0FBB1F9B01AC01BF5728F4A2
:10582000222733274427507820C0B75190F4AB2F5C
:105830000024469537952795011CA395D2F30020A7
:1058400071F0220F331F441FB395DAF30ED00C947E
:10585000032961307105A0E88A07B94630F49B013D
:10586000AC016627772788279078309621F020832F
:1058700031834283538308950E944F2C0C94B22BA2
:105880000E94792B38F00E94802B20F0952311F094
:105890000C94392B0C943F2B11240C94FA2B0E945E
:1058A000D72B70F3959FC1F3950F50E0551F629F62
:1058B000F001729FBB27F00DB11D639FAA27F00D69
:1058C000B11DAA1F649F6627B00DA11D661F829F90
:1058D0002227B00DA11D621F739FB00DA11D621F75
:1058E000839FA00D611D221F749F3327A00D611D92
:1058F000231F849F600D211D822F762F6A2F112474
:105900009F5750409AF0F1F088234AF0EE0FFF1FA6
:10591000BB1F661F771F881F91505040A9F79E3FFD
:10592000510580F00C94392B0C94FA2B5F3FE4F373
:10593000983ED4F3869577956795B795F795E79553
:105940009F5FC1F7FE2B880F911D9695879597F95C
:105950000895FA01EE0FFF1F309621053105A1F1E0
:105960006115710561F48038BFE39B0749F16894C4
:105970009038810561F08038BFEF9B0741F0992393
:105980004AF5FF3FE1053105210519F1E894089436
:10599000E795D901AA2329F4AB2FBE2FF85FD0F3E6
:1059A00010C0FF5F70F4A695E0F7F73950F019F0DA
:1059B000FF3A38F49F779F930DD00F9007FC9058D3
:1059C000089546F00C943F2B60E070E080E89FE380
:1059D00008954FE79F775F934F933F932F930E94D4
:1059E000F02D2F913F914F915F910E943C2C0C9490
:1059F000532D9F930E94892B0F9007FCEE5F0C9410
:105A0000C32B19F416F40C943F2B0C94852D0E9493
:105A1000DF2BB8F39923C9F3B6F39F57550B87FFD4
:105A20000E94932D0024A0E640EA900180585695EC
:105A3000979528F4805C660F771F881F20F0261743
:105A40003707480730F4621B730B840B2029312978
:105A50004A2BA69517940794202531254A2758F7F5
:105A6000660F771F881F20F026173707480730F486
:105A7000620B730B840B200D311D411DA09581F726
:105A8000B901842F9158880F9695879508959B01A9
:105A9000AC010C943C2C29F416F00C94392B0C948A
:105AA000F92B0C943F2B0E94DF2BA8F39638A0F71C
:105AB00007F80F92E8942BE33AEA48EB5FE70E947D
:105AC000522C0F920F920F924DB75EB70F920E9419
:105AD000082CEBE2F1E00E94522B4F915F91EF9185
