:100000000C9486030C94AE030C94AE030C94AE03D4
:100010000C94AE030C94AE030C94AE030C94AE039C
:100020000C94AE030C94AE030C94DF080C94890975
:100030000C9498080C94AE030C94AE030C94AE038D
:100040000C94E6060C94AE030C941C0B0C945B0B06
:100050000C94B60B0C94AE030C94AE030C94AE034C
:100060000C946A070C94AE031122232226222D221F
:10007000342262226922762283228F228F228F22CB
:100080008F228F228F228F228F228F228F228F22E8
:100090008F228F228F228F228F228F228F228F22D8
:1000A0008F228F228F228F2211221E22232226228C
:1000B0002D2234223B2248225522084AD73B3BCEF0
:1000C000016E84BCBFFDC12F3D6C74319ABD568357
:1000D0003DDA3D00C77F11BED9E4BB4C3E916BAA0F
:1000E000AABE000000803F05A84CCDB2D44EB9385E
:1000F00036A9020C50B9918688083CA6AAAA2ABE45
:10010000000000803F07634236B79BD8A71A3968C2
:100110005618AEBAAB558C1D3CB7CC5763BD6DEDD0
:10012000FD753EF6177231BF000000803F080000E9
:1001300000BE922449123EABAAAA2ABECDCCCC4C1A
:100140003E00000080BEABAAAAAA3E00000000BF8D
:10015000000000803F0000000000084178D3BB434E
:1001600087D1133D190E3CC3BD4282AD2B3E68ECD6
:100170008276BED98FE1A93E4C80EFFFBE01C4FF5D
:100180007F3F000000000000014C617469747564D9
:1001900065000000000000000000000000200000DA
:1001A000000000000900024C6F6E67697475646599
:1001B000000000000000000000000020000000001F
:1001C0000000090003537065656400000000000032
:1001D0000000000000000000006D706800000000DA
:1001E00001000452656C2E20416C7469740000009B
:1001F0000000000000000066740000000000010024
:1002000005416C74697475646500000000000000AD
:1002100000000000006674000000000001000656A7
:100220006172696F00000000000000000000000023
:1002300000000066742F7300000008020744697311
:1002400074616E63650000000000000000000000A3
:100250000066742E000000000100084865616469B2
:100260006E6700000000000000000000000000B009
:10027000000000000000010009436F757273650003
:1002800000000000000000000000000000B00000BE
:100290000000000001000A536174656C6C697465AC
:1002A00073000000000000000000002000000000BB
:1002B000000000000B48444F500000000000000008
:1002C000000000000000000000200000000000000E
:1002D00001020C50726573737572650000000000B6
:1002E00000000000000000696E484700000008029E
:1002F0000D54656D70657261747572650000000063
:100300000000000000B046000000000001010E489F
:10031000756D6964697479000000000000000000D8
:1003200000000025724800000000010100000000EC
:1003300000000000000000000000000000000000BD
:1003400000000000000000000000014C61746974AE
:10035000756465000000000000000000000000203F
:100360000000000000000900024C6F6E67697475A0
:100370006465000000000000000000000020000094
:100380000000000009000353706565640000000070
:1003900000000000000000000000006D7068000018
:1003A000000001000452656C2E20416C74697400D9
:1003B0000000000000000000006674000000000063
:1003C000010005416C7469747564650000000000EB
:1003D0000000000000000066740000000000010042
:1003E00006566172696F0000000000000000000006
:1003F000000000000066742F730000000802000077
:1004000000000000000000000000000000000000EC
:10041000000000000000000000000000014C6174BA
:1004200069747564650000000000000000000000B1
:1004300000200000000000000900024C6F6E676998
:1004400074756465000000000000000000000020DA
:10045000000000000000090003537065656400009F
:10046000000000000000000000000000006B6D2F85
:100470006800000001000452656C2E20416C746914
:1004800074000000000000000000006D000000008B
:100490000000010005416C7469747564650000001A
:1004A0000000000000000000006D000000000000DF
:1004B000010006566172696F000000000000000034
:1004C000000000000000006D2F7300000000080213
:1004D0000744697374616E636500000000000000EA
:1004E00000000000006D000000000000010008484E
:1004F000656164696E670000000000000000000094
:10050000000000B0000000000000010009436F750A
:100510007273650000000000000000000000000091
:1005200000B000000000000001000A536174656C17
:100530006C6974657300000000000000000000207A
:1005400000000000000000000B48444F5000000075
:10055000000000000000000000000000002000007B
:100560000000000001020C50726573737572650023
:100570000000000000000000000000685061000062
:10058000000008020D54656D7065726174757265C6
:10059000000000000000000000B043000000000068
:1005A00001010E48756D69646974790000000000EE
:1005B000000000000000002572480000000001015A
:1005C000000000000000000000000000000000002B
:1005D0000000000000000000000000000000014CCE
:1005E000617469747564650000000000000000001B
:1005F000000000200000000000000900024C6F6EA7
:100600006769747564650000000000000000000068
:1006100000200000000000000900035370656564BD
:100620000000000000000000000000000000006B5F
:100630006D2F6800000001000452656C2E20416C93
:10064000746974000000000000000000006D0000EC
:1006500000000000010005416C7469747564650058
:1006600000000000000000000000006D000000001D
:100670000000010006566172696F00000000000072
:100680000000000000000000006D2F73000000005B
:100690000802000000000000000000000000000050
:1006A000000000000000000000000000000000004A
:1006B00000000000240027002A00000000002500A0
:1006C00028002B000000000023002600290004045D
:1006D00004040404040402020202020203030303EA
:1006E00003030102040810204080010204081020C6
:1006F00001020408102000000008000201000003AD
:10070000040700000000000000006C2C11241FBE34
:10071000CFEFD8E0DEBFCDBF12E0A0E0B1E0EEE366
:10072000FDE602C005900D92A033B107D9F725E090
:10073000A0E3B2E001C01D92A63DB207E1F713E0CD
:10074000C6E8D3E004C02197FE010E94E42DC5381D
:10075000D107C9F70E9453190C949D360C940000E0
:10076000CF92DF92EF92FF920F931F93CF93DF937D
:100770006C017A018B01C0E0D0E0CE15DF0589F075
:10078000D8016D918D01D601ED91FC910190F08120
:10079000E02DC6010995892B11F47E0102C0219636
:1007A000ECCFC701DF91CF911F910F91FF90EF9098
:1007B000DF90CF900895833081F028F4813099F054
:1007C0008230A1F008958730A9F08830B9F08430E4
:1007D000D1F4809180008F7D03C0809180008F775D
:1007E00080938000089584B58F7702C084B58F7D93
:1007F00084BD08958091B0008F7703C08091B000D0
:100800008F7D8093B00008953FB7F8948091700376
:1008100090917103A0917203B091730326B5A89BC8
:1008200005C02F3F19F00196A11DB11D3FBFBA2F82
:10083000A92F982F8827820F911DA11DB11DBC01E2
:10084000CD0143E0660F771F881F991F4A95D1F7A6
:10085000089585ED8093BC008091BC0084FDFCCFA1
:100860001092BC03089540914503262F30E0240FD9
:10087000311D21323105DCF42091BC032430C9F450
:10088000FC0180E090E0861758F4309145032191F7
:10089000DC01AD5DBC4FA30FB11D2C930196F3CFCE
:1008A00080914503680F6093450380E0089581E0DF
:1008B000089582E008950895E0917503809174038E
:1008C000E81730F4F0E0EA58FC4F808190E008959A
:1008D0008FEF9FEF0895909175038091740398179F
:1008E00050F4E92FF0E0EA58FC4F208130E09F5FA0
:1008F0009093750302C02FEF3FEFC90108958091D7
:10090000740390E020917503821B91090895CF92A2
:10091000DF92EF92FF920F931F93CF93DF937C01AF
:10092000262F972F8A018091DF03882391F0C62F0D
:10093000D72F6E01C40ED51ECC15DD0571F069915F
:10094000D701ED91FC910190F081E02DC70109954F
:10095000F3CF642F822F0E943304C801DF91CF911F
:100960001F910F91FF90EF90DF90CF900895CF935C
:10097000DF931F92CDB7DEB769832091DF03222377
:10098000D1F02091DD03203240F021E030E0FC0185
:100990003383228380E090E015C08091DE03E82F4E
:1009A000F0E0E354FC4F998190838F5F8093DE03E6
:1009B0008093DD0305C061E0CE0101960E943304FF
:1009C00081E090E00F90DF91CF9108955091340233
:1009D00040913302852F90E0242F30E0541710F41B
:1009E000805B9F4F821B930B089580913402E091AE
:1009F00033028E1751F0EF5FE03508F0E0E0F0E0F1
:100A0000ED52FD4F808190E008958FEF9FEF0895A4
:100A10008091340290913302891769F09F5F90357D
:100A200008F090E0E92FF0E0ED52FD4F80819093C7
:100A3000330290E008958FEF9FEF08958091320286
:100A40008111FCCF0895809131028F5F843408F0CA
:100A500080E0909130029817E1F32FB7F8949091CD
:100A60003202992341F0E82FF0E0E757FD4F608311
:100A7000809331021DC081E0809332026093CE02E8
:100A80001092CD0282E086BB80916F0082608093DD
:100A90006F00809180008F738068809380008091C8
:100AA00084009091850040969093890080938800FF
:100AB0002FBF81E090E008951F93CF93DF93F894C8
:100AC000EC01CA57DF4F2881203400F5DC01AE5716
:100AD000BF4F1C9111965C91119770E0411103C0BA
:100AE00020E030E002C020E031E0622B732BE12FE8
:100AF000F52F71836083329628812F5F2883EA1750
:100B0000FB0710F0FC013296ED93FC93FC01E057DB
:100B1000FF4F8081811108C081E080838091C100F6
:100B20008F7688628093C1007894DF91CF911F9176
:100B30000895FC01E157FF4F2081222301F1F89431
:100B4000A0918702B0918802A357BF4F0D90BC912E
:100B5000A02D4C912081215020833297208131811A
:100B60002F5F3F4FBC0165577F4F2617370718F09F
:100B70009C0129573F4F31832083789401C040E086
:100B8000842F0895089508950E94F835CF93DF9338
:100B9000282F30E0F901EA50F94F8491F901EE5124
:100BA000F94FD491F901E253F94FC491CC2391F05C
:100BB00081110E94DB03EC2FF0E0EE0FFF1FEC53DE
:100BC000F94FA591B491EC91ED2381E090E021F4EF
:100BD00080E002C080E090E0DF91CF9108951F9304
:100BE000CF93DF93282F30E0F901EA50F94F849139
:100BF000F901EE51F94FD491F901E253F94FC49143
:100C0000CC23C9F0162F81110E94DB03EC2FF0E0FA
:100C1000EE0FFF1FE654F94FA591B4918FB7F894EA
:100C2000111105C09C91ED2FE095E92302C0EC91D4
:100C3000ED2BEC938FBFDF91CF911F910895CF9350
:100C4000DF9390E0FC01EE51F94F2491FC01E25357
:100C5000F94F8491882361F190E0880F991FFC017E
:100C6000E055F94FC591D491FC01E654F94FA59197
:100C7000B491611109C09FB7F894888120958223AF
:100C80008883EC912E230BC0623061F49FB7F894F7
:100C90003881822F809583238883EC912E2B2C938F
:100CA0009FBF06C08FB7F894E8812E2B28838FBF93
:100CB000DF91CF9108951092C0008CE18093C10024
:100CC00086E38093C2001092C50082E38093C40043
:100CD00062E080E00E941F0662E081E00C941F0643
:100CE000CF93DF93EC010E945B06FE01329680E811
:100CF000DF011D928A95E9F7DE01AE57BF4F1196CD
:100D0000FC93EE9312961196FC93EE93EC57FF4FE3
:100D100010823196108211821282138217961196D8
:100D2000FC93EE931296ED93FC93389610823196D5
:100D30001082D0938802C0938702DF91CF910895EB
:100D40008F929F92AF92BF92CF92DF92EF92FF92DB
:100D50006B017C010E9404044B015C01C114D104AD
:100D6000E104F104F1F00E940404DC01CB018819D4
:100D70009909AA09BB09883E9340A105B10570F302
:100D800021E0C21AD108E108F10888EE880E83E05C
:100D9000981EA11CB11CC114D104E104F10419F77F
:100DA000DDCFFF90EF90DF90CF90BF90AF909F90FE
:100DB0008F9008952FB7F89460916C0370916D0334
:100DC00080916E0390916F032FBF08951F920F9231
:100DD0000FB60F9211242F933F938F939F93AF934E
:100DE000BF9380916C0390916D03A0916E03B091BD
:100DF0006F0330916B0326E0230F2D3720F402960A
:100E0000A11DB11D05C029E8230F0396A11DB11D29
:100E100020936B0380936C0390936D03A0936E03F8
:100E2000B0936F038091700390917103A09172034E
:100E3000B09173030196A11DB11D8093700390932F
:100E40007103A0937203B0937303BF91AF919F910D
:100E50008F913F912F910F900FBE0F901F9018957B
:100E6000CF93CFB7F89480916A03811127C0E8ED42
:100E7000F6E08491ECEEF6E09491E82FF0E0EE0FCE
:100E8000FF1FE055F94FA591B491EC91E92321F4AE
:100E900061E08AE00E94EF0561E08AE00E941F069F
:100EA0008CB580618CBD8CB580648CBD61E08DE0BB
:100EB0000E941F0661E08BE00E941F0680916A037A
:100EC0008F5F80936A03CFBFCF91089508958CBD43
:100ED0009DBD08951F920F920FB60F9211242F936C
:100EE0003F934F935F936F937F938F939F93AF93B2
:100EF000BF93EF93FF938091B900887F803609F408
:100F00009CC068F5883209F45BC090F4803109F424
:100F100054C038F4882309F4F6C0883009F44DC071
:100F2000F6C0883109F44CC0803209F45DC0EFC0CE
:100F3000803409F468C048F4803309F455C088331C
:100F400009F0E5C08093BA03D8C0803509F44FC0DA
:100F5000883509F45DC0883409F0D9C0D6C0883915
:100F600009F4C7C0A8F4883709F467C038F4883694
:100F700009F463C0803709F460C0C9C0883809F437
:100F8000B8C0803909F45FC0803809F0C0C05BC0C8
:100F9000803B09F486C038F4803A09F466C0883A88
:100FA00009F47FC0B4C0803C09F4A7C0883C09F4B0
:100FB000A4C0883B09F48AC0AAC08091970310C0DE
:100FC0009091B9038091B803981770F5E091B90337
:100FD00081E08E0F8093B903F0E0E856FC4F8081EA
:100FE0008093BB0085EC86C08093BA038EC0E091ED
:100FF000B90381E08E0F8093B9038091BB00F0E0CC
:10100000E856FC4F80839091B9038091B8036EC07D
:10101000E091B90381E08E0F8093B9038091BB000A
:10102000F0E0E856FC4F80838091BB0381116DC0D6
:1010300081E08093960384EA61C083E08093BC03DF
:1010400010926903CFCF80916903803208F051C0BC
:10105000E091690381E08E0F809369038091BB006A
:10106000F0E0E75BFC4F8083BDCF85EC8093BC0054
:101070001092BC0380916903803230F4E0916903DF
:10108000F0E0E75BFC4F10826091690370E0E09153
:101090004703F091480389E493E0099510926903AE
:1010A00036C084E08093BC0310924603109245033F
:1010B000E0914303F0914403099580914503811128
:1010C00005C081E08093450310922303E09146031D
:1010D00081E08E0F80934603F0E0ED5DFC4F808150
:1010E0008093BB009091460380914503981708F4C4
:1010F00079CF85E88093BC000AC085EC8093BC0062
:101100001092BC0304C01092BA030E942904FF91FC
:10111000EF91BF91AF919F918F917F916F915F916F
:101120004F913F912F910F900FBE0F901F901895E8
:101130001F920F920FB60F9211242F938F939F93AC
:10114000EF93FF9380916F008B7F80936F0080916E
:1011500081008F7B80938100809135022091D202A3
:1011600020589091D102893020F49695922B8F5F70
:10117000FACF9093D102809134028F5F803508F0CE
:1011800080E020913302821739F0E82FF0E0ED5231
:10119000FD4F90838093340210923502809181003C
:1011A0008F7B809381001092D202FF91EF919F91EB
:1011B0008F912F910F900FBE0F901F9018951F9237
:1011C0000F920FB60F9211242F933F934F935F937B
:1011D0006F937F938F939F93AF93BF93EF93FF93FF
:1011E00080918600909187004091D20220918100E9
:1011F000442331F02F7B209381001092D20206C04D
:1012000020642093810020E82093D202309135029F
:10121000311125C041116CC0209136023091370246
:10122000280F391F30938B0020938A0024E026BBBF
:1012300020916F00246020936F002091380230913C
:101240003902820F931F36952795820F931F909333
:10125000D0028093CF0281E08093350249C0409153
:10126000CF025091D0026091380270913902DB01B7
:10127000A095B0952091D102E091D202841B950BEC
:10128000A817B90768F126952E2B460F571F3F5F09
:10129000861B970B3930A0F32093D10280916F0009
:1012A0008B7F80936F00809134028F5F803508F0D0
:1012B00080E090913302891749F0E82FF0E0909197
:1012C000D102ED52FD4F90838093340280918100D2
:1012D0008F7B809381001092D2021092350208C059
:1012E0002093D1025093D0024093CF023093350225
:1012F000FF91EF91BF91AF919F918F917F916F91EE
:101300005F914F913F912F910F900FBE0F901F90C3
:1013100018951F920F920FB60F9211242F933F939F
:101320004F935F936F937F938F939F93EF93FF936D
:10133000809132026091CE02209188003091890024
:1013400040913802509139029091CD028A30F8F4E0
:10135000240F351F893019F0762F717001C071E0AC
:1013600066958F5F791791F390918000772311F044
:10137000906C02C09F7390689093800030938900B6
:10138000209388007093CD026093CE024AC0909162
:101390003102E09130029E1319C08A3051F48BE083
:1013A00080933202240F351F3093890020938800E8
:1013B0003AC010923202809180008F738093800037
:1013C00080916F008D7F80936F002DC0EF5FE434BC
:1013D00008F0E0E0E0933002F0E0E757FD4F908145
:1013E0009093CE021092CD02909180009F739068EE
:1013F000909380008A3059F480913802909139029C
:10140000280F391F309389002093880009C08091EC
:101410008400909185004096909389008093880085
:1014200081E080933202FF91EF919F918F917F91A4
:101430006F915F914F913F912F910F900FBE0F9041
:101440001F901895CF93DF93EC018A859B85AC851F
:10145000BD858E839F83A887B9870E94DA066A8339
:101460007B838C839D8381E089838883DF91CF9107
:1014700008952F923F924F925F926F927F928F9238
:101480009F92AF92BF92CF92DF92EF92FF920F9313
:101490001F93CF93DF93D82FC92F8B010E94423621
:1014A00024E630E040E050E00E94A32D49015A01BB
:1014B0009B01AC0160E876E988E990E00E94932DF9
:1014C0006B017C01F80191828082ED2FFC2F21912C
:1014D000822F022E000C990BC0970A97C0F32E3270
:1014E00039F51F0180E8882E86E9982E88E9A82E14
:1014F000B12C9AE0492E512C612C712CF101C19133
:101500001F010C2E000CDD0BE097CA30D10580F4D2
:10151000C501B401A30192010E94A32D49015A0102
:10152000DE010E94F52DC60ED71EE81EF91EE6CF7D
:10153000A5E0B0E0A70196010E94EA2D6F5F7F4F02
:101540008F4F9F4F23E030E040E050E00E94A32DFA
:10155000F80122833383448355831682DF91CF9130
:101560001F910F91FF90EF90DF90CF90BF90AF90C1
:101570009F908F907F906F905F904F903F902F90B3
:101580000895FF920F931F93CF93DF93EC01FF24F5
:10159000F39488818D3211F0F12C01C02196CE0197
:1015A0000E9442369B01AC01A4E6B0E00E94EA2D05
:1015B000FE014991242F042E000C330B20533109D6
:1015C0002A303105A8F34E3241F52181022E000C5C
:1015D000330B205331092A303105F8F44AE0429F99
:1015E0008001439F100D1124012E000C220B330BA0
:1015F000600F711F821F931F0281002E000C110BC0
:10160000005311090A30110540F4012E000C220B81
:10161000330B600F711F821F931FFF2039F09095CD
:101620008095709561957F4F8F4F9F4FDF91CF9140
:101630001F910F91FF9008951F920F920FB60F9276
:1016400011242F933F938F939F93AF93BF93EF9367
:10165000FF939091C600903731F0903B21F0903D80
:1016600011F0903ED9F42091870230918802F9015F
:10167000E557FF4FA081B1819C93D901A157BF4F7E
:101680008C918F5F8C938081918101968E179F073B
:1016900018F0C90189579F4F91838083FF91EF9183
:1016A000BF91AF919F918F913F912F910F900FBE5E
:1016B0000F901F9018951F920F920FB60F92112442
:1016C0002F933F934F935F938F939F93EF93FF934A
:1016D0008091870290918802FC01EA57FF4F208198
:1016E000222351F132970190F081E02D2081318148
:1016F0008091C10030FF02C0816001C08E7F809365
:10170000C1002093C6002091870230918802F90120
:10171000EA57FF4F80818150808332978081918189
:101720000296A9014E575F4F8417950710F0C90123
:101730000296918380830DC08091C1008F7D80646B
:101740008093C100E0918702F0918802E057FF4F3B
:101750001082FF91EF919F918F915F914F913F91F7
:101760002F910F900FBE0F901F9018951F920F9200
:101770000FB60F9211242F933F938F939F93EF9364
:10178000FF93E1ECF0E08081877B8069808380912A
:101790008702909188029C0129573F4FFC01E55731
:1017A000FF4F31832083329631832083329610821B
:1017B000FF91EF919F918F913F912F910F900FBECD
:1017C0000F901F901895EF92FF920F931F93CF9356
:1017D000DF93CDB7DEB76E970FB6F894DEBF0FBEBE
:1017E000CDBF8C017A01FC0112828FEF9FEFDC01EB
:1017F00083839483A583B683138E148E158E168EE1
:10180000178E4EE1469FC001479F900D1124B901EC
:10181000680F791F4EE150E0CE0101960E946936B3
:101820008D8DF801858F89818283E114F10451F057
:10183000F70180819181A281B381F8018383948330
:10184000A583B683A801495F5F4FFE013296DA0196
:1018500090E08191811105C0392FF801938F232FDA
:101860000FC0933119F09F5F8D93F3CF33E1F5CF24
:101870008331910594F4FA01E80FF91F70832F5F0B
:10188000622F631BE1E0F0E0EC0FFD1FE60FF11D9E
:101890007589822F90E07111EBCFF801648FFA0106
:1018A000E80FF91F10828E8D813021F0823029F4EB
:1018B00080E401C080E2F801868FF801858D8430D4
:1018C00091F030F4882361F0813079F483E00BC02B
:1018D000883041F0893031F0853039F484E003C03C
:1018E00082E001C085E0F801878F6E960FB6F8940C
:1018F000DEBF0FBECDBFDF91CF911F910F91FF9043
:10190000EF9008950C948F369091BC039111FCCF09
:1019100091E09093BC039093BB032FEF2093BA0305
:101920001092B903260F2093B803909397039091D8
:101930009703880F892B80939703809196038130BA
:1019400061F410929603809197038093BB0080917D
:10195000BC0083FDF8CF85EC01C085EE8093BC0010
:101960008091BC038130E1F38091B903861710F4B4
:101970006091B903A8E9B3E026E733E0F9018E2FBF
:10198000821B861718F48D918193F9CF862F0895C5
:10199000813208F080E2682F87E70E94840C109261
:1019A0007503809374030895EF92FF920F931F9332
:1019B000CF93DF93CDB7DEB76E970FB6F894DEBF47
:1019C0000FBECDBFF0900504F11090C08C0130E245
:1019D000E32EEFE2F4E0DF018E2D1D928A95E9F708
:1019E00040E250E060E270E08FE494E00E9419363B
:1019F00010920C0443E150E06BE272E081EF93E05F
:101A00000E94303683E0809305041093070400930E
:101A10000604EDE0F4E0DF011D92EA94E9F700E04E
:101A200010E06091060470910704600F711F4EE191
:101A300050E0CE0101960E946936E981EE23B1F0B3
:101A4000E03220F4F0E0E451FC4FF1A280910A046E
:101A500090910B04019690930B0480930A04025E0C
:101A60001F4FF394003CB3E01B07D9F600910A0422
:101A700010910B04013CEFE11E0730F4C801880F00
:101A8000991F880F991F02C08FEF9FEF0E94CB34E0
:101A9000FC0120E030E04FEF5FEFBA012017310783
:101AA00039F041935193619371932F5F3F4FF6CF7C
:101AB000809308049093090481E990E00E94CB345C
:101AC00021E9DC011D922A95E9F72AE231E0FC01C7
:101AD0003183208390932E0480932D040E947006FE
:101AE00060ED77E080E090E00E94A0066E960FB671
:101AF000F894DEBF0FBECDBFDF91CF911F910F9144
:101B0000FF90EF900895EF92FF920F931F93CF9362
:101B1000DF93909167059F3F39F48EBD00000DB4AF
:101B200007FEFDCF8EB528C0D82F07E010E0C0E03B
:101B3000EE24E394F12CCC0F60E0809167050E94C5
:101B4000EF05B701002E01C0660F0A94EAF76D2376
:101B5000809165050E94EF0561E0809167050E9414
:101B6000EF05809166050E94C605892B09F0C160CA
:101B70000150110900F78C2FDF91CF911F910F9128
:101B8000FF90EF90089591E09093DF038093D1054B
:101B90001092DE031092DD0308952091DD039091F1
:101BA000D105213208F04AC08091BC038111FCCFDD
:101BB00032E03093BC0331E03093BB033FEF30930E
:101BC000BA031092B9032093B803ADEBB3E048E930
:101BD00053E0FA013E2F341B321718F43D91319334
:101BE000F9CF1092970320919703990F922B90931E
:101BF000970390919603913061F41092960390911F
:101C000097039093BB009091BC0093FDF8CF95ECA7
:101C100001C095EE9093BC009091BC039230E1F32B
:101C20009091BA039F3F79F08091BA03803241F0DE
:101C30008091BA03803331F084E005C081E003C0B5
:101C400082E001C083E01092DE031092DD03109267
:101C5000DF030895CF93DF93D82FC62F80916405BB
:101C60008F3F91F480915B050E94C30D6D2F80EE34
:101C700093E00E94B7046C2F80EE93E00E94B704BB
:101C8000DF91CF910C94CD0D809167058F3F21F4AA
:101C900081E590E00E94670760E0809164050E9402
:101CA000EF058D2F8F770E94830D8C2F0E94830D5F
:101CB00061E0809164050E94EF05809167058F3F88
:101CC00021F4DF91CF910C946607DF91CF910895B5
:101CD000613208F060E20E94840C109275038093D8
:101CE00074030895CF93C82F809164058F3FB1F49A
:101CF00080915B050E94C30D6C2F80EE93E00E94E3
:101D0000B7040E94CD0D61E080915B050E94680ED2
:101D100080EE93E00E946B04C82F20C0809167057D
:101D20008F3F21F481E590E00E94670760E0809199
:101D300064050E94EF058C2F80680E94830D80E06F
:101D40000E94830DC82F61E0809164050E94EF0519
:101D5000809167058F3F11F40E9466078C2FCF9109
:101D60000895CF93DF93C82F809164058F3F01F5CD
:101D700080915B050E94C30D6C2F80EE93E00E9462
:101D8000B7040E94CD0D62E080915B050E94680E51
:101D900080EE93E00E946B04C82F80EE93E00E94D7
:101DA0006B0420E030E03C2FE901C82BD92B29C07F
:101DB000809167058F3F21F481E590E00E946707DD
:101DC00060E0809164050E94EF058C2F80680E947E
:101DD000830D80E00E94830DC82F80E00E94830D58
:101DE0002C2F30E0322F2227E901C82B61E08091AF
:101DF00064050E94EF05809167058F3F11F40E94F2
:101E00006607CE01DF91CF9108950E94B10E982709
:101E100089279827089510927503109274031092E1
:101E2000DE031092DD031092BC0381E08093BB03BC
:101E30001092960361E082E10E94EF0561E083E188
:101E40000E94EF05E9EBF0E080818E7F8083808146
:101E50008D7F808380E28093B80085E48093BC000E
:101E60000895EF92FF920F931F93CF93DF9390917A
:101E700098059F3F39F48EBD00000DB407FEFDCFDD
:101E80008EB528C0D82F07E010E0C0E0EE24E39420
:101E9000F12CCC0F60E0809198050E94EF05B7010E
:101EA000002E01C0660F0A94EAF76D238091960513
:101EB0000E94EF0561E0809198050E94EF058091F6
:101EC00097050E94C605892B09F0C16001501109D0
:101ED00000F78C2FDF91CF911F910F91FF90EF9022
:101EE0000895CF93DF93C82F809195058F3F01F51B
:101EF00080918C050E94C30D6C2F80EE93E00E94B0
:101F0000B7040E94CD0D62E080918C050E94680E9E
:101F100080EE93E00E946B04C82F80EE93E00E9455
:101F20006B0420E030E03C2FE901C82BD92B29C0FD
:101F3000809198058F3F21F481E590E00E9467072A
:101F400060E0809195050E94EF058C2F80680E94CB
:101F5000310F80E00E94310FC82F80E00E94310FC6
:101F60002C2F30E0322F2227E901C82B61E080912D
:101F700095050E94EF05809198058F3F11F40E940E
:101F800066079C2F8D2FDF91CF9108950F931F939C
:101F9000CF93DF931F92CDB7DEB7682F87E76983B2
:101FA0000E94C30D698180EE93E00E94B7040E94F5
:101FB000CD0D87E70E94C30D82E090E00E94C80C1F
:101FC00080EE93E00E946B0400E010E0182F80EE9A
:101FD00093E00E946B04082B192B0E94CD0DC801C1
:101FE0000F90DF91CF911F910F9108951F93CF9381
:101FF000DF931F92CDB7DEB7682F87E769830E9412
:10200000C30D698180EE93E00E94B7040E94CD0D5C
:1020100087E70E94C30D81E090E00E94C80C80EE2B
:1020200093E00E946B04182F0E94CD0D812F0F901A
:10203000DF91CF911F91089561157105D1F001973E
:1020400019F4EFE5F4E002C0EFE4F4E0DB019F01F6
:10205000205F3F4F80E040E29D91992321F0811164
:1020600002C0908302C0408381E03196E217F307FB
:1020700099F70895CF92DF92EF92FF92CF93C82FF6
:10208000809164058F3FC9F580915B050E94C30D67
:102090006C2F80EE93E00E94B7040E94CD0D63E0A8
:1020A00080915B050E94680E80EE93E00E946B04B5
:1020B0006C01990FEE08FF08FE2CED2CDC2CCC24D3
:1020C00080EE93E00E946B04AC01990F660B770BD6
:1020D000C42AD52AE62AF72AFE2CED2CDC2CCC24A7
:1020E00080EE93E00E946B04AC01990F660B770BB6
:1020F000C42AD52AE62AF72A33C0809167058F3F84
:1021000021F481E590E00E94670760E0809164051A
:102110000E94EF058C2F80680E94830D80E00E9452
:10212000830DC82ED12CE12CF12CFE2CED2CDC2CB7
:10213000CC2480E00E94830DC82AFE2CED2CDC2CE0
:10214000CC2480E00E94830DC82A61E08091640560
:102150000E94EF05809167058F3F11F40E9466078A
:10216000C701B601CF91FF90EF90DF90CF90089517
:10217000CF92DF92EF92FF92CF93C82F8091950577
:102180008F3FC9F580918C050E94C30D6C2F80EEA6
:1021900093E00E94B7040E94CD0D63E080918C050E
:1021A0000E94680E80EE93E00E946B046C01990F10
:1021B000EE08FF08FE2CED2CDC2CCC2480EE93E006
:1021C0000E946B04AC01990F660B770BC42AD52AC9
:1021D000E62AF72AFE2CED2CDC2CCC2480EE93E0B2
:1021E0000E946B04AC01990F660B770BC42AD52AA9
:1021F000E62AF72A33C0809198058F3F21F481E5C4
:1022000090E00E94670760E0809195050E94EF05CD
:102210008C2F80680E94310F80E00E94310FC82E01
:10222000D12CE12CF12CFE2CED2CDC2CCC2480E0EC
:102230000E94310FC82AFE2CED2CDC2CCC2480E02F
:102240000E94310FC82A61E0809195050E94EF0538
:10225000809198058F3F11F40E946607C701B6016F
:10226000CF91FF90EF90DF90CF90089520910804D8
:10227000309109042115310589F0803278F4E82F76
:10228000F0E0E451FC4F81A1F90194E0899FE00D59
:10229000F11D1124408351836283738308954F920B
:1022A0005F926F927F92AF92BF92CF92DF92EF9246
:1022B000FF920F931F93CF93DF9300D000D0CDB741
:1022C000DEB7082FA62E69017A01AE014F5F5F4F7E
:1022D000C701B6010E949B322B013C0189819A8182
:1022E000AB81BC81BC01CD019F770E94F330B62E3B
:1022F000172F2AE939E949E15FE3C301B2010E94DE
:10230000CF3220E030E543EC57E40E94CF329F7794
:102310000E94F3303B011170A11002C090E001C097
:1023200090E2192B20E030E0A901C701B6010E941C
:102330007030881F8827881F8295880F880F807CBF
:10234000712F782BA3016B2D802F0F900F900F9082
:102350000F90DF91CF911F910F91FF90EF90DF9041
:10236000CF90BF90AF907F906F905F904F900C9404
:1023700036118F929F92AF92BF92CF92DF92EF92DF
:10238000FF928AEF0E943A106115710520E88207DA
:10239000910509F47CC040916805509169054A0196
:1023A000A12CB12CC72ED82EE92EFF24E7FCFA94DD
:1023B000C818D908EA08FB08DC01CB0137E0B5955D
:1023C000A795979587953A95D1F7B501A401440F44
:1023D000551F661F771F4C015D01841A950AA60AD6
:1023E000B70AA5019401A0916A05B0916B050E94FE
:1023F000F52D4B015C01FBE0B594A794979487946D
:10240000FA95D1F7A7019601C701B6010E94932D55
:102410009B01AC01ACE05595479537952795AA955A
:10242000D1F7A0916C05B0916D050E94F52DDC01EE
:10243000CB012EE0B595A795979587952A95D1F76D
:10244000A5019401280F391F4A1F5B1F20936005C7
:10245000309361054093620550936305A5E0B0E0B9
:102460000E94EA2DDC01CB0180589F4FAF4FBF4F38
:10247000692F7A2F8B2F992787FD9A950E942A31F1
:1024800020E030E048EC52E40E947A3004C060E082
:1024900070E080EC9FE7FF90EF90DF90CF90BF90CF
:1024A000AF909F908F9008952F923F924F925F929E
:1024B0006F927F928F929F92AF92BF92CF92DF9254
:1024C000EF92FF920F931F93CF93DF93CDB7DEB7B9
:1024D000A2970FB6F894DEBF0FBECDBF0E94B91110
:1024E00087EF0E943A106F83788789879A876115F2
:1024F00071058048910509F4FDC1809160059091B6
:102500006105A0916205B09163056C017D01FF0C2E
:10251000CC08DC2C76019C01AD016C2D7C2D8C2D22
:102520009C2D345F4140510961097109810991096C
:102530002AA339A349835A836B837C838D839E832B
:1025400059016A017B018C010E94FD2D2E8B3F8B6E
:10255000488F598F6A8F7B8F8C8F9D8F80917805E4
:102560008E8F909179059B87A0917605AF8FB09162
:102570007705BC87E0917405E8A3F0917505FD87A8
:10258000B0907105A09070051B2D110F110BC12E7D
:10259000D12EE12EF12E012F2AA139A149815A8194
:1025A0006B817C818D819E810E94FD2D0CE00E94BB
:1025B0002D2F19012A013B014C01B0907305A09009
:1025C00072051B2D110F110BC12ED12EE12EF12EF4
:1025D000012F2E893F89488D598D6A8D7B8D8C8D79
:1025E0009D8D0E94FD2D08E00E94462F5101620141
:1025F000730184010E94642F70588F4F9F4F209069
:102600006E0530906F055101C12CD12CE12CF12CBD
:1026100000E010E00E94FD2D01E20E94462F2E876F
:102620003F87488B598B6A8B7B8B8C8B9D8BA0E073
:102630000E94762F09F463C1AE8C1B85110F110B1C
:10264000BB84C12ED12EE12EF12E012F2E893F8980
:10265000488D598D6A8D7B8D8C8D9D8D0E94FD2DB1
:1026600019012A013B014C01AF8C1C85110F110B84
:10267000BC84C12ED12EE12EF12E012F2AA139A129
:1026800049815A816B817C818D819E810E94FD2DC3
:1026900001E10E942D2F59016A017B018C019101FA
:1026A000A201B301C4010E94642F19012A013B0158
:1026B0004C014F81588569857A8584E075956795C9
:1026C000579547958A95D1F780E090E0A0E1B0E07A
:1026D000841B950BA60BB70B6C017D01FF0CCC087E
:1026E000DC2C76019C01AD016C2D7C2D8C2D9C2D5C
:1026F0000FE10E942D2FF901B42FA52F6C837D834C
:1027000089839A8328A19D85990F990B3D85492F2F
:10271000592F692F792F892F03E20E942D2F5901FC
:102720006A017B018C019101A201B301C4010E94E5
:10273000642F59016A017B018C019F014B2F5A2F95
:102740006C817D8189819A810E946D2F4901542E6F
:10275000652EB62FA72FF82FE92F03E00E942D2F0B
:102760005401C52CD62CEB2EFA2E0F2F1E2F0E94B3
:102770006D2F59016A017B01782E192F03E00E9409
:102780002D2F072D0E946D2F03E00E942D2F540145
:10279000C52CD62CEB2EFA2E0F2F1E2F0E946D2F3C
:1027A00002E00E942D2F0F2F0E946D2F01E00E944A
:1027B0002D2F0F2F0E946D2FAE84BF84C888D9881B
:1027C000EA88FB880C891D890E94582E2B873F833D
:1027D00049835A836B837C838D839E830DE00E94A3
:1027E000462F922E832E742E652E562E472E382E6F
:1027F000292E30917F0520917E05932F990F990BFB
:10280000A92CB82CC72CD62CE52CF42C032D122D7A
:10281000492F592F692F792F892F0E94FD2D0E9452
:10282000FD2D09E10E94462F59016A017B018C01AF
:102830002B853F8149815A816B817C818D819E816D
:102840000E94642F19012A013B014C0130917D0542
:1028500020917C05932F990F990BAB84BF80C98081
:10286000DA80EB80FC800D811E81492F592F692F62
:10287000792F892F0E94FD2D03E10E94462F5901D7
:102880006A017B018C019101A201B301C4010E9484
:10289000642F08E00E94462F522E632E742E852E40
:1028A000962EF72FE82FB92F30917B0520917A05CE
:1028B000932F990F990B492F592F692F792F892F12
:1028C00004E00E942D2F59016A017B018C01252D06
:1028D000362D472D582D692D7F2F8E2F9B2F0E942F
:1028E000642F0E94223120E030E040E85BE30E9448
:1028F000CF3208C060E070E080EC9FE703C060E08A
:1029000070E0CB01A2960FB6F894DEBF0FBECDBF2C
:10291000DF91CF911F910F91FF90EF90DF90CF90BB
:10292000BF90AF909F908F907F906F905F904F90EF
:102930003F902F9008958F929F92AF92BF92CF9227
:10294000DF92EF92FF928AEF0E94B810ECE8F5E078
:10295000458556854A01A12CB12CC72ED82EE92ECB
:10296000FF24E7FCFA94C818D908EA08FB08DC0140
:10297000CB0137E0B595A795979587953A95D1F70F
:10298000B501A401440F551F661F771F4C015D015F
:10299000841A950AA60AB70AA5019401A785B089E9
:1029A0000E94F52D4B015C013BE0B594A7949794F0
:1029B00087943A95D1F7A7019601C701B6010E9405
:1029C000932D9B01AC016CE0559547953795279564
:1029D0006A95D1F7A189B2890E94F52DDC01CB015E
:1029E0007EE0B595A795979587957A95D1F7A5013E
:1029F0009401280F391F4A1F5B1F258336834783A5
:102A00005087A5E0B0E00E94EA2DDC01CB018058A0
:102A10009F4FAF4FBF4F692F7A2F8B2F992787FD7D
:102A20009A950E942A3120E030E048EC52E40E945E
:102A30007A30FF90EF90DF90CF90BF90AF909F9053
:102A40008F9008952F923F924F925F926F927F9254
:102A50008F929F92AF92BF92CF92DF92EF92FF92AE
:102A60000F931F93CF93DF93CDB7DEB7A2970FB627
:102A7000F894DEBF0FBECDBF0E949B1487EF0E946B
:102A8000B8106A8F7B8F8C8F9D8F8091910590916C
:102A90009205A0919305B09194056C017D01FF0C06
:102AA000CC08DC2C76019C01AD016C2D7C2D8C2D8D
:102AB0009C2D345F414051096109710981099109D7
:102AC0002AA339A349835A836B837C838D839E8396
:102AD00059016A017B018C010E94FD2D2A8B3B8BE1
:102AE0004C8B5D8B6E8B7F8B888F998F8091A90526
:102AF0008E8FE091AA05EF83F091A705FF8F80915B
:102B0000A8058887E091A505E8A3F091A605F987B7
:102B1000B090A205A090A1051B2D110F110BC12E85
:102B2000D12EE12EF12E012F2AA139A149815A81FE
:102B30006B817C818D819E810E94FD2D0CE00E9425
:102B40002D2F19012A013B014C01B090A405A09042
:102B5000A3051B2D110F110BC12ED12EE12EF12E2D
:102B6000012F2A893B894C895D896E897F89888DEF
:102B7000998D0E94FD2D08E00E94462F51016201AF
:102B8000730184010E94642F70588F4F9F4F2090D3
:102B90009F053090A0055101C12CD12CE12CF12CC6
:102BA00000E010E00E94FD2D01E20E94462F2A87DE
:102BB0003B874C875D876E877F87888B998BA0E0EA
:102BC0000E94762F09F45EC1AE8C1F81110F110B8C
:102BD000BF80C12ED12EE12EF12E012F2A893B89F3
:102BE0004C895D896E897F89888D998D0E94FD2D24
:102BF00019012A013B014C01AF8C1885110F110BF3
:102C0000B884C12ED12EE12EF12E012F2AA139A197
:102C100049815A816B817C818D819E810E94FD2D2D
:102C200001E10E942D2F59016A017B018C01910164
:102C3000A201B301C4010E94642F19012A013B01C2
:102C40004C014A8D5B8D6C8D7D8D84E0759567950B
:102C5000579547958A95D1F780E090E0A0E1B0E0E4
:102C6000841B950BA60BB70B6C017D01FF0CCC08E8
:102C7000DC2C76019C01AD016C2D7C2D8C2D9C2DC6
:102C80000FE10E942D2FF901B42FA52F6C837D83B6
:102C900089839A8328A19985990F990B3985492FA2
:102CA000592F692F792F892F03E20E942D2F590167
:102CB0006A017B018C019101A201B301C4010E9450
:102CC000642F59016A017B018C019F014B2F5A2F00
:102CD0006C817D8189819A810E946D2F4901542EDA
:102CE000652EB62FA72FF82FE92F03E00E942D2F76
:102CF0005401C52CD62CEB2EFA2E0F2F1E2F0E941E
:102D00006D2F59016A017B01782E192F03E00E9473
:102D10002D2F072D0E946D2F03E00E942D2F5401AF
:102D2000C52CD62CEB2EFA2E0F2F1E2F0E946D2FA6
:102D300002E00E942D2F0F2F0E946D2F01E00E94B4
:102D40002D2F0F2F0E946D2FAA84BB84CC84DD848D
:102D5000EE84FF84088919890E94582E28873F83B2
:102D600049835A836B837C838D839E830DE00E940D
:102D7000462F922E832E742E652E562E472E382ED9
:102D8000292E3091B0052091AF05932F990F990B03
:102D9000A92CB82CC72CD62CE52CF42C032D122DE5
:102DA000492F592F692F792F892F0E94FD2D0E94BD
:102DB000FD2D09E10E94462F59016A017B018C011A
:102DC00028853F8149815A816B817C818D819E81DB
:102DD0000E94642F19012A013B014C013091AE057C
:102DE0002091AD05932F990F990BA884BF80C980BE
:102DF000DA80EB80FC800D811E81492F592F692FCD
:102E0000792F892F0E94FD2D03E10E94462F590141
:102E10006A017B018C019101A201B301C4010E94EE
:102E2000642F08E00E94462F522E632E742E852EAA
:102E3000962EF72FE82FB92F3091AC052091AB05D6
:102E4000932F990F990B492F592F692F792F892F7C
:102E500004E00E942D2F59016A017B018C01252D70
:102E6000362D472D582D692D7F2F8E2F9B2F0E9499
:102E7000642F0E94223120E030E040E85BE30E94B2
:102E8000CF3203C060E070E0CB01A2960FB6F89499
:102E9000DEBF0FBECDBFDF91CF911F910F91FF908D
:102EA000EF90DF90CF90BF90AF909F908F907F90EA
:102EB0006F905F904F903F902F90089587E70E940A
:102EC000C30D64EF80EE93E00E94B7046EE280EEE3
:102ED00093E00E94B7040E94CD0D65E070E080E0B1
:102EE00090E00E94A00686EF0C94C60F3F924F928E
:102EF0005F926F927F928F929F92AF92BF92CF928A
:102F0000DF92EF92FF920F931F93CF93DF93CDB792
:102F1000DEB728970FB6F894DEBF0FBECDBF0E9474
:102F20005E176C01E12CF12C1091BA051295110F6E
:102F3000110F107C1C5C87E70E94C30D64EF80EECC
:102F400093E00E94B704612F80EE93E00E94B704E3
:102F50000E94CD0D8091BA05811105C065E070E039
:102F600080E090E012C0813029F468E070E080E0F9
:102F700090E00BC0823029F46EE070E080E090E0D9
:102F800004C06AE170E080E090E00E94A00686EF55
:102F90000E94C60F4C01A12CB12CBA2CA92C982C44
:102FA000882488EF0E94F60F882A3090BA05809115
:102FB000CF059091D005A7019601281B390B410937
:102FC0005109A091CD05B091CE050E94EA2D6B016B
:102FD0007C01AFE0F594E794D794C794AA95D1F714
:102FE0006091C7057091C805CB01770FAA0BBB0B89
:102FF000BC01CD01BBE0660F771F881F991FBA95F2
:10300000D1F72091C9053091CA058901330F220BF0
:10301000330BA90198012C0D3D1D4E1D5F1D0E9413
:10302000C52DC20ED31EE41EF51E20EAC21A2FE0E3
:10303000D20AE108F108A7019601C701B6010E9472
:10304000932D9B01AC011CE055954795379527952D
:103050001A95D1F729833A834B835C830091BB0592
:103060001091BC05A091BF05B091C005A7019601C4
:103070000E94F52D2B013C018DE0759467945794C7
:1030800047948A95D1F7A091C105B091C2052981D5
:103090003A814B815C810E94F52DBB2797FDB0954D
:1030A000AB2F840D951DA61DB71D0296A11DB11D48
:1030B00032E0B595A795979587953A95D1F79C01FC
:1030C000AD0130584F4F5F4FA091CB05B091CC056B
:1030D0000E94EA2D2B013C014FE0769467945794AF
:1030E00047944A95D1F788E090E083199109A501AA
:1030F000940104C056954795379527958A95D2F740
:103100002D833E834F8358874801110FAA08BB08BF
:1031100052E0880C991CAA1CBB1C5A95D1F7A091AF
:10312000C305B091C40529813A814B815C810E941D
:10313000F52D9B01AC016BE055954795379527958B
:103140006A95D1F729833A834B835C83A091BD05AF
:10315000B091BE05A70196010E94F52DDC01CB01BF
:103160007BE0B595A795979587957A95D1F72981B5
:103170003A814B815C81820F931FA41FB51F880D7C
:10318000991DAA1DBB1D032C04C0880F991FAA1FDF
:10319000BB1F0A94D2F7BC01CD016E5F7F4F8F4FEA
:1031A0009F4F24E030E040E050E00E94C52D8D812B
:1031B0009E81AF81B885821B930BA40BB50B9C013C
:1031C000AD0180E593ECA0E0B0E0BC01CD0104C00E
:1031D00096958795779567953A94D2F70E94932DA7
:1031E00097FD0BC0660F771F881F991FA3019201DF
:1031F0000E94A32D69017A010AC0A30192010E94D5
:10320000A32D69017A01CC0CDD1CEE1CFF1C992753
:10321000F7FC9A958F2D7E2D6D2D9B01AC010E94A0
:10322000932D9B01AC01AEEDBBE00E94EA2D4C0159
:10323000BB2497FCB094AB2CA3E4B3EEA70196019A
:103240000E94F82DBB2797FDB095AB2F880D991DD7
:10325000AA1DBB1D8153914FAF4FBF4F44E0B595A1
:10326000A795979587954A95D1F7BC01CD016C0D2F
:103270007D1D8E1D9F1D28960FB6F894DEBF0FBED4
:10328000CDBFDF91CF911F910F91FF90EF90DF9015
:10329000CF90BF90AF909F908F907F906F905F90F6
:1032A0004F903F900895CF93DF93CDB7DEB7E99766
:1032B0000FB6F894DEBF0FBECDBF789484B58260A0
:1032C00084BD84B5816084BD85B5826085BD85B5CA
:1032D000816085BD80916E00816080936E00109248
:1032E00081008091810082608093810080918100C3
:1032F0008160809381008091800081608093800054
:103300008091B10084608093B1008091B0008160B1
:103310008093B00080917A00846080937A008091DD
:103320007A00826080937A0080917A008E7F809309
:103330007A0080917A00806880937A001092C100B0
:1033400083E08093BA050E940B0F80ED0E94F60F78
:10335000853511F00C94202B8AEA0E94C60F9093B9
:10336000BC058093BB058CEA0E94C60F9093BE05F6
:103370008093BD058EEA0E94C60F9093C00580938E
:10338000BF0580EB0E94C60F9093CC058093CB05C0
:1033900082EB0E94C60F9093CE058093CD0584EBFF
:1033A0000E94C60F9093D0058093CF0586EB0E94B4
:1033B000C60F9093C2058093C10588EB0E94C60F8B
:1033C0009093C4058093C3058AEB0E94C60F909327
:1033D000C6058093C5058CEB0E94C60F9093C80567
:1033E0008093C7058EEB0E94C60F9093CA05809309
:1033F000C90581E090E0909303018093020180E091
:1034000090E0A0E0BFE38093040190930501A093B6
:103410000601B09307018093080190930901A093DE
:103420000A01B0930B0110920C0110920D01109241
:103430000E0110920F0104C188E80E94050F9093BD
:103440006905809368058AE80E94050F90936B05D3
:1034500080936A058CE80E94050F90936D05809318
:103460006C058EE80E94050F90936F0580936E05A2
:1034700080E90E94050F909371058093700582E9A1
:103480000E94050F909373058093720584E90E9452
:10349000050F909375058093740586E90E94050FCA
:1034A000909377058093760588E90E94050F9093A5
:1034B0007905809378058AE90E94050F90937B0532
:1034C00080937A058CE90E94050F90937D05809387
:1034D0007C058EE90E94050F90937F0580937E0501
:1034E00081EA0E94720E8093800581EE0E94050F92
:1034F000909382058093810583EE0E94720E8093E3
:10350000830584EE0E94720E182F85EE0E94720EC3
:10351000282F2F7030E1139FC0011124822B90932C
:1035200085058093840586EE0E94720E182F85EE25
:103530000E94720E90E004E0959587950A95E1F758
:1035400040E1149F90011124822B932B90938705C7
:103550008093860587EE0E94720E809388058DEE1B
:1035600080938A0580918B058F71806A80938B058B
:1035700080918905807C8093890565E082EF0E94B7
:103580002A0E90918905692F677050E2659F90011E
:103590001124892F8695869586958770A8E08A9F45
:1035A000B0011124622B732B97FB992790F9692B9B
:1035B00085EF0E942A0E90918A05692F6770B0E20C
:1035C0006B9F90011124892F86958695869587702B
:1035D000E8E08E9FB0011124622B732B9295969593
:1035E00096959370692B84EF0E942A0E83E090E0F9
:1035F00090930301809302018EEA97E4A1E6BFE372
:103600008093040190930501A0930601B0930701F4
:103610008AE999E9A9E1BEE3809308019093090141
:10362000A0930A01B0930B0183E090E0A0E0B0E02A
:1036300080930C0190930D01A0930E01B0930F01A4
:1036400080E090E00E9487368F3F29F090E09093D1
:1036500062028093610281E090E00E9487368F3F92
:1036600031F091E0811101C090E09093600282E01E
:1036700090E00E9487368F3F31F091E0811101C0C8
:1036800090E0909301018091200590912105892B74
:10369000B9F48CE090E00E94CB34FC0113821282DA
:1036A00088EE93E0A0E0B0E084839583A683B7839F
:1036B0008AE191E091838083F0932105E0932005D6
:1036C00010926F001092800081E88093810081E465
:1036D00093E0909339028093380289E19EE19093C0
:1036E00037028093360262E088E00E941F0661E0A4
:1036F00089E00E94EF0561E089E00E941F061092B8
:10370000350210923402109233021092320210925B
:1037100031021092300280E286BB80936F0068EE27
:1037200073E080E090E00E94A00686E78093710439
:1037300082E3809372048091610290916202892BEE
:1037400041F480916002811104C08EED95E00E94E9
:10375000D40C8091610290916202892B41F4809196
:103760006002882321F08CE194E00E94D40C8091C7
:10377000610290916202019741F48091600281118F
:1037800004C08AE493E00E94D40C8091610290917D
:103790006202019741F480916002882321F088E859
:1037A00091E00E94D40C12E081E394E0F12FF81B29
:1037B000F9AFBAE12B2E312C8091020190910301D7
:1037C000009709F400C48230910509F499C0833050
:1037D000910509F4E2C0019709F024C20E9476170E
:1037E0006093830270938402809385029093860293
:1037F0000E9476170E942A3120E836EE45EC57E405
:103800000E947A3021E03EED42E45EE30E943C33C8
:103810009B01AC0160E070E080E89FE30E94912F83
:1038200020E03AE24DE257E40E94CF3220E030E05F
:1038300048EC52E40E94CF320E94EC3060937F0249
:103840007093800280938102909382020E945E179F
:10385000AC0160E070E08091CF059091D0059A01B5
:10386000AB01281B390B41095109A091CD05B0913D
:10387000CE050E94EA2D6B017C01EFE0F594E79400
:10388000D794C794EA95D1F76091C7057091C805A0
:10389000CB01770FAA0BBB0BBC01CD01FBE0660F80
:1038A000771F881F991FFA95D1F72091C90530918C
:1038B000CA054901330FAA08BB08A7019601280DC4
:1038C000391D4A1D5B1D0E94C52DD701C601820FFF
:1038D000931FA41FB51F0896A11DB11DBC01CD01EA
:1038E000A4E09595879577956795AA95D1F70E945D
:1038F0002A3120E030E040E251E40E947A3040C0BA
:103900000E9422150E94EC3060938302709384021F
:1039100080938502909386020E94221520E030E079
:1039200048EC52E40E947A3020E030E54DE754E460
:103930000E947A3021E03EED42E45EE30E943C3397
:103940009B01AC0160E070E080E89FE30E94912F52
:1039500020E03AE24DE257E40E94CF3220E030E02E
:1039600048EC52E40E94CF320E94EC3060937F0218
:103970007093800280938102909382020E949B1434
:1039800020E030E040E251E40E94CF320E94EC306F
:1039900070937E0260937D0245C10E9454120E9482
:1039A000EC3060938302709384028093850290933D
:1039B00086020E94541220E030E048EC52E40E945B
:1039C0007A3020E030E54DE754E40E947A3021E07F
:1039D0003EED42E45EE30E943C339B01AC0160E0BB
:1039E00070E080E89FE30E94912F20E03AE24DE2F0
:1039F00057E40E94CF3220E030E048EC52E40E94CD
:103A0000CF320E94EC3060937F02709380028093EB
:103A10008102909382020E94B91120E030E040E2DE
:103A200051E40E94CF320E94EC3070937E0260938A
:103A30007D020E94B9118DEF0E94B10EA0E0B0E0AE
:103A4000811520E89207A105B10509F4DBC080903B
:103A5000600590906105A0906205B09063053CE21E
:103A6000931A31E0A30AB1086EE0880F991FAA1FCC
:103A7000BB1F6A95D1F74091840550918505052EAD
:103A8000000C660B770BE4E1440F551F661F771F90
:103A9000EA95D1F76C017D01C41AD50AE60AF70A46
:103AA000A0918605B0918705A50194010E94F52D8E
:103AB000C61AD70AE80AF90A40E4D40EE11CF11C40
:103AC000FFE0F594E794D794C794FA95D1F7A091C5
:103AD00088050A2E000CBB0BA50194010E94F52D50
:103AE0002B013C01AAE07594679457944794AA95DA
:103AF000D1F7A0918305B0E00E94EA2DDC01CB0153
:103B00000BE0B595A795979587950A95D1F7BC01D8
:103B1000CD0170588F4F9F4FA30192010E94932DAA
:103B2000DC01CB012AE0B595A795979587952A9555
:103B3000D1F79C01AD01405E5F4FA0918105B0912E
:103B400082050E94F52DDC01CB01905EAF4FBF4F87
:103B5000BC01CD013EE095958795779567953A959F
:103B6000D1F7A70196010E94932D6B017C014FE0D4
:103B700095958795779567954A95D1F79B01AC0107
:103B80000E94932D9B01AC0167E0559547953795B1
:103B900027956A95D1F7A0918005B0E00E94EA2DA3
:103BA000DC01CB0174E0B595A795979587957A953B
:103BB000D1F7A7019601281B390B4A0B5B0BDA01E1
:103BC000C90157FF03C080E090E0DC01813091051E
:103BD000A10539E1B30724F080E090E0A0E0B9E16D
:103BE000BC01CD015CE095958795779567955A95D1
:103BF000D1F70E942A3120E030E040E85AE30E94E9
:103C0000CF3204C060E070E080EC9FE720E030E05D
:103C100040E251E40E94CF320E94EC3070937C026B
:103C200060937B024091790250917A025AA349A392
:103C300043315105C1F480917F0290918002A0919F
:103C40008102B09182028093750290937602A093D4
:103C50007702B09378021092710210927202109261
:103C60007302109274020E94DA0640906D02509026
:103C70006E0260906F0270907002DC01CB018419BB
:103C80009509A609B70987399105A105B10508F479
:103C9000B9C0C0907F02D0908002E0908102F09085
:103CA00082028091690290916A02A0916B02B091A8
:103CB0006C02A7019601281B390B4A0B5B0BCA014A
:103CC000B9010E942A316DA37EA38FA398A70E94F9
:103CD000DA064B015C010E94DA0660936D02709374
:103CE0006E0280936F0290937002C0926902D0922C
:103CF0006A02E0926B02F0926C02C501B401641991
:103D00007509860997090E9428319B01AC0160E082
:103D100070E08AE794E40E947A309B01AC016DA1C7
:103D20007EA18FA198A50E94CF320E94EC300E9404
:103D30002A312B013C012091710230917202409195
:103D40007302509174026091040170910501809199
:103D50000601909107010E94CF324B015C01209136
:103D600008013091090140910A0150910B01C301F2
:103D7000B2010E94CF329B01AC01C501B4010E9487
:103D8000922F6093710270937202809373029093EA
:103D900074020E94EC30C0900C01D0900D01E090B4
:103DA0000E01F0900F01C616D706E806F9063CF49E
:103DB000DC01CB018C199D09AE09BF0912C0882412
:103DC000992454018C189D08AE08BF086815790520
:103DD0008A059B057CF4DC01CB018C0D9D1DAE1D7D
:103DE000BF1D8093650290936602A0936702B09313
:103DF000680208C010926502109266021092670273
:103E00001092680280917F0290918002A0918102BD
:103E1000B09182028090750290907602A090770215
:103E2000B0907802BC01CD01681979098A099B0913
:103E300024E630E040E050E00E94C52D309364025B
:103E40002093630249A15AA144315105A4F47A0197
:103E50005FEFE51AF50AF0927A02E0927902109289
:103E60006502109266021092670210926802109228
:103E70006402109263028091610290916202019744
:103E800009F066C06091630270916402072E000C15
:103E9000880B990B0E942A312FEB3EE04CE95EE340
:103EA0000E947A300E94EC30709364026093630247
:103EB000609165027091660280916702909168023C
:103EC0000E942A312FEB3EE04CE95EE30E947A30FB
:103ED0000E94EC30609365027093660280936702E3
:103EE00090936802609183027091840280918502B0
:103EF000909186020E942A312DED38EE41EF5CE36D
:103F00000E94CF320E94EC3060938302709384024F
:103F1000809385029093860260917D0270917E026B
:103F2000072E000C880B990B0E942A3126E636E6F4
:103F300046EE5FE30E94CF3220E030E040EA53E4F7
:103F40000E94922F0E94EC3070937E0260937D025B
:103F5000409165025091660260916702709168021B
:103F600086E00E9436114091630250916402052E52
:103F7000000C660B770B84E00E9436118091600282
:103F8000882309F140918302509184026091850257
:103F9000709186028CE00E94361140917D02509112
:103FA0007E02052E000C660B770B8DE00E94361109
:103FB00040917B0250917C02052E000C660B770B22
:103FC0008EE00E9436118091200590912105892B69
:103FD00009F43DC4AA24A39447E0942E80912005BF
:103FE00090912105DC01ED91FC910480F581E02D9B
:103FF0000995892B09F42BC4809120059091210506
:10400000DC01ED91FC910680F781E02D0995082FE8
:104010008091100590911105A0911205B0911305A2
:104020000196A11DB11D8093100590931105A093D9
:104030001205B0931305043209F4B3C2E0910A05E6
:10404000053234F40A3071F00D3009F0B7C20AC0FD
:104050000A3241F00C3209F0B1C28091F704802796
:104060008093F704EF3008F075C1F0E0E750FB4FA4
:1040700010828091F804882309F46EC12091F9041C
:104080003FEB320F822F022E000C990B363010F4CA
:10409000C79707C02156263018F48755910901C0EB
:1040A000C097282F2295207F3091FA044FEB430FC1
:1040B000832F032E000C990B463010F4C79707C0CE
:1040C0003156363018F48755910901C0C097820FD8
:1040D0009091F70489132BC180911C0590911D05C7
:1040E000A0911E05B0911F050196A11DB11D8093E1
:1040F0001C0590931D05A0931E05B0931F0580918C
:104100000B05882399F08091140590911505A091D5
:104110001605B09117050196A11DB11D80931405D8
:1041200090931505A0931605B0931705F090080518
:10413000FF2009F46BC0B1E0FB12D0C080919B045A
:1041400090919C04A0919D04B0919E04809397044B
:1041500090939804A0939904B0939A040E94DA066D
:1041600060939F047093A0048093A1049093A20491
:10417000F0929604F09295048091A9049091AA047B
:10418000A091AB04B091AC048093A5049093A604D5
:10419000A093A704B093A8040E94DA066093AD042C
:1041A0007093AE048093AF049093B004F092A40493
:1041B000F092A30480910B05882309F48FC0E3E8F3
:1041C000F4E0A5E7B4E0892D01900D928A95E1F71E
:1041D000EAE8F4E0ACE7B4E0892D01900D928A950D
:1041E000E1F70E94DA066093910470939204809341
:1041F000930490939404F0927404F092730481EB0E
:1042000094E00E94220A8FEB94E066C08091A9049A
:104210009091AA04A091AB04B091AC048093A50442
:104220009093A604A093A704B093A8040E94DA0672
:104230006093AD047093AE048093AF049093B00488
:10424000A092A404A092A30480910B05882321F1DD
:10425000E3E8F4E0A5E7B4E0892D01900D928A959A
:10426000E1F7EAE8F4E0ACE7B4E0892D01900D92C3
:104270008A95E1F70E94DA066093910470939204A4
:104280008093930490939404A0927404A092730476
:104290008DEC94E00E94220A8091E5049091E6045E
:1042A000A091E704B091E8048093E1049093E204C4
:1042B000A093E304B093E4040E94DA066093DD0463
:1042C0007093DE048093DF049093E004A092DC04FA
:1042D000A092DB0489EE94E00E94220AE0900E0591
:1042E000F0900F05E114F10409F449C1E0910E05C5
:1042F000F0910F0566A177A1D70196968D919C91BB
:1043000097970E942036892B09F039C1B701C70160
:1043100040960E9429360E94DA06F70160A371A335
:1043200082A393A3A5A2A4A2E2A4F3A4DBCF8091CD
:10433000180590911905A0911A05B0911B050196D9
:10434000A11DB11D8093180590931905A0931A051E
:10435000B0931B0580E014C190910905911149C0EB
:104360006CE571E089EF94E00E942036892B41F0E2
:1043700062E671E089EF94E00E942036892B19F4FF
:10438000A092080515C068E671E089EF94E00E94EC
:104390002036892B41F06EE671E089EF94E00E94AF
:1043A0002036892B19F41092080502C010930805D5
:1043B00080910C0590910D0590930F0580930E054B
:1043C000E0900E05F0900F05E114F10419F2D70109
:1043D0009696CD90DC90979769EF74E0C6010E94A5
:1043E000203697FD02C00C945C2CF70182A593A5A2
:1043F000E3CFE0910805E23009F491C08091F9041F
:10440000882309F48CC0B0E2EB9FF0011124E92B62
:104410003197E932F10508F082C0EC5CFF4F0C9453
:10442000E42D89EF94E00E94C10A6093A90470937F
:10443000AA048093AB049093AC0471C091E08134E2
:1044400009F043C043C063E874E009C091E08335DC
:1044500009F090E09093890462C06AE874E089EF03
:1044600094E00E94390A5BC091E0873509F090E042
:104470009093900454C089EF94E00E94C10A609325
:10448000BB047093BC048093BD049093BE0447C0EA
:1044900089EF94E00E94C10A6093C9047093CA0432
:1044A0008093CB049093CC043AC089EF94E00E94AF
:1044B000423660939B0470939C0480939D04909378
:1044C0009E042DC091E081330CF490E090930B0595
:1044D00026C089EF94E00E9442366093E504709311
:1044E000E6048093E7049093E80419C089EF94E010
:1044F0000E94C10A6093F3047093F4048093F5045E
:104500009093F6040CC089EF94E00E94C10A609376
:10451000D7047093D8048093D9049093DA04E09080
:104520000E05F0900F05E114F10409F413CFE091AA
:104530000E05F0910F0566A177A1D70196968D9192
:104540009C9197970E942036892B09F003CFF701A1
:1045500020A531A58091090590E0821793070CF4FE
:10456000F9CE2817390739F440E150E069EF74E0DB
:10457000C7010E943036F701E2A4F3A4D4CF81E052
:10458000909109059F5F9093090510920A0591E0AB
:104590000A3209F090E09093F804882309F41ECDC4
:1045A00022C010920A05109209051092F704109388
:1045B00008051092F80410920B0510CDEE3040F46F
:1045C00081E08E0F80930A05F0E0E750FB4F0083F7
:1045D0008091F804811102CD8091F704B02EB826A5
:1045E000B092F704FBCC1092740460917504709142
:1045F000760480E090E00E9428316B017C0160919C
:104600007704709178048091790490917A040E94E3
:10461000283128E23BE64EE65EE40E947A309B01B8
:10462000AC01C701B6010E94922F20917B04DC01EE
:10463000CB012111B0588093220590932305A093BC
:104640002405B093250560917C0470917D0480E081
:1046500090E00E9428316B017C0160917E04709192
:104660007F0480918004909181040E94283128E287
:104670003BE64EE65EE40E947A309B01AC01C70146
:10468000B6010E94922F20918204DC01CB012111FE
:10469000B0588093260590932705A0932805B093E2
:1046A000290580917304882389F00E94DA06C0905E
:1046B0009104D0909204E0909304F0909404DC0173
:1046C000CB018C199D09AE09BF0903C08FEF9FEF85
:1046D000DC018093420590934305A0934405B09379
:1046E00045051092B2046091B7047091B8048091AE
:1046F000B9049091BA040E942A316B017C0126E52D
:104700003EE04DEE5FE30E94CF3220E030E048EC27
:1047100052E40E947A300E94EC306093320570932C
:10472000330580933405909335052EEB3CE443E943
:104730005FE3C701B6010E94CF3220E030E048ECD1
:1047400052E40E947A300E94EC30609336057093F8
:10475000370580933805909339051092CE04609107
:10476000D3047091D4048091D5049091D6040E9412
:104770002A316B017C0120E030E048EC52E40E94D9
:104780007A300E94EC3060932A0570932B05809359
:104790002C0590932D0528E439EF41E550E4C7013D
:1047A000B6010E94CF3220E030E048EC52E40E9493
:1047B0007A300E94EC3060932E0570932F05809321
:1047C0003005909331051092C0046091C50470913A
:1047D000C6048091C7049091C8040E942A3120E049
:1047E00030E048EC52E40E947A300E94EC30609352
:1047F0003A0570933B0580933C0590933D051092DC
:10480000EA048091EF049091F004A091F104B0913A
:10481000F20480933E0590933F05A0934005B0932A
:10482000410580917304809346051092DC048091C9
:10483000E1049091E204A091E304B091E404809338
:10484000470590934805A0934905B0934A05809188
:104850005F0281112CC080914605882311F40C94CD
:10486000502C8091420590914305A0914405B09150
:104870004505803D9740A105B10514F00C94502CDE
:1048800081E080935F0280915E02811110C00E94DE
:10489000DA06DC01CB0188579C4EAF4FBF4F8093A7
:1048A0005A0290935B02A0935C02B0935D02F09079
:1048B0006002FF20B1F0409147055091480560919A
:1048C000490570914A058AE00E94361140913E05E3
:1048D00050913F0560914005709141058BE00E9429
:1048E000361180915F02882309F4C8C22091220505
:1048F00030912305409124055091250520935602BF
:1049000030935702409358025093590280902605E5
:1049100090902705A0902805B0902905809252021A
:1049200090925302A0925402B092550260E081E04E
:104930000E944F11A501940161E082E00E944F1195
:104940008091610290916202892BA1F440912A0525
:1049500050912B0560912C0570912D0585E00E94EA
:1049600036114091320550913305609134057091B4
:10497000350513C040912E0550912F0560913005EB
:104980007091310585E00E943611409136055091B5
:104990003705609138057091390583E00E94361122
:1049A000FF2059F040913A0550913B0560913C053C
:1049B00070913D0588E00E94361180915E02811160
:1049C00051C080905A0290905B02A0905C02B0901F
:1049D0005D02181419041A041B040CF043C00E9451
:1049E000DA0686169706A806B906E0F581E08093F8
:1049F0005E028091560290915702A0915802B091A8
:104A0000590280934E0290934F02A0935002B093AC
:104A100051028091520290915302A0915402B091A0
:104A2000550280934A0290934B02A0934C02B0939C
:104A30004D028091610290916202892B09F033C787
:104A400060912A0570912B0580912C0590912D0580
:104A50000E942A3160934602709347028093480275
:104A60009093490280915E02882309F4DEC1FF2001
:104A700009F479C120914A0230914B0240914C02D5
:104A800050914D026091260570912705809128056F
:104A9000909129050E94912F25E33AEF4EE85CE3BF
:104AA0000E94CF326B017C010E948C3369A77AA7E8
:104AB0008BA79CA7C701B6010E94753069A37AA392
:104AC0008BA39CA325E33AEF4EE85CE360912205BB
:104AD0007091230580912405909125050E94CF3285
:104AE0002B013C0125E33AEF4EE85CE360914E0276
:104AF00070914F0280915002909151020E94CF32EA
:104B00006B017C01C301B2010E948C334B015C013B
:104B1000C301B2010E9475306DA37EA38FA398A735
:104B2000C701B6010E948C336DA77EA78FA798ABF3
:104B3000C701B6010E9475306B017C012DA53EA511
:104B40004FA558A96DA17EA18FA198A50E94CF3233
:104B500069AB7AAB8BAB9CABA7019601C501B401E5
:104B60000E94CF326DAB7EAB8FAB98AF29A13AA13B
:104B70004BA15CA10E94CF329B01AC0169A97AA92B
:104B80008BA99CA90E94912F9B01AC010E94CF325E
:104B90002B013C0129A53AA54BA55CA5C701B6018F
:104BA0000E94CF329B01AC010E94CF329B01AC012D
:104BB000C301B2010E94922F0E949A332B013C0143
:104BC0002DA53EA54FA558A9C501B4010E94CF321D
:104BD0004B015C01A70196016DA17EA18FA198A553
:104BE0000E94CF3229A13AA14BA15CA10E94CF32F1
:104BF0009B01AC01C501B4010E94922F9B01AC0145
:104C0000C301B2010E94113026E73BE742EC5AE4AF
:104C10000E94CF320E94F3306B017C01609342020C
:104C20007093430280934402909345028091010166
:104C3000882391F16091630270916402072E000C49
:104C4000880B990B0E942A314B015C01C701B60108
:104C50000E9428316B017C01A5019401C501B401BA
:104C60000E94CF324B015C01A7019601C701B6013A
:104C70000E94CF329B01AC01C501B4010E94922F6A
:104C80000E949A330E94F330609342027093430271
:104C90008093440290934502809161029091620258
:104CA0000197D1F4609142027091430280914402D5
:104CB000909145020E94283128E439EF41E550E403
:104CC0000E94CF320E94F3306093420270934302FD
:104CD000809344029093450229A13AA14BA15CA183
:104CE00069A97AA98BA99CA90E94CF329B01AC012A
:104CF0006DA97EA98FA998AD0E94912F6B017C01AF
:104D00002DA13EA14FA158A569A57AA58BA59CA56B
:104D10000E94CF32A70196010E9411306B017C01E5
:104D200020E030E0A9010E94703087FF0AC02BED1F
:104D30003FE049EC50E4C701B6010E94922F6B019D
:104D40007C0121EE3EE245E652E4C701B6010E9435
:104D5000CF320E94EC3060933E0270933F0280930A
:104D60004002909341028091610290916202892BEE
:104D700029F480912A0590912B0504C080912E057D
:104D800090912F0590933D0280933C02C0903C028D
:104D9000D0903D020D2C000CEE08FF08B701A601D3
:104DA00085E00E9436118091020190910301892BC8
:104DB00009F04BC08090460290904702A0904802B4
:104DC000B090490220E030E0A901C501B4010E9481
:104DD0008E3287FD15C0C701B6010E942A31A50198
:104DE00094010E94912F0E94EC30709364026093B2
:104DF000630277FF0EC0109264021092630209C032
:104E0000C701B6010E942A31A50194010E94922F88
:104E1000EACF4091630250916402052E000C660BAC
:104E2000770B84E00E94361110C01092420210925B
:104E30004302109244021092450210923E021092D8
:104E40003F0210924002109241028091600288233A
:104E500009F45EC0409142025091430260914402C5
:104E60007091450287E00E94361140913E025091B8
:104E70003F02609140027091410247C01092560279
:104E80001092570210925802109259021092520238
:104E90001092530210925402109255028091020116
:104EA00090910301892B31F440E050E0BA0184E095
:104EB0000E94361120E030E0A90160E081E00E940C
:104EC0004F1120E030E0A90161E082E00E944F1123
:104ED00040E050E0BA0185E00E94361140E050E029
:104EE000BA0183E00E943611FF2091F040E050E0CB
:104EF000BA0188E00E94361140E050E0BA0187E034
:104F00000E94361140E050E0BA0189E00E9436115B
:104F100080912D0490912E04DC01ED91FC91048090
:104F2000F581E02D0995803E51F480913A029091EF
:104F30003B02853091050CF071C001960BC08037A3
:104F400071F480913A0290913B02181619060CF008
:104F500065C0019790933B0280933A025CC0803B0E
:104F600009F05CC080913A0290913B028330910538
:104F700021F16CF48130910581F0029709F04BC06A
:104F80009091600281E089278093600244C0843060
:104F90009105D1F0059769F13EC0209161023091F1
:104FA0006202232B29F4909362028093610233C042
:104FB00010926202109261022EC09091010181E074
:104FC00089278093010127C06091610280E090E011
:104FD0000E94820C6091600281E090E00E94820C4D
:104FE0006091010182E090E00E94820CE0E0F0E03C
:104FF00009956FEF80E090E00E94820C6FEF81E0F6
:1050000090E00E94820C6FEF82E090E00E94820CA0
:10501000E0E0F0E0099581E08093000180910001DB
:10502000882309F45AC080913A0290913B02823061
:10503000910589F12CF4009799F00197D1F04BC0BC
:1050400084309105E1F18CF1059709F044C060E1ED
:1050500072E080E090E00E941C106FE172E037C0C7
:1050600064E771E080E090E00E941C1064E871E069
:105070002EC08091610290916202892B19F46EE832
:1050800071E002C06EE971E080E090E00E941C10C7
:105090006FEA71E01CC080916002811103C06CEB6B
:1050A00071E0F2CF69EC71E0EFCF809101018111E5
:1050B00003C068ED71E0E8CF66EE71E0E5CF64EF24
:1050C00071E080E090E00E941C1065E072E081E0F9
:1050D00090E00E941C1010920001C090EC03D09050
:1050E000ED03E090EE03F090EF03F6E9CF0ED11C54
:1050F000E11CF11C0E94DA066C157D058E059F05EA
:1051000008F494C20E94DA066093EC037093ED03F6
:105110008093EE039093EF0380917004882351F104
:1051200080912D0490912E04DC01ED91FC91028080
:10513000F381E02D40E06EE7099580912D04909178
:105140002E04DC01ED91FC910280F381E02D41E021
:1051500061E9099580912D0490912E04DC01ED9177
:10516000FC910280F381E02D41E061E3099510920A
:10517000700410C2F0906F04FF2009F44BC0CF2CD4
:105180000F2C000CDD08C6010E940136892B31F07E
:10519000C6010E940836F82E00E001C001E08091AF
:1051A0002D0490912E04DC01ED91FC910280F3819D
:1051B000E02D40E06EE7099580912D0490912E043A
:1051C000DC01ED91FC910280F381E02D41E062E091
:1051D000099580912D0490912E04DC01ED91FC91B4
:1051E0000280F381E02D011102C062E201C063E29E
:1051F00041E0099580912D0490912E04DC01ED9100
:10520000FC910280F381E02D41E06F2D0995109211
:105210006F04C0C1209106043091070421153105A7
:1052200009F4B8C16091F00381E0860F8093F00328
:10523000611116C0109231041092370400910504D8
:10524000802F880F880F880F80933804402F50E0FC
:1052500061EF73E089E394E00E941036065F40C17D
:1052600060FD34C0669570E080910A0490910B0453
:10527000861797075CF16150710940E050E0CE015C
:1052800001960E94E30B109231048B8180933704C6
:105290008C8DB8E08B9FC00111249D8D892B80934C
:1052A000380480E02AE0280FE8E0F0E0EC0FFD1F72
:1052B000E80FF11D9081992339F08F5FE22FF0E024
:1052C000E15DFB4F9083EECF022F0AC180E4809313
:1052D0003104E12CF12C08E080910C0420910604AB
:1052E00030910704682F70E0409108045091090440
:1052F000E4E08E9F400D511D1124CE0101960E94C5
:10530000E30B8C819D81AE81BF818F3FFFEF9F07B3
:10531000AF07BF0709F4C4C04B81E02FF0E05E8DFA
:1053200031E0300F403160F0E15DFB4F252F2F70F1
:10533000208322E0200FE32FF0E0E15DFB4F0BC064
:10534000232FE15DFB4F30E1439FB0011124352F46
:105350003F70432F462B408368A170E030E054300B
:10536000B9F128F4552369F05130D9F095C058307F
:1053700009F466C0593009F480C0553009F08CC07A
:1053800042C0482F4F71B7FD02C080E001C080E8E5
:10539000F901E15DFB4F842B9F8D892B808381E098
:1053A0007CC0F901E15DFB4F8083A9014F5F5F4F36
:1053B000E92FEF71B7FD02C080E001C080E8DA019B
:1053C000A15DBB4F8E2B9F8D892B8C9382E065C096
:1053D000A90144515C4FFA01ED5BFF4F8083319688
:1053E0009083A9014E5F5F4FEA2FEF71B7FD02C0B6
:1053F00080E001C080E8DA01A15DBB4F8E2B9F8D5C
:10540000892B8C931BC0A90144515C4FFA01ED5BC1
:10541000FF4F808331969083A9014E5F5F4F4D010E
:10542000BB2497FCB094AB2CB7FD02C080E001C058
:1054300080E8FA01E15DFB4F882A808283E02DC07D
:10544000A90144515C4FFA01ED5BFF4F8083319617
:1054500090833196A083A9014D5F5F4FEB2FEF71D1
:10546000B7FD02C080E001C080E8DA01A15DBB4F5A
:105470008E2B9F8D892B8C930DC0A90144515C4FBD
:10548000FA01ED5BFF4F8083319690833196A083C4
:105490003196B08384E001C080E0082F020F02C083
:1054A00060E070E080910C048F5F80930C04209189
:1054B0000A0430910B0490E08217930714F01092C5
:1054C0000C044FEFE41AF40AE216F3064CF4802FB2
:1054D00090E09101261B370B821793070CF4FCCE4A
:1054E0008EE780932F048FE2809330048091310403
:1054F0009EEF900F892B8093310489E080933204D2
:1055000084EA809333048091710480933404809101
:1055100072048093350410923604E02FF0E0A1E38A
:10552000B4E080E027E099AD9A0F901760F49D9168
:10553000892798E087FF03C0880F822701C0880F62
:105540009150C1F7F0CFE15DFB4F808380912D0436
:1055500090912E04DC01ED91FC910280F381E02D0D
:1055600040E06EE70995FF24F3940F1598F08091C1
:105570002D0490912E04DC01ED91FC91AF2DB0E053
:10558000A15DBB4F0280F381E02D41E06C91099554
:10559000F394EBCF80912D0490912E04DC01ED91DA
:1055A000FC910280F381E02D40E06EEF099580913F
:1055B0004F04882331F19FE4E92E94E0F92E809185
:1055C0002D0490912E04F70161917F01DC01ED9192
:1055D000FC910280F381E02D41E00995BFE6EB16D6
:1055E000B4E0FB0661F780912D0490912E04DC015C
:1055F000ED91FC910280F381E02D40E06FEF099581
:1056000015C080E2E82EF12C80912D0490912E049B
:10561000DC01ED91FC910280F381E02D41E060E03E
:105620000995B1E0EB1AF10879F7DDCF80E090E061
:10563000892B11F40C94DC1B0E9400000C94DC1BE1
:1056400086E780938C05809195058F3F19F40E9421
:105650000B0F1CC061E00E94EF0561E08091950591
:105660000E941F06809198058F3F19F40E94300711
:105670000DC061E00E941F0661E0809196050E94C6
:105680001F0660E0809197050E941F068091950596
:105690008F3FB1F480918C050E94C30D60ED80EEC8
:1056A00093E00E94B7040E94CD0D61E080918C05CB
:1056B0000E94680E80EE93E00E946B04182F1FC0BA
:1056C000809198058F3F21F481E590E00E94670763
:1056D00060E0809195050E94EF0580ED0E94310FFA
:1056E00080E00E94310F182F61E0809195050E94A3
:1056F000EF05809198058F3F11F40E9466071835D9
:1057000009F08BC088E80E94710F90939A058093EE
:1057100099058AE80E94710F90939C0580939B05E0
:105720008CE80E94710F90939E0580939D058EE8F2
:105730000E94710F9093A00580939F0580E90E94BD
:10574000710F9093A2058093A10582E90E94710FC9
:105750009093A4058093A30584E90E94710F909310
:10576000A6058093A50586E90E94710F9093A80570
:105770008093A70588E90E94710F9093AA058093F2
:10578000A9058AE90E94710F9093AC058093AB053F
:105790008CE90E94710F9093AE058093AD058EE960
:1057A0000E94710F9093B0058093AF05809195058D
:1057B0008F3F89F480918C050E94C30D64EF80EEC9
:1057C00093E00E94B7046FE380EE93E00E94B70479
:1057D0000E94CD0D1EC0809198058F3F21F481E578
:1057E00090E00E94670760E0809195050E94EF05B8
:1057F00084E70E94310F8FE30E94310F61E08091B6
:1058000095050E94EF05809198058F3F11F40E9445
:10581000660782E090E00C94F81A87E780935B05B6
:10582000809164058F3F19F40E940B0F1CC061E04A
:105830000E94EF0561E0809164050E941F0680913F
:1058400067058F3F19F40E9430070DC061E00E9488
:105850001F0661E0809165050E941F0660E080914F
:1058600066050E941F0680ED0E94720E803611F0C0
:105870000C94201B66EB80EE0E942A0E6CE271E015
:1058800080E090E00E94A00683EF0E94720E80FDEF
:1058900002C00C941C1A64E670E080E090E0F2CF45
:1058A00010925F0204C860912E0570912F058091BF
:1058B000300590913105CCC869EF74E0C6010E94B3
:1058C00020361816190614F00C94AA2110920F0510
:1058D00010920E050C94AA21E0EEF3E013821282DE
:1058E00088EE93E0A0E0B0E084839583A683B7833D
:1058F00088E391E091838083ECE8F5E08FEF818786
:10590000828783878487EBE5F5E0818782878387B9
:105910008487E3E7F4E010821182138212821482FA
:1059200015821682178210861286118613861486B7
:10593000158616861786118A108A128A138A148A87
:10594000158A168A108E178A118E128E138E148E57
:10595000158E12A213A214A215A216A217A210AAA3
:1059600011AA12AA13AA14AA15AA1092B10410928D
:10597000B2041092B7041092B8041092B9041092B5
:10598000BA041092BF041092C0041092C504109281
:10599000C6041092C7041092C8041092CD0410924D
:1059A000CE041092D3041092D4041092D504109215
:1059B000D6041092DB041092DC041092E1041092E1
:1059C000E2041092E3041092E4041092E9041092AD
:1059D000EA041092EF041092F0041092F104109275
:1059E000F2041092F7041092F80482E08093080504
:1059F0001092090510920A0510920B0510920D05E0
:105A000010920C0510920F0510920E0510921005C1
:105A100010921105109212051092130510921405A0
:105A20001092150510921605109217051092180580
:105A30001092190510921A0510921B0510921C0560
:105A400010921D0510921E0510921F051092F90468
:105A50001092210510922005109222051092230524
:105A60001092240510922505109226051092270504
:105A7000109228051092290510922A0510922B05E4
:105A800010922C0510922D0510922E0510922F05C4
:105A900010923005109231051092320510923305A4
:105AA0001092340510923505109236051092370584
:105AB000109238051092390510923E0510923F055C
:105AC0001092400510924105109242051092430534
:105AD0001092440510924505109247051092480512
