:100000000C94C8020C94F0020C94F0020C94F002D0
:100010000C94F0020C94F0020C94F0020C94F00298
:100020000C94F0020C94F0020C947E050C942806BB
:100030000C9437050C94F0020C94F0020C94F0022E
:100040000C94ED040C94F0020C94BB070C94FA078A
:100050000C9455080C94F0020C94F0020C94F002ED
:100060000C94F0020C94F002EA0DFC0DFF0D060E4C
:100070000D0E3B0E420E4F0E5C0E680E680E680EA3
:10008000680E680E680E680E680E680E680E680EC0
:10009000680E680E680E680E680E680E680E680EB0
:1000A000680E680E680E680EEA0DF70DFC0DFF0D68
:1000B000060E0D0E140E210E2E0E084AD73B3BCE17
:1000C000016E84BCBFFDC12F3D6C74319ABD568357
:1000D0003DDA3D00C77F11BED9E4BB4C3E916BAA0F
:1000E000AABE000000803F05A84CCDB2D44EB9385E
:1000F00036A9020C50B9918688083CA6AAAA2ABE45
:10010000000000803F0000000000250028002B00B8
:1001100004040404040404040202020202020303AD
:1001200003030303010204081020408001020408B5
:100130001020010204081020000000080002010045
:10014000000304070000000000000000014C61747F
:100150006974756465000000000000000000000084
:1001600000200000000000000900024C6F6E67696B
:1001700074756465000000000000000000000020AD
:100180000000000000000900035370656564000072
:10019000000000000000000000000000006D70681A
:1001A0000000000001000452656C2E20416C74694F
:1001B00074000000000000000000006674000000F1
:1001C0000000010005416C746974756465000000ED
:1001D0000000000000000000006674000000000045
:1001E000010006566172696F000000000000000007
:1001F0000000000000000066742F73000000010181
:100200000744697374616E636500000000000000BC
:10021000000000000066742E000000000100084885
:10022000656164696E670000000000000000000066
:10023000000000B0000000000000010009436F75DD
:100240007273650000000000000000000000000064
:1002500000B000000000000001000A536174656CEA
:100260006C6974657300000000000000000000204D
:1002700000000000000001000B48444F5000000047
:10028000000000000000000000000000002000004E
:10029000000000000102000000000000000000005B
:1002A000000000000000000000000000000000004E
:1002B00000000000014C6174697475646500000001
:1002C000000000000000000000200000000000000E
:1002D0000900024C6F6E6769747564650000000068
:1002E00000000000000000200000000000000900E5
:1002F000035370656564000000000000000000000A
:1003000000000000006D7068000000000100045251
:10031000656C2E20416C74697400000000000000C0
:1003200000000066740000000000010005416C74CC
:1003300069747564650000000000000000000000A2
:1003400000667400000000000100000000000000D2
:10035000000000000000000000000000000000009D
:100360000000000000000000014C617469747564B5
:1003700065000000000000000000000000200000F8
:10038000000000000900024C6F6E676974756465B7
:10039000000000000000000000000020000000003D
:1003A0000000090003537065656400000000000050
:1003B0000000000000000000006B6D2F68000000CE
:1003C00001000452656C2E20416C746974000000B9
:1003D000000000000000006D0000000000000100AF
:1003E00005416C74697475646500000000000000CC
:1003F00000000000006D0000000000000100065633
:100400006172696F00000000000000000000000041
:100410000000006D2F7300000000010107446973A4
:1004200074616E63650000000000000000000000C1
:10043000006D00000000000001000848656164696B
:100440006E6700000000000000000000000000B027
:10045000000000000000010009436F757273650021
:1004600000000000000000000000000000B00000DC
:100470000000000001000A536174656C6C697465CA
:1004800073000000000000000000002000000000D9
:10049000000001000B48444F500000000000000025
:1004A000000000000000000000200000000000002C
:1004B0000102000000000000000000000000000039
:1004C000000000000000000000000000000000002C
:1004D000014C6174697475646500000000000000DF
:1004E0000000000000200000000000000900024C95
:1004F0006F6E67697475646500000000000000009D
:100500000000002000000000000009000353706597
:100510006564000000000000000000000000000012
:10052000006B6D2F6800000001000452656C2E20E6
:10053000416C746974000000000000000000006D50
:10054000000000000000010005416C7469747564CE
:10055000650000000000000000000000006D0000C9
:10056000000000000100000000000000000000008A
:10057000000000000000000000000000000000007B
:100580000000000000000000240027002A00F517EA
:1005900011241FBECFEFD8E0DEBFCDBF11E0A0E039
:1005A000B1E0EEEFFDE302C005900D92A83BB1076C
:1005B000D9F726E0A8EBB1E001C01D92A430B20744
:1005C000E1F712E0C8ECD2E004C02197FE010E94DE
:1005D0005E1DC73CD107C9F70E94730A0C94FD1E2B
:1005E0000C940000CF92DF92EF92FF920F931F9333
:1005F000CF93DF936C017A018B01C0E0D0E0CE1580
:10060000DF0589F0D8016D918D01D601ED91FC9146
:100610000190F081E02DC6010995892B11F47E012E
:1006200002C02196ECCFC701DF91CF911F910F91AE
:10063000FF90EF90DF90CF9008953FB7F8948091AE
:10064000750590917605A0917705B091780526B54E
:10065000A89B05C02F3F19F00196A11DB11D3FBFFA
:10066000BA2FA92F982F8827820F911DA11DB11D88
:10067000BC01CD0143E0660F771F881F991F4A9583
:10068000D1F708955091BC014091BB01852F90E0B6
:10069000242F30E0541710F4805B9F4F821B930B84
:1006A00008958091BC01E091BB018E1751F0EF5F7E
:1006B000E03508F0E0E0F0E0E05EFA4F808190E0A5
:1006C00008958FEF9FEF08958091BC019091BB0139
:1006D000891769F09F5F903508F090E0E92FF0E00E
:1006E000E05EFA4F80819093BB0190E008958FEF18
:1006F0009FEF08958091BA018111FCCF08958091F8
:10070000B9018F5F843408F080E09091B8019817A8
:10071000E1F32FB7F8949091BA01992341F0E82FB3
:10072000F0E0EA52FB4F60838093B9011DC081E085
:100730008093BA0160931B0510921A0582E086BB74
:1007400080916F00826080936F00809180008F7332
:10075000806880938000809184009091850040960D
:1007600090938900809388002FBF81E090E00895E6
:10077000089580E090E008951F93CF93DF93F8945D
:10078000EC01CA57DF4F2881203400F5DC01AE5759
:10079000BF4F1C9111965C91119770E0411103C0FD
:1007A00020E030E002C020E031E0622B732BE12F2B
:1007B000F52F71836083329628812F5F2883EA1793
:1007C000FB0710F0FC013296ED93FC93FC01E0571F
:1007D000FF4F8081811108C081E080838091C1003A
:1007E0008F7688628093C1007894DF91CF911F91BA
:1007F0000895FC01E157FF4F2081222301F1F89475
:10080000A091D404B091D504A357BF4F0D90BC91D3
:10081000A02D4C912081215020833297208131815D
:100820002F5F3F4FBC0165577F4F2617370718F0E2
:100830009C0129573F4F31832083789401C040E0C9
:10084000842F0895089508950E94B31ECF93DF93D7
:1008500090E0FC01EC5DFE4F2491FC01E05FFE4F57
:100860008491882361F190E0880F991FFC01EC5777
:10087000FA4FC591D491FC01EA5FFE4FA591B49166
:10088000611109C09FB7F8948881209582238883DD
:10089000EC912E230BC0623061F49FB7F89438813D
:1008A000822F809583238883EC912E2B2C939FBFDE
:1008B00006C08FB7F894E8812E2B28838FBFDF9175
:1008C000CF9108951092C0008CE18093C10086E31F
:1008D0008093C2001092C50082E38093C40062E05E
:1008E00080E00E94260462E081E00C942604CF930D
:1008F000DF93EC010E946204FE01329680E8DF0182
:100900001D928A95E9F7DE01AE57BF4F1196FC9311
:10091000EE9312961196FC93EE93EC57FF4F1082D4
:100920003196108211821282138217961196FC93CF
:10093000EE931296ED93FC933896108231961082C6
:10094000D093D504C093D404DF91CF9108958F92B2
:100950009F92AF92BF92CF92DF92EF92FF926B0184
:100960007C010E941D034B015C01C114D104E10410
:10097000F104F1F00E941D03DC01CB0188199909F3
:10098000AA09BB09883E9340A105B10570F321E097
:10099000C21AD108E108F10888EE880E83E0981E9B
:1009A000A11CB11CC114D104E104F10419F7DDCF7D
:1009B000FF90EF90DF90CF90BF90AF909F908F907F
:1009C00008952FB7F8946091710570917205809128
:1009D0007305909174052FBF08951F920F920FB663
:1009E0000F9211242F933F938F939F93AF93BF93B5
:1009F0008091710590917205A0917305B091740575
:100A00003091700526E0230F2D3720F40296A11DAA
:100A1000B11D05C029E8230F0396A11DB11D209328
:100A200070058093710590937205A0937305B09340
:100A300074058091750590917605A0917705B09128
:100A400078050196A11DB11D8093750590937605DB
:100A5000A0937705B0937805BF91AF919F918F9147
:100A60003F912F910F900FBE0F901F9018951F92DE
:100A70000F920FB60F9211242F938F939F93EF93A2
:100A8000FF9380916F008B7F80936F008091810036
:100A90008F7B809381008091BD0120911F0520589C
:100AA00090911E05893020F49695922B8F5FFACF96
:100AB00090931E058091BC018F5F803508F080E027
:100AC0002091BB01821739F0E82FF0E0E05EFA4F89
:100AD00090838093BC011092BD01809181008F7B37
:100AE0008093810010921F05FF91EF919F918F914C
:100AF0002F910F900FBE0F901F9018951F920F927D
:100B00000FB60F9211242F933F934F935F936F93E0
:100B10007F938F939F93AF93BF93EF93FF938091B6
:100B200086009091870040911F0520918100442309
:100B300031F02F7B2093810010921F0506C02064A6
:100B40002093810020E820931F053091BD013111D1
:100B500025C041116CC02091BE013091BF01280F0A
:100B6000391F30938B0020938A0024E026BB20910C
:100B70006F00246020936F002091C0013091C1016B
:100B8000820F931F36952795820F931F90931D0513
:100B900080931C0581E08093BD0149C040911C05F4
:100BA00050911D056091C0017091C101DB01A095BC
:100BB000B095E0911F0520911E05841B950BA81789
:100BC000B90768F126952E2B460F571F3F5F861BEE
:100BD000970B3930A0F320931E0580916F008B7F17
:100BE00080936F008091BC018F5F803508F080E0BA
:100BF0009091BB01891749F0E82FF0E090911E0514
:100C0000E05EFA4F90838093BC01809181008F7BDE
:100C10008093810010921F051092BD0108C020939F
:100C20001E0550931D0540931C053093BD01FF9197
:100C3000EF91BF91AF919F918F917F916F915F9154
:100C40004F913F912F910F900FBE0F901F901895CD
:100C50001F920F920FB60F9211242F933F934F9331
:100C60005F936F937F938F939F93EF93FF93809105
:100C7000BA0160911B052091880030918900409154
:100C8000C0015091C10190911A058A30F8F4240FE7
:100C9000351F893019F0762F717001C071E06695AB
:100CA0008F5F791791F390918000772311F0906C0A
:100CB00002C09F73906890938000309389002093C6
:100CC000880070931A0560931B054AC09091B90182
:100CD000E091B8019E1319C08A3051F48BE08093E3
:100CE000BA01240F351F30938900209388003AC041
:100CF0001092BA01809180008F7380938000809160
:100D00006F008D7F80936F002DC0EF5FE43408F09B
:100D1000E0E0E093B801F0E0EA52FB4F908190935D
:100D20001B0510921A05909180009F739068909314
:100D300080008A3059F48091C0019091C101280F40
:100D4000391F309389002093880009C08091840066
:100D5000909185004096909389008093880081E06F
:100D60008093BA01FF91EF919F918F917F916F9145
:100D70005F914F913F912F910F900FBE0F901F9059
:100D80001895CF93DF93EC018A859B85AC85BD8553
:100D90008E839F83A887B9870E94E1046A837B833F
:100DA0008C839D8381E089838883DF91CF9108952F
:100DB0002F923F924F925F926F927F928F929F926B
:100DC000AF92BF92CF92DF92EF92FF920F931F9359
:100DD000CF93DF93D82FC92F8B010E94FF1824E6F1
:100DE00030E040E050E00E943C1D49015A019B0167
:100DF000AC0160E876E988E990E00E942C1D6B0167
:100E00007C01F80191828082ED2FFC2F2191822FAD
:100E1000022E000C990BC0970A97C0F32E3239F5B9
:100E20001F0180E8882E86E9982E88E9A82EB12C2B
:100E30009AE0492E512C612C712CF101C1911F01B6
:100E40000C2E000CDD0BE097CA30D10580F4C501F3
:100E5000B401A30192010E943C1D49015A01DE0127
:100E60000E946F1DC60ED71EE81EF91EE6CFA5E034
:100E7000B0E0A70196010E94641D6F5F7F4F8F4F06
:100E80009F4F23E030E040E050E00E943C1DF8011D
:100E900022833383448355831682DF91CF911F9140
:100EA0000F91FF90EF90DF90CF90BF90AF909F9009
:100EB0008F907F906F905F904F903F902F9008950C
:100EC000FF920F931F93CF93DF93EC01FF24F394D2
:100ED00088818D3211F0F12C01C02196CE010E9443
:100EE000FF189B01AC01A4E6B0E00E94641DFE0166
:100EF0004991242F042E000C330B205331092A3042
:100F00003105A8F34E3241F52181022E000C330B3E
:100F1000205331092A303105F8F44AE0429F80011C
:100F2000439F100D1124012E000C220B330B600F78
:100F3000711F821F931F0281002E000C110B0053A2
:100F400011090A30110540F4012E000C220B330B5D
:100F5000600F711F821F931FFF2039F090958095BD
:100F6000709561957F4F8F4F9F4FDF91CF911F916C
:100F70000F91FF9008951F920F920FB60F921124B8
:100F80002F933F938F939F93AF93BF93EF93FF93D1
:100F90009091C600903731F0903B21F0903D11F0D8
:100FA000903ED9F42091D4043091D504F901E5574D
:100FB000FF4FA081B1819C93D901A157BF4F8C9164
:100FC0008F5F8C938081918101968E179F0718F017
:100FD000C90189579F4F91838083FF91EF91BF9102
:100FE000AF919F918F913F912F910F900FBE0F90D6
:100FF0001F9018951F920F920FB60F9211242F93E6
:101000003F934F935F938F939F93EF93FF938091C1
:10101000D4049091D504FC01EA57FF4F208122238C
:1010200051F132970190F081E02D20813181809142
:10103000C10030FF02C0816001C08E7F8093C1007B
:101040002093C6002091D4043091D504F901EA57C9
:10105000FF4F8081815080833297808191810296F9
:10106000A9014E575F4F8417950710F0C9010296EA
:10107000918380830DC08091C1008F7D80648093B7
:10108000C100E091D404F091D504E057FF4F1082E5
:10109000FF91EF919F918F915F914F913F912F9190
:1010A0000F900FBE0F901F9018951F920F920FB6C2
:1010B0000F9211242F933F938F939F93EF93FF935E
:1010C000E1ECF0E08081877B806980838091D404AB
:1010D0009091D5049C0129573F4FFC01E557FF4FE4
:1010E0003183208332963183208332961082FF91A0
:1010F000EF919F918F913F912F910F900FBE0F9085
:101100001F901895EF92FF920F931F93CF93DF9349
:10111000CDB7DEB76E970FB6F894DEBF0FBECDBF6A
:101120008C017A01FC0112828FEF9FEFDC01838337
:101130009483A583B683138E148E158E168E178E08
:101140004EE1469FC001479F900D1124B901680FE1
:10115000791F4EE150E0CE0101960E9426198D8D37
:10116000F801858F89818283E114F10451F0F70140
:1011700080819181A281B381F80183839483A583C7
:10118000B683A801495F5F4FFE013296DA0190E015
:101190008191811105C0392FF801938F232F0FC042
:1011A000933119F09F5F8D93F3CF33E1F5CF833106
:1011B000910594F4FA01E80FF91F70832F5F622FF5
:1011C000631BE1E0F0E0EC0FFD1FE60FF11D7589F8
:1011D000822F90E07111EBCFF801648FFA01E80FD4
:1011E000F91F10828E8D813021F0823029F480E445
:1011F00001C080E2F801868FF801858D843091F07E
:1012000030F4882361F0813079F483E00BC08830BA
:1012100041F0893031F0853039F484E003C082E058
:1012200001C085E0F801878F6E960FB6F894DEBF97
:101230000FBECDBFDF91CF911F910F91FF90EF9027
:1012400008950C944C19EF92FF920F931F93CF9334
:10125000DF93CDB7DEB76E970FB6F894DEBF0FBE43
:10126000CDBFF0909205F11090C08C0130E2E32EDA
:10127000ECEBF5E0DF018E2D1D928A95E9F740E257
:1012800050E060E270E08CED95E00E94D41E109278
:10129000990543E150E064EB71E08EE795E00E9430
:1012A000EB1E83E0809392051093940500939305C1
:1012B000EAE9F5E0DF011D92EA94E9F700E010E0C9
:1012C0006091930570919405600F711F4EE150E09D
:1012D000CE0101960E942619E981EE23B1F0E03299
:1012E00020F4F0E0E758FA4FF1A280919705909131
:1012F000980501969093980580939705025E1F4F7D
:10130000F394003CB3E01B07D9F6009197051091C8
:101310009805013CEFE11E0730F4C801880F991FC2
:10132000880F991F02C08FEF9FEF0E94861DFC015E
:1013300020E030E04FEF5FEFBA012017310739F0BE
:1013400041935193619371932F5F3F4FF6CF8093F9
:1013500095059093960581E990E00E94861D21E90C
:10136000DC011D922A95E9F72DE131E0FC01318382
:1013700020839093BB058093BA050E94770460EDAB
:1013800077E080E090E00E94A7046E960FB6F89494
:10139000DEBF0FBECDBFDF91CF911F910F91FF90A8
:1013A000EF90089561157105D1F0019719F4ECEEF5
:1013B000F5E002C0ECEDF5E0DB019F01205F3F4F5F
:1013C00080E040E29D91992321F0811102C0908339
:1013D00002C0408381E03196E217F30799F7089540
:1013E00020919505309196052115310589F08032BF
:1013F00078F4E82FF0E0E758FA4F81A1F90194E082
:10140000899FE00DF11D1124408351836283738312
:1014100008954F925F926F927F92AF92BF92CF9258
:10142000DF92EF92FF920F931F93CF93DF9300D041
:1014300000D0CDB7DEB7082FA62E69017A01AE0124
:101440004F5F5F4FC701B6010E94101C2B013C018A
:1014500089819A81AB81BC81BC01CD019F770E94BB
:10146000BC1AB62E172F2AE939E949E15FE3C30117
:10147000B2010E94441C20E030E543EC57E40E9496
:10148000441C9F770E94BC1A3B011170A11002C03E
:1014900090E001C090E2192B20E030E0A901C701E3
:1014A000B6010E94391A881F8827881F8295880FE5
:1014B000880F807C712F782BA3016B2D802F0F90CC
:1014C0000F900F900F90DF91CF911F910F91FF9090
:1014D000EF90DF90CF90BF90AF907F906F905F9034
:1014E0004F900C94F009CF93DF93CDB7DEB7E99717
:1014F0000FB6F894DEBF0FBECDBF789484B582607E
:1015000084BD84B5816084BD85B5826085BD85B5A7
:10151000816085BD80916E00816080936E00109225
:1015200081008091810082608093810080918100A0
:101530008160809381008091800081608093800031
:101540008091B10084608093B1008091B00081608F
:101550008093B00080917A00846080937A008091BB
:101560007A00826080937A0080917A008E7F8093E7
:101570007A0080917A00806880937A001092C1008E
:1015800080E090E00E944419082F10E01093C504F9
:101590000093C40481E090E00E94441990E090938D
:1015A000C3048093C2040F3F110521F41092C504B7
:1015B0001092C4048F3F910521F41092C30410923D
:1015C000C20480916F0290917002892BB9F48CE073
:1015D00090E00E94861DFC011382128288EE93E047
:1015E000A0E0B0E084839583A683B7838BE091E08D
:1015F00091838083F0937002E0936F0210926F00EA
:101600001092800081E88093810081E493E09093C0
:10161000C1018093C00189E19EE19093BF01809355
:10162000BE0162E088E00E942604E1E4F1E08491DA
:10163000EDE2F1E09491E9E1F1E0E491EE23B1F122
:10164000882339F1833091F038F48130A9F0823069
:1016500001F584B58F7D12C0873091F08830A1F0FC
:101660008430B9F4809180008F7D03C08091800028
:101670008F77809380000DC084B58F7784BD09C0BB
:101680008091B0008F7703C08091B0008F7D8093F0
:10169000B000F0E0EE0FFF1FEA5FFE4FA591B4919E
:1016A0008FB7F894EC919E2B9C938FBF61E089E0FB
:1016B0000E9426041092BD011092BC011092BB0141
:1016C0001092BA011092B9011092B80180E286BB63
:1016D00080936F0068EE73E080E090E00E94A704C2
:1016E00086E78093FE0582E38093FF058091C40422
:1016F0009091C504892B51F48091C2049091C30448
:10170000892B21F480ED94E00E9423098091C40488
:101710009091C504892B51F48091C2049091C30427
:10172000019721F488E693E00E9423098091C40484
:101730009091C504019751F48091C2049091C30423
:10174000892B21F484EB92E00E9423098091C40448
:101750009091C504019751F48091C2049091C30403
:10176000019721F48CE491E00E94230962E0262E87
:1017700077E0372E8EEB95E0222D281B29AF809144
:101780006F0290917002892B09F439C401E08091B5
:101790006F0290917002DC01ED91FC910084F18563
:1017A000E02D0995892B09F42AC480916F0290914C
:1017B0007002DC01ED91FC910284F385E02D099526
:1017C000182F80915F0290916002A0916102B09108
:1017D00062020196A11DB11D80935F029093600289
:1017E000A0936102B0936202143209F4B3C2E09193
:1017F0005902153234F41A3071F01D3009F0B7C2B5
:101800000AC01A3241F01C3209F0B1C2809146027E
:10181000812780934602EF3008F075C1F0E0E85B65
:10182000FD4F108280914702882309F46EC12091F8
:1018300048023FEB320F822F022E000C990B3630FC
:1018400010F4C79707C02156263018F48755910920
:1018500001C0C097282F2295207F309149024FEB7D
:10186000430F832F032E000C990B463010F4C797BB
:1018700007C03156363018F48755910901C0C0971A
:10188000820F9091460289132BC180916B02909137
:101890006C02A0916D02B0916E020196A11DB11D66
:1018A00080936B0290936C02A0936D02B0936E02D2
:1018B00080915A02882399F080916302909164028A
:1018C000A0916502B09166020196A11DB11D8093A1
:1018D000630290936402A0936502B0936602F09055
:1018E0005702FF2009F46BC0B1E0FB12D0C0809119
:1018F000EA019091EB01A091EC01B091ED01809390
:10190000E6019093E701A093E801B093E9010E94FA
:10191000E1046093EE017093EF018093F0019093E6
:10192000F101F092E501F092E4018091F8019091CB
:10193000F901A091FA01B091FB018093F401909319
:10194000F501A093F601B093F7010E94E1046093C2
:10195000FC017093FD018093FE019093FF01F092D2
:10196000F301F092F20180915A02882309F48FC0AA
:10197000E2EDF1E0A4ECB1E0832D01900D928A95A7
:10198000E1F7E9EDF1E0ABECB1E0832D01900D92D0
:101990008A95E1F70E94E1046093E0017093E10110
:1019A0008093E2019093E301F092C301F092C201AF
:1019B00080E092E00E94C1068EE092E066C08091D5
:1019C000F8019091F901A091FA01B091FB01809387
:1019D000F4019093F501A093F601B093F7010E94F2
:1019E000E1046093FC017093FD018093FE019093EC
:1019F000FF010093F3010093F20180915A028823C2
:101A000021F1E2EDF1E0A4ECB1E0832D01900D9223
:101A10008A95E1F7E9EDF1E0ABECB1E0832D0190BF
:101A20000D928A95E1F70E94E1046093E0017093C2
:101A3000E1018093E2019093E3010093C3010093DD
:101A4000C2018CE192E00E94C10680913402909123
:101A50003502A0913602B091370280933002909304
:101A60003102A0933202B09333020E94E1046093EA
:101A70002C0270932D0280932E0290932F020093DC
:101A80002B0200932A0288E392E00E94C106E090B4
:101A90005D02F0905E02E114F10409F449C1E091A5
:101AA0005D02F0915E0266A177A1D70196968D91B5
:101AB0009C9197970E94DB1E892B09F039C1B701D1
:101AC000C70140960E94E41E0E94E104F70160A352
:101AD00071A382A393A305A304A3E2A4F3A4DBCF81
:101AE0008091670290916802A0916902B0916A02A8
:101AF0000196A11DB11D8093670290936802A09387
:101B00006902B0936A0280E014C190915802911169
:101B100049C067E271E088E492E00E94DB1E892BF5
:101B200041F06DE271E088E492E00E94DB1E892BB7
:101B300019F40093570215C063E371E088E492E062
:101B40000E94DB1E892B41F069E371E088E492E09A
:101B50000E94DB1E892B19F41092570202C02092BA
:101B6000570280915B0290915C0290935E02809399
:101B70005D02E0905D02F0905E02E114F10419F262
:101B8000D7019696CD90DC90979768E472E0C601F5
:101B90000E94DB1E97FD02C00C94E517F70182A599
:101BA00093A5E3CFE0915702E23009F491C0809110
:101BB0004802882309F48CC0B0E2EB9FF0011124A5
:101BC000E92B3197E932F10508F082C0EC5CFF4F58
:101BD0000C945E1D88E492E00E9460076093F80117
:101BE0007093F9018093FA019093FB0171C091E029
:101BF000813409F043C043C062ED71E009C091E057
:101C0000833509F090E09093D80162C069ED71E0EE
:101C100088E492E00E94D8065BC091E0873509F025
:101C200090E09093DF0154C088E492E00E94600746
:101C300060930A0270930B0280930C0290930D0242
:101C400047C088E492E00E94600760931802709396
:101C5000190280931A0290931B023AC088E492E022
:101C60000E94FF186093EA017093EB018093EC01EE
:101C70009093ED012DC091E081330CF490E09093AE
:101C80005A0226C088E492E00E94FF186093340252
:101C900070933502809336029093370219C088E41E
:101CA00092E00E9460076093420270934302809327
:101CB0004402909345020CC088E492E00E946007C1
:101CC0006093260270932702809328029093290242
:101CD000E0905D02F0905E02E114F10409F413CF8C
:101CE000E0915D02F0915E0266A177A1D701969620
:101CF0008D919C9197970E94DB1E892B09F003CF51
:101D0000F70120A531A58091580290E08217930732
:101D10000CF4F9CE2817390739F440E150E068E4B3
:101D200072E0C7010E94EB1EF701E2A4F3A4D4CF36
:101D300081E0909158029F5F90935802109259024F
:101D400091E01A3209F090E090934702882309F459
:101D50001ECD21C0109259021092580210924602D4
:101D6000209257021092470210925A0210CDEE3084
:101D700040F481E08E0F80935902F0E0E85BFD4F64
:101D8000108380914702811102CD8091460218276D
:101D900010934602FCCC1092C3016091C401709173
:101DA000C50180E090E00E94EB1A6B017C0160911C
:101DB000C6017091C7018091C8019091C9010E942C
:101DC000EB1A28E23BE64EE65EE40E94431A9B01D2
:101DD000AC01C701B6010E945B192091CA01DC0168
:101DE000CB012111B0588093710290937202A0939D
:101DF0007302B09374026091CB017091CC0180E0CA
:101E000090E00E94EB1A6B017C016091CD01709112
:101E1000CE018091CF019091D0010E94EB1A28E26F
:101E20003BE64EE65EE40E94431A9B01AC01C7010B
:101E3000B6010E945B192091D101DC01CB01211177
:101E4000B0588093750290937602A0937702B09376
:101E500078028091C201882389F00E94E1040091F8
:101E6000E0011091E1012091E2013091E301DC01F8
:101E7000CB01801B910BA20BB30B03C08FEF9FEF25
:101E8000DC018093910290939202A0939302B0930D
:101E900094021092010260910602709107028091F3
:101EA0000802909109020E94ED1A6B017C0126E55F
:101EB0003EE04DEE5FE30E94441C20E030E048EC41
:101EC00052E40E94431A0E94B51A609381027093F3
:101ED000820280938302909384022EEB3CE443E9D8
:101EE0005FE3C701B6010E94441C20E030E048ECEB
:101EF00052E40E94431A0E94B51A609385027093BF
:101F00008602809387029093880210921D0260914E
:101F100022027091230280912402909125020E9456
:101F2000ED1A6B017C0120E030E048EC52E40E94A5
:101F3000431A0E94B51A6093790270937A028093D3
:101F40007B0290937C0228E439EF41E550E4C7011D
:101F5000B6010E94441C20E030E048EC52E40E94AC
:101F6000431A0E94B51A60937D0270937E0280939B
:101F70007F029093800210920F0260911402709180
:101F8000150280911602909117020E94ED1A20E02E
:101F900030E048EC52E40E94431A0E94B51A609364
:101FA000890270938A0280938B0290938C02109224
:101FB000390280913E0290913F02A0914002B0917F
:101FC000410280938D0290938E02A0938F02B09372
:101FD00090028091C2018093950210922B02809111
:101FE000300290913102A0913202B091330280937D
:101FF000960290939702A0939802B09399028091D1
:10200000D30481112AC080919502882309F4CDC799
:102010008091910290919202A0919302B0919402CA
:10202000803D9740A105B1050CF0BFC781E08093CA
:10203000D3048091D204811110C00E94E104DC011C
:10204000CB0188579C4EAF4FBF4F8093CE049093E7
:10205000CF04A093D004B093D1048091D304009115
:10206000C4041091C504882309F49BC340907102F5
:102070005090720260907302709074024092CA0491
:102080005092CB046092CC047092CD048090750283
:1020900090907602A0907702B09078028092C60469
:1020A0009092C704A092C804B092C904011511050A
:1020B00001F5A301920160E081E00E94090AA501F7
:1020C000940161E082E00E94090A409179025091F6
:1020D0007A0260917B0270917C0285E00E94F00997
:1020E000409181025091820260918302709184023A
:1020F00022C00130110511F5A301920160E081E0D9
:102100000E94090AA501940161E082E00E94090A87
:1021100040917D0250917E0260917F027091800219
:1021200085E00E94F00940918502509186026091FD
:1021300087027091880283E00E94F0092091C20416
:102140003091C3043AA329A32130310509F5409108
:10215000890250918A0260918B0270918C0288E012
:102160000E94F00940919602509197026091980266
:10217000709199028AE00E94F00940918D0250917D
:102180008E0260918F02709190028BE00E94F009A4
:102190008091D20481113DC0C090CE04D090CF0474
:1021A000E090D004F090D1041C141D041E041F0400
:1021B00084F50E94E104C616D706E806F90648F53C
:1021C00081E08093D2044092BE045092BF0460929A
:1021D000C0047092C1048092BA049092BB04A09291
:1021E000BC04B092BD040115110509F0E1C660916F
:1021F000790270917A0280917B0290917C020E9418
:10220000ED1A6093B6047093B7048093B80490936A
:10221000B9048091D204882309F48CC129A13AA180
:102220002130310509F02EC12091BA043091BB0450
:102230004091BC045091BD0460917502709176028A
:1022400080917702909178020E945A1925E33AEF23
:102250004EE85CE30E94441C6B017C010E94B11CAF
:1022600069A77AA78BA79CA7C701B6010E943E1A4F
:1022700069A37AA38BA39CA325E33AEF4EE85CE322
:102280006091710270917202809173029091740258
:102290000E94441C2B013C0125E33AEF4EE85CE32D
:1022A0006091BE047091BF048091C0049091C104FC
:1022B0000E94441C6B017C01C301B2010E94B11C4D
:1022C0004B015C01C301B2010E943E1A6DA37EA3C3
:1022D0008FA398A7C701B6010E94B11C6DA77EA766
:1022E0008FA798ABC701B6010E943E1A6B017C0113
:1022F0002DA53EA54FA558A96DA17EA18FA198A59A
:102300000E94441C69AB7AAB8BAB9CABA7019601D6
:10231000C501B4010E94441C6DAB7EAB8FAB98AF7E
:1023200029A13AA14BA15CA10E94441C9B01AC01D4
:1023300069A97AA98BA99CA90E945A199B01AC0191
:102340000E94441C2B013C0129A53AA54BA55CA584
:10235000C701B6010E94441C9B01AC010E94441CB1
:102360009B01AC01C301B2010E945B190E94BF1C1A
:102370002B013C012DA53EA54FA558A9C501B401CF
:102380000E94441C4B015C01A70196016DA17EA136
:102390008FA198A50E94441C29A13AA14BA15CA140
:1023A0000E94441C9B01AC01C501B4010E945B1951
:1023B0009B01AC01C301B2010E94DA1926E73BE799
:1023C00042EC5AE40E94441C0E94BC1A01301105E0
:1023D00051F40E94EB1A28E439EF41E550E40E94E1
:1023E000441C0E94BC1A6093B2047093B30480939F
:1023F000B4049093B50429A13AA14BA15CA169A9A9
:102400007AA98BA99CA90E94441C9B01AC016DA9CF
:102410007EA98FA998AD0E945A196B017C012DA14C
:102420003EA14FA158A569A57AA58BA59CA50E94A0
:10243000441CA70196010E94DA196B017C0120E07F
:1024400030E0A9010E94391A87FF0AC02BED3FE056
:1024500049EC50E4C701B6010E945B196B017C0195
:1024600021EE3EE245E652E4C701B6010E94441C5B
:102470000E94B51A6093AE047093AF048093B004C9
:102480009093B1040115110529F40091790210917E
:102490007A0208C00130110509F05CC000917D028C
:1024A00010917E021093AD040093AC04C090B6046A
:1024B000D090B704E090B804F090B90420E030E088
:1024C000A901C701B6010E94031C4801110FAA0807
:1024D000BB0887FD09C0C501B4010E94ED1AA70120
:1024E00096010E945A1908C0C501B4010E94ED1A54
:1024F000A70196010E945B190E94B51A77FD05C0DD
:102500007093AB046093AA0404C01092AB041092C1
:10251000AA04B501A40185E00E94F0094091AA0433
:102520005091AB04052E000C660B770B84E00E94E3
:10253000F00910C01092B2041092B3041092B404C7
:102540001092B5041092AE041092AF041092B00431
:102550001092B1048091C2049091C3040197B1F428
:102560004091B2045091B3046091B4047091B504E9
:1025700087E00E94F0094091AE045091AF04609151
:10258000B0047091B10489E00E94F0090E94E10456
:102590000E94EB1A6B017C016091AC047091AD0458
:1025A000072E000C880B990BEAEAF2E004811581F2
:1025B00026813781019311932193319333E0EE30DB
:1025C000F307A1F760930A0370930B0380930C0346
:1025D00090930D03EEEDF3E0A2E1B3E004811581E9
:1025E00026813781019311932193319314960D9194
:1025F0001D912D913C9117970D931D932D933D9314
:1026000024E0E63AF20751F70E94ED1A6093A6041F
:102610007093A7048093A8049093A904C092DA034E
:10262000D092DB03E092DC03F092DD0380913A0369
:1026300090913B03A0913C03B0913D038DA79EA7D1
:10264000AFA7B8AB00E010E0412C512C32014DA2F5
:102650005EA26FA278A67301620149A25AA26BA280
:102660007CA2F801EE5EFC4F2DA53EA54FA558A912
:1026700060A571A582A593A50E945A194B015C0122
:10268000F801E252FC4F80A591A5A2A5B3A589A7A8
:102690009AA7ABA7BCA79C01AD01C501B4010E94DC
:1026A000441C9B01AC0169A17AA18BA19CA10E9451
:1026B0005B1969A37AA38BA39CA3A5019401C7010D
:1026C000B6010E945B196B017C0129A53AA54BA5B7
:1026D0005CA56DA17EA18FA198A50E945B196DA339
:1026E0007EA38FA398A7A5019401C501B4010E9400
:1026F000441C9B01AC01C301B2010E945B192B0178
:102700003C010C5F1F4F003A110509F0AACF20E0F1
:1027100030E040E252E469A17AA18BA19CA10E9421
:10272000441C4B015C012DA13EA14FA158A5C7013E
:10273000B6010E94441C9B01AC01C501B4010E947A
:102740005A1920E030E04AE754E40E94441C4B014F
:102750005C0120E030E040E252E4C301B2010E949B
:10276000441C2B013C01A7019601C701B6010E9440
:10277000441C9B01AC01C301B2010E945A199B0188
:10278000AC01C501B4010E94431A0E94B51A7093AE
:10279000110360931003AB01770F660B770B86E094
:1027A0005BC01092CA041092CB041092CC04109219
:1027B000CD041092C6041092C7041092C80410925F
:1027C000C9040230110500F520E030E0A90160E005
:1027D00081E00E94090A20E030E0A90161E082E086
:1027E0000E94090A40E050E0BA0185E00E94F00929
:1027F00040E050E0BA0184E00E94F00940E050E07F
:10280000BA0183E00E94F0098091C2049091C30450
:10281000019721F540E050E0BA0186E00E94F009FE
:1028200040E050E0BA0188E00E94F00940E050E04A
:10283000BA018AE00E94F00940E050E0BA018BE062
:102840000E94F00940E050E0BA0187E00E94F009E0
:1028500040E050E0BA0189E00E94F0098091BA0599
:102860009091BB05DC01ED91FC910480F581E02D98
:102870000995803E51F480910E0390910F038530AD
:1028800091050CF0ABC001960BC0803789F48091A4
:102890000E0390910F03181619060CF09FC00197B4
:1028A00090930F0380930E0381E08093000196C004
:1028B000803B09F093C080910E0390910F03019724
:1028C000A9F41092C5041092C40460E080E090E086
:1028D0000E94210986E090E090930F0380930E03FD
:1028E00081E080930001E0E0F0E0099580910E0323
:1028F00090910F030297B9F481E090E09093C504A2
:102900008093C40461E080E090E00E94210986E0A9
:1029100090E090930F0380930E0381E08093000179
:10292000E0E0F0E0099580910E0390910F0303978A
:10293000A9F41092C3041092C20460E081E090E018
:102940000E94210986E090E090930F0380930E038C
:1029500081E080930001E0E0F0E0099580910E03B2
:1029600090910F030497A9F481E090E09093C30441
:102970008093C20461E00E94210986E090E0909378
:102980000F0380930E0381E080930001E0E0F0E00C
:10299000099580910E0390910F030597F9F4109219
:1029A000C5041092C4041092C3041092C20460E0E3
:1029B00080E090E00E9421096091C20481E090E0F3
:1029C0000E94210986E090E090930F0380930E030C
:1029D00081E080930001E0E0F0E009958091000142
:1029E0008823A9F180910E0390910F038230910505
:1029F000D1F03CF4009771F0019749F56DE571E075
:102A00001AC084309105A9F08CF0059701F564EAAD
:102A100071E011C06FE371E080E090E00E94D209A4
:102A20006FE471E00EC06BE771E005C068E871E02B
:102A300002C065E971E080E090E00E94D2096CE696
:102A400071E081E090E00E94D20910920001C090F4
:102A50007905D0907A05E0907B05F0907C05F6E949
:102A6000CF0ED11CE11CF11C0E94E1046C157D0508
:102A70008E059F0508F48FC20E94E10460937905DA
:102A800070937A0580937B0590937C058091FD057A
:102A9000882351F18091BA059091BB05DC01ED913D
:102AA000FC910280F381E02D40E06EE70995809172
:102AB000BA059091BB05DC01ED91FC910280F38198
:102AC000E02D41E061E909958091BA059091BB053F
:102AD000DC01ED91FC910280F381E02D41E061E3A6
:102AE00009951092FD0510C21091FC05112309F4FF
:102AF0004BC0E12E012E000CFF08C7010E94BC1E36
:102B0000892B31F0C7010E94C31E182F00E001C0BD
:102B100001E08091BA059091BB05DC01ED91FC913B
:102B20000280F381E02D40E06EE709958091BA05BF
:102B30009091BB05DC01ED91FC910280F381E02DC9
:102B400041E062E009958091BA059091BB05DC01F6
:102B5000ED91FC910280F381E02D011102C062E24F
:102B600001C063E241E009958091BA059091BB05EF
:102B7000DC01ED91FC910280F381E02D41E0612FB9
:102B800009951092FC05C0C12091930530919405E0
:102B90002115310509F4B8C160917D0581E0860FEA
:102BA00080937D05611118C01092BE051092C40576
:102BB00010919205812F880F880F880F8093C5058B
:102BC000412F50E06EE775E086EC95E00E94CB1E49
:102BD0005AE0F52EF10E40C160FD34C0669570E0FC
:102BE0008091970590919805861797075CF1615041
:102BF000710940E050E0CE0101960E9482081092D7
:102C0000BE058B818093C4058C8DB8E08B9FC0017D
:102C100011249D8D892B8093C50580E02AE0280F23
:102C2000E8E0F0E0EC0FFD1FE80FF11D9081992323
:102C300039F08F5FE22FF0E0E454FA4F9083EECF4B
:102C4000F22E0AC180E48093BE0500E010E048E067
:102C5000F42E809199052091930530919405682F69
:102C600070E04091950550919605E4E08E9F400DEF
:102C7000511D1124CE0101960E9482088C819D81F4
:102C8000AE81BF818F3FFFEF9F07AF07BF0709F4FA
:102C9000C3C06B81EF2DF0E04E8D31E03F0D603110
:102CA00060F0E454FA4F242F2F70208322E02F0D80
:102CB000E32FF0E0E454FA4F0AC0232FE454FA4F14
:102CC00030E1639FB0011124342F3F70632B608388
:102CD00068A170E030E04430B9F128F4442369F091
:102CE0004130D9F095C0483009F466C0493009F444
:102CF00080C0453009F08CC042C0482F4F71B7FDED
:102D000002C080E001C080E8F901E454FA4F842B4E
:102D10009F8D892B808381E07CC0F901E454FA4FB8
:102D20008083A9014F5F5F4FE92FEF71B7FD02C0AC
:102D300080E001C080E8DA01A454BA4F8E2B9F8D49
:102D4000892B8C9382E065C0A90147585A4FFA013C
:102D5000ED5BFF4F808331969083A9014E5F5F4FFB
:102D6000EA2FEF71B7FD02C080E001C080E8DA0110
:102D7000A454BA4F8E2B9F8D892B8C931BC0A90115
:102D800047585A4FFA01ED5BFF4F8083319690838D
:102D9000A9014E5F5F4F6D01FF24D7FCF094EF2C2B
:102DA000B7FD02C080E001C080E8FA01E454FA4FA8
:102DB000C82AC08283E02DC0A90147585A4FFA01A2
:102DC000ED5BFF4F8083319690833196A083A901FC
:102DD0004D5F5F4FEB2FEF71B7FD02C080E001C088
:102DE00080E8DA01A454BA4F8E2B9F8D892B8C93E7
:102DF0000DC0A90147585A4FFA01ED5BFF4F808380
:102E0000319690833196A0833196B08384E001C0DF
:102E100080E0F82EF20E02C060E070E0809199052B
:102E20008F5F80939905209197053091980590E0E8
:102E30008217930714F0109299050F5F1F4F021726
:102E4000130754F48F2D90E02AE130E0261B370B56
:102E5000821793070CF4FDCE8EE78093BC058FE2BA
:102E60008093BD058091BE059EEF9F0D892B8093B9
:102E7000BE0589E08093BF0584EA8093C0058091F8
:102E8000FE058093C1058091FF058093C2051092D5
:102E9000C305EF2DF0E0AEEBB5E080E099AD9A0F01
:102EA0009F1560F49D91892798E087FF03C0880FE4
:102EB000832501C0880F9150C1F7F0CFE454FA4F39
:102EC00080838091BA059091BB05DC01ED91FC9166
:102ED0000280F381E02D40E06EE7099511E0F116E4
:102EE00098F08091BA059091BB05DC01ED91FC91C1
:102EF000A12FB0E0A454BA4F0280F381E02D41E04D
:102F00006C9109951F5FEBCF8091BA059091BB053D
:102F1000DC01ED91FC910280F381E02D40E06EEF49
:102F200009958091DC05882319F10CED15E080915D
:102F3000BA059091BB05F80161918F01DC01ED911B
:102F4000FC910280F381E02D41E00995B5E00C3F52
:102F50001B0769F78091BA059091BB05DC01ED91E3
:102F6000FC910280F381E02D40E06FEF099513C0E2
:102F700000E210E08091BA059091BB05DC01ED9173
:102F8000FC910280F381E02D41E060E00995015061
:102F9000110981F7DFCF80E090E0892B11F40C94C8
:102FA000BF0B0E9400000C94BF0B1092D30455C8B5
:102FB0000130110509F02DC960917D0270917E02EA
:102FC00080917F02909180021AC968E472E0C60184
:102FD0000E94DB1E1816190614F00C94830D109233
:102FE0005E0210925D020C94830DE2ECF1E010821F
:102FF0001182138212821482158216821782108621
:103000001286118613861486158616861786118AEF
:10301000108A128A138A148A158A168A108E178AC1
:10302000118E128E138E148E158E12A213A214A25C
:1030300015A216A217A210AA11AA12AA13AA14AABC
:1030400015AA10920002109201021092060210922C
:103050000702109208021092090210920E021092BA
:103060000F02109214021092150210921602109282
:10307000170210921C0210921D021092220210924E
:103080002302109224021092250210922A0210921A
:103090002B021092300210923102109232021092E2
:1030A0003302109238021092390210923E021092AE
:1030B0003F0210924002109241021092460210927A
:1030C000470282E0809357021092580210925902F0
:1030D00010925A0210925C0210925B0210925E02F1
:1030E00010925D0210925F021092600210926102D3
:1030F00010926202109263021092640210926502B2
:103100001092660210926702109268021092690291
:1031100010926A0210926B0210926C0210926D0271
:1031200010926E02109248021092700210926F027A
:103130001092710210927202109273021092740235
:103140001092750210927602109277021092780215
:103150001092790210927A0210927B0210927C02F5
:1031600010927D0210927E0210927F0210928002D5
:1031700010928102109282021092830210928402B5
:103180001092850210928602109287021092880295
:1031900010928D0210928E0210928F021092900265
:1031A0001092910210929202109293021092940245
:1031B0001092960210929702109298021092990221
:1031C000E9E7F5E010821182128213821482118ED7
:1031D000138E128E158E148E178E168E10A21092CC
:1031E000BB051092BA051092FC051092FD0586E70A
:1031F0008093FE0582E38093FF05158208951F9357
:10320000FC0199278827BC01E89411911032E9F359
:10321000193010F01E30C8F31B3251F01D3249F442
:10322000689406C00E942F19610F711D811D911DA8
:10323000119110531A30B0F33EF49095809570952B
:1032400061957F4F8F4F9F4F1F910895FB01DC01C8
:1032500002C005900D9241505040D8F70895592F63
:10326000482F372F262F660F771F881F991F660F4D
:10327000771F881F991F620F731F841F951F660F8A
:10328000771F881F991F0895F999FECF92BD81BDC0
:10329000F89A992780B50895262FF999FECF1FBA7D
:1032A00092BD81BD20BD0FB6F894FA9AF99A0FBE6F
:1032B000019608955058BB27AA270E9472190C94B2
:1032C000B51B0E947C1B38F00E94831B20F039F450
:1032D0009F3F19F426F40C94521B0EF4E095E7FB83
:1032E0000C944C1BE92F0E94DA1B58F3BA176207A3
:1032F00073078407950720F079F4A6F50C94FC1B5E
:103300000EF4E0950B2EBA2FA02D0B01B901900100
:103310000C01CA01A0011124FF27591B99F0593F44
:1033200050F4503E68F11A16F040A22F232F342F8C
:103330004427585FF3CF469537952795A795F040DA
:103340005395C9F77EF41F16BA0B620B730B840BEF
:10335000BAF09150A1F0FF0FBB1F661F771F881FA7
:10336000C2F70EC0BA0F621F731F841F48F48795FF
:1033700077956795B795F7959E3F08F0B0CF9395F1
:10338000880F08F09927EE0F9795879508950E946A
:103390007C1B60F080E891E009F49EEF0E94831BA3
:1033A00028F040E851E071F45EEF0CC00C94521B21
:1033B0000C94FC1BE92FE0780E94DA1B40F3092EE5
:1033C000052AB1F3261737074807590738F00E2E9C
:1033D00007F8E02569F0E025E0640AC0EF6307F82C
:1033E000009407FADB01B9019D01DC01CA01AD01BE
:1033F000EF930E945A1A0E94B51B0E940A1A5F910D
:10340000552339F02BED3FE049E450FD49EC0C9495
:103410005B190895DF93DD27B92FBF7740E85FE39D
:103420001616170648075B0718F4D92F0E94081CC8
:103430009F938F937F936F930E94FF1CEAEBF0E0C2
:103440000E94551B0E94B51B2F913F914F915F9198
:103450000E94571CDD2351F09058A2EA2AED3FE06C
:1034600049EC5FE3D0785D270E947219DF910C94DC
:10347000B51B0E94281B08F481E008950E948C1B54
:10348000E3950C94C61B0E94571A0C94B51B0E941E
:10349000831B58F00E947C1B40F029F45F3F29F009
:1034A0000C944C1B51110C94FD1B0C94521B0E944C
:1034B000DA1B68F39923B1F3552391F3951B550B50
:1034C000BB27AA2762177307840738F09F5F5F4FF7
:1034D000220F331F441FAA1FA9F335D00E2E3AF036
:1034E000E0E832D091505040E695001CCAF72BD04E
:1034F000FE2F29D0660F771F881FBB1F261737079F
:103500004807AB07B0E809F0BB0B802DBF01FF27D0
:1035100093585F4F3AF09E3F510578F00C944C1B46
:103520000C94FD1B5F3FE4F3983ED4F386957795AA
:103530006795B795F7959F5FC9F7880F911D969589
:10354000879597F90895E1E0660F771F881FBB1FE5
:10355000621773078407BA0720F0621B730B840B92
:10356000BA0BEE1F88F7E09508950E94BC1A689484
:10357000B1110C94FD1B08950E94E21B88F09F5727
:1035800098F0B92F9927B751B0F0E1F0660F771F87
:10359000881F991F1AF0BA95C9F714C0B13091F07D
:1035A0000E94FC1BB1E008950C94FC1B672F782F40
:1035B0008827B85F39F0B93FCCF386957795679542
:1035C000B395D9F73EF490958095709561957F4FAE
:1035D0008F4F9F4F0895E89409C097FB3EF4909554
:1035E0008095709561957F4F8F4F9F4F9923A9F0DC
:1035F000F92F96E9BB279395F6958795779567956B
:10360000B795F111F8CFFAF4BB0F11F460FF1BC0AE
:103610006F5F7F4F8F4F9F4F16C0882311F096E941
:1036200011C0772321F09EE8872F762F05C06623EF
:1036300071F096E8862F70E060E02AF09A95660FA8
:10364000771F881FDAF7880F9695879597F9089561
:10365000990F0008550FAA0BE0E8FEEF16161706A3
:10366000E807F907C0F012161306E407F50798F00B
:10367000621B730B840B950B39F40A2661F0232B24
:10368000242B252B21F408950A2609F4A140A695A0
:103690008FEF811D811D089597F99F6780E870E085
:1036A00060E008959FEF80EC0895DF93CF931F9320
:1036B0000F93FF92EF92DF927B018C01689406C01A
:1036C000DA2EEF010E94571CFE01E894A591259186
:1036D000359145915591A6F3EF010E947219FE01B3
:1036E0009701A801DA9469F7DF90EF90FF900F91AE
:1036F0001F91CF91DF91089500240A9416161706A2
:1037000018060906089500240A94121613061406D2
:10371000050608950C94521B0E94E21BD8F3E8940E
:10372000E0E0BB279F57F0F02AED3FE049EC06C0F0
:10373000EE0FBB0F661F771F881F28F0B23A620793
:103740007307840728F0B25A620B730B840BE3955E
:103750009A9572F7803830F49A95BB0F661F771FE1
:10376000881FD2F790480C94051D092E0394000C75
:1037700011F4882352F0BB0F40F4BF2B11F460FF0B
:1037800004C06F5F7F4F8F4F9F4F0895EF93E0FF0F
:1037900007C0A2EA2AED3FE049EC5FEB0E947219F4
:1037A0000E94B51B0F90039401FC9058E7EEF0E0E7
:1037B0000C94181D57FD9058440F551F59F05F3F4A
:1037C00071F04795880F97FB991F61F09F3F79F043
:1037D00087950895121613061406551FF2CF4695C5
:1037E000F1DF08C0161617061806991FF1CF869547
:1037F0007105610508940895E894BB27662777272B
:10380000CB0197F908950E94281B08F48FEF0895C3
:103810009B01AC0160E070E080E89FE30C94431AE8
:10382000FA01DC01AA0FBB1F9B01AC01BF5728F4B2
:10383000222733274427507820C0B75190F4AB2F6C
:103840000024469537952795011CA395D2F30020B7
:1038500071F0220F331F441FB395DAF30ED00C948E
:103860005A1961307105A0E88A07B94630F49B0106
:10387000AC016627772788279078309621F020833F
:1038800031834283538308950E94571C0C94B51BC7
:103890000E947C1B38F00E94831B20F0952311F0BE
:1038A0000C944C1B0C94521B11240C94FD1B0E9475
:1038B000DA1B70F3959FC1F3950F50E0551F629F7F
:1038C000F001729FBB27F00DB11D639FAA27F00D79
:1038D000B11DAA1F649F6627B00DA11D661F829FA0
:1038E0002227B00DA11D621F739FB00DA11D621F85
:1038F000839FA00D611D221F749F3327A00D611DA2
:10390000231F849F600D211D822F762F6A2F112483
:103910009F5750409AF0F1F088234AF0EE0FFF1FB6
:10392000BB1F661F771F881F91505040A9F79E3F0D
:10393000510580F00C944C1B0C94FD1B5F3FE4F38D
:10394000983ED4F3869577956795B795F795E79563
:103950009F5FC1F7FE2B880F911D9695879597F96C
:1039600008959F930E948C1B0F9007FCEE5F0C94B0
:10397000C61B19F416F40C94521B0C94031D0E94E0
:10398000E21BB8F39923C9F3B6F39F57550B87FF92
:103990000E94111D0024A0E640EA9001805856952F
:1039A000979528F4805C660F771F881F20F02617F4
:1039B0003707480730F4621B730B840B2029312929
:1039C0004A2BA69517940794202531254A2758F7A6
:1039D000660F771F881F20F026173707480730F437
:1039E000620B730B840B200D311D411DA09581F7D7
:1039F000B901842F9158880F9695879508959B015A
:103A0000AC010C94441C9F3F31F0915020F48795F9
:103A100077956795B795880F911D9695879597F936
:103A2000089591505040660F771F881FD2F7089570
:103A30009F938F937F936F93FF93EF939B01AC01C1
:103A40000E94441CEF91FF910E94551B2F913F91C2
:103A50004F915F910C94441CDB018F939F930E94C4
:103A6000641DBF91AF91A29F800D911DA39F900DEA
:103A7000B29F900D11240895A1E21A2EAA1BBB1B20
:103A8000FD010DC0AA1FBB1FEE1FFF1FA217B3072A
:103A9000E407F50720F0A21BB30BE40BF50B661F40
:103AA000771F881F991F1A9469F760957095809504
:103AB00090959B01AC01BD01CF010895EE0FFF1F52
:103AC0000590F491E02D09940E94771DA59F900D1B
:103AD000B49F900DA49F800D911D11240895B7FFF0
:103AE0000C94641D0E94641D821B930B0895A29F79
:103AF000B001B39FC001A39F700D811D1124911DC2
:103B0000B29F700D811D1124911D0895CF93DF93F5
:103B10008230910510F482E090E0E0910206F0918D
:103B2000030620E030E0C0E0D0E0309711F14081A2
:103B3000518148175907C0F04817590761F482812D
:103B40009381209719F09B838A832BC0909303065F
:103B50008093020626C02115310519F0421753073C
:103B600018F49A01BE01DF01EF010280F381E02D1C
:103B7000DCCF2115310509F1281B390B2430310523
:103B800090F412968D919C9113976115710521F017
:103B9000FB019383828304C0909303068093020603
:103BA000FD01329644C0FD01E20FF31F8193919312
:103BB000225031092D933C933AC020910006309158
:103BC0000106232B41F4209103013091040130932D
:103BD0000106209300062091010130910201211578
:103BE000310541F42DB73EB74091050150910601D2
:103BF000241B350BE0910006F0910106E217F30754
:103C0000A0F42E1B3F0B2817390778F0AC014E5F4C
:103C10005F4F2417350748F04E0F5F1F5093010682
:103C2000409300068193919302C0E0E0F0E0CF0161
:103C3000DF91CF9108950F931F93CF93DF93009758
:103C400009F48CC0FC0132971382128200910206A3
:103C5000109103060115110581F420813181820F35
:103C6000931F20910006309101062817390779F536
:103C7000F0930106E093000671C0D80140E050E0E7
:103C8000AE17BF0750F412962D913C911397AD01DA
:103C90002115310509F1D901F3CF9D01DA013383F3
:103CA000228360817181860F971F8217930769F4C1
:103CB000EC0128813981260F371F2E5F3F4F31835A
:103CC00020838A819B8193838283452B29F4F093FF
:103CD0000306E093020642C01396FC93EE931297FC
:103CE000ED01499159919E01240F351FE217F30709
:103CF00071F480819181840F951F029611969C9397
:103D00008E938281938113969C938E931297E0E019
:103D1000F0E0D80112968D919C911397009719F0BD
:103D2000F8018C01F6CF8D919C9198012E5F3F4F49
:103D3000820F931F20910006309101062817390742
:103D400069F4309729F4109203061092020602C01B
:103D5000138212821093010600930006DF91CF9127
:103D60001F910F91089581E090E0F8940C94FD1E4E
:103D700085FD0C94FA1E806291110C94FA1E8156F6
:103D80008A51D8F708959111089581568A5108F4FF
:103D9000805285580895FB01DC0102C001900D920C
:103DA00041505040D8F70895DC0101C06D93415057
:103DB0005040E0F70895FB01DC018D9101908019DE
:103DC0000110D9F3990B0895FB01DC0101900D92CC
:103DD0000020E1F70895FB01DC014150504048F01C
:103DE00001900D920020C9F701C01D924150504032
:0E3DF000E0F70895992788270895F894FFCFEB
:103DFE0001000004068000000000007F03F202B9FB
:103E0E00037A03420364035103000000007704BCED
:103E1E0003F903230422044750524D4300474E52E8
:103E2E004D4300475047474100474E47474100200A
:103E3E00524354204A65746920546F6F6C7300208E
:103E4E0020204750532053656E736F720020204D13
:103E5E00657465722026206B6D2F68002052657385
:103E6E00746172743A20444F574E002020466565A7
:103E7E00742026206D7068002020426173696320D3
:103E8E006D6F64650020457874656E646564206DA1
:103E9E006F64650020526573657420646566617594
:083EAE006C74730047505300CF
:00000001FF
