:100000000C9475020C949D020C949D020C949D021C
:100010000C949D020C949D020C949D020C949D02E4
:100020000C949D020C949D020C9427050C94D10510
:100030000C94E0040C949D020C949D020C949D027F
:100040000C9496040C949D020C9464070C94A307E2
:100050000C94FE070C949D020C949D020C949D023E
:100060000C949D020C949D02920DA40DA70DAE0D53
:10007000B50DE30DEA0DF70D040E100E100E100E67
:10008000100E100E100E100E100E100E100E100E80
:10009000100E100E100E100E100E100E100E100E70
:1000A000100E100E100E100E920D9F0DA40DA70D28
:1000B000AE0DB50DBC0DC90DD60D95139E13A11334
:1000C000A413A713AA13B313084AD73B3BCE016E60
:1000D00084BCBFFDC12F3D6C74319ABD56833DDA9F
:1000E0003D00C77F11BED9E4BB4C3E916BAAAABEAE
:1000F000000000803F05A84CCDB2D44EB93836A9D7
:10010000020C50B9918688083CA6AAAA2ABE000013
:1001100000803F0000000000250028002B000404A0
:10012000040404040404020202020202030303039F
:10013000030301020408102040800102040810207B
:100140000102040810200000000800020100000362
:1001500004070000000000000000014C6174697495
:100160007564650000000000000000000000002031
:100170000000000000000900024C6F6E6769747592
:100180006465000000000000000000000020000086
:100190000000000009000353706565640000000062
:1001A00000000000000000000000006D706800000A
:1001B0000000010004416C746974756465000000FE
:1001C0000000000000000000006674000000000055
:1001D00001000544697374616E63650000000000EE
:1001E0000000000000000066740000000000010034
:1001F0000648656164696E67000000000000000049
:100200000000000000B000000000000001000743F3
:100210006F757273650000000000000000000000B0
:10022000000000B0000000000000010008536174ED
:10023000656C6C69746573000000000000000000CC
:10024000002000000000000001000948444F500059
:10025000000000000000000000000000000000207E
:10026000000000000000010000000000000000008D
:10027000000000000000000000000000000000007E
:10028000000000000000014C617469747564650031
:10029000000000000000000000000020000000003E
:1002A00000000900024C6F6E676974756465000098
:1002B000000000000000000000200000000000001E
:1002C0000900035370656564000000000000000031
:1002D000000000000000006D7068000000000100D8
:1002E00004416C74697475646500000000000000CE
:1002F0000000000000667400000000000100000023
:1003000000000000000000000000000000000000ED
:10031000000000000000000000000000014C6174BB
:1003200069747564650000000000000000000000B2
:1003300000200000000000000900024C6F6E676999
:1003400074756465000000000000000000000020DB
:1003500000000000000009000353706565640000A0
:10036000000000000000000000000000006B6D2F86
:1003700068000000010004416C74697475646500D4
:1003800000000000000000000000006D0000000000
:10039000000001000544697374616E63650000002C
:1003A0000000000000000000006D000000000000E0
:1003B00001000648656164696E6700000000000086
:1003C00000000000000000B000000000000001007C
:1003D00007436F75727365000000000000000000A5
:1003E0000000000000B00000000000000100085301
:1003F0006174656C6C697465730000000000000036
:100400000000002000000000000001000948444FE7
:10041000500000000000000000000000000000008C
:1004200000200000000000000100000000000000AB
:1004300000000000000000000000000000000000BC
:100440000000000000000000014C617469747564D4
:100450006500000000000000000000000020000017
:10046000000000000900024C6F6E676974756465D6
:10047000000000000000000000000020000000005C
:10048000000009000353706565640000000000006F
:100490000000000000000000006B6D2F68000000ED
:1004A000010004416C74697475646500000000000B
:1004B000000000000000006D0000000000000100CE
:1004C000000000000000000000000000000000002C
:1004D000000000000000000000000000000000001C
:1004E0000000240027002A00941611241FBECFEF1D
:1004F000D8E0DEBFCDBF11E0A0E0B1E0ECE3FBE36C
:1005000002C005900D92A83DB107D9F724E0A8EDEF
:10051000B1E001C01D92A432B207E1F712E0C5E7D5
:10052000D2E004C02197FE010E94FD1BC437D10711
:10053000C9F70E941C0A0C949C1D0C940000CF92D9
:10054000DF92EF92FF920F931F93CF93DF936C0193
:100550007A018B01C0E0D0E0CE15DF0589F0D8012B
:100560006D918D01D601ED91FC910190F081E02D0E
:10057000C6010995892B11F47E0102C02196ECCFAA
:10058000C701DF91CF911F910F91FF90EF90DF9006
:10059000CF9008953FB7F89480919503909196037A
:1005A000A0919703B091980326B5A89B05C02F3F53
:1005B00019F00196A11DB11D3FBFBA2FA92F982F89
:1005C0008827820F911DA11DB11DBC01CD0143E003
:1005D000660F771F881F991F4A95D1F7089550918C
:1005E000DC014091DB01852F90E0242F30E054178F
:1005F00010F4805B9F4F821B930B08958091DC0168
:10060000E091DB018E1751F0EF5FE03508F0E0E09C
:10061000F0E0E05CFC4F808190E008958FEF9FEF69
:1006200008958091DC019091DB01891769F09F5F4B
:10063000903508F090E0E92FF0E0E05CFC4F80811D
:100640009093DB0190E008958FEF9FEF08958091E4
:10065000DA018111FCCF08958091D9018F5F843434
:1006600008F080E09091D8019817E1F32FB7F89443
:100670009091DA01992341F0E82FF0E0EA50FD4F24
:1006800060838093D9011DC081E08093DA0160937B
:100690003B0310923A0382E086BB80916F00826038
:1006A00080936F00809180008F73806880938000BA
:1006B000809184009091850040969093890080936A
:1006C00088002FBF81E090E008951F93CF93DF93C0
:1006D000F894EC01CA57DF4F2881203400F5DC0183
:1006E000AE57BF4F1C9111965C91119770E041116C
:1006F00003C020E030E002C020E031E0622B732B29
:10070000E12FF52F71836083329628812F5F288334
:10071000EA17FB0710F0FC013296ED93FC93FC0105
:10072000E057FF4F8081811108C081E08083809174
:10073000C1008F7688628093C1007894DF91CF9159
:100740001F910895FC01E157FF4F2081222301F101
:10075000F894A091F402B091F502A357BF4F0D9009
:10076000BC91A02D4C912081215020833297208173
:1007700031812F5F3F4FBC0165577F4F26173707E9
:1007800018F09C0129573F4F31832083789401C092
:1007900040E0842F0895089508950E94521DCF933C
:1007A000DF9390E0FC01EE5CFE4F2491FC01E25EE1
:1007B000FE4F8491882361F190E0880F991FFC011E
:1007C000E252FB4FC591D491FC01EC5EFE4FA59126
:1007D000B491611109C09FB7F89488812095822354
:1007E0008883EC912E230BC0623061F49FB7F8949C
:1007F0003881822F809583238883EC912E2B2C9334
:100800009FBF06C08FB7F894E8812E2B28838FBF37
:10081000DF91CF9108951092C0008CE18093C100C8
:1008200086E38093C2001092C50082E38093C400E7
:1008300062E080E00E94CF0362E081E00C94CF038D
:10084000CF93DF93EC010E940B04FE01329680E807
:10085000DF011D928A95E9F7DE01AE57BF4F119671
:10086000FC93EE9312961196FC93EE93EC57FF4F88
:10087000108231961082118212821382179611967D
:10088000FC93EE931296ED93FC933896108231967A
:100890001082D093F502C093F402DF91CF910895B6
:1008A0008F929F92AF92BF92CF92DF92EF92FF9280
:1008B0006B017C010E94CA024B015C01C114D1048E
:1008C000E104F104F1F00E94CA02DC01CB018819B5
:1008D0009909AA09BB09883E9340A105B10570F3A7
:1008E00021E0C21AD108E108F10888EE880E83E001
:1008F000981EA11CB11CC114D104E104F10419F724
:10090000DDCFFF90EF90DF90CF90BF90AF909F90A2
:100910008F9008952FB7F89460919103709192038E
:1009200080919303909194032FBF08951F920F928B
:100930000FB60F9211242F933F938F939F93AF93F2
:10094000BF938091910390919203A0919303B091F2
:1009500094033091900326E0230F2D3720F4029664
:10096000A11DB11D05C029E8230F0396A11DB11DCE
:10097000209390038093910390939203A093930309
:10098000B09394038091950390919603A09197035F
:10099000B09198030196A11DB11D8093950390938A
:1009A0009603A0939703B0939803BF91AF919F9143
:1009B0008F913F912F910F900FBE0F901F90189520
:1009C0001F920F920FB60F9211242F938F939F9324
:1009D000EF93FF9380916F008B7F80936F008091E6
:1009E00081008F7B809381008091DD0120913F0306
:1009F000205890913E03893020F49695922B8F5F7A
:100A0000FACF90933E038091DC018F5F803508F030
:100A100080E02091DB01821739F0E82FF0E0E05C04
:100A2000FC4F90838093DC011092DD018091810066
:100A30008F7B8093810010923F03FF91EF919F91F4
:100A40008F912F910F900FBE0F901F9018951F92AE
:100A50000F920FB60F9211242F933F934F935F93F2
:100A60006F937F938F939F93AF93BF93EF93FF9376
:100A7000809186009091870040913F0320918100F2
:100A8000442331F02F7B2093810010923F0306C056
:100A900020642093810020E820933F033091DD0102
:100AA000311125C041116CC02091DE013091DF0170
:100AB000280F391F30938B0020938A0024E026BB37
:100AC00020916F00246020936F002091E00130910D
:100AD000E101820F931F36952795820F931F909304
:100AE0003D0380933C0381E08093DD0149C0409148
:100AF0003C0350913D036091E0017091E101DB0105
:100B0000A095B095E0913F0320913E03841B950B87
:100B1000A817B90768F126952E2B460F571F3F5F80
:100B2000861B970B3930A0F320933E0380916F0012
:100B30008B7F80936F008091DC018F5F803508F0A0
:100B400080E09091DB01891749F0E82FF0E0909167
:100B50003E03E05CFC4F90838093DC018091810038
:100B60008F7B8093810010923F031092DD0108C0BB
:100B700020933E0350933D0340933C033093DD01AB
:100B8000FF91EF91BF91AF919F918F917F916F9165
:100B90005F914F913F912F910F900FBE0F901F903B
:100BA00018951F920F920FB60F9211242F933F9317
:100BB0004F935F936F937F938F939F93EF93FF93E5
:100BC0008091DA0160913B03209188003091890087
:100BD0004091E0015091E10190913A038A30F8F49C
:100BE000240F351F893019F0762F717001C071E024
:100BF00066958F5F791791F390918000772311F0BC
:100C0000906C02C09F73906890938000309389002D
:100C10002093880070933A0360933B034AC09091FD
:100C2000D901E091D8019E1319C08A3051F48BE0AC
:100C30008093DA01240F351F3093890020938800B8
:100C40003AC01092DA01809180008F738093800007
:100C500080916F008D7F80936F002DC0EF5FE43433
:100C600008F0E0E0E093D801F0E0EA50FD4F908119
:100C700090933B0310923A03909180009F73906889
:100C8000909380008A3059F48091E0019091E101C5
:100C9000280F391F309389002093880009C0809164
:100CA00084009091850040969093890080938800FD
:100CB00081E08093DA01FF91EF919F918F917F9175
:100CC0006F915F914F913F912F910F900FBE0F90B9
:100CD0001F901895CF93DF93EC018A859B85AC8597
:100CE000BD858E839F83A887B9870E948A046A8303
:100CF0007B838C839D8381E089838883DF91CF917F
:100D000008952F923F924F925F926F927F928F92AF
:100D10009F92AF92BF92CF92DF92EF92FF920F938A
:100D20001F93CF93DF93D82FC92F8B010E949E175B
:100D300024E630E040E050E00E94DB1B49015A010C
:100D40009B01AC0160E876E988E990E00E94CB1B4A
:100D50006B017C01F80191828082ED2FFC2F2191A3
:100D6000822F022E000C990BC0970A97C0F32E32E7
:100D700039F51F0180E8882E86E9982E88E9A82E8B
:100D8000B12C9AE0492E512C612C712CF101C191AA
:100D90001F010C2E000CDD0BE097CA30D10580F44A
:100DA000C501B401A30192010E94DB1B49015A0154
:100DB000DE010E940E1CC60ED71EE81EF91EE6CFED
:100DC000A5E0B0E0A70196010E94031C6F5F7F4F72
:100DD0008F4F9F4F23E030E040E050E00E94DB1B4C
:100DE000F80122833383448355831682DF91CF91A8
:100DF0001F910F91FF90EF90DF90CF90BF90AF9039
:100E00009F908F907F906F905F904F903F902F902A
:100E10000895FF920F931F93CF93DF93EC01FF246C
:100E2000F39488818D3211F0F12C01C02196CE010E
:100E30000E949E179B01AC01A4E6B0E00E94031C37
:100E4000FE014991242F042E000C330B205331094D
:100E50002A303105A8F34E3241F52181022E000CD3
:100E6000330B205331092A303105F8F44AE0429F10
:100E70008001439F100D1124012E000C220B330B17
:100E8000600F711F821F931F0281002E000C110B37
:100E9000005311090A30110540F4012E000C220BF9
:100EA000330B600F711F821F931FFF2039F0909545
:100EB0008095709561957F4F8F4F9F4FDF91CF91B8
:100EC0001F910F91FF9008951F920F920FB60F92EE
:100ED00011242F933F938F939F93AF93BF93EF93DF
:100EE000FF939091C600903731F0903B21F0903DF8
:100EF00011F0903ED9F42091F4023091F502F901FD
:100F0000E557FF4FA081B1819C93D901A157BF4FF5
:100F10008C918F5F8C938081918101968E179F07B2
:100F200018F0C90189579F4F91838083FF91EF91FA
:100F3000BF91AF919F918F913F912F910F900FBED5
:100F40000F901F9018951F920F920FB60F921124B9
:100F50002F933F934F935F938F939F93EF93FF93C1
:100F60008091F4029091F502FC01EA57FF4F208135
:100F7000222351F132970190F081E02D20813181BF
:100F80008091C10030FF02C0816001C08E7F8093DC
:100F9000C1002093C6002091F4023091F502F901BE
:100FA000EA57FF4F80818150808332978081918101
:100FB0000296A9014E575F4F8417950710F0C9019B
:100FC0000296918380830DC08091C1008F7D8064E3
:100FD0008093C100E091F402F091F502E057FF4FD9
:100FE0001082FF91EF919F918F915F914F913F916F
:100FF0002F910F900FBE0F901F9018951F920F9278
:101000000FB60F9211242F933F938F939F93EF93DB
:10101000FF93E1ECF0E08081877B806980838091A1
:10102000F4029091F5029C0129573F4FFC01E557CE
:10103000FF4F318320833296318320833296108292
:10104000FF91EF919F918F913F912F910F900FBE44
:101050000F901F901895EF92FF920F931F93CF93CD
:10106000DF93CDB7DEB76E970FB6F894DEBF0FBE35
:10107000CDBF8C017A01FC0112828FEF9FEFDC0162
:1010800083839483A583B683138E148E158E168E58
:10109000178E4EE1469FC001479F900D1124B90164
:1010A000680F791F4EE150E0CE0101960E94C517EE
:1010B0008D8DF801858F89818283E114F10451F0CF
:1010C000F70180819181A281B381F80183839483A8
:1010D000A583B683A801495F5F4FFE013296DA010E
:1010E00090E08191811105C0392FF801938F232F52
:1010F0000FC0933119F09F5F8D93F3CF33E1F5CF9C
:101100008331910594F4FA01E80FF91F70832F5F82
:10111000622F631BE1E0F0E0EC0FFD1FE60FF11D15
:101120007589822F90E07111EBCFF801648FFA017D
:10113000E80FF91F10828E8D813021F0823029F462
:1011400080E401C080E2F801868FF801858D84304B
:1011500091F030F4882361F0813079F483E00BC0A2
:10116000883041F0893031F0853039F484E003C0B3
:1011700082E001C085E0F801878F6E960FB6F89483
:10118000DEBF0FBECDBFDF91CF911F910F91FF90BA
:10119000EF9008950C94EB17EF92FF920F931F932B
:1011A000CF93DF93CDB7DEB76E970FB6F894DEBF5F
:1011B0000FBECDBFF090B203F11090C08C0130E2B1
:1011C000E32EECEDF3E0DF018E2D1D928A95E9F719
:1011D00040E250E060E270E08CEF93E00E94731D0B
:1011E0001092B90343E150E063ED71E08EE993E0C2
:1011F0000E948A1D83E08093B2031093B40300938E
:10120000B303EAEBF3E0DF011D92EA94E9F700E0B3
:1012100010E06091B3037091B403600F711F4EE151
:1012200050E0CE0101960E94C517E981EE23B1F08E
:10123000E03220F4F0E0E756FC4FF1A28091B703D2
:101240009091B80301969093B8038093B703025E20
:101250001F4FF394003CB3E01B07D9F60091B7038E
:101260001091B803013CEFE11E0730F4C801880F6C
:10127000991F880F991F02C08FEF9FEF0E94251CB6
:10128000FC0120E030E04FEF5FEFBA01201731079B
:1012900039F041935193619371932F5F3F4FF6CF94
:1012A0008093B5039093B60381E990E00E94251CDA
:1012B00021E9DC011D922A95E9F72BE131E0FC01DF
:1012C000318320839093DB038093DA030E94200410
:1012D00060ED77E080E090E00E9450046E960FB6DB
:1012E000F894DEBF0FBECDBFDF91CF911F910F915C
:1012F000FF90EF90089561157105D1F0019719F4F1
:10130000ECE0F4E002C0ECEFF3E0DB019F01205FD2
:101310003F4F80E040E29D91992321F0811102C06E
:10132000908302C0408381E03196E217F30799F77A
:1013300008952091B5033091B6032115310589F048
:10134000803278F4E82FF0E0E756FC4F81A1F901F4
:1013500094E0899FE00DF11D112440835183628345
:10136000738308954F925F926F927F92AF92BF9274
:10137000CF92DF92EF92FF920F931F93CF93DF9361
:1013800000D000D0CDB7DEB7082FA62E69017A01B4
:10139000AE014F5F5F4FC701B6010E94AF1A2B012C
:1013A0003C0189819A81AB81BC81BC01CD019F77D1
:1013B0000E945B19B62E172F2AE939E949E15FE34C
:1013C000C301B2010E94E31A20E030E543EC57E488
:1013D0000E94E31A9F770E945B193B011170A110D4
:1013E00002C090E001C090E2192B20E030E0A9019A
:1013F000C701B6010E94D818881F8827881F8295C8
:10140000880F880F807C712F782BA3016B2D802F84
:101410000F900F900F900F90DF91CF911F910F9130
:10142000FF90EF90DF90CF90BF90AF907F906F9044
:101430005F904F900C949909CF93DF93CDB7DEB7AF
:10144000E9970FB6F894DEBF0FBECDBF789484B590
:10145000826084BD84B5816084BD85B5826085BDB0
:1014600085B5816085BD80916E00816080936E003E
:101470001092810080918100826080938100809130
:1014800081008160809381008091800081608093E1
:1014900080008091B10084608093B1008091B000A1
:1014A00081608093B00080917A00846080937A009C
:1014B00080917A00826080937A0080917A008E7F9A
:1014C00080937A0080917A00806880937A001092ED
:1014D000C10080E090E00E94E317082F10E0109315
:1014E000E5020093E40281E090E00E94E31790E0BF
:1014F0009093E3028093E2020F3F110521F41092D2
:10150000E5021092E4028F3F910521F41092E3026C
:101510001092E20280918F0290919002892BB9F48F
:101520008CE090E00E94251CFC011382128288EE60
:1015300093E0A0E0B0E084839583A683B7838BE03B
:1015400091E091838083F0939002E0938F02109258
:101550006F001092800081E88093810081E493E025
:101560009093E1018093E00189E19EE19093DF0196
:101570008093DE0162E088E00E94CF03EFE4F1E0B7
:101580008491EBE3F1E09491E7E2F1E0E491EE2362
:10159000B1F1882339F1833091F038F48130A9F02A
:1015A000823001F584B58F7D12C0873091F088308C
:1015B000A1F08430B9F4809180008F7D03C08091C8
:1015C00080008F77809380000DC084B58F7784BDB5
:1015D00009C08091B0008F7703C08091B0008F7DEB
:1015E0008093B000F0E0EE0FFF1FEC5EFE4FA59180
:1015F000B4918FB7F894EC919E2B9C938FBF61E0D0
:1016000089E00E94CF031092DD011092DC0110925C
:10161000DB011092DA011092D9011092D80180E218
:1016200086BB80936F0068EE73E080E090E00E94DC
:10163000500486E780931E0482E380931F04809108
:10164000E4029091E502892B51F48091E20290919D
:10165000E302892B21F488E494E00E94CC08809175
:10166000E4029091E502892B51F48091E20290917D
:10167000E302019721F48CE193E00E94CC08809171
:10168000E4029091E502019751F48091E202909179
:10169000E302892B21F486E892E00E94CC08809135
:1016A000E4029091E502019751F48091E202909159
:1016B000E302019721F48AE591E00E94CC0817E04B
:1016C0008EED93E022E0281B29AF80918F0290914C
:1016D0009002892B09F43DC4EE24E39480918F029B
:1016E00090919002DC01ED91FC910480F581E02D58
:1016F0000995892B09F42DC480918F029091900255
:10170000DC01ED91FC910680F781E02D0995082F11
:1017100080917F0290918002A0918102B09182021B
:101720000196A11DB11D80937F0290938002A0932A
:101730008102B0938202043209F4B4C2E0917902CA
:10174000053234F40A3071F00D3009F0B9C20AC024
:101750000A3241F00C3209F0B3C280916602802750
:1017600080936602EF3008F075C1F0E0E859FD4F54
:10177000108280916702882309F46EC1209168026B
:101780003FEB320F822F022E000C990B363010F4F3
:10179000C79707C02156263018F48755910901C014
:1017A000C097282F2295207F309169024FEB430F7D
:1017B000832F032E000C990B463010F4C79707C0F7
:1017C0003156363018F48755910901C0C097820F01
:1017D0009091660289132BC180918B0290918C02AB
:1017E000A0918D02B0918E020196A11DB11D809332
:1017F0008B0290938C02A0938D02B0938E02809105
:101800007A02882399F08091830290918402A091BA
:101810008502B09186020196A11DB11D80938302BD
:1018200090938402A0938502B0938602D0907702B1
:10183000DD2009F46BC0B1E0DB12D0C080910A0258
:1018400090910B02A0910C02B0910D0280930602C0
:1018500090930702A0930802B09309020E948A04A1
:1018600060930E0270930F02809310029093110206
:10187000D0920502D0920402809118029091190230
:10188000A0911A02B0911B0280931402909315024A
:10189000A0931602B09317020E948A0460931C0260
:1018A00070931D0280931E0290931F02D092130228
:1018B000D092120280917A02882309F48FC0E2EF5D
:1018C000F1E0A4EEB1E0812F01900D928A95E1F74D
:1018D000E9EFF1E0ABEEB1E0812F01900D928A9536
:1018E000E1F70E948A0460930002709301028093E2
:1018F000020290930302D092E301D092E20180E2CF
:1019000092E00E946A068EE292E066C08091180220
:1019100090911902A0911A02B0911B0280931402B7
:1019200090931502A0931602B09317020E948A04A6
:1019300060931C0270931D0280931E0290931F02FD
:10194000E0921302E092120280917A02882321F140
:10195000E2EFF1E0A4EEB1E0812F01900D928A95C3
:10196000E1F7E9EFF1E0ABEEB1E0812F01900D92EC
:101970008A95E1F70E948A04609300027093010245
:101980008093020290930302E092E301E092E2016D
:101990008CE392E00E946A06809154029091550275
:1019A000A0915602B0915702809350029093510239
:1019B000A0935202B09353020E948A0460934C0297
:1019C00070934D0280934E0290934F02E0924B022F
:1019D000E0924A0288E592E00E946A06C0907D0289
:1019E000D0907E02C114D10409F44AC1E0917D0275
:1019F000F0917E0266A177A1D60196968D919C9179
:101A000097970E947A1D892B09F03AC1B601C60149
:101A100040960E94831D0E948A04F60160A371A370
:101A200082A393A3E5A2E4A2C2A4D3A4DBCF8091B6
:101A3000870290918802A0918902B0918A02019652
:101A4000A11DB11D8093870290938802A093890203
:101A5000B0938A0280E015C19091780291114AC03A
:101A600065E271E088E692E00E947A1D892B41F0E0
:101A70006BE271E088E692E00E947A1D892B19F4EE
:101A8000E092770216C061E371E088E692E00E947E
:101A90007A1D892B41F067E371E088E692E00E94AD
:101AA0007A1D892B19F41092770203C0B2E0B0932B
:101AB000770280917B0290917C0290937E028093CA
:101AC0007D02C0907D02D0907E02C114D10411F23B
:101AD000D6019696AD90BC90979768E672E0C501E6
:101AE0000E947A1D97FD02C00C948416F60182A50F
:101AF00093A5E3CFE0917702E23009F491C08091A1
:101B00006802882309F48CC0B0E2EB9FF001112435
:101B1000E92B3197E932F10508F082C0EC5CFF4F08
:101B20000C94FD1B88E692E00E940907609318025E
:101B30007093190280931A0290931B0271C091E076
:101B4000813409F043C043C062EF71E009C091E005
:101B5000833509F090E09093F80162C069EF71E07D
:101B600088E692E00E9481065BC091E0873509F02B
:101B700090E09093FF0154C088E692E00E9409072C
:101B800060932A0270932B0280932C0290932D0273
:101B900047C088E692E00E9409076093380270937C
:101BA000390280933A0290933B023AC088E692E071
:101BB0000E949E1760930A0270930B0280930C029E
:101BC00090930D022DC091E081330CF490E090933E
:101BD0007A0226C088E692E00E949E176093540223
:101BE00070935502809356029093570219C088E66D
:101BF00092E00E94090760936202709363028093EF
:101C00006402909365020CC088E692E00E94090786
:101C10006093460270934702809348029093490272
:101C2000C0907D02D0907E02C114D10409F412CF7D
:101C3000E0917D02F0917E0266A177A1D601969691
:101C40008D919C9197970E947A1D892B09F002CF64
:101C5000F60120A531A58091780290E082179307C4
:101C60000CF4F8CE2817390739F440E150E068E663
:101C700072E0C6010E948A1DF601C2A4D3A4D4CF8B
:101C800081E0909178029F5F9093780210927902A0
:101C900091E00A3209F090E090936702882309F4FA
:101CA0001DCD23C010927902109278021092660224
:101CB000F2E0F09377021092670210927A020ECD52
:101CC000EE3040F481E08E0F80937902F0E0E85925
:101CD000FD4F008380916702811100CD80916602E3
:101CE000F02EF826F0926602F9CC1092E301609192
:101CF000E4017091E50180E090E00E948A196B0197
:101D00007C016091E6017091E7018091E80190917A
:101D1000E9010E948A1928E23BE64EE65EE40E9451
:101D2000E2189B01AC01C701B6010E94FA1720918D
:101D3000EA01DC01CB012111B0588093910290930C
:101D40009202A0939302B09394026091EB01709180
:101D5000EC0180E090E00E948A196B017C016091A7
:101D6000ED017091EE018091EF019091F0010E94E0
:101D70008A1928E23BE64EE65EE40E94E2189B01E7
:101D8000AC01C701B6010E94FA172091F101DC01F4
:101D9000CB012111B0588093950290939602A093A5
:101DA0009702B09398028091E201882389F00E9403
:101DB0008A04C0900002D0900102E0900202F090EC
:101DC0000302DC01CB018C199D09AE09BF0903C0D8
:101DD0008FEF9FEFDC018093B1029093B202A0934A
:101DE000B302B093B4021092210260912602709166
:101DF000270280912802909129020E948C196B0180
:101E00007C0126E53EE04DEE5FE30E94E31A20E010
:101E100030E048EC52E40E94E2180E9454196093AA
:101E2000A1027093A2028093A3029093A4022EEBCE
:101E30003CE443E95FE3C701B6010E94E31A20E0F6
:101E400030E048EC52E40E94E2180E94541960937A
:101E5000A5027093A6028093A7029093A802109205
:101E60003D02609142027091430280914402909140
:101E700045020E948C196B017C0120E030E048ECA7
:101E800052E40E94E2180E945419609399027093E0
:101E90009A0280939B0290939C0228E439EF41E5DB
:101EA00050E4C701B6010E94E31A20E030E048EC9C
:101EB00052E40E94E2180E94541960939D027093AC
:101EC0009E0280939F029093A00210922F02609135
:101ED00034027091350280913602909137020E944F
:101EE0008C1920E030E048EC52E40E94E2180E9495
:101EF00054196093A9027093AA028093AB02909345
:101F0000AC021092590280915E0290915F02A09102
:101F10006002B09161028093AD029093AE02A093F3
:101F2000AF02B093B0028091E2018093B5021092AB
:101F30004B028091500290915102A0915202B091B7
:101F400053028093B6029093B702A093B802B09365
:101F5000B9028091F30281112AC08091B5028823D1
:101F600009F4C1C68091B1029091B202A091B3026E
:101F7000B091B402803D9740A105B1050CF0B3C605
:101F800081E08093F3028091F202811110C00E94DF
:101F90008A04DC01CB0188579C4EAF4FBF4F809322
:101FA000EE029093EF02A093F002B093F1028091C1
:101FB000F3022090E4023090E502882309F4AAC2DB
:101FC000409091025090920260909302709094021F
:101FD0004092EA025092EB026092EC027092ED02A3
:101FE0008090950290909602A0909702B0909802EF
:101FF0008092E6029092E702A092E802B092E90293
:102000002114310401F5A301920160E081E00E94F6
:10201000B209A501940161E082E00E94B2094091F9
:10202000990250919A0260919B0270919C0284E007
:102030000E9499094091A1025091A2026091A302CD
:102040007091A40223C0F1E02F16310411F5A30111
:10205000920160E081E00E94B209A501940161E073
:1020600082E00E94B20940919D0250919E026091CF
:102070009F027091A00284E00E9499094091A502FC
:102080005091A6026091A7027091A80283E00E947D
:1020900099092091E2023091E3023AA329A3213069
:1020A000310509F54091A9025091AA026091AB0255
:1020B0007091AC0286E00E9499094091B60250915D
:1020C000B7026091B8027091B90288E00E94990944
:1020D0004091AD025091AE026091AF027091B0029A
:1020E00089E00E9499098091F20281113DC0C0905F
:1020F000EE02D090EF02E090F002F090F1021C149A
:102100001D041E041F0484F50E948A04C616D70607
:10211000E806F90648F581E08093F2024092DE027B
:102120005092DF026092E0027092E1028092DA0245
:102130009092DB02A092DC02B092DD022114310405
:1021400009F0D4C56091990270919A0280919B0226
:1021500090919C020E948C196093D6027093D702D2
:102160008093D8029093D9028091F202882309F4D7
:10217000A6C129A13AA12130310509F02FC1209132
:10218000DA023091DB024091DC025091DD02609175
:1021900095027091960280919702909198020E9408
:1021A000F91725E33AEF4EE85CE30E94E31A6B016E
:1021B0007C010E94501B69A77AA78BA79CA7C70127
:1021C000B6010E94DD1869A37AA38BA39CA325E323
:1021D0003AEF4EE85CE36091910270919202809137
:1021E0009302909194020E94E31A2B013C0125E393
:1021F0003AEF4EE85CE36091DE027091DF0280917D
:10220000E0029091E1020E94E31A6B017C01C3019C
:10221000B2010E94501B4B015C01C301B2010E943C
:10222000DD186DA37EA38FA398A7C701B6010E94F6
:10223000501B6DA77EA78FA798ABC701B6010E9460
:10224000DD186B017C012DA53EA54FA558A96DA1F8
:102250007EA18FA198A50E94E31A69AB7AAB8BABE4
:102260009CABA7019601C501B4010E94E31A6DABB6
:102270007EAB8FAB98AF29A13AA14BA15CA10E9484
:10228000E31A9B01AC0169A97AA98BA99CA90E94B8
:10229000F9179B01AC010E94E31A2B013C0129A50F
:1022A0003AA54BA55CA5C701B6010E94E31A9B01A4
:1022B000AC010E94E31A9B01AC01C301B2010E9470
:1022C000FA170E945E1B2B013C012DA53EA54FA5D0
:1022D00058A9C501B4010E94E31A4B015C01A70192
:1022E00096016DA17EA18FA198A50E94E31A29A154
:1022F0003AA14BA15CA10E94E31A9B01AC01C5016C
:10230000B4010E94FA179B01AC01C301B2010E9403
:10231000791826E73BE742EC5AE40E94E31A0E9450
:102320005B1931E02316310451F40E948A1928E424
:1023300039EF41E550E40E94E31A0E945B19609373
:10234000D2027093D3028093D4029093D50229A134
:102350003AA14BA15CA169A97AA98BA99CA90E9469
:10236000E31A9B01AC016DA97EA98FA998AD0E94CB
:10237000F9176B017C012DA13EA14FA158A569A5BC
:102380007AA58BA59CA50E94E31AA70196010E943D
:1023900079186B017C0120E030E0A9010E94D81877
:1023A00087FF0AC02BED3FE049EC50E4C701B601BE
:1023B0000E94FA176B017C0121EE3EE245E652E4F1
:1023C000C701B6010E94E31A0E9454196093CE021D
:1023D0007093CF028093D0029093D10221143104E4
:1023E00019F5C090D602D090D702E090D802F090B4
:1023F000D90220E030E0A901C701B6010E94A21A6B
:1024000087FD09C06091990270919A0280919B02A8
:1024100090919C0226C06091990270919A028091DD
:102420009B0290919C022CC02A94232809F057C04B
:10243000C090D602D090D702E090D802F090D90296
:1024400020E030E0A901C701B6010E94A21A87FD71
:102450000FC060919D0270919E0280919F029091A9
:10246000A0020E948C19A70196010E94F9170EC0C4
:1024700060919D0270919E0280919F029091A002B6
:102480000E948C19A70196010E94FA170E94541904
:1024900077FD05C07093CD026093CC0204C010920A
:1024A000CD021092CC024091CC025091CD02052E6B
:1024B000000C660B770B84E00E94990910C0109203
:1024C000D2021092D3021092D4021092D50210922E
:1024D000CE021092CF021092D0021092D1028091BF
:1024E000E2029091E302019709F066C04091D202A6
:1024F0005091D3026091D4027091D50285E00E9480
:1025000099094091CE025091CF026091D002709112
:10251000D1024FC01092EA021092EB021092EC022C
:102520001092ED021092E6021092E7021092E80279
:102530001092E90292E029163104D0F420E030E054
:10254000A90160E081E00E94B20920E030E0A90129
:1025500061E082E00E94B20940E050E0BA0184E00C
:102560000E94990940E050E0BA0183E00E94990975
:102570008091E2029091E3020197F1F440E050E093
:10258000BA0186E00E94990940E050E0BA0188E073
:102590000E94990940E050E0BA0189E00E9499093F
:1025A00040E050E0BA0185E00E94990940E050E027
:1025B000BA0187E00E9499098091DA039091DB03C8
:1025C000DC01ED91FC910480F581E02D0995803EC0
:1025D00051F48091CA029091CB02853091050CF0A4
:1025E00095C001968CC0803751F48091CA029091B9
:1025F000CB02181619060CF089C0019780C0803BE9
:1026000009F084C08091CA029091CB02019791F4A5
:102610001092E5021092E40260E080E090E00E94F7
:10262000CA0886E090E09093CB028093CA0281E0D2
:10263000809300018091CA029091CB020297A1F48D
:1026400081E090E09093E5028093E40261E080E015
:1026500090E00E94CA0886E090E09093CB028093BD
:10266000CA0281E0809300018091CA029091CB025E
:10267000039791F41092E3021092E20260E081E08D
:1026800090E00E94CA0886E090E09093CB0280938D
:10269000CA0281E0809300018091CA029091CB022E
:1026A000049791F481E090E09093E3028093E2023A
:1026B00061E00E94CA0886E090E09093CB0280938C
:1026C000CA0281E0809300018091CA029091CB02FE
:1026D0000597E1F41092E5021092E4021092E302F1
:1026E0001092E20260E080E090E00E94CA086091EF
:1026F000E20281E090E00E94CA0886E090E09093B8
:10270000CB028093CA0281E0809300018091000196
:102710008823B9F1E091CA02F091CB02E730F105CC
:1027200080F5E35AFF4F0C94FD1B6DE371E080E0F0
:1027300090E00E947B096DE471E01DC06BE571E0E3
:102740000BC068E771E008C065E871E005C062E9A8
:1027500071E002C061EA71E080E090E00E947B09D4
:102760006AE671E008C061EB71E080E090E00E94F1
:102770007B0962EC71E081E090E00E947B0910929D
:102780000001C0909903D0909A03E0909B03F090D1
:102790009C03B6E9CB0ED11CE11CF11C0E948A04FB
:1027A0006C157D058E059F0508F493C20E948A046E
:1027B0006093990370939A0380939B0390939C0377
:1027C00080911D04882351F18091DA039091DB03FD
:1027D000DC01ED91FC910280F381E02D40E06EE799
:1027E00009958091DA039091DB03DC01ED91FC9176
:1027F0000280F381E02D41E061E909958091DA03DF
:102800009091DB03DC01ED91FC910280F381E02DDE
:1028100041E061E3099510921D040FC2F0901C0481
:10282000FF2009F44BC0CF2C0F2C000CDD08C60193
:102830000E945B1D892B31F0C6010E94621DF82E9B
:1028400000E001C001E08091DA039091DB03DC013C
:10285000ED91FC910280F381E02D40E06EE7099557
:102860008091DA039091DB03DC01ED91FC91028011
:10287000F381E02D41E062E009958091DA039091C7
:10288000DB03DC01ED91FC910280F381E02D01116D
:1028900002C062E201C063E241E009958091DA037F
:1028A0009091DB03DC01ED91FC910280F381E02D3E
:1028B00041E06F2D099510921C04BFC12091B30314
:1028C0003091B4032115310509F4B7C160919D031E
:1028D00081E0860F80939D03611116C01092DE0384
:1028E0001092E4030091B203802F880F880F880FA5
:1028F0008093E503402F50E06EE973E086EE93E0AD
:102900000E946A1D065F40C160FD34C0669570E09C
:102910008091B7039091B803861797075CF16150D7
:10292000710940E050E0CE0101960E942B08109200
:10293000DE038B818093E4038C8DB8E08B9FC00114
:1029400011249D8D892B8093E50380E02AE0280FD8
:10295000E8E0F0E0EC0FFD1FE80FF11D90819923F6
:1029600039F08F5FE22FF0E0E452FC4F9083EECF1E
:10297000022F0AC180E48093DE03E12CF12C08E0F1
:102980008091B9032091B3033091B403682F70E0B4
:102990004091B5035091B603E4E08E9F400D511D68
:1029A0001124CE0101960E942B088C819D81AE815D
:1029B000BF818F3FFFEF9F07AF07BF0709F4C3C079
:1029C0006B81E02FF0E04E8D31E0300F603160F030
:1029D000E452FC4F242F2F70208322E0200FE32F9E
:1029E000F0E0E452FC4F0AC0232FE452FC4F30E1E8
:1029F000639FB0011124342F3F70632B608368A163
:102A000070E030E04430B9F128F4442369F04130FB
:102A1000D9F095C0483009F466C0493009F480C047
:102A2000453009F08CC042C0482F4F71B7FD02C03D
:102A300080E001C080E8F901E452FC4F842B9F8DB7
:102A4000892B808381E07CC0F901E452FC4F8083B4
:102A5000A9014F5F5F4FE92FEF71B7FD02C080E022
:102A600001C080E8DA01A452BC4F8E2B9F8D892BC8
:102A70008C9382E065C0A90147565C4FFA01ED5B7B
:102A8000FF4F808331969083A9014E5F5F4FEA2FFD
:102A9000EF71B7FD02C080E001C080E8DA01A45206
:102AA000BC4F8E2B9F8D892B8C931BC0A901475641
:102AB0005C4FFA01ED5BFF4F808331969083A90153
:102AC0004E5F5F4F4D01BB2497FCB094AB2CB7FD1C
:102AD00002C080E001C080E8FA01E452FC4F882A7D
:102AE000808283E02DC0A90147565C4FFA01ED5B5F
:102AF000FF4F8083319690833196A083A9014D5F6B
:102B00005F4FEB2FEF71B7FD02C080E001C080E89E
:102B1000DA01A452BC4F8E2B9F8D892B8C930DC054
:102B2000A90147565C4FFA01ED5BFF4F8083319658
:102B300090833196A0833196B08384E001C080E019
:102B4000082F020F02C060E070E08091B9038F5F30
:102B50008093B9032091B7033091B80390E08217B6
:102B6000930714F01092B9038FEFE81AF80AE216EF
:102B7000F30654F4802F90E02AE130E0261B370B57
:102B8000821793070CF4FCCE8EE78093DC038FE270
:102B90008093DD038091DE039EEF900F892B80935D
:102BA000DE0389E08093DF0384EA8093E003809171
:102BB0001E048093E10380911F048093E20310922E
:102BC000E303E02FF0E0AEEDB3E080E099AD9A0FC3
:102BD000901760F49D91892798E087FF03C0880FC4
:102BE000812701C0880F9150C1F7F0CFE452FC4F0C
:102BF00080838091DA039091DB03DC01ED91FC91FD
:102C00000280F381E02D40E06EE70995FF24F39404
:102C10000F1598F08091DA039091DB03DC01ED91C0
:102C2000FC91AF2DB0E0A452BC4F0280F381E02DA7
:102C300041E06C910995F394EBCF8091DA03909188
:102C4000DB03DC01ED91FC910280F381E02D40E09B
:102C50006EEF09958091FC03882331F19CEFE92EFA
:102C600093E0F92E8091DA039091DB03F7016191F3
:102C70007F01DC01ED91FC910280F381E02D41E0C8
:102C80000995BCE1EB16B4E0FB0661F78091DA032D
:102C90009091DB03DC01ED91FC910280F381E02D4A
:102CA00040E06FEF099515C080E2E82EF12C80918D
:102CB000DA039091DB03DC01ED91FC910280F3815A
:102CC000E02D41E060E00995B1E0EB1AF10879F7F9
:102CD000DDCF80E090E0892B11F40C94650B0E940D
:102CE00000000C94650B1092F30261C931E02316C9
:102CF000310409F039CA60919D0270919E02809161
:102D00009F029091A00226CA68E672E0C5010E9467
:102D10007A1D1816190614F00C942A0D10927E02D2
:102D200010927D020C942A0DE2EEF1E010821182E5
:102D300013821282148215821682178210861286DE
:102D4000118613861486158616861786118A108AB0
:102D5000128A138A148A158A168A108E178A118E7F
:102D6000128E138E148E158E12A213A214A215A207
:102D700016A217A210AA11AA12AA13AA14AA15AA77
:102D80001092200210922102109226021092270225
:102D9000109228021092290210922E0210922F02F5
:102DA00010923402109235021092360210923702BD
:102DB00010923C0210923D02109242021092430285
:102DC000109244021092450210924A0210924B0255
:102DD000109250021092510210925202109253021D
:102DE000109258021092590210925E0210925F02E5
:102DF00010926002109261021092660210926702B5
:102E000082E08093770210927802109279021092F9
:102E10007A0210927C0210927B0210927E02109233
:102E20007D0210927F021092800210928102109215
:102E300082021092830210928402109285021092F4
:102E400086021092870210928802109289021092D4
:102E50008A0210928B0210928C0210928D021092B4
:102E60008E02109268021092900210928F021092BD
:102E70009102109292021092930210929402109278
:102E80009502109296021092970210929802109258
:102E9000990210929A0210929B0210929C02109238
:102EA0009D0210929E0210929F021092A002109218
:102EB000A1021092A2021092A3021092A4021092F8
:102EC000A5021092A6021092A7021092A8021092D8
:102ED000AD021092AE021092AF021092B0021092A8
:102EE000B1021092B2021092B3021092B402109288
:102EF000B6021092B7021092B8021092B902E9E934
:102F0000F3E010821182128213821482118E138ECA
:102F1000128E158E148E178E168E10A21092DB0351
:102F20001092DA0310921C0410921D0486E780931D
:102F30001E0482E380931F04158208951F93FC01F1
:102F400099278827BC01E89411911032E9F31930D0
:102F500010F01E30C8F31B3251F01D3249F4689452
:102F600006C00E94CE17610F711D811D911D119128
:102F700010531A30B0F33EF490958095709561959A
:102F80007F4F8F4F9F4F1F910895FB01DC0102C0BF
:102F900005900D9241505040D8F70895592F482F71
:102FA000372F262F660F771F881F991F660F771FF1
:102FB000881F991F620F731F841F951F660F771F4D
:102FC000881F991F0895F999FECF92BD81BDF89A87
:102FD000992780B50895262FF999FECF1FBA92BD83
:102FE00081BD20BD0FB6F894FA9AF99A0FBE0196EA
:102FF00008955058BB27AA270E9411180C94541A00
:103000000E941B1A38F00E94221A20F039F49F3FC8
:1030100019F426F40C94F1190EF4E095E7FB0C94E6
:10302000EB19E92F0E94791A58F3BA176207730750
:103030008407950720F079F4A6F50C949B1A0EF4FA
:10304000E0950B2EBA2FA02D0B01B90190010C01B8
:10305000CA01A0011124FF27591B99F0593F50F4D0
:10306000503E68F11A16F040A22F232F342F442728
:10307000585FF3CF469537952795A795F040539520
:10308000C9F77EF41F16BA0B620B730B840BBAF0F0
:103090009150A1F0FF0FBB1F661F771F881FC2F75B
:1030A0000EC0BA0F621F731F841F48F4879577956F
:1030B0006795B795F7959E3F08F0B0CF9395880F29
:1030C00008F09927EE0F9795879508950E941B1A8F
:1030D00060F080E891E009F49EEF0E94221A28F047
:1030E00040E851E071F45EEF0CC00C94F1190C94BF
:1030F0009B1AE92FE0780E94791A40F3092E052ADD
:10310000B1F3261737074807590738F00E2E07F88E
:10311000E02569F0E025E0640AC0EF6307F8009459
:1031200007FADB01B9019D01DC01CA01AD01EF9392
:103130000E94F9180E94541A0E94A9185F91552301
:1031400039F02BED3FE049E450FD49EC0C94FA17BF
:103150000895DF93DD27B92FBF7740E85FE31616A8
:10316000170648075B0718F4D92F0E94A71A9F93E8
:103170008F937F936F930E949E1BE8ECF0E00E9478
:10318000F4190E94541A2F913F914F915F910E9420
:10319000F61ADD2351F09058A2EA2AED3FE049ECFF
:1031A0005FE3D0785D270E941118DF910C94541AC8
:1031B0000E94C71908F481E008950E942B1AE39534
:1031C0000C94651A0E94F6180C94541A0E94221A44
:1031D00058F00E941B1A40F029F45F3F29F00C942C
:1031E000EB1951110C949C1A0C94F1190E94791A44
:1031F00068F39923B1F3552391F3951B550BBB2726
:10320000AA2762177307840738F09F5F5F4F220F6A
:10321000331F441FAA1FA9F335D00E2E3AF0E0E861
:1032200032D091505040E695001CCAF72BD0FE2FAB
:1032300029D0660F771F881FBB1F2617370748073F
:10324000AB07B0E809F0BB0B802DBF01FF279358F7
:103250005F4F3AF09E3F510578F00C94EB190C94B7
:103260009C1A5F3FE4F3983ED4F386957795679573
:10327000B795F7959F5FC9F7880F911D969587952C
:1032800097F90895E1E0660F771F881FBB1F62174B
:1032900073078407BA0720F0621B730B840BBA0B09
:1032A000EE1F88F7E09508950E945B196894B111AC
:1032B0000C949C1A08950E94811A88F09F5798F0E8
:1032C000B92F9927B751B0F0E1F0660F771F881F2B
:1032D000991F1AF0BA95C9F714C0B13091F00E9445
:1032E0009B1AB1E008950C949B1A672F782F8827BA
:1032F000B85F39F0B93FCCF3869577956795B3956C
:10330000D9F73EF490958095709561957F4F8F4FDA
:103310009F4F0895E89409C097FB3EF490958095DF
:10332000709561957F4F8F4F9F4F9923A9F0F92F8B
:1033300096E9BB279395F695879577956795B79509
:10334000F111F8CFFAF4BB0F11F460FF1BC06F5FEF
:103350007F4F8F4F9F4F16C0882311F096E911C001
:10336000772321F09EE8872F762F05C0662371F022
:1033700096E8862F70E060E02AF09A95660F771F36
:10338000881FDAF7880F9695879597F90895990F12
:103390000008550FAA0BE0E8FEEF16161706E8071F
:1033A000F907C0F012161306E407F50798F0621B40
:1033B000730B840B950B39F40A2661F0232B242B15
:1033C000252B21F408950A2609F4A140A6958FEF34
:1033D000811D811D089597F99F6780E870E060E086
:1033E00008959FEF80EC0895DF93CF931F930F9381
:1033F000FF92EF92DF927B018C01689406C0DA2E77
:10340000EF010E94F61AFE01E894A59125913591ED
:1034100045915591A6F3EF010E941118FE01970105
:10342000A801DA9469F7DF90EF90FF900F911F9158
:10343000CF91DF91089500240A94161617061806F6
:103440000906089500240A941216130614060506A8
:1034500008950C94F1190E94811AD8F3E894E0E0E1
:10346000BB279F57F0F02AED3FE049EC06C0EE0F76
:10347000BB0F661F771F881F28F0B23A62077307D9
:10348000840728F0B25A620B730B840BE3959A956C
:1034900072F7803830F49A95BB0F661F771F881F2C
:1034A000D2F790480C94A41B092E0394000C11F43D
:1034B000882352F0BB0F40F4BF2B11F460FF04C00F
:1034C0006F5F7F4F8F4F9F4F0895EF93E0FF07C0CF
:1034D000A2EA2AED3FE049EC5FEB0E9411180E943E
:1034E000541A0F90039401FC9058E5EFF0E00C940F
:1034F000B71B57FD9058440F551F59F05F3F71F0AF
:103500004795880F97FB991F61F09F3F79F087954A
:103510000895121613061406551FF2CF4695F1DFD3
:1035200008C0161617061806991FF1CF8695710563
:10353000610508940895E894BB2766277727CB0197
:1035400097F908950E94C71908F48FEF08959B0119
:10355000AC0160E070E080E89FE30C94E218FA01AF
:10356000DC01AA0FBB1F9B01AC01BF5728F4222727
:1035700033274427507820C0B75190F4AB2F002454
:10358000469537952795011CA395D2F3002071F03D
:10359000220F331F441FB395DAF30ED00C94F917A2
:1035A00061307105A0E88A07B94630F49B01AC018F
:1035B0006627772788279078309621F020833183FB
:1035C0004283538308950E94F61A0C94541A0E9461
:1035D0001B1A38F00E94221A20F0952311F00C9447
:1035E000EB190C94F11911240C949C1A0E94791A6D
:1035F00070F3959FC1F3950F50E0551F629FF00146
:10360000729FBB27F00DB11D639FAA27F00DB11D5E
:10361000AA1F649F6627B00DA11D661F829F2227E7
:10362000B00DA11D621F739FB00DA11D621F839F6E
:10363000A00D611D221F749F3327A00D611D231F44
:10364000849F600D211D822F762F6A2F11249F5792
:1036500050409AF0F1F088234AF0EE0FFF1FBB1F95
:10366000661F771F881F91505040A9F79E3F510554
:1036700080F00C94EB190C949C1A5F3FE4F3983E95
:10368000D4F3869577956795B795F795E7959F5FFE
:10369000C1F7FE2B880F911D9695879597F9089590
:1036A0009F930E942B1A0F9007FCEE5F0C94651AF3
:1036B00019F416F40C94F1190C94A21B0E94811AAF
:1036C000B8F39923C9F3B6F39F57550B87FF0E94B0
:1036D000B01B0024A0E640EA9001805856959795CB
:1036E00028F4805C660F771F881F20F026173707A5
:1036F000480730F4621B730B840B202931294A2BB5
:10370000A69517940794202531254A2758F7660F68
:10371000771F881F20F026173707480730F4620B01
:10372000730B840B200D311D411DA09581F7B9014C
:10373000842F9158880F9695879508959B01AC0129
:103740000C94E31A9F3F31F0915020F487957795C0
:103750006795B795880F911D9695879597F9089568
:1037600091505040660F771F881FD2F708959F939E
:103770008F937F936F93FF93EF939B01AC010E9414
:10378000E31AEF91FF910E94F4192F913F914F910D
:103790005F910C94E31ADB018F939F930E94031CAB
:1037A000BF91AF91A29F800D911DA39F900DB29FDD
:1037B000900D11240895A1E21A2EAA1BBB1BFD0136
:1037C0000DC0AA1FBB1FEE1FFF1FA217B307E40700
:1037D000F50720F0A21BB30BE40BF50B661F771F58
:1037E000881F991F1A9469F7609570958095909538
:1037F0009B01AC01BD01CF010895EE0FFF1F0590A5
:10380000F491E02D09940E94161CA59F900DB49F81
:10381000900DA49F800D911D11240895B7FF0C9465
:10382000031C0E94031C821B930B0895A29FB001EE
:10383000B39FC001A39F700D811D1124911DB29FE4
:10384000700D811D1124911D0895CF93DF93823057
:10385000910510F482E090E0E0912204F0912304BD
:1038600020E030E0C0E0D0E0309711F1408151819C
:1038700048175907C0F04817590761F482819381AE
:10388000209719F09B838A832BC090932304809305
:10389000220426C02115310519F04217530718F4E8
:1038A0009A01BE01DF01EF010280F381E02DDCCF40
:1038B0002115310509F1281B390B2430310590F40D
:1038C00012968D919C9113976115710521F0FB0162
:1038D0009383828304C09093230480932204FD0188
:1038E000329644C0FD01E20FF31F81939193225061
:1038F00031092D933C933AC020912004309121044A
:10390000232B41F4209103013091040130932104D1
:1039100020932004209101013091020121153105ED
:1039200041F42DB73EB74091050150910601241B8B
:10393000350BE0912004F0912104E217F307A0F485
:103940002E1B3F0B2817390778F0AC014E5F5F4FF5
:103950002417350748F04E0F5F1F50932104409302
:1039600020048193919302C0E0E0F0E0CF01DF9169
:10397000CF9108950F931F93CF93DF93009709F48E
:103980008CC0FC01329713821282009122041091A4
:1039900023040115110581F420813181820F931FC9
:1039A00020912004309121042817390779F5F093EC
:1039B0002104E093200471C0D80140E050E0AE172C
:1039C000BF0750F412962D913C911397AD0121152C
:1039D000310509F1D901F3CF9D01DA013383228347
:1039E00060817181860F971F8217930769F4EC013C
:1039F00028813981260F371F2E5F3F4F3183208367
:103A00008A819B8193838283452B29F4F09323043D
:103A1000E093220442C01396FC93EE931297ED01BB
:103A2000499159919E01240F351FE217F30771F454
:103A300080819181840F951F029611969C938E939D
:103A40008281938113969C938E931297E0E0F0E02D
:103A5000D80112968D919C911397009719F0F80157
:103A60008C01F6CF8D919C9198012E5F3F4F820F74
:103A7000931F20912004309121042817390769F4FD
:103A8000309729F4109223041092220402C013826A
:103A900012821093210400932004DF91CF911F9193
:103AA0000F91089581E090E0F8940C949C1D85FDA1
:103AB0000C94991D806291110C94991D81568A5124
:103AC000D8F708959111089581568A5108F48052CB
:103AD00085580895FB01DC0102C001900D92415010
:103AE0005040D8F70895DC0101C06D93415050401B
:103AF000E0F70895FB01DC018D9101908019011020
:103B0000D9F3990B0895FB01DC0101900D9200207F
:103B1000E1F70895FB01DC014150504048F001906D
:103B20000D920020C9F701C01D9241505040E0F7AE
:0C3B30000895992788270895F894FFCF86
:103B3C0001000024048000000000002C039F02EF11
:103B4C00021103FE0227030000000020046503A2FB
:103B5C0003CC03CB034750524D4300474E524D43C9
:103B6C0000475047474100474E47474100205243CA
:103B7C0054204A65746920546F6F6C7300202020A8
:103B8C004750532053656E736F720020204D65743F
:103B9C0065722026206B6D2F6800202053746F7285
:103BAC00653A20444F574E00202046656574202608
:103BBC00206D70680020204261736963206D6F6412
:103BCC00650020457874656E646564206D6F64656E
:103BDC00002052657365742064656661756C74733E
:103BEC000053657474696E67732073746F726564C7
:103BFC002100205365617263682073656E736F7268
:083C0C00732100475053000032
:00000001FF
