:100000000C9468030C9490030C9490030C9490034C
:100010000C9490030C9490030C9490030C94900314
:100020000C9490030C9490030C94C1080C946B09ED
:100030000C947A080C9490030C9490030C94900305
:100040000C94C8060C9490030C94FE0A0C943D0B7F
:100050000C94980B0C9490030C9490030C949003C4
:100060000C944C070C9490032F22412244224B22E3
:100070005222802287229422A122AD22AD22AD22DB
:10008000AD22AD22AD22AD22AD22AD22AD22AD22F8
:10009000AD22AD22AD22AD22AD22AD22AD22AD22E8
:1000A000AD22AD22AD22AD222F223C22412244229C
:1000B0004B225222592266227322084AD73B3BCE5A
:1000C000016E84BCBFFDC12F3D6C74319ABD568357
:1000D0003DDA3D00C77F11BED9E4BB4C3E916BAA0F
:1000E000AABE000000803F05A84CCDB2D44EB9385E
:1000F00036A9020C50B9918688083CA6AAAA2ABE45
:10010000000000803F07634236B79BD8A71A3968C2
:100110005618AEBAAB558C1D3CB7CC5763BD6DEDD0
:10012000FD753EF6177231BF000000803F080000E9
:1001300000BE922449123EABAAAA2ABECDCCCC4C1A
:100140003E00000080BEABAAAAAA3E00000000BF8D
:10015000000000803F0000000000084178D3BB434E
:1001600087D1133D190E3CC3BD4282AD2B3E68ECD6
:100170008276BED98FE1A93E4C80EFFFBE01C4FF5D
:100180007F3F000000000000014C617469747564D9
:1001900065000000000000000000000000200000DA
:1001A000000000000900024C6F6E67697475646599
:1001B000000000000000000000000020000000001F
:1001C0000000090003537065656400000000000032
:1001D0000000000000000000006D706800000000DA
:1001E00001000452656C2E20416C7469740000009B
:1001F0000000000000000066740000000000010024
:1002000005416C74697475646500000000000000AD
:1002100000000000006674000000000001000656A7
:100220006172696F00000000000000000000000023
:1002300000000066742F7300000008020744697311
:1002400074616E63650000000000000000000000A3
:100250000066742E000000000100084865616469B2
:100260006E6700000000000000000000000000B009
:10027000000000000000010009436F757273650003
:1002800000000000000000000000000000B00000BE
:100290000000000001000A536174656C6C697465AC
:1002A00073000000000000000000002000000000BB
:1002B000000000000B48444F500000000000000008
:1002C000000000000000000000200000000000000E
:1002D00001020C50726573737572650000000000B6
:1002E00000000000000000696E484700000008029E
:1002F0000D54656D70657261747572650000000063
:100300000000000000B046000000000001010E489F
:10031000756D6964697479000000000000000000D8
:1003200000000025724800000000010100000000EC
:1003300000000000000000000000000000000000BD
:1003400000000000000000000000014C61746974AE
:10035000756465000000000000000000000000203F
:100360000000000000000900024C6F6E67697475A0
:100370006465000000000000000000000020000094
:100380000000000009000353706565640000000070
:1003900000000000000000000000006D7068000018
:1003A000000001000452656C2E20416C74697400D9
:1003B0000000000000000000006674000000000063
:1003C000010005416C7469747564650000000000EB
:1003D0000000000000000066740000000000010042
:1003E000000000000000000000000000000000000D
:1003F0000000000000000000000000000000014CB0
:1004000061746974756465000000000000000000FC
:10041000000000200000000000000900024C6F6E88
:10042000676974756465000000000000000000004A
:10043000002000000000000009000353706565649F
:100440000000000000000000000000000000006B41
:100450006D2F6800000001000452656C2E20416C75
:10046000746974000000000000000000006D0000CE
:1004700000000000010005416C746974756465003A
:1004800000000000000000000000006D00000000FF
:100490000000010006566172696F00000000000054
:1004A0000000000000000000006D2F73000000003D
:1004B00008020744697374616E6365000000000000
:1004C000000000000000006D0000000000000100BE
:1004D0000848656164696E67000000000000000064
:1004E0000000000000B0000000000000010009430F
:1004F0006F757273650000000000000000000000CE
:10050000000000B000000000000001000A53617408
:10051000656C6C69746573000000000000000000E9
:10052000002000000000000000000B48444F500075
:10053000000000000000000000000000000000209B
:1005400000000000000001020C50726573737572A8
:10055000650000000000000000000000006850611D
:100560000000000008020D54656D706572617475BD
:100570007265000000000000000000B043000000B1
:10058000000001010E48756D69646974790000000E
:10059000000000000000000000257248000000007C
:1005A0000101000000000000000000000000000049
:1005B000000000000000000000000000000000003B
:1005C000014C6174697475646500000000000000EE
:1005D0000000000000200000000000000900024CA4
:1005E0006F6E6769747564650000000000000000AC
:1005F00000000020000000000000090003537065A7
:100600006564000000000000000000000000000021
:10061000006B6D2F6800000001000452656C2E20F5
:10062000416C746974000000000000000000006D5F
:10063000000000000000010005416C7469747564DD
:10064000650000000000000000000000006D0000D8
:100650000000000001000000000000000000000099
:10066000000000000000000000000000000000008A
:100670000000000000000000240027002A00000005
:100680000000250028002B000000000023002600A9
:100690002900040404040404040402020202020205
:1006A0000303030303030102040810204080010236
:1006B00004081020010204081020000000080002B5
:1006C00001000003040700000000000000005D2C92
:1006D00011241FBECFEFD8E0DEBFCDBF12E0A0E0F7
:1006E000B1E0E0E2FDE602C005900D92A633B1074D
:1006F000D9F725E0A6E3B2E001C01D92AC3DB207F8
:10070000E1F713E0C8E6D3E004C02197FE010E94A0
:10071000D52DC736D107C9F70E9475190C948E36AE
:100720000C940000CF92DF92EF92FF920F931F93F1
:10073000CF93DF936C017A018B01C0E0D0E0CE153E
:10074000DF0589F0D8016D918D01D601ED91FC9105
:100750000190F081E02DC6010995892B11F47E01ED
:1007600002C02196ECCFC701DF91CF911F910F916D
:10077000FF90EF90DF90CF900895833081F028F4C0
:10078000813099F08230A1F008958730A9F0883047
:10079000B9F08430D1F4809180008F7D03C08091C6
:1007A00080008F7780938000089584B58F7702C092
:1007B00084B58F7D84BD08958091B0008F7703C08C
:1007C0008091B0008F7D8093B00008953FB7F8947A
:1007D0008091760390917703A0917803B09179038B
:1007E00026B5A89B05C02F3F19F00196A11DB11D8C
:1007F0003FBFBA2FA92F982F8827820F911DA11DC7
:10080000B11DBC01CD0143E0660F771F881F991F02
:100810004A95D1F7089585ED8093BC008091BC0086
:1008200084FDFCCF1092C203089540914B03262F04
:1008300030E0240F311D21323105DCF42091C20358
:100840002430C9F4FC0180E090E0861758F4309120
:100850004B032191DC01A75DBC4FA30FB11D2C936D
:100860000196F3CF80914B03680F60934B0380E0B8
:10087000089581E0089582E008950895E0917B0352
:1008800080917A03E81730F4F0E0E458FC4F80815F
:1008900090E008958FEF9FEF089590917B038091F2
:1008A0007A03981750F4E92FF0E0E458FC4F2081C8
:1008B00030E09F5F90937B0302C02FEF3FEFC901B1
:1008C000089580917A0390E020917B03821B910927
:1008D0000895CF92DF92EF92FF920F931F93CF93E1
:1008E000DF937C01262F972F8A018091E5038823CF
:1008F00091F0C62FD72F6E01C40ED51ECC15DD0585
:1009000071F06991D701ED91FC910190F081E02D9A
:10091000C7010995F3CF642F822F0E941504C801E7
:10092000DF91CF911F910F91FF90EF90DF90CF90CB
:100930000895CF93DF931F92CDB7DEB769832091DF
:10094000E5032223D1F02091E303203240F021E09F
:1009500030E0FC013383228380E090E015C0809179
:10096000E403E82FF0E0ED53FC4F998190838F5F13
:100970008093E4038093E30305C061E0CE01019618
:100980000E94150481E090E00F90DF91CF910895CF
:1009900050913A0240913902852F90E0242F30E0A7
:1009A000541710F4805B9F4F821B930B0895809126
:1009B0003A02E09139028E1751F0EF5FE03508F00E
:1009C000E0E0F0E0E752FD4F808190E008958FEF86
:1009D0009FEF089580913A0290913902891769F04A
:1009E0009F5F903508F090E0E92FF0E0E752FD4F6F
:1009F00080819093390290E008958FEF9FEF0895E2
:100A0000809138028111FCCF0895809137028F5F69
:100A1000843408F080E0909136029817E1F32FB704
:100A2000F89490913802992341F0E82FF0E0E157D3
:100A3000FD4F6083809337021DC081E080933802B0
:100A40006093D4021092D30282E086BB80916F0043
:100A5000826080936F00809180008F7380688093A4
:100A60008000809184009091850040969093890049
:100A7000809388002FBF81E090E008951F93CF936B
:100A8000DF93F894EC01CA57DF4F2881203400F53A
:100A9000DC01AE57BF4F1C9111965C91119770E02D
:100AA000411103C020E030E002C020E031E0622BC1
:100AB000732BE12FF52F71836083329628812F5F8E
:100AC0002883EA17FB0710F0FC013296ED93FC93A4
:100AD000FC01E057FF4F8081811108C081E08083D5
:100AE0008091C1008F7688628093C1007894DF91F5
:100AF000CF911F910895FC01E157FF4F20812223E0
:100B000001F1F894A0918D02B0918E02A357BF4FCE
:100B10000D90BC91A02D4C912081215020833297C3
:100B2000208131812F5F3F4FBC0165577F4F2617D2
:100B3000370718F09C0129573F4F31832083789461
:100B400001C040E0842F0895089508950E94E9357A
:100B5000CF93DF93282F30E0F901E654F94F8491C9
:100B6000F901EA55F94FD491F901EE56F94FC491C4
:100B7000CC2391F081110E94BD03EC2FF0E0EE0F29
:100B8000FF1FE857F94FA591B491EC91ED2381E057
:100B900090E021F480E002C080E090E0DF91CF910E
:100BA00008951F93CF93DF93282F30E0F901E65487
:100BB000F94F8491F901EA55F94FD491F901EE56B4
:100BC000F94FC491CC23C9F0162F81110E94BD03A7
:100BD000EC2FF0E0EE0FFF1FE258F94FA591B49112
:100BE0008FB7F894111105C09C91ED2FE095E92382
:100BF00002C0EC91ED2BEC938FBFDF91CF911F9151
:100C00000895CF93DF9390E0FC01EA55F94F2491CA
:100C1000FC01EE56F94F8491882361F190E0880F32
:100C2000991FFC01EC58F94FC591D491FC01E25891
:100C3000F94FA591B491611109C09FB7F8948881CB
:100C4000209582238883EC912E230BC0623061F4BF
:100C50009FB7F8943881822F809583238883EC9105
:100C60002E2B2C939FBF06C08FB7F894E8812E2BB4
:100C700028838FBFDF91CF9108951092C0008CE13F
:100C80008093C10086E38093C2001092C50082E386
:100C90008093C40062E080E00E94010662E081E08F
:100CA0000C940106CF93DF93EC010E943D06FE01F8
:100CB000329680E8DF011D928A95E9F7DE01AE5792
:100CC000BF4F1196FC93EE9312961196FC93EE9300
:100CD000EC57FF4F108231961082118212821382DC
:100CE00017961196FC93EE931296ED93FC9338961B
:100CF000108231961082D0938E02C0938D02DF91C4
:100D0000CF9108958F929F92AF92BF92CF92DF9230
:100D1000EF92FF926B017C010E94E6034B015C01A4
:100D2000C114D104E104F104F1F00E94E603DC01F6
:100D3000CB0188199909AA09BB09883E9340A105EE
:100D4000B10570F321E0C21AD108E108F10888EE7C
:100D5000880E83E0981EA11CB11CC114D104E104CB
:100D6000F10419F7DDCFFF90EF90DF90CF90BF90A7
:100D7000AF909F908F9008952FB7F8946091720371
:100D80007091730380917403909175032FBF089540
:100D90001F920F920FB60F9211242F933F938F93B0
:100DA0009F93AF93BF938091720390917303A0912F
:100DB0007403B09175033091710326E0230F2D3732
:100DC00020F40296A11DB11D05C029E8230F03964A
:100DD000A11DB11D2093710380937203909373033F
:100DE000A0937403B0937503809176039091770379
:100DF000A0917803B09179030196A11DB11D809354
:100E0000760390937703A0937803B0937903BF910F
:100E1000AF919F918F913F912F910F900FBE0F90A7
:100E20001F901895CF93CFB7F894809170038111DC
:100E300027C0ECE9F6E08491E0EBF6E09491E82F2E
:100E4000F0E0EE0FFF1FEC58F94FA591B491EC9133
:100E5000E92321F461E08AE00E94D10561E08AE0A3
:100E60000E9401068CB580618CBD8CB580648CBD00
:100E700061E08DE00E94010661E08BE00E940106C6
:100E8000809170038F5F80937003CFBFCF910895DF
:100E900008958CBD9DBD08951F920F920FB60F92BD
:100EA00011242F933F934F935F936F937F938F936F
:100EB0009F93AF93BF93EF93FF938091B900887F87
:100EC000803609F49CC068F5883209F45BC090F460
:100ED000803109F454C038F4882309F4F6C088300E
:100EE00009F44DC0F6C0883109F44CC0803209F4D1
:100EF0005DC0EFC0803409F468C048F4803309F461
:100F000055C0883309F0E5C08093C003D8C0803550
:100F100009F44FC0883509F45DC0883409F0D9C0A0
:100F2000D6C0883909F4C7C0A8F4883709F467C067
:100F300038F4883609F463C0803709F460C0C9C04A
:100F4000883809F4B8C0803909F45FC0803809F0E6
:100F5000C0C05BC0803B09F486C038F4803A09F415
:100F600066C0883A09F47FC0B4C0803C09F4A7C0C9
:100F7000883C09F4A4C0883B09F48AC0AAC08091C7
:100F80009D0310C09091BF038091BE03981770F528
:100F9000E091BF0381E08E0F8093BF03F0E0E25643
:100FA000FC4F80818093BB0085EC86C08093C0039A
:100FB0008EC0E091BF0381E08E0F8093BF038091CC
:100FC000BB00F0E0E256FC4F80839091BF0380911C
:100FD000BE036EC0E091BF0381E08E0F8093BF031C
:100FE0008091BB00F0E0E256FC4F80838091C1030A
:100FF00081116DC081E080939C0384EA61C083E02D
:101000008093C20310926F03CFCF80916F03803221
:1010100008F051C0E0916F0381E08E0F80936F0361
:101020008091BB00F0E0E15BFC4F8083BDCF85EC9D
:101030008093BC001092C20380916F03803230F421
:10104000E0916F03F0E0E15BFC4F108260916F0371
:1010500070E0E0914D03F0914E038FE493E0099529
:1010600010926F0336C084E08093C20310924C0349
:1010700010924B03E0914903F0914A030995809146
:101080004B03811105C081E080934B03109229032B
:10109000E0914C0381E08E0F80934C03F0E0E75D1C
:1010A000FC4F80818093BB0090914C0380914B0357
:1010B000981708F479CF85E88093BC000AC085ECC6
:1010C0008093BC001092C20304C01092C0030E941F
:1010D0000B04FF91EF91BF91AF919F918F917F9101
:1010E0006F915F914F913F912F910F900FBE0F9095
:1010F0001F9018951F920F920FB60F9211242F93E5
:101100008F939F93EF93FF9380916F008B7F8093DA
:101110006F00809181008F7B8093810080913B02E2
:101120002091D80220589091D702893020F49695CA
:10113000922B8F5FFACF9093D70280913A028F5F04
:10114000803508F080E020913902821739F0E82FCD
:10115000F0E0E752FD4F908380933A0210923B02F9
:10116000809181008F7B809381001092D802FF9143
:10117000EF919F918F912F910F900FBE0F901F9025
:1011800018951F920F920FB60F9211242F933F9331
:101190004F935F936F937F938F939F93AF93BF937F
:1011A000EF93FF9380918600909187004091D80241
:1011B00020918100442331F02F7B209381001092F5
:1011C000D80206C020642093810020E82093D80232
:1011D00030913B02311125C041116CC020913C027D
:1011E00030913D02280F391F30938B0020938A00E5
:1011F00024E026BB20916F00246020936F00209193
:101200003E0230913F02820F931F36952795820F41
:10121000931F9093D6028093D50281E080933B0286
:1012200049C04091D5025091D60260913E02709122
:101230003F02DB01A095B0952091D702E091D80242
:10124000841B950BA817B90768F126952E2B460F1E
:10125000571F3F5F861B970B3930A0F32093D702AF
:1012600080916F008B7F80936F0080913A028F5F37
:10127000803508F080E090913902891749F0E82F15
:10128000F0E09091D702E752FD4F908380933A02AD
:10129000809181008F7B809381001092D802109200
:1012A0003B0208C02093D7025093D6024093D50248
:1012B00030933B02FF91EF91BF91AF919F918F913E
:1012C0007F916F915F914F913F912F910F900FBE42
:1012D0000F901F9018951F920F920FB60F92112426
:1012E0002F933F934F935F936F937F938F939F932E
:1012F000EF93FF93809138026091D402209188008F
:101300003091890040913E0250913F029091D3026A
:101310008A30F8F4240F351F893019F0762F717058
:1013200001C071E066958F5F791791F3909180000D
:10133000772311F0906C02C09F73906890938000A7
:1013400030938900209388007093D3026093D40275
:101350004AC090913702E09136029E1319C08A303C
:1013600051F48BE080933802240F351F30938900AD
:10137000209388003AC010923802809180008F73C9
:101380008093800080916F008D7F80936F002DC0CF
:10139000EF5FE43408F0E0E0E0933602F0E0E1577C
:1013A000FD4F90819093D4021092D30290918000CF
:1013B0009F739068909380008A3059F480913E0228
:1013C00090913F02280F391F3093890020938800A5
:1013D00009C0809184009091850040969093890087
:1013E0008093880081E080933802FF91EF919F9174
:1013F0008F917F916F915F914F913F912F910F90BE
:101400000FBE0F901F901895CF93DF93EC018A8544
:101410009B85AC85BD858E839F83A887B9870E94F5
:10142000BC066A837B838C839D8381E08983888368
:10143000DF91CF9108952F923F924F925F926F92DA
:101440007F928F929F92AF92BF92CF92DF92EF9254
:10145000FF920F931F93CF93DF93D82FC92F8B0148
:101460000E94333624E630E040E050E00E94942DA4
:1014700049015A019B01AC0160E876E988E990E0F6
:101480000E94842D6B017C01F80191828082ED2FF6
:10149000FC2F2191822F022E000C990BC0970A97E6
:1014A000C0F32E3239F51F0180E8882E86E9982E88
:1014B00088E9A82EB12C9AE0492E512C612C712C70
:1014C000F101C1911F010C2E000CDD0BE097CA3019
:1014D000D10580F4C501B401A30192010E94942DAD
:1014E00049015A01DE010E94E62DC60ED71EE81EF4
:1014F000F91EE6CFA5E0B0E0A70196010E94DB2D22
:101500006F5F7F4F8F4F9F4F23E030E040E050E010
:101510000E94942DF80122833383448355831682DD
:10152000DF91CF911F910F91FF90EF90DF90CF90BF
:10153000BF90AF909F908F907F906F905F904F90F3
:101540003F902F900895FF920F931F93CF93DF93B7
:10155000EC01FF24F39488818D3211F0F12C01C04D
:101560002196CE010E9433369B01AC01A4E6B0E087
:101570000E94DB2DFE014991242F042E000C330B19
:10158000205331092A303105A8F34E3241F521812B
:10159000022E000C330B205331092A303105F8F4A8
:1015A0004AE0429F8001439F100D1124012E000C40
:1015B000220B330B600F711F821F931F0281002EBD
:1015C000000C110B005311090A30110540F4012ED3
:1015D000000C220B330B600F711F821F931FFF2023
:1015E00039F090958095709561957F4F8F4F9F4F03
:1015F000DF91CF911F910F91FF9008951F920F924D
:101600000FB60F9211242F933F938F939F93AF9315
:10161000BF93EF93FF939091C600903731F0903BCA
:1016200021F0903D11F0903ED9F420918D0230913F
:101630008E02F901E557FF4FA081B1819C93D9013A
:10164000A157BF4F8C918F5F8C93808191810196C0
:101650008E179F0718F0C90189579F4F9183808388
:10166000FF91EF91BF91AF919F918F913F912F91FA
:101670000F900FBE0F901F9018951F920F920FB6EC
:101680000F9211242F933F934F935F938F939F93C8
:10169000EF93FF9380918D0290918E02FC01EA57A7
:1016A000FF4F2081222351F132970190F081E02DEC
:1016B000208131818091C10030FF02C0816001C072
:1016C0008E7F8093C1002093C60020918D023091BF
:1016D0008E02F901EA57FF4F808181508083329753
:1016E000808191810296A9014E575F4F841795071B
:1016F00010F0C9010296918380830DC08091C100D2
:101700008F7D80648093C100E0918D02F0918E0204
:10171000E057FF4F1082FF91EF919F918F915F9162
:101720004F913F912F910F900FBE0F901F901895E2
:101730001F920F920FB60F9211242F933F938F9306
:101740009F93EF93FF93E1ECF0E08081877B8069CA
:10175000808380918D0290918E029C0129573F4F8A
:10176000FC01E557FF4F318320833296318320837C
:1017700032961082FF91EF919F918F913F912F911F
:101780000F900FBE0F901F901895EF92FF920F933E
:101790001F93CF93DF93CDB7DEB76E970FB6F89454
:1017A000DEBF0FBECDBF8C017A01FC0112828FEF2C
:1017B0009FEFDC0183839483A583B683138E148EFD
:1017C000158E168E178E4EE1469FC001479F900DD5
:1017D0001124B901680F791F4EE150E0CE01019646
:1017E0000E945A368D8DF801858F89818283E1149C
:1017F000F10451F0F70180819181A281B381F80158
:1018000083839483A583B683A801495F5F4FFE015C
:101810003296DA0190E08191811105C0392FF801EB
:10182000938F232F0FC0933119F09F5F8D93F3CFC8
:1018300033E1F5CF8331910594F4FA01E80FF91FF4
:1018400070832F5F622F631BE1E0F0E0EC0FFD1F60
:10185000E60FF11D7589822F90E07111EBCFF80131
:10186000648FFA01E80FF91F10828E8D813021F00C
:10187000823029F480E401C080E2F801868FF8010B
:10188000858D843091F030F4882361F0813079F4D3
:1018900083E00BC0883041F0893031F0853039F475
:1018A00084E003C082E001C085E0F801878F6E9676
:1018B0000FB6F894DEBF0FBECDBFDF91CF911F9161
:1018C0000F91FF90EF9008950C948036CF92DF92A5
:1018D000EF92FF92C0904202D0904302E090440207
:1018E000F090450220E030E0A901C701B6010E9456
:1018F0007F32609140027091410287FD17C0072E30
:10190000000C880B990B0E941B31A70196010E94C5
:10191000822F0E94DD30709347026093460277FF6A
:1019200010C010924702109246020BC0072E000C06
:10193000880B990B0E941B31A70196010E94832FEF
:10194000E8CFFF90EF90DF90CF9008959091C20381
:101950009111FCCF91E09093C2039093C1032FEFBC
:101960002093C0031092BF03260F2093BE039093D1
:101970009D0390919D03880F892B80939D038091F7
:101980009C03813061F410929C0380919D038093AD
:10199000BB008091BC0083FDF8CF85EC01C085EED3
:1019A0008093BC008091C2038130E1F38091BF033A
:1019B000861710F46091BF03AEE9B3E02CE733E083
:1019C000F9018E2F821B861718F48D918193F9CF20
:1019D000862F0895813208F080E2682F87E70E9401
:1019E000A60C10927B0380937A030895EF92FF92E6
:1019F0000F931F93CF93DF93CDB7DEB76E970FB6DC
:101A0000F894DEBF0FBECDBFF0900B04F11090C074
:101A10008C0130E2E32EE5E3F4E0DF018E2D1D9230
:101A20008A95E9F740E250E060E270E085E594E0F5
:101A30000E940A361092120443E150E061E372E022
:101A400087EF93E00E94213683E080930B0410938C
:101A50000D0400930C04E3E1F4E0DF011D92EA942D
:101A6000E9F700E010E060910C0470910D04600F44
:101A7000711F4EE150E0CE0101960E945A36E98175
:101A8000EE23B1F0E03220F4F0E0EE50FC4FF1A292
:101A90008091100490911104019690931104809309
:101AA0001004025E1F4FF394003CB3E01B07D9F60D
:101AB0000091100410911104013CEFE11E0730F475
:101AC000C801880F991F880F991F02C08FEF9FEFE1
:101AD0000E94BC34FC0120E030E04FEF5FEFBA0120
:101AE0002017310739F041935193619371932F5F20
:101AF0003F4FF6CF80930E0490930F0481E990E05E
:101B00000E94BC3421E9DC011D922A95E9F72AE202
:101B100031E0FC01318320839093340480933304BB
:101B20000E94520660ED77E080E090E00E9482061D
:101B30006E960FB6F894DEBF0FBECDBFDF91CF918A
:101B40001F910F91FF90EF900895EF92FF920F93E6
:101B50001F93CF93DF9390916D059F3F39F48EBD16
:101B600000000DB407FEFDCF8EB528C0D82F07E0CA
:101B700010E0C0E0EE24E394F12CCC0F60E0809103
:101B80006D050E94D105B701002E01C0660F0A94B1
:101B9000EAF76D2380916B050E94D10561E0809189
:101BA0006D050E94D10580916C050E94A805892BC6
:101BB00009F0C1600150110900F78C2FDF91CF911E
:101BC0001F910F91FF90EF90089591E09093E5039E
:101BD0008093D7051092E4031092E30308952091B7
:101BE000E3039091D705213208F04AC08091C203E7
:101BF0008111FCCF32E03093C20331E03093C10356
:101C00003FEF3093C0031092BF032093BE03A3ECB9
:101C1000B3E04EE953E0FA013E2F341B321718F4BB
:101C20003D913193F9CF10929D0320919D03990F1F
:101C3000922B90939D0390919C03913061F41092AC
:101C40009C0390919D039093BB009091BC0093FDE9
:101C5000F8CF95EC01C095EE9093BC009091C20333
:101C60009230E1F39091C0039F3F79F08091C003DF
:101C7000803241F08091C003803331F084E005C0B0
:101C800081E003C082E001C083E01092E40310927F
:101C9000E3031092E5030895CF93DF93D82FC62F67
:101CA00080916A058F3F91F4809161050E94E50D56
:101CB0006D2F86EE93E00E9499046C2F86EE93E0E0
:101CC0000E949904DF91CF910C94EF0D80916D05E6
:101CD0008F3F21F481E590E00E94490760E0809108
:101CE0006A050E94D1058D2F8F770E94A50D8C2F3C
:101CF0000E94A50D61E080916A050E94D105809146
:101D00006D058F3F21F4DF91CF910C944807DF914F
:101D1000CF910895613208F060E20E94A60C109203
:101D20007B0380937A030895CF93C82F80916A052F
:101D30008F3FB1F4809161050E94E50D6C2F86EE16
:101D400093E00E9499040E94EF0D61E0809161058B
:101D50000E948A0E86EE93E00E944D04C82F20C098
:101D600080916D058F3F21F481E590E00E94490745
:101D700060E080916A050E94D1058C2F80680E94E6
:101D8000A50D80E00E94A50DC82F61E080916A0535
:101D90000E94D10580916D058F3F11F40E94480784
:101DA0008C2FCF910895CF93DF93C82F80916A0530
:101DB0008F3F01F5809161050E94E50D6C2F86EE45
:101DC00093E00E9499040E94EF0D62E0809161050A
:101DD0000E948A0E86EE93E00E944D04C82F86EE84
:101DE00093E00E944D0420E030E03C2FE901C82B35
:101DF000D92B29C080916D058F3F21F481E590E0BA
:101E00000E94490760E080916A050E94D1058C2FED
:101E100080680E94A50D80E00E94A50DC82F80E07B
:101E20000E94A50D2C2F30E0322F2227E901C82B6C
:101E300061E080916A050E94D10580916D058F3F18
:101E400011F40E944807CE01DF91CF9108950E94BE
:101E5000D30E982789279827089510927B03109214
:101E60007A031092E4031092E3031092C20381E01C
:101E70008093C10310929C0361E082E10E94D1052E
:101E800061E083E10E94D105E9EBF0E080818E7F83
:101E9000808380818D7F808380E28093B80085E499
:101EA0008093BC000895EF92FF920F931F93CF93FE
:101EB000DF9390919E059F3F39F48EBD00000DB4D5
:101EC00007FEFDCF8EB528C0D82F07E010E0C0E098
:101ED000EE24E394F12CCC0F60E080919E050E94EB
:101EE000D105B701002E01C0660F0A94EAF76D23F1
:101EF00080919C050E94D10561E080919E050E9421
:101F0000D10580919D050E94A805892B09F0C1602B
:101F10000150110900F78C2FDF91CF911F910F9184
:101F2000FF90EF900895CF93DF93C82F80919B058A
:101F30008F3F01F5809192050E94E50D6C2F86EE92
:101F400093E00E9499040E94EF0D62E08091920557
:101F50000E948A0E86EE93E00E944D04C82F86EE02
:101F600093E00E944D0420E030E03C2FE901C82BB3
:101F7000D92B29C080919E058F3F21F481E590E007
:101F80000E94490760E080919B050E94D1058C2F3B
:101F900080680E94530F80E00E94530FC82F80E09A
:101FA0000E94530F2C2F30E0322F2227E901C82B3B
:101FB00061E080919B050E94D10580919E058F3F35
:101FC00011F40E9448079C2F8D2FDF91CF91089527
:101FD0000F931F93CF93DF931F92CDB7DEB7682F78
:101FE00087E769830E94E50D698186EE93E00E9490
:101FF00099040E94EF0D87E70E94E50D82E090E0D2
:102000000E94EA0C86EE93E00E944D0400E010E08E
:10201000182F86EE93E00E944D04082B192B0E9486
:10202000EF0DC8010F90DF91CF911F910F9108958F
:102030001F93CF93DF931F92CDB7DEB7682F87E74B
:1020400069830E94E50D698186EE93E00E94990400
:102050000E94EF0D87E70E94E50D81E090E00E946D
:10206000EA0C86EE93E00E944D04182F0E94EF0DBB
:10207000812F0F90DF91CF911F9108956115710508
:10208000D1F0019719F4E5E6F4E002C0E5E5F4E0EB
:10209000DB019F01205F3F4F80E040E29D9199234B
:1020A00021F0811102C0908302C0408381E031960B
:1020B000E217F30799F7089520910E0430910F0469
:1020C0002115310589F0803278F4E82FF0E0EE50E8
:1020D000FC4F81A1F90194E0899FE00DF11D1124CD
:1020E000408351836283738308954F925F926F920E
:1020F0007F92AF92BF92CF92DF92EF92FF920F93B7
:102100001F93CF93DF9300D000D0CDB7DEB7082F59
:10211000A62E69017A01AE014F5F5F4FC701B6017C
:102120000E948C322B013C0189819A81AB81BC8158
:10213000BC01CD019F770E94E430B62E172F2AE90B
:1021400039E949E15FE3C301B2010E94C03220E0F6
:1021500030E543EC57E40E94C0329F770E94E430A0
:102160003B011170A11002C090E001C090E2192B58
:1021700020E030E0A901C701B6010E946130881F4C
:102180008827881F8295880F880F807C712F782B75
:10219000A3016B2D802F0F900F900F900F90DF9168
:1021A000CF911F910F91FF90EF90DF90CF90BF9054
:1021B000AF907F906F905F904F900C945C10CF9297
:1021C000DF92EF92FF92CF93C82F80916A058F3FE5
:1021D000C9F5809161050E94E50D6C2F86EE93E0B4
:1021E0000E9499040E94EF0D63E0809161050E94B6
:1021F0008A0E86EE93E00E944D046C01990FEE0862
:10220000FF08FE2CED2CDC2CCC2486EE93E00E9403
:102210004D04AC01990F660B770BC42AD52AE62A28
:10222000F72AFE2CED2CDC2CCC2486EE93E00E94C9
:102230004D04AC01990F660B770BC42AD52AE62A08
:10224000F72A33C080916D058F3F21F481E590E03E
:102250000E94490760E080916A050E94D1058C2F99
:1022600080680E94A50D80E00E94A50DC82ED12C8B
:10227000E12CF12CFE2CED2CDC2CCC2480E00E94F7
:10228000A50DC82AFE2CED2CDC2CCC2480E00E946D
:10229000A50DC82A61E080916A050E94D105809150
:1022A0006D058F3F11F40E944807C701B601CF9119
:1022B000FF90EF90DF90CF900895CF92DF92EF9252
:1022C000FF92CF93C82F80919B058F3FC9F58091D6
:1022D00092050E94E50D6C2F86EE93E00E94990412
:1022E0000E94EF0D63E0809192050E948A0E86EEB7
:1022F00093E00E944D046C01990FEE08FF08FE2C3C
:10230000ED2CDC2CCC2486EE93E00E944D04AC0135
:10231000990F660B770BC42AD52AE62AF72AFE2CDA
:10232000ED2CDC2CCC2486EE93E00E944D04AC0115
:10233000990F660B770BC42AD52AE62AF72A33C0F1
:1023400080919E058F3F21F481E590E00E9449072E
:1023500060E080919B050E94D1058C2F80680E94CF
:10236000530F80E00E94530FC82ED12CE12CF12C8A
:10237000FE2CED2CDC2CCC2480E00E94530FC82ACC
:10238000FE2CED2CDC2CCC2480E00E94530FC82ABC
:1023900061E080919B050E94D10580919E058F3F51
:1023A00011F40E944807C701B601CF91FF90EF904A
:1023B000DF90CF9008958F929F92AF92BF92CF926D
:1023C000DF92EF92FF928AEF0E94DF106115710594
:1023D00020E88207910509F47CC040916E05509178
:1023E0006F054A01A12CB12CC72ED82EE92EFF244F
:1023F000E7FCFA94C818D908EA08FB08DC01CB010D
:1024000037E0B595A795979587953A95D1F7B5019A
:10241000A401440F551F661F771F4C015D01841AEC
:10242000950AA60AB70AA5019401A0917005B0917A
:1024300071050E94E62D4B015C01FBE0B594A79469
:1024400097948794FA95D1F7A7019601C701B60131
:102450000E94842D9B01AC01ACE0559547953795C2
:102460002795AA95D1F7A0917205B09173050E94A6
:10247000E62DDC01CB012EE0B595A79597958795C4
:102480002A95D1F7A5019401280F391F4A1F5B1F18
:10249000209366053093670540936805509369055E
:1024A000A5E0B0E00E94DB2DDC01CB0180589F4FFE
:1024B000AF4FBF4F692F7A2F8B2F992787FD9A95A2
:1024C0000E941B3120E030E048EC52E40E946B3067
:1024D00004C060E070E080EC9FE7FF90EF90DF9039
:1024E000CF90BF90AF909F908F9008952F923F9282
:1024F0004F925F926F927F928F929F92AF92BF9214
:10250000CF92DF92EF92FF920F931F93CF93DF93BF
:10251000CDB7DEB7A2970FB6F894DEBF0FBECDBF22
:102520000E94DB1187EF0E94DF106F837887898715
:102530009A87611571058048910509F4FDC1809164
:10254000660590916705A0916805B09169056C01D9
:102550007D01FF0CCC08DC2C76019C01AD016C2DBB
:102560007C2D8C2D9C2D345F4140510961097109EE
:10257000810991092AA339A349835A836B837C83F8
:102580008D839E8359016A017B018C010E94EE2D8F
:102590002E8B3F8B488F598F6A8F7B8F8C8F9D8FAF
:1025A00080917E058E8F90917F059B87A0917C0501
:1025B000AF8FB0917D05BC87E0917A05E8A3F091DB
:1025C0007B05FD87B0907705A09076051B2D110F38
:1025D000110BC12ED12EE12EF12E012F2AA139A1EE
:1025E00049815A816B817C818D819E810E94EE2D73
:1025F0000CE00E941E2F19012A013B014C01B090F2
:102600007905A09078051B2D110F110BC12ED12E2D
:10261000E12EF12E012F2E893F89488D598D6A8D2B
:102620007B8D8C8D9D8D0E94EE2D08E00E94372FB2
:1026300051016201730184010E94552F70588F4F20
:102640009F4F20907405309075055101C12CD12CFD
:10265000E12CF12C00E010E00E94EE2D01E20E943E
:10266000372F2E873F87488B598B6A8B7B8B8C8BC0
:102670009D8BA0E00E94672F09F463C1AE8C1B857F
:10268000110F110BBB84C12ED12EE12EF12E012F83
:102690002E893F89488D598D6A8D7B8D8C8D9D8DBE
:1026A0000E94EE2D19012A013B014C01AF8C1C85C3
:1026B000110F110BBC84C12ED12EE12EF12E012F52
:1026C0002AA139A149815A816B817C818D819E81AA
:1026D0000E94EE2D01E10E941E2F59016A017B012B
:1026E0008C019101A201B301C4010E94552F19016F
:1026F0002A013B014C014F81588569857A8584E028
:1027000075956795579547958A95D1F780E090E044
:10271000A0E1B0E0841B950BA60BB70B6C017D010B
:10272000FF0CCC08DC2C76019C01AD016C2D7C2DBE
:102730008C2D9C2D0FE10E941E2FF901B42FA52F87
:102740006C837D8389839A8328A19D85990F990B3A
:102750003D85492F592F692F792F892F03E20E9438
:102760001E2F59016A017B018C019101A201B30165
:10277000C4010E94552F59016A017B018C019F0100
:102780004B2F5A2F6C817D8189819A810E945E2F07
:102790004901542E652EB62FA72FF82FE92F03E0FD
:1027A0000E941E2F5401C52CD62CEB2EFA2E0F2F73
:1027B0001E2F0E945E2F59016A017B01782E192F6E
:1027C00003E00E941E2F072D0E945E2F03E00E944F
:1027D0001E2F5401C52CD62CEB2EFA2E0F2F1E2F98
:1027E0000E945E2F02E00E941E2F0F2F0E945E2F7C
:1027F00001E00E941E2F0F2F0E945E2FAE84BF8427
:10280000C888D988EA88FB880C891D890E94492ECE
:102810002B873F8349835A836B837C838D839E837D
:102820000DE00E94372F922E832E742E652E562E89
:10283000472E382E292E3091850520918405932F1F
:10284000990F990BA92CB82CC72CD62CE52CF42C5D
:10285000032D122D492F592F692F792F892F0E946F
:10286000EE2D0E94EE2D09E10E94372F59016A01D9
:102870007B018C012B853F8149815A816B817C8151
:102880008D819E810E94552F19012A013B014C0127
:102890003091830520918205932F990F990BAB847A
:1028A000BF80C980DA80EB80FC800D811E81492FBA
:1028B000592F692F792F892F0E94EE2D03E10E9455
:1028C000372F59016A017B018C019101A201B301EB
:1028D000C4010E94552F08E00E94372F522E632E0C
:1028E000742E852E962EF72FE82FB92F3091810563
:1028F00020918005932F990F990B492F592F692FFC
:10290000792F892F04E00E941E2F59016A017B0153
:102910008C01252D362D472D582D692D7F2F8E2F7B
:102920009B2F0E94552F0E94133120E030E040E899
:102930005BE30E94C03208C060E070E080EC9FE77B
:1029400003C060E070E0CB01A2960FB6F894DEBF42
:102950000FBECDBFDF91CF911F910F91FF90EF90F0
:10296000DF90CF90BF90AF909F908F907F906F90AF
:102970005F904F903F902F9008958F929F92AF92CB
:10298000BF92CF92DF92EF92FF928AEF0E945D1189
:10299000E2E9F5E0458556854A01A12CB12CC72E08
:1029A000D82EE92EFF24E7FCFA94C818D908EA08C3
:1029B000FB08DC01CB0137E0B595A7959795879586
:1029C0003A95D1F7B501A401440F551F661F771F33
:1029D0004C015D01841A950AA60AB70AA501940163
:1029E000A785B0890E94E62D4B015C013BE0B594C0
:1029F000A794979487943A95D1F7A7019601C701B8
:102A0000B6010E94842D9B01AC016CE05595479561
:102A1000379527956A95D1F7A189B2890E94E62D4D
:102A2000DC01CB017EE0B595A795979587957A95C2
:102A3000D1F7A5019401280F391F4A1F5B1F258379
:102A4000368347835087A5E0B0E00E94DB2DDC0190
:102A5000CB0180589F4FAF4FBF4F692F7A2F8B2FDD
:102A6000992787FD9A950E941B3120E030E048ECC1
:102A700052E40E946B30FF90EF90DF90CF90BF90B8
:102A8000AF909F908F9008952F923F924F925F92B8
:102A90006F927F928F929F92AF92BF92CF92DF926E
:102AA000EF92FF920F931F93CF93DF93CDB7DEB7D3
:102AB000A2970FB6F894DEBF0FBECDBF0E94BD1423
:102AC00087EF0E945D116A8F7B8F8C8F9D8F809125
:102AD000970590919805A0919905B0919A056C0180
:102AE0007D01FF0CCC08DC2C76019C01AD016C2D26
:102AF0007C2D8C2D9C2D345F414051096109710959
:102B0000810991092AA339A349835A836B837C8362
:102B10008D839E8359016A017B018C010E94EE2DF9
:102B20002A8B3B8B4C8B5D8B6E8B7F8B888F998F29
:102B30008091AF058E8FE091B005EF83F091AD05E8
:102B4000FF8F8091AE058887E091AB05E8A3F091F7
:102B5000AC05F987B090A805A090A7051B2D110F13
:102B6000110BC12ED12EE12EF12E012F2AA139A158
:102B700049815A816B817C818D819E810E94EE2DDD
:102B80000CE00E941E2F19012A013B014C01B0905C
:102B9000AA05A090A9051B2D110F110BC12ED12E36
:102BA000E12EF12E012F2A893B894C895D896E899E
:102BB0007F89888D998D0E94EE2D08E00E94372F25
:102BC00051016201730184010E94552F70588F4F8B
:102BD0009F4F2090A5053090A6055101C12CD12C06
:102BE000E12CF12C00E010E00E94EE2D01E20E94A9
:102BF000372F2A873B874C875D876E877F87888B37
:102C0000998BA0E00E94672F09F45EC1AE8C1F81F2
:102C1000110F110BBF80C12ED12EE12EF12E012FED
:102C20002A893B894C895D896E897F89888D998D38
:102C30000E94EE2D19012A013B014C01AF8C188531
:102C4000110F110BB884C12ED12EE12EF12E012FC0
:102C50002AA139A149815A816B817C818D819E8114
:102C60000E94EE2D01E10E941E2F59016A017B0195
:102C70008C019101A201B301C4010E94552F1901D9
:102C80002A013B014C014A8D5B8D6C8D7D8D84E06A
:102C900075956795579547958A95D1F780E090E0AF
:102CA000A0E1B0E0841B950BA60BB70B6C017D0176
:102CB000FF0CCC08DC2C76019C01AD016C2D7C2D29
:102CC0008C2D9C2D0FE10E941E2FF901B42FA52FF2
:102CD0006C837D8389839A8328A19985990F990BA9
:102CE0003985492F592F692F792F892F03E20E94A7
:102CF0001E2F59016A017B018C019101A201B301D0
:102D0000C4010E94552F59016A017B018C019F016A
:102D10004B2F5A2F6C817D8189819A810E945E2F71
:102D20004901542E652EB62FA72FF82FE92F03E067
:102D30000E941E2F5401C52CD62CEB2EFA2E0F2FDD
:102D40001E2F0E945E2F59016A017B01782E192FD8
:102D500003E00E941E2F072D0E945E2F03E00E94B9
:102D60001E2F5401C52CD62CEB2EFA2E0F2F1E2F02
:102D70000E945E2F02E00E941E2F0F2F0E945E2FE6
:102D800001E00E941E2F0F2F0E945E2FAA84BB8499
:102D9000CC84DD84EE84FF84088919890E94492E41
:102DA00028873F8349835A836B837C838D839E83EB
:102DB0000DE00E94372F922E832E742E652E562EF4
:102DC000472E382E292E3091B6052091B505932F28
:102DD000990F990BA92CB82CC72CD62CE52CF42CC8
:102DE000032D122D492F592F692F792F892F0E94DA
:102DF000EE2D0E94EE2D09E10E94372F59016A0144
:102E00007B018C0128853F8149815A816B817C81BE
:102E10008D819E810E94552F19012A013B014C0191
:102E20003091B4052091B305932F990F990BA88485
:102E3000BF80C980DA80EB80FC800D811E81492F24
:102E4000592F692F792F892F0E94EE2D03E10E94BF
:102E5000372F59016A017B018C019101A201B30155
:102E6000C4010E94552F08E00E94372F522E632E76
:102E7000742E852E962EF72FE82FB92F3091B2059C
:102E80002091B105932F990F990B492F592F692F35
:102E9000792F892F04E00E941E2F59016A017B01BE
:102EA0008C01252D362D472D582D692D7F2F8E2FE6
:102EB0009B2F0E94552F0E94133120E030E040E804
:102EC0005BE30E94C03203C060E070E0CB01A296D9
:102ED0000FB6F894DEBF0FBECDBFDF91CF911F912B
:102EE0000F91FF90EF90DF90CF90BF90AF909F90A9
:102EF0008F907F906F905F904F903F902F900895AC
:102F000087E70E94E50D64EF86EE93E00E94990446
:102F10006EE286EE93E00E9499040E94EF0D65E058
:102F200070E080E090E00E94820686EF0C94E80F4B
:102F30003F924F925F926F927F928F929F92AF9249
:102F4000BF92CF92DF92EF92FF920F931F93CF9396
:102F5000DF93CDB7DEB728970FB6F894DEBF0FBE6C
:102F6000CDBF0E9480176C01E12CF12C1091C0059F
:102F70001295110F110F107C1C5C87E70E94E50D64
:102F800064EF86EE93E00E949904612F86EE93E051
:102F90000E9499040E94EF0D8091C005811105C027
:102FA00065E070E080E090E012C0813029F468E0D4
:102FB00070E080E090E00BC0823029F46EE070E0B9
:102FC00080E090E004C06AE170E080E090E00E9460
:102FD000820686EF0E94E80F4C01A12CB12CBA2C7E
:102FE000A92C982C882488EF0E941810882A3090E9
:102FF000C0058091D5059091D605A7019601281BA3
:10300000390B41095109A091D305B091D4050E9413
:10301000DB2D6B017C01AFE0F594E794D794C79466
:10302000AA95D1F76091CD057091CE05CB01770FB0
:10303000AA0BBB0BBC01CD01BBE0660F771F881F3D
:10304000991FBA95D1F72091CF053091D00589010C
:10305000330F220B330BA90198012C0D3D1D4E1D82
:103060005F1D0E94B62DC20ED31EE41EF51E20EA7F
:10307000C21A2FE0D20AE108F108A7019601C701A0
:10308000B6010E94842D9B01AC011CE0559547952B
:10309000379527951A95D1F729833A834B835C831B
:1030A0000091C1051091C205A091C505B091C6055A
:1030B000A70196010E94E62D2B013C018DE075943D
:1030C0006794579447948A95D1F7A091C705B0911A
:1030D000C80529813A814B815C810E94E62DBB277E
:1030E00097FDB095AB2F840D951DA61DB71D0296BB
:1030F000A11DB11D32E0B595A795979587953A9595
:10310000D1F79C01AD0130584F4F5F4FA091D105D1
:10311000B091D2050E94DB2D2B013C014FE076944B
:103120006794579447944A95D1F788E090E08319C3
:103130009109A501940104C05695479537952795A7
:103140008A95D2F72D833E834F8358874801110F0C
:10315000AA08BB0852E0880C991CAA1CBB1C5A95F3
:10316000D1F7A091C905B091CA0529813A814B8157
:103170005C810E94E62D9B01AC016BE05595479563
:10318000379527956A95D1F729833A834B835C83DA
:10319000A091C305B091C405A70196010E94E62D38
:1031A000DC01CB017BE0B595A795979587957A953E
:1031B000D1F729813A814B815C81820F931FA41F33
:1031C000B51F880D991DAA1DBB1D032C04C0880FB7
:1031D000991FAA1FBB1F0A94D2F7BC01CD016E5FD5
:1031E0007F4F8F4F9F4F24E030E040E050E00E943F
:1031F000B62D8D819E81AF81B885821B930BA40B68
:10320000B50B9C01AD0180E593ECA0E0B0E0BC0102
:10321000CD0104C096958795779567953A94D2F736
:103220000E94842D97FD0BC0660F771F881F991F82
:10323000A30192010E94942D69017A010AC0A301A1
:1032400092010E94942D69017A01CC0CDD1CEE1CC8
:10325000FF1C9927F7FC9A958F2D7E2D6D2D9B01D4
:10326000AC010E94842D9B01AC01AEEDBBE00E943D
:10327000DB2D4C01BB2497FCB094AB2CA3E4B3EE44
:10328000A70196010E94E92DBB2797FDB095AB2FB2
:10329000880D991DAA1DBB1D8153914FAF4FBF4F84
:1032A00044E0B595A795979587954A95D1F7BC01C8
:1032B000CD016C0D7D1D8E1D9F1D28960FB6F894B7
:1032C000DEBF0FBECDBFDF91CF911F910F91FF9059
:1032D000EF90DF90CF90BF90AF909F908F907F90B6
:1032E0006F905F904F903F900895CF93DF93CDB74D
:1032F000DEB7E9970FB6F894DEBF0FBECDBF789466
:1033000084B5826084BD84B5816084BD85B58260EA
:1033100085BD85B5816085BD80916E00816080939B
:103320006E00109281008091810082608093810004
:103330008091810081608093810080918000816014
:10334000809380008091B10084608093B10080916F
:10335000B00081608093B00080917A008460809397
:103360007A0080917A00826080937A0080917A005E
:103370008E7F80937A0080917A00806880937A00B3
:103380001092C10083E08093C0050E942D0F80ED54
:103390000E941810853511F00C94112B8AEA0E94B6
:1033A000E80F9093C2058093C1058CEA0E94E80F54
:1033B0009093C4058093C3058EEA0E94E80F909312
:1033C000C6058093C50580EB0E94E80F9093D20557
:1033D0008093D10582EB0E94E80F9093D4058093EF
:1033E000D30584EB0E94E80F9093D6058093D50512
:1033F00086EB0E94E80F9093C8058093C70588EB81
:103400000E94E80F9093CA058093C9058AEB0E9439
:10341000E80F9093CC058093CB058CEB0E94E80FCE
:103420009093CE058093CD058EEB0E94E80F90938C
:10343000D0058093CF0581E090E0909303018093C5
:10344000020180E090E0A0E0BFE38093040190934C
:103450000501A0930601B0930701809308019093A2
:103460000901A0930A01B0930B0110920C01109274
:103470000D0110920E0110920F0104C188E80E9404
:10348000270F90936F0580936E058AE80E94270F9F
:1034900090937105809370058CE80E94270F90939C
:1034A0007305809372058EE80E94270F909375052F
:1034B0008093740580E90E94270F9093770580938D
:1034C000760582E90E94270F90937905809378050D
:1034D00084E90E94270F90937B0580937A0586E903
:1034E0000E94270F90937D0580937C0588E90E94B8
:1034F000270F90937F0580937E058AE90E94270F0E
:1035000090938105809380058CE90E94270F90930A
:103510008305809382058EE90E94270F909385058D
:103520008093840581EA0E94940E8093860581EE43
:103530000E94270F909388058093870583EE0E9451
:10354000940E8093890584EE0E94940E182F85EEC8
:103550000E94940E282F2F7030E1139FC001112478
:10356000822B90938B0580938A0586EE0E94940EA1
:10357000182F85EE0E94940E90E004E095958795B3
:103580000A95E1F740E1149F90011124822B932BBF
:1035900090938D0580938C0587EE0E94940E809306
:1035A0008E058DEE80939005809191058F71806AD4
:1035B0008093910580918F05807C80938F0565E0D5
:1035C00082EF0E944C0E90918F05692F677050E238
:1035D000659F90011124892F869586958695877021
:1035E000A8E08A9FB0011124622B732B97FB9927C7
:1035F00090F9692B85EF0E944C0E90919005692FF0
:103600006770B0E26B9F90011124892F8695869593
:1036100086958770E8E08E9FB0011124622B732B92
:103620009295969596959370692B84EF0E944C0E17
:1036300083E090E090930301809302018EEA97E487
:10364000A1E6BFE38093040190930501A0930601D6
:10365000B09307018AE999E9A9E1BEE380930801E3
:1036600090930901A0930A01B0930B0183E090E0CD
:10367000A0E0B0E080930C0190930D01A0930E01A7
:10368000B0930F0180E090E00E9478368F3F29F0E0
:1036900090E090936A028093690281E090E00E943A
:1036A00078368F3F31F091E0811101C090E0909326
:1036B0005A0282E090E00E9478368F3F31F091E02C
:1036C000811101C090E090930101809126059091B5
:1036D0002705892BB9F48CE090E00E94BC34FC01F2
:1036E0001382128288EE93E0A0E0B0E08483958399
:1036F000A683B7838AE191E091838083F0932705C5
:10370000E093260510926F001092800081E880936C
:10371000810081E493E090933F0280933E0289E12F
:103720009EE190933D0280933C0262E088E00E941B
:10373000010661E089E00E94D10561E089E00E9414
:10374000010610923B0210923A0210923902109236
:103750003802109237021092360280E286BB8093C4
:103760006F0068EE73E080E090E00E94820686E7DA
:103770008093770482E3809378048091690290912A
:103780006A02892B41F480915A02811104C080ECB5
:1037900095E00E94F60C8091690290916A02892B53
:1037A00041F480915A02882321F08EEF93E00E9429
:1037B000F60C8091690290916A02019741F4809120
:1037C0005A02811104C08AE493E00E94F60C8091B1
:1037D000690290916A02019741F480915A0288230C
:1037E00021F088E891E00E94F60C12E087E394E073
:1037F000F12FF81BF9AFBAE12B2E312C8091020189
:1038000090910301009709F4FCC38230910509F4FB
:1038100099C08330910509F4E2C0019709F024C2F0
:103820000E9498176093890270938A0280938B029A
:1038300090938C020E9498170E941B3120E836EE6C
:1038400045EC57E40E946B3021E03EED42E45EE33C
:103850000E942D339B01AC0160E070E080E89FE3A3
:103860000E94822F20E03AE24DE257E40E94C032EB
:1038700020E030E048EC52E40E94C0320E94DD308B
:1038800060938502709386028093870290938802EA
:103890000E948017AC0160E070E08091D5059091A6
:1038A000D6059A01AB01281B390B41095109A0919A
:1038B000D305B091D4050E94DB2D6B017C01EFE0B4
:1038C000F594E794D794C794EA95D1F76091CD0524
:1038D0007091CE05CB01770FAA0BBB0BBC01CD01BC
:1038E000FBE0660F771F881F991FFA95D1F720918B
:1038F000CF053091D0054901330FAA08BB08A701B5
:103900009601280D391D4A1D5B1D0E94B62DD70159
:10391000C601820F931FA41FB51F0896A11DB11DDC
:10392000BC01CD01A4E09595879577956795AA95FB
:10393000D1F70E941B3120E030E040E251E40E94C8
:103940006B3040C00E9444150E94DD3060938902B4
:1039500070938A0280938B0290938C020E9444158C
:1039600020E030E048EC52E40E946B3020E030E58B
:103970004DE754E40E946B3021E03EED42E45EE30B
:103980000E942D339B01AC0160E070E080E89FE372
:103990000E94822F20E03AE24DE257E40E94C032BA
:1039A00020E030E048EC52E40E94C0320E94DD305A
:1039B00060938502709386028093870290938802B9
:1039C0000E94BD1420E030E040E251E40E94C03289
:1039D0000E94DD30709384026093830245C10E948F
:1039E00076120E94DD306093890270938A02809380
:1039F0008B0290938C020E94761220E030E048EC1B
:103A000052E40E946B3020E030E54DE754E40E9420
:103A10006B3021E03EED42E45EE30E942D339B01DA
:103A2000AC0160E070E080E89FE30E94822F20E01C
:103A30003AE24DE257E40E94C03220E030E048EC28
:103A400052E40E94C0320E94DD3060938502709380
:103A5000860280938702909388020E94DB1120E007
:103A600030E040E251E40E94C0320E94DD307093A9
:103A70008402609383020E94DB118DEF0E94D30EBB
:103A8000A0E0B0E0811520E89207A105B10509F496
:103A9000DBC08090660590906705A0906805B090A7
:103AA00069053CE2931A31E0A30AB1086EE0880F81
:103AB000991FAA1FBB1F6A95D1F740918A055091A3
:103AC0008B05052E000C660B770BE4E1440F551FA8
:103AD000661F771FEA95D1F76C017D01C41AD50ADC
:103AE000E60AF70AA0918C05B0918D05A501940115
:103AF0000E94E62DC61AD70AE80AF90A40E4D40E55
:103B0000E11CF11CFFE0F594E794D794C794FA9573
:103B1000D1F7A0918E050A2E000CBB0BA5019401D4
:103B20000E94E62D2B013C01AAE0759467945794FE
:103B30004794AA95D1F7A0918905B0E00E94DB2DAA
:103B4000DC01CB010BE0B595A795979587950A9574
:103B5000D1F7BC01CD0170588F4F9F4FA301920147
:103B60000E94842DDC01CB012AE0B595A79597959D
:103B700087952A95D1F79C01AD01405E5F4FA091DA
:103B80008705B09188050E94E62DDC01CB01905E8F
:103B9000AF4FBF4FBC01CD013EE09595879577951E
:103BA00067953A95D1F7A70196010E94842D6B0184
:103BB0007C014FE095958795779567954A95D1F764
:103BC0009B01AC010E94842D9B01AC0167E05595DF
:103BD0004795379527956A95D1F7A0918605B0E06E
:103BE0000E94DB2DDC01CB0174E0B595A79597957C
:103BF00087957A95D1F7A7019601281B390B4A0BB7
:103C00005B0BDA01C90157FF03C080E090E0DC01E3
:103C100081309105A10539E1B30724F080E090E0FF
:103C2000A0E0B9E1BC01CD015CE095958795779561
:103C300067955A95D1F70E941B3120E030E040E8AB
:103C40005AE30E94C03204C060E070E080EC9FE75D
:103C500020E030E040E251E40E94C0320E94DD30BA
:103C6000709382026093810240917F0250918002A2
:103C70005AA349A343315105C1F480918502909123
:103C80008602A0918702B091880280937B02909374
:103C90007C02A0937D02B0937E0210927702109274
:103CA00078021092790210927A020E94BC0640902B
:103CB0007302509074026090750270907602DC017D
:103CC000CB0184199509A609B70987399105A10582
:103CD000B10508F4B9C0C0908502D0908602E0908A
:103CE0008702F090880280916F0290917002A091FB
:103CF0007102B0917202A7019601281B390B4A0B81
:103D00005B0BCA01B9010E941B316DA37EA38FA377
:103D100098A70E94BC064B015C010E94BC06609300
:103D20007302709374028093750290937602C0922E
:103D30006F02D0927002E0927102F0927202C5019D
:103D4000B40164197509860997090E9419319B010C
:103D5000AC0160E070E08AE794E40E946B309B0164
:103D6000AC016DA17EA18FA198A50E94C0320E94D6
:103D7000DD300E941B312B013C01209177023091F4
:103D800078024091790250917A0260910401709119
:103D9000050180910601909107010E94C0324B01FC
:103DA0005C01209108013091090140910A01509174
:103DB0000B01C301B2010E94C0329B01AC01C501DD
:103DC000B4010E94832F60937702709378028093EE
:103DD000790290937A020E94DD30C0900C01D0905D
:103DE0000D01E0900E01F0900F01C616D706E8060F
:103DF000F9063CF4DC01CB018C199D09AE09BF0921
:103E000012C08824992454018C189D08AE08BF085C
:103E1000681579058A059B057CF4DC01CB018C0DC6
:103E20009D1DAE1DBF1D80936B0290936C02A093ED
:103E30006D02B0936E0208C010926B0210926C0279
:103E400010926D0210926E0280918502909186020E
:103E5000A0918702B091880280907B0290907C02B2
:103E6000A0907D02B0907E02BC01CD016819790955
:103E70008A099B0924E630E040E050E00E94B62D1C
:103E8000309347022093460249A15AA1443151057B
:103E9000A4F47A015FEFE51AF50AF0928002E0924D
:103EA0007F0210926B0210926C0210926D021092BF
:103EB0006E02109247021092460280916902909120
:103EC0006A02019709F066C060914602709147024C
:103ED000072E000C880B990B0E941B312FEB3EE044
:103EE0004CE95EE30E946B300E94DD307093470224
:103EF0006093460260916B0270916C0280916D023A
:103F000090916E020E941B312FEB3EE04CE95EE384
:103F10000E946B300E94DD3060936B0270936C02E4
:103F200080936D0290936E026091890270918A0273
:103F300080918B0290918C020E941B312DED38EE06
:103F400041EF5CE30E94C0320E94DD306093890241
:103F500070938A0280938B0290938C02609183020B
:103F600070918402072E000C880B990B0E941B3164
:103F700026E636E646EE5FE30E94C03220E030E0FF
:103F800040EA53E40E94832F0E94DD307093840244
:103F90006093830240916B0250916C0260916D02BC
:103FA00070916E0286E00E945C1040914602509132
:103FB0004702052E000C660B770B84E00E945C1014
:103FC0004091890250918A0260918B0270918C021B
:103FD0008CE00E945C104091830250918402052E77
:103FE000000C660B770B8DE00E945C104091810203
:103FF00050918202052E000C660B770B8EE00E941A
:104000005C108091260590912705892B09F43DC409
:10401000AA24A39447E0942E809126059091270529
:10402000DC01ED91FC910480F581E02D0995892B4F
:1040300009F42BC48091260590912705DC01ED91B0
:10404000FC910680F781E02D0995082F80911605D7
:1040500090911705A0911805B09119050196A11D21
:10406000B11D8093160590931705A0931805B09382
:104070001905043209F4B3C2E0911005053234F495
:104080000A3071F00D3009F0B7C20AC00A3241F0AF
:104090000C3209F0B1C28091FD0480278093FD04A9
:1040A000EF3008F075C1F0E0E150FB4F10828091D5
:1040B000FE04882309F46EC12091FF043FEB320F08
:1040C000822F022E000C990B363010F4C79707C0D0
:1040D0002156263018F48755910901C0C097282F22
:1040E0002295207F309100054FEB430F832F032E45
:1040F000000C990B463010F4C79707C03156363084
:1041000018F48755910901C0C097820F9091FD0462
:1041100089132BC18091220590912305A09124053C
:10412000B09125050196A11DB11D809322059093A4
:104130002305A0932405B0932505809111058823BC
:1041400099F080911A0590911B05A0911C05B091E2
:104150001D050196A11DB11D80931A0590931B05A5
:10416000A0931C05B0931D05F0900E05FF2009F4E7
:104170006BC0B1E0FB12D0C08091A1049091A20469
:10418000A091A304B091A40480939D0490939E04F5
:10419000A0939F04B093A0040E94BC066093A50462
:1041A0007093A6048093A7049093A804F0929C04B3
:1041B000F0929B048091AF049091B004A091B1045F
:1041C000B091B2048093AB049093AC04A093AD047F
:1041D000B093AE040E94BC066093B3047093B40421
:1041E0008093B5049093B604F092AA04F092A904C7
:1041F00080911105882309F48FC0E9E8F4E0ABE76A
:10420000B4E0892D01900D928A95E1F7E0E9F4E0A0
:10421000A2E8B4E0892D01900D928A95E1F70E9401
:10422000BC066093970470939804809399049093CC
:104230009A04F0927A04F092790487EB94E00E9459
:10424000040A85EC94E066C08091AF049091B004BC
:10425000A091B104B091B2048093AB049093AC04EC
:10426000A093AD04B093AE040E94BC066093B30467
:104270007093B4048093B5049093B604A092AA04FA
:10428000A092A90480911105882321F1E9E8F4E0C6
:10429000ABE7B4E0892D01900D928A95E1F7E0E952
:1042A000F4E0A2E8B4E0892D01900D928A95E1F73F
:1042B0000E94BC06609397047093980480939904BD
:1042C00090939A04A0927A04A092790483ED94E0EA
:1042D0000E94040A8091EB049091EC04A091ED04FB
:1042E000B091EE048093E7049093E804A093E9046E
:1042F000B093EA040E94BC066093E3047093E40464
:104300008093E5049093E604A092E204A092E10475
:104310008FEE94E00E94040AE0901405F0901505D9
:10432000E114F10409F449C1E0911405F091150577
:1043300066A177A1D70196968D919C9197970E943F
:104340001136892B09F039C1B701C70140960E9487
:104350001A360E94BC06F70160A371A382A393A33F
:10436000A5A2A4A2E2A4F3A4DBCF80911E059091A4
:104370001F05A0912005B09121050196A11DB11D39
:1043800080931E0590931F05A0932005B0932105EF
:1043900080E014C190910F05911149C06CE571E066
:1043A0008FEF94E00E941136892B41F062E671E0B4
:1043B0008FEF94E00E941136892B19F4A0920E051C
:1043C00015C068E671E08FEF94E00E941136892BEA
:1043D00041F06EE671E08FEF94E00E941136892B78
:1043E00019F410920E0502C010930E05809112056B
:1043F000909113059093150580931405E090140592
:10440000F0901505E114F10419F2D7019696CD90BC
:10441000DC9097976FEF74E0C6010E94113697FD0C
:1044200002C00C944D2CF70182A593A5E3CFE09137
:104430000E05E23009F491C08091FF04882309F44D
:104440008CC0B0E2EB9FF0011124E92B3197E932E7
:10445000F10508F082C0EC5CFF4F0C94D52D8FEF76
:1044600094E00E94A30A6093AF047093B004809319
:10447000B1049093B20471C091E0813409F043C05B
:1044800043C069E874E009C091E0833509F090E029
:1044900090938F0462C060E974E08FEF94E00E9413
:1044A0001B0A5BC091E0873509F090E09093960479
:1044B00054C08FEF94E00E94A30A6093C1047093EC
:1044C000C2048093C3049093C40447C08FEF94E068
:1044D0000E94A30A6093CF047093D0048093D10408
:1044E0009093D2043AC08FEF94E00E9433366093E9
:1044F000A1047093A2048093A3049093A4042DC0FC
:1045000091E081330CF490E09093110526C08FEF79
:1045100094E00E9433366093EB047093EC04809334
:10452000ED049093EE0419C08FEF94E00E94A30A6B
:104530006093F9047093FA048093FB049093FC0455
:104540000CC08FEF94E00E94A30A6093DD04709387
:10455000DE048093DF049093E004E0901405F09073
:104560001505E114F10409F413CFE0911405F0915D
:10457000150566A177A1D70196968D919C91979785
:104580000E941136892B09F003CFF70120A531A530
:1045900080910F0590E0821793070CF4F9CE28174D
:1045A000390739F440E150E06FEF74E0C7010E9431
:1045B0002136F701E2A4F3A4D4CF81E090910F0556
:1045C0009F5F90930F051092100591E00A3209F059
:1045D00090E09093FE04882309F41ECD22C010922F
:1045E000100510920F051092FD0410930E05109205
:1045F000FE041092110510CDEE3040F481E08E0FD4
:1046000080931005F0E0E150FB4F00838091FE04A1
:10461000811102CD8091FD04B02EB826B092FD0428
:10462000FBCC10927A0460917B0470917C0480E052
:1046300090E00E9419316B017C0160917D047091C2
:104640007E0480917F04909180040E94193128E2B9
:104650003BE64EE65EE40E946B309B01AC01C70175
:10466000B6010E94832F20918104DC01CB0121112E
:10467000B0588093280590932905A0932A05B093FC
:104680002B05609182047091830480E090E00E9489
:1046900019316B017C0160918404709185048091D3
:1046A0008604909187040E94193128E23BE64EE689
:1046B0005EE40E946B309B01AC01C701B6010E9411
:1046C000832F20918804DC01CB012111B058809305
:1046D0002C0590932D05A0932E05B0932F05809166
:1046E0007904882389F00E94BC06C0909704D0907A
:1046F0009804E0909904F0909A04DC01CB018C19A5
:104700009D09AE09BF0903C08FEF9FEFDC018093C5
:10471000480590934905A0934A05B0934B05109224
:10472000B8046091BD047091BE048091BF04909163
:10473000C0040E941B316B017C0126E53EE04DEE7A
:104740005FE30E94C03220E030E048EC52E40E9477
:104750006B300E94DD30609338057093390580938B
:104760003A0590933B052EEB3CE443E95FE3C70138
:10477000B6010E94C03220E030E048EC52E40E94D2
:104780006B300E94DD3060933C0570933D05809353
:104790003E0590933F051092D4046091D904709126
:1047A000DA048091DB049091DC040E941B316B01E0
:1047B0007C0120E030E048EC52E40E946B300E9423
:1047C000DD3060933005709331058093320590930E
:1047D000330528E439EF41E550E4C701B6010E94F2
:1047E000C03220E030E048EC52E40E946B300E947E
:1047F000DD306093340570933505809336059093D2
:1048000037051092C6046091CB047091CC0480915E
:10481000CD049091CE040E941B3120E030E048ECA2
:1048200052E40E946B300E94DD306093400570932B
:10483000410580934205909343051092F0048091C6
:10484000F5049091F604A091F704B091F8048093D8
:10485000440590934505A0934605B0934705809184
:10486000790480934C051092E2048091E7049091C2
:10487000E804A091E904B091EA0480934D05909377
:104880004E05A0934F05B0935005809168028111A9
:104890002AC080914C05882309F4F3C7809148050C
:1048A00090914905A0914A05B0914B05803D9740F4
:1048B000A105B1050CF0E5C781E080936802809105
:1048C0006702811110C00E94BC06DC01CB01885731
:1048D0009C4EAF4FBF4F8093630290936402A093AE
:1048E0006502B093660240914D0550914E0560916E
:1048F0004F05709150058AE00E945C10409144057C
:104900005091450560914605709147058BE00E94E6
:104910005C1080916802882309F49FC220912805C9
:104920003091290540912A0550912B0520935F0273
:10493000309360024093610250936202C0902C0554
:10494000D0902D05E0902E05F0902F05C0925B02CF
:10495000D0925C02E0925D02F0925E028091690268
:1049600090916A0260E0892BE9F481E00E94751061
:10497000A701960161E082E00E9475104091300528
:1049800050913105609132057091330585E00E94A8
:104990005C10409138055091390560913A0570914D
:1049A0003B051CC081E00E947510A701960161E0E3
:1049B00082E00E9475104091340550913505609158
:1049C00036057091370585E00E945C1040913C05EA
:1049D00050913D0560913E0570913F0583E00E9436
:1049E0005C10F0905A02FF2059F040914005509120
:1049F0004105609142057091430588E00E945C107A
:104A000080916702811151C080906302909064028E
:104A1000A0906502B0906602181419041A041B04D1
:104A20000CF043C00E94BC0686169706A806B9067D
:104A3000E0F581E08093670280915F0290916002CF
:104A4000A0916102B0916202809356029093570246
:104A5000A0935802B093590280915B0290915C023E
:104A6000A0915D02B0915E02809352029093530236
:104A7000A0935402B09355028091690290916A020A
:104A8000892B09F001C76091300570913105809143
:104A90003205909133050E941B316093420270935E
:104AA00043028093440290934502809167028823D9
:104AB00009F4AAC1FF2009F479C120915202309172
:104AC0005302409154025091550260912C0570910F
:104AD0002D0580912E0590912F050E94822F25E3B0
:104AE0003AEF4EE85CE30E94C0326B017C010E9409
:104AF0007D3369A77AA78BA79CA7C701B6010E943F
:104B0000663069A37AA38BA39CA325E33AEF4EE812
:104B10005CE3609128057091290580912A059091A8
:104B20002B050E94C0322B013C0125E33AEF4EE8F1
:104B30005CE3609156027091570280915802909107
:104B400059020E94C0326B017C01C301B2010E9474
:104B50007D334B015C01C301B2010E9466306DA33D
:104B60007EA38FA398A7C701B6010E947D336DA7CE
:104B70007EA78FA798ABC701B6010E9466306B0174
:104B80007C012DA53EA54FA558A96DA17EA18FA1A1
:104B900098A50E94C03269AB7AAB8BAB9CABA701E6
:104BA0009601C501B4010E94C0326DAB7EAB8FABE4
:104BB00098AF29A13AA14BA15CA10E94C0329B01F0
:104BC000AC0169A97AA98BA99CA90E94822F9B019B
:104BD000AC010E94C0322B013C0129A53AA54BA58E
:104BE0005CA5C701B6010E94C0329B01AC010E94C6
:104BF000C0329B01AC01C301B2010E94832F0E940D
:104C00008B332B013C012DA53EA54FA558A9C5010D
:104C1000B4010E94C0324B015C01A70196016DA155
:104C20007EA18FA198A50E94C03229A13AA14BA1D3
:104C30005CA10E94C0329B01AC01C501B4010E947D
:104C4000832F9B01AC01C301B2010E94023026E711
:104C50003BE742EC5AE40E94C0320E94E4306B0110
:104C60007C0160934E0270934F02809350029093A8
:104C7000510280910101882391F160914602709167
:104C80004702072E000C880B990B0E941B314B0129
:104C90005C01C701B6010E9419316B017C01A501BD
:104CA0009401C501B4010E94C0324B015C01A7010F
:104CB0009601C701B6010E94C0329B01AC01C5013B
:104CC000B4010E94832F0E948B330E94E4306093D2
:104CD0004E0270934F028093500290935102809144
:104CE000690290916A020197D1F460914E0270912D
:104CF0004F0280915002909151020E94193128E494
:104D000039EF41E550E40E94C0320E94E4306093E4
:104D10004E0270934F02809350029093510229A14A
:104D20003AA14BA15CA169A97AA98BA99CA90E946F
:104D3000C0329B01AC016DA97EA98FA998AD0E94DC
:104D4000822F6B017C012DA13EA14FA158A569A521
:104D50007AA58BA59CA50E94C032A70196010E944E
:104D600002306B017C0120E030E0A9010E9461303B
:104D700087FF0AC02BED3FE049EC50E4C701B601C4
:104D80000E94832F6B017C0121EE3EE245E652E456
:104D9000C701B6010E94C0320E94DD3060934A0212
:104DA00070934B0280934C0290934D028091690264
:104DB00090916A02892B29F4E0903005F09031053A
:104DC00004C0E0903405F0903505F0924102E09285
:104DD00040020E94660CA701FF0C660B770B85E072
:104DE0000E945C108091020190910301892BE1F4F3
:104DF0004091460250914702052E000C660B770B3E
:104E000084E00E945C1010C010924E0210924F027B
:104E1000109250021092510210924A0210924B02CC
:104E200010924C0210924D0280915A02882309F48C
:104E300060C040914E0250914F02609150027091BB
:104E4000510287E00E945C1040914A0250914B024F
:104E500060914C0270914D0249C010925F02109215
:104E60006002109261021092620210925B02109234
:104E70005C0210925D0210925E028091020190919C
:104E80000301892B31F440E050E0BA0184E00E9434
:104E90005C1020E030E0A90160E081E00E94751024
:104EA00020E030E0A90161E082E00E94751040E05E
:104EB00050E0BA0185E00E945C1040E050E0BA0189
:104EC00083E00E945C1080915A02882391F040E0B8
:104ED00050E0BA0188E00E945C1040E050E0BA0166
:104EE00087E00E945C1040E050E0BA0189E00E9437
:104EF0005C108091330490913404DC01ED91FC91BD
:104F00000480F581E02D0995803E51F4809148029E
:104F100090914902853091050CF071C001960BC04B
:104F2000803771F480914802909149021816190651
:104F30000CF065C0019790934902809348025CC0D1
:104F4000803B09F05CC08091480290914902833017
:104F5000910521F16CF48130910581F0029709F0FF
:104F60004BC090915A0281E0892780935A0244C035
:104F700084309105D1F0059769F13EC02091690216
:104F800030916A02232B29F490936A02809369027C
:104F900033C010926A02109269022EC090910101F2
:104FA00081E089278093010127C06091690280E038
:104FB00090E00E94640C60915A0281E090E00E94AF
:104FC000640C6091010182E090E00E94640CE0E0DA
:104FD000F0E009956FEF80E090E00E94640C6FEFC5
:104FE00081E090E00E94640C6FEF82E090E00E940C
:104FF000640CE0E0F0E0099581E08093000180918D
:105000000001882309F45AC0809148029091490216
:105010008230910589F12CF4009799F00197D1F035
:105020004BC084309105E1F18CF1059709F044C043
:1050300066E172E080E090E00E943E1065E272E07E
:1050400037C064E771E080E090E00E943E1064E8C1
:1050500071E02EC08091690290916A02892B19F447
:1050600064E971E002C064EA71E080E090E00E94CF
:105070003E1065EB71E01CC080915A02811103C0A3
:1050800062EC71E0F2CF6FEC71E0EFCF8091010143
:10509000811103C06EED71E0E8CF6CEE71E0E5CFF9
:1050A0006AEF71E080E090E00E943E106BE072E0F9
:1050B00081E090E00E943E1010920001C090F20347
:1050C000D090F303E090F403F090F503F6E9CF0EEF
:1050D000D11CE11CF11C0E94BC066C157D058E05DF
:1050E0009F0508F494C20E94BC066093F20370937B
:1050F000F3038093F4039093F5038091760488235F
:1051000051F18091330490913404DC01ED91FC91D4
:105110000280F381E02D40E06EE709958091330431
:1051200090913404DC01ED91FC910280F381E02D3B
:1051300041E061E909958091330490913404DC01E8
:10514000ED91FC910280F381E02D41E061E309954E
:105150001092760410C2F0907504FF2009F44BC041
:10516000CF2C0F2C000CDD08C6010E94F235892BD4
:1051700031F0C6010E94F935F82E00E001C001E0CF
:105180008091330490913404DC01ED91FC91028014
:10519000F381E02D40E06EE7099580913304909112
:1051A0003404DC01ED91FC910280F381E02D41E0BB
:1051B00062E009958091330490913404DC01ED9113
:1051C000FC910280F381E02D011102C062E201C076
:1051D00063E241E009958091330490913404DC014D
:1051E000ED91FC910280F381E02D41E06F2D099556
:1051F00010927504C0C120910C0430910D0421154A
:10520000310509F4B8C16091F60381E0860F8093FF
:10521000F603611116C01092370410923D040091FC
:105220000B04802F880F880F880F80933E04402F37
:1052300050E067EF73E08FE394E00E940136065F71
:1052400040C160FD34C0669570E08091100490917B
:105250001104861797075CF16150710940E050E036
:10526000CE0101960E94C50B109237048B8180936A
:105270003D048C8DB8E08B9FC00111249D8D892B3E
:1052800080933E0480E02AE0280FE8E0F0E0EC0F95
:10529000FD1FE80FF11D9081992339F08F5FE22FF8
:1052A000F0E0EB5CFB4F9083EECF022F0AC180E46D
:1052B00080933704E12CF12C08E0809112042091B6
:1052C0000C0430910D04682F70E040910E04509151
:1052D0000F04E4E08E9F400D511D1124CE01019674
:1052E0000E94C50B8C819D81AE81BF818F3FFFEFF6
:1052F0009F07AF07BF0709F4C4C04B81E02FF0E060
:105300005E8D31E0300F403160F0EB5CFB4F252FBC
:105310002F70208322E0200FE32FF0E0EB5CFB4FA7
:105320000BC0232FEB5CFB4F30E1439FB0011124F6
:10533000352F3F70432F462B408368A170E030E04B
:105340005430B9F128F4552369F05130D9F095C0A3
:10535000583009F466C0593009F480C0553009F05E
:105360008CC042C0482F4F71B7FD02C080E001C021
:1053700080E8F901EB5CFB4F842B9F8D892B8083A8
:1053800081E07CC0F901EB5CFB4F8083A9014F5F9A
:105390005F4FE92FEF71B7FD02C080E001C080E8E8
:1053A000DA01AB5CBB4F8E2B9F8D892B8C9382E0F7
:1053B00065C0A9014E505C4FFA01ED5BFF4F808341
:1053C00031969083A9014E5F5F4FEA2FEF71B7FDD1
:1053D00002C080E001C080E8DA01AB5CBB4F8E2BDD
:1053E0009F8D892B8C931BC0A9014E505C4FFA01F5
:1053F000ED5BFF4F808331969083A9014E5F5F4F35
:105400004D01BB2497FCB094AB2CB7FD02C080E0EB
:1054100001C080E8FA01EB5CFB4F882A808283E0C0
:105420002DC0A9014E505C4FFA01ED5BFF4F808308
:10543000319690833196A083A9014D5F5F4FEB2F8A
:10544000EF71B7FD02C080E001C080E8DA01AB5C1B
:10545000BB4F8E2B9F8D892B8C930DC0A9014E5075
:105460005C4FFA01ED5BFF4F80833196908331965C
:10547000A0833196B08384E001C080E0082F020F42
:1054800002C060E070E0809112048F5F809312048C
:10549000209110043091110490E08217930714F0CA
:1054A000109212044FEFE41AF40AE216F3064CF4D9
:1054B000802F90E09101261B370B821793070CF485
:1054C000FCCE8EE7809335048FE280933604809182
:1054D00037049EEF900F892B8093370489E08093E7
:1054E000380484EA809339048091770480933A04E5
:1054F0008091780480933B0410923C04E02FF0E00C
:10550000A7E3B4E080E027E099AD9A0F901760F42C
:105510009D91892798E087FF03C0880F822701C0EB
:10552000880F9150C1F7F0CFEB5CFB4F80838091E7
:10553000330490913404DC01ED91FC910280F381FD
:10554000E02D40E06EE70995FF24F3940F1598F0E5
:105550008091330490913404DC01ED91FC91AF2DE6
:10556000B0E0AB5CBB4F0280F381E02D41E06C9179
:105570000995F394EBCF8091330490913404DC01CE
:10558000ED91FC910280F381E02D40E06EEF0995F2
:1055900080915504882331F195E5E92E94E0F92EA8
:1055A0008091330490913404F70161917F01DC0113
:1055B000ED91FC910280F381E02D41E00995B5E782
:1055C000EB16B4E0FB0661F780913304909134044C
:1055D000DC01ED91FC910280F381E02D40E06FEF62
:1055E000099515C080E2E82EF12C8091330490914A
:1055F0003404DC01ED91FC910280F381E02D41E067
:1056000060E00995B1E0EB1AF10879F7DDCF80E0B1
:1056100090E0892B11F40C94FE1B0E9400000C9466
:10562000FE1B86E78093920580919B058F3F19F4BE
:105630000E942D0F1CC061E00E94D10561E08091A5
:105640009B050E94010680919E058F3F19F40E94E0
:1056500012070DC061E00E94010661E080919C0587
:105660000E94010660E080919D050E9401068091E4
:105670009B058F3FB1F4809192050E94E50D60ED8E
:1056800086EE93E00E9499040E94EF0D61E0809104
:1056900092050E948A0E86EE93E00E944D04182F18
:1056A0001FC080919E058F3F21F481E590E00E940C
:1056B000490760E080919B050E94D10580ED0E9422
:1056C000530F80E00E94530F182F61E080919B05DB
:1056D0000E94D10580919E058F3F11F40E944807DA
:1056E000183509F08BC088E80E94930F9093A005AD
:1056F00080939F058AE80E94930F9093A205809360
:10570000A1058CE80E94930F9093A4058093A305B4
:105710008EE80E94930F9093A6058093A50580E9DB
:105720000E94930F9093A8058093A70582E90E9499
:10573000930F9093AA058093A90584E90E94930F83
:105740009093AC058093AB0586E90E94930F9093EC
:10575000AE058093AD0588E90E94930F9093B00544
:105760008093AF058AE90E94930F9093B2058093CE
:10577000B1058CE90E94930F9093B4058093B30513
:105780008EE90E94930F9093B6058093B5058091A2
:105790009B058F3F89F4809192050E94E50D64EF8F
:1057A00086EE93E00E9499046FE386EE93E00E94F8
:1057B00099040E94EF0D1EC080919E058F3F21F439
:1057C00081E590E00E94490760E080919B050E947E
:1057D000D10584E70E94530F8FE30E94530F61E0CD
:1057E00080919B050E94D10580919E058F3F11F409
:1057F0000E94480782E090E00C941A1B87E7809390
:10580000610580916A058F3F19F40E942D0F1CC01D
:1058100061E00E94D10561E080916A050E94010665
:1058200080916D058F3F19F40E9412070DC061E051
:105830000E94010661E080916B050E94010660E014
:1058400080916C050E94010680ED0E94940E8036C6
:1058500011F00C94421B66EB80EE0E944C0E6CE241
:1058600071E080E090E00E94820683EF0E94940E37
:1058700080FD02C00C943E1A64E670E080E090E087
:10588000F2CF109268022FC86091340570913505EF
:105890008091360590913705FEC86FEF74E0C60120
:1058A0000E9411361816190614F00C94C821109293
:1058B0001505109214050C94C821E6EEF3E013824E
:1058C000128288EE93E0A0E0B0E084839583A68303
:1058D000B78388E391E091838083E2E9F5E08FEF7D
:1058E0008187828783878487E1E6F5E081878287E5
:1058F00083878487E9E7F4E01082118213821282A1
:1059000014821582168217821086128611861386DB
:105910001486158616861786118A108A128A138AAB
:10592000148A158A168A108E178A118E128E138E7B
:10593000148E158E12A213A214A215A216A217A2DB
:1059400010AA11AA12AA13AA14AA15AA1092B7048F
:105950001092B8041092BD041092BE041092BF04BD
:105960001092C0041092C5041092C6041092CB0489
:105970001092CC041092CD041092CE041092D30455
:105980001092D4041092D9041092DA041092DB041D
:105990001092DC041092E1041092E2041092E704E9
:1059A0001092E8041092E9041092EA041092EF04B5
:1059B0001092F0041092F5041092F6041092F7047D
:1059C0001092F8041092FD041092FE0482E080937D
:1059D0000E0510920F0510921005109211051092ED
:1059E00013051092120510921505109214051092CD
:1059F00016051092170510921805109219051092AD
:105A00001A0510921B0510921C0510921D0510928C
:105A10001E0510921F05109220051092210510926C
:105A2000220510922305109224051092250510924C
:105A3000FF04109227051092260510922805109257
:105A4000290510922A0510922B0510922C05109210
:105A50002D0510922E0510922F05109230051092F0
:105A600031051092320510923305109234051092D0
:105A700035051092360510923705109238051092B0
:105A8000390510923A0510923B0510923C05109290
:105A90003D0510923E0510923F051092440510926C
:105AA0004505109246051092470510924805109240
:105AB000490510924A0510924B0510924D0510921F
:105AC0004E0510924F0510925005E2EFF3E0108260
:105AD0001182128213821482118E138E128E158EF1
