:100000000C9470030C9498030C9498030C9498032C
:100010000C9498030C9498030C9498030C949803F4
:100020000C9498030C9498030C94C9080C947309CD
:100030000C9482080C9498030C9498030C949803E5
:100040000C94D0060C9498030C94060B0C94450B5E
:100050000C94A00B0C9498030C9498030C949803A4
:100060000C9454070C9498033D224F22522259229B
:1000700060228E229522A222AF22BB22BB22BB226B
:10008000BB22BB22BB22BB22BB22BB22BB22BB2288
:10009000BB22BB22BB22BB22BB22BB22BB22BB2278
:1000A000BB22BB22BB22BB223D224A224F2252222C
:1000B00059226022672274228122B128BA28BD28E1
:1000C000C028C328C628C928CC28084AD73B3BCE1D
:1000D000016E84BCBFFDC12F3D6C74319ABD568347
:1000E0003DDA3D00C77F11BED9E4BB4C3E916BAAFF
:1000F000AABE000000803F05A84CCDB2D44EB9384E
:1001000036A9020C50B9918688083CA6AAAA2ABE34
:10011000000000803F07634236B79BD8A71A3968B2
:100120005618AEBAAB558C1D3CB7CC5763BD6DEDC0
:10013000FD753EF6177231BF000000803F080000D9
:1001400000BE922449123EABAAAA2ABECDCCCC4C0A
:100150003E00000080BEABAAAAAA3E00000000BF7D
:10016000000000803F0000000000084178D3BB433E
:1001700087D1133D190E3CC3BD4282AD2B3E68ECC6
:100180008276BED98FE1A93E4C80EFFFBE01C4FF4D
:100190007F3F000000000000014C617469747564C9
:1001A00065000000000000000000000000200000CA
:1001B000000000000900024C6F6E67697475646589
:1001C000000000000000000000000020000000000F
:1001D0000000090003537065656400000000000022
:1001E0000000000000000000006D706800000000CA
:1001F00001000452656C2E20416C7469740000008B
:100200000000000000000066740000000000010013
:1002100005416C746974756465000000000000009D
:100220000000000000667400000000000100065697
:100230006172696F00000000000000000000000013
:1002400000000066742F7300000008020744697301
:1002500074616E6365000000000000000000000093
:100260000066742E000000000100084865616469A2
:100270006E6700000000000000000000000000B0F9
:10028000000000000000010009436F7572736500F3
:1002900000000000000000000000000000B00000AE
:1002A0000000000001000A536174656C6C6974659C
:1002B00073000000000000000000002000000000AB
:1002C000000001000B48444F5000000000000000F7
:1002D00000000000000000000020000000000000FE
:1002E00001020C50726573737572650000000000A6
:1002F00000000000000000696E484700000008028E
:100300000D54656D70657261747572650000000052
:100310000000000000B046000000000001010E488F
:10032000756D6964697479000000000000000000C8
:1003300000000025724800000000010100000000DC
:1003400000000000000000000000000000000000AD
:1003500000000000000000000000014C617469749E
:10036000756465000000000000000000000000202F
:100370000000000000000900024C6F6E6769747590
:100380006465000000000000000000000020000084
:100390000000000009000353706565640000000060
:1003A00000000000000000000000006D7068000008
:1003B000000001000452656C2E20416C74697400C9
:1003C0000000000000000000006674000000000053
:1003D000010005416C7469747564650000000000DB
:1003E0000000000000000066740000000000010032
:1003F00000000000000000000000000000000000FD
:100400000000000000000000000000000000014C9F
:1004100061746974756465000000000000000000EC
:10042000000000200000000000000900024C6F6E78
:10043000676974756465000000000000000000003A
:10044000002000000000000009000353706565648F
:100450000000000000000000000000000000006B31
:100460006D2F6800000001000452656C2E20416C65
:10047000746974000000000000000000006D0000BE
:1004800000000000010005416C746974756465002A
:1004900000000000000000000000006D00000000EF
:1004A0000000010006566172696F00000000000044
:1004B0000000000000000000006D2F73000000002D
:1004C00008020744697374616E63650000000000F0
:1004D000000000000000006D0000000000000100AE
:1004E0000848656164696E67000000000000000054
:1004F0000000000000B000000000000001000943FF
:100500006F757273650000000000000000000000BD
:10051000000000B000000000000001000A536174F8
:10052000656C6C69746573000000000000000000D9
:10053000002000000000000001000B48444F500064
:10054000000000000000000000000000000000208B
:1005500000000000000001020C5072657373757298
:10056000650000000000000000000000006850610D
:100570000000000008020D54656D706572617475AD
:100580007265000000000000000000B043000000A1
:10059000000001010E48756D6964697479000000FE
:1005A000000000000000000000257248000000006C
:1005B0000101000000000000000000000000000039
:1005C000000000000000000000000000000000002B
:1005D000014C6174697475646500000000000000DE
:1005E0000000000000200000000000000900024C94
:1005F0006F6E67697475646500000000000000009C
:100600000000002000000000000009000353706596
:100610006564000000000000000000000000000011
:10062000006B6D2F6800000001000452656C2E20E5
:10063000416C746974000000000000000000006D4F
:10064000000000000000010005416C7469747564CD
:10065000650000000000000000000000006D0000C8
:100660000000000001000000000000000000000089
:10067000000000000000000000000000000000007A
:100680000000000000000000240027002A000000F5
:100690000000250028002B00000000002300260099
:1006A00029000404040404040404020202020202F5
:1006B0000303030303030102040810204080010226
:1006C00004081020010204081020000000080002A5
:1006D0000100000304070000000000000000DA2C05
:1006E00011241FBECFEFD8E0DEBFCDBF12E0A0E0E7
:1006F000B1E0EAE1FEE602C005900D92AE30B1072E
:10070000D9F725E0AEE0B2E001C01D92A53BB207EB
:10071000E1F713E0C0E7D3E004C02197FE010E9497
:10072000522ECF36D107C9F70E947D190C940B3792
:100730000C940000CF92DF92EF92FF920F931F93E1
:10074000CF93DF936C017A018B01C0E0D0E0CE152E
:10075000DF0589F0D8016D918D01D601ED91FC91F5
:100760000190F081E02DC6010995892B11F47E01DD
:1007700002C02196ECCFC701DF91CF911F910F915D
:10078000FF90EF90DF90CF900895833081F028F4B0
:10079000813099F08230A1F008958730A9F0883037
:1007A000B9F08430D1F4809180008F7D03C08091B6
:1007B00080008F7780938000089584B58F7702C082
:1007C00084B58F7D84BD08958091B0008F7703C07C
:1007D0008091B0008F7D8093B00008953FB7F8946A
:1007E00080914F0390915003A0915103B091520317
:1007F00026B5A89B05C02F3F19F00196A11DB11D7C
:100800003FBFBA2FA92F982F8827820F911DA11DB6
:10081000B11DBC01CD0143E0660F771F881F991FF2
:100820004A95D1F7089585ED8093BC008091BC0076
:1008300084FDFCCF10929B03089540912403262F42
:1008400030E0240F311D21323105DCF420919B036F
:100850002430C9F4FC0180E090E0861758F4309110
:1008600024032191DC01AE5FBC4FA30FB11D2C937B
:100870000196F3CF80912403680F6093240380E0F6
:10088000089581E0089582E008950895E091540369
:1008900080915303E81730F4F0E0EB5AFC4F80816D
:1008A00090E008958FEF9FEF089590915403809109
:1008B0005303981750F4E92FF0E0EB5AFC4F2081D6
:1008C00030E09F5F9093540302C02FEF3FEFC901C8
:1008D00008958091530390E020915403821B910965
:1008E0000895CF92DF92EF92FF920F931F93CF93D1
:1008F000DF937C01262F972F8A018091BE038823E6
:1009000091F0C62FD72F6E01C40ED51ECC15DD0574
:1009100071F06991D701ED91FC910190F081E02D8A
:10092000C7010995F3CF642F822F0E941D04C801CF
:10093000DF91CF911F910F91FF90EF90DF90CF90BB
:100940000895CF93DF931F92CDB7DEB769832091CF
:10095000BE032223D1F02091BC03203240F021E0DD
:1009600030E0FC013383228380E090E015C0809169
:10097000BD03E82FF0E0E456FC4F998190838F5F30
:100980008093BD038093BC0305C061E0CE01019656
:100990000E941D0481E090E00F90DF91CF910895B7
:1009A0005091120240911102852F90E0242F30E0E7
:1009B000541710F4805B9F4F821B930B0895809116
:1009C0001202E09111028E1751F0EF5FE03508F04E
:1009D000E0E0F0E0EE54FD4F808190E008958FEF6D
:1009E0009FEF08958091120290911102891769F08A
:1009F0009F5F903508F090E0E92FF0E0EE54FD4F56
:100A000080819093110290E008958FEF9FEF0895F9
:100A1000809110028111FCCF089580910F028F5FA9
:100A2000843408F080E090910E029817E1F32FB71C
:100A3000F89490911002992341F0E82FF0E0E859E2
:100A4000FD4F608380930F021DC081E080931002F0
:100A50006093AD021092AC0282E086BB80916F0081
:100A6000826080936F00809180008F738068809394
:100A70008000809184009091850040969093890039
:100A8000809388002FBF81E090E008951F93CF935B
:100A9000DF93F894EC01CA57DF4F2881203400F52A
:100AA000DC01AE57BF4F1C9111965C91119770E01D
:100AB000411103C020E030E002C020E031E0622BB1
:100AC000732BE12FF52F71836083329628812F5F7E
:100AD0002883EA17FB0710F0FC013296ED93FC9394
:100AE000FC01E057FF4F8081811108C081E08083C5
:100AF0008091C1008F7688628093C1007894DF91E5
:100B0000CF911F910895FC01E157FF4F20812223CF
:100B100001F1F894A0916602B0916702A357BF4F0C
:100B20000D90BC91A02D4C912081215020833297B3
:100B3000208131812F5F3F4FBC0165577F4F2617C2
:100B4000370718F09C0129573F4F31832083789451
:100B500001C040E0842F0895089508950E946636EC
:100B6000CF93DF93282F30E0F901E653F94F8491BA
:100B7000F901EA54F94FD491F901EE55F94FC491B6
:100B8000CC2391F081110E94C503EC2FF0E0EE0F11
:100B9000FF1FE856F94FA591B491EC91ED2381E048
:100BA00090E021F480E002C080E090E0DF91CF91FE
:100BB00008951F93CF93DF93282F30E0F901E65378
:100BC000F94F8491F901EA54F94FD491F901EE55A6
:100BD000F94FC491CC23C9F0162F81110E94C5038F
:100BE000EC2FF0E0EE0FFF1FE257F94FA591B49103
:100BF0008FB7F894111105C09C91ED2FE095E92372
:100C000002C0EC91ED2BEC938FBFDF91CF911F9140
:100C10000895CF93DF9390E0FC01EA54F94F2491BB
:100C2000FC01EE55F94F8491882361F190E0880F23
:100C3000991FFC01EC57F94FC591D491FC01E25783
:100C4000F94FA591B491611109C09FB7F8948881BB
:100C5000209582238883EC912E230BC0623061F4AF
:100C60009FB7F8943881822F809583238883EC91F5
:100C70002E2B2C939FBF06C08FB7F894E8812E2BA4
:100C800028838FBFDF91CF9108951092C0008CE12F
:100C90008093C10086E38093C2001092C50082E376
:100CA0008093C40062E080E00E94090662E081E077
:100CB0000C940906CF93DF93EC010E944506FE01D8
:100CC000329680E8DF011D928A95E9F7DE01AE5782
:100CD000BF4F1196FC93EE9312961196FC93EE93F0
:100CE000EC57FF4F108231961082118212821382CC
:100CF00017961196FC93EE931296ED93FC9338960B
:100D0000108231961082D0936702C0936602DF9101
:100D1000CF9108958F929F92AF92BF92CF92DF9220
:100D2000EF92FF926B017C010E94EE034B015C018C
:100D3000C114D104E104F104F1F00E94EE03DC01DE
:100D4000CB0188199909AA09BB09883E9340A105DE
:100D5000B10570F321E0C21AD108E108F10888EE6C
:100D6000880E83E0981EA11CB11CC114D104E104BB
:100D7000F10419F7DDCFFF90EF90DF90CF90BF9097
:100D8000AF909F908F9008952FB7F89460914B0388
:100D900070914C0380914D0390914E032FBF0895A5
:100DA0001F920F920FB60F9211242F933F938F93A0
:100DB0009F93AF93BF9380914B0390914C03A0916D
:100DC0004D03B0914E0330914A0326E0230F2D3797
:100DD00020F40296A11DB11D05C029E8230F03963A
:100DE000A11DB11D20934A0380934B0390934C03A4
:100DF000A0934D03B0934E0380914F039091500305
:100E0000A0915103B09152030196A11DB11D809391
:100E10004F0390935003A0935103B0935203BF919B
:100E2000AF919F918F913F912F910F900FBE0F9097
:100E30001F901895CF93CFB7F894809149038111F3
:100E400027C0ECEAF6E08491E0ECF6E09491E82F1C
:100E5000F0E0EE0FFF1FEC57F94FA591B491EC9124
:100E6000E92321F461E08AE00E94D90561E08AE08B
:100E70000E9409068CB580618CBD8CB580648CBDE8
:100E800061E08DE00E94090661E08BE00E940906A6
:100E9000809149038F5F80934903CFBFCF9108951D
:100EA00008958CBD9DBD08951F920F920FB60F92AD
:100EB00011242F933F934F935F936F937F938F935F
:100EC0009F93AF93BF93EF93FF938091B900887F77
:100ED000803609F49CC068F5883209F45BC090F450
:100EE000803109F454C038F4882309F4F6C08830FE
:100EF00009F44DC0F6C0883109F44CC0803209F4C1
:100F00005DC0EFC0803409F468C048F4803309F450
:100F100055C0883309F0E5C080939903D8C0803567
:100F200009F44FC0883509F45DC0883409F0D9C090
:100F3000D6C0883909F4C7C0A8F4883709F467C057
:100F400038F4883609F463C0803709F460C0C9C03A
:100F5000883809F4B8C0803909F45FC0803809F0D6
:100F6000C0C05BC0803B09F486C038F4803A09F405
:100F700066C0883A09F47FC0B4C0803C09F4A7C0B9
:100F8000883C09F4A4C0883B09F48AC0AAC08091B7
:100F9000760310C09091980380919703981770F58D
:100FA000E091980381E08E0F80939803F0E0E95878
:100FB000FC4F80818093BB0085EC86C080939903B1
:100FC0008EC0E091980381E08E0F8093980380910A
:100FD000BB00F0E0E958FC4F80839091980380912A
:100FE00097036EC0E091980381E08E0F8093980381
:100FF0008091BB00F0E0E958FC4F808380919A0318
:1010000081116DC081E08093750384EA61C083E043
:1010100080939B0310924803CFCF80914803803286
:1010200008F051C0E091480381E08E0F809348039F
:101030008091BB00F0E0E85DFC4F8083BDCF85EC84
:101040008093BC0010929B0380914803803230F45F
:10105000E0914803F0E0E85DFC4F108260914803A6
:1010600070E0E0912603F091270388E293E0099570
:101070001092480336C084E080939B0310922503AE
:1010800010922403E0912203F091230309958091AB
:101090002403811105C081E0809324031092020390
:1010A000E091250381E08E0F80932503F0E0EE5F51
:1010B000FC4F80818093BB00909125038091240395
:1010C000981708F479CF85E88093BC000AC085ECB6
:1010D0008093BC0010929B0304C0109299030E945D
:1010E0001304FF91EF91BF91AF919F918F917F91E9
:1010F0006F915F914F913F912F910F900FBE0F9085
:101100001F9018951F920F920FB60F9211242F93D4
:101110008F939F93EF93FF9380916F008B7F8093CA
:101120006F00809181008F7B8093810080911302FA
:101130002091B10220589091B002893020F4969508
:10114000922B8F5FFACF9093B002809112028F5F43
:10115000803508F080E020911102821739F0E82FE5
:10116000F0E0EE54FD4F9083809312021092130230
:10117000809181008F7B809381001092B102FF915A
:10118000EF919F918F912F910F900FBE0F901F9015
:1011900018951F920F920FB60F9211242F933F9321
:1011A0004F935F936F937F938F939F93AF93BF936F
:1011B000EF93FF9380918600909187004091B10258
:1011C00020918100442331F02F7B209381001092E5
:1011D000B10206C020642093810020E82093B10270
:1011E00030911302311125C041116CC020911402BD
:1011F00030911502280F391F30938B0020938A00FD
:1012000024E026BB20916F00246020936F00209182
:10121000160230911702820F931F36952795820F81
:10122000931F9093AF028093AE0281E080931302EC
:1012300049C04091AE025091AF0260911602709188
:101240001702DB01A095B0952091B002E091B102A8
:10125000841B950BA817B90768F126952E2B460F0E
:10126000571F3F5F861B970B3930A0F32093B002C6
:1012700080916F008B7F80936F00809112028F5F4F
:10128000803508F080E090911102891749F0E82F2D
:10129000F0E09091B002EE54FD4F908380931202E3
:1012A000809181008F7B809381001092B102109217
:1012B000130208C02093B0025093AF024093AE02D5
:1012C00030931302FF91EF91BF91AF919F918F9156
:1012D0007F916F915F914F913F912F910F900FBE32
:1012E0000F901F9018951F920F920FB60F92112416
:1012F0002F933F934F935F936F937F938F939F931E
:10130000EF93FF93809110026091AD0220918800CD
:101310003091890040911602509117029091AC02D1
:101320008A30F8F4240F351F893019F0762F717048
:1013300001C071E066958F5F791791F390918000FD
:10134000772311F0906C02C09F7390689093800097
:1013500030938900209388007093AC026093AD02B3
:101360004AC090910F02E0910E029E1319C08A307C
:1013700051F48BE080931002240F351F30938900C5
:10138000209388003AC010921002809180008F73E1
:101390008093800080916F008D7F80936F002DC0BF
:1013A000EF5FE43408F0E0E0E0930E02F0E0E8598B
:1013B000FD4F90819093AD021092AC02909180000D
:1013C0009F739068909380008A3059F48091160240
:1013D00090911702280F391F3093890020938800BD
:1013E00009C0809184009091850040969093890077
:1013F0008093880081E080931002FF91EF919F918C
:101400008F917F916F915F914F913F912F910F90AD
:101410000FBE0F901F901895CF93DF93EC018A8534
:101420009B85AC85BD858E839F83A887B9870E94E5
:10143000C4066A837B838C839D8381E08983888350
:10144000DF91CF9108952F923F924F925F926F92CA
:101450007F928F929F92AF92BF92CF92DF92EF9244
:10146000FF920F931F93CF93DF93D82FC92F8B0138
:101470000E94B03624E630E040E050E00E94112E99
:1014800049015A019B01AC0160E876E988E990E0E6
:101490000E94012E6B017C01F80191828082ED2F68
:1014A000FC2F2191822F022E000C990BC0970A97D6
:1014B000C0F32E3239F51F0180E8882E86E9982E78
:1014C00088E9A82EB12C9AE0492E512C612C712C60
:1014D000F101C1911F010C2E000CDD0BE097CA3009
:1014E000D10580F4C501B401A30192010E94112E1F
:1014F00049015A01DE010E94632EC60ED71EE81E66
:10150000F91EE6CFA5E0B0E0A70196010E94582E93
:101510006F5F7F4F8F4F9F4F23E030E040E050E000
:101520000E94112EF801228333834483558316824F
:10153000DF91CF911F910F91FF90EF90DF90CF90AF
:10154000BF90AF909F908F907F906F905F904F90E3
:101550003F902F900895FF920F931F93CF93DF93A7
:10156000EC01FF24F39488818D3211F0F12C01C03D
:101570002196CE010E94B0369B01AC01A4E6B0E0FA
:101580000E94582EFE014991242F042E000C330B8B
:10159000205331092A303105A8F34E3241F521811B
:1015A000022E000C330B205331092A303105F8F498
:1015B0004AE0429F8001439F100D1124012E000C30
:1015C000220B330B600F711F821F931F0281002EAD
:1015D000000C110B005311090A30110540F4012EC3
:1015E000000C220B330B600F711F821F931FFF2013
:1015F00039F090958095709561957F4F8F4F9F4FF3
:10160000DF91CF911F910F91FF9008951F920F923C
:101610000FB60F9211242F933F938F939F93AF9305
:10162000BF93EF93FF939091C600903731F0903BBA
:1016300021F0903D11F0903ED9F420916602309156
:101640006702F901E557FF4FA081B1819C93D90151
:10165000A157BF4F8C918F5F8C93808191810196B0
:101660008E179F0718F0C90189579F4F9183808378
:10167000FF91EF91BF91AF919F918F913F912F91EA
:101680000F900FBE0F901F9018951F920F920FB6DC
:101690000F9211242F933F934F935F938F939F93B8
:1016A000EF93FF938091660290916702FC01EA57E5
:1016B000FF4F2081222351F132970190F081E02DDC
:1016C000208131818091C10030FF02C0816001C062
:1016D0008E7F8093C1002093C600209166023091D6
:1016E0006702F901EA57FF4F80818150808332976A
:1016F000808191810296A9014E575F4F841795070B
:1017000010F0C9010296918380830DC08091C100C1
:101710008F7D80648093C100E0916602F091670242
:10172000E057FF4F1082FF91EF919F918F915F9152
:101730004F913F912F910F900FBE0F901F901895D2
:101740001F920F920FB60F9211242F933F938F93F6
:101750009F93EF93FF93E1ECF0E08081877B8069BA
:10176000808380916602909167029C0129573F4FC8
:10177000FC01E557FF4F318320833296318320836C
:1017800032961082FF91EF919F918F913F912F910F
:101790000F900FBE0F901F901895EF92FF920F932E
:1017A0001F93CF93DF93CDB7DEB76E970FB6F89444
:1017B000DEBF0FBECDBF8C017A01FC0112828FEF1C
:1017C0009FEFDC0183839483A583B683138E148EED
:1017D000158E168E178E4EE1469FC001479F900DC5
:1017E0001124B901680F791F4EE150E0CE01019636
:1017F0000E94D7368D8DF801858F89818283E1140F
:10180000F10451F0F70180819181A281B381F80147
:1018100083839483A583B683A801495F5F4FFE014C
:101820003296DA0190E08191811105C0392FF801DB
:10183000938F232F0FC0933119F09F5F8D93F3CFB8
:1018400033E1F5CF8331910594F4FA01E80FF91FE4
:1018500070832F5F622F631BE1E0F0E0EC0FFD1F50
:10186000E60FF11D7589822F90E07111EBCFF80121
:10187000648FFA01E80FF91F10828E8D813021F0FC
:10188000823029F480E401C080E2F801868FF801FB
:10189000858D843091F030F4882361F0813079F4C3
:1018A00083E00BC0883041F0893031F0853039F465
:1018B00084E003C082E001C085E0F801878F6E9666
:1018C0000FB6F894DEBF0FBECDBFDF91CF911F9151
:1018D0000F91FF90EF9008950C94FD36CF92DF9218
:1018E000EF92FF92C0901A02D0901B02E0901C026F
:1018F000F0901D0220E030E0A901C701B6010E946E
:10190000FC32609118027091190287FD17C0072EF2
:10191000000C880B990B0E949831A70196010E9438
:10192000FF2F0E945A3170931F0260931E0277FFAF
:1019300010C010921F0210921E020BC0072E000C46
:10194000880B990B0E949831A70196010E940030E4
:10195000E8CFFF90EF90DF90CF90089590919B0398
:101960009111FCCF91E090939B0390939A032FEFFA
:101970002093990310929803260F20939703909336
:10198000760390917603880F892B8093760380915C
:101990007503813061F41092750380917603809312
:1019A000BB008091BC0083FDF8CF85EC01C085EEC3
:1019B0008093BC0080919B038130E1F38091980378
:1019C000861710F460919803A7E7B3E025E533E0AC
:1019D000F9018E2F821B861718F48D918193F9CF10
:1019E000862F0895813208F080E2682F87E70E94F1
:1019F000AE0C10925403809353030895EF92FF921C
:101A00000F931F93CF93DF93CDB7DEB76E970FB6CB
:101A1000F894DEBF0FBECDBFF090E403F11090C08C
:101A20008C0130E2E32EEEE0F4E0DF018E2D1D921A
:101A30008A95E9F740E250E060E270E08EE294E0DF
:101A40000E9487361092EB0343E150E06AE072E0B7
:101A500080ED93E00E949E3683E08093E403109330
:101A6000E6030093E503ECEEF3E0DF011D92EA9458
:101A7000E9F700E010E06091E5037091E603600F84
:101A8000711F4EE150E0CE0101960E94D736E981E8
:101A9000EE23B1F0E03220F4F0E0E553FC4FF1A288
:101AA0008091E9039091EA0301969093EA03809371
:101AB000E903025E1F4FF394003CB3E01B07D9F625
:101AC0000091E9031091EA03013CEFE11E0730F4B5
:101AD000C801880F991F880F991F02C08FEF9FEFD1
:101AE0000E943935FC0120E030E04FEF5FEFBA0192
:101AF0002017310739F041935193619371932F5F10
:101B00003F4FF6CF8093E7039093E80381E990E09D
:101B10000E94393521E9DC011D922A95E9F72BE273
:101B200031E0FC013183208390930D0480930C04F9
:101B30000E945A0660ED77E080E090E00E948A06FD
:101B40006E960FB6F894DEBF0FBECDBFDF91CF917A
:101B50001F910F91FF90EF900895EF92FF920F93D6
:101B60001F93CF93DF93909146059F3F39F48EBD2D
:101B700000000DB407FEFDCF8EB528C0D82F07E0BA
:101B800010E0C0E0EE24E394F12CCC0F60E08091F3
:101B900046050E94D905B701002E01C0660F0A94C0
:101BA000EAF76D23809144050E94D90561E0809198
:101BB00046050E94D905809145050E94B005892BF4
:101BC00009F0C1600150110900F78C2FDF91CF910E
:101BD0001F910F91FF90EF90089591E09093BE03B5
:101BE0008093B0051092BD031092BC03089520911C
:101BF000BC039091B005213208F04AC080919B034C
:101C00008111FCCF32E030939B0331E030939A0393
:101C10003FEF309399031092980320939703ACE918
:101C2000B3E047E753E0FA013E2F341B321718F4B4
:101C30003D913193F9CF1092760320917603990F5D
:101C4000922B9093760390917503913061F41092EA
:101C50007503909176039093BB009091BC0093FD27
:101C6000F8CF95EC01C095EE9093BC0090919B034A
:101C70009230E1F3909199039F3F79F0809199031D
:101C8000803241F080919903803331F084E005C0C7
:101C900081E003C082E001C083E01092BD03109296
:101CA000BC031092BE030895CF93DF93D82FC62FA5
:101CB000809143058F3F91F480913A050E94ED0D8C
:101CC0006D2F8FEB93E00E94A1046C2F8FEB93E0BC
:101CD0000E94A104DF91CF910C94F70D80914605ED
:101CE0008F3F21F481E590E00E94510760E08091F0
:101CF00043050E94D9058D2F8F770E94AD0D8C2F43
:101D00000E94AD0D61E0809143050E94D90580914C
:101D100046058F3F21F4DF91CF910C945007DF915E
:101D2000CF910895613208F060E20E94AE0C1092EB
:101D30005403809353030895CF93C82F8091430594
:101D40008F3FB1F480913A050E94ED0D6C2F8FEB1F
:101D500093E00E94A1040E94F70D61E080913A0592
:101D60000E94920E8FEB93E00E945504C82F20C072
:101D7000809146058F3F21F481E590E00E94510754
:101D800060E0809143050E94D9058C2F80680E94F5
:101D9000AD0D80E00E94AD0DC82F61E0809143053C
:101DA0000E94D905809146058F3F11F40E9450078B
:101DB0008C2FCF910895CF93DF93C82F8091430547
:101DC0008F3F01F580913A050E94ED0D6C2F8FEB4E
:101DD00093E00E94A1040E94F70D62E080913A0511
:101DE0000E94920E8FEB93E00E945504C82F8FEB58
:101DF00093E00E94550420E030E03C2FE901C82B1D
:101E0000D92B29C0809146058F3F21F481E590E0D0
:101E10000E94510760E0809143050E94D9058C2FF4
:101E200080680E94AD0D80E00E94AD0DC82F80E05B
:101E30000E94AD0D2C2F30E0322F2227E901C82B54
:101E400061E0809143050E94D905809146058F3F4E
:101E500011F40E945007CE01DF91CF9108950E94A6
:101E6000DB0E982789279827089510925403109223
:101E700053031092BD031092BC0310929B0381E0A8
:101E800080939A031092750361E082E10E94D90564
:101E900061E083E10E94D905E9EBF0E080818E7F6B
:101EA000808380818D7F808380E28093B80085E489
:101EB0008093BC000895EF92FF920F931F93CF93EE
:101EC000DF93909177059F3F39F48EBD00000DB4EC
:101ED00007FEFDCF8EB528C0D82F07E010E0C0E088
:101EE000EE24E394F12CCC0F60E0809177050E9402
:101EF000D905B701002E01C0660F0A94EAF76D23D9
:101F0000809175050E94D90561E0809177050E9456
:101F1000D905809176050E94B005892B09F0C16032
:101F20000150110900F78C2FDF91CF911F910F9174
:101F3000FF90EF900895CF93DF93C82F80917405A1
:101F40008F3F01F580916B050E94ED0D6C2F8FEB9B
:101F500093E00E94A1040E94F70D62E080916B055E
:101F60000E94920E8FEB93E00E945504C82F8FEBD6
:101F700093E00E94550420E030E03C2FE901C82B9B
:101F8000D92B29C0809177058F3F21F481E590E01E
:101F90000E94510760E0809174050E94D9058C2F42
:101FA00080680E945B0F80E00E945B0FC82F80E07A
:101FB0000E945B0F2C2F30E0322F2227E901C82B23
:101FC00061E0809174050E94D905809177058F3F6B
:101FD00011F40E9450079C2F8D2FDF91CF9108950F
:101FE0000F931F93CF93DF931F92CDB7DEB7682F68
:101FF00087E769830E94ED0D69818FEB93E00E9472
:10200000A1040E94F70D87E70E94ED0D82E090E0A9
:102010000E94F20C8FEB93E00E94550400E010E068
:10202000182F8FEB93E00E945504082B192B0E9468
:10203000F70DC8010F90DF91CF911F910F91089577
:102040001F93CF93DF931F92CDB7DEB7682F87E73B
:1020500069830E94ED0D69818FEB93E00E94A104DA
:102060000E94F70D87E70E94ED0D81E090E00E944D
:10207000F20C8FEB93E00E945504182F0E94F70D8D
:10208000812F0F90DF91CF911F91089561157105F8
:10209000D1F0019719F4EEE3F4E002C0EEE2F4E0CF
:1020A000DB019F01205F3F4F80E040E29D9199233B
:1020B00021F0811102C0908302C0408381E03196FB
:1020C000E217F30799F70895CF92DF92EF92FF920C
:1020D000CF93C82F809143058F3FC9F580913A0572
:1020E0000E94ED0D6C2F8FEB93E00E94A1040E94E3
:1020F000F70D63E080913A050E94920E8FEB93E01A
:102100000E9455046C01990FEE08FF08FE2CED2C7F
:10211000DC2CCC248FEB93E00E945504AC01990F8A
:10212000660B770BC42AD52AE62AF72AFE2CED2C5B
:10213000DC2CCC248FEB93E00E945504AC01990F6A
:10214000660B770BC42AD52AE62AF72A33C080917A
:1021500046058F3F21F481E590E00E94510760E041
:10216000809143050E94D9058C2F80680E94AD0D97
:1021700080E00E94AD0DC82ED12CE12CF12CFE2C5C
:10218000ED2CDC2CCC2480E00E94AD0DC82AFE2C66
:10219000ED2CDC2CCC2480E00E94AD0DC82A61E03F
:1021A000809143050E94D905809146058F3F11F427
:1021B0000E945007C701B601CF91FF90EF90DF90CA
:1021C000CF900895CF92DF92EF92FF92CF93C82FD6
:1021D000809174058F3FC9F580916B050E94ED0DCC
:1021E0006C2F8FEB93E00E94A1040E94F70D63E037
:1021F00080916B050E94920E8FEB93E00E94550434
:102200006C01990FEE08FF08FE2CED2CDC2CCC2481
:102210008FEB93E00E945504AC01990F660B770B8E
:10222000C42AD52AE62AF72AFE2CED2CDC2CCC2455
:102230008FEB93E00E945504AC01990F660B770B6E
:10224000C42AD52AE62AF72A33C0809177058F3F22
:1022500021F481E590E00E94510760E080917405CF
:102260000E94D9058C2F80680E945B0F80E00E943D
:102270005B0FC82ED12CE12CF12CFE2CED2CDC2C8C
:10228000CC2480E00E945B0FC82AFE2CED2CDC2CB5
:10229000CC2480E00E945B0FC82A61E08091740525
:1022A0000E94D905809177058F3F11F40E94500755
:1022B000C701B601CF91FF90EF90DF90CF900895C6
:1022C0002091E7033091E8032115310589F0803230
:1022D00078F4E82FF0E0E553FC4F81A1F90194E098
:1022E000899FE00DF11D1124408351836283738324
:1022F00008954F925F926F927F92AF92BF92CF926A
:10230000DF92EF92FF920F931F93CF93DF9300D052
:1023100000D0CDB7DEB7082FA62E69017A01AE0135
:102320004F5F5F4FC701B6010E9409332B013C018B
:1023300089819A81AB81BC81BC01CD019F770E94CC
:102340006131B62E172F2AE939E949E15FE3C3016C
:10235000B2010E943D3320E030E543EC57E40E9497
:102360003D339F770E9461313B011170A11002C083
:1023700090E001C090E2192B20E030E0A901C701F4
:10238000B6010E94DE30881F8827881F8295880F3B
:10239000880F807C712F782BA3016B2D802F0F90DD
:1023A0000F900F900F90DF91CF911F910F91FF90A1
:1023B000EF90DF90CF90BF90AF907F906F905F9045
:1023C0004F900C9460118F929F92AF92BF92CF92D8
:1023D000DF92EF92FF928AEF0E94641061157105FF
:1023E00020E88207910509F47CC04091470550918F
:1023F00048054A01A12CB12CC72ED82EE92EFF2466
:10240000E7FCFA94C818D908EA08FB08DC01CB01FC
:1024100037E0B595A795979587953A95D1F7B5018A
:10242000A401440F551F661F771F4C015D01841ADC
:10243000950AA60AB70AA5019401A0914905B09191
:102440004A050E94632E4B015C01FBE0B594A79402
:1024500097948794FA95D1F7A7019601C701B60121
:102460000E94012E9B01AC01ACE055954795379534
:102470002795AA95D1F7A0914B05B0914C050E94E4
:10248000632EDC01CB012EE0B595A7959795879536
:102490002A95D1F7A5019401280F391F4A1F5B1F08
:1024A00020933F05309340054093410550934205EA
:1024B000A5E0B0E00E94582EDC01CB0180589F4F70
:1024C000AF4FBF4F692F7A2F8B2F992787FD9A9592
:1024D0000E94983120E030E048EC52E40E94E8305D
:1024E00004C060E070E080EC9FE7FF90EF90DF9029
:1024F000CF90BF90AF909F908F9008952F923F9272
:102500004F925F926F927F928F929F92AF92BF9203
:10251000CF92DF92EF92FF920F931F93CF93DF93AF
:10252000CDB7DEB7A2970FB6F894DEBF0FBECDBF12
:102530000E94E31187EF0E9464106F837887898778
:102540009A87611571058048910509F4FDC1809154
:102550003F0590914005A0914105B09142056C0165
:102560007D01FF0CCC08DC2C76019C01AD016C2DAB
:102570007C2D8C2D9C2D345F4140510961097109DE
:10258000810991092AA339A349835A836B837C83E8
:102590008D839E8359016A017B018C010E946B2E01
:1025A0002E8B3F8B488F598F6A8F7B8F8C8F9D8F9F
:1025B000809157058E8F909158059B87A091550566
:1025C000AF8FB0915605BC87E0915305E8A3F09119
:1025D0005405FD87B0905005A0904F051B2D110F9D
:1025E000110BC12ED12EE12EF12E012F2AA139A1DE
:1025F00049815A816B817C818D819E810E946B2EE5
:102600000CE00E949B2F19012A013B014C01B09064
:102610005205A09051051B2D110F110BC12ED12E6B
:10262000E12EF12E012F2E893F89488D598D6A8D1B
:102630007B8D8C8D9D8D0E946B2E08E00E94B42FA7
:1026400051016201730184010E94D22F70588F4F93
:102650009F4F20904D0530904E055101C12CD12C3B
:10266000E12CF12C00E010E00E946B2E01E20E94B0
:10267000B42F2E873F87488B598B6A8B7B8B8C8B33
:102680009D8BA0E00E94E42F09F463C1AE8C1B85F2
:10269000110F110BBB84C12ED12EE12EF12E012F73
:1026A0002E893F89488D598D6A8D7B8D8C8D9D8DAE
:1026B0000E946B2E19012A013B014C01AF8C1C8535
:1026C000110F110BBC84C12ED12EE12EF12E012F42
:1026D0002AA139A149815A816B817C818D819E819A
:1026E0000E946B2E01E10E949B2F59016A017B0120
:1026F0008C019101A201B301C4010E94D22F1901E2
:102700002A013B014C014F81588569857A8584E017
:1027100075956795579547958A95D1F780E090E034
:10272000A0E1B0E0841B950BA60BB70B6C017D01FB
:10273000FF0CCC08DC2C76019C01AD016C2D7C2DAE
:102740008C2D9C2D0FE10E949B2FF901B42FA52FFA
:102750006C837D8389839A8328A19D85990F990B2A
:102760003D85492F592F692F792F892F03E20E9428
:102770009B2F59016A017B018C019101A201B301D8
:10278000C4010E94D22F59016A017B018C019F0173
:102790004B2F5A2F6C817D8189819A810E94DB2F7A
:1027A0004901542E652EB62FA72FF82FE92F03E0ED
:1027B0000E949B2F5401C52CD62CEB2EFA2E0F2FE6
:1027C0001E2F0E94DB2F59016A017B01782E192FE1
:1027D00003E00E949B2F072D0E94DB2F03E00E9445
:1027E0009B2F5401C52CD62CEB2EFA2E0F2F1E2F0B
:1027F0000E94DB2F02E00E949B2F0F2F0E94DB2FF5
:1028000001E00E949B2F0F2F0E94DB2FAE84BF841C
:10281000C888D988EA88FB880C891D890E94C62E41
:102820002B873F8349835A836B837C838D839E836D
:102830000DE00E94B42F922E832E742E652E562EFC
:10284000472E382E292E30915E0520915D05932F5D
:10285000990F990BA92CB82CC72CD62CE52CF42C4D
:10286000032D122D492F592F692F792F892F0E945F
:102870006B2E0E946B2E09E10E94B42F59016A0150
:102880007B018C012B853F8149815A816B817C8141
:102890008D819E810E94D22F19012A013B014C019A
:1028A00030915C0520915B05932F990F990BAB84B8
:1028B000BF80C980DA80EB80FC800D811E81492FAA
:1028C000592F692F792F892F0E946B2E03E10E94C7
:1028D000B42F59016A017B018C019101A201B3015E
:1028E000C4010E94D22F08E00E94B42F522E632E02
:1028F000742E852E962EF72FE82FB92F30915A057A
:1029000020915905932F990F990B492F592F692F12
:10291000792F892F04E00E949B2F59016A017B01C6
:102920008C01252D362D472D582D692D7F2F8E2F6B
:102930009B2F0E94D22F0E94903120E030E040E88F
:102940005BE30E943D3308C060E070E080EC9FE7ED
:1029500003C060E070E0CB01A2960FB6F894DEBF32
:102960000FBECDBFDF91CF911F910F91FF90EF90E0
:10297000DF90CF90BF90AF909F908F907F906F909F
:102980005F904F903F902F9008958F929F92AF92BB
:10299000BF92CF92DF92EF92FF928AEF0E94E210F5
:1029A000EBE6F5E0458556854A01A12CB12CC72EF2
:1029B000D82EE92EFF24E7FCFA94C818D908EA08B3
:1029C000FB08DC01CB0137E0B595A7959795879576
:1029D0003A95D1F7B501A401440F551F661F771F23
:1029E0004C015D01841A950AA60AB70AA501940153
:1029F000A785B0890E94632E4B015C013BE0B59432
:102A0000A794979487943A95D1F7A7019601C701A7
:102A1000B6010E94012E9B01AC016CE055954795D3
:102A2000379527956A95D1F7A189B2890E94632EBF
:102A3000DC01CB017EE0B595A795979587957A95B2
:102A4000D1F7A5019401280F391F4A1F5B1F258369
:102A5000368347835087A5E0B0E00E94582EDC0102
:102A6000CB0180589F4FAF4FBF4F692F7A2F8B2FCD
:102A7000992787FD9A950E94983120E030E048EC34
:102A800052E40E94E830FF90EF90DF90CF90BF902B
:102A9000AF909F908F9008952F923F924F925F92A8
:102AA0006F927F928F929F92AF92BF92CF92DF925E
:102AB000EF92FF920F931F93CF93DF93CDB7DEB7C3
:102AC000A2970FB6F894DEBF0FBECDBF0E94C5140B
:102AD00087EF0E94E2106A8F7B8F8C8F9D8F809191
:102AE000700590917105A0917205B09173056C010C
:102AF0007D01FF0CCC08DC2C76019C01AD016C2D16
:102B00007C2D8C2D9C2D345F414051096109710948
:102B1000810991092AA339A349835A836B837C8352
:102B20008D839E8359016A017B018C010E946B2E6B
:102B30002A8B3B8B4C8B5D8B6E8B7F8B888F998F19
:102B4000809188058E8FE0918905EF83F09186054D
:102B5000FF8F809187058887E0918405E8A3F09135
:102B60008505F987B0908105A09080051B2D110F78
:102B7000110BC12ED12EE12EF12E012F2AA139A148
:102B800049815A816B817C818D819E810E946B2E4F
:102B90000CE00E949B2F19012A013B014C01B090CF
:102BA0008305A09082051B2D110F110BC12ED12E74
:102BB000E12EF12E012F2A893B894C895D896E898E
:102BC0007F89888D998D0E946B2E08E00E94B42F1A
:102BD00051016201730184010E94D22F70588F4FFE
:102BE0009F4F20907E0530907F055101C12CD12C44
:102BF000E12CF12C00E010E00E946B2E01E20E941B
:102C0000B42F2A873B874C875D876E877F87888BA9
:102C1000998BA0E00E94E42F09F45EC1AE8C1F8165
:102C2000110F110BBF80C12ED12EE12EF12E012FDD
:102C30002A893B894C895D896E897F89888D998D28
:102C40000E946B2E19012A013B014C01AF8C1885A3
:102C5000110F110BB884C12ED12EE12EF12E012FB0
:102C60002AA139A149815A816B817C818D819E8104
:102C70000E946B2E01E10E949B2F59016A017B018A
:102C80008C019101A201B301C4010E94D22F19014C
:102C90002A013B014C014A8D5B8D6C8D7D8D84E05A
:102CA00075956795579547958A95D1F780E090E09F
:102CB000A0E1B0E0841B950BA60BB70B6C017D0166
:102CC000FF0CCC08DC2C76019C01AD016C2D7C2D19
:102CD0008C2D9C2D0FE10E949B2FF901B42FA52F65
:102CE0006C837D8389839A8328A19985990F990B99
:102CF0003985492F592F692F792F892F03E20E9497
:102D00009B2F59016A017B018C019101A201B30142
:102D1000C4010E94D22F59016A017B018C019F01DD
:102D20004B2F5A2F6C817D8189819A810E94DB2FE4
:102D30004901542E652EB62FA72FF82FE92F03E057
:102D40000E949B2F5401C52CD62CEB2EFA2E0F2F50
:102D50001E2F0E94DB2F59016A017B01782E192F4B
:102D600003E00E949B2F072D0E94DB2F03E00E94AF
:102D70009B2F5401C52CD62CEB2EFA2E0F2F1E2F75
:102D80000E94DB2F02E00E949B2F0F2F0E94DB2F5F
:102D900001E00E949B2F0F2F0E94DB2FAA84BB848F
:102DA000CC84DD84EE84FF84088919890E94C62EB4
:102DB00028873F8349835A836B837C838D839E83DB
:102DC0000DE00E94B42F922E832E742E652E562E67
:102DD000472E382E292E30918F0520918E05932F66
:102DE000990F990BA92CB82CC72CD62CE52CF42CB8
:102DF000032D122D492F592F692F792F892F0E94CA
:102E00006B2E0E946B2E09E10E94B42F59016A01BA
:102E10007B018C0128853F8149815A816B817C81AE
:102E20008D819E810E94D22F19012A013B014C0104
:102E300030918D0520918C05932F990F990BA884C3
:102E4000BF80C980DA80EB80FC800D811E81492F14
:102E5000592F692F792F892F0E946B2E03E10E9431
:102E6000B42F59016A017B018C019101A201B301C8
:102E7000C4010E94D22F08E00E94B42F522E632E6C
:102E8000742E852E962EF72FE82FB92F30918B05B3
:102E900020918A05932F990F990B492F592F692F4C
:102EA000792F892F04E00E949B2F59016A017B0131
:102EB0008C01252D362D472D582D692D7F2F8E2FD6
:102EC0009B2F0E94D22F0E94903120E030E040E8FA
:102ED0005BE30E943D3303C060E070E0CB01A2964B
:102EE0000FB6F894DEBF0FBECDBFDF91CF911F911B
:102EF0000F91FF90EF90DF90CF90BF90AF909F9099
:102F00008F907F906F905F904F903F902F9008959B
:102F100087E70E94ED0D64EF8FEB93E00E94A10420
:102F20006EE28FEB93E00E94A1040E94F70D65E032
:102F300070E080E090E00E948A0686EF0C94F00F2B
:102F40003F924F925F926F927F928F929F92AF9239
:102F5000BF92CF92DF92EF92FF920F931F93CF9386
:102F6000DF93CDB7DEB728970FB6F894DEBF0FBE5C
:102F7000CDBF0E9488176C01E12CF12C10919905AE
:102F80001295110F110F107C1C5C87E70E94ED0D4C
:102F900064EF8FEB93E00E94A104612F8FEB93E02D
:102FA0000E94A1040E94F70D80919905811105C02E
:102FB00065E070E080E090E012C0813029F468E0C4
:102FC00070E080E090E00BC0823029F46EE070E0A9
:102FD00080E090E004C06AE170E080E090E00E9450
:102FE0008A0686EF0E94F00F4C01A12CB12CBA2C5E
:102FF000A92C982C882488EF0E942010882A3090D1
:1030000099058091AE059091AF05A7019601281B07
:10301000390B41095109A091AC05B091AD050E9451
:10302000582E6B017C01AFE0F594E794D794C794D8
:10303000AA95D1F76091A6057091A705CB01770FEE
:10304000AA0BBB0BBC01CD01BBE0660F771F881F2D
:10305000991FBA95D1F72091A8053091A90589014A
:10306000330F220B330BA90198012C0D3D1D4E1D72
:103070005F1D0E94332EC20ED31EE41EF51E20EAF1
:10308000C21A2FE0D20AE108F108A7019601C70190
:10309000B6010E94012E9B01AC011CE0559547959D
:1030A000379527951A95D1F729833A834B835C830B
:1030B00000919A0510919B05A0919E05B0919F05E6
:1030C000A70196010E94632E2B013C018DE07594AF
:1030D0006794579447948A95D1F7A091A005B09131
:1030E000A10529813A814B815C810E94632EBB2717
:1030F00097FDB095AB2F840D951DA61DB71D0296AB
:10310000A11DB11D32E0B595A795979587953A9584
:10311000D1F79C01AD0130584F4F5F4FA091AA05E8
:10312000B091AB050E94582E2B013C014FE07694E4
:103130006794579447944A95D1F788E090E08319B3
:103140009109A501940104C0569547953795279597
:103150008A95D2F72D833E834F8358874801110FFC
:10316000AA08BB0852E0880C991CAA1CBB1C5A95E3
:10317000D1F7A091A205B091A30529813A814B8195
:103180005C810E94632E9B01AC016BE055954795D5
:10319000379527956A95D1F729833A834B835C83CA
:1031A000A0919C05B0919D05A70196010E94632EF8
:1031B000DC01CB017BE0B595A795979587957A952E
:1031C000D1F729813A814B815C81820F931FA41F23
:1031D000B51F880D991DAA1DBB1D032C04C0880FA7
:1031E000991FAA1FBB1F0A94D2F7BC01CD016E5FC5
:1031F0007F4F8F4F9F4F24E030E040E050E00E942F
:10320000332E8D819E81AF81B885821B930BA40BD9
:10321000B50B9C01AD0180E593ECA0E0B0E0BC01F2
:10322000CD0104C096958795779567953A94D2F726
:103230000E94012E97FD0BC0660F771F881F991FF4
:10324000A30192010E94112E69017A010AC0A30113
:1032500092010E94112E69017A01CC0CDD1CEE1C3A
:10326000FF1C9927F7FC9A958F2D7E2D6D2D9B01C4
:10327000AC010E94012E9B01AC01AEEDBBE00E94AF
:10328000582E4C01BB2497FCB094AB2CA3E4B3EEB6
:10329000A70196010E94662EBB2797FDB095AB2F24
:1032A000880D991DAA1DBB1D8153914FAF4FBF4F74
:1032B00044E0B595A795979587954A95D1F7BC01B8
:1032C000CD016C0D7D1D8E1D9F1D28960FB6F894A7
:1032D000DEBF0FBECDBFDF91CF911F910F91FF9049
:1032E000EF90DF90CF90BF90AF909F908F907F90A6
:1032F0006F905F904F903F900895CF93DF93CDB73D
:10330000DEB7E9970FB6F894DEBF0FBECDBF789455
:1033100084B5826084BD84B5816084BD85B58260DA
:1033200085BD85B5816085BD80916E00816080938B
:103330006E001092810080918100826080938100F4
:103340008091810081608093810080918000816004
:10335000809380008091B10084608093B10080915F
:10336000B00081608093B00080917A008460809387
:103370007A0080917A00826080937A0080917A004E
:103380008E7F80937A0080917A00806880937A00A3
:103390001092C10083E0809399050E94350F80ED63
:1033A0000E942010853511F00C948D2B8AEA0E9422
:1033B000F00F90939B0580939A058CEA0E94F00F82
:1033C00090939D0580939C058EEA0E94F00F909348
:1033D0009F0580939E0580EB0E94F00F9093AB05B4
:1033E0008093AA0582EB0E94F00F9093AD05809325
:1033F000AC0584EB0E94F00F9093AF058093AE056F
:1034000086EB0E94F00F9093A1058093A00588EBB6
:103410000E94F00F9093A3058093A2058AEB0E946F
:10342000F00F9093A5058093A4058CEB0E94F00FFC
:103430009093A7058093A6058EEB0E94F00F9093C2
:10344000A9058093A80581E090E090930401809302
:10345000030180E090E0A0E0BFE38093050190933A
:103460000601A0930701B09308018093090190938E
:103470000A01A0930B01B0930C0110920D01109260
:103480000E0110920F011092100104C188E80E94F1
:103490002F0F90934805809347058AE80E942F0FCD
:1034A00090934A05809349058CE80E942F0F9093D2
:1034B0004C0580934B058EE80E942F0F90934E058C
:1034C00080934D0580E90E942F0F909350058093C3
:1034D0004F0582E90E942F0F90935205809351056A
:1034E00084E90E942F0F909354058093530586E939
:1034F0000E942F0F909356058093550588E90E94EE
:103500002F0F90935805809357058AE90E942F0F3B
:1035100090935A05809359058CE90E942F0F909340
:103520005C0580935B058EE90E942F0F90935E05EA
:1035300080935D0581EA0E949C0E80935F0581EE79
:103540000E942F0F909361058093600583EE0E9487
:103550009C0E8093620584EE0E949C0E182F85EECF
:103560000E949C0E282F2F7030E1139FC001112460
:10357000822B909364058093630586EE0E949C0ED7
:10358000182F85EE0E949C0E90E004E0959587959B
:103590000A95E1F740E1149F90011124822B932BAF
:1035A000909366058093650587EE0E949C0E80933C
:1035B00067058DEE8093690580916A058F71806A39
:1035C00080936A0580916805807C8093680565E03A
:1035D00082EF0E94540E90916805692F677050E247
:1035E000659F90011124892F869586958695877011
:1035F000A8E08A9FB0011124622B732B97FB9927B7
:1036000090F9692B85EF0E94540E90916905692FFE
:103610006770B0E26B9F90011124892F8695869583
:1036200086958770E8E08E9FB0011124622B732B82
:103630009295969596959370692B84EF0E94540EFF
:1036400083E090E090930401809303018EEA97E475
:10365000A1E6BFE38093050190930601A0930701C3
:10366000B09308018AE999E9A9E1BEE380930901D1
:1036700090930A01A0930B01B0930C0183E090E0BA
:10368000A0E0B0E080930D0190930E01A0930F0194
:10369000B093100180E090E00E94F536082F10E012
:1036A000109343020093420281E090E00E94F536BD
:1036B00090E090933302809332020F3F110521F482
:1036C00010924302109242028F3F910521F4109212
:1036D0003302109232028091FF0490910005892BF1
:1036E000B9F48CE090E00E943935FC01138212821B
:1036F00088EE93E0A0E0B0E084839583A683B7834F
:103700008BE191E091838083F0930005E093FF04C7
:1037100010926F001092800081E88093810081E414
:1037200093E0909317028093160289E19EE19093B3
:1037300015028093140262E088E00E94090661E0AD
:1037400089E00E94D90561E089E00E940906109293
:103750001302109212021092110210921002109293
:103760000F0210920E0280E286BB80936F0068EE1B
:1037700073E080E090E00E948A0686E78093500420
:1037800082E3809351048091420290914302892BFD
:1037900051F48091320290913302892B21F480ED13
:1037A00095E00E94FE0C8091420290914302892B89
:1037B00051F48091320290913302019721F48EE00E
:1037C00094E00E94FE0C8091420290914302019786
:1037D00051F48091320290913302892B21F48AE5D1
:1037E00093E00E94FE0C8091420290914302019767
:1037F00051F48091320290913302019721F488E9CB
:1038000091E00E94FE0C12E080E194E0F12FF81BA1
:10381000F9AFBAE12B2E312C809103019091040174
:10382000009709F4FCC38230910509F499C08330F4
:10383000910509F4E2C0019709F024C20E94A01783
:1038400060936202709363028093640290936502B6
:103850000E94A0170E94983120E836EE45EC57E40C
:103860000E94E83021E03EED42E45EE30E94AA338C
:103870009B01AC0160E070E080E89FE30E94FF2FB5
:1038800020E03AE24DE257E40E943D3320E030E090
:1038900048EC52E40E943D330E945A3160935E022C
:1038A00070935F0280936002909361020E94881778
:1038B000AC0160E070E08091AE059091AF059A0197
:1038C000AB01281B390B41095109A091AC05B091FE
:1038D000AD050E94582E6B017C01EFE0F594E79452
:1038E000D794C794EA95D1F76091A6057091A70582
:1038F000CB01770FAA0BBB0BBC01CD01FBE0660F20
:10390000771F881F991FFA95D1F72091A80530914C
:10391000A9054901330FAA08BB08A7019601280D84
:10392000391D4A1D5B1D0E94332ED701C601820F2F
:10393000931FA41FB51F0896A11DB11DBC01CD0189
:10394000A4E09595879577956795AA95D1F70E94FC
:10395000983120E030E040E251E40E94E83040C07D
:103960000E944C150E945A31609362027093630268
:1039700080936402909365020E944C1520E030E031
:1039800048EC52E40E94E83020E030E54DE754E492
:103990000E94E83021E03EED42E45EE30E94AA335B
:1039A0009B01AC0160E070E080E89FE30E94FF2F84
:1039B00020E03AE24DE257E40E943D3320E030E05F
:1039C00048EC52E40E943D330E945A3160935E02FB
:1039D00070935F0280936002909361020E94C5140D
:1039E00020E030E040E251E40E943D330E945A3131
:1039F00070935D0260935C0245C10E947E120E943A
:103A00005A316093620270936302809364029093D0
:103A100065020E947E1220E030E048EC52E40E94F1
:103A2000E83020E030E54DE754E40E94E83021E042
:103A30003EED42E45EE30E94AA339B01AC0160E0EC
:103A400070E080E89FE30E94FF2F20E03AE24DE221
:103A500057E40E943D3320E030E048EC52E40E94FD
:103A60003D330E945A3160935E0270935F028093EF
:103A70006002909361020E94E31120E030E040E296
:103A800051E40E943D330E945A3170935D0260936D
:103A90005C020E94E3118DEF0E94DB0EA0E0B0E01B
:103AA000811520E89207A105B10509F4DBC08090DB
:103AB0003F0590904005A0904105B09042053CE242
:103AC000931A31E0A30AB1086EE0880F991FAA1F6C
:103AD000BB1F6A95D1F74091630550916405052E8F
:103AE000000C660B770BE4E1440F551F661F771F30
:103AF000EA95D1F76C017D01C41AD50AE60AF70AE6
:103B0000A0916505B0916605A50194010E94632E00
:103B1000C61AD70AE80AF90A40E4D40EE11CF11CDF
:103B2000FFE0F594E794D794C794FA95D1F7A09164
:103B300067050A2E000CBB0BA50194010E94632EA1
:103B40002B013C01AAE07594679457944794AA9579
:103B5000D1F7A0916205B0E00E94582EDC01CB01A4
:103B60000BE0B595A795979587950A95D1F7BC0178
:103B7000CD0170588F4F9F4FA30192010E94012EDB
:103B8000DC01CB012AE0B595A795979587952A95F5
:103B9000D1F79C01AD01405E5F4FA0916005B091EF
:103BA00061050E94632EDC01CB01905EAF4FBF4FD9
:103BB000BC01CD013EE095958795779567953A953F
:103BC000D1F7A70196010E94012E6B017C014FE005
:103BD00095958795779567954A95D1F79B01AC01A7
:103BE0000E94012E9B01AC0167E0559547953795E2
:103BF00027956A95D1F7A0915F05B0E00E94582EF5
:103C0000DC01CB0174E0B595A795979587957A95DA
:103C1000D1F7A7019601281B390B4A0B5B0BDA0180
:103C2000C90157FF03C080E090E0DC0181309105BD
:103C3000A10539E1B30724F080E090E0A0E0B9E10C
:103C4000BC01CD015CE095958795779567955A9570
:103C5000D1F70E94983120E030E040E85AE30E941A
:103C60003D3304C060E070E080EC9FE720E030E08E
:103C700040E251E40E943D330E945A3170935B024E
:103C800060935A0240915802509159025AA349A395
:103C900043315105C1F480915E0290915F02A09181
:103CA0006002B09161028093540290935502A093F8
:103CB0005602B09357021092500210925102109285
:103CC0005202109253020E94C40640904C0250903F
:103CD0004D0260904E0270904F02DC01CB018419BE
:103CE0009509A609B70987399105A105B10508F419
:103CF000B9C0C0905E02D0905F02E0906002F09088
:103D000061028091480290914902A0914A02B091CB
:103D10004B02A7019601281B390B4A0B5B0BCA010A
:103D2000B9010E9498316DA37EA38FA398A70E942A
:103D3000C4064B015C010E94C40660934C02709360
:103D40004D0280934E0290934F02C0924802D0924F
:103D50004902E0924A02F0924B02C501B401641993
:103D60007509860997090E9496319B01AC0160E0B4
:103D700070E08AE794E40E94E8309B01AC016DA1F9
:103D80007EA18FA198A50E943D330E945A310E94C6
:103D900098312B013C012091500230915102409109
:103DA0005202509153026091050170910601809179
:103DB0000701909108010E943D334B015C01209165
:103DC000090130910A0140910B0150910C01C3018E
:103DD000B2010E943D339B01AC01C501B4010E94B8
:103DE000003060935002709351028093520290937E
:103DF00053020E945A31C0900D01D0900E01E09004
:103E00000F01F0901001C616D706E806F9063CF43B
:103E1000DC01CB018C199D09AE09BF0912C08824B1
:103E2000992454018C189D08AE08BF0868157905BF
:103E30008A059B057CF4DC01CB018C0D9D1DAE1D1C
:103E4000BF1D8093440290934502A0934602B09315
:103E5000470208C010924402109245021092460296
:103E60001092470280915E0290915F02A0916002E1
:103E7000B09161028090540290905502A090560239
:103E8000B0905702BC01CD01681979098A099B09D4
:103E900024E630E040E050E00E94332E30931F02D1
:103EA00020931E0249A15AA144315105A4F47A017C
:103EB0005FEFE51AF50AF0925902E092580210926B
:103EC000440210924502109246021092470210924C
:103ED0001F0210921E0280914202909143020197AC
:103EE00009F066C060911E0270911F02072E000C3F
:103EF000880B990B0E9498312FEB3EE04CE95EE372
:103F00000E94E8300E945A3170931F0260931E0293
:103F1000609144027091450280914602909147025F
:103F20000E9498312FEB3EE04CE95EE30E94E830BE
:103F30000E945A3160934402709345028093460276
:103F400090934702609162027091630280916402D3
:103F5000909165020E9498312DED38EE41EF5CE3BF
:103F60000E943D330E945A31609362027093630253
:103F7000809364029093650260915C0270915D028F
:103F8000072E000C880B990B0E94983126E636E626
:103F900046EE5FE30E943D3320E030E040EA53E428
:103FA0000E9400300E945A3170935D0260935C025F
:103FB000409144025091450260914602709147023F
:103FC00086E00E94601140911E0250911F02052E52
:103FD000000C660B770B84E00E9460114091620236
:103FE0005091630260916402709165028CE00E94BE
:103FF000601140915C0250915D02052E000C660B31
:10400000770B8DE00E94601140915A0250915B0243
:10401000052E000C660B770B8EE00E9460118091DC
:10402000FF0490910005892B09F43DC4AA24A394B0
:1040300047E0942E8091FF0490910005DC01ED9102
:10404000FC910480F581E02D0995892B09F42BC49E
:104050008091FF0490910005DC01ED91FC910680B8
:10406000F781E02D0995082F8091EF049091F004DD
:10407000A091F104B091F2040196A11DB11D8093AD
:10408000EF049093F004A093F104B093F20404328F
:1040900009F4B3C2E091E904053234F40A3071F056
:1040A0000D3009F0B7C20AC00A3241F00C3209F0F3
:1040B000B1C28091D60480278093D604EF3008F0F7
:1040C00075C1F0E0E852FB4F10828091D70488233D
:1040D00009F46EC12091D8043FEB320F822F022EDB
:1040E000000C990B363010F4C79707C021562630C4
:1040F00018F48755910901C0C097282F2295207F79
:104100003091D9044FEB430F832F032E000C990BF2
:10411000463010F4C79707C03156363018F487552B
:10412000910901C0C097820F9091D60489132BC1C9
:104130008091FB049091FC04A091FD04B091FE04D9
:104140000196A11DB11D8093FB049093FC04A093E4
:10415000FD04B093FE048091EA04882399F08091D5
:10416000F3049091F404A091F504B091F604019643
:10417000A11DB11D8093F3049093F404A093F50462
:10418000B093F604F090E704FF2009F46BC0B1E0AF
:10419000FB12D0C080917A0490917B04A0917C04A2
:1041A000B0917D048093760490937704A093780473
:1041B000B09379040E94C40660937E0470937F04D8
:1041C0008093800490938104F0927504F0927404BB
:1041D0008091880490918904A0918A04B0918B0405
:1041E0008093840490938504A0938604B0938704FD
:1041F0000E94C40660938C0470938D0480938E0497
:1042000090938F04F0928304F09282048091EA04E8
:10421000882309F48FC0E2E6F4E0A4E5B4E0892D38
:1042200001900D928A95E1F7E9E6F4E0ABE5B4E0A0
:10423000892D01900D928A95E1F70E94C406609342
:104240007004709371048093720490937304F092DD
:104250005304F092520480E994E00E940C0A8EE923
:1042600094E066C08091880490918904A0918A04AA
:10427000B0918B048093840490938504A09386046A
:10428000B09387040E94C40660938C0470938D04DD
:1042900080938E0490938F04A0928304A092820452
:1042A0008091EA04882321F1E2E6F4E0A4E5B4E099
:1042B000892D01900D928A95E1F7E9E6F4E0ABE5EE
:1042C000B4E0892D01900D928A95E1F70E94C40611
:1042D00060937004709371048093720490937304DC
:1042E000A0925304A09252048CEA94E00E940C0A1B
:1042F0008091C4049091C504A091C604B091C704F4
:104300008093C0049093C104A093C204B093C304EB
:104310000E94C4066093BC047093BD048093BE04E5
:104320009093BF04A092BB04A092BA0488EC94E0DE
:104330000E940C0AE090ED04F090EE04E114F10408
:1043400009F449C1E091ED04F091EE0466A177A172
:10435000D70196968D919C9197970E948E36892BC6
:1043600009F039C1B701C70140960E9497360E94F3
:10437000C406F70160A371A382A393A3A5A2A4A27C
:10438000E2A4F3A4DBCF8091F7049091F804A0910C
:10439000F904B091FA040196A11DB11D8093F704B0
:1043A0009093F804A093F904B093FA0480E014C148
:1043B0009091E804911149C06DE571E088ED94E0B9
:1043C0000E948E36892B41F063E671E088ED94E01F
:1043D0000E948E36892B19F4A092E70415C069E675
:1043E00071E088ED94E00E948E36892B41F06FE6F3
:1043F00071E088ED94E00E948E36892B19F41092BA
:10440000E70402C01093E7048091EB049091EC0460
:104410009093EE048093ED04E090ED04F090EE04B0
:10442000E114F10419F2D7019696CD90DC9097979C
:1044300068ED74E0C6010E948E3697FD02C00C94B0
:10444000CA2CF70182A593A5E3CFE091E704E230FF
:1044500009F491C08091D804882309F48CC0B0E29B
:10446000EB9FF0011124E92B3197E932F10508F0B7
:1044700082C0EC5CFF4F0C94522E88ED94E00E94B9
:10448000AB0A609388047093890480938A049093A4
:104490008B0471C091E0813409F043C043C062E6EF
:1044A00074E009C091E0833509F090E090936804CE
:1044B00062C069E674E088ED94E00E94230A5BC064
:1044C00091E0873509F090E090936F0454C088ED37
:1044D00094E00E94AB0A60939A0470939B048093CB
:1044E0009C0490939D0447C088ED94E00E94AB0A21
:1044F0006093A8047093A9048093AA049093AB04DA
:104500003AC088ED94E00E94B03660937A047093CC
:104510007B0480937C0490937D042DC091E08133D3
:104520000CF490E09093EA0426C088ED94E00E9499
:10453000B0366093C4047093C5048093C60490930E
:10454000C70419C088ED94E00E94AB0A6093D204BE
:104550007093D3048093D4049093D5040CC088ED59
:1045600094E00E94AB0A6093B6047093B704809302
:10457000B8049093B904E090ED04F090EE04E114D7
:10458000F10409F413CFE091ED04F091EE0466A17B
:1045900077A1D70196968D919C9197970E948E3620
:1045A000892B09F003CFF70120A531A58091E804FC
:1045B00090E0821793070CF4F9CE2817390739F4E5
:1045C00040E150E068ED74E0C7010E949E36F701BB
:1045D000E2A4F3A4D4CF81E09091E8049F5F90938C
:1045E000E8041092E90491E00A3209F090E0909317
:1045F000D704882309F41ECD22C01092E90410923A
:10460000E8041092D6041093E7041092D704109295
:10461000EA0410CDEE3040F481E08E0F8093E9047F
:10462000F0E0E852FB4F00838091D704811102CD66
:104630008091D604B02EB826B092D604FBCC10924E
:104640005304609154047091550480E090E00E94FE
:1046500096316B017C0160915604709157048091F2
:104660005804909159040E94963128E23BE64EE6A8
:104670005EE40E94E8309B01AC01C701B6010E94D4
:10468000003020915A04DC01CB012111B0588093F5
:10469000010590930205A0930305B0930405609172
:1046A0005B0470915C0480E090E00E9496316B01A5
:1046B0007C0160915D0470915E0480915F04909133
:1046C00060040E94963128E23BE64EE65EE40E94DA
:1046D000E8309B01AC01C701B6010E940030209177
:1046E0006104DC01CB012111B05880930505909342
:1046F0000605A0930705B09308058091520488230E
:1047000089F00E94C406C0907004D0907104E090BB
:104710007204F0907304DC01CB018C199D09AE0981
:10472000BF0903C08FEF9FEFDC01809321059093B9
:104730002205A0932305B093240510929104609163
:1047400096047091970480919804909199040E9426
:1047500098316B017C0126E53EE04DEE5FE30E945F
:104760003D3320E030E048EC52E40E94E8300E9403
:104770005A3160931105709312058093130590933D
:1047800014052EEB3CE443E95FE3C701B6010E9448
:104790003D3320E030E048EC52E40E94E8300E94D3
:1047A0005A31609315057093160580931705909301
:1047B00018051092AD046091B2047091B304809119
:1047C000B4049091B5040E9498316B017C0120E003
:1047D00030E048EC52E40E94E8300E945A31609385
:1047E000090570930A0580930B0590930C0528E446
:1047F00039EF41E550E4C701B6010E943D3320E0A6
:1048000030E048EC52E40E94E8300E945A31609354
:104810000D0570930E0580930F059093100510926F
:104820009F046091A4047091A5048091A6049091C6
:10483000A7040E94983120E030E048EC52E40E9446
:10484000E8300E945A316093190570931A058093DD
:104850001B0590931C051092C9048091CE04909181
:10486000CF04A091D004B091D10480931D05909302
:104870001E05A0931F05B0932005809152048093DC
:1048800025051092BB048091C0049091C104A091B1
:10489000C204B091C3048093260590932705A0938A
:1048A0002805B09329058091410281112CC0809187
:1048B0002505882311F40C94BD2C8091210590913D
:1048C0002205A0912305B0912405803D9740A105C4
:1048D000B10514F00C94BD2C81E0809341028091CD
:1048E0004002811110C00E94C406DC01CB01885730
:1048F0009C4EAF4FBF4F80933C0290933D02A093DC
:104900003E02B0933F0280914102882309F4BCC269
:104910002091010530910205409103055091040555
:10492000209338023093390240933A0250933B026D
:10493000C0900505D0900605E0900705F0900805A9
:10494000C0923402D0923502E0923602F0923702E1
:10495000809142029091430260E0892BE9F481E06A
:104960000E947911A701960161E082E00E9479110D
:104970004091090550910A0560910B0570910C0555
:1049800085E00E94601140911105509112056091DF
:104990001305709114051CC081E00E947911A701D4
:1049A000960161E082E00E94791140910D055091DD
:1049B0000E0560910F057091100585E00E94601151
:1049C00040911505509116056091170570911805D5
:1049D00083E00E946011E0903202F0903302E11413
:1049E000F10409F14091190550911A0560911B05D8
:1049F00070911C0588E00E9460114091260550913D
:104A0000270560912805709129058AE00E946011B0
:104A100040911D0550911E0560911F057091200564
:104A20008BE00E94601180914002811151C0809002
:104A30003C0290903D02A0903E02B0903F021814BC
:104A400019041A041B040CF043C00E94C406861605
:104A50009706A806B906E0F581E0809340028091B0
:104A6000380290913902A0913A02B0913B028093B2
:104A70002E0290932F02A0933002B09331028091C6
:104A8000340290913502A0913602B09137028093A2
:104A90002A0290932B02A0932C02B0932D028091B6
:104AA000420290914302892B09F06BC7609109057E
:104AB00070910A0580910B0590910C050E94983128
:104AC00060931A0270931B0280931C0290931D0244
:104AD00080914002882309F4ACC1EF2809F47BC11E
:104AE00020912A0230912B0240912C0250912D02EC
:104AF0006091050570910605809107059091080564
:104B00000E94FF2F25E33AEF4EE85CE30E943D331D
:104B10006B017C010E94FA3369A77AA78BA79CA737
:104B2000C701B6010E94E33069A37AA38BA39CA3BB
:104B300025E33AEF4EE85CE36091010570910205D0
:104B400080910305909104050E943D332B013C01A7
:104B500025E33AEF4EE85CE360912E0270912F025C
:104B600080913002909131020E943D336B017C01B3
:104B7000C301B2010E94FA334B015C01C301B201CF
:104B80000E94E3306DA37EA38FA398A7C701B6014F
:104B90000E94FA336DA77EA78FA798ABC701B60115
:104BA0000E94E3306B017C012DA53EA54FA558A9BD
:104BB0006DA17EA18FA198A50E943D3369AB7AAB10
:104BC0008BAB9CABA7019601C501B4010E943D339C
:104BD0006DAB7EAB8FAB98AF29A13AA14BA15CA185
:104BE0000E943D339B01AC0169A97AA98BA99CA9BC
:104BF0000E94FF2F9B01AC010E943D332B013C0121
:104C000029A53AA54BA55CA5C701B6010E943D3375
:104C10009B01AC010E943D339B01AC01C301B20179
:104C20000E9400300E9408342B013C012DA53EA5B6
:104C30004FA558A9C501B4010E943D334B015C0149
:104C4000A70196016DA17EA18FA198A50E943D3379
:104C500029A13AA14BA15CA10E943D339B01AC016B
:104C6000C501B4010E9400309B01AC01C301B20137
:104C70000E947F3026E73BE742EC5AE40E943D3336
:104C80000E9461316B017C016093260270932702C0
:104C90008093280290932902809101019091020152
:104CA000892B91F160911E0270911F02072E000C5A
:104CB000880B990B0E9498314B015C01C701B6012A
:104CC0000E9496316B017C01A5019401C501B401DC
:104CD0000E943D334B015C01A7019601C701B6015B
:104CE0000E943D339B01AC01C501B4010E9400301C
:104CF0000E9408340E94613160932602709327025B
:104D0000809328029093290280914202909143025D
:104D10000197D1F4609126027091270280912802B8
:104D2000909129020E94963128E439EF41E550E440
:104D30000E943D330E9461316093260270932702E6
:104D4000809328029093290229A13AA14BA15CA14A
:104D500069A97AA98BA99CA90E943D339B01AC014A
:104D60006DA97EA98FA998AD0E94FF2F6B017C01D0
:104D70002DA13EA14FA158A569A57AA58BA59CA5FB
:104D80000E943D33A70196010E947F306B017C0198
:104D900020E030E0A9010E94DE3087FF0AC02BED41
:104DA0003FE049EC50E4C701B6010E9400306B01BE
:104DB0007C0121EE3EE245E652E4C701B6010E94C5
:104DC0003D330E945A3160932202709323028093F4
:104DD0002402909325028091420290914302892BF4
:104DE00029F4E0900905F0900A0504C0E0900D0553
:104DF000F0900E05F0921902E09218020E946E0CDB
:104E0000A701FF0C660B770B85E00E946011809173
:104E1000030190910401892BE1F440911E0250910D
:104E20001F02052E000C660B770B84E00E946011B8
:104E300010C010922602109227021092280210929F
:104E40002902109222021092230210922402109240
:104E500025028091320290913302892B09F46EC0B1
:104E600040912602509127026091280270912902F8
:104E700087E00E94601140912202509123026091CC
:104E800024027091250257C0109238021092390204
:104E900010923A0210923B021092340210923502A4
:104EA0001092360210923702809103019091040112
:104EB000892B31F440E050E0BA0184E00E94601197
:104EC00020E030E0A90160E081E00E94791120E05B
:104ED00030E0A90161E082E00E94791140E050E0F9
:104EE000BA0185E00E94601140E050E0BA0183E021
:104EF0000E9460118091320290913302892BF1F06F
:104F000040E050E0BA0188E00E94601140E050E0CB
:104F1000BA018AE00E94601140E050E0BA018BE0E3
:104F20000E94601140E050E0BA0187E00E946011E9
:104F300040E050E0BA0189E00E94601180910C04C9
:104F400090910D04DC01ED91FC910480F581E02D40
:104F50000995803E51F48091200290912102873082
:104F600091050CF0EFC001960BC0803789F4809159
:104F7000200290912102181619060CF0E3C0019747
:104F8000909321028093200281E080930001DAC097
:104F9000803B09F0D7C080912002909121020197B7
:104FA000A9F4109243021092420260E080E090E087
:104FB0000E946C0C88E090E0909321028093200284
:104FC00081E080930001E0E0F0E00995809120020B
:104FD000909121020297B9F481E090E0909343020E
:104FE0008093420261E080E090E00E946C0C88E0D7
:104FF00090E0909321028093200281E08093000151
:10500000E0E0F0E009958091200290912102039761
:10501000A9F4109233021092320260E081E090E035
:105020000E946C0C88E090E0909321028093200213
:1050300081E080930001E0E0F0E00995809120029A
:10504000909121020497A9F481E090E090933302BB
:105050008093320261E00E946C0C88E090E09093B3
:1050600021028093200281E080930001E0E0F0E0E3
:10507000099580912002909121020597A9F4109240
:1050800002011092010160E082E090E00E946C0C4D
:1050900088E090E0909321028093200281E0809349
:1050A0000001E0E0F0E0099580912002909121025A
:1050B0000697B9F481E090E090930201809301019A
:1050C00061E082E090E00E946C0C88E090E09093B8
:1050D00021028093200281E080930001E0E0F0E073
:1050E00009958091200290912102079759F510921D
:1050F000430210924202109233021092320281E077
:1051000090E0909302018093010160E080E090E0E4
:105110000E946C0C6091320281E090E00E946C0C65
:105120006091010182E090E00E946C0C88E090E0C8
:10513000909321028093200281E080930001E0E0BF
:10514000F0E00995809100018823A1F1E09120020F
:10515000F0912102E830F10568F5E35AFF4F0C9415
:10516000522E65E771E080E090E00E94461065E80D
:1051700071E01AC065E971E011C063EB71E00EC027
:1051800060EC71E00BC06DEC71E008C06CED71E09B
:1051900005C06CEE71E002C06AEF71E080E090E063
:1051A0000E94461064EA71E081E090E00E9446109F
:1051B00010920001C090CB03D090CC03E090CD03BF
:1051C000F090CE03F6E9CF0ED11CE11CF11C0E9439
:1051D000C4066C157D058E059F0508F494C20E94D7
:1051E000C4066093CB037093CC038093CD0390935C
:1051F000CE0380914F04882351F180910C0490914B
:105200000D04DC01ED91FC910280F381E02D40E082
:105210006EE7099580910C0490910D04DC01ED91ED
:10522000FC910280F381E02D41E061E909958091D4
:105230000C0490910D04DC01ED91FC910280F3814E
:10524000E02D41E061E3099510924F0410C2F09007
:105250004E04FF2009F44BC0CF2C0F2C000CDD08AE
:10526000C6010E946F36892B31F0C6010E94763646
:10527000F82E00E001C001E080910C0490910D0433
:10528000DC01ED91FC910280F381E02D40E06EE7BE
:10529000099580910C0490910D04DC01ED91FC9135
:1052A0000280F381E02D41E062E0099580910C04D9
:1052B00090910D04DC01ED91FC910280F381E02DD1
:1052C000011102C062E201C063E241E009958091F0
:1052D0000C0490910D04DC01ED91FC910280F381AE
:1052E000E02D41E06F2D099510924E04C0C1209130
:1052F000E5033091E6032115310509F4B8C1609149
:10530000CF0381E0860F8093CF03611116C0109206
:105310001004109216040091E403802F880F880F68
:10532000880F80931704402F50E060ED73E088E110
:1053300094E00E947E36065F40C160FD34C06695F1
:1053400070E08091E9039091EA03861797075CF17A
:105350006150710940E050E0CE0101960E94CD0BF2
:10536000109210048B81809316048C8DB8E08B9F73
:10537000C00111249D8D892B8093170480E02AE0C1
:10538000280FE8E0F0E0EC0FFD1FE80FF11D908121
:10539000992339F08F5FE22FF0E0E25FFB4F9083BB
:1053A000EECF022F0AC180E480931004E12CF12C8F
:1053B00008E08091EB032091E5033091E603682F2C
:1053C00070E04091E7035091E803E4E08E9F400DC8
:1053D000511D1124CE0101960E94CD0B8C819D811F
:1053E000AE81BF818F3FFFEF9F07AF07BF0709F473
:1053F000C4C04B81E02FF0E05E8D31E0300F4031D2
:1054000060F0E25FFB4F252F2F70208322E0200FFA
:10541000E32FF0E0E25FFB4F0BC0232FE25FFB4F77
:1054200030E1439FB0011124352F3F70432F462BAD
:10543000408368A170E030E05430B9F128F455237E
:1054400069F05130D9F095C0583009F466C0593030
:1054500009F480C0553009F08CC042C0482F4F710C
:10546000B7FD02C080E001C080E8F901E25FFB4FB8
:10547000842B9F8D892B808381E07CC0F901E25FC2
:10548000FB4F8083A9014F5F5F4FE92FEF71B7FD9D
:1054900002C080E001C080E8DA01A25FBB4F8E2B22
:1054A0009F8D892B8C9382E065C0A90145535C4F89
:1054B000FA01ED5BFF4F808331969083A9014E5F27
:1054C0005F4FEA2FEF71B7FD02C080E001C080E8B6
:1054D000DA01A25FBB4F8E2B9F8D892B8C931BC053
:1054E000A90145535C4FFA01ED5BFF4F8083319674
:1054F0009083A9014E5F5F4F4D01BB2497FCB09490
:10550000AB2CB7FD02C080E001C080E8FA01E25F89
:10551000FB4F882A808283E02DC0A90145535C4F50
:10552000FA01ED5BFF4F8083319690833196A08323
:10553000A9014D5F5F4FEB2FEF71B7FD02C080E017
:1055400001C080E8DA01A25FBB4F8E2B9F8D892BB3
:105550008C930DC0A90145535C4FFA01ED5BFF4FE1
:105560008083319690833196A0833196B08384E016
:1055700001C080E0082F020F02C060E070E080915F
:10558000EB038F5F8093EB032091E9033091EA03F3
:1055900090E08217930714F01092EB034FEFE41A98
:1055A000F40AE216F3064CF4802F90E09101261BDA
:1055B000370B821793070CF4FCCE8EE780930E0412
:1055C0008FE280930F04809110049EEF900F892B3F
:1055D0008093100489E08093110484EA809312047C
:1055E000809150048093130480915104809314049B
:1055F00010921504E02FF0E0A0E1B4E080E027E095
:1056000099AD9A0F901760F49D91892798E087FFD4
:1056100003C0880F822701C0880F9150C1F7F0CFD7
:10562000E25FFB4F808380910C0490910D04DC01BC
:10563000ED91FC910280F381E02D40E06EE7099549
:10564000FF24F3940F1598F080910C0490910D04B1
:10565000DC01ED91FC91AF2DB0E0A25FBB4F028069
:10566000F381E02D41E06C910995F394EBCF8091AB
:105670000C0490910D04DC01ED91FC910280F3810A
:10568000E02D40E06EEF099580912E04882331F1E2
:105690009EE2E92E94E0F92E80910C0490910D0485
:1056A000F70161917F01DC01ED91FC910280F381B2
:1056B000E02D41E00995BEE4EB16B4E0FB0661F78E
:1056C00080910C0490910D04DC01ED91FC9102801D
:1056D000F381E02D40E06FEF099515C080E2E82EE0
:1056E000F12C80910C0490910D04DC01ED91FC9162
:1056F0000280F381E02D41E060E00995B1E0EB1A12
:10570000F10879F7DDCF80E090E0892B11F40C945B
:105710000C1C0E9400000C940C1C86E780936B0507
:10572000809174058F3F19F40E94350F1CC061E011
:105730000E94D90561E0809174050E94090680915C
:1057400077058F3F19F40E941A070DC061E00E948F
:10575000090661E0809175050E94090660E080916C
:1057600076050E940906809174058F3FB1F48091FF
:105770006B050E94ED0D60ED8FEB93E00E94A1049C
:105780000E94F70D61E080916B050E94920E8FEBF5
:1057900093E00E945504182F1FC0809177058F3F1A
:1057A00021F481E590E00E94510760E0809174054A
:1057B0000E94D90580ED0E945B0F80E00E945B0F84
:1057C000182F61E0809174050E94D90580917705BA
:1057D0008F3F11F40E945007183509F08BC088E8FC
:1057E0000E949B0F90937905809378058AE80E9428
:1057F0009B0F90937B0580937A058CE80E949B0F0A
:1058000090937D0580937C058EE80E949B0F90937A
:105810007F0580937E0580E90E949B0F9093810510
:105820008093800582E90E949B0F9093830580936B
:10583000820584E90E949B0F9093850580938405DF
:1058400086E90E949B0F909387058093860588E9DF
:105850000E949B0F90938905809388058AE90E9496
:105860009B0F90938B0580938A058CE90E949B0F78
:1058700090938D0580938C058EE90E949B0F9093E9
:105880008F0580938E05809174058F3F89F48091F8
:105890006B050E94ED0D64EF8FEB93E00E94A10475
:1058A0006FE38FEB93E00E94A1040E94F70D1EC0EE
:1058B000809177058F3F21F481E590E00E945107A8
:1058C00060E0809174050E94D90584E70E945B0F17
:1058D0008FE30E945B0F61E0809174050E94D905FF
:1058E000809177058F3F11F40E94500782E090E08D
:1058F0000C94221B87E780933A05809143058F3FE4
:1059000019F40E94350F1CC061E00E94D90561E0C6
:10591000809143050E940906809146058F3F19F446
:105920000E941A070DC061E00E94090661E08091A3
:1059300044050E94090660E0809145050E94090621
:1059400080ED0E949C0E803611F00C944A1B66EB91
:1059500080EE0E94540E6CE271E080E090E00E94C4
:105960008A0683EF0E949C0E80FD02C00C94461AAA
:1059700064E670E080E090E0F2CF109241020C9477
:10598000832460910D0570910E0580910F05909113
:10599000100594C868ED74E0C6010E948E36181692
:1059A000190614F00C94D6211092EE041092ED0416
:1059B0000C94D621EFEBF3E01382128288EE93E091
:1059C000A0E0B0E084839583A683B78389E391E068
:1059D00091838083EBE6F5E08FEF81878287838771
:1059E0008487EAE3F5E08187828783878487E2E51D
:1059F000F4E01082118213821282148215821682C0
:105A000017821086128611861386148615861686CE
:105A10001786118A108A128A138A148A158A168A9E
:105A2000108E178A118E128E138E148E158E12A25E
:105A300013A214A215A216A217A210AA11AA12AAA2
:105A400013AA14AA15AA109290041092910410920D
:105A50009604109297041092980410929904109250
:105A60009E0410929F041092A4041092A504109218
:105A7000A6041092A7041092AC041092AD041092E8
:105A8000B2041092B3041092B4041092B5041092B0
:105A9000BA041092BB041092C0041092C104109278
:105AA000C2041092C3041092C8041092C904109248
:105AB000CE041092CF041092D0041092D104109210
:105AC000D6041092D70482E08093E7041092E80491
:105AD0001092E9041092EA041092EC041092EB0484
