:100000000C94A1030C94C9030C94C9030C94C90368
:100010000C94C9030C94C9030C94C9030C94C90330
:100020000C94C9030C94C9030C9427070C94D107B2
:100030000C94E0060C94C9030C94C9030C94C903F6
:100040000C9496060C94C9030C94880B0C94C40B66
:100050000C941F0C0C94C9030C94C9030C94C90391
:100060000C945E0A0C94C903C423D623D923E0233D
:10007000E72315241C242924362442244224422424
:100080004224422442244224422442244224422440
:100090004224422442244224422442244224422430
:1000A0004224422442244224C423D123D623D923E8
:1000B000E023E723EE23FB23082441275427462788
:1000C0005E276C2775279F27C227CB27D927E027D4
:1000D000E7279326AC26472B1C27B526E8260127C1
:1000E00009274D2B532B592B5F2BA62B084AD73BA7
:1000F0003BCE016E84BCBFFDC12F3D6C74319ABDF7
:1001000056833DDA3D00C77F11BED9E4BB4C3E911A
:100110006BAAAABE000000803F05A84CCDB2D44E09
:10012000B93836A9020C50B9918688083CA6AAAA0B
:100130002ABE000000803F08000000BE9224491241
:100140003EABAAAA2ABECDCCCC4C3E00000080BE5D
:10015000ABAAAAAA3E00000000BF000000803F003A
:1001600000000000084178D3BB4387D1133D190E2E
:100170003CC3BD4282AD2B3E68EC8276BED98FE196
:10018000A93E4C80EFFFBE01C4FF7F3F000000008E
:100190000007634236B79BD8A71A39685618AEBA1B
:1001A000AB558C1D3CB7CC5763BD6DEDFD753EF670
:1001B000177231BF000000803F0020446973616204
:1001C0006C65640020456E61626C656400002053BC
:1001D00074617274757000204175746F00000000C6
:1001E000204D616E75616C00002044697361626C22
:1001F000656400000000000000204174746F5069C5
:100200006C6F74203435000000204174746F5069A5
:100210006C6F74203930000000204174746F506995
:100220006C6F742031383000002041504D322E3533
:10023000203930412F353056002041435337313279
:100240002D3035000000000000204143533731328B
:100250002D3230000000000000204143533731327E
:100260002D33300000000000002041435337353863
:100270002D3530420000000000204143533735380F
:100280002D313030420000000020414353373538D3
:100290002D313530420000000020414353373538BE
:1002A0002D323030420000000020414353373538B2
:1002B0002D353055000000000020414353373538BC
:1002C0002D31303055000000002041435337353880
:1002D0002D3135305500000000204143533735386B
:1002E0002D323030550000000020756E6B6E6F7738
:1002F0006E0020424D50323830000020424D4532D1
:1003000038300000204D53353631310000204C503C
:1003100053000000000020334400203244002044F9
:10032000697361626C6564002042617369630000F7
:10033000000020457874656E6465640056657273CC
:10034000696F6E2056322E32000000000056617236
:10035000696F4750532053656E736F72000052658A
:10036000736574206F666673657400000000004753
:100370005053206D6F64653A0000000000000000DB
:100380004750532064697374616E63653A000000DE
:100390000050726573737572652073656E736F724A
:1003A0003A00566172696F20736D6F6F7468696E81
:1003B000673A00566172696F20646561647A6F6E96
:1003C000653A00004D61696E2064726976653A0095
:1003D00000000000004361706163697479207265F8
:1003E0007365743A000052783120766F6C746167DF
:1003F000653A000000000052783220766F6C74611C
:1004000067653A00000000004578742E2054656D41
:10041000703A000000000000005361766520616EB4
:10042000642072657374617274004C6F616420643F
:10043000656661756C7473000000000000000024A4
:100440000027002A00014C6174697475646500001E
:10045000000000000000000000002000000000007C
:10046000000900024C6F6E676974756465000000D6
:100470000000000000000000200000000000000953
:100480000003537065656400000000000000000078
:100490000000000000006B6D2F68000000010004E8
:1004A00052656C2E20416C746974000000000000DD
:1004B000000000006D000000000000040105416C18
:1004C000746974756465000000000000000000009D
:1004D00000006D0000000000000400065661726913
:1004E0006F0000000000000000000000000000009D
:1004F0006D2F730000000004020744697374616E7D
:1005000063650000000000000000000000006D00B6
:100510000000000000040008547269700000000030
:100520000000000000000000000000006B6D0000F3
:1005300000000004020948656164696E67000000FC
:1005400000000000000000000000B00000000000FB
:100550000001000A436F757273650000000000001F
:100560000000000000000000B000000000000001DA
:10057000000B536174656C6C697465730000000056
:100580000000000000002000000000000000000C3F
:1005900048444F5000000000000000000000000030
:1005A000000000002000000000000001020D507259
:1005B00065737375726500000000000000000000A4
:1005C00000006850610000000004020E54656D7068
:1005D0006572617475726500000000000000000023
:1005E000B043000000000001010F48756D696469A7
:1005F0007479000000000000000000000000257277
:100600004800000000010110566F6C7461676500BE
:100610000000000000000000000000005600000084
:1006200000000001011143757272656E74000000D4
:100630000000000000000000000041000000000079
:100640000001011243617061636974790000000068
:1006500000000000000000006D4168000000000480
:100660000013506F7765720000000000000000006A
:10067000000000000000570000000000000400140B
:1006800052783120566F6C7461676500000000007D
:100690000000000056000000000000010215527822
:1006A0003220566F6C746167650000000000000026
:1006B0000000560000000000000102164578742E6C
:1006C0002054656D70000000000000000000000074
:1006D000B043000000000001010000000000000025
:1006E000000000000000000000000000000000000A
:1006F0000000000000000000000000250028002B82
:1007000000040404040404040402020202020203BA
:1007100003030303030102040810204080010204C4
:100720000810200102040810200000000800020147
:100730000000030407000000000000000000EB2B95
:10074000CD2B11241FBECFEFD8E0DEBFCDBF11E00F
:10075000A0E0B1E0E6EDF1E702C005900D92AA3904
:10076000B107D9F724E0AAE9B1E001C01D92A93F81
:10077000B207E1F713E0C0EAD3E004C02197FE011D
:100780000E94CD32CF39D107C9F70E9421170C94AE
:10079000DE380C940000CF92DF92EF92FF920F931D
:1007A0001F93CF93DF936C017A018B01C0E0D0E0FF
:1007B000CE15DF0581F0D8016D918D01D601ED9147
:1007C000FC910190F081E02DC6010995892B11F073
:1007D0002196EECF7E01C701DF91CF911F910F913E
:1007E000FF90EF90DF90CF9008953FB7F8948091FD
:1007F000CD029091CE02A091CF02B091D00226B549
:10080000A89B05C02F3F19F00196A11DB11D3FBF48
:10081000BA2FA92F982F8827820F911DA11DB11DD6
:10082000BC01CD0142E0660F771F881F991F4A95D2
:10083000D1F7089550919E0140919D01852F90E040
:10084000242F30E0541710F4805B9F4F821B930BD2
:10085000089580919E01E0919D018E1751F0EF5F08
:10086000E03508F0E0E0F0E0E858FD4F808190E0EE
:1008700008958FEF9FEF089580919E0190919D01C3
:10088000891769F09F5F903508F090E0E92FF0E05C
:10089000E858FD4F808190939D0190E008958FEF7F
:1008A0009FEF089585ED8093BC008091BC0084FD8E
:1008B000FCCF10921903089540910B02262F30E0CF
:1008C000240F311D21323105DCF42091190324302D
:1008D000C9F4FC0180E090E0861758F430910B02D7
:1008E0002191DC01A551BE4FA30FB11D2C930196A0
:1008F000F3CF80910B02680F60930B0280E00895A4
:1009000081E0089582E008950895E091D2028091F7
:10091000D102E81730F4F0E0ED52FD4F808190E015
:1009200008958FEF9FEF08959091D2028091D102A8
:10093000981750F4E92FF0E0ED52FD4F208130E0A0
:100940009F5F9093D20202C02FEF3FEFC90108953D
:100950008091D10290E02091D202821B91090895EA
:10096000CF92DF92EF92FF920F931F93CF93DF937B
:100970007C01CB018A0120911A03222389F0EB012B
:100980006B01C40ED51ECC15DD0569F06991D70148
:10099000ED91FC910190F081E02DC7010995F3CF15
:1009A000642F0E945C04C801DF91CF911F910F91C9
:1009B000FF90EF90DF90CF900895CF93DF931F9239
:1009C000CDB7DEB7698320911A032223D1F020919D
:1009D0003C03203240F021E030E0FC0133832283ED
:1009E00080E090E015C080911B03E82FF0E0E45E0A
:1009F000FC4F998190838F5F80931B0380933C030E
:100A000005C061E0CE0101960E945C0481E090E0A7
:100A10000F90DF91CF9108951F93CF93DF93F894B8
:100A2000EC01CA57DF4F2881203400F5DC01AE57B6
:100A3000BF4F1C9111965C91119770E0411103C05A
:100A400020E030E002C020E031E0622B732BE12F88
:100A5000F52F71836083329628812F5F2883EA17F0
:100A6000FB0710F0FC013296ED93FC93FC01E0577C
:100A7000FF4F8081811108C081E080838091C10097
:100A80008F7688628093C1007894DF91CF911F9117
:100A90000895FC01E157FF4F2081222301F1F894D2
:100AA000A091E901B091EA01A357BF4F0D90BC910D
:100AB000A02D4C91208121502083329720813181BB
:100AC0002F5F3F4FBC0165577F4F2617370718F040
:100AD0009C0129573F4F31832083789401C040E027
:100AE000842F0895089580919C018111FCCF089571
:100AF00080919B018F5F843408F080E090919A018F
:100B00009817E1F32FB7F89490919C01992341F045
:100B1000E82FF0E0E25DFD4F608380939B011DC0F4
:100B200081E080939C01609373021092720282E0D4
:100B300086BB80916F00826080936F0080918000FF
:100B40008F7B8068809380008091840090918500E5
:100B5000409690938900809388002FBF81E090E0B9
:100B6000089580E090E008950E94E135CF93DF93EF
:100B700090E0FC01EB5EF84F2491FC01EF5FF84F31
:100B80008491882361F190E0880F991FFC01E55C56
:100B9000FB4FC591D491FC01E950F94FA591B49157
:100BA000611109C09FB7F8948881209582238883BA
:100BB000EC912E230BC0623061F49FB7F8948881CA
:100BC000322F309583238883EC912E2B2C939FBF5B
:100BD00006C08FB7F894E8812E2B28838FBFDF9152
:100BE000CF9108951092C0008CE08093C10086E3FD
:100BF0008093C2001092C50086E68093C40062E034
:100C000080E00E94B60562E081E00C94B605CF93C7
:100C1000DF93EC010E94F205FE01329680E8DF01CD
:100C20001D928A95E9F7DE01AE57BF4F1196FC93EE
:100C3000EE931296ED93FC93EC57FF4F1082319692
:100C400084E0DF011D928A95E9F7DE01A557BF4FC9
:100C50001196FC93EE931296ED93FC9338961082C6
:100C600031961082D093EA01C093E901DF91CF91D0
:100C700008958E3008F08E508770806480937C00D9
:100C800080917A00806480937A0080917A0086FD5A
:100C9000FCCF809178002091790090E0922B08950C
:100CA0008F929F92AF92BF92CF92DF92EF92FF927C
:100CB0006B017C010E94F5034B015C01C114D1045E
:100CC000E104F104F1F00E94F503DC01CB01881985
:100CD0009909AA09BB09883E9340A105B10570F3A3
:100CE00021E0C21AD108E108F10888EE880E83E0FD
:100CF000981EA11CB11CC114D104E104F10419F720
:100D0000DDCFFF90EF90DF90CF90BF90AF909F909E
:100D10008F9008952FB7F8946091C9027091CA021C
:100D20008091CB029091CC022FBF08951F920F9219
:100D30000FB60F9211242F933F938F939F93AF93EE
:100D4000BF938091C9029091CA02A091CB02B09149
:100D5000CC023091C80223E0230F2D3720F40196F6
:100D6000A11DB11D05C026E8230F0296A11DB11DCE
:100D70002093C8028093C9029093CA02A093CB0229
:100D8000B093CC028091CD029091CE02A091CF027F
:100D9000B091D0020196A11DB11D8093CD02909318
:100DA000CE02A093CF02B093D002BF91AF919F919A
:100DB0008F913F912F910F900FBE0F901F9018951C
:100DC0001F920F920FB60F9211242F938F939F9320
:100DD000EF93FF9380916F008B7F80936F008091E2
:100DE00081008F7B8093810080919F012091770209
:100DF000205890917602893020F49695922B8F5F3F
:100E0000FACF9093760280919E018F5F803508F033
:100E100080E020919D01821739F0E82FF0E0E8583A
:100E2000FD4F908380939E0110929F0180918100DD
:100E30008F7B8093810010927702FF91EF919F91B9
:100E40008F912F910F900FBE0F901F9018951F92AA
:100E50000F920FB60F9211242F933F934F935F93EE
:100E60006F937F938F939F93AF93BF93EF93FF9372
:100E700080918600909187004091770220918100B7
:100E8000442331F02F7B209381001092770206C01B
:100E900020642093810020E82093770230919F0105
:100EA000311125C041116CC02091A0013091A101E8
:100EB000280F391F30938B0020938A0024E026BB33
:100EC00020916F00246020936F002091A201309147
:100ED000A301820F931F36952795820F931F90933E
:100EE00075028093740281E080939F0149C0409114
:100EF0007402509175026091A2017091A301DB010F
:100F0000A095B09520917602E0917702841B950B15
:100F1000A817B90768F126952E2B460F571F3F5F7C
:100F2000861B970B3930A0F32093760280916F00D7
:100F30008B7F80936F0080919E018F5F803508F0DA
:100F400080E090919D01891749F0E82FF0E09091A1
:100F50007602E858FD4F908380939E018091810036
:100F60008F7B809381001092770210929F0108C0BE
:100F700020937602509375024093740230939F0140
:100F8000FF91EF91BF91AF919F918F917F916F9161
:100F90005F914F913F912F910F900FBE0F901F9037
:100FA00018951F920F920FB60F9211242F933F9313
:100FB0004F935F936F937F938F939F93EF93FF93E1
:100FC00080919C016091730220918800309189008A
:100FD0004091A2015091A301909172028A30F8F4DD
:100FE000240F351F893019F0762F717001C071E020
:100FF00066958F5F791791F390918000772311F0B8
:10100000906C02C09F7B9068909380003093890021
:101010002093880070937202609373024AC090918B
:101020009B01E0919A019E1319C08A3051F48BE024
:1010300080939C01240F351F3093890020938800F2
:101040003AC010929C01809180008F738093800041
:1010500080916F008D7F80936F002DC0EF5FE4342F
:1010600008F0E0E0E0939A01F0E0E25DFD4F90814E
:101070009093730210927202909180009F7B90680F
:10108000909380008A3059F48091A2019091A3013D
:10109000280F391F309389002093880009C0809160
:1010A00084009091850040969093890080938800F9
:1010B00081E080939C01FF91EF919F918F917F91AF
:1010C0006F915F914F913F912F910F900FBE0F90B5
:1010D0001F901895CF93DF93EC018A859B85AC8593
:1010E000BD858E839F83A887B9870E948A066A83FD
:1010F0007B838C839D8381E089838883DF91CF917B
:101100000895CF93DF93EC018E819F81A885B985E7
:101110008A839B83AC83BD830E948A066A877B8710
:101120008C879D8781E089838883DF91CF910895A3
:101130004F925F926F927F928F929F92AF92BF92E7
:10114000CF92DF92EF92FF920F931F93CF93DF9393
:10115000CDB7DEB760970FB6F894DEBF0FBECDBF38
:1011600069837A838B839C83CA01B9012701380183
:10117000A60195010E94422D25E33AEF4EE85CE37B
:101180000E94D0306B017C010E948D316D877E877B
:101190008F87988BC701B6010E94262E6D837E83B0
:1011A0008F83988725E33AEF4EE85CE369817A8183
:1011B0008B819C810E94D0304B015C0125E33AEF8A
:1011C0004EE85CE3C301B2010E94D0302B013C0128
:1011D000C501B4010E948D3169837A838B839C831E
:1011E000C501B4010E94262E4B015C01C301B2016E
:1011F0000E948D3169877A878B879C87C301B201F2
:101200000E94262E6B017C0129853A854B855C85E1
:10121000C501B4010E94D0302B013C01A701960109
:1012200069817A818B819C810E94D0302D813E81A1
:101230004F8158850E94D0309B01AC01C301B2019F
:101240000E94422D9B01AC010E94D0302B013C0139
:10125000A70196016D857E858F8598890E94D03083
:101260009B01AC010E94D030A30192010E94432D4A
:101270000E949B312B013C01A7019601C501B401DD
:101280000E94D0302D813E814F8158850E94D03000
:101290004B015C0129853A854B855C8569817A81A2
:1012A0008B819C810E94D0309B01AC01C501B401AF
:1012B0000E94432D9B01AC01C301B2010E94C22DCB
:1012C00026E73BE742EC5AE40E94D03060960FB626
:1012D000F894DEBF0FBECDBFDF91CF911F910F916C
:1012E000FF90EF90DF90CF90BF90AF909F908F9046
:1012F0007F906F905F904F9008952F923F924F9202
:101300005F926F927F928F929F92AF92BF92CF9295
:10131000DF92EF92FF920F931F93CF93DF93D82F1B
:10132000C92F8B010E94E72C24E630E040E050E01A
:101330000E948C3249015A019B01AC0160E876E9B8
:1013400088E990E00E947C326B017C01F801918277
:101350008082ED2FFC2F2191822F022E000C990B01
:10136000C0970A97C0F32E3239F51F0180E8882E06
:1013700086E9982E88E9A82EB12C9AE0492E512CA6
:10138000612C712CF101C1911F010C2E000CDD0BA1
:10139000E097CA30D10580F4C501B401A3019201E0
:1013A0000E948C3249015A01DE010E94DE32C60ED3
:1013B000D71EE81EF91EE6CFA5E0B0E0A701960112
:1013C0000E94D3326F5F7F4F8F4F9F4F23E030E0FB
:1013D00040E050E00E948C32F80122833383448342
:1013E00055831682DF91CF911F910F91FF90EF905F
:1013F000DF90CF90BF90AF909F908F907F906F9035
:101400005F904F903F902F900895FF920F931F93FE
:10141000CF93DF93EC01F8802DE2F21201C0219608
:10142000CE010E94E72C9B01AC01A4E6B0E00E9433
:10143000D332FE014991242F042E000C330B20538C
:1014400031092A303105A8F34E3241F52181022EAF
:10145000000C330B205331092A303105F8F44AE0EF
:10146000429F8001439F100D1124012E000C220B7E
:10147000330B600F711F821F931F0281002E000C1F
:10148000110B005311090A30110540F4012E000C14
:10149000220B330B600F711F821F931F2DE2F2127C
:1014A00007C090958095709561957F4F8F4F9F4FA6
:1014B000DF91CF911F910F91FF9008951F920F928E
:1014C0000FB60F9211242F933F934F935F936F9317
:1014D0007F938F939F93AF93BF93EF93FF938091ED
:1014E000B900887F803609F49CC068F5883209F419
:1014F0005BC090F4803109F454C038F4882309F4B7
:10150000F2C0883009F44DC0F2C0883109F44CC0F3
:10151000803209F45DC0EBC0803409F468C048F43F
:10152000803309F455C0883309F0E1C08093170374
:10153000D4C0803509F44FC0883509F45DC08834C3
:1015400009F0D5C0D2C0883909F4C3C0A8F48837DF
:1015500009F467C038F4883609F463C0803709F4A9
:1015600060C0C5C0883809F4B4C0803909F45FC0D0
:10157000803809F0BCC05BC0803B09F484C038F4FB
:10158000803A09F466C0883A09F47DC0B0C0803C56
:1015900009F4A3C0883C09F4A0C0883B09F486C0C4
:1015A000A6C08091F40210C090911603809115039B
:1015B000981770F5E091160381E08E0F8093160363
:1015C000F0E0EB50FD4F80818093BB0085EC82C042
:1015D000809317038AC0E091160381E08E0F8093F9
:1015E00016038091BB00F0E0EB50FD4F808390919B
:1015F0001603809115036AC0E091160381E08E0FF7
:10160000809316038091BB00F0E0EB50FD4F808388
:1016100080911803811169C081E08093F30284EA0C
:101620005DC083E08093190310922D02CFCF80918B
:101630002D02803208F04DC0E0912D0281E08E0F26
:1016400080932D028091BB00F0E0E35FFD4F80832B
:10165000BDCF85EC8093BC001092190380912D02C0
:10166000803230F4E0912D02F0E0E35FFD4F108214
:1016700060912D0270E08DE092E0E0E0F0E00995ED
:1016800010922D0234C084E08093190310920C0252
:1016900010920B02E0E0F0E0099580910B028111BD
:1016A00005C081E080930B021092EB01E0910C02E7
:1016B00081E08E0F80930C02F0E0E551FE4F8081B7
:1016C0008093BB0090910C0280910B02981708F454
:1016D0007DCF85E88093BC000AC085EC8093BC0078
:1016E0001092190304C0109217030E945204FF9134
:1016F000EF91BF91AF919F918F917F916F915F918A
:101700004F913F912F910F900FBE0F901F90189502
:101710001F920F920FB60F9211242F933F938F9326
:101720009F93AF93BF93EF93FF938091C600803F49
:10173000F1F0982F9F70D9F42091E9013091EA01DE
:10174000F901E557FF4FA081B1818C93D901A157D1
:10175000BF4F8C918F5F8C938081918101968E1702
:101760009F0718F0C90189579F4F91838083FF918C
:10177000EF91BF91AF919F918F913F912F910F90DA
:101780000FBE0F901F9018951F920F920FB60F92D9
:1017900011242F933F934F935F938F939F93EF93D6
:1017A000FF938091E9019091EA01FC01EA57FF4F14
:1017B0002081222351F132970190F081E02D208188
:1017C00031818091C10030FF02C0816001C08E7FF5
:1017D0008093C1002093C6002091E9013091EA0175
:1017E000F901EA57FF4F80818150808332978081D1
:1017F00091810296A9014E575F4F8417950710F00B
:10180000C9010296918380830DC08091C1008F7DB4
:1018100080648093C100E091E901F091EA01E05712
:10182000FF4F1082FF91EF919F918F915F914F91A8
:101830003F912F910F900FBE0F901F9018951F9200
:101840000F920FB60F9211242F933F938F939F9374
:10185000EF93FF93E1ECF0E08081877B80698083E8
:101860008091E9019091EA019C0129573F4FFC01C9
:10187000E557FF4F318320833296318320833296A0
:101880001082FF91EF919F918F913F912F910F9037
:101890000FBE0F901F901895CF92DF92EF92FF929C
:1018A0000F931F93CF93DF93EB017B0124E0E20EB4
:1018B000F11C8B016C01C61AD70AC601800F911F5B
:1018C0000E942C2DF80181938F01EE15FF05A9F7D9
:1018D000CE01DF91CF911F910F91FF90EF90DF909C
:1018E000CF900895AF92BF92DF92EF92FF920F9345
:1018F0001F93CF93DF93EC017B018B015C0184E0AC
:10190000A80EB11CF801D1908F01CE010E942C2DA0
:10191000D81621F06D2DCE010E94342D2196CA15C6
:10192000DB0581F7C701DF91CF911F910F91FF90E8
:10193000EF90DF90BF90AF9008950C94342D0C94ED
:101940002C2D8091A401853010F48150089585508C
:10195000833010F085E0089584E00895CF93C82F78
:10196000862F0E943906BC01990F880B990B0E94A3
:10197000DB2E20E030EC4FE754E40E942B2E20E0D9
:1019800030E44CE955E40E94D03024E0C29FF001DD
:101990001124E95DFE4F20813181428153810E94F3
:1019A000D0300E949D2ECF91089530913C0331326A
:1019B00008F04BC0809119038111FCCF9091D204A3
:1019C00022E02093190321E0209318032FEF2093A6
:1019D00017031092160330931503ECE1F3E0A5EF23
:1019E000B2E020E0321721F041914D932F5FFACF02
:1019F0001092F4022091F402990F922B9093F4022A
:101A00009091F302913061F41092F3029091F402FC
:101A10009093BB009091BC0093FDF8CF95EC01C072
:101A200095EE9093BC00909119039230E1F3909160
:101A300017039F3F79F080911703803241F0809126
:101A40001703803331F084E005C081E003C082E0F9
:101A500001C083E010921B0310923C0310921A0302
:101A6000089591E090931A038093D20410921B037F
:101A700010923C030895CF93DF93D82FC62F809107
:101A80005F030E94310D6D2F8DE393E00E94DD0412
:101A90006C2F8DE393E00E94DD04DF91CF910C94D5
:101AA000D50C909119039111FCCF91E090931903FB
:101AB000909318032FEF2093170310921603260F0D
:101AC000209315039093F4029091F402880F892BD0
:101AD0008093F4028091F302813061F41092F3025A
:101AE0008091F4028093BB008091BC0083FDF8CF0D
:101AF00085EC01C085EE8093BC0080911903813094
:101B0000E1F380911603861710F460911603A5EF98
:101B1000B2E0E3EDF2E080E0861721F09D91919331
:101B20008F5FFACF0895613208F060E20E94510D94
:101B30001092D2028093D10208951F93CF93DF9326
:101B4000182FCFE5D3E088810E94310D612F8DE3FE
:101B500093E00E94DD040E94D50C61E088810E9420
:101B6000930D8DE393E00E949404DF91CF911F9138
:101B700008958F929F92AF92BF92CF92DF92EF9291
:101B8000FF92CF93DF93F82ECFE5D3E088810E94B8
:101B9000310D6F2D8DE393E00E94DD040E94D50C82
:101BA00063E088810E94930D8DE393E00E9494048A
:101BB0004C01990FAA08BB08BA2CA92C982C882490
:101BC0008DE393E00E9494046C01990FEE08FF08E6
:101BD000C828D928EA28FB28FE2CED2CDC2CCC24A4
:101BE0008DE393E00E949404092E000CAA0BBB0B1A
:101BF000BC01CD016C297D298E299F29DF91CF91D0
:101C0000FF90EF90DF90CF90BF90AF909F908F901C
:101C100008951F93CF93DF93182FCFE5D3E08881EA
:101C20000E94310D612F8DE393E00E94DD040E943C
:101C3000D50C62E088810E94930D8DE393E00E94B1
:101C40009404C82F8DE393E00E94940420E030E0D8
:101C50003C2F822B932BDF91CF911F9108950E94EF
:101C6000090E9827892798270895CF9366EB80EE71
:101C70000E943B0D64E670E080E090E00E94500618
:101C800088E80E942F0E90936A03809369038AE884
:101C90000E942F0E90936C0380936B038CE80E943C
:101CA0002F0E90936E0380936D038EE80E942F0E8B
:101CB0009093700380936F0380E90E942F0E90939E
:101CC00072038093710382E90E942F0E9093740334
:101CD0008093730384E90E942F0E90937603809380
:101CE000750386E90E942F0E909378038093770303
:101CF00088E90E942F0E90937A03809379038AE9F2
:101D00000E942F0E90937C0380937B038CE90E94AA
:101D10002F0E90937E0380937D038EE90E942F0EF9
:101D20009093800380937F03809160038230F1F56C
:101D300081EA0E949D0D8093810381EE0E942F0E07
:101D4000909383038093820383EE0E949D0D809382
:101D5000840384EE0E949D0DC82F85EE0E949D0D88
:101D600040E1C49F900111248F70282B309386038B
:101D70002093850386EE0E949D0DC82F85EE0E945C
:101D80009D0D90E1C99F9001112490E044E095954C
:101D900087954A95E1F7822B932B90938803809344
:101DA000870387EE0E949D0D8093890389ED8093C0
:101DB0008B0380918C038F71806280938C03809160
:101DC0008A03807C806280938A03809160038230E2
:101DD00021F461E082EF0E943B0D90918A03692F0C
:101DE000677040E2649F90011124892F8695869543
:101DF0008695877048E0849FB0011124622B732B75
:101E000097FB992790F9692B85EF0E943B0D9091E4
:101E10008B03692F677080E2689F90011124892FDE
:101E2000869586958695877048E0849FB001112439
:101E3000622B732B9295969596959370692B84EFF0
:101E4000CF910C943B0D90E0FC01E75DF84F24919D
:101E5000FC01EB5EF84F3491FC01EF5FF84FE49129
:101E6000EE23B1F1222339F1233091F038F42130FF
:101E7000A9F0223001F584B58F7D12C0273091F092
:101E80002830A1F02430B9F4809180008F7D03C008
:101E9000809180008F77809380000DC084B58F770C
:101EA00084BD09C08091B0008F7703C08091B000DD
:101EB0008F7D8093B000F0E0EE0FFF1FE950F94FE7
:101EC000A591B4918FB7F894EC91E32BEC938FBF6D
:101ED00008951092D2021092D10210921B03109218
:101EE0003C031092190381E0809318031092F302CF
:101EF00082E10E94230F83E10E94230FE9EBF0E0CF
:101F000080818E7F808380818D7F808388E4809331
:101F1000B80085E48093BC00089580935F030E941D
:101F2000690F80ED0E949D0D883521F0803641F4C7
:101F300082E001C081E0809360030E94350E02C000
:101F4000109260038091600390E008958F929F92B9
:101F5000AF92BF92CF92DF92EF92FF920F931F93B7
:101F60008AEF0E94B90DEFE5F3E00285138520E0CA
:101F700030E0C72ED82EE92EFF24E7FCFA94C01AD1
:101F8000D10AE20AF30ADC01CB0157E0B595A79527
:101F9000979587955A95D1F7000F111F221F331F70
:101FA0004C015D01801A910AA20AB30AA5019401AD
:101FB000A485B5850E94DE324B015C017BE0B594BF
:101FC000A794979487947A95D1F7A7019601C701B2
:101FD000B6010E947C329B01AC01ACE0559547955F
:101FE00037952795AA95D1F7A685B7850E94DE3249
:101FF000DC01CB011EE0B595A795979587951A95BD
:10200000D1F7A5019401280F391F4A1F5B1F2683B2
:10201000378340875187A5E0B0E00E94D332DC01CE
:10202000CB0180589F4FAF4FBF4F692F7A2F8B2F17
:10203000992787FD9A950E94DB2E20E030E048EC3E
:1020400052E40E942B2E1F910F91FF90EF90DF9092
:10205000CF90BF90AF909F908F9008952F923F9216
:102060004F925F926F927F928F929F92AF92BF92A8
:10207000CF92DF92EF92FF920F931F93CF93DF9354
:10208000CDB7DEB76B970FB6F894DEBF0FBECDBFEE
:102090000E94A60F87EF0E94B90D6E8B7F8B888FF1
:1020A000998F8091650390916603A0916703B09129
:1020B00068036C017D01FF0CCC08DC2C76019C01CF
:1020C000AD016C2D7C2D8C2D9C2D345F4140510930
:1020D000610971098109910929873A874B87652E22
:1020E000762E872E982E9B8F5901C42ED52EE62E44
:1020F000F72E082F192F0E94E632322E232E488BFE
:10210000598B6A8B7B8B8C8B9D8B309172032091CA
:102110007103932F990F990B492F592F692F792FFD
:10212000892F0E94E6320CE00E94503429833C87BC
:102130004A8F5D876E877F87582E492E30917403B2
:1021400020917303932F990F990BA32CB22CC8885D
:10215000D988EA88FB880C891D89492F592F692F56
:10216000792F892F0E94E63208E00E946934A98005
:10217000BC84CA8CDD84EE84FF84052D142D0E945E
:10218000873470588F4F9F4FE0916F03F091700329
:102190005F01C12CD12CE12CF12C8701E983BA829B
:1021A000CB82DC82ED82FE820F831887C12CD12C7A
:1021B000E12CF12C00E010E00E94E63201E20E94E6
:1021C00069342A8F532E49835C876D877E878F877A
:1021D000492EA0E00E94A53409F41EC130917A0373
:1021E00020917903932F990F990BA32CB22CC888B7
:1021F000D988EA88FB880C891D89492F592F692FB6
:10220000792F892F0E94E6321901488B598B6A8BEE
:102210007B8B8C8B9D8B3091780320917703932F50
:10222000990F990BA984BA84CB84D62CE72CF82C6F
:10223000092D1B8D492F592F692F792F892F0E9426
:10224000E63201E10E9450345101C888D988EA88F9
:10225000FB880C891D890E94873459016A017B0122
:10226000382E192F4E895F89688D798D84E0759598
:102270006795579547958A95D1F780E090E0A0E162
:10228000B0E0841B950BA60BB70B3C014D01990CDC
:102290006608762C43019C01AD01662D762D862DB6
:1022A000962D0FE10E945034722E832E942E598762
:1022B000B62FA72FF82FE92F3091760320917503C1
:1022C000932F990F990B492F592F692F792F892F08
:1022D00003E20E945034032D0E94873459016A01A1
:1022E0007B018C01272D382D492D59856B2F7A2F95
:1022F0008F2F9E2F0E949C34E5E3AE2EFCE0BF2E74
:10230000C12CD12CE12CF12C00E010E00E94E6322F
:10231000AA8CB52CC980DC84ED84FE840F85142D35
:102320000E947B332F873E8749875A876B87798343
:102330008C879D870DE00E946934922E832E742E27
:10234000652E562E472E382E292E3091800320914F
:102350007F03932F990F990BA92CB82CC72CD62C3F
:10236000E52CF42C032D122D492F592F692F792F8D
:10237000892F0E94E6320E94E63209E10E94693408
:10238000AF84BE84C984DA84EB84F9800C851D8512
:102390000E94873419012A013B014C0130917E03D0
:1023A00020917D03932F990F990B492F592F692F56
:1023B000792F892F0E94E63203E10E946934590186
:1023C0006A017B018C019101A201B301C4010E9449
:1023D000873408E00E94693459016A017B01E82FC3
:1023E000192F30917C0320917B03932F990F990B28
:1023F000492F592F692F792F892F04E00E945034DB
:102400000E2F0E9487340E94D32E20E030E040E857
:102410005BE30E94D03003C060E070E0CB016B96BC
:102420000FB6F894DEBF0FBECDBFDF91CF911F91E5
:102430000F91FF90EF90DF90CF90BF90AF909F9063
:102440008F907F906F905F904F903F902F90089566
:10245000FF920F931F93CF93DF93CDB7DEB76E97A5
:102460000FB6F894DEBF0FBECDBF10926504109278
:10247000640485E494E0909361048093600480E2B6
:10248000E8E6F4E0DF011D928A95E9F7F12C00E01F
:1024900010E06091600470916104600F711F4EE163
:1024A00050E0CE0101960E940E2DE981EE23B1F09D
:1024B000E03220F4F0E0EA5BFB4FF2A2809164048A
:1024C0009091650401969093650480936404025E84
:1024D0001F4FF394003CB3E01B07D9F66E960FB67E
:1024E000F894DEBF0FBECDBFDF91CF911F910F914A
:1024F000FF900895EF92FF920F931F93CF93DF9376
:10250000CDB7DEB76E970FB6F894DEBF0FBECDBF66
:10251000FC0112828FEF9FEFDC0183839483A583FC
:10252000B68381E08783148E158E168E178E10A2C7
:10253000DB0193E0B595A7959A95E1F7A857BB4FB6
:102540008C9190E09B012770332702C09595879569
:102550002A95E2F7817099278783892B09F47FC038
:102560007B018F012EE1269FC001279F900D112432
:102570006091600470916104680F791F4EE150E032
:10258000CE0101960E940E2D8D8DF801868F8981D6
:102590008283B701660F771F660F771FE091620491
:1025A000F0916304E60FF71F80819181A281B381CE
:1025B000F80183839483A583B683A801485F5F4FA6
:1025C000DE011296FA0130E08D91882329F0333133
:1025D00029F03F5F8193F8CF832F01C083E1F80199
:1025E000848F20E0732F720FE6E1F0E0EC0FFD1F07
:1025F000E20FF11D6081872F90E0662341F0733177
:1026000030F42F5FFA01E80FF91F6083EBCFF80178
:10261000258FFA01E80FF91F10828E8D813021F08D
:10262000823029F480E401C080E2F801878FF8014C
:10263000868D843091F030F4882361F0813079F414
:1026400083E00BC0883041F0893031F0853039F4B7
:1026500084E003C082E001C085E0F80180A36E96AB
:102660000FB6F894DEBF0FBECDBFDF91CF911F91A3
:102670000F91FF90EF9008958F929F92AF92BF922B
:10268000CF92DF92EF92FF920F931F93CF93DF933E
:10269000CDB7DEB7A1970FB6F894DEBF0FBECDBFA2
:1026A000811116C0109290041092960410915F044C
:1026B000812F880F880F880F80939704412F50E057
:1026C0006BE474E088E994E00E94F935165F62C11A
:1026D000282F269530E040916404509165044217FC
:1026E00053070CF44AC080FD48C000E010E0809120
:1026F000640490916504081719070CF04AC16091B1
:10270000670470E0CE0101960E947A1280916704FE
:102710008F5F8093670490E020916404309165049A
:102720008217930714F0109267048885882311F1AB
:10273000109290048B81809396048D8D28E0829F67
:10274000C00111249E8D892B8093970480E01AE0AC
:10275000180FE9E0F0E0EC0FFD1FE80FF11D90818C
:10276000992309F417C18F5FE12FF0E0E257FB4F87
:102770009083EDCF0F5F1F4FBACF80E4809390041A
:10278000E12CF12C18E03AE1C32ED12C60916604C3
:1027900070E0CE0101960E947A12809166048F5FEC
:1027A0008093660490E02091640430916504821760
:1027B000930714F0109266048885882309F4D3C027
:1027C0008C819D81AE81BF818F3F3FEF9307A3072F
:1027D000B30709F4C8C04B81612F70E02F8D51E021
:1027E000510F403160F062577B4F322F3F70FB0139
:1027F00030831E5FE52FF0E0E257FB4F0BC0152F33
:10280000FB01E257FB4F30E1439FA0011124322F1F
:102810003F70432B408349A150E02430C1F128F49C
:10282000222369F02130E1F09BC0283009F467C011
:10283000293009F481C0253009F092C043C0E12F4E
:10284000F0E0E257FB4F282F2F71B7FD02C080E068
:1028500001C080E8822B98A1892B808381E081C010
:10286000612F70E09B0122573B4FF9018083FB01F0
:10287000E157FB4F292F2F71B7FD02C080E001C047
:1028800080E8822B98A1892B808382E06AC0612F27
:1028900070E09B0122573B4FF90180839B01215738
:1028A0003B4FF9019083FB01E057FB4F2A2F2F711B
:1028B000B7FD02C080E001C080E8822B98A1892B7F
:1028C00080831BC0612F70E09B0122573B4FF901B1
:1028D00080839B0121573B4FF9019083FB01E05717
:1028E000FB4F4D01BB2497FCB094AB2CB7FD02C04D
:1028F00080E001C080E8882A808283E032C0212FF6
:1029000030E0F901E257FB4F8083F901E157FB4FBB
:102910009083F901E057FB4FA083F901EF56FB4F7D
:102920006B2F6F71B7FD02C080E001C080E8862B7D
:1029300098A1892B808312C0212F30E0F901E25742
:10294000FB4F8083F901E157FB4F9083F901E0577A
:10295000FB4FA083F901EF56FB4FB08384E001C029
:1029600080E0180F02C040E050E0FFEFEF1AFF0ACE
:102970008091640490916504E816F9065CF4812F57
:1029800090E09601241B350B821793070CF4FECEC2
:1029900001C010E08EE780938E048FE280938F0455
:1029A000909190048EEF810F892B8093900489E0A1
:1029B0008093910484EA809392048091D004809360
:1029C00093048091D1048093940410929504E12F94
:1029D000F0E0A0E9B4E092E080E037E0911768F41D
:1029E0002D91822728E087FF03C0880F832701C02D
:1029F000880F2150C1F79F5FF1CFE257FB4F8083D3
:102A000080918C0490918D04DC01ED91FC91028009
:102A1000F381E02D40E06EE7099501E01017A0F08A
:102A200080918C0490918D04A02FB0E0A257BB4FF1
:102A3000FC0120813181F9012281338141E06C91D7
:102A4000F90109950F5FEACFA1960FB6F894DEBFA2
:102A50000FBECDBFDF91CF911F910F91FF90EF90EF
:102A6000DF90CF90BF90AF909F908F900895CF93BD
:102A7000DF9380918C0490918D04DC01ED91FC91A9
:102A80000280F381E02D40E06EEF09958091AE0465
:102A9000882311F1CEEAD4E080918C0490918D04CA
:102AA0006991DC01ED91FC910280F381E02D41E020
:102AB0000995B4E0CE3CDB0779F780918C049091C6
:102AC0008D04DC01ED91FC910280F381E02D40E06A
:102AD0006FEFDF91CF910994C0E2D0E080918C0438
:102AE00090918D04DC01ED91FC910280F381E02D49
:102AF00041E060E00995219789F7DFCFCF93C82F98
:102B00008091640490916504892B11F40E9428122D
:102B1000C032D0F4EC2FF0E0EA5BFB4F82A1E82F4B
:102B2000F0E093E0F595E7959A95E1F7E857FB4FCC
:102B3000282F277081E090E001C0880F2A95EAF7DE
:102B4000809590818923808310924A0410926704B3
:102B500010926604CF910895813208F080E2682FC8
:102B600087E70E94510D1092D2028093D1020895FE
:102B7000682F8DE393E00C94DD04CF93C82F8091F0
:102B800054030E94310D80E290E00E94B8156C2F32
:102B90008DE393E00E94DD04CF910C94D50CCF938C
:102BA000C82F0E94310D8FE090E00E94B8150E945E
:102BB000D50C61E08C2F0E94930D9091D1028091F1
:102BC000D202981729F08DE393E0CF910C949404EE
:102BD0008FEF9FEFCF9108952091620430916304AD
:102BE0002115310589F0803278F4E82FF0E0EA5BB6
:102BF000FB4F82A1F90194E0899FE00DF11D1124A2
:102C0000408351836283738308954F925F926F92E2
:102C10007F92AF92BF92CF92DF92EF92FF920F938B
:102C20001F93CF93DF9300D000D0CDB7DEB7082F2E
:102C3000A62E69017A01AE014F5F5F4FC701B60151
:102C40000E949C302B013C0189819A81AB81BC811F
:102C5000BC01CD019F770E94A42EB62E172F2AE922
:102C600039E949E15FE3C301B2010E94D03020E0BD
:102C700030E543EC57E40E94D0309F770E94A42EA9
:102C80003B011170A11002C090E001C090E2192B2D
:102C900020E030E0A901C701B6010E94212E881F63
:102CA0008827881F8295880F880F807C712F782B4A
:102CB000A3016B2D802F0F900F900F900F90DF913D
:102CC000CF911F910F91FF90EF90DF90CF90BF9029
:102CD000AF907F906F905F904F900C94EC15CF92D7
:102CE000DF92EF92FF9210929A036091A403709189
:102CF000A5038091A6039091A7030E94D92E28E2F4
:102D00003BE64EE65EE40E942B2E6B017C01609157
:102D1000A2037091A30380E090E00E94D92E9B0152
:102D2000AC01C701B6010E94432D2091A8032111D7
:102D30009058FF90EF90DF90CF900895CF92DF9260
:102D4000EF92FF9210929A0360919D0370919E03FF
:102D500080919F039091A0030E94D92E28E23BE628
:102D60004EE65EE40E942B2E6B017C0160919B037A
:102D700070919C0380E090E00E94D92E9B01AC01F1
:102D8000C701B6010E94432D2091A1032111905843
:102D9000FF90EF90DF90CF9008951F93CF93DF9334
:102DA00087E70E94310D60E08DE393E00E94DD042F
:102DB0000E94D50C87E70E94310D83E090E00E94CD
:102DC000AC159091D1028091D2029817F1F38DE366
:102DD00093E00E949404182F8DE393E00E949404E2
:102DE000C82F8DE393E00E949404D82F0E94D50C45
:102DF0008C2F90E0A0E0B0E0BA2FA92F982F882761
:102E0000A12BBC01CD016D2BDF91CF911F910895B6
:102E1000CF93DF9387E70E94310DC3EDD4E08D851A
:102E200090E0805B9F4F0E94B8150E94D50C6C8586
:102E300070E080E090E00E945006DF91CF910C940A
:102E4000CD16CF93DF93CDB7DEB7CE54D1090FB6F1
:102E5000F894DEBF0FBECDBF789484B5826084BD88
:102E600084B5816084BD85B5826085BD85B581608E
:102E700085BD80916E00816080936E00109281000C
:102E800080918100826080938100809181008160C7
:102E90008093810080918000816080938000809188
:102EA000B10084608093B1008091B0008160809314
:102EB000B00080917A00846080937A0080917A00DB
:102EC000826080937A0080917A00816080937A009A
:102ED00080917A00806880937A001092C10086E722
:102EE0000E948D0F80934903811105C087E70E94DE
:102EF0008D0F8093490380914903811148C08DE56E
:102F0000809354030E94CF158D3B910541F481E0DD
:102F100090E090935303809352030C94CE288B3B04
:102F2000910511F00C94F328109253031092520360
:102F30000C94CE28019711F00C94022984E290E0C1
:102F4000909358038093570385E290E090935A033F
:102F50008093590380E390E090935C0380935B033C
:102F600081E390E090935E0380935D030E94690F7C
:102F700080915203909153038130910511F00C948C
:102F8000EC2880EB0E94BD1584E08093490380917A
:102F90004903823049F018F4813031F032C0833077
:102FA000E1F08430D1F02DC08AE999E9A9E5BFE3C9
:102FB00080934A0390934B03A0934C03B0934D032B
:102FC00085E090E0A0E0B0E080934E0390934F0343
:102FD000A0935003B093510314C08DEC9CECACE46F
:102FE000BFE380934A0390934B03A0934C03B093A9
:102FF0004D0310924E0310924F0310925003109203
:10300000510381E090E00E949F0C8F3F11F080936C
:10301000010182E090E00E949F0C8F3F31F091E02F
:10302000811101C090E09093020183E090E00E9442
:103030009F0C8F3F11F08093A40185E090E00E94E7
:103040009F0C8F3F11F08093030186E090E00E9477
:103050009F0C8F3F31F091E0811101C090E090937F
:10306000C70187E090E00E949F0C8F3F31F091E014
:10307000811101C090E09093C60188E090E00E9429
:103080009F0C8F3F31F091E0811101C090E090934F
:10309000C5018AE090E00E949F0C8F3FA1F0682F4D
:1030A00070E080E090E00E94D92E20E030E048EC13
:1030B00052E40E942B2E60934A0370934B0380933B
:1030C0004C0390934D038CE090E00E949F0C8F3F47
:1030D00059F090E0A0E0B0E080934E0390934F034E
:1030E000A0935003B093510310926F001092800090
:1030F00081E88093810083E896E09093A301809318
:10310000A2018BE39CE39093A1018093A00162E074
:1031100088E00E94B60589E00E94230F61E089E003
:103120000E94B60510929F0110929E0110929D017F
:1031300010929C0110929B0110929A0180E286BB32
:1031400080936F0080914903811103C086E00E9443
:103150007E1580910101813021F0809149038230F8
:1031600019F08FE00E947E1580910101813021F0DD
:1031700080914903811106C08DE00E947E158EE08A
:103180000E947E1580910101811109C081E00E9499
:103190007E1582E00E947E1583E00E947E1580915C
:1031A000010181110AC080914903811106C084E0A8
:1031B0000E947E1585E00E947E158091010182307B
:1031C00091F087E00E947E1588E00E947E1589E0DC
:1031D0000E947E158AE00E947E158BE00E947E157B
:1031E0008CE00E947E158091A40181110DC080E1C8
:1031F0000E947E1581E10E947E1582E10E947E156B
:1032000083E10E947E1540C0109103011123E1F17A
:103210006CEC71E084E190E00E944C0C1130A1F55F
:103220000E94A10C6FE00E94AE0C6B017C01BE01FC
:103230006F5F7F4F88E190E00E944C0CC701B601A0
:103240000E94DB2E20E030E04AE754E40E942B2E5F
:103250006B017C012CE53FE842E85FE369817A81FC
:103260008B819C810E94D0309B01AC01C701B601CB
:103270000E943F3087FD08C01092CC011092CD0112
:103280001092CE011092CF018091C701811103C02D
:1032900084E10E947E158091C601811103C085E101
:1032A0000E947E158091C501811103C086E10E94B4
:1032B0007E1586E78093D00482E38093D1048091C9
:1032C0005F0481119EC080E2EEE8F4E0DF011D9210
:1032D0008A95E9F740E250E060E270E08EEA94E01F
:1032E0000E94023643E150E06BE671E08BE494E02B
:1032F0000E94193688E080935F0480916404909165
:103300006504892B11F40E94281200916404109125
:103310006504013CBFE11B0730F4C801880F991F09
:10332000880F991F02C08FEF9FEF0E94C034FC01ED
:1033300020E030E04FEF5FEFBA010217130739F0DA
:1033400041935193619371932F5F3F4FF6CF8093D9
:1033500062049093630481E990E00E94C03421E903
:10336000FC0111922A95E9F72EE031E0DC012D9362
:103370003C9390938D0480938C040E9407061092D6
:103380004A0410926704109266040E948A066B0138
:103390007C01B0EDCB0EB7E0DB1EE11CF11C80918F
:1033A000600490916104892BF9F00E948A066C15E3
:1033B0007D058E059F05C0F400E010E08091640457
:1033C000909165048017910754F3802F880F0E9415
:1033D0003C130E94371566E970E080E090E00E949F
:1033E00050060F5F1F4FEACF80918C0490918D049F
:1033F000DC01ED91FC910480F581E02D09958111AE
:10340000F3CF0E948A060091E5011091E601209118
:10341000E7013091E801DC01CB01801B910BA20B8D
:10342000B30B853B9105A105B10508F4E2C7809176
:103430004903882309F47AC68330D1F0843009F037
:103440004DC4809154030E94310D88EA90E00E949F
:10345000B8150E94D50C63E0809154030E94930D2F
:103460008091D10290E02091D202821B910993C3F6
:1034700087E70E94310D8091E00490E0805C9F4FCF
:103480000E94B8150E94D50C6091DF0470E080E0C6
:1034900090E00E9450060E94CD166BAF7CAF8DAFBE
:1034A0009EAF0E9408172091DB043091DC04890153
:1034B00020E030E0322F212F102F00272B013C017C
:1034C000401A510A620A730AE091D904F091DA04B1
:1034D0008090D5049090D604940140E050E060E0E4
:1034E00070E080E090E000E10E9450346901E42E39
:1034F000252E362E872E982E9FA3BF0180E090E0C8
:10350000A30192010E943F335901F42EB52FF62FEB
:10351000E72F8C01A0E00E94A5344CF4AFE70E9495
:1035200090345901F42EB52FF62FE72F8C01950119
:103530004F2D5B2F6F2F7E2FC80107E00E9469344B
:103540005901A42FF52FE62FF72E8C0196014E2D51
:10355000522D632D782D892D9FA1CA2EDF2EEE2EA0
:103560000E94873422962FAF229723963FAF23974E
:1035700024964FAF249725965FAF259726966FAF79
:10358000269727967FAF279728968FAF289729965B
:103590009FAF2997E090D304F090D4046091D704B2
:1035A0007091D80480E090E0A30192010E943F3323
:1035B000D22E032F142FB52FF62FE72FB82EC92E9A
:1035C000A0E00E94A53484F421503F4F4F4F5F4F3D
:1035D0006F4F7F4F8F4F9F4FD22E032F142FB52F3A
:1035E000F62FE72FB82EC92E2D2D302F412F5B2F10
:1035F0006F2F7E2F8B2D9C2D08E00E9469341901BE
:103600004A01B62FA72FF82FE92FC12CD12C9701F3
:10361000A60160E070E080E090E00FE00E9450348E
:1036200059016A017B018C019101A4016B2F7A2F52
:103630008F2F9E2F0E948734322E232E2A964FAF33
:103640002A972B965FAF2B972C966FAF2C972D96C2
:103650007FAF2D972E968FAF2E972F969FAF2F97D8
:103660006091DD047091DE0480E090E0A30192019E
:103670000E943F33F22E032F142FB52FF62FE72F82
:10368000D82EE92EA0E00E94A53484F421503109FF
:1036900040485F4F6F4F7F4F8F4F9F4FF22E032F4A
:1036A000142FB52FF62FE72FD82EE92E2F2D302FE0
:1036B000412F5B2F6F2F7E2F8D2D9E2D07E10E94B6
:1036C000693449015A01950184010053184F2F4F65
:1036D0003F4F0BAB1CAB2DAB3EAB1092E5041092F1
:1036E000E6041092E7041092E8041092E9041092A4
:1036F000EA041092EB041092EC041092ED04109284
:10370000EE041092EF041092F0041092F104109263
:10371000F2041092F3041092F404003D17402105C6
:1037200031050CF0BFC0A5019401C501B4010E9490
:103730007C329B01AC01A5E0B0E00E94D3328B014A
:103740009C0135952795179507950FA318A729A7CD
:103750003AA72B013C01770C4408542C320100930A
:10376000E5041093E6042093E7043093E8044092C4
:10377000E9044092EA044092EB044092EC049B017D
:10378000AC0162E055954795379527956A95D1F735
:103790002FA738AB49AB5AAB2093ED043093EE041E
:1037A0004093EF045093F0044092F1044092F204ED
:1037B0004092F3044092F4040BA91CA92DA93EA940
:1037C00004321A4F2F4F3F4F0CF06CC0C501B401AB
:1037D0006455724F8F4F9F4F9B01AC010E947C320A
:1037E0006BAB7CAB8DAB9EABA7E0B0E09B01AC01BB
:1037F0000E94D3324B015C01BB0C8808982C540109
:103800009B01AC01682D782D882D982DAFA0B8A410
:10381000C9A4DAA4E42CF42C042D142D0E948734BE
:103820002093E5043093E6044093E7045093E804C2
:103830006093E9047093EA048093EB049093EC04A2
:10384000ABE0B0E02BA93CA94DA95EA90E94D33200
:103850004B015C01B594A794979487946B017C010C
:10386000FF0CCC08DC2C76019401A5016C2D7C2D7D
:103870008C2D9C2DAFA4B8A8C9A8DAA8E42CF42CF0
:103880000E9487342093ED043093EE044093EF04BC
:103890005093F0046093F1047093F2048093F30466
:1038A0009093F404232D322D2A964FAD2A972B9610
:1038B0005FAD2B972C966FAD2C972D967FAD2D97E6
:1038C0002E968FAD2E972F969FAD2F97A090ED043B
:1038D000B090EE04C090EF04D090F004E090F104BA
:1038E000F090F2040091F3041091F4040E949C34CF
:1038F000EBACFCAC0DAD1EAD170128015701620108
:10390000E12CF12C00E010E00E94E632F22E032FB1
:10391000142FB52FF62FE72FD82EE92EA0E00E9406
:10392000A53484F421503109404E5F4F6F4F7F4FD3
:103930008F4F9F4FF22E032F142FB52FF62FE72F07
:10394000D82EE92E2F2D302F412F5B2F6F2F7E2F5A
:103950008D2D9E2D05E10E94693439014A01B62F53
:10396000A72FF82FE92F22962FAD229723963FAD50
:10397000239724964FAD249725965FAD25972696DD
:103980006FAD269727967FAD279728968FAD2897FE
:1039900029969FAD2997A090E504B090E604C090C9
:1039A000E704D090E804E090E904F090EA04009184
:1039B000EB041091EC040E949C3459016A017B01D4
:1039C0008C019301A4016B2F7A2F8F2F9E2F0E94C1
:1039D0009C34F22E032F142FB52FF62FE72FD82E5D
:1039E000E92EA0E00E94A53484F4215030484F4FC6
:1039F0005F4F6F4F7F4F8F4F9F4FF22E032F142F2C
:103A0000B52FF62FE72FD82EE92E2F2D302F412F4F
:103A10005B2F6F2F7E2F8D2D9E2D0FE00E9469341E
:103A2000122F332E242E1FA75BAB612F732D822DF7
:103A3000952F0E94DB2E20E836EE45EC57E40E94DD
:103A40002B2E2BEA3CED42E45EE30E943D319B01CC
:103A5000AC0160E070E080E89FE30E94422D20E02E
:103A60003AE24DE257E40E94D03020E030E048ECEA
:103A700052E40E94D0300E949D2E4B015C010E94B6
:103A800008172091DB043091DC04890120E030E04C
:103A9000322F212F102F00276B017C01C01AD10A71
:103AA000E20AF30A6091DD047091DE0480E090E0A8
:103AB000A70196010E943F333901042FB52FF62F3D
:103AC000E72F2C01A0E00E94A53474F421503109A5
:103AD00040485F4F6F4F7F4F8F4F9F4F3901042FEB
:103AE000B52FF62FE72F2C019301402F5B2F6F2F5F
:103AF0007E2FC20107E10E9469342FA338A749A78E
:103B00005AA76BA77CA78DA79EA74FA058A469A40E
:103B10007AA400ED400E07E0501E611C711C10EDF0
:103B2000411617E05106610471044CF01092E10453
:103B30001092E2041092E3041092E40413C0A7016F
:103B40009601C701B6010E947C3220E030E0A90155
:103B50000E94AE322093E1043093E2044093E304E8
:103B60005093E4048091E1049091E204A091E30475
:103B7000B091E404A3019201281B390B4A0B5B0BA3
:103B8000CA01B9010E94DB2E20E030E048EC52E48B
:103B90000E942B2E99C083309105ECF38DE393E0C6
:103BA0000E949404182F8DE393E00E949404082F40
:103BB0008DE393E00E94940421960FAF21971FAEEE
:103BC0002196AEADBFAD2197AD0160E070E0082E4B
:103BD000000C990BAA0BBB0BDC0199278827812BC2
:103BE0007A018B01E82AF92A0A2B1B2BC801B7019D
:103BF0000E94DB2E20E030E040E859E30E94D03004
:103C00000E949D2E6FA7372E282E9BAB0E94DB2E85
:103C100020E030E54DE754E40E942B2E2EE434EDF5
:103C200042E45EE30E943D319B01AC0160E070E044
:103C300080E89FE30E94422D2DEC3AE24DE257E4EA
:103C40000E94D03020E030E048EC52E40E94D030B6
:103C50000E949D2E4B015C01809154030E94310D06
:103C60008BEA90E00E94B8150E94D50C62E080912A
:103C700054030E94930D8091D10290E02091D202D2
:103C8000821B910982309105ECF38DE393E00E9451
:103C90009404082F8DE393E00E949404982F8827C2
:103CA000BC01602B072E000C880B990B0E94DB2EA9
:103CB00020E030E040EF53E40E942B2E20E030E083
:103CC0004AE252E40E94432D20E030E040E251E419
:103CD0000E94D0300E949D2E8B0141C10E942E1067
:103CE0000E949D2E6FA7372E282E9BAB0E942E1070
:103CF00020E030E048EC52E40E942B2E20E030E53A
:103D00004DE754E40E942B2E21E03EED42E45EE3B9
:103D10000E943D319B01AC0160E070E080E89FE3D0
:103D20000E94422D20E03AE24DE257E40E94D0305A
:103D300020E030E048EC52E40E94D0300E949D2EFA
:103D40004B015C010E94A60F20E030E040E251E40C
:103D50000E94D0300E949D2E8B01809149038230B9
:103D600009F0FDC00E94A60F8DEF0E94090E6C01A4
:103D7000E12CF12CC11420E8D206E104F10409F48D
:103D8000DDC08091650390916603A0916703B091B7
:103D900068039C01AD013C52414051092FA338A753
:103DA00049A75AA76EE0CC0CDD1CEE1CFF1C6A95DF
:103DB000D1F78091850390918603092E000CAA0B00
:103DC000BB0B74E1880F991FAA1FBB1F7A95D1F70F
:103DD000C81AD90AEA0AFB0AA0918703B09188039E
:103DE0000E94DE32C61AD70AE80AF90A30E4D30E76
:103DF000E11CF11CEFE0F594E794D794C794EA95A1
:103E0000D1F7A0918403B0E02FA138A549A55AA508
:103E10000E94D3322B013C01FBE0759467945794C8
:103E20004794FA95D1F740E8540E611C711CA0919B
:103E300089030A2E000CBB0B2FA138A549A55AA552
:103E40000E94DE32AAE09595879577956795AA95A9
:103E5000D1F7A30192010E947C32DC01CB012AE060
:103E6000B595A795979587952A95D1F79C01AD01B2
:103E7000405E5F4FA0918203B09183030E94DE32C7
:103E8000DC01CB01905EAF4FBF4FBC01CD013EE0E6
:103E900095958795779567953A95D1F7A7019601FE
:103EA0000E947C326B017C014FE095958795779558
:103EB00067954A95D1F79B01AC010E947C329B012A
:103EC000AC0167E055954795379527956A95D1F7E9
:103ED000A0918103B0E00E94D332DC01CB0174E0F9
:103EE000B595A795979587957A95D1F7C81AD90A68
:103EF000EA0AFB0AF7FE03C0C12CD12C7601D701D8
:103F0000C60151E0C516D104E10459E1F50624F0DB
:103F100080E090E0A0E0B9E1BC01CD013CE09595E6
:103F20008795779567953A95D1F70E94DB2E20E02B
:103F300030E040E85AE30E94D03004C060E070E016
:103F400080EC9FE720E030E040E251E40E94D03076
:103F50000E949D2EAB01BC018FE00E94EC15809168
:103F6000E401811114C081E08093E4018092E001BA
:103F70009092E101A092E201B092E3018092DC0113
:103F80009092DD01A092DE01B092DF012EC08091FF
:103F9000E0019091E101A091E201B091E301A5015E
:103FA0009401281B390B4A0B5B0BCA01B9012AE0AB
:103FB00030E040E050E00E94AE322093D8013093D0
:103FC000D9014093DA015093DB01C501B40124E625
:103FD00030E040E050E00E94AE322093D4013093B4
:103FE000D5014093D6015093D7018091DC01909187
:103FF000DD01A091DE01B091DF01A5019401281B34
:10400000390B4A0B5B0BCA01B9010E94DB2E6B0115
:104010007C010E948A064090E5015090E601609084
:10402000E7017090E80164197509860997090E94F3
:10403000D92E9B01AC0160E070E08AE794E40E9415
:104040002B2EA70196010E94D0300E949D2E8092B7
:10405000DC019092DD01A092DE01B092DF010E94AE
:10406000DB2E6B017C019B01AC016091D001709152
:10407000D1018091D2019091D3010E94422D2091D3
:104080004A0330914B0340914C0350914D030E94E1
:10409000D030A70196010E94432D0E949D2E6B01F6
:1040A0007C010E94DB2E6093D0017093D10180933C
:1040B000D2019093D30140914E0350914F036091F0
:1040C0005003709151034C155D056E057F054CF44E
:1040D000D701C601841B950BA60BB70BAC01BD0124
:1040E00014C088279927DC01841B950BA60BB70BFE
:1040F000C816D906EA06FB062CF44C0D5D1D6E1D94
:104100007F1D03C040E050E0BA0186E00E94EC153C
:104110004FA5532D622D7BA98DE00E94EC15A801BF
:10412000110F660B770B8EE00E94EC150E948A0639
:104130006093E5017093E6018093E7019093E801B5
:104140001091A401112309F4DBC00E94A10C6FE0BF
:104150000E94AE0C0E94DB2E20E030E04AE754E4DF
:104160000E942B2E69837A838B839C8320E030E02E
:1041700040E251E40E94D0300E949D2EAB01BC0170
:1041800080E10E94EC15153038F01C3040F028E535
:10419000E22E22E0F22E07C0E12CF12C04C094ECB8
:1041A000E92E99E0F92E8EE00E943906BC01990FA4
:1041B000880B990B0E94DB2E20E030EC4FE754E493
:1041C0000E942B2E20E030E44CE955E40E94D030D0
:1041D0004B015C01B70180E090E00E94D92E9B0169
:1041E000AC01C501B4010E94422D6B017C01E12F9D
:1041F000F0E0E95EFE4F608170E080E090E00E94B8
:10420000DB2E9B01AC01C701B6010E942B2E6B0176
:104210007C0120E030E040E251E40E94D0300E9476
:104220009D2EAB01BC0181E10E94EC152FEF3FEF09
:104230004FE951E4C701B6010E942B2E2091CC0119
:104240003091CD014091CE015091CF010E94432D7C
:104250006093CC017093CD018093CE019093CF01F8
:104260000E949D2EAB01BC0182E10E94EC15809161
:1042700003018823B1F10E948A060091C8011091C0
:10428000C9012091CA013091CB01DC01CB01801B17
:10429000910BA20BB30B81319742A105B10508F137
:1042A00020E030E040E050E4C701B6010E94212E3A
:1042B00018166CF06CEC71E084E190E00E94720CD6
:1042C000BE016F5F7F4F88E190E00E94720C0E94F8
:1042D0008A066093C8017093C9018093CA019093C4
:1042E000CB0129813A814B815C81C701B6010E94D3
:1042F000D0300E949D2EAB01BC0183E10E94EC15E1
:104300008091C701882379F060E186E00E94AE0CBD
:104310002AE030E040E050E00E94AE32BA01A9014C
:1043200084E10E94EC158091C601882379F061E157
:1043300087E00E94AE0C2AE030E040E050E00E94AE
:10434000AE32BA01A90185E10E94EC158091C50148
:10435000882309F44EC084E10E943906BC01990FFC
:10436000880B990B0E94DB2E9B01AC0160E070EC86
:104370008FE794E40E942B2E20E030E040E85FE3DA
:104380000E94422D9B01AC0160E070E48CE196E458
:104390000E942B2E20E030E44CE156E40E942B2EAC
:1043A0000E94543020E030EE46E755E40E942B2E68
:1043B0002FE03FEC4BE55BE30E94432D9B01AC01FA
:1043C00060E070E080E89FE30E942B2E29E939EF3E
:1043D00047E853E40E94422D20E030E040E251E4FF
:1043E0000E94D0300E949D2EAB01BC0186E10E944C
:1043F000EC1580910101882309F4C9C38DE893E08D
:104400000E941A04892B09F4A7C28DE893E00E9448
:104410003C04182F8091360490913704A091380401
:10442000B09139040196A11DB11D8093360490937B
:104430003704A0933804B0933904143209F46AC2E3
:10444000E0913004153234F41A3071F01D3009F067
:104450006FC20AC01A3241F01C3209F069C2809161
:104460001D04812780931D04EF3008F040C2F0E066
:10447000E15EFB4F108280911E04882309F421C164
:1044800020911F043FEB320F822F022E000C990B5C
:10449000363010F4C79707C02156263018F48755D8
:1044A000910901C0C097282F2295207F30912004C8
:1044B0004FEB430F832F032E000C990B463010F463
:1044C000C79707C03156363018F48755910901C097
:1044D000C097820F90911D048913DFC08091420420
:1044E00090914304A0914404B09145040196A11D0C
:1044F000B11D8093420490934304A0934404B0936D
:10450000450480913104882399F080913A04909178
:104510003B04A0913C04B0913D040196A11DB11D46
:1045200080933A0490933B04A0933C04B0933D04E1
:1045300000912E040023B9F1013009F084C08BEB07
:1045400093E00E94810889EC93E00E9481088091A9
:104550003104882309F477C087E0E9EAF3E0ABE9A6
:10456000B3E001900D928A95E1F787E0E0EBF3E08C
:10457000A2EAB3E001900D928A95E1F70E948A06C3
:104580006093B7037093B8038093B9039093BA0311
:1045900000939A030093990387ED93E00E946A08C1
:1045A00085EE93E04EC089EC93E00E9481088091F3
:1045B0003104882329F187E0E9EAF3E0ABE9B3E0CD
:1045C00001900D928A95E1F787E0E0EBF3E0A2EA33
:1045D000B3E001900D928A95E1F70E948A066093FC
:1045E000B7037093B8038093B9039093BA0381E043
:1045F00080939A038093990383EF93E00E946A0863
:1046000080910B0490910C04A0910D04B0910E04C4
:104610008093070490930804A0930904B0930A04BC
:104620000E948A0660930304709304048093050437
:104630009093060481E080930204809301048FE04C
:1046400094E00E946A08E0903404F090350401E0A0
:10465000E114F10409F44DC1E0913404F091350402
:1046600066A177A1D70196968D919C9197970E940C
:104670000936892B09F03DC1B701C70140960E9458
:1046800012360E948A06F70160A371A382A393A346
:1046900005A304A3E2A4F3A4DBCF80913E04909190
:1046A0003F04A0914004B09141040196A11DB11DA9
:1046B00080933E0490933F04A0934004B093410440
:1046C00016C190912F04911147C064E771E08FE10A
:1046D00094E00E940936892B41F06AE771E08FE18E
:1046E00094E00E940936892B11F481E014C060E83F
:1046F00071E08FE194E00E940936892B41F066E871
:1047000071E08FE194E00E940936892B19F4109230
:104710002E0403C082E080932E0480913204909195
:1047200033049093350480933404E0903404F09083
:104730003504E114F10409F4DAC06FE174E0D70143
:1047400096968D919C9197970E94093697FFC9C0C4
:10475000F70182A593A5E5CFE0912E04E23009F49C
:1047600091C080911F04882309F48CC000E2E09F6F
:10477000F0011124E92B3197E932F10508F082C0EC
:10478000EC5CFF4F0C94CD328FE194E00E94050A5F
:104790006093CF037093D0038093D1039093D2039F
:1047A00071C091E0813409F043C043C069EA73E00D
:1047B00009C091E0833509F090E09093AF0362C0A7
:1047C00060EB73E08FE194E00E947D095BC091E0B3
:1047D000873509F090E09093B60354C08FE194E0E0
:1047E0000E94050A6093E1037093E2038093E30360
:1047F0009093E40347C08FE194E00E94050A609320
:10480000EF037093F0038093F1039093F2033AC0A7
:104810008FE194E00E94E72C6093C1037093C20380
:104820008093C3039093C4032DC091E081330CF4B3
:1048300090E09093310426C08FE194E00E94E72C31
:1048400060930B0470930C0480930D0490930E04FA
:1048500019C08FE194E00E94050A609319047093D7
:104860001A0480931B0490931C040CC08FE194E005
:104870000E94050A6093FD037093FE038093FF037B
:1048800090930004E0903404F0903504E114F104B6
:1048900071F1E0913404F091350466A177A1D7015C
:1048A00096968D919C9197970E940936892BF9F4E1
:1048B000F70120A531A580912F0490E0821793077E
:1048C000B4F02817390739F440E150E06FE174E0A3
:1048D000C7010E941936D7019A96ED90FC909B97DC
:1048E000D5CF892B21F0109235041092340480E04A
:1048F00001C081E090912F049F5F90932F0410924C
:10490000300491E01A3209F090E090931E04811176
:1049100023C03AC41092300410922F0410921D0448
:1049200082E080932E0410921E04109231042CC455
:10493000EE3040F481E08E0F80933004F0E0E15ED1
:10494000FB4F108380911E0481111EC480911D04B1
:10495000182710931D0418C480919903882309F423
:10496000A6C40E948A060091B7031091B803209153
:10497000B9033091BA03DC01CB01801B910BA20B70
:10498000B30B803D9740A105B10508F090C40E948B
:104990009E169B01AC0160E081E00E9405160E941A
:1049A0006F169B01AC0161E082E00E940516109237
:1049B000F4036091F9037091FA038091FB039091E5
:1049C000FC030E94DB2E20E030E048EC52E40E9421
:1049D0002B2E0E949D2E6FA378A789A79AA760937C
:1049E000D4017093D5018093D6019093D701109292
:1049F000D8036091DD037091DE038091DF03909115
:104A0000E0030E94DB2E26E53EE04DEE5FE30E94D0
:104A1000D03020E030E048EC52E40E942B2E0E947F
:104A20009D2EAB01BC0183E00E94EC151092E603C1
:104A30006091EB037091EC038091ED039091EE0394
:104A40000E94DB2E20E030E048EC52E40E942B2E46
:104A50000E949D2EAB01BC0189E00E94EC15809163
:104A6000C3019091C401883BBBE09B070CF058C484
:104A700001969093C4018093C3010E949E166B011E
:104A80007C016093BF017093C0018093C10190933A
:104A9000C2010E946F166093BB017093BC018093AA
:104AA000BD019093BE01C092B701D092B801E092CF
:104AB000B901F092BA016093B3017093B40180938D
:104AC000B5019093B6011092F4036091F9037091CF
:104AD000FA038091FB039091FC030E94DB2E20E0FF
:104AE00030E048EC52E40E942B2E0E949D2E6093F1
:104AF000AF017093B0018093B1019093B201109215
:104B0000AB011092AC011092AD011092AE01209158
:104B10004903211108C06093E0017093E101809383
:104B2000E2019093E3011092020440910704509136
:104B300008046091090470910A048BE00E94EC154E
:104B400010921004409115045091160460911704BE
:104B5000709118048CE00E94EC156091AB0170918B
:104B6000AC018091AD019091AE012AE030E040E0CF
:104B700050E00E948C32BA01A90188E00E94EC1535
:104B80004FA958AD69AD7AAD87E00E94EC15409110
:104B9000D8015091D9016091DA017091DB0184E074
:104BA0000E94EC154091D4015091D5016091D6013D
:104BB0007091D70185E00E94EC1580918C04909152
:104BC0008D04DC01ED91FC910480F581E02D0995C7
:104BD000082F811105C080910001882309F427C2A4
:104BE0000E948A06C090A701D090A801E090A90178
:104BF000F090AA016C157D058E059F0508F417C27B
:104C00000E948A06DC01CB0188539F4FAF4FBF4FF4
:104C10008093A7019093A801A093A901B093AA0142
:104C200011E081E1F82E003E71F48091A501909190
:104C3000A6018D3091050CF001C101969093A6015B
:104C40008093A501F9C0003781F48091A50190916E
:104C5000A601181619060CF0F1C001979093A60151
:104C60008093A50110930001EEC0003D09F0D9C06A
:104C70008091A5019091A60186309105A1F134F4AF
:104C80008230910551F0059779F0D6C087309105B3
:104C9000E1F1089709F440C0CFC080910101882359
:104CA00009F4CAC081505EC080904A0390904B03C3
:104CB000A0904C03B0904D0320E030E040E85FE36B
:104CC000C501B4010E94212E87FFB6C020E030E06C
:104CD00048EC52E4C501B4010E94D0300E949D2EE0
:104CE0006F5F7F4F60C080914E0390914F03A09102
:104CF0005003B091510384369105A105B1050CF024
:104D00009BC00196A11DB11D73C08091A401882391
:104D100009F492C081507AC080910301882309F47C
:104D20008BC081507BC01BA21CA21DA21EA2BE0173
:104D30006D5D7F4F84E190E00E94720C1BA21CA26B
:104D40001DA21EA2BE016D5D7F4F88E190E00E9412
:104D5000720CE0E0F0E0099580910101823008F0EA
:104D60006BC08F5F8093010167C080904A03909071
:104D70004B03A0904C03B0904D0320E030E0A9011C
:104D8000C501B4010E943F3018160CF055C020E058
:104D900030E048EC52E4C501B4010E94D0300E94DA
:104DA0009D2E61507109072E000C880B990B0E94F3
:104DB000DB2E20E030E048EC52E40E942B2E609382
:104DC0004A0370934B0380934C0390934D0334C07C
:104DD00080914E0390914F03A0915003B0915103E5
:104DE000181619061A061B063CF50197A109B10908
:104DF00080934E0390934F03A0935003B0935103BD
:104E00001BC08091A4018F30B8F48F5F8093A40100
:104E100013C080910301823078F48F5F8093030187
:104E20000BC0003B59F4E091A501F091A601319728
:104E3000ED30F10508F427C41093000180910001C2
:104E4000882309F4F4C01A8A19828091A5019091EF
:104E5000A601F89EB001F99E700D1124635B7C4F92
:104E600040E150E0CE0142960E940E2DE091A50156
:104E7000F091A601EC30F105B8F4E35AFF4F0C9421
:104E8000CD3240E150E06CE373E00AC06091010173
:104E9000FAE06F9FB0011124625E7C4F40E150E068
:104EA000CE0101960E940E2D9E012E5E3F4FAEEA6E
:104EB000B4E06EEB74E080E040E292C080910101CA
:104EC000882309F4B0CE6091020104E0609FB00134
:104ED00011246A5E7C4FE2CF6091490319E0619F23
:104EE000B001112467517D4FD9CF809149038823A8
:104EF00009F499CE20E030E048EC52E460914A0396
:104F000070914B0380914C0390914D030E94D030DF
:104F10000E949D2E7F936F938CE891E09F938F93D7
:104F200021E030E02C0F3D1F3F932F930E94283645
:104F30000F900F900F900F900F900F90B5CF809122
:104F40004903882309F46FCE809151038F93809198
:104F500050038F9380914F038F9380914E038F93D3
:104F600083E991E09F938F9341E050E04C0F5D1FE8
:104F70005F934F930E9428360FB6F894DEBF0FBEA2
:104F8000CDBF92CF6091A40190E1699FB00111243F
:104F900067517E4F83CF8091A401882309F443CECB
:104FA00060910301A9E06A9FB001112462537E4F12
:104FB00075CF6091C701BAE06B9FB00111240DC09D
:104FC0006091C601EAE06E9FB001112406C06091B5
:104FD000C501FAE06F9FB001112466547E4F5ECF89
:104FE000F90191919F01992321F0811102C09C93B5
:104FF00002C04C9381E01196F4E0AE3BBF0781F70D
:10500000DE0111962EEC34E080E040E29D91FB0140
:10501000992321F0811102C0908302C0408381E076
:105020006F5F7F4F2617370789F710920001C090F6
:105030004604D0904704E0904804F0904904F6E913
:10504000CF0ED11CE11CF11C0E948A066C157D0557
:105050008E059F0508F498C00E948A066093460456
:105060007093470480934804909349048091CF043F
:10507000882351F180918C0490918D04DC01ED9195
:10508000FC910280F381E02D40E06EE7099580916C
:105090008C0490918D04DC01ED91FC910280F381F0
:1050A000E02D41E061E9099580918C0490918D0497
:1050B000DC01ED91FC910280F381E02D41E061E3A0
:1050C00009951092CF045EC01091CE04112309F40B
:1050D0004BC0E12E012E000CFF08C7010E94EA35EB
:1050E000892B31F0C7010E94F135182F00E001C073
:1050F00001E080918C0490918D04DC01ED91FC9194
:105100000280F381E02D40E06EE7099580918C04E8
:1051100090918D04DC01ED91FC910280F381E02DF2
:1051200041E062E0099580918C0490918D04DC014E
:10513000ED91FC910280F381E02D002311F063E2F8
:1051400001C062E241E0099580918C0490918D0448
:10515000DC01ED91FC910280F381E02D41E0612FB3
:1051600009951092CE040EC0809160049091610464
:10517000892B41F080914A0491E0980F90934A0462
:105180000E943C130E94371580E090E0892B11F4B7
:105190000C94011A0E9400000C94011A8091520391
:1051A00090915303009711F00C949A1783E290E0CA
:1051B000909358038093570384E290E090935A03AE
:1051C0008093590385E290E090935C0380935B03A6
:1051D00086E290E00C94B217892B11F00C94C4175E
:1051E00080EE0C94C2178CE5809354030E94CF1577
:1051F0008D3B910511F40C9487178B3B910511F4AD
:105200000C94941787E70E94310D0E94D50C8111F0
:105210000C94C7170E94690F87E70E94310D8EE139
:1052200090E00E94B8150E94D50C8AE08093DF04BC
:1052300088E08093E00464E670E080E090E00E9403
:105240005006A3EDCA2EA4E0DA2E12EA87E70E94E8
:10525000310D612F8DE393E00E94DD040E94D50C97
:1052600087E70E94310D82E090E00E94AC1590919A
:10527000D1028091D2029817F1F38DE393E00E945E
:105280009404B82E8DE393E00E949404082F0E94AA
:10529000D50CFB2CE12CC701802BD6018D939D935F
:1052A0006D011E5F1E3A91F683E00C94C51720E055
:1052B00030E0A90160E081E00E94051620E030E0C6
:1052C000A90161E082E00E940516809149038111E5
:1052D00008C01092D8011092D9011092DA011092F0
:1052E000DB011092D4011092D5011092D6011092D8
:1052F000D70140E050E0BA018AE00E94EC1540E09E
:1053000050E0BA0183E00E94EC1540E050E0BA01A1
:1053100089E00E94EC151FAA18AE19AE1AAE03CC94
:105320008091490381111CC08091E0019091E101BD
:10533000A091E201B091E3012FA138A549A55AA59A
:10534000281B390B4A0B5B0BAAE0B0E00E94D3325A
:105350006093D8017093D9018093DA019093DB01B7
:105360004090BB015090BC016090BD017090BE01A7
:10537000E090BF01F090C0010091C1011091C20105
:10538000EFA6F8AA09AB1AAB0E946F166BAB7CAB09
:105390008DAB9EAB0E949E1663015201EFA4F8A84C
:1053A00009A91AA92BA93CA94DA95EA90E94980890
:1053B0000E94A42E6FAB78AF89AF9AAF30900201F4
:1053C0003320C1F16091D8017091D9018091DA0147
:1053D0009091DB012AE030E040E050E00E94AE32E4
:1053E000CA01B9010E94DB2E4B015C016FA978ADA7
:1053F00089AD9AAD0E94D92E6B017C01A501940163
:10540000C501B4010E94D0304B015C01A701960197
:10541000C701B6010E94D0309B01AC01C501B401A7
:105420000E94432D0E949B310E94A42E6FAB78AF47
:1054300089AF9AAF0E946F164B015C010E949E16C5
:105440006B017C01A3019201C501B4010E94422DB0
:1054500025E33AEF4EE85CE30E94D0304B015C015B
:1054600025E33AEF4EE85CE36FA578A989A99AA9EC
:105470000E94D0302B013C0125E33AEF4EE85CE37B
:10548000C701B6010E94D0306B017C01C501B40197
:105490000E948D316BAB7CAB8DAB9EABC701B6016F
:1054A0000E94262E6FA778AB89AB9AABC301B201DD
:1054B0000E948D316BAF7CAF8DAF9EAFC501B40143
:1054C0000E94262E4B015C012BAD3CAD4DAD5EAD77
:1054D0006FA578A989A99AA90E94D030A501940145
:1054E0000E94D0304B015C01C301B2010E94262E04
:1054F0002B013C01C701B6010E948D319B01AC011B
:10550000C301B2010E94D030A50194010E94422D36
:105510006B017C012FA538A949A95AA96BA97CA9BF
:105520008DA99EA90E94D030A70196010E94C22D8C
:105530006B017C0120E030E0A9010E94212E87FF51
:105540000AC02BED3FE049EC50E4C701B6010E94D0
:10555000432D6B017C0121EE3EE245E652E4C7019A
:10556000B6010E94D0300E949D2EAB01BC018AE0A2
:105570000E94EC15A090B301B090B401C090B501A9
:10558000D090B601E090B701F090B8010091B90158
:105590001091BA01EFA6F8AA09AB1AAB0E946F16D8
:1055A0002B013C010E949E16EFA4F8A809A91AA994
:1055B000A30192010E9498086B017C013320B1F194
:1055C0008091AF019091B001A091B101B091B20171
:1055D0000FA118A529A53AA5081B190B2A0B3B0BEF
:1055E000C901B8010E94DB2E9B01AC010E94D030A2
:1055F0004B015C01A7019601C701B6010E94D030A2
:105600009B01AC01C501B4010E94432D0E949B3156
:105610006B017C012FA138A549A55AA52093AF01A4
:105620003093B0014093B1015093B2016091AB014E
:105630007091AC018091AD019091AE010E94D92E84
:10564000A70196010E94432D0E94A42E6093AB01F6
:105650007093AC018093AD019093AE010E949E16B1
:105660006093B7017093B8018093B9019093BA0128
:105670000E946F166093B3017093B4018093B501DB
:105680009093B60150CAE759FF4F0C94CD328091E8
:105690000201812780930201CFCB8091C70181272E
:1056A0008093C701C9CB8091C60181278093C60131
:1056B000C3CB8091C50181278093C501BDCB60918B
:1056C000010181E090E00E949D0C6091020182E066
:1056D00090E00E949D0C6091A40183E090E00E9404
:1056E0009D0C6091030185E090E00E949D0C60910B
:1056F000C70186E090E00E949D0C6091C60187E0A2
:1057000090E00E949D0C6091C50188E090E00E94AD
:105710009D0C20E030E048EC52E460914A03709127
:105720004B0380914C0390914D030E94D0300E9416
:105730009D2E8AE090E00E949D0C60914E038CE0CB
:1057400090E00E949D0CE0E0F0E00995C12CD12C86
:105750006FEFC6010E949D0CFFEFCF1ADF0A22E314
:10576000C216D104A9F71BA21CA21DA21EA2BE0133
:105770006D5D7F4F84E190E00E94720C1BA21CA221
:105780001DA21EA2BE016D5D7F4F88E190E00E94C8
:10579000720CE0E0F0E009954FCB8DE591E090933D
:1057A0008E0380938D0380916F008B7F80936F00B9
:1057B00080916F008F7D80936F0080919D01809319
:1057C0009E0180919C018111FCCF80916F008D7FA3
:1057D00080936F000895CF92DF92EF92FF92EDE3F6
:1057E000F3E01382128288EEC82E83E0D82EE12CDB
:1057F000F12CC482D582E682F7828BE491E091831A
:105800008083E6E4F4E01082118212821382148213
:10581000118E138E128E158E148E178E168E10A268
:1058200011A210928D0410928C041092CE0410924A
:10583000CF0486E78093D00482E38093D10415825D
:1058400044E050E06FEF70E088E894E00E94023698
:1058500080E2E8E6F4E0DF011D928A95E9F7E9E9E4
:10586000F3E0108211821382128214821582168252
:105870001782108612861186138614861586168660
:105880001786118A108A128A138A148A158A168A30
:10589000108E178A118E128E138E148E158E12A2F0
:1058A00013A214A215A216A217A210AA11AA12AA34
:1058B00013AA14AA15AA16AE17AE1092DD03109201
:1058C000DE031092DF031092E0031092E5031092C2
:1058D000E6031092EB031092EC031092ED0310928A
:1058E000EE031092F3031092F4031092F903109256
:1058F000FA031092FB031092FC0310920104109221
:1059000002041092070410920804109209041092E5
:105910000A0410920F0410921004109215041092B1
:105920001604109217041092180410921D0410927D
:105930001E0482E080932E0410922F0410923004F3
:1059400010923104109233041092320410923504F4
:1059500010923404109236041092370410923804D6
:105960001092390410923A0410923B0410923C04B5
:1059700010923D0410923E0410923F041092400495
:105980001092410410924204109243041092440475
:105990001092450410921F04EDE8F3E01382128286
:1059A000C482D582E682F7828DE591E0918380837F
:1059B000E2E5F3E082E090E0918380838DE58283ED
:1059C00010924903FF90EF90DF90CF9008951F93BE
:1059D000FC0199278827BC01E89411911032E9F362
:1059E000193010F01E30C8F31B3251F01D3249F44B
:1059F000689406C00E94172D610F711D811D911DB5
:105A0000119110531A30B0F33EF490958095709533
:105A100061957F4F8F4F9F4F1F910895FB01DC01D0
:105A200002C005900D9241505040D8F70895592F6B
:105A3000482F372F262F660F771F881F991F660F55
:105A4000771F881F991F620F731F841F951F660F92
:105A5000771F881F991F0895F999FECF92BD81BDC8
:105A6000F89A992780B50895262FF999FECF1FBA85
:105A700092BD81BD20BD0FB6F894FA9AF99A0FBE77
:105A8000019608955058BB27AA270E945A2D0C94BE
:105A9000F12F0E94B82F38F00E94BF2F20F039F468
:105AA0009F3F19F426F40C947E2F0EF4E095E7FB4B
:105AB0000C94782FE92F0E94163058F3BA1762071A
:105AC00073078407950720F079F4A6F50C94383015
:105AD0000EF4E0950B2EBA2FA02D0B01B901900109
