:100000000C9420030C9448030C9448030C9448036C
:100010000C9448030C9448030C9448030C94480334
:100020000C9448030C9448030C9448030C94480324
:100030000C9448030C9448030C9448030C94480314
:100040000C94110C0C9448030C947A0E0C94B10E81
:100050000C94020F0C9448030C9448030C9448032E
:100060000C945B0C0C9448031F1BFF1B581B871B35
:10007000901B991BA21BA81BAE1BB41BEE1B241CC0
:10008000371C291C411C5B1C751C7E1C8C1C931C82
:100090009A1C08000000BE922449123EABAAAA2A6C
:1000A000BECDCCCC4C3E00000080BEABAAAAAA3E7E
:1000B00000000000BF000000803F000000000008BA
:1000C0004178D3BB4387D1133D190E3CC3BD428257
:1000D000AD2B3E68EC8276BED98FE1A93E4C80EF15
:1000E000FFBE01C4FF7F3F000000000007634236EF
:1000F000B79BD8A71A39685618AEBAAB558C1D3CB9
:10010000B7CC5763BD6DEDFD753EF6177231BF007C
:100110000000803F2044697361626C656400204583
:100120006E61626C65640000205374617274757056
:1001300000204175746F00000000204D616E7561F4
:100140006C00002044697361626C6564000000000B
:10015000000000204174746F50696C6F7420343556
:10016000000000204174746F50696C6F7420393046
:10017000000000204174746F50696C6F7420313836
:100180003000002041504D322E35203930412F357E
:10019000305600204143533735382D35304200006A
:1001A000000000204143533735382D3130304200B4
:1001B000000000204143533735382D31353042009F
:1001C000000000204143533735382D323030420093
:1001D000000000204143533735382D35305500009D
:1001E000000000204143533735382D313030550061
:1001F000000000204143533735382D31353055004C
:10020000000000204143533735382D32303055003F
:1002100000000020756E6B6E6F776E0020424D50AF
:10022000323830000020424D453238300000204D39
:1002300053353631310000204C505300000000008F
:1002400056657273696F6E2056322E332E31000060
:1002500000566172696F4750532053656E736F7219
:1002600000005265736574206F66667365740000E4
:1002700000000050726573737572652073656E734C
:100280006F723A00566172696F20736D6F6F746898
:10029000696E673A00566172696F20646561647ABD
:1002A0006F6E653A00004D61696E20647269766513
:1002B0003A000000000000436170616369747920B6
:1002C00072657365743A000052783120766F6C74F1
:1002D0006167653A000000000052783220766F6C4A
:1002E000746167653A00000000004578742E205460
:1002F000656D703A000000000000005361766520D3
:10030000616E642072657374617274004C6F616415
:100310002064656661756C747300000000014C61B7
:10032000746974756465000000000000000000003E
:100330000000200000000000000900024C6F6E6702
:100340006974756465000000000000000000000092
:100350002000000000000009000347505320737084
:1003600065656400000000000000000000006B6D87
:100370002F6800000001000452656C2E20416C744F
:100380006974000000000000000000006D00000023
:100390000000000401054162732E20416C746974F1
:1003A000000000000000000000006D0000000000E0
:1003B00000040006566172696F0000000000000032
:1003C00000000000000000006D2F7300000000041A
:1003D000020744697374616E6365000000000000E9
:1003E0000000000000006D00000000000004000894
:1003F000547269700000000000000000000000005E
:10040000000000006B6D0000000000040209417A4A
:10041000696D7574680000000000000000000000B5
:100420000000B000000000000001000A436F757278
:1004300073650000000000000000000000000000E4
:10044000B000000000000001000B536174656C6C8B
:1004500069746573000000000000000000002000C7
:10046000000000000000000C48444F500000000055
:10047000000000000000000000000000200000005C
:1004800000000001020D4169722070726573732EC5
:100490000000000000000000000068506100000043
:1004A0000004020E54656D702E0000000000000074
:1004B0000000000000000000B04300000000000148
:1004C000010F48756D6964697479000000000000CF
:1004D000000000000000257248000000000101102B
:1004E000566F6C746167650000000000000000003A
:1004F00000000000560000000000000101114375DB
:100500007272656E740000000000000000000000C0
:100510000000410000000000000101124361706111
:100520006369747900000000000000000000000012
:100530006D416800000000040013506F7765720081
:100540000000000000000000000000000000570054
:10055000000000000004001452783120566F6C74C3
:100560006167650000000000000000005600000008
:1005700000000001021552783220566F6C746167DA
:1005800065000000000000000000560000000000B0
:10059000000102164578742E2054656D700000002D
:1005A0000000000000000000B04300000000000157
:1005B00001174169722073706565640000000000D6
:1005C0000000000000006B6D2F68000000010000BB
:1005D000000000000000000000000000000000001B
:1005E000000000000000000000000000000000000B
:1005F00000250028002B0004040404040404040261
:1006000002020202020303030303030102040810AF
:10061000204080010204081020010204081020007C
:1006200000000800020100000304070000000000B1
:1006300000000000000000240027002A0000D51F51
:1006400011241FBECFEFD8E0DEBFCDBF11E0A0E088
:10065000B1E0EEEAF5E502C005900D92A235B107D2
:10066000D9F723E0A2E5B1E001C01D92A83AB20794
:10067000E1F713E0C0E2D3E004C02197FE010E943D
:10068000CE24CF31D107C9F70E941A100C94D52A75
:100690000C9400009091EC019111FCCF91E09093AB
:1006A000EC019093EB012FEF2093EA011092E90106
:1006B000260F2093E8019093C7019091C701880FFE
:1006C000892B8093C7018091C601813061F410921B
:1006D000C6018091C7018093BB008091BC0083FD5F
:1006E000F8CF85EC01C085EE8093BC008091EC01D1
:1006F0008130E1F38091E901861710F46091E901FE
:10070000A8ECB1E026EA31E0F9018E2F821B8617B2
:1007100018F48D918193F9CF862F0895613208F0F6
:1007200060E20E944A031092A5018093A4010895FB
:1007300020910F0290915103213208F04AC080911C
:10074000EC018111FCCF32E03093EC0131E03093C9
:10075000EB013FEF3093EA011092E9012093E801A9
:10076000AFEEB1E048EC51E0FA013E2F341B3217F6
:1007700018F43D913193F9CF1092C7012091C70130
:10078000990F922B9093C7019091C601913061F41B
:100790001092C6019091C7019093BB009091BC004C
:1007A00093FDF8CF95EC01C095EE9093BC0090912D
:1007B000EC019230E1F39091EA019F3F79F0809152
:1007C000EA01803241F08091EA01803331F084E027
:1007D00005C081E003C082E001C083E01092EE0119
:1007E00010920F021092ED01089591E09093ED01A7
:1007F000809351031092EE0110920F020895CF934F
:10080000DF93D82FC62F809142020E94F5036D2FEF
:1008100080E192E00E94C10A6C2F80E192E00E9488
:10082000C10ADF91CF910C9498030F931F93CF933C
:10083000DF931F92CDB7DEB7682F02E412E0F80114
:10084000808169830E94F503698180E192E00E94C2
:10085000C10A0E94980361E0F80180810E948E0322
:1008600080E192E00E94750A0F90DF91CF911F9175
:100870000F910895CF92DF92EF92FF920F931F9303
:10088000CF93DF931F92CDB7DEB7682F02E412E05B
:10089000F801808169830E94F503698180E192E01B
:1008A0000E94C10A0E94980363E0F80180810E94BF
:1008B0008E0380E192E00E94750A6C01990FEE08A8
:1008C000FF08FE2CED2CDC2CCC2480E192E00E9471
:1008D000750AAC01990F660B770BC42AD52AE62A54
:1008E000F72AFE2CED2CDC2CCC2480E192E00E9437
:1008F000750A092E000CAA0BBB0BBC01CD016C299B
:100900007D298E299F290F90DF91CF911F910F9103
:10091000FF90EF90DF90CF9008950F931F93CF93A8
:10092000DF931F92CDB7DEB7682F02E412E0F80123
:10093000808169830E94F503698180E192E00E94D1
:10094000C10A0E94980362E0F80180810E948E0330
:1009500080E192E00E94750A182F80E192E00E94E7
:10096000750A20E030E0312F822B932B0F90DF911E
:10097000CF911F910F9108950E948D049827892788
:1009800098270895CF9366EB80EE0E94FF0364E6FC
:1009900070E080E090E00E94CB0B88E80E94BC04ED
:1009A00090934D0280934C028AE80E94BC0490937D
:1009B0004F0280934E028CE80E94BC049093510237
:1009C000809350028EE80E94BC049093530280935F
:1009D000520280E90E94BC04909355028093540215
:1009E00082E90E94BC04909357028093560284E9E6
:1009F0000E94BC04909359028093580286E90E9499
:100A0000BC0490935B0280935A0288E90E94BC0464
:100A100090935D0280935C028AE90E94BC049093EB
:100A20005F0280935E028CE90E94BC049093610295
:100A3000809360028EE90E94BC04909363028093CD
:100A4000620280914302823009F03FC081EA0E9435
:100A500015048093640281EE0E94BC0490936602A8
:100A60008093650283EE0E9415048093670284EEF2
:100A70000E941504C82F85EE0E941504282F2F70A0
:100A800030E1C39FC0011124822B909369028093AF
:100A9000680286EE0E941504C82F85EE0E94150498
:100AA00090E024E0959587952A95E1F740E1C49F71
:100AB00090011124822B932B90936B0280936A02F6
:100AC00087EE0E94150480936C0289ED80936E027C
:100AD00080916F028F71806280936F0280916D02AE
:100AE000807C806280936D0280914302823021F489
:100AF00061E082EF0E94FF0390916D02692F6770A1
:100B000080E2689F90011124892F869586958695AD
:100B1000877048E0849FB0011124622B732B97FBF0
:100B2000992790F9692B85EF0E94FF0390916E023F
:100B3000692F677080E2689F90011124892F869544
:100B400086958695877048E0849FB0011124622BBA
:100B5000732B9295969596959370692B84EFCF9110
:100B60000C94FF0390E0FC01E15EF94F2491FC013D
:100B7000E55FF94F3491FC01E950FA4FE491EE231F
:100B8000B1F1222339F1233091F038F42130A9F06A
:100B9000223001F584B58F7D12C0273091F02830C6
:100BA000A1F02430B9F4809180008F7D03C0809142
:100BB00080008F77809380000DC084B58F7784BDCF
:100BC00009C08091B0008F7703C08091B0008F7D05
:100BD0008093B000F0E0EE0FFF1FE351FA4FA591B4
:100BE000B4918FB7F894EC913E2B3C938FBF08954E
:100BF000809342021092A5011092A4011092EE017E
:100C000010920F020E94890D80ED0E941504883514
:100C100021F0803641F482E001C081E080934302FC
:100C20000E94C20402C0109243028091430290E0ED
:100C300008958F929F92AF92BF92CF92DF92EF92E0
:100C4000FF928AEF0E943A04E2E4F2E04285538583
:100C50004A01A12CB12CC72ED82EE92EFF24E7FC87
:100C6000FA94C818D908EA08FB08DC01CB0137E080
:100C7000B595A795979587953A95D1F7B501A401B4
:100C8000440F551F661F771F4C015D01841A950A9A
:100C9000A60AB70AA5019401A485B5850E94DF24A0
:100CA0004B015C013BE0B594A794979487943A95E7
:100CB000D1F7A7019601C701B6010E949F249B01AD
:100CC000AC016CE055954795379527956A95D1F716
:100CD000A685B7850E94DF24DC01CB017EE0B595B7
:100CE000A795979587957A95D1F7A5019401280F37
:100CF000391F4A1F5B1F2683378340875187A5E032
:100D0000B0E00E94D424DC01CB0180589F4FAF4F4C
:100D1000BF4F692F7A2F8B2F992787FD9A950E94B5
:100D2000AA2120E030E048EC52E40E94FA20FF9033
:100D3000EF90DF90CF90BF90AF909F908F900895ED
:100D40002F923F924F925F926F927F928F929F92DB
:100D5000AF92BF92CF92DF92EF92FF920F931F93C9
:100D6000CF93DF93CDB7DEB7A2970FB6F894DEBF6F
:100D70000FBECDBF0E94190687EF0E943A046A8F0A
:100D80007B8F8C8F9D8F8091480290914902A0911A
:100D90004A02B0914B026C017D01FF0CCC08DC2CA7
:100DA00076019C01AD016C2D7C2D8C2D9C2D345F2A
:100DB0004140510961097109810991092AA339A3A7
:100DC00049835A836B837C838D839E8359016A0197
:100DD0007B018C010E94E7242A8B3B8B4C8B5D8B23
:100DE0006E8B7F8B888F998F80915C028E8FE091C4
:100DF0005D02EF83F0915A02FF8F80915B0288873A
:100E0000E0915802E8A3F0915902F987B090550299
:100E1000A09054021B2D110F110BC12ED12EE12ECB
:100E2000F12E012F2AA139A149815A816B817C8140
:100E30008D819E810E94E7240CE00E9451261901B9
:100E40002A013B014C01B0905702A09056021B2D85
:100E5000110F110BC12ED12EE12EF12E012F2A8957
:100E60003B894C895D896E897F89888D998D0E9427
:100E7000E72408E00E946A2651016201730184019F
:100E80000E94882670588F4F9F4F209052023090BA
:100E900053025101C12CD12CE12CF12C00E010E0C7
:100EA0000E94E72401E20E946A262A873B874C873A
:100EB0005D876E877F87888B998BA0E00E94A6262E
:100EC00009F45EC1AE8C1F81110F110BBF80C12EC2
:100ED000D12EE12EF12E012F2A893B894C895D8983
:100EE0006E897F89888D998D0E94E72419012A01D6
:100EF0003B014C01AF8C1885110F110BB884C12E2A
:100F0000D12EE12EF12E012F2AA139A149815A813A
:100F10006B817C818D819E810E94E72401E10E948A
:100F2000512659016A017B018C019101A201B30193
:100F3000C4010E94882619012A013B014C014A8DF7
:100F40005B8D6C8D7D8D84E0759567955795479584
:100F50008A95D1F780E090E0A0E1B0E0841B950B8A
:100F6000A60BB70B6C017D01FF0CCC08DC2C7601C5
:100F70009C01AD016C2D7C2D8C2D9C2D0FE10E94D0
:100F80005126F901B42FA52F6C837D8389839A8321
:100F900028A19985990F990B3985492F592F692FC8
:100FA000792F892F03E20E94512659016A017B01A2
:100FB0008C019101A201B301C4010E94882659014C
:100FC0006A017B018C019F014B2F5A2F6C817D811F
:100FD00089819A810E949D264901542E652EB62F43
:100FE000A72FF82FE92F03E00E9451265401C52CAA
:100FF000D62CEB2EFA2E0F2F1E2F0E949D26590164
:101000006A017B01782E192F03E00E945126072DDB
:101010000E949D2603E00E9451265401C52CD62C27
:10102000EB2EFA2E0F2F1E2F0E949D2602E00E940B
:1010300051260F2F0E949D2601E00E9451260F2F5E
:101040000E949D26AA84BB84CC84DD84EE84FF8428
:10105000088919890E947C2528873F8349835A8300
:101060006B837C838D839E830DE00E946A26922E83
:10107000832E742E652E562E472E382E292E309113
:10108000630220916202932F990F990BA92CB82C1F
:10109000C72CD62CE52CF42C032D122D492F592FBB
:1010A000692F792F892F0E94E7240E94E72409E104
:1010B0000E946A2659016A017B018C0128853F81C3
:1010C00049815A816B817C818D819E810E94882615
:1010D00019012A013B014C0130916102209160020B
:1010E000932F990F990BA884BF80C980DA80EB8079
:1010F000FC800D811E81492F592F692F792F892F4F
:101100000E94E72403E10E946A2659016A017B01DB
:101110008C019101A201B301C4010E94882608E05C
:101120000E946A26522E632E742E852E962EF72F3D
:10113000E82FB92F30915F0220915E02932F990F13
:10114000990B492F592F692F792F892F04E00E947D
:10115000512659016A017B018C01252D362D472D21
:10116000582D692D7F2F8E2F9B2F0E9488260E943D
:10117000A22120E030E040E85BE30E94FD2203C0B2
:1011800060E070E0CB01A2960FB6F894DEBF0FBE10
:10119000CDBFDF91CF911F910F91FF90EF90DF9026
:1011A000CF90BF90AF909F908F907F906F905F9007
:1011B0004F903F902F900895DF92EF92FF920F9300
:1011C0001F93CF93DF93CDB7DEB76E970FB6F8942A
:1011D000DEBF0FBECDBF8C01DC015A961C921E9261
:1011E00059978DE193E056969C938E935597F8010D
:1011F0007D9680E2DF011D928A95E9F7D12CE12CE2
:10120000F12CF801658976896E0D7F1D4EE150E065
:10121000CE0101960E94692089818823C9F080321D
:1012200020F4F801E80FF11DD58ED80159968D9163
:101230009C915A9701965A969C938E935997BEE12A
:10124000EB0EF11CD394E0ECEE16E3E0FE06C9F6DB
:101250006E960FB6F894DEBF0FBECDBFDF91CF9173
:101260001F910F91FF90EF90DF900895CF93C82FBB
:101270008091890290918A02892B21F480E792E083
:101280000E94DC08C032D0F4EC2FF0E0E059FD4FB2
:10129000858DE82FF0E093E0F595E7959A95E1F7D5
:1012A000E355FD4F282F277081E090E001C0880FA3
:1012B0002A95EAF7809590818923808310928C0289
:1012C00010928B02CF910895813208F080E2682F4E
:1012D00087E70E944A031092A5018093A401089514
:1012E000862740E1849F900111242827622F70E017
:1012F000562F4427292F30E0242B352BCB0144E0F7
:10130000959587954A95E1F728273927CB0153E032
:10131000880F991F5A95E1F7822793270895209106
:101320008702309188022115310589F0803278F4E6
:10133000E82FF0E0E059FD4F858DF90194E0899F99
:10134000E00DF11D1124408351836283738308955E
:101350001F93CF93DF9387E70E94F50360E080E15E
:1013600092E00E94C10A0E94980387E70E94F50359
:1013700083E090E00E9464099091A4018091A5010E
:101380009817F1F380E192E00E94750AD82F80E16E
:1013900092E00E94750A182F80E192E00E94750A7F
:1013A000C82F0E949803812F90E0A0E0B0E0BA2FF0
:1013B000A92F982F8827AD2BBC01CD016C2BDF9175
:1013C000CF911F910895CF92DF92EF92FF920F93EA
:1013D0001F93CF93DF936C017A018B01C0E0D0E0C3
:1013E000CE15DF0589F0D8016D918D01D601ED9103
:1013F000FC910190F081E02DC6010995892B11F433
:101400007E0102C02196ECCFC701DF91CF911F91E1
:101410000F91FF90EF90DF90CF9008953FB7F89431
:101420008091A0039091A103A091A203B091A30386
:1014300026B5A89B05C02F3F19F00196A11DB11D2F
:101440003FBFBA2FA92F982F8827820F911DA11D6A
:10145000B11DBC01CD0143E0660F771F881F991FA6
:101460004A95D1F7089585ED8093BC008091BC002A
:1014700084FDFCCF1092EC01089540917603262F55
:1014800030E0240F311D21323105DCF42091EC01D4
:101490002430C9F4FC0180E090E0861758F43091C4
:1014A00076032191DC01AC5ABC4FA30FB11D2C93E4
:1014B0000196F3CF80917603680F6093760380E006
:1014C000089581E0089582E008950895E091A501CE
:1014D0008091A401E81730F4F0E0EA55FE4F8081D6
:1014E00090E008958FEF9FEF08959091A50180916E
:1014F000A401981750F4E92FF0E0EA55FE4F20813F
:1015000030E09F5F9093A50102C02FEF3FEFC9012C
:1015100008958091A40190E02091A501821B91097A
:101520000895CF92DF92EF92FF920F931F93CF9384
:10153000DF937C01262F972F8A018091ED0188236C
:1015400091F0C62FD72F6E01C40ED51ECC15DD0528
:1015500071F06991D701ED91FC910190F081E02D3E
:10156000C7010995F3CF642F822F0E943D0AC8015D
:10157000DF91CF911F910F91FF90EF90DF90CF906F
:101580000895CF93DF931F92CDB7DEB76983209183
:10159000ED012223D1F020910F02203240F021E012
:1015A00030E0FC013383228380E090E015C080911D
:1015B000EE01E82FF0E0E151FE4F998190838F5FBB
:1015C0008093EE0180930F0205C061E0CE01019689
:1015D0000E943D0A81E090E00F90DF91CF91089545
:1015E000089580E090E00895CF92DF92EF92FF920D
:1015F0000F931F93CF93DF939C01EA01F89450E07F
:101600006C0186E4C80ED11CF901EE5BFF4F890125
:101610000E5F1F4F852F90E08C179D07F8F4D601C1
:101620004C914034E0F4E080F180860F971FDC019C
:101630008C91D7018C93D6018C918F5F8C93808194
:10164000918101968E179F0718F0402F812F02C0BD
:10165000482F892F408381835F5FDCCFCE01F90162
:10166000E457FF4F2081211108C021E02083209101
:10167000C1002F7628622093C1007894DF91CF912A
:101680001F910F91FF90EF90DF90CF900895FC0194
:10169000E557FF4F2081222301F1F894A0915203D6
:1016A000B0915303A757BF4F0D90BC91A02D4C9103
:1016B0002081215020833297208131812F5F3F4F3D
:1016C000BC0169577F4F2617370718F09C01295B2B
:1016D0003F4F31832083789401C040E0842F90E015
:1016E0000895FC01E557FF4F208181E090E0211132
:1016F00002C080E090E008950E941028CF93DF930D
:10170000EC011092C00080E98093C10086E08093D4
:10171000C2001092C50083E08093C40080E00E9464
:10172000F20F81E00E94F20FCE010296FE01EE5B05
:10173000FF4F91838083329691838083329610820B
:101740008B5B9F4FEF5BFF4F91838083329691833A
:1017500080833296108231961082D0935303C093C7
:101760005203DF91CF9108958E3008F08E5087702C
:10177000806480937C0080917A00806480937A00FA
:1017800080917A0086FDFCCF8091780020917900CD
:1017900090E0922B08958F929F92AF92BF92CF923A
:1017A000DF92EF92FF926B017C010E940E0A4B01C7
:1017B0005C01C114D104E104F104F1F00E940E0AAD
:1017C000DC01CB0188199909AA09BB09883E93401D
:1017D000A105B10570F321E0C21AD108E108F108B2
:1017E00088EE880E83E0981EA11CB11CC114D104A0
:1017F000E104F10419F7DDCFFF90EF90DF90CF9077
:10180000BF90AF909F908F9008952FB7F8946091FC
:101810009C0370919D0380919E0390919F032FBF25
:1018200008951F920F920FB60F9211242F933F939A
:101830008F939F93AF93BF9380919C0390919D034F
:10184000A0919E03B0919F0330919B0326E0230F4C
:101850002D3720F40296A11DB11D05C029E8230FE4
:101860000396A11DB11D20939B0380939C0390932D
:101870009D03A0939E03B0939F038091A00390913A
:10188000A103A091A203B091A3030196A11DB11DD4
:101890008093A0039093A103A093A203B093A3030A
:1018A000BF91AF919F918F913F912F910F900FBE5C
:1018B0000F901F9018951F920F920FB60F92112440
:1018C0002F933F934F935F936F937F938F939F9348
:1018D000AF93BF93EF93FF938091B900887F8036D9
:1018E00009F49CC068F5883209F45BC090F480313B
:1018F00009F454C038F4882309F4F6C0883009F498
:101900004DC0F6C0883109F44CC0803209F45DC086
:10191000EFC0803409F468C048F4803309F455C03E
:10192000883309F0E5C08093EA01D8C0803509F416
:101930004FC0883509F45DC0883409F0D9C0D6C0DD
:10194000883909F4C7C0A8F4883709F467C038F4A7
:10195000883609F463C0803709F460C0C9C088388C
:1019600009F4B8C0803909F45FC0803809F0C0C0FC
:101970005BC0803B09F486C038F4803A09F466C045
:10198000883A09F47FC0B4C0803C09F4A7C0883C01
:1019900009F4A4C0883B09F48AC0AAC08091C70199
:1019A00010C09091E9018091E801981770F5E091DD
:1019B000E90181E08E0F8093E901F0E0E853FE4FEA
:1019C00080818093BB0085EC86C08093EA018EC045
:1019D000E091E90181E08E0F8093E9018091BB00E5
:1019E000F0E0E853FE4F80839091E9018091E80197
:1019F0006EC0E091E90181E08E0F8093E901809152
:101A0000BB00F0E0E853FE4F80838091EB01811131
:101A10006DC081E08093C60184EA61C083E0809359
:101A2000EC0110929A03CFCF80919A03803208F094
:101A300051C0E0919A0381E08E0F80939A038091C8
:101A4000BB00F0E0E658FC4F8083BDCF85EC80936F
:101A5000BC001092EC0180919A03803230F4E09146
:101A60009A03F0E0E658FC4F108260919A0370E010
:101A7000E0917803F09179038AE793E00995109259
:101A80009A0336C084E08093EC01109277031092A1
:101A90007603E0917403F0917503099580917603C4
:101AA000811105C081E08093760310925403E09188
:101AB000770381E08E0F80937703F0E0EC5AFC4FC0
:101AC00080818093BB009091770380917603981773
:101AD00008F479CF85E88093BC000AC085EC809338
:101AE000BC001092EC0104C01092EA010E94330A7B
:101AF000FF91EF91BF91AF919F918F917F916F91E6
:101B00005F914F913F912F910F900FBE0F901F90BB
:101B100018951092EC0181E08093EB011092C601C0
:101B200082E10E94B20583E10E94B205E9EBF0E098
:101B300080818E7F808380818D7F808380E280930F
:101B4000B80085E48093BC000895CF92DF92EF92B5
:101B5000FF920F931F93CF93DF93CDB7DEB76E97AE
:101B60000FB6F894DEBF0FBECDBFFC0112828FEF1F
:101B70009FEFDC0183839483A583B68381E0878311
:101B8000148E158E168E178E10A2DB0193E0B5957C
:101B9000A7959A95E1F7A40FB51FDD962C9130E03B
:101BA000CB018770992702C0359527958A95E2F772
:101BB000217033272783232B09F48DC06A017B0111
:101BC0008F012EE1269FC001279F900D1124DA017D
:101BD00055966D917C915697680F791F4EE150E0B4
:101BE000CE0101960E9469208D8DF801868F898132
:101BF0008283B701660F771F660F771FD60157964E
:101C0000ED91FC915897E60FF71F80819181A28199
:101C1000B381F80183839483A583B683A801485FC9
:101C20005F4FFE013296DA0190E08191811106C08A
:101C3000392FD8015C969C93232F0FC0933119F054
:101C40009F5F8D93F2CF33E1F4CF8331910594F40C
:101C5000FA01E80FF91F70832F5F622F631BE1E029
:101C6000F0E0EC0FFD1FE60FF11D7589822F90E06B
:101C70007111EBCFF801658FFA01E80FF91F10829F
:101C80008E8D813031F0823041F480E4F801878F0D
:101C900004C080E2D8015F968C93D8015E968C9147
:101CA000843091F030F4882361F08130A1F483E036
:101CB0000FC0883041F0893051F0853061F484E004
:101CC00007C082E001C085E0F80180A304C085E080
:101CD000D80190968C936E960FB6F894DEBF0FBE27
:101CE000CDBFDF91CF911F910F91FF90EF90DF90CB
:101CF000CF9008951F920F920FB60F9211242F9339
:101D00003F938F939F93AF93BF93EF93FF93209154
:101D1000520330915303F901E957FF4FA081B1817C
:101D20008091C6008C93D901A557BF4F8C918F5FCE
:101D30008C938081918101968E179F0718F0C901BD
:101D4000895B9F4F91838083FF91EF91BF91AF910A
:101D50009F918F913F912F910F900FBE0F901F90E9
:101D600018951F920F920FB60F9211242F933F9345
:101D70004F935F938F939F93EF93FF9380915203C1
:101D800090915303FC01EA5BFF4F2081222301F174
:101D900032970190F081E02D80818093C6002091E0
:101DA000520330915303F901EA5BFF4F8081815068
:101DB00080833297808191810196A9014E5B5F4FAC
:101DC0008417950710F0C9010296918380830DC096
:101DD0008091C1008F7D80648093C100E0915203A7
:101DE000F0915303E457FF4F1082FF91EF919F91C1
:101DF0008F915F914F913F912F910F900FBE0F9058
:101E00001F9018951F920F920FB60F9211242F93C7
:101E10003F938F939F93EF93FF93E1ECF0E08081EA
:101E2000877B8069808380915203909153039C014A
:101E3000295B3F4FFC01E957FF4F318320833296E6
:101E40003183208332961082FF91EF919F918F9181
:101E50003F912F910F900FBE0F901F901895CF922A
:101E6000DF92EF92FF920F931F93CF93DF93EB01DB
:101E70007B0124E0E20EF11C8B016C01C61AD70A2B
:101E8000C601800F911F0E947220F80181938F017B
:101E9000EE15FF05A9F7CE01DF91CF911F910F91AC
:101EA000FF90EF90DF90CF900895AF92BF92CF92C6
:101EB000DF92EF92FF920F931F93CF93DF931F92C6
:101EC000CDB7DEB75C017B018B016C0184E0C80EED
:101ED000D11CF80161918F01C50169830E947220B4
:101EE0006981681719F0C5010E947A20FFEFAF1AC7
:101EF000BF0AAC14BD0469F7C7010F90DF91CF9101
:101F00001F910F91FF90EF90DF90CF90BF90AF9017
:101F100008950C947A200C947220CF93C82F862FAA
:101F20000E94B40BBC01990F880B990B0E94AA2147
:101F300020E030E040E85AE30E94FD2220E030E457
:101F40004EE455E40E94FD2224E0C29FF0011124DA
:101F5000E45EFD4F20813181428153810E94FD2248
:101F60000E946C21CF910895CF93DF9300D000D0D1
:101F7000CDB7DEB719821A821B821C82BE016F5F49
:101F80007F4F84E190E00E94550F19821A821B82D4
:101F90001C82BE016F5F7F4F88E190E00E94550F69
:101FA0000F900F900F900F90DF91CF910895CF93E6
:101FB000DF9387E70E94F503C2E8D1E06D8570E00A
:101FC000605B7F4F80E192E00E94C10A0E9498030B
:101FD0006C8570E080E090E00E94CB0BDF91CF91A8
:101FE0000C94A809CF93DF9390E0FC01E55FF94FD3
:101FF0002491FC01E950FA4F84918823C1F090E0CC
:10200000880F991FFC01ED5CF94FC591D491FC013B
:10201000E351FA4FA591B4919FB7F8943881822F7C
:10202000809583238883EC91E22BEC939FBFDF9113
:10203000CF910895CF93DF93CDB7DEB7C755D109C0
:102040000FB6F894DEBF0FBECDBF789484B5826022
:1020500084BD84B5816084BD85B5826085BD85B54C
:10206000816085BD80916E00816080936E001092CA
:102070008100809181008260809381008091810045
:1020800081608093810080918000816080938000D6
:102090008091B10084608093B1008091B000816034
:1020A0008093B00080917A00846080937A00809160
:1020B0007A00826080937A0080917A008E7F80938C
:1020C0007A0080917A00806880937A001092C10033
:1020D00086E70E94F80580933C02811105C087E7DE
:1020E0000E94F80580933C0280913C0281115DC002
:1020F00087E70E94F5030E949803811156C0109251
:10210000A5011092A4011092EE0110920F020E94FC
:10211000890D87E70E94F5036EE180E192E00E945D
:10212000C10A0E9498038AE080938E0188E0809320
:102130008F0164E670E080E090E00E94CB0B62E8E3
:10214000C62E61E0D62E12EA87E70E94F503612FC2
:1021500080E192E00E94C10A0E94980387E70E94F2
:10216000F50382E090E00E9464099091A4018091BF
:10217000A5019817F1F380E192E00E94750AB82E4C
:1021800080E192E00E94750A082F0E949803FB2CC0
:10219000E12CC701802BD6018D939D936D011E5FAD
:1021A0001E3A91F683E080933C0210913C0212307B
:1021B000B9F018F41130A1F031C0133009F1143026
:1021C00069F58DEC9CECACE4BFE380933D02909309
:1021D0003E02A0933F02B0934002109241021EC003
:1021E0008AE999E9A9E5BFE380933D0290933E0215
:1021F000A0933F02B093400285E0809341020EC05D
:102200008DEC9CECACE4BFE380933D0290933E02E6
:10221000A0933F02B09340021093410283E090E00C
:102220000E948B0F8F3F11F08093690184E090E052
:102230000E948B0F8F3F39F090E08F579109909358
:1022400068018093670185E090E00E948B0F8F3FCB
:1022500011F08093010186E090E00E948B0F8F3F88
:1022600031F091E0811101C090E090935A0187E034
:1022700090E00E948B0F8F3F31F091E0811101C0FF
:1022800090E09093590188E090E00E948B0F8F3F7F
:1022900031F091E0811101C090E0909358018AE003
:1022A00090E00E948B0F8F3FA1F0682F70E080E0DC
:1022B00090E00E94A82120E030E048EC52E40E9427
:1022C000FA2060933D0270933E0280933F02909308
:1022D00040028CE090E00E948B0F8F3F11F08093C2
:1022E0004102111103C086E00E94360980913C0230
:1022F000823019F08FE00E94360980913C028111F2
:1023000006C08DE00E9436098EE00E94360981E009
:102310000E94360982E00E94360983E00E94360955
:1023200080913C02811106C084E00E94360985E05C
:102330000E94360987E00E94360988E00E9436092B
:1023400089E00E9436098AE00E9436098BE00E94EB
:1023500036098CE00E94360987E10E943609109107
:10236000690111110DC080E10E94360981E10E94CE
:10237000360982E10E94360983E10E94360945C090
:1023800000910101002309F440C06FE571E084E190
:1023900090E00E942F0F0130C1F5153018F48FEF37
:1023A000810F01C085E06FE00E948D0F6B017C0101
:1023B000BE016F5F7F4F88E190E00E942F0FC70141
:1023C000B6010E94AA2120E030E04AE754E40E94CE
:1023D000FA206B017C012CE53FE842E85FE369816C
:1023E0007A818B819C810E94FD229B01AC01C701F7
:1023F000B6010E94A82287FD08C010925F011092CA
:102400006001109261011092620180915A01811164
:1024100003C084E10E94360980915901811103C0F3
:1024200085E10E94360980915801811103C086E13F
:102430000E94360986E78093B10282E38093B2025C
:1024400040E250E060E270E080E393E00E941E28EA
:102450008091840281113FC043E150E06AE371E062
:1024600080E792E00E94252888E080938402809192
:10247000890290918A02892B21F480E792E00E94E0
:10248000DC080091890210918A02013CBFE11B0720
:1024900030F4C801880F991F880F991F02C08FEF71
:1024A0009FEF0E94E326FC0120E030E04FEF5FEF5A
:1024B000BA012017310739F0419351936193719319
:1024C0002F5F3F4FF6CF8093870290938802109240
:1024D0008C0210928B028DE890E00E94E3262DE89A
:1024E000FC0111922A95E9F724E131E0DC012D93FA
:1024F0003C939093B4028093B30206E010E020E096
:1025000030E048E458EE61E070E00E947E0B1092EB
:10251000B7021092B6021092B8021092B90210924D
:10252000BA021092BB021092BC021092B502332480
:10253000339484EC92E0B32DB81B6796BFAF6797D6
:102540000E94050C00917E0110917F012091800175
:1025500030918101DC01CB01801B910BA20BB30BED
:10256000853B9105A105B10508F4AFC780913C02F8
:10257000882309F423C6833009F0D7C387E70E9474
:10258000F50360918F0170E0605C7F4F80E192E025
:102590000E94C10A0E94980360918E0170E080E061
:1025A00090E00E94CB0B0E94A80927966CAF7DAFEC
:1025B0008EAF9FAF27970E94D70F20918A0130914D
:1025C0008B01890120E030E0322F212F102F0027CE
:1025D0002B013C01401A510A620A730AE0918801FA
:1025E000F09189018090840190908501940140E0F0
:1025F00050E060E070E080E090E000E10E94512651
:10260000B22EE32EF42E252E6BAB872E982E9BAF89
:102610009F0140E050E0C301B2010E944025A22E7C
:10262000032F142FB52FF62FE72F6C01A0E00E9487
:10263000A62654F4AFE70E949126A22E032F142F52
:10264000B52FF62FE72F6C012A2D302F412F5B2F4E
:102650006F2F7E2FC60107E00E946A26A22EA32FAD
:102660006A01F62FE72F8C012B2D3E2D4F2D522D79
:102670006BA9782D892D9BADBA2EEF2EFE2E0E94D0
:10268000882628962FAF289729963FAF29972A9614
:102690004FAF2A972B965FAF2B972C966FAF2C9747
:1026A0002D967FAF2D972E968FAF2E972F969FAF9B
:1026B0002F976091820170918301009186011091A2
:1026C000870180E090E020E030E840E050E00E94A8
:1026D0004F25D22EE32EF42E252E6BAB872E982E6F
:1026E0009BAF980140E050E0C301B2010E94402539
:1026F000C22E032F142FB52FF62FE72F5C01A0E079
:102700000E94A6267CF421503F4F4F4F5F4F6F4FE2
:102710007F4F8F4F9F4FC22E032F142FB52FF62FB1
:10272000E72F5C012C2D302F412F5B2F6F2F7E2F39
:10273000C50108E00E946A265901C42EA52FF62F74
:10274000E72F8C012D2D3E2D4F2D522D6BA9782D6D
:10275000892D9BADDA2EEF2EFE2E0E9488266096E4
:102760002FAF6097232E61964FAF619762965FAF50
:10277000629763966FAF639764967FAF6497659631
:102780008FAF659766969FAF669720918C013091C9
:102790008D0140E050E0C301B2010E944025F22EBD
:1027A000032F142FB52FF62FE72FD82EE92EA0E0F8
:1027B0000E94A62684F42150310940485F4F6F4F94
:1027C0007F4F8F4F9F4FF22E032F142FB52FF62FD1
:1027D000E72FD82EE92E2F2D302F412F5B2F6F2F73
:1027E0007E2F8D2D9E2D07E10E946A262BAB3CABE0
:1027F0004DAB5EABCBA8DCA8EDA8FEA8E0EDCE0EFD
:10280000E7E0DE1EE11CF11C10929401109295018C
:1028100010929601109297011092980110929901CE
:1028200010929A0110929B0110929C0110929D01AE
:1028300010929E0110929F011092A0011092A1018E
:102840001092A2011092A301F0EDCF16F7E0DF067F
:10285000E104F1040CF0CCC02BA93CA94DA95EA960
:10286000CA01B9010E949F249B01AC01A5E0B0E020
:102870000E94D4244B015C01B594A794979487944B
:102880002B013C01770C4408542C320180929401B6
:1028900090929501A0929601B09297014092980172
:1028A0004092990140929A0140929B019B01AC0198
:1028B00082E055954795379527958A95D1F72BAFA7
:1028C0003CAF4DAF5EAF20939C0130939D01409390
:1028D0009E0150939F014092A0014092A10140921D
:1028E000A2014092A30134E2C3163AEFD3063FEFB0
:1028F000E306F3060CF07CC06BA97CA98DA99EA908
:102900006455724F8F4F9F4F9B01AC010E949F24D3
:1029100023966CAF7DAF8EAF9FAF2397A7E0B0E05B
:102920009B01AC010E94D4247B018C01AB01BC0152
:10293000770F440B542FBA014BAB5CAB6DAB7EAB46
:102940009401A501642D742D842D942D57016801E7
:10295000EBA8FE2C0E2D1E2D0E948826209394019C
:10296000309395014093960150939701609398019D
:102970007093990180939A0190939B01ABE0B0E032
:1029800023962CAD3DAD4EAD5FAD23970E94D42470
:102990007B018C0115950795F794E7949B01AC0199
:1029A000550F220B322FA9012BAB3CAB4DAB5EABCD
:1029B0002BAD3CAD4DAD5EAD642D742D842D942DAD
:1029C00057016801EBA8FE2C0E2D1E2D0E948826B3
:1029D00020939C0130939D0140939E0150939F0151
:1029E0006093A0017093A1018093A2019093A30131
:1029F00027966CAD7DAD8EAD9FAD2797AB01BC0129
:102A000080E090E0DC014BAB5CAB6DAB7EAB8FABA1
:102A100098AFA9AFBAAF60962FAD6097322D61968F
:102A20004FAD619762965FAD629763966FAD6397A6
:102A300064967FAD649765968FAD659766969FADFA
:102A40006697A0909C01B0909D01C0909E01D0908F
:102A50009F01E090A001F090A1010091A2011091CE
:102A6000A3010E949D2659016A017B018C012BA9BB
:102A70003CA94DA95EA960E070E080E090E00E9472
:102A8000E724F22E032F142FB52FF62FE72FD82E81
:102A9000E92EA0E00E94A62684F421503109404E80
:102AA0005F4F6F4F7F4F8F4F9F4FF22E032F142F8B
:102AB000B52FF62FE72FD82EE92E2F2D302F412FAF
:102AC0005B2F6F2F7E2F8D2D9E2D05E10E946A2694
:102AD00039014A01B62FA72FF82FE92F28962FADDD
:102AE000289729963FAD29972A964FAD2A972B967E
:102AF0005FAD2B972C966FAD2C972D967FAD2D97B4
:102B00002E968FAD2E972F969FAD2F97A090940164
:102B1000B0909501C0909601D0909701E0909801F7
:102B2000F090990100919A0110919B010E949D26BD
:102B300059016A017B018C019301A4016B2F7A2F4B
:102B40008F2F9E2F0E949D26F22E032F142FB52F1C
:102B5000F62FE72FD82EE92EA0E00E94A62684F4B7
:102B6000215030484F4F5F4F6F4F7F4F8F4F9F4FD8
:102B7000F22E032F142FB52FF62FE72FD82EE92E84
:102B80002F2D302F412F5B2F6F2F7E2F8D2D9E2DC0
:102B90000FE00E946A26B901CA01209306017093D2
:102BA000070140930801909309010E94AA2120E89F
:102BB00036EE45EC57E40E94FA202BEA3CED42E465
:102BC0005EE30E946A239B01AC0160E070E080E854
:102BD0009FE30E94882020E03AE24DE257E40E9401
:102BE000FD2220E030E048EC52E40E94FD220E94E9
:102BF0006C214B015C010E94D70F20918A0130911A
:102C00008B01890120E030E0322F212F102F002787
:102C10006B017C01C01AD10AE20AF30A20918C01EF
:102C200030918D0140E050E0C701B6010E9440257F
:102C3000722E032F142FB52FF62FE72F582E692E43
:102C4000A0E00E94A62684F42150310940485F4F3D
:102C50006F4F7F4F8F4F9F4F722E032F142FB52F23
:102C6000F62FE72F582E692E272D302F412F5B2F5F
:102C70006F2F7E2F852D962D07E10E946A262BABA4
:102C80003CAB4DAB5EAB6FAB78AF89AF9AAF4BA8A7
:102C90005CA86DA87EA870ED470E77E0571E611CFA
:102CA000711C80ED481687E05806610471044CF0F1
:102CB0001092900110929101109292011092930142
:102CC00013C0A7019601C701B6010E949F2420E00E
:102CD00030E0A9010E94AF2420939001309391012C
:102CE00040939201509393018091900190919101B2
:102CF000A0919201B0919301A3019201281B390B7D
:102D00004A0B5B0BCA01B9010E94AA2120E030E006
:102D100048EC52E40E94FA20609302017093030190
:102D2000809304019093050148C10E94A0060E946F
:102D30006C216093060170930701809308019093C2
:102D400009010E94A00620E030E048EC52E40E9415
:102D5000FA2020E030E54DE754E40E94FA2021E01B
:102D60003EED42E45EE30E946A239B01AC0160E019
:102D700070E080E89FE30E94882020E03AE24DE284
:102D800057E40E94FD2220E030E048EC52E40E942B
:102D9000FD220E946C214B015C010E941906609388
:102DA00002017093030180930401909305018091C7
:102DB0003C02823009F001C10E9419068DEF0E9489
:102DC0008D046C01E12CF12CC11430E8D306E10430
:102DD000F10409F4E1C0409048025090490260902B
:102DE0004A0270904B024CE2541A41E0640A7108A6
:102DF0006EE0CC0CDD1CEE1CFF1C6A95D1F78091B7
:102E0000680290916902092E000CAA0BBB0B74E1B9
:102E1000880F991FAA1FBB1F7A95D1F7C81AD90A24
:102E2000EA0AFB0AA0916A02B0916B02A301920127
:102E30000E94DF24C61AD70AE80AF90A50E4D50E20
:102E4000E11CF11CEFE0F594E794D794C794EA9560
:102E5000D1F7A0916C020A2E000CBB0BA3019201CA
:102E60000E94DF249B01AC01FAE055954795379508
:102E70002795FA95D1F72BAB3CAB4DAB5EABA09150
:102E80006702B0E0A30192010E94D424DC01CB01CF
:102E90001BE0B595A795979587951A95D1F7BC0135
:102EA000CD0170588F4F9F4F2BA93CA94DA95EA90A
:102EB0000E949F24DC01CB010AE0B595A795979568
:102EC00087950A95D1F79C01AD01405E5F4FA091B7
:102ED0006502B09166020E94DF24DC01CB01905EA6
:102EE000AF4FBF4FBC01CD012EE0959587957795EB
:102EF00067952A95D1F7A70196010E949F246B013F
:102F00007C013FE095958795779567953A95D1F740
:102F10009B01AC010E949F249B01AC0167E0559589
:102F20004795379527956A95D1F7A0916402B0E04F
:102F30000E94D424DC01CB0174E0B595A795979548
:102F400087957A95D1F7B701A601481B590B6A0BF3
:102F50007B0BDB01CA0177FF03C080E090E0DC015E
:102F600081309105A10559E1B50724F080E090E09A
:102F7000A0E0B9E1BC01CD015CE09595879577951E
:102F800067955A95D1F70E94AA2120E030E040E8E9
:102F90005AE30E94FD2204C060E070E080EC9FE7ED
:102FA00020E030E040E251E40E94FD220E946C21CA
:102FB000AB01BC018FE00E948F0980917A01909152
:102FC0007B01A0917C01B0917D010097A105B10525
:102FD00089F480927A0190927B01A0927C01B09258
:102FE0007D018092760190927701A0927801B09253
:102FF000790126C0A5019401281B390B4A0B5B0BF4
:10300000CA01B9012AE030E040E050E00E94AF245C
:1030100020937201309373014093740150937501B2
:10302000C501B40124E630E040E050E00E94AF2446
:1030300020936E0130936F014093700150937101A2
:103040000E94050C6B017C018091760190917701C3
:10305000A0917801B0917901A5019401281B390B49
:103060004A0B5B0BCA01B9010E94AA212B013C014A
:1030700080917E0190917F01A0918001B0918101AA
:10308000A7019601281B390B4A0B5B0BCA01B9013A
:103090000E94A8219B01AC0160E070E08AE794E403
:1030A0000E94FA209B01AC01C301B2010E94FD22E3
:1030B0000E946C218092760190927701A092780113
:1030C000B09279010E94AA216B017C019B01AC01A5
:1030D00060916A0170916B0180916C0190916D011A
:1030E0000E94882020913D0230913E0240913F0293
:1030F000509140020E94FD229B01AC01C701B60124
:103100000E9489200E946C216B017C010E94AA21EF
:1031100060936A0170936B0180936C0190936D01D1
:1031200080914102482F50E060E070E04C155D0551
:103130006E057F054CF4D701C601841B950BA60BC9
:10314000B70BAC01BD0117C090E091958195910935
:10315000092E000CAA0BBB0BC816D906EA06FB0603
:103160003CF4B701A601481B590B6A0B7B0B03C04B
:1031700040E050E0BA0186E00E948F0940910601CC
:103180005091070160910801709109018DE00E9442
:103190008F0920E030E040E251E46091020170913B
:1031A000030180910401909105010E94FD220E947B
:1031B0006C21AB01BC018EE00E948F090E94050CBE
:1031C00060937E0170937F018093800190938101D1
:1031D00010916901112309F4FFC0153018F48FEF25
:1031E000810F01C085E06FE00E948D0F0E94AA212F
:1031F00020E030E04AE754E40E94FA2069837A83B1
:103200008B839C8320E030E040E251E40E94FD2269
:103210000E946C21AB01BC0180E10E948F09153036
:1032200028F0193030F482E796E005C080E090E0A5
:1032300002C08CE891E0E0906701F0906801E80E30
:10324000F91E8EE00E94B40BBC01990F880B990BFC
:103250000E94AA2120E030E040E85AE30E94FD22CB
:1032600020E030E44EE455E40E94FD224B015C0175
:10327000B70180E090E00E94A8219B01AC01C5014C
:10328000B4010E9488206B017C01E12FF0E0E55E33
:10329000FE4F608170E080E090E00E94AA219B01D7
:1032A000AC01C701B6010E94FA20153030F02CE7BE
:1032B00030EF41EC5FE30E94FD2260936301709365
:1032C00064018093650190936601C0906301D09082
:1032D0006401E0906501F090660120E030E040E29A
:1032E00051E4C701B6010E94FD220E946C21AB018E
:1032F000BC0181E10E948F092FEF3FEF4FE951E4BC
:10330000C701B6010E94FA2020915F01309160014F
:1033100040916101509162010E94892060935F0198
:103320007093600180936101909362010E946C210F
:10333000AB01BC0182E10E948F09809101018823C9
:10334000B1F10E94050C00915B0110915C0120918C
:103350005D0130915E01DC01CB01801B910BA20B62
:10336000B30B81319742A105B10508F120E030E0AF
:1033700040E050E4C701B6010E94F52018166CF039
:103380006FE571E084E190E00E94550FBE016F5F30
:103390007F4F88E190E00E94550F0E94050C6093DA
:1033A0005B0170935C0180935D0190935E012981C4
:1033B0003A814B815C8160916301709164018091DD
:1033C0006501909166010E94FD220E946C21AB0173
:1033D000BC0183E10E948F0980915A01882379F012
:1033E00060E186E00E948D0F2AE030E040E050E08E
:1033F0000E94AF24BA01A90184E10E948F09809143
:103400005901882379F061E187E00E948D0F2AE05D
:1034100030E040E050E00E94AF24BA01A90185E10C
:103420000E948F0980915801882309F44EC084E1DD
:103430000E94B40BBC01990F880B990B0E94AA2122
:103440009B01AC0160E070EC8FE794E40E94FA20ED
:1034500020E030E040E85FE30E9488209B01AC015F
:1034600060E070E48CE196E40E94FA2020E030E411
:103470004CE156E40E94FA200E94B52220E030EE92
:1034800046E755E40E94FA202FE03FEC4BE55BE372
:103490000E9489209B01AC0160E070E080E89FE31E
:1034A0000E94FA2029E939EF47E853E40E94882076
:1034B00020E030E040E251E40E94FD220E946C21B5
:1034C000AB01BC0186E10E948F09409172015091CD
:1034D0007301609174017091750184E00E948F09FD
:1034E00040916E0150916F01609170017091710176
:1034F00085E00E948F091091FD021092FD021111CA
:1035000005C080910001882309F45BC20E94050C6C
:10351000C0905401D0905501E0905601F0905701B1
:103520006C157D058E059F0508F44BC20E94050CA5
:10353000DC01CB0188539F4FAF4FBF4F80935401A5
:1035400090935501A0935601B0935701E12CF12CB3
:1035500001E1103E51F480915201909153018B3062
:1035600091050CF04EC101960BC0103771F480919B
:10357000520190915301181619060CF042C101979F
:1035800090935301809352013AC1103D09F047C016
:1035900080915201909153018430910559F11CF4AE
:1035A000039739F02CC18530910559F1069781F1C7
:1035B00026C180903D0290903E02A0903F02B090C4
:1035C000400220E030E040E85FE3C501B4010E9422
:1035D000F52087FF14C120E030E048EC52E4C5013B
:1035E000B4010E94FD2220E030E040E85FE30E9449
:1035F00089207EC080914102843608F000C18F5F2F
:103600008CC080916901882309F4F9C081508EC073
:1036100080910101882309F4F2C0815090C0103BD1
:1036200009F0EFC0E0915201F09153013197EB3076
:10363000F10508F0E4C0EC5CFF4F0C94CE240E942E
:10364000B40FD0906901DD2089F16091670170911C
:103650006801072E000C880B990B0E94AA214B01D0
:103660005C01ED2DF0E0E55EFE4F608170E080E0F2
:1036700090E00E94AA212091630130916401409161
:103680006501509166010E94FD229B01AC01C501BC
:10369000B4010E9489200E946C216093670170939D
:1036A0006801615884E090E00E94890FF701099554
:1036B00080903D0290903E02A0903F02B090400268
:1036C00020E030E0A901C501B4010E94A82218162B
:1036D0000CF095C020E030E048EC52E4C501B401A4
:1036E0000E94FD2220E030E040E85FE30E94882055
:1036F00020E030E048EC52E40E94FA2060933D0262
:1037000070933E0280933F029093400278C0809174
:103710004102882309F473C08150809341026FC035
:10372000809169018C3008F06AC08F5F80936901D5
:1037300066C080910101823008F061C08F5F809384
:1037400001015DC080915A01832580935A0157C0C1
:103750008091590183258093590151C0809158016E
:103760008325809358014BC06091690183E090E00C
:103770000E94890F6091010185E090E00E94890F0D
:1037800060915A0186E090E00E94890F6091590192
:1037900087E090E00E94890F6091580188E090E0F6
:1037A0000E94890F20E030E048EC52E460913D0235
:1037B00070913E0280913F02909140020E94FD2252
:1037C0000E946C218AE090E00E94890F6091410282
:1037D0008CE090E00E94890FF7010995C12CD12C53
:1037E0006FEFC6010E94890FFFEFCF1ADF0A22E3B5
:1037F000C216D104A9F70E94B40FF70109953092BF
:10380000000180910001882309F4DBC01AA219820B
:103810008091520190915301089FB001099F700D52
:1038200011246F5A7D4F40E150E0CE0182960E94F4
:103830006920E0915201F0915301EA30F105B8F4AA
:10384000E15CFF4F0C94CE2440E150E060E472E074
:103850000AC060913C02F9E06F9FB00111246D5ED7
:103860007D4F40E150E0CE0101960E946920DE01CB
:103870009296E0E3F3E09E012E5C3F4F80E040E251
:1038800062C080913C02882309F463CE20E030E0DE
:1038900048EC52E460913D0270913E0280913F02FB
:1038A000909140020E94FD220E946C217F936F93B1
:1038B00083E491E00BC080913C02882309F449CE57
:1038C000809141021F928F938AE491E09F938F939E
:1038D000CE0101969F938F930E9434280F900F90F2
:1038E0000F900F900F900F90C2CF6091690120E16F
:1038F000629FB00111246D5B7E4FB3CF809169014F
:10390000882309F426CE6091010139E0639FB0015C
:103910001124685D7E4FA5CF60915A014AE0649FF3
:10392000B00111240DC0609159015AE0659FB001AA
:10393000112406C0609158018AE0689FB0011124EB
:103940006C5E7E4F8ECF9D91992321F0811102C034
:10395000908302C0408381E03196A217B30799F7A4
:10396000DE011196E0E4F3E09E012F5E3F4F80E020
:1039700040E29D91992321F0811102C0908302C001
:10398000408381E03196A217B30799F710920001A6
:1039900018C08091B3029091B402DC01ED91FC91CA
:1039A0000680F781E02D09952091B6023091B7028B
:1039B0002115310519F59C012D53310922303105AE
:1039C00070F08091B3029091B402DC01ED91FC9112
:1039D0000480F581E02D0995892BD9F6DCC221E020
:1039E00030E03093B7022093B6028E33910509F090
:1039F00020E02093B8028093BD02E3CF213031054F
:103A0000A9F49C012D7F2130310519F522E030E029
:103A10003093B7022093B60221E08130910509F07E
:103A200020E02093B9028093BE02CBCF2230310533
:103A3000A9F423E030E03093B7022093B6028093DC
:103A4000BA028093BF0293E09093BB02813408F4E2
:103A5000B8CF1092B7021092B602B3CF233031051F
:103A600009F0AFCFE091BB0201E00E0F0093BB0263
:103A7000F0E0E354FD4F80838091BA020813A1CF98
:103A8000E12CF12C80E090E010E06801E2E0CE1A39
:103A9000D108EC14FD0454F4F701E354FD4F6081A8
:103AA0000E947009BFEFEB1AFB0AF3CF00591D4FBC
:103AB000F801E45BFF4F208130E0322F222731975D
:103AC0004081242B8217930721F68091C0028093B6
:103AD000BC029091B8028091C1029923C9F0813350
:103AE000B9F48091C20286958093FF02E3ECF2E084
:103AF00020E030E090E0281739073CF441915191E3
:103B000054AF43AF2F5F3F4FF6CF3092FE02A1CFAD
:103B10008A3309F0F5C18091B902882309F499CF5D
:103B20008091B50291E0980F9093B502811117C072
:103B30001092C4021092CA0210918402812F880F41
:103B4000880F880F8093CB02412F50E060E772E02E
:103B50008CEC92E00E94152829E0210F5BC1282FF0
:103B6000269530E04091890250918A02421753070E
:103B70000CF44EC080FD4CC000E010E08091890242
:103B800090918A02081719070CF040C060918C02CE
:103B900070E040E752E0CE0101960E94A50D8091B1
:103BA0008C028F5F80938C0290E02091890230918B
:103BB0008A028217930714F010928C02888588235A
:103BC00011F11092C4028B818093CA028D8DF8E0AE
:103BD0008F9FC00111249E8D892B8093CB0280E0A2
:103BE00029E0280FE9E0F0E0EC0FFD1FE80FF11DE0
:103BF0009081992309F40EC18F5FE22FF0E0ED531D
:103C0000FD4F9083EDCF0F5F1F4FB8CF20E002C173
:103C100080E48093C40200E410E027E060918B020E
:103C200070E040E752E0CE01019668962FAF6897AA
:103C30000E94A50D80918B028F5F80938B0290E094
:103C40004091890250918A0268962FAD6897841737
:103C5000950714F010928B028885882309F4C5C05B
:103C60008C819D81AE81BF818F3F3FEF9307A3077A
:103C7000B30709F4BAC03B81422F50E06F8DFF2497
:103C8000F394F20E303160F04D535D4F762F7F701C
:103C9000FA0170832E5FEF2DF0E0ED53FD4F0BC066
:103CA0002F2D4D535D4F70E1379FF0011124362FBA
:103CB0003F703E2BFA01308349A150E030E0643080
:103CC000A1F128F4662369F06130D9F08BC0683027
:103CD00009F45BC0693009F473C0653009F082C033
:103CE0003BC0F901ED53FD4F682F6F71B7FD02C066
:103CF00080E001C080E8862B98A1892B808381E039
:103D000072C0F901ED53FD4F8083F901EC53FD4F73
:103D1000692F6F71B7FD02C080E001C080E8862B7B
:103D200098A1892B808382E05EC0F901ED53FD4F9D
:103D30008083F901EC53FD4F9083F901EB53FD4F64
:103D40006A2F6F71B7FD02C080E001C080E8862B4A
:103D500098A1892B808317C0F901ED53FD4F808313
:103D6000F901EC53FD4F9083F901EB53FD4F6D01C9
:103D7000FF24D7FCF094EF2CB7FD02C080E001C017
:103D800080E8C82AC08283E02EC0F901ED53FD4FC0
:103D90008083F901EC53FD4F9083F901EB53FD4F04
:103DA000A083F901EA53FD4F6B2F6F71B7FD02C07D
:103DB00080E001C080E8862B98A1892B808310C009
:103DC000F901ED53FD4F8083F901EC53FD4F9083D2
:103DD000F901EB53FD4FA083F901EA53FD4FB08386
:103DE00084E001C080E0280F02C040E050E00F5F97
:103DF0001F4F8091890290918A020817190754F485
:103E0000822F90E06AE170E0641B750B86179707BC
:103E10000CF404CF8FE28093C3028091C4029FEF21
:103E2000920F892B8093C40289E08093C50284EAB3
:103E30008093C6028091B1028093C7028091B20242
:103E40008093C8021092C902E4ECF2E080E037E00F
:103E500067969FAD67979E0F921760F4919189279F
:103E600098E087FF03C0880F832701C0880F915017
:103E7000C1F7EECFE22FF0E0ED53FD4F808309E074
:103E8000020F0093BB028BE38093BD0281E080931D
:103E9000BE020093BF028091BC028093C0028AE3FD
:103EA0008093C1022F5F2093C202E12CF12C80E0AD
:103EB00090E010E0680172E0C71AD108EC14FD042C
:103EC00054F4F701E354FD4F60810E947009AFEF95
:103ED000EA1AFA0AF3CF980120593D4FF901E55B40
:103EE000FF4F8083319690838091B3029091B4020A
:103EF000DC01ED91FC910280F381E02DA80145C029
:103F00008B3309F0A6CD8091B902882309F4A1CDA5
:103F10008091C302803F19F08093FD0202C010928D
:103F2000FD0298E29093BB028BE38093BD02309236
:103F3000BE029093BF028093C10280E28093C202CE
:103F4000E0E3F3E0A3ECB2E001900D928A95E1F793
:103F50000DEB12E080E090E0F80161918F010E948A
:103F60007009F2E0033E1F07B9F78093E3029093D4
:103F7000E4028091B3029091B402DC01ED91FC91D6
:103F80000280F381E02D48E250E06DEB72E009958C
:103F9000309250035ECD80E090E0892B11F40C94B8
:103FA000A0120E9400000C949712E0E1F2E013824C
:103FB000128288EE93E0A0E0B0E084839583A6832C
:103FC000B7838CE291E091838083E0E7F2E0148A8A
:103FD000168A158A108E178A128E118E138E148EE1
:103FE00086E78093B10282E38093B20210828FEF62
:103FF0009FEFDC018093AD029093AE02A093AF02DD
:10400000B093B00280E2EDE8F2E0DF011D928A9504
:10401000E9F71092B4021092B3021092B502109216
:10402000FD021092FE021092FF02109250031092B5
:10403000B7021092B6021092B8021092B902109212
:10404000BA021092BB021092BC0280E3E0E0F3E0FF
:10405000DF011D928A95E9F710923C02ECE1F2E053
:104060008AEC95E1A4E8B0E480839183A283B383D2
:1040700083E393E3ABE7B1E484839583A683B783BB
:1040800080879187A287B38782E292E2A2E2B1E4BD
:1040900084879587A687B78780E090E0A0E3B1E4A6
:1040A000808B918BA28BB38B80E090E0A8E9B1E488
:1040B000848B958BA68BB78B80E090E0A0E4B0E476
:1040C000808F918FA28FB38F848F958FA68FB78F9C
:1040D0000895FB01DC0102C005900D924150504053
:1040E000D8F70895F999FECF92BD81BDF89A992726
:1040F00080B50895262FF999FECF1FBA92BD81BDD4
:1041000020BD0FB6F894FA9AF99A0FBE0196089559
:104110005058BB27AA270E94A0200C946E220E9410
:10412000602238F00E94672220F039F49F3F19F492
:1041300026F40C944D220EF4E095E7FB0C944722F4
:10414000E92F0E947F2258F3BA176207730784078A
:10415000950720F079F4A6F50C94A1220EF4E095D1
:104160000B2EBA2FA02D0B01B90190010C01CA0131
:10417000A0011124FF27591B99F0593F50F4503EDC
:1041800068F11A16F040A22F232F342F4427585FCE
:10419000F3CF469537952795A795F0405395C9F7E6
:1041A0007EF41F16BA0B620B730B840BBAF091509E
:1041B000A1F0FF0FBB1F661F771F881FC2F70EC03D
:1041C000BA0F621F731F841F48F487957795679510
:1041D000B795F7959E3F08F0B0CF9395880F08F0FC
:1041E0009927EE0F9795879508950E94232208F44A
:1041F00081E008950E940E210C946E220E94672295
:1042000058F00E94602240F029F45F3F29F00C949E
:10421000472251110C94A2220C944D220E947F221D
:1042200068F39923B1F3552391F3951B550BBB27E5
:10423000AA2762177307840738F09F5F5F4F220F2A
:10424000331F441FAA1FA9F335D00E2E3AF0E0E821
:1042500032D091505040E695001CCAF72BD0FE2F6B
:1042600029D0660F771F881FBB1F261737074807FF
:10427000AB07B0E809F0BB0B802DBF01FF279358B7
:104280005F4F3AF09E3F510578F00C9447220C9412
:10429000A2225F3FE4F3983ED4F386957795679525
:1042A000B795F7959F5FC9F7880F911D96958795EC
:1042B00097F90895E1E0660F771F881FBB1F62170B
:1042C00073078407BA0720F0621B730B840BBA0BC9
:1042D000EE1F88F7E09508950E9473216894B1114C
:1042E0000C94A22208950E94872288F09F5798F08C
:1042F000B92F9927B751B0F0E1F0660F771F881FEB
:10430000991F1AF0BA95C9F714C0B13091F00E9404
:10431000A122B1E008950C94A122672F782F88275D
:10432000B85F39F0B93FCCF3869577956795B3952B
:10433000D9F73EF490958095709561957F4F8F4F9A
:104340009F4F089597FB16F40E9450220C94E6218B
:10435000E89409C097FB3EF490958095709561951F
:104360007F4F8F4F9F4F9923A9F0F92F96E9BB27D5
:104370009395F695879577956795B795F111F8CF51
:10438000FAF4BB0F11F460FF1BC06F5F7F4F8F4FBC
:104390009F4F16C0882311F096E911C0772321F0B2
:1043A0009EE8872F762F05C0662371F096E8862F4A
:1043B00070E060E02AF09A95660F771F881FDAF7A1
:1043C000880F9695879597F90895E894F92F96EBBD
:1043D000FF2381F0121613061406440B9395F695ED
:1043E00087957795679557954040FF23B9F71BC090
:1043F00099270895882351F49850D2F7872B762F68
:10440000652F542F432F322F20E0B1F312161306DD
:104410001406440B88233AF09A95440F551F661FE3
:10442000771F881FCAF755234AF4440F551F11F40C
:1044300060FF04C06F5F7F4F8F4F9F4F880F96952F
:10444000879597F90895990F0008550FAA0BE0E892
:10445000FEEF16161706E807F907C0F01216130646
:10446000E407F50798F0621B730B840B950B39F486
:104470000A2661F0232B242B252B21F408950A26EC
:1044800009F4A140A6958FEF811D811D089597F92C
:104490009F6780E870E060E008959FEF80EC0895EA
:1044A00090958095709560955095409530952195A3
:1044B0003F4F4F4F5F4F6F4F7F4F8F4F9F4F08952D
:1044C00000240A94161617061806090608950024F3
:1044D0000A9412161306140605060895092E03946D
:1044E000000C11F4882352F0BB0F40F4BF2B11F4E1
:1044F00060FF04C06F5F7F4F8F4F9F4F089557FD40
:104500009058440F551F59F05F3F71F04795880F41
:1045100097FB991F61F09F3F79F0879508951216D8
:1045200013061406551FF2CF4695F1DF08C0161684
:1045300017061806991FF1CF869571056105089435
:104540000895E894BB2766277727CB0197F908954C
:104550000E94232208F48FEF089516F00C94F423A0
:104560000C944D2268940C9447220E948722A8F351
:104570009923C1F3AEF3DF93CF931F930F93FF9271
:10458000C92FDD2788232AF02197660F771F881F00
:10459000DAF720E030E040E85FEB9FE3883920F075
:1045A000803E38F021968F770E948920E2E9F0E082
:1045B00004C00E948920EFEBF0E00E9402248B01EE
:1045C000BE01EC01FB2E6F5771097595771F880BA3
:1045D000990B0E94AA2128E132E741E35FE30E94A0
:1045E0001023AF2D9801AE01FF900F911F91CF9135
:1045F000DF910E94A0200C946E220E9410230C9444
:104600006E220E94602238F00E94672220F09523DB
:1046100011F00C9447220C944D2211240C94A222E8
:104620000E947F2270F3959FC1F3950F50E0551FB4
:10463000629FF001729FBB27F00DB11D639FAA27F7
:10464000F00DB11DAA1F649F6627B00DA11D661F46
:10465000829F2227B00DA11D621F739FB00DA11D67
:10466000621F839FA00D611D221F749F3327A00D21
:10467000611D231F849F600D211D822F762F6A2FBD
:1046800011249F5750409AF0F1F088234AF0EE0F22
:10469000FF1FBB1F661F771F881F91505040A9F74F
:1046A0009E3F510580F00C9447220C94A2225F3F5C
:1046B000E4F3983ED4F3869577956795B795F7958B
:1046C000E7959F5FC1F7FE2B880F911D9695879503
:1046D00097F90895FA01EE0FFF1F30962105310575
:1046E000A1F16115710561F48038BFE39B0749F1C1
:1046F00068949038810561F08038BFEF9B0741F0E6
:1047000099234AF5FF3FE1053105210519F1E894A8
:104710000894E795D901AA2329F4AB2FBE2FF85F9F
:10472000D0F310C0FF5F70F4A695E0F7F73950F0B2
:1047300019F0FF3A38F49F779F930DD00F9007FC44
:104740009058089546F00C944D2260E070E080E8A7
:104750009FE308954FE79F775F934F933F932F9386
:104760000E94B5222F913F914F915F910E94FD22AF
:104770000C94C22329F416F00C9447220C94A12225
:104780000C944D220E948722A8F39638A0F707F8D0
:104790000F92E8942BE33AEA48EB5FE70E94132379
:1047A0000F920F920F924DB75EB70F920E946B243B
:1047B000ECEEF0E00E9402244F915F91EF91FF91A7
:1047C000E595EE1FFF1F49F0FE57E0684427EE0F06
:1047D000441FFA95E1F74195550B0E9435240F903F
:1047E00007FE0C94292408959F3F31F0915020F446
:1047F000879577956795B795880F911D96958795BD
:1048000097F90895DF93CF931F930F93FF92EF9241
:10481000DF927B018C01689406C0DA2EEF010E94C2
:104820001023FE01E894A59125913591459155916C
:10483000A6F3EF010E94A020FE019701A801DA94DF
:1048400069F7DF90EF90FF900F911F91CF91DF916B
:1048500008959B01AC0160E070E080E89FE30C9458
:10486000FA200C9447220C94F4230E948722D8F358
:104870009923C9F3940F511DA3F39150504094F024
:1048800059F0882332F0660F771F881F91505040EF
:10489000C1F79E3F51052CF7880F911D969587957E
:1048A00097F908955F3FACF0983E9CF0BB27869542
:1048B00077956795B79508F4B1609395C1F7BB0FED
:1048C00058F711F460FFE8CF6F5F7F4F8F4F9F4F16
:1048D000E3CF0C94A222FA01DC01AA0FBB1F9B01BB
:1048E000AC01BF5728F4222733274427507820C033
:1048F000B75190F4AB2F0024469537952795011CAE
:10490000A395D2F3002071F0220F331F441FB395FB
:10491000DAF30ED00C94882061307105A0E88A0784
:10492000B94630F49B01AC01662777278827907839
:10493000309621F020833183428353830895DB0135
:104940008F939F930E94D424BF91AF91A29F800D1B
:10495000911DA39F900DB29F900D11240895052ED7
:1049600097FB1EF400940E94C62457FD07D00E94B6
:10497000B22607FC03D04EF40C94C6245095409503
:10498000309521953F4F4F4F5F4F089590958095FB
:10499000709561957F4F8F4F9F4F0895EE0FFF1FCA
:1049A0000590F491E02D09940E94D426A59F900DC6
:1049B000B49F900DA49F800D911D11240895B7FF01
:1049C0000C94D4240E94D424821B930B0895DF936B
:1049D000CF931F930F939A9DF02D219FF00D8B9DE8
:1049E000F00D8A9DE02DF10D039FF00D029FE00D6B
:1049F000F11D4E9DE00DF11D5E9DF00D4F9DF00DE2
:104A00007F936F93BF92AF925F934F93D5010E94B4
:104A1000D4268B01AC01D7010E94D426EB01E80F0C
:104A2000F91FD6010E9437252F913F91D6010E9490
:104A3000D426C60FD71FE81FF91FAF91BF910E9460
:104A400037252F913F910E94D426C60FD71FE81F0C
:104A5000F91FD6010E94D426E60FF71F9801BE0168
:104A6000CF0111240F911F91CF91DF9108950E94E2
:104A7000D426460F571FC81FD91F08F43196089532
:104A800097FB57FF0C9450259F938F930E945025BE
:104A90006E1B7F0BAF91BF918A0B9B0B0895E8941F
:104AA000DF93CF93FC01DB010E94D4267F936F93A9
:104AB000E9019A01AC01BF93AF933F932F93DF01BC
:104AC0000E94D42626F46C1B7D0B820B930B9E0157
:104AD000EB01FC010E943725AF91BF912F913F91CF
:104AE0000E943725BE01CF01F9012F913F91CF914F
:104AF000DF910895689401C0E894F92FF12B12F02A
:104B00000C94AE25A0E0B0E0E8E8F5E20C94202695
:104B1000092E059422F40E940A26112392F4F0E84B
:104B20000F26FFEFE094F09400951095B094C09498
:104B3000D094A194BF0ACF0ADF0AEF0AFF0A0F0B35
:104B40001F0B0E94B92507FC0E940A26CDB7DEB7CD
:104B5000ECE00C943C26689401C0E8948F929F92FC
:104B6000CF93DF930E94B925DF91CF919F908F90D3
:104B7000089588249924F401E401B0E49F93AA27BE
:104B80009A158B049C04ED05FE05CF05D007A107FF
:104B900098F4AD2FDC2FCF2FFE2FE92D982C892EE6
:104BA000982F872F762F652F542F432F322F2227B0
:104BB000B85031F7BF9127C01B2EBF91BB27220FE2
:104BC000331F441F551F661F771F881F991F881C9E
:104BD000991CEE1FFF1FCC1FDD1FAA1FBB1F8A14CD
:104BE0009B04EC05FD05CE05DF05A007B10748F0E5
:104BF0008A189B08EC09FD09CE09DF09A00BB10B4F
:104C000021601A94E1F62EF49401AF01BE01CD01AA
:104C1000000C08956095709580959095309540951D
:104C2000509521953F4F4F4F5F4F6F4F7F4F8F4FA5
:104C30009F4F08952F923F924F925F926F927F9273
:104C40008F929F92AF92BF92CF92DF92EF92FF929C
:104C50000F931F93CF93DF93CDB7DEB7CA1BDB0B48
:104C60000FB6F894DEBF0FBECDBF09942A883988ED
:104C700048885F846E847D848C849B84AA84B984F4
:104C8000C884DF80EE80FD800C811B81AA81B98100
:104C9000CE0FD11D0FB6F894DEBF0FBECDBFED0114
:104CA00008950F93083090F0982F872F762F652F57
:104CB000542F432F322F22270850F4CF220F331FB7
:104CC000441F551F661F771F881F991F0A95B2F74B
:104CD0000F91089597FB10F8169400080F93083071
:104CE00098F00850232F342F452F562F672F782FF9
:104CF000892F902DF4CF0594979587957795679593
:104D000057954795379527950A95AAF70F910895D6
:104D10002A0D3B1D4C1D5D1D6E1D7F1D801F911FAB
:104D200008950024A7FD00942A0F301D401D501D3A
:104D3000601D701D801D901D08952A193B094C09A6
:104D40005D096E097F09800B910B08950024A7FD72
:104D500000942A1730054005500560057005800550
:104D600090050895A1E21A2EAA1BBB1BFD010DC0E0
:104D7000AA1FBB1FEE1FFF1FA217B307E407F5070B
:104D800020F0A21BB30BE40BF50B661F771F881FE7
:104D9000991F1A9469F760957095809590959B017D
:104DA000AC01BD01CF010895A29FB001B39FC00126
:104DB000A39F700D811D1124911DB29F700D811D47
:104DC0001124911D0895CF93DF938230910510F443
:104DD00082E090E0E091A603F091A70320E030E0AC
:104DE000C0E0D0E0309711F1408151814817590758
:104DF000C0F04817590761F482819381209719F018
:104E00009B838A832BC09093A7038093A60326C01D
:104E10002115310519F04217530718F49A01BE0104
:104E2000DF01EF010280F381E02DDCCF2115310598
:104E300009F1281B390B2430310590F412968D911D
:104E40009C9113976115710521F0FB019383828377
:104E500004C09093A7038093A603FD01329644C03B
:104E6000FD01E20FF31F81939193225031092D939D
:104E70003C933AC02091A4033091A503232B41F425
:104E800020910C0130910D013093A5032093A403D0
:104E900020910A0130910B012115310541F42DB704
:104EA0003EB740910E0150910F01241B350BE0914C
:104EB000A403F091A503E217F307A0F42E1B3F0B08
:104EC0002817390778F0AC014E5F5F4F241735077C
:104ED00048F04E0F5F1F5093A5034093A4038193A6
:104EE000919302C0E0E0F0E0CF01DF91CF9108950F
:104EF0000F931F93CF93DF93009709F48CC0FC01AD
:104F00003297138212820091A6031091A703011514
:104F1000110581F420813181820F931F2091A40318
:104F20003091A5032817390779F5F093A503E0938D
:104F3000A40371C0D80140E050E0AE17BF0750F4A1
:104F400012962D913C911397AD012115310509F170
:104F5000D901F3CF9D01DA0133832283608171810E
:104F6000860F971F8217930769F4EC012881398116
:104F7000260F371F2E5F3F4F318320838A819B810D
:104F800093838283452B29F4F093A703E093A60330
:104F900042C01396FC93EE931297ED0149915991FB
:104FA0009E01240F351FE217F30771F48081918170
:104FB000840F951F029611969C938E938281938104
:104FC00013969C938E931297E0E0F0E0D80112962E
:104FD0008D919C911397009719F0F8018C01F6CFF1
:104FE0008D919C9198012E5F3F4F820F931F2091CE
:104FF000A4033091A5032817390769F4309729F4E1
:105000001092A7031092A60302C01382128210937B
:10501000A5030093A403DF91CF911F910F910895F1
:1050200081E090E0F8940C94D52AFB01DC0102C0E9
:1050300001900D9241505040D8F70895DC0101C015
:105040006D9341505040E0F70895FB01DC01415061
:10505000504048F001900D920020C9F701C01D9208
:1050600041505040E0F70895AEE0B0E0EAE3F8E2E6
:105070000C9428260D891E8986E08C831A83098367
:105080008FEF9FE79E838D83AE01475E5F4F6F89F1
:10509000788DCE0101960E9457282F813885F8011E
:1050A000E20FF31F10822E96E4E00C944426ACE04D
:1050B000B0E0EDE5F8E20C941A267C016B018A0160
:1050C000FC0117821682838181FFBDC1CE0101964A
:1050D0004C01F7019381F60193FD859193FF819136
:1050E0006F01882309F4ABC1853239F493FD8591B2
:1050F00093FF81916F01853229F4B70190E00E94FE
:105100003F2AE7CF512C312C20E02032A0F48B3203
:1051100069F030F4803259F0833269F420612CC098
:105120008D3239F0803339F4216026C0226024604A
:1051300023C0286021C027FD27C030ED380F3A304A
:1051400078F426FF06C0FAE05F9E300D1124532E3E
:1051500013C08AE0389E300D1124332E20620CC01B
:105160008E3221F426FD6BC1206406C08C3611F40A
:10517000206802C0883641F4F60193FD859193FFC3
:1051800081916F018111C1CF982F9F7D95549330EC
:1051900028F40C5F1F4FFFE3F9830DC0833631F015
:1051A000833771F0833509F05BC022C0F80180813C
:1051B00089830E5F1F4F44244394512C540115C022
:1051C0003801F2E06F0E711CF801A080B18026FF5B
:1051D00003C0652D70E002C06FEF7FEFC5012C8723
:1051E0000E94342A2C0183012C852F77222E17C090
:1051F0003801F2E06F0E711CF801A080B18026FF2B
:1052000003C0652D70E002C06FEF7FEFC5012C87F2
:105210000E94292A2C012C852068222E830123FC40
:105220001BC0832D90E048165906B0F4B70180E208
:1052300090E00E943F2A3A94F4CFF50127FC859133
:1052400027FE81915F01B70190E00E943F2A311053
:105250003A94F1E04F1A51084114510471F7E5C036
:10526000843611F0893639F5F80127FF07C06081CF
:105270007181828193810C5F1F4F08C060817181B1
:10528000072E000C880B990B0E5F1F4F2F76722E86
:1052900097FF09C090958095709561957F4F8F4FCE
:1052A0009F4F2068722E2AE030E0A4010E94772AE6
:1052B000A82EA81844C0853729F42F7EB22E2AE0E4
:1052C00030E025C0F22FF97FBF2E8F36C1F018F4E1
:1052D000883579F0B4C0803719F0883721F0AFC035
:1052E0002F2F2061B22EB4FE0DC08B2D8460B82EFE
:1052F00009C024FF0AC09F2F9660B92E06C028E07F
:1053000030E005C020E130E002C020E132E0F801E9
:10531000B7FE07C060817181828193810C5F1F4F4E
:1053200006C06081718180E090E00E5F1F4FA40194
:105330000E94772AA82EA818FB2DFF777F2E76FED5
:105340000BC0372D3E7FA51450F474FE0AC072FCCA
:1053500008C0372D3E7E05C0BA2C372D03C0BA2CAD
:1053600001C0B52C34FF0DC0FE01EA0DF11D808196
:10537000803311F4397E09C032FF06C0B394B39470
:1053800004C0832F867809F0B39433FD13C030FF37
:1053900006C05A2CB31418F4530C5B18B32CB31476
:1053A00068F4B70180E290E03C870E943F2AB39402
:1053B0003C85F5CFB31410F43B1801C0312C34FFF9
:1053C00012C0B70180E390E03C870E943F2A3C85F1
:1053D00032FF17C031FD03C088E790E002C088E5C6
:1053E00090E0B7010CC0832F867859F031FF02C0DE
:1053F0008BE201C080E237FD8DE2B70190E00E94B0
:105400003F2AA51438F4B70180E390E00E943F2AB8
:105410005A94F7CFAA94F401EA0DF11D8081B701E7
:1054200090E00E943F2AA110F5CF332009F451CE1D
:10543000B70180E290E00E943F2A3A94F6CFF7014C
:105440008681978102C08FEF9FEF2C96E2E10C944A
:105450003626FC010590615070400110D8F7809508
:1054600090958E0F9F1F0895FC0161507040019030
:105470000110D8F7809590958E0F9F1F08950F9378
:105480001F93CF93DF93FB01238121FD03C08FEF97
:105490009FEF28C022FF16C04681578124813581A5
:1054A0004217530744F4A081B1819D012F5F3F4F04
:1054B000318320838C93268137812F5F3F4F378341
:1054C000268310C0EB01092F182F0084F185E02DF1
:1054D0000995892BE1F68E819F8101969F838E83AA
:1054E000812F902FDF91CF911F910F910895FA0195
:1054F000AA27283051F1203181F1E8946F936E7F13
:105500006E5F7F4F8F4F9F4FAF4FB1E03ED0B4E003
:105510003CD0670F781F891F9A1FA11D680F791F44
:105520008A1F911DA11D6A0F711D811D911DA11D55
:1055300020D009F468943F912AE0269F1124301965
:10554000305D3193DEF6CF010895462F4770405D00
:105550004193B3E00FD0C9F7F6CF462F4F70405DAF
:105560004A3318F0495D31FD4052419302D0A9F70A
:10557000EACFB4E0A6959795879577956795BA9504
:10558000C9F700976105710508959B01AC010A2ECA
:1055900006945795479537952795BA95C9F7620FA1
:0E55A000731F841F951FA01D0895F894FFCF60
:1055AE0001010000A041CD8B01000000A803800086
:1055BE00000000007E0BF40A710B470B49251249BF
:1055CE0028140D0A3C281B1400000000C10A910A81
:1055DE00F10A650A890A750A660A566172696F4789
:1055EE005053002025326425250020253264636D3A
:0255FE000000AB
:00000001FF
