:100000000C94DE030C9406040C9406040C94060471
:100010000C9406040C9406040C9406040C94060438
:100020000C9406040C9406040C9468070C941208B3
:100030000C9421070C9406040C9406040C940604FA
:100040000C94D7060C9406040C94D60B0C94120C4A
:100050000C946D0C0C9406040C9406040C94060489
:100060000C948C0A0C940604FE25102613261A26DE
:1000700021264F265626632670267C267C267C2643
:100080007C267C267C267C267C267C267C267C2660
:100090007C267C267C267C267C267C267C267C2650
:1000A0007C267C267C267C26FE250B261026132605
:1000B0001A262126282635264226602AD72BD72B1A
:1000C000672A882A8F2A982A9F2AA62ABD2AF72AD1
:1000D000002BD72B062B352B3E2B452B4E2B572B8E
:1000E000602B662B6C2B722BC52BFD2B962C022CB8
:1000F0000B2C192C222C3C2C542C5B2C642C6D2C9E
:100100007B2C822C892C084AD73B3BCE016E84BCC9
:10011000BFFDC12F3D6C74319ABD56833DDA3D0061
:10012000C77F11BED9E4BB4C3E916BAAAABE0000AA
:1001300000803F05A84CCDB2D44EB93836A9020C88
:1001400050B9918688083CA6AAAA2ABE0000008061
:100150003F08000000BE922449123EABAAAA2ABE64
:10016000CDCCCC4C3E00000080BEABAAAAAA3E007B
:10017000000000BF000000803F00000000000841B8
:1001800078D3BB4387D1133D190E3CC3BD4282AD2A
:100190002B3E68EC8276BED98FE1A93E4C80EFFF02
:1001A000BE01C4FF7F3F000000000007634236B776
:1001B0009BD8A71A39685618AEBAAB558C1D3CB7F8
:1001C000CC5763BD6DEDFD753EF6177231BF000073
:1001D00000803F0020537461727475700020417577
:1001E000746F00000000204D616E75616C0000208E
:1001F00044697361626C65640000000000000020C7
:100200004174746F50696C6F7420343500000020A5
:100210004174746F50696C6F742039300000002095
:100220004174746F50696C6F742031383000002055
:1002300041504D322E35203930412F353056002077
:100240004143533731322D3035000000000000208B
:100250004143533731322D3230000000000000207E
:100260004143533731322D3330000000000000206D
:100270004143533735382D3530420000000000200F
:100280004143533735382D313030420000000020D3
:100290004143533735382D313530420000000020BE
:1002A0004143533735382D323030420000000020B2
:1002B0004143533735382D353055000000000020BC
:1002C0004143533735382D31303055000000002080
:1002D0004143533735382D3135305500000000206B
:1002E0004143533735382D3230305500000000205F
:1002F00044697361626C6564000020416972207317
:100300007065656400204750530000000000000045
:100310002044697361626C65640020456E61626CA3
:100320006564000020756E6B6E6F776E0020424D25
:1003300050323830000020424D4532383000002025
:100340004D53353631310000204C50530000000031
:100350000020324400203344002044697361626C01
:1003600065640020426173696300000000204578E5
:1003700074656E6465640056657273696F6E2056AD
:10038000322E332E31000000566172696F47505390
:100390002053656E736F7200005265736574206F31
:1003A00066667365740000000000475053206D6F4F
:1003B00064653A00000000000000004750532064CC
:1003C000697374616E63653A000000005072657372
:1003D000737572652073656E736F723A0056617241
:1003E000696F20736D6F6F7468696E673A0056614C
:1003F00072696F20646561647A6F6E653A000041CE
:1004000069722073706565643A00000000000000A6
:10041000544543206D6F64653A0000000000000001
:10042000004D61696E2064726976653A00000000D3
:10043000000043617061636974792072657365744B
:100440003A000052783120766F6C746167653A002B
:100450000000000052783220766F6C746167653A54
:1004600000000000004578742E2054656D703A003D
:100470000000000000005361766520616E64207208
:10048000657374617274004C6F61642064656661A9
:10049000756C747300000000000000002400270049
:1004A0002A0000000000250028002B00040404049A
:1004B000040404040202020202020303030303030E
:1004C00001020408102040800102040810200102EB
:1004D00004081020000000080002010000030407C7
:1004E0000000000000000000014C61746974756434
:1004F0006500000000000000000000000020000077
:10050000000000000900024C6F6E67697475646535
:1005100000000000000000000000002000000000BB
:1005200000000900034750532073706565640000A4
:100530000000000000000000006B6D2F680000004C
:1005400001000452656C2E20416C74697400000037
:10055000000000000000006D000000000000040129
:10056000054162732E20416C746974000000000024
:1005700000000000006D00000000000004000656AE
:100580006172696F000000000000000000000000C0
:100590000000006D2F73000000000402074469731F
:1005A00074616E6365000000000000000000000040
:1005B000006D000000000000040008547269700023
:1005C0000000000000000000000000000000006BC0
:1005D0006D0000000000040209417A696D757468BD
:1005E00000000000000000000000000000B000005B
:1005F0000000000001000A436F757273650000007F
:100600000000000000000000000000B0000000003A
:10061000000001000B536174656C6C6974657300B4
:1006200000000000000000000020000000000000AA
:1006300000000C48444F5000000000000000000083
:100640000000000000000020000000000000010287
:100650000D4169722070726573732E0000000000F6
:1006600000000000006850610000000004020E5409
:10067000656D702E0000000000000000000000000A
:10068000000000B043000000000001010F48756D3C
:100690006964697479000000000000000000000037
:1006A0000025724800000000010110566F6C746153
:1006B0006765000000000000000000000000005618
:1006C00000000000000001011143757272656E7434
:1006D00000000000000000000000000000410000D9
:1006E00000000000010112436170616369747900C8
:1006F00000000000000000000000006D41680000E4
:100700000000040013506F776572000000000000C5
:100710000000000000000000005700000000000082
:1007200004001452783120566F6C746167650000C4
:100730000000000000000056000000000000010260
:100740001552783220566F6C7461676500000000A6
:1007500000000000005600000000000001021645E5
:1007600078742E2054656D700000000000000000B9
:10077000000000B043000000000001011741697251
:100780002073706565640000000000000000000038
:10079000006B6D2F680000000100000000000000E9
:1007A0000000000000000000000000000000000049
:1007B00000000000000000003C2E1E2E11241FBE71
:1007C000CFEFD8E0DEBFCDBF11E0A0E0B1E0EEECAE
:1007D000F6E702C005900D92A238B107D9F725E0DF
:1007E000A2E8B1E001C01D92A631B207E1F713E023
:1007F000CDEDD3E004C02197FE010E944F35CC3DE2
:10080000D107C9F70E94EC170C945A3B0C940000D6
:10081000CF92DF92EF92FF920F931F93CF93DF93CC
:100820006C017A018B01C0E0D0E0CE15DF0589F0C4
:10083000D8016D918D01D601ED91FC910190F0816F
:10084000E02DC6010995892B11F47E0102C0219685
:10085000ECCFC701DF91CF911F910F91FF90EF90E7
:10086000DF90CF9008953FB7F8948091DA0290918D
:10087000DB02A091DC02B091DD0226B5A89B05C089
:100880002F3F19F00196A11DB11D3FBFBA2FA92F0F
:10089000982F8827820F911DA11DB11DBC01CD018C
:1008A00042E0660F771F881F991F4A95D1F7089578
:1008B0005091860140918501852F90E0242F30E0F2
:1008C000541710F4805B9F4F821B930B0895809107
:1008D0008601E09185018E1751F0EF5FE03508F059
:1008E000E0E0F0E0EB57FD4F808190E008958FEF5E
:1008F0009FEF08958091860190918501891769F095
:100900009F5F903508F090E0E92FF0E0EB57FD4F46
:1009100080819093850190E008958FEF9FEF089577
:10092000809184018111FCCF0895809183018F5FB4
:10093000843408F080E0909182019817E1F32FB79A
:10094000F89490918401992341F0E82FF0E0E55C60
:10095000FD4F6083809383011DC081E080938401FB
:100960006093800210927F0282E086BB80916F00CC
:10097000826080936F00809180008F738068809385
:10098000800080918400909185004096909389002A
:10099000809388002FBF81E090E0089585ED8093DB
:1009A000BC008091BC0084FDFCCF1092260308950A
:1009B00040911602262F30E0240F311D21323105DF
:1009C000DCF4209126032430C9F4FC0180E090E09F
:1009D000861758F4309116022191DC01AC50BE4FBD
:1009E000A30FB11D2C930196F3CF80911602680FCF
:1009F0006093160280E0089581E0089582E00895F2
:100A00000895E091DF028091DE02E81730F4F0E013
:100A1000E052FD4F808190E008958FEF9FEF0895A1
:100A20009091DF028091DE02981750F4E92FF0E0F8
:100A3000E052FD4F208130E09F5F9093DF0202C0C3
:100A40002FEF3FEFC90108958091DE0290E02091E1
:100A5000DF02821B91090895CF92DF92EF92FF92FD
:100A60000F931F93CF93DF937C01262F972F8A013B
:100A700080912703882391F0C62FD72F6E01C40ED3
:100A8000D51ECC15DD0571F06991D701ED91FC9172
:100A90000190F081E02DC7010995F3CF642F822FDB
:100AA0000E94D804C801DF91CF911F910F91FF9050
:100AB000EF90DF90CF900895CF93DF931F92CDB743
:100AC000DEB76983209127032223D1F020914903C7
:100AD000203240F021E030E0FC013383228380E0CB
:100AE00090E015C080912803E82FF0E0E75DFC4F0F
:100AF000998190838F5F809328038093490305C079
:100B000061E0CE0101960E94D80481E090E00F9050
:100B1000DF91CF9108951F93CF93DF93F894EC0169
:100B2000CA57DF4F2881203400F5DC01AE57BF4F94
:100B30001C9111965C91119770E0411103C020E067
:100B400030E002C020E031E0622B732BE12FF52F63
:100B500071836083329628812F5F2883EA17FB0711
:100B600010F0FC013296ED93FC93FC01E057FF4F2F
:100B70008081811108C081E080838091C1008F76DF
:100B800088628093C1007894DF91CF911F9108957E
:100B9000FC01E157FF4F2081222301F1F894A0913D
:100BA000F201B091F301A357BF4F0D90BC91A02D5E
:100BB0004C912081215020833297208131812F5FF9
:100BC0003F4FBC0165577F4F2617370718F09C0130
:100BD00029573F4F31832083789401C040E0842F10
:100BE000089508950895089580E090E008950E9482
:100BF0006F38CF93DF9390E0FC01E054FB4F2491DA
:100C0000FC01E455FB4F8491882361F190E0880F4B
:100C1000991FFC01E856FB4FC591D491FC01EE559C
:100C2000FB4FA591B491611109C09FB7F8948881D9
:100C3000209582238883EC912E230BC0623061F4CF
:100C40009FB7F8943881822F809583238883EC9115
:100C50002E2B2C939FBF06C08FB7F894E8812E2BC4
:100C600028838FBFDF91CF9108951092C0008CE050
:100C70008093C10086E38093C2001092C50086E68F
:100C80008093C40062E080E00E94F90562E081E0A8
:100C90000C94F905CF93DF93EC010E943506FE0119
:100CA000329680E8DF011D928A95E9F7DE01AE57A2
:100CB000BF4F1196FC93EE9312961196FC93EE9310
:100CC000EC57FF4F108231961082118212821382EC
:100CD00017961196FC93EE931296ED93FC9338962B
:100CE000108231961082D093F301C093F201DF910C
:100CF000CF9108958E3008F08E5087708064809375
:100D00007C0080917A00806480937A0080917A00E0
:100D100086FDFCCF809178002091790090E0922BA5
:100D200008958F929F92AF92BF92CF92DF92EF92EF
:100D3000FF926B017C010E9433044B015C01C114E2
:100D4000D104E104F104F1F00E943304DC01CB0191
:100D500088199909AA09BB09883E9340A105B105E4
:100D600070F321E0C21AD108E108F10888EE880E7C
:100D700083E0981EA11CB11CC114D104E104F1044C
:100D800019F7DDCFFF90EF90DF90CF90BF90AF903D
:100D90009F908F9008952FB7F8946091D60270912C
:100DA000D7028091D8029091D9022FBF08951F9247
:100DB0000F920FB60F9211242F933F938F939F930F
:100DC000AF93BF938091D6029091D702A091D802A1
:100DD000B091D9023091D50223E0230F2D3720F4B2
:100DE0000196A11DB11D05C026E8230F0296A11D85
:100DF000B11D2093D5028093D6029093D702A09381
:100E0000D802B093D9028091DA029091DB02A091CE
:100E1000DC02B091DD020196A11DB11D8093DA02C2
:100E20009093DB02A093DC02B093DD02BF91AF91FF
:100E30009F918F913F912F910F900FBE0F901F9018
:100E400018951F920F920FB60F9211242F938F9324
:100E50009F93EF93FF9380916F008B7F80936F0040
:100E6000809181008F7B8093810080918701209108
:100E70008402205890918302893020F49695922B19
:100E80008F5FFACF90938302809186018F5F8035C8
:100E900008F080E020918501821739F0E82FF0E01A
:100EA000EB57FD4F908380938601109287018091CC
:100EB00081008F7B8093810010928402FF91EF91DB
:100EC0009F918F912F910F900FBE0F901F901895AB
:100ED0001F920F920FB60F9211242F933F934F93AF
:100EE0005F936F937F938F939F93AF93BF93EF9392
:100EF000FF93809186009091870040918402209119
:100F00008100442331F02F7B2093810010928402D2
:100F100006C020642093810020E820938402309151
:100F20008701311125C041116CC020918801309199
:100F30008901280F391F30938B0020938A0024E009
:100F400026BB20916F00246020936F0020918A01BE
:100F500030918B01820F931F36952795820F931F37
:100F6000909382028093810281E08093870149C03F
:100F7000409181025091820260918A0170918B01AF
:100F8000DB01A095B09520918302E0918402841B3F
:100F9000950BA817B90768F126952E2B460F571FFA
:100FA0003F5F861B970B3930A0F32093830280911B
:100FB0006F008B7F80936F00809186018F5F8035FB
:100FC00008F080E090918501891749F0E82FF0E062
:100FD00090918302EB57FD4F90838093860180911F
:100FE00081008F7B80938100109284021092870190
:100FF00008C0209383025093820240938102309371
:101000008701FF91EF91BF91AF919F918F917F9158
:101010006F915F914F913F912F910F900FBE0F9065
:101020001F9018951F920F920FB60F9211242F93B5
:101030003F934F935F936F937F938F939F93EF9320
:10104000FF9380918401609180022091880030910B
:10105000890040918A0150918B0190917F028A30E2
:10106000F8F4240F351F893019F0762F717001C004
:1010700071E066958F5F791791F3909180007723E7
:1010800011F0906C02C09F73906890938000309331
:1010900089002093880070937F02609380024AC089
:1010A00090918301E09182019E1319C08A3051F41E
:1010B0008BE080938401240F351F309389002093A7
:1010C00088003AC010928401809180008F738093D1
:1010D000800080916F008D7F80936F002DC0EF5F47
:1010E000E43408F0E0E0E0938201F0E0E55CFD4FDD
:1010F00090819093800210927F02909180009F7364
:101100009068909380008A3059F480918A01909180
:101110008B01280F391F309389002093880009C064
:1011200080918400909185004096909389008093EF
:10113000880081E080938401FF91EF919F918F91CE
:101140007F916F915F914F913F912F910F900FBEC3
:101150000F901F901895CF93DF93EC018A859B85A4
:10116000AC85BD858E839F83A887B9870E94CB06F7
:101170006A837B838C839D8381E089838883DF916D
:10118000CF9108954F925F926F927F928F929F922C
:10119000AF92BF92CF92DF92EF92FF920F931F9385
:1011A000CF93DF93CDB7DEB760970FB6F894DEBF6D
:1011B0000FBECDBF69837A838B839C83CA01B9013B
:1011C00027013801A60195010E94C42F25E33AEFBB
:1011D0004EE85CE30E9452336B017C010E940F34A5
:1011E0006D877E878F87988BC701B6010E94A830D4
:1011F0006D837E838F83988725E33AEF4EE85CE327
:1012000069817A818B819C810E9452336B017C01C0
:1012100025E33AEF4EE85CE3C301B2010E9452338A
:101220002B013C01C701B6010E940F344B015C0148
:10123000C701B6010E94A83069837A838B839C839F
:10124000C301B2010E940F3469877A878B879C871C
:10125000C301B2010E94A8306B017C0129853A8547
:101260004B855C8569817A818B819C810E94523398
:101270002B013C01A7019601C501B4010E94523324
:101280002D813E814F8158850E9452339B01AC01D4
:10129000C301B2010E94C42F9B01AC010E945233D2
:1012A0002B013C012D853E854F855889C701B6012C
:1012B0000E9452339B01AC010E9452339B01AC014E
:1012C000C301B2010E94C52F0E941D342B013C01B5
:1012D00029853A854B855C85C501B4010E9452334E
:1012E0004B015C01A701960169817A818B819C8108
:1012F0000E9452332D813E814F8158850E94523386
:101300009B01AC01C501B4010E94C52F9B01AC013A
:10131000C301B2010E94443026E73BE742EC5AE4A5
:101320000E94523360960FB6F894DEBF0FBECDBF59
:10133000DF91CF911F910F91FF90EF90DF90CF90B1
:10134000BF90AF909F908F907F906F905F904F90E5
:1013500008952F923F924F925F926F927F928F9259
:101360009F92AF92BF92CF92DF92EF92FF920F9334
:101370001F93CF93DF93D82FC92F8B010E94692F22
:1013800024E630E040E050E00E940E3549015A0169
:101390009B01AC0160E876E988E990E00E94FE34A8
:1013A0006B017C01F80191828082ED2FFC2F21914D
:1013B000822F022E000C990BC0970A97C0F32E3291
:1013C00039F51F0180E8882E86E9982E88E9A82E35
:1013D000B12C9AE0492E512C612C712CF101C19154
:1013E0001F010C2E000CDD0BE097CA30D10580F4F4
:1013F000C501B401A30192010E940E3549015A01B1
:10140000DE010E946035C60ED71EE81EF91EE6CF2B
:10141000A5E0B0E0A70196010E9455356F5F7F4FB0
:101420008F4F9F4F23E030E040E050E00E940E35A8
:10143000F80122833383448355831682DF91CF9151
:101440001F910F91FF90EF90DF90CF90BF90AF90E2
:101450009F908F907F906F905F904F903F902F90D4
:101460000895FF920F931F93CF93DF93EC01FF2416
:10147000F39488818D3211F0F12C01C02196CE01B8
:101480000E94692F9B01AC01A4E6B0E00E94553593
:10149000FE014991242F042E000C330B20533109F7
:1014A0002A303105A8F34E3241F52181022E000C7D
:1014B000330B205331092A303105F8F44AE0429FBA
:1014C0008001439F100D1124012E000C220B330BC1
:1014D000600F711F821F931F0281002E000C110BE1
:1014E000005311090A30110540F4012E000C220BA3
:1014F000330B600F711F821F931FFF2039F09095EF
:101500008095709561957F4F8F4F9F4FDF91CF9161
:101510001F910F91FF9008951F920F920FB60F9297
:1015200011242F933F934F935F936F937F938F93E8
:101530009F93AF93BF93EF93FF938091B900887F00
:10154000803609F49CC068F5883209F45BC090F4D9
:10155000803109F454C038F4882309F4F6C0883087
:1015600009F44DC0F6C0883109F44CC0803209F44A
:101570005DC0EFC0803409F468C048F4803309F4DA
:1015800055C0883309F0E5C080932403D8C0803566
:1015900009F44FC0883509F45DC0883409F0D9C01A
:1015A000D6C0883909F4C7C0A8F4883709F467C0E1
:1015B00038F4883609F463C0803709F460C0C9C0C4
:1015C000883809F4B8C0803909F45FC0803809F060
:1015D000C0C05BC0803B09F486C038F4803A09F48F
:1015E00066C0883A09F47FC0B4C0803C09F4A7C043
:1015F000883C09F4A4C0883B09F48AC0AAC0809141
:10160000010310C09091230380912203981770F575
:10161000E091230381E08E0F80932303F0E0EE5FDF
:10162000FC4F80818093BB0085EC86C080932403AF
:101630008EC0E091230381E08E0F8093230380917D
:10164000BB00F0E0EE5FFC4F80839091230380911C
:1016500022036EC0E091230381E08E0F8093230369
:101660008091BB00F0E0EE5FFC4F8083809125030A
:1016700081116DC081E08093000384EA61C083E042
:101680008093260310923A02CFCF80913A028032A3
:1016900008F051C0E0913A0281E08E0F80933A0247
:1016A0008091BB00F0E0E65EFD4F8083BDCF85EC0E
:1016B0008093BC001092260380913A02803230F46D
:1016C000E0913A02F0E0E65EFD4F108260913A024E
:1016D00070E0E0911802F09119028AE192E0099518
:1016E00010923A0236C084E08093260310921702CB
:1016F00010921602E0911402F09115020995809162
:101700001602811105C081E0809316021092F40147
:10171000E091170281E08E0F80931702F0E0EC5009
:10172000FE4F80818093BB0090911702809116023A
:10173000981708F479CF85E88093BC000AC085EC3F
:101740008093BC001092260304C0109224030E94D0
:10175000CE04FF91EF91BF91AF919F918F917F91B7
:101760006F915F914F913F912F910F900FBE0F900E
:101770001F9018951092260381E080932503109204
:10178000000382E10E940F1083E10E940F10E9EB39
:10179000F0E080818E7F808380818D7F808388E4EC
:1017A0008093B80085E48093BC0008951F920F9247
:1017B0000FB60F9211242F933F938F939F93AF9364
:1017C000BF93EF93FF938091C600803FF1F0982F75
:1017D0009F70D9F42091F2013091F301F901E5579E
:1017E000FF4FA081B1818C93D901A157BF4F8C913C
:1017F0008F5F8C938081918101968E179F0718F0DF
:10180000C90189579F4F91838083FF91EF91BF91C9
:10181000AF919F918F913F912F910F900FBE0F909D
:101820001F9018951F920F920FB60F9211242F93AD
:101830003F934F935F938F939F93EF93FF93809189
:10184000F2019091F301FC01EA57FF4F208122231E
:1018500051F132970190F081E02D2081318180910A
:10186000C10030FF02C0816001C08E7F8093C10043
:101870002093C6002091F2013091F301F901EA575B
:10188000FF4F8081815080833297808191810296C1
:10189000A9014E575F4F8417950710F0C9010296B2
:1018A000918380830DC08091C1008F7D806480937F
:1018B000C100E091F201F091F301E057FF4F108277
:1018C000FF91EF919F918F915F914F913F912F9158
:1018D0000F900FBE0F901F9018951F920F920FB68A
:1018E0000F9211242F933F938F939F93EF93FF9326
:1018F000E1ECF0E08081877B806980838091F20158
:101900009091F3019C0129573F4FFC01E557FF4F90
:101910003183208332963183208332961082FF9167
:10192000EF919F918F913F912F910F900FBE0F904C
:101930001F901895CF92DF92EF92FF920F931F9313
:10194000CF93DF93CDB7DEB76E970FB6F894DEBFB7
:101950000FBECDBF8C017B016A012EE1269FC00125
:10196000279F900D1124DA015A966D917C915B9717
:10197000680F791F4EE150E0CE0101960E94902F32
:101980008D8DF801868F89818283EE0CFF1CEE0C11
:10199000FF1CD6015C96ED91FC915D97EE0DFF1D4D
:1019A00080819181A281B381F80183839483A5838F
:1019B000B683A801485F5F4FFE013296DA0190E0DE
:1019C0008191811106C0392FD8015C969C93232FF9
:1019D0000FC0933119F09F5F8D93F2CF33E1F4CFB5
:1019E0008331910594F4FA01E80FF91F70832F5F9A
:1019F000622F631BE1E0F0E0EC0FFD1FE60FF11D2D
:101A00007589822F90E07111EBCFF801658FFA0193
:101A1000E80FF91F10828E8D813031F0823041F451
:101A200080E4F801878F04C080E2D8015F968C9330
:101A3000D8015E968C91843091F030F4882361F067
:101A40008130A1F483E00FC0883041F0893051F03B
:101A5000853061F484E007C082E001C085E0F801D0
:101A600080A304C085E0D80190968C936E960FB643
:101A7000F894DEBF0FBECDBFDF91CF911F910F91C4
:101A8000FF90EF90DF90CF900895CF92DF92EF928A
:101A9000FF920F931F93CF93DF93EB017B0124E021
:101AA000E20EF11C8B016C01C61AD70AC601800F29
:101AB000911F0E94AE2FF80181938F01EE15FF0553
:101AC000A9F7CE01DF91CF911F910F91FF90EF9079
:101AD000DF90CF900895AF92BF92CF92DF92EF92B6
:101AE000FF920F931F93CF93DF931F92CDB7DEB773
:101AF0005C017B018B016C0184E0C80ED11CF801F4
:101B000061918F01C50169830E94AE2F69816817B9
:101B100019F0C5010E94B62FFFEFAF1ABF0AAC142F
:101B2000BD0469F7C7010F90DF91CF911F910F910D
:101B3000FF90EF90DF90CF90BF90AF9008950C94FE
:101B4000B62F0C94AE2F80918C01853010F481500B
:101B500008958550833010F085E0089584E008955D
:101B6000CF93C82F862F0E947A06BC01990F880B4D
:101B7000990B0E945D3120E030E040E85AE30E947A
:101B8000523320E030E44CE955E40E94523324E023
:101B9000C29FF0011124EA5AFC4F20813181428119
:101BA00053810E9452330E941F31CF910895CF93E9
:101BB000DF9300D000D0CDB7DEB719821A821B8226
:101BC0001C82BE016F5F7F4F84E190E00E946B0D2D
:101BD00019821A821B821C82BE016F5F7F4F88E1CF
:101BE00090E00E946B0D0F900F900F900F90DF917F
:101BF000CF910895209149039091EF04213208F08C
:101C00004AC0809126038111FCCF32E03093260335
:101C100031E0309325033FEF3093240310922303E8
:101C200020932203A9E2B3E042E053E0FA013E2F01
:101C3000341B321718F43D913193F9CF1092010300
:101C400020910103990F922B90930103909100032F
:101C5000913061F410920003909101039093BB00C6
:101C60009091BC0093FDF8CF95EC01C095EE909358
:101C7000BC00909126039230E1F3909124039F3FA2
:101C800079F080912403803241F0809124038033E5
:101C900031F084E005C081E003C082E001C083E050
:101CA000109228031092490310922703089591E09F
:101CB000909327038093EF04109228031092490316
:101CC0000895CF93DF93D82FC62F80917C030E9475
:101CD000570E6D2F8AE493E00E945C056C2F8AE416
:101CE00093E00E945C05DF91CF910C94FA0D9091E6
:101CF00026039111FCCF91E0909326039093250346
:101D00002FEF2093240310922303260F2093220306
:101D10009093010390910103880F892B8093010315
:101D200080910003813061F41092000380910103DF
:101D30008093BB008091BC0083FDF8CF85EC01C08F
:101D400085EE8093BC00809126038130E1F3809181
:101D50002303861710F460912303A2E0B3E020EE82
:101D600032E0F9018E2F821B861718F48D91819332
:101D7000F9CF862F0895613208F060E20E94770E55
:101D80001092DF028093DE0208950F931F93CF938A
:101D9000DF931F92CDB7DEB7682F0CE713E0F80191
:101DA000808169830E94570E69818AE493E00E94D2
:101DB0005C050E94FA0D61E0F80180810E94BB0E73
:101DC0008AE493E00E9410050F90DF91CF911F915C
:101DD0000F9108950F931F93CF93DF931F92CDB769
:101DE000DEB7682F0CE713E0F801808169830E9459
:101DF000570E69818AE493E00E945C050E94FA0D07
:101E000062E0F80180810E94BB0E8AE493E00E94A8
:101E10001005182F8AE493E00E94100520E030E0BE
:101E2000312F822B932B0F90DF91CF911F910F9128
:101E300008950E94EA0E9827892798270895CF933E
:101E400066EB80EE0E94610E64E670E080E090E058
:101E50000E94910688E80E94190F9093870380934F
:101E600086038AE80E94190F909389038093880360
:101E70008CE80E94190F90938B0380938A038EE85D
:101E80000E94190F90938D0380938C0380E90E9428
:101E9000190F90938F0380938E0382E90E94190F8C
:101EA000909391038093900384E90E94190F90937B
:101EB00093038093920386E90E94190F90939503F0
:101EC0008093940388E90E94190F9093970380935D
:101ED00096038AE90E94190F9093990380939803BF
:101EE0008CE90E94190F90939B0380939A038EE9CB
:101EF0000E94190F90939D0380939C0380917D0312
:101F0000823009F03FC081EA0E94C50E80939E0393
:101F100081EE0E94190F9093A00380939F0383EE9C
:101F20000E94C50E8093A10384EE0E94C50EC82FA7
:101F300085EE0E94C50E282F2F7030E1C39FC0018F
:101F40001124822B9093A3038093A20386EE0E9418
:101F5000C50EC82F85EE0E94C50E90E024E0959531
:101F600087952A95E1F740E1C49F90011124822BC7
:101F7000932B9093A5038093A40387EE0E94C50E34
:101F80008093A60389ED8093A8038091A9038F71A4
:101F900080628093A9038091A703807C80628093F4
:101FA000A70380917D03823021F461E082EF0E94DB
:101FB000610E9091A703692F677080E2689F90017E
:101FC0001124892F869586958695877048E0849F91
:101FD000B0011124622B732B97FB992790F9692B81
:101FE00085EF0E94610E9091A803692F677080E2CF
:101FF000689F90011124892F869586958695877014
:1020000048E0849FB0011124622B732B9295969522
:1020100096959370692B84EFCF910C94610E90E0AC
:10202000FC01EC52FB4F2491FC01E054FB4F349136
:10203000FC01E455FB4FE491EE23B1F1222339F189
:10204000233091F038F42130A9F0223001F584B525
:102050008F7D12C0273091F02830A1F02430B9F4E0
:10206000809180008F7D03C0809180008F77809366
:1020700080000DC084B58F7784BD09C08091B00009
:102080008F7703C08091B0008F7D8093B000F0E027
:10209000EE0FFF1FEE55FB4FA591B4918FB7F8944B
:1020A000EC913E2B3C938FBF089580937C0310925C
:1020B000DF021092DE0210922803109249030E9460
:1020C000BA0B80ED0E94C50E883521F0803641F4B0
:1020D00082E001C081E080937D030E941F0F02C057
:1020E00010927D0380917D0390E00895CF92DF925E
:1020F000EF92FF920F931F93CF93DF931F92CDB771
:10210000DEB7682F0CE713E0F801808169830E9435
:10211000570E69818AE493E00E945C050E94FA0DE3
:1021200063E0F80180810E94BB0E8AE493E00E9484
:1021300010056C01990FEE08FF08FE2CED2CDC2C2D
:10214000CC248AE493E00E941005AC01990F660B41
:10215000770BC42AD52AE62AF72AFE2CED2CDC2C94
:10216000CC248AE493E00E941005092E000CAA0BEF
:10217000BB0BBC01CD016C297D298E299F290F90B5
:10218000DF91CF911F910F91FF90EF90DF90CF9053
:1021900008958F929F92AF92BF92CF92DF92EF926B
:1021A000FF928AEF0E947610ECE7F3E042855385B8
:1021B0004A01A12CB12CC72ED82EE92EFF24E7FC12
:1021C000FA94C818D908EA08FB08DC01CB0137E00B
:1021D000B595A795979587953A95D1F7B501A4013F
:1021E000440F551F661F771F4C015D01841A950A25
:1021F000A60AB70AA5019401A485B5850E94603599
:102200004B015C013BE0B594A794979487943A9571
:10221000D1F7A7019601C701B6010E94FE349B01C8
:10222000AC016CE055954795379527956A95D1F7A0
:10223000A685B7850E946035DC01CB017EE0B595AF
:10224000A795979587957A95D1F7A5019401280FC1
:10225000391F4A1F5B1F2683378340875187A5E0BC
:10226000B0E00E945535DC01CB0180589F4FAF4F45
:10227000BF4F692F7A2F8B2F992787FD9A950E9440
:102280005D3120E030E048EC52E40E94AD30FF9038
:10229000EF90DF90CF90BF90AF909F908F90089578
:1022A0002F923F924F925F926F927F928F929F9266
:1022B000AF92BF92CF92DF92EF92FF920F931F9354
:1022C000CF93DF93CDB7DEB7A2970FB6F894DEBFFA
:1022D0000FBECDBF0E94C91087EF0E9476106A8F93
:1022E0007B8F8C8F9D8F8091820390918303A0912F
:1022F0008403B09185036C017D01FF0CCC08DC2CBC
:1023000076019C01AD016C2D7C2D8C2D9C2D345FB4
:102310004140510961097109810991092AA339A331
:1023200049835A836B837C838D839E8359016A0121
:102330007B018C010E9468352A8B3B8B4C8B5D8B1B
:102340006E8B7F8B888F998F809196038E8FE09113
:102350009703EF83F0919403FF8F80919503888713
:10236000E0919203E8A3F0919303F987B0908F0373
:10237000A0908E031B2D110F110BC12ED12EE12E1B
:10238000F12E012F2AA139A149815A816B817C81CB
:102390008D819E810E9468350CE00E94D236190121
:1023A0002A013B014C01B0909103A09090031B2D9A
:1023B000110F110BC12ED12EE12EF12E012F2A89E2
:1023C0003B894C895D896E897F89888D998D0E94B2
:1023D000683508E00E94EB36510162017301840107
:1023E0000E94093770588F4F9F4F20908C03309078
:1023F0008D035101C12CD12CE12CF12C00E010E017
:102400000E94683501E20E94EB362A873B874C87A1
:102410005D876E877F87888B998BA0E00E94273726
:1024200009F45EC1AE8C1F81110F110BBF80C12E4C
:10243000D12EE12EF12E012F2A893B894C895D890D
:102440006E897F89888D998D0E94683519012A01CE
:102450003B014C01AF8C1885110F110BB884C12EB4
:10246000D12EE12EF12E012F2AA139A149815A81C5
:102470006B817C818D819E810E94683501E10E9483
:10248000D23659016A017B018C019101A201B3018D
:10249000C4010E94093719012A013B014C014A8DF0
:1024A0005B8D6C8D7D8D84E075956795579547950F
:1024B0008A95D1F780E090E0A0E1B0E0841B950B15
:1024C000A60BB70B6C017D01FF0CCC08DC2C760150
:1024D0009C01AD016C2D7C2D8C2D9C2D0FE10E945B
:1024E000D236F901B42FA52F6C837D8389839A831B
:1024F00028A19985990F990B3985492F592F692F53
:10250000792F892F03E20E94D23659016A017B019B
:102510008C019101A201B301C4010E940937590144
:102520006A017B018C019F014B2F5A2F6C817D81A9
:1025300089819A810E941E374901542E652EB62F3B
:10254000A72FF82FE92F03E00E94D2365401C52CA3
:10255000D62CEB2EFA2E0F2F1E2F0E941E3759015C
:102560006A017B01782E192F03E00E94D236072DD5
:102570000E941E3703E00E94D2365401C52CD62C8F
:10258000EB2EFA2E0F2F1E2F0E941E3702E00E9404
:10259000D2360F2F0E941E3701E00E94D2360F2F35
:1025A0000E941E37AA84BB84CC84DD84EE84FF8421
:1025B000088919890E94FD3528873F8349835A83FA
:1025C0006B837C838D839E830DE00E94EB36922E7D
:1025D000832E742E652E562E472E382E292E30919E
:1025E0009D0320919C03932F990F990BA92CB82C34
:1025F000C72CD62CE52CF42C032D122D492F592F46
:10260000692F792F892F0E9468350E94683509E16A
:102610000E94EB3659016A017B018C0128853F81BC
:1026200049815A816B817C818D819E810E9409370D
:1026300019012A013B014C0130919B0320919A031F
:10264000932F990F990BA884BF80C980DA80EB8003
:10265000FC800D811E81492F592F692F792F892FD9
:102660000E94683503E10E94EB3659016A017B0143
:102670008C019101A201B301C4010E94093708E055
:102680000E94EB36522E632E742E852E962EF72F37
:10269000E82FB92F3091990320919803932F990F28
:1026A000990B492F592F692F792F892F04E00E9408
:1026B000D23659016A017B018C01252D362D472D1B
:1026C000582D692D7F2F8E2F9B2F0E9409370E9436
:1026D000553120E030E040E85BE30E94523303C014
:1026E00060E070E0CB01A2960FB6F894DEBF0FBE9B
:1026F000CDBFDF91CF911F910F91FF90EF90DF90B1
:10270000CF90BF90AF909F908F907F906F905F9091
:102710004F903F902F900895FF920F931F93CF9368
:10272000DF93CDB7DEB76E970FB6F894DEBF0FBE5E
:10273000CDBF109282041092810488EE94E09093B1
:102740007E0480937D0480E2E5E8F4E0DF011D92E1
:102750008A95E9F7F12C00E010E060917D0470911A
:102760007E04600F711F4EE150E0CE0101960E9481
:10277000902FE981EE23B1F0E03220F4F0E0ED5942
:10278000FB4FF2A280918104909182040196909374
:10279000820480938104025E1F4FF394003CB3E0F7
:1027A0001B07D9F66E960FB6F894DEBF0FBECDBFED
:1027B000DF91CF911F910F91FF900895CF93DF93F9
:1027C0008091A9049091AA04DC01ED91FC91028012
:1027D000F381E02D40E06EEF09958091CB048823D2
:1027E00011F1CBECD4E08091A9049091AA046991F5
:1027F000DC01ED91FC910280F381E02D41E009952F
:10280000B4E0CB3EDB0779F78091A9049091AA044C
:10281000DC01ED91FC910280F381E02D40E06FEF4F
:10282000DF91CF910994C0E2D0E08091A90490910A
:10283000AA04DC01ED91FC910280F381E02D41E0DE
:1028400060E00995219789F7DFCF2F923F924F9251
:102850005F926F927F929F92AF92BF92CF92DF92E0
:10286000EF92FF920F931F93CF93DF93CDB7DEB715
:10287000A1970FB6F894DEBF0FBECDBF811118C06F
:102880001092AD041092B30410917C04812F880F34
:10289000880F880F8093B404412F50E068E674E0FD
:1028A00085EB94E00E948738BAE09B2E910EA8C178
:1028B000282F269530E040918104509182044217E0
:1028C00053070CF473C080FD71C000E010E0CC240D
:1028D000CA94DC2C760180918104909182040817BF
:1028E00019070CF061C020918404622F70E01B82F4
:1028F000CC82DD82EE82FF821D8E1E8E1F8E18A27C
:1029000019A2FB01A3E0F595E795AA95E1F7EB5530
:10291000FB4F808190E0277002C0959587952A959E
:10292000E2F7817099278887892B31F043E654E0DC
:10293000CE0101960E949A0C809184048F5F80934F
:10294000840490E0209181043091820482179307DF
:1029500014F0109284048885882319F11092AD0434
:102960008B818093B3048D8D28E0829FC001112458
:102970009E8D892B8093B40480E02AE0280FE9E043
:10298000F0E0EC0FFD1FE80FF11D9081992339F065
:102990008F5FE22FF0E0E555FB4F9083EECF922E54
:1029A0002FC10F5F1F4F97CF912C2AC180E48093D6
:1029B000AD0400E010E058E0952ECC24CA94DC2C45
:1029C00076017AE1672E712C20918304622F70E0EA
:1029D0001B82CC82DD82EE82FF821D8E1E8E1F8EB8
:1029E00018A219A2FB0143E0F595E7954A95E1F796
:1029F000EB55FB4F808190E0277002C0959587953D
:102A00002A95E2F7817099278887892B31F043E670
:102A100054E0CE0101960E949A0C809183048F5F4E
:102A20008093830490E0A0908104B09082048A1582
:102A30009B0514F0109283048885882309F4D0C084
:102A40008C819D81AE81BF818F3F5FEF9507A50788
:102A5000B50709F4C5C03B81692D70E04F8D51E089
:102A6000590D303168F065557B4F242F2F70FB01D5
:102A7000208322E0290DE52FF0E0E555FB4F0BC048
:102A8000252F65557B4F50E1359FF0011124342FE0
:102A90003F703E2BFB01308369A170E030E0443091
:102AA000B9F128F4442369F04130D9F095C0483099
:102AB00009F466C0493009F480C0453009F08CC083
:102AC00042C0482F4F71B7FD02C080E001C080E8CE
:102AD000F901E555FB4F842B98A1892B808381E078
:102AE0007CC0F901E555FB4F8083A9014F5F5F4F23
:102AF000E92FEF71B7FD02C080E001C080E8DA0184
:102B0000A555BB4F8E2B98A1892B8C9382E065C075
:102B1000A9014D595B4FFA01E85BFF4F8083319665
:102B20009083A9014E5F5F4FEA2FEF71B7FD02C09E
:102B300080E001C080E8DA01A555BB4F8E2B98A13B
:102B4000892B8C931BC0A9014D595B4FFA01E85B9F
:102B5000FF4F808331969083A9014E5F5F4F1D0127
:102B6000552437FC5094452CB7FD02C080E001C0CD
:102B700080E8FA01E555FB4F282A208283E02DC02A
:102B8000A9014D595B4FFA01E85BFF4F80833196F5
:102B900090833196A083A9014D5F5F4FEB2FEF71BA
:102BA000B7FD02C080E001C080E8DA01A555BB4F47
:102BB0008E2B98A1892B8C930DC0A9014D595B4F89
:102BC000FA01E85BFF4F8083319690833196A083B2
:102BD0003196B08384E001C080E0982E920E02C04E
:102BE00060E070E00F5F1F4F0A151B054CF4892D44
:102BF00090E09301261B370B821793070CF4E4CE69
:102C00008EE78093AB048FE28093AC048091AD0497
:102C10009EEF990D892B8093AD0489E08093AE04DB
:102C200084EA8093AF048091ED048093B004809196
:102C3000EE048093B1041092B204292D30E0EDEA45
:102C4000F4E080E092E09E1B57E0492F4E0F4915BB
:102C500060F44191842748E087FF03C0880F8527EF
:102C600001C0880F4150C1F7F0CFF901E555FB4F86
:102C700080838091A9049091AA04DC01ED91FC91DC
:102C80000280F381E02D40E06EE7099511E0911696
:102C900098F08091A9049091AA04DC01ED91FC9137
:102CA000A12FB0E0A555BB4F0280F381E02D41E09C
:102CB0006C9109951F5FEBCFA1960FB6F894DEBF1C
:102CC0000FBECDBFDF91CF911F910F91FF90EF907D
:102CD000DF90CF90BF90AF909F907F906F905F906C
:102CE0004F903F902F900895CF93DF931F92CDB7D1
:102CF000DEB72091810430918204232B21F4898353
:102D00000E948C1389818032D0F4E82FF0E0ED59D5
:102D1000FB4F82A1E82FF0E093E0F595E7959A95B7
:102D2000E1F7EB55FB4F282F277081E090E001C0C1
:102D3000880F2A95EAF780959081892380831092E5
:102D4000670410928404109283040F90DF91CF9156
:102D50000895813208F080E2682F87E70E94770E9D
:102D60001092DF028093DE02089520917F0430915B
:102D700080042115310589F0803278F4E82FF0E0E5
:102D8000ED59FB4F82A1F90194E0899FE00DF11DFF
:102D90001124408351836283738308954F925F921D
:102DA0006F927F92AF92BF92CF92DF92EF92FF929B
:102DB0000F931F93CF93DF9300D000D0CDB7DEB732
:102DC000082FA62E69017A01AE014F5F5F4FC70140
:102DD000B6010E941E332B013C0189819A81AB818F
:102DE000BC81BC01CD019F770E942631B62E172FE2
:102DF0002AE939E949E15FE3C301B2010E94523394
:102E000020E030E543EC57E40E9452339F770E9464
:102E100026313B011170A11002C090E001C090E288
:102E2000192B20E030E0A901C701B6010E94A330B0
:102E3000881F8827881F8295880F880F807C712FB4
:102E4000782BA3016B2D802F0F900F900F900F9078
:102E5000DF91CF911F910F91FF90EF90DF90CF9076
:102E6000BF90AF907F906F905F904F900C94B5168D
:102E7000CF92DF92EF92FF921092B7036091BF035F
:102E80007091C00380E090E00E945B316B017C0197
:102E90006091C1037091C2038091C3039091C403F8
:102EA0000E945B3128E23BE64EE65EE40E94AD30D4
:102EB0009B01AC01C701B6010E94C52F2091C5033B
:102EC00021119058FF90EF90DF90CF900895CF920E
:102ED000DF92EF92FF921092B7036091B803709166
:102EE000B90380E090E00E945B316B017C0160914E
:102EF000BA037091BB038091BC039091BD030E9403
:102F00005B3128E23BE64EE65EE40E94AD309B0179
:102F1000AC01C701B6010E94C52F2091BE0321114B
:102F20009058FF90EF90DF90CF9008951F93CF932C
:102F3000DF9387E70E94570E60E08AE493E00E94E7
:102F40005C050E94FA0D87E70E94570E83E090E02F
:102F50000E94A9169091DE028091DF029817F1F38A
:102F60008AE493E00E941005D82F8AE493E00E943F
:102F70001005182F8AE493E00E941005C82F0E94C4
:102F8000FA0D812F90E0A0E0B0E0BA2FA92F982F82
:102F90008827AD2BBC01CD016C2BDF91CF911F9108
:102FA0000895CF93DF9387E70E94570EC0EFD4E0D8
:102FB0006D8570E0605B7F4F8AE493E00E945C0562
:102FC0000E94FA0D6C8570E080E090E00E9491060E
:102FD000DF91CF910C949617CF93DF93CDB7DEB7E7
:102FE000C255D1090FB6F894DEBF0FBECDBF78949D
:102FF00084B5826084BD84B5816084BD85B58260FE
:1030000085BD85B5816085BD80916E0081608093AE
:103010006E00109281008091810082608093810017
:103020008091810081608093810080918000816027
:10303000809380008091B10084608093B100809182
:10304000B00081608093B00080917A0084608093AA
:103050007A0080917A00826080937A0080917A0071
:10306000816080937A0080917A00806880937A00F2
:103070001092C10086E70E9455108093760381115B
:1030800005C087E70E9455108093760380917603F0
:1030900081115DC087E70E94570E0E94FA0D8111D1
:1030A00056C01092DF021092DE0210922803109296
:1030B00049030E94BA0B87E70E94570E6EE18AE42B
:1030C00093E00E945C050E94FA0D8AE08093FC0464
:1030D00088E08093FD0464E670E080E090E00E9468
:1030E000910660EFC62E64E0D62E12EA87E70E94B2
:1030F000570E612F8AE493E00E945C050E94FA0D4E
:1031000087E70E94570E82E090E00E94A9169091F6
:10311000DE028091DF029817F1F38AE493E00E94C7
:103120001005B82E8AE493E00E941005082F0E9433
:10313000FA0DFB2CE12CC701802BD6018D939D93BA
:103140006D011E5F1E3A91F683E0809376038091B5
:1031500076038230B9F018F48130A1F02FC08330AB
:10316000F9F0843059F58DEC9CECACE4BFE380932E
:10317000770390937803A0937903B0937A03109226
:103180007B031CC08AE999E9A9E5BFE38093770333
:1031900090937803A0937903B0937A0385E00CC0F1
:1031A0004DEC5CEC6CE47FE3409377035093780341
:1031B0006093790370937A0380937B0381E090E0BE
:1031C0000E94A10D8F3F11F08093010182E090E0F9
:1031D0000E94A10D8F3F31F091E0811101C090E07C
:1031E0009093020183E090E00E94A10D8F3F11F0C7
:1031F00080938C0184E090E00E94A10D8F3F39F014
:1032000090E08F5791099093C5018093C40185E0A8
:1032100090E00E94A10D8F3F11F08093030186E0A2
:1032200090E00E94A10D8F3F31F091E0811101C02B
:1032300090E09093B70187E090E00E94A10D8F3F4E
:1032400031F091E0811101C090E09093B60188E0E7
:1032500090E00E94A10D8F3F31F091E0811101C0FB
:1032600090E09093B5018AE090E00E94A10D8F3F1D
:10327000A1F0682F70E080E090E00E945B3120E0D8
:1032800030E048EC52E40E94AD30609377037093D5
:1032900078038093790390937A038CE090E00E9406
:1032A000A10D8F3F11F080937B038DE090E00E9491
:1032B000A10D8F3F11F08093ED018EE090E00E9410
:1032C000A10D8F3F11F08093E60110926F001092D4
:1032D000800081E88093810083E896E090938B01E1
:1032E00080938A018BE39CE390938901809388010A
:1032F00062E088E00E94F90589E00E940F1061E019
:1033000089E00E94F90510928701109286011092BF
:10331000850110928401109283011092820180E253
:1033200086BB80936F008091ED01882339F085E1A1
:103330000E947A069093EC018093EB0180917603D2
:10334000811103C086E00E947416809101018130D2
:1033500021F080917603823019F08FE00E9474167C
:1033600080910101813021F080917603811106C0A6
:103370008DE00E9474168EE00E9474168091010107
:10338000811109C081E00E94741682E00E947416C7
:1033900083E00E9474168091010181110AC080911E
:1033A0007603811106C084E00E94741685E00E94B5
:1033B000741680910101823091F087E00E947416AA
:1033C00088E00E94741689E00E9474168AE00E94C8
:1033D00074168BE00E9474168CE00E947416809123
:1033E000ED01811103C087E10E94741680918C0168
:1033F00081110DC080E10E94741681E10E94741653
:1034000082E10E94741683E10E94741640C01091FC
:1034100003011123E1F16CEB71E084E190E00E9483
:10342000450D1130A1F50E94A30D6FE00E94B00D73
:103430006B017C01BE016F5F7F4F88E190E00E94CD
:10344000450DC701B6010E945D3120E030E04AE73A
:1034500054E40E94AD306B017C012CE53FE842E86A
:103460005FE369817A818B819C810E9452339B0149
:10347000AC01C701B6010E94C13287FD08C010929D
:10348000BC011092BD011092BE011092BF0180914B
:10349000B701811103C084E10E9474168091B601C6
:1034A000811103C085E10E9474168091B5018111DC
:1034B00003C086E10E94741686E78093ED0482E3E0
:1034C0008093EE0480917C048111ABC080E2EBEA32
:1034D000F4E0DF011D928A95E9F740E250E060E2F6
:1034E00070E08BEC94E00E94903843E150E063E59B
:1034F00071E088E694E00E94A73888E080937C041D
:103500008091810490918204892B11F40E948C1384
:103510000091810410918204013CBFE11B0730F44B
:10352000C801880F991F880F991F02C08FEF9FEF66
:103530000E944237FC0120E030E04FEF5FEFBA011C
:103540002017310739F041935193619371932F5FA5
:103550003F4FF6CF80937F049093800481E990E001
:103560000E94423721E9FC0111922A95E9F726E1F0
:1035700031E0DC012D933C939093AA048093A9043D
:103580000E944A06109267041092840410928304E9
:103590000E94CB066B017C01B0EDCB0EB7E0DB1EC9
:1035A000E11CF11C80917D0490917E04892B61F1D6
:1035B0000E94CB066C157D058E059F0528F504E05D
:1035C00010E00E94DE1366E970E080E090E00E9467
:1035D000910601501109A9F700E010E080918104E3
:1035E0009091820480179107ECF2802F880F0E943F
:1035F00025140E94DE1366E970E080E090E00E94EE
:1036000091060F5F1F4FEACF8091A9049091AA0401
:10361000DC01ED91FC910480F581E02D099581118B
:10362000F3CFFE0131961F019E012E5D3F4F3CA35B
:103630002BA30E94CB060091EE011091EF01209187
:10364000F0013091F101DC01CB01801B910BA20B49
:10365000B30B853B9105A105B10510F40C94DB2358
:103660008091ED01882309F4CFC085E10E947A069C
:103670005C010091EB011091EC01609108017091E7
:10368000090180910A0190910B010E945D316B014B
:103690007C01B501A016B1060CF4B801601B710BDA
:1036A000072E000C880B990B0E945D3120E030E062
:1036B00040E85AE30E94523320E030E44CE955E4FC
:1036C0000E945233A70196010E94C52FA7019601BF
:1036D0000E94C42F9B01AC010E94C52F4B015C01CD
:1036E00020EC36E44DEE5CE3C701B6010E94523394
:1036F0006B017C012BE734E948E853E46091040155
:103700007091050180910601909107010E94C52FDB
:1037100029E038E045E051E40E9452339B01AC01BE
:10372000C701B6010E94AD309B01AC01C501B401D7
:103730000E94AD300E941D340E941F314B015C017C
:103740000091E7011091E801072E000C880B990BFE
:103750000E945D316B017C01B80168197909072E5F
:10376000000C880B990B0E945D3120E030E040E0B6
:103770005FE30E9452339B01AC01C701B6010E9476
:10378000C52F0E941F316B017C017093EA01609389
:10379000E9018091E60146010D2C000CAA08BB0846
:1037A0008130E9F4C501B4010E945D316093E2010A
:1037B0007093E3018093E4019093E501B601601BEF
:1037C000710B072E000C880B990B0E945D316093E2
:1037D000DE017093DF018093E0019093E101D092CC
:1037E000E801C092E701C501B4010E945D3126E6FF
:1037F00036E646E650E40E9452330E941F31AB0188
:10380000BC0187E10E94B51680917603882309F4F4
:1038100061C6833009F0CBC387E70E94570E6091E1
:10382000FD0470E0605C7F4F8AE493E00E945C05D9
:103830000E94FA0D6091FC0470E080E090E00E942C
:1038400091060E9496176DAB7EAB8FAB98AF0E942E
:10385000D1172091F8043091F904890120E030E07B
:10386000322F212F102F00272B013C01401A510A23
:10387000620A730AE091F604F091F7048090F20472
:103880009090F304940140E050E060E070E080E04C
:1038900090E000E10E94D236D22EE32EF42E5DA3FA
:1038A0006DA7872E982E99AB9F0140E050E0C30191
:1038B000B2010E94C135C22E032F142FB52FF62F4F
:1038C000E72F5C01A0E00E94273754F4AFE70E9485
:1038D0001237C22E032F142FB52FF62FE72F5C01BE
:1038E0002C2D302F412F5B2F6F2F7E2FC50107E02E
:1038F0000E94EB365901C42EA52FF62FE72F8C011D
:103900002D2D3E2D4F2D5DA16DA5782D892D99A9C9
:10391000DA2EEF2EFE2E0E94093729AF3DAF2296F8
:103920004FAF229723965FAF239724966FAF2497CC
:1039300025967FAF259726968FAF269727969FAF20
:1039400027976091F0047091F1040091F4041091B4
:10395000F50480E090E020E030E840E050E00E9494
:10396000D035D22EE32EF42E5DA36DA7872E982E90
:1039700099AB980140E050E0C301B2010E94C1350B
:10398000C22E032F142FB52FF62FE72F5C01A0E0D6
:103990000E9427377CF421503F4F4F4F5F4F6F4FAE
:1039A0007F4F8F4F9F4FC22E032F142FB52FF62F0F
:1039B000E72F5C012C2D302F412F5B2F6F2F7E2F97
:1039C000C50108E00E94EB365901C42EA52FF62F41
:1039D000E72F8C012D2D3E2D4F2D5DA16DA5782D4E
:1039E000892D99A9DA2EEF2EFE2E0E9409372896EE
:1039F0002FAF289729963FAF29972A964FAF2A973E
:103A00002B965FAF2B972C966FAF2C972D967FAF91
:103A10002D972E968FAF2E972F969FAF2F97209191
:103A2000FA043091FB0440E050E0C301B2010E946F
:103A3000C135F22E032F142FB52FF62FE72FD82ED6
:103A4000E92EA0E00E94273784F421503109404834
:103A50005F4F6F4F7F4F8F4F9F4FF22E032F142FCB
:103A6000B52FF62FE72FD82EE92E2F2D302F412FEF
:103A70005B2F6F2F7E2F8D2D9E2D07E10E94EB3641
:103A80002DA33EA34FA358A7CDA0DEA0EFA0F8A47E
:103A900030EDC30E37E0D31EE11CF11C109202057D
:103AA0001092030510920405109205051092060568
:103AB00010920705109208051092090510920A0548
:103AC00010920B0510920C0510920D0510920E0528
:103AD00010920F05109210051092110540EDC416BA
:103AE00047E0D406E104F1040CF0C8C02DA13EA1CA
:103AF0004FA158A5CA01B9010E94FE349B01AC0137
:103B0000A5E0B0E00E9455354B015C01B594A79447
:103B1000979487942B013C01770C4408542C320174
:103B20008092020590920305A0920405B0920505CB
:103B3000409206054092070540920805409209050B
:103B40009B01AC0102E055954795379527950A955D
:103B5000D1F72DA73EA74FA758AB20930A05309366
:103B60000B0540930C0550930D0540920E054092B5
:103B70000F05409210054092110534E2C3163AEF4A
:103B8000D3063FEFE306F3060CF078C06DA17EA1EB
:103B90008FA198A56455724F8F4F9F4F9B01AC0129
:103BA0000E94FE3469AB7AAB8BAB9CABA7E0B0E074
:103BB0009B01AC010E9455357B018C01AB01BC011E
:103BC000770F440B542FBA014DA35EA36FA378A7C0
:103BD0009401A501642D742D842D942D5701680145
:103BE000EDA0FE2C0E2D1E2D0E94093720930205FC
:103BF0003093030540930405509305056093060533
:103C0000709307058093080590930905ABE0B0E039
:103C100029A93AA94BA95CA90E9455357B018C01C1
:103C200015950795F794E7949B01AC01550F220B6E
:103C3000322FA9012DA33EA34FA358A72DA53EA522
:103C40004FA558A9642D742D842D942D570168011A
:103C5000EDA0FE2C0E2D1E2D0E94093720930A0583
:103C600030930B0540930C0550930D0560930E05A2
:103C700070930F0580931005909311056DA97EA98F
:103C80008FA998ADAB01BC0180E090E0DC014DA3B1
:103C90005EA36FA378A789A79AA7ABA7BCA728960E
:103CA0002FAD289729963FAD29972A964FAD2A9791
:103CB0002B965FAD2B972C966FAD2C972D967FADE5
:103CC0002D972E968FAD2E972F969FAD2F97A09064
:103CD0000A05B0900B05C0900C05D0900D05E09042
:103CE0000E05F0900F0500911005109111050E942E
:103CF0001E3759016A017B018C012DA13EA14FA104
:103D000058A560E070E080E090E00E946835F22EF7
:103D1000032F142FB52FF62FE72FD82EE92EA0E072
:103D20000E94273784F421503109404E5F4F6F4F76
:103D30007F4F8F4F9F4FF22E032F142FB52FF62F4B
:103D4000E72FD82EE92E2F2D302F412F5B2F6F2FED
:103D50007E2F8D2D9E2D05E10E94EB3639014A0103
:103D6000B62FA72FF82FE92F29AD3DAD22964FADE5
:103D7000229723965FAD239724966FAD24972596BF
:103D80007FAD259726968FAD269727969FAD2797CF
:103D9000A0900205B0900305C0900405D0900505E1
:103DA000E0900605F09007050091080510910905BF
:103DB0000E941E3759016A017B018C019301A40105
:103DC0006B2F7A2F8F2F9E2F0E941E37F22E032FDC
:103DD000142FB52FF62FE72FD82EE92EA0E00E9442
:103DE000273784F4215030484F4F5F4F6F4F7F4F3C
:103DF0008F4F9F4FF22E032F142FB52FF62FE72F43
:103E0000D82EE92E2F2D302F412F5B2F6F2F7E2F95
:103E10008D2D9E2D0FE00E94EB36B901CA01209333
:103E200008017093090140930A0190930B010E94CD
:103E30005D3120E836EE45EC57E40E94AD302BEAC8
:103E40003CED42E45EE30E94BF339B01AC0160E0C5
:103E500070E080E89FE30E94C42F20E03AE24DE248
:103E600057E40E94523320E030E048EC52E40E94D4
:103E700052330E941F314B015C010E94D1172091E7
:103E8000F8043091F904890120E030E0322F212F2D
:103E9000102F00276B017C01C01AD10AE20AF30A35
:103EA0002091FA043091FB0440E050E0C701B601D4
:103EB0000E94C135722E032F142FB52FF62FE72F36
:103EC000582E692EA0E00E94273784F42150310932
:103ED00040485F4F6F4F7F4F8F4F9F4F722E032F82
:103EE000142FB52FF62FE72F582E692E272D302FA0
:103EF000412F5B2F6F2F7E2F852D962D07E10E947E
:103F0000EB362DA33EA34FA358A769A77AA78BA78B
:103F10009CA74DA05EA06FA078A470ED470E77E03F
:103F2000571E611C711C80ED481687E0580661041D
:103F300071044CF01092FE041092FF0410920005E0
:103F40001092010513C0A7019601C701B6010E9496
:103F5000FE3420E030E0A9010E9430352093FE04B9
:103F60003093FF0440930005509301058091FE04B7
:103F70009091FF04A0910005B091010573016201C9
:103F8000C81AD90AEA0AFB0AC701B6010E945D31C4
:103F900020E030E048EC52E40E94AD306093040130
:103FA00070930501809306019093070148C10E9418
:103FB00050110E941F316093080170930901809392
:103FC0000A0190930B010E94501120E030E048EC70
:103FD00052E40E94AD3020E030E54DE754E40E9409
:103FE000AD3021E03EED42E45EE30E94BF339B0131
:103FF000AC0160E070E080E89FE30E94C42F20E005
:104000003AE24DE257E40E94523320E030E048ECBF
:1040100052E40E9452330E941F314B015C010E9406
:10402000C910609304017093050180930601909379
:10403000070180917603823009F001C10E94C91006
:104040008DEF0E94EA0E6C01E12CF12CC11420E8E6
:10405000D206E104F10409F4E1C0409082035090DB
:10406000830360908403709085033CE2531A31E02F
:10407000630A71083EE0CC0CDD1CEE1CFF1C3A9577
:10408000D1F78091A2039091A303092E000CAA0BF3
:10409000BB0B44E1880F991FAA1FBB1F4A95D1F79C
:1040A000C81AD90AEA0AFB0AA091A403B091A50391
:1040B000A30192010E946035C61AD70AE80AF90ADC
:1040C00040E4D40EE11CF11C5FE0F594E794D79432
:1040D000C7945A95D1F7A091A6030A2E000CBB0BEA
:1040E000A30192010E9460359B01AC016AE05595E5
:1040F0004795379527956A95D1F72DA33EA34FA3F2
:1041000058A7A091A103B0E0A30192010E945535E8
:10411000DC01CB017BE0B595A795979587957A95BE
:10412000D1F7BC01CD0170588F4F9F4F2DA13EA1FB
:104130004FA158A50E94FE34DC01CB01EAE0B59501
:10414000A79597958795EA95D1F79C01AD01405EBB
:104150005F4FA0919F03B091A0030E946035DC01E6
:10416000CB01905EAF4FBF4FBC01CD01FEE09595F6
:10417000879577956795FA95D1F7A70196010E94E3
:10418000FE346B017C01AFE0959587957795679537
:10419000AA95D1F79B01AC010E94FE349B01AC01B2
:1041A000B7E05595479537952795BA95D1F7A091E2
:1041B0009E03B0E00E945535DC01CB0114E0B595BB
:1041C000A795979587951A95D1F7B701A601481B32
:1041D000590B6A0B7B0BDB01CA0177FF03C080E040
:1041E00090E0DC0181309105A10559E1B50724F08B
:1041F00080E090E0A0E0B9E1BC01CD012CE0959514
:104200008795779567952A95D1F70E945D3120E0D3
:1042100030E040E85AE30E94523304C060E070E0AE
:1042200080EC9FE720E030E040E251E40E9452330E
:104230000E941F31AB01BC018FE00E94B516809136
:10424000DA019091DB01A091DC01B091DD010097D2
:10425000A105B10589F48092DA019092DB01A09268
:10426000DC01B092DD018092D6019092D701A0923C
:10427000D801B092D90126C075016401C81AD90AC3
:10428000EA0AFB0AC701B6012AE030E040E050E04C
:104290000E9430352093D2013093D3014093D40152
:1042A0005093D501C501B40124E630E040E050E070
:1042B0000E9430352093CE013093CF014093D0013E
:1042C0005093D1010E94CB060091EE011091EF01B5
:1042D0002091F0013091F1016B017C01C01AD10AEB
:1042E000E20AF30A8091D6019091D701A091D801FA
:1042F000B091D901A5019401281B390B4A0B5B0B26
:10430000CA01B9010E945D312B013C01C701B60110
:104310000E945B319B01AC0160E070E08AE794E4AD
:104320000E94AD309B01AC01C301B2010E94523327
:104330000E941F312B013C018092D6019092D7013F
:10434000A092D801B092D9018091E601813041F468
:10435000C092CA01D092CB01E092CC01F092CD0183
:10436000C090CA01D090CB01E090CC01F090CD017B
:10437000D701C6010197A109B109873B9B40A1055F
:10438000B10550F520E038E44FE156E46091E201D8
:104390007091E3018091E4019091E5010E94523314
:1043A0002091DE013091DF014091E0015091E10167
:1043B0000E9452334B015C01C701B6010E945B3180
:1043C0009B01AC01C501B4010E94AD300E941F31B8
:1043D000460E571E681E791EC301B2010E945D3150
:1043E0006B017C019B01AC016091C6017091C7011A
:1043F0008091C8019091C9010E94C42F2091770338
:10440000309178034091790350917A030E9452339E
:104410009B01AC01C701B6010E94C52F0E941F314C
:104420006B017C010E945D316093C6017093C701EE
:104430008093C8019093C90180917B03482F50E07D
:1044400060E070E04C155D056E057F054CF4D7010A
:10445000C601841B950BA60BB70BAC01BD0117C0A1
:1044600090E0919581959109092E000CAA0BBB0B48
:10447000C816D906EA06FB063CF4B701A601481B9C
:10448000590B6A0B7B0B03C040E050E0BA0186E099
:104490000E94B516409108015091090160910A01EE
:1044A00070910B018DE00E94B51620E030E040E2F3
:1044B00051E4609104017091050180910601909191
:1044C00007010E9452330E941F31AB01BC018EE0F4
:1044D0000E94B5160E94CB066093EE017093EF0127
:1044E0008093F0019093F10110918C01112309F454
:1044F000E9C00E94A30D6FE00E94B00D0E945D31E3
:1045000020E030E04AE754E40E94AD3069837A83CA
:104510008B839C8320E030E040E251E40E945233E0
:104520000E941F31AB01BC0180E10E94B51615301D
:1045300028F01C3030F484EC99E005C080E090E075
:1045400002C088E592E0E090C401F090C501E80E59
:10455000F91E8EE00E947A06BC01990F880B990B18
:104560000E945D3120E030E040E85AE30E9452337F
:1045700020E030E44CE955E40E9452334B015C01E9
:10458000B70180E090E00E945B319B01AC01C50166
:10459000B4010E94C42F6B017C01E12FF0E0E15EC9
:1045A000FE4F608170E080E090E00E945D319B01F1
:1045B000AC01C701B6010E94AD306B017C01609374
:1045C000C0017093C1018093C2019093C30120E0A8
:1045D00030E040E251E40E9452330E941F31AB01AF
:1045E000BC0181E10E94B5162FEF3FEF4FE951E486
:1045F000C701B6010E94AD302091BC013091BD01D0
:104600004091BE015091BF010E94C52F6093BC0133
:104610007093BD018093BE019093BF010E941F3132
:10462000AB01BC0182E10E94B51680910301882391
:10463000A1F10E94CB060091B8011091B90120911F
:10464000BA013091BB01DC01CB01801B910BA20BA5
:10465000B30B81319742A105B105F8F020E030E0BD
:1046600040E050E4C701B6010E94A33018165CF088
:104670006CEB71E084E190E00E946B0DB10188E188
:1046800090E00E946B0D0E94CB066093B80170937E
:10469000B9018093BA019093BB0129813A814B8182
:1046A0005C816091C0017091C1018091C2019091C3
:1046B000C3010E9452330E941F31AB01BC0183E150
:1046C0000E94B5168091B701882379F060E186E0F9
:1046D0000E94B00D2AE030E040E050E00E9430350A
:1046E000BA01A90184E10E94B5168091B601882320
:1046F00079F061E187E00E94B00D2AE030E040E00F
:1047000050E00E943035BA01A90185E10E94B5163A
:104710008091B501882309F44EC084E10E947A0695
:10472000BC01990F880B990B0E945D319B01AC0174
:1047300060E070EC8FE794E40E94AD3020E030E060
:1047400040E85FE30E94C42F9B01AC0160E070E48D
:104750008CE196E40E94AD3020E030E44CE156E478
:104760000E94AD300E94D63220E030EE46E755E49C
:104770000E94AD302FE03FEC4BE55BE30E94C52F7C
:104780009B01AC0160E070E080E89FE30E94AD30E7
:1047900029E939EF47E853E40E94C42F20E030E0D4
:1047A00040E251E40E9452330E941F31AB01BC0130
:1047B00086E10E94B51680910101882309F408C69C
:1047C0008AEA93E00E945804892B09F4D8C28AEA45
:1047D00093E00E947A04182F80915304909154041E
:1047E000A0915504B09156040196A11DB11D80936E
:1047F000530490935404A0935504B0935604143278
:1048000009F4C3C2E0914D04153234F41A3071F04A
:104810001D3009F0C8C20AC01A3241F01C3209F03A
:10482000C2C280913A04812780933A04EF3008F0A5
:104830007EC1F0E0E45CFB4F108280913B04882352
:1048400009F477C120913C043FEB320F822F022EF6
:10485000000C990B363010F4C79707C0215626304C
:1048600018F48755910901C0C097282F2295207F01
:1048700030913D044FEB430F832F032E000C990B17
:10488000463010F4C79707C03156363018F48755B4
:10489000910901C0C097820F90913A04891334C1E5
:1048A00080915F0490916004A0916104B0916204D2
:1048B0000196A11DB11D80935F0490936004A093A5
:1048C0006104B093620480914E04882399F0809132
:1048D000570490915804A0915904B0915A0401963C
:1048E000A11DB11D8093570490935804A0935904BF
:1048F000B0935A0400914B04002309F46BC00130BB
:1049000009F0D2C08091DE039091DF03A091E00313
:10491000B091E1038093DA039093DB03A093DC036F
:10492000B093DD030E94CB066093E2037093E30330
:104930008093E4039093E5030093D9030093D80395
:104940008091EC039091ED03A091EE03B091EF0301
:104950008093E8039093E903A093EA03B093EB03F9
:104960000E94CB066093F0037093F1038093F203EF
:104970009093F3030093E7030093E60380914E04C2
:10498000882309F491C087E0E6ECF3E0A8EBB3E0FC
:1049900001900D928A95E1F787E0EDECF3E0AFEB43
:1049A000B3E001900D928A95E1F70E94CB066093E7
:1049B000D4037093D5038093D6039093D7030093C9
:1049C000B7030093B60384EF93E00E94AB0882E044
:1049D00094E068C08091EC039091ED03A091EE0308
:1049E000B091EF038093E8039093E903A093EA0367
:1049F000B093EB030E94CB066093F0037093F10336
:104A00008093F2039093F30301E00093E703009394
:104A1000E60380914E04882321F187E0E6ECF3E081
:104A2000A8EBB3E001900D928A95E1F787E0EDECF9
:104A3000F3E0AFEBB3E001900D928A95E1F70E94AD
:104A4000CB066093D4037093D5038093D6039093E1
:104A5000D7030093B7030093B60380E194E00E946C
:104A6000AB088091280490912904A0912A04B09168
:104A70002B048093240490932504A0932604B093E0
:104A800027040E94CB066093200470932104809336
:104A900022049093230481E080931F0480931E04DA
:104AA0008CE294E00E94AB08E0905104F090520434
:104AB00001E0E114F10409F451C1E0915104F091D5
:104AC000520466A177A1F70186A197A10E949738A9
:104AD000892B09F043C1B701C70140960E94A03855
:104AE0000E94CB06D70190966D937D938D939C93F6
:104AF000939795960C93959794960C9394979A9672
:104B0000ED90FC909B97D5CF80915B0490915C04D5
:104B1000A0915D04B0915E040196A11DB11D80932A
:104B20005B0490935C04A0935D04B0935E0480E00A
:104B300016C190914C04911149C06CE571E08CE371
:104B400094E00E949738892B41F062E671E08CE393
:104B500094E00E949738892B11F481E014C068E634
:104B600071E08CE394E00E949738892B41F06EE667
:104B700071E08CE394E00E949738892B19F410922D
:104B80004B0403C082E080934B0480914F049091CA
:104B900050049093520480935104E0905104F0909B
:104BA0005204E114F10419F2F701C6A0D7A06CE396
:104BB00074E0C6010E94973897FD02C00C940E2E37
:104BC000D7019A968D919C919B97E3CFE0914B04EE
:104BD000E23009F491C080913C04882309F48CC030
:104BE00020E2E29FF0011124E92B3197E932F1052F
:104BF00008F082C0EC5CFF4F0C944F358CE394E0DE
:104C00000E94310A6093EC037093ED038093EE03EE
:104C10009093EF0371C091E0813409F043C043C029
:104C200066EC73E009C091E0833509F090E0909361
:104C3000CC0362C06DEC73E08CE394E00E94A909A0
:104C40005BC091E0873509F090E09093D30354C0A6
:104C50008CE394E00E94310A6093FE037093FF039B
:104C6000809300049093010447C08CE394E00E9479
:104C7000310A60930C0470930D0480930E0490939A
:104C80000F043AC08CE394E00E94692F6093DE0326
:104C90007093DF038093E0039093E1032DC091E0D4
:104CA00081330CF490E090934E0426C08CE394E0A2
:104CB0000E94692F609328047093290480932A042A
:104CC00090932B0419C08CE394E00E94310A609306
:104CD00036047093370480933804909339040CC0E1
:104CE0008CE394E00E94310A60931A0470931B04D1
:104CF00080931C0490931D04E0905104F0905204A2
:104D0000E114F10409F413CFE0915104F09152043D
:104D100066A177A1F70186A197A10E949738892BF8
:104D200009F005CFD70198962D913C9199978091E4
:104D30004C0490E0821793070CF4F9CE281739073A
:104D400039F440E150E06CE374E0C7010E94A738F9
:104D5000D7019A96ED90FC909B97D2CF81E09091ED
:104D60004C049F5F90934C0410924D0491E01A32D2
:104D700009F090E090933B04882309F4B0C6809139
:104D8000B603882309F411C722C010924D04109273
:104D90004C0410923A0482E080934B0410923B043E
:104DA00010924E049CC6EE3040F481E08E0F80934A
:104DB0004D04F0E0E45CFB4F108380913B048111D3
:104DC0008EC680913A04182710933A0488C60E9430
:104DD000CB060091D4031091D5032091D6033091D6
:104DE000D703DC01CB01801B910BA20BB30B803DE1
:104DF0009740A105B10508F0D8C60E9467179B012E
:104E0000AC0160E081E00E94CE160E9438179B0141
:104E1000AC0161E082E00E94CE1610921104609114
:104E200016047091170480911804909119040E943F
:104E30005D3120E030E048EC52E40E94AD300E9449
:104E40001F316DA77EA78FA798AB6093CE0170939B
:104E5000CF018093D0019093D1018091E6018230FF
:104E600009F067C08091F503882309F462C01092AD
:104E7000F5036091FA037091FB038091FC0390911C
:104E8000FD030E945D3126E53EE04DEE5FE30E94AA
:104E9000523320E030E048EC52E40E94AD3026E688
:104EA00036E646E650E40E94AD306B017C0160932B
:104EB000E2017093E3018093E4019093E501209176
:104EC000B1013091B2014091B3015091B4010E94FF
:104ED000C42F6093DE017093DF018093E001909313
:104EE000E101C092B101D092B201E092B301F0921F
:104EF000B4010E94CB060091AD011091AE0120914A
:104F0000AF013091B0016B017C01C01AD10AE20AF5
:104F1000F30AC092CA01D092CB01E092CC01F09288
:104F2000CD016093AD017093AE018093AF0190937A
:104F3000B0011092F5036091FA037091FB03809128
:104F4000FC039091FD030E945D3126E53EE04DEEAD
:104F50005FE30E94523320E030E048EC52E40E94CC
:104F6000AD300E941F31AB01BC0183E00E94B51639
:104F700010920304609108047091090480910A045E
:104F800090910B040E945D3120E030E048EC52E447
:104F90000E94AD300E941F31AB01BC0189E00E942C
:104FA000B5168091AB019091AC01883B2BE0920744
:104FB0000CF49FC58091760381111CC08091DA01A9
:104FC0009091DB01A091DC01B091DD012DA53EA502
:104FD0004FA558A9281B390B4A0B5B0BAAE0B0E080
:104FE0000E9455356093D2017093D3018093D40110
:104FF0009093D5014090A3015090A4016090A50129
:105000007090A6014091A7015091A8016091A9015B
:105010007091AA0149AB5AAB6BAB7CAB0E943817BD
:105020009B01AC0160966FAF609761963FAF61974F
:1050300062964FAF629763965FAF63970E94671760
:1050400063015201E9A8FAA80BA91CA960962FAD2B
:10505000609761963FAD619762964FAD6297639698
:105060005FAD63970E94C2080E9426316DA37EA3A4
:105070008FA398A7509102015DAB5523C1F16091B8
:10508000D2017091D3018091D4019091D5012AE091
:1050900030E040E050E00E943035CA01B9010E9482
:1050A0005D316B017C016DA17EA18FA198A50E944D
:1050B0005B314B015C01A7019601C701B6010E945B
:1050C00052336B017C01A5019401C501B4010E941A
:1050D00052339B01AC01C701B6010E94C52F0E944B
:1050E0001D340E9426316DA37EA38FA398A70E9432
:1050F00038174B015C010E9467176B017C01A3010B
:105100009201C501B4010E94C42F25E33AEF4EE895
:105110005CE30E9452334B015C0125E33AEF4EE819
:105120005CE369A97AA98BA99CA90E9452332B013F
:105130003C0125E33AEF4EE85CE3C701B6010E946B
:1051400052336B017C01C501B4010E940F3469AF79
:105150007AAF8BAF9CAFC701B6010E94A83069AB94
:105160007AAB8BAB9CABC301B2010E940F3421968A
:105170006CAF7DAF8EAF9FAF2197C501B4010E9488
:10518000A8304B015C0129A93AA94BA95CA9219639
:105190006CAD7DAD8EAD9FAD21970E945233A501C0
:1051A00094010E9452334B015C01C301B2010E9481
:1051B000A8302B013C01C701B6010E940F349B01AE
:1051C000AC01C301B2010E945233A50194010E94B7
:1051D000C42F6B017C0129A93AA94BA95CA969AD2F
:1051E0007AAD8BAD9CAD0E945233A70196010E940F
:1051F00044306B017C0120E030E0A9010E94A33023
:1052000087FF0AC02BED3FE049EC50E4C701B6012F
:105210000E94C52F6B017C0121EE3EE245E652E47F
:10522000C701B6010E9452330E941F31AB01BC017D
:105230008AE00E94B516A0909B01B0909C01C0909E
:105240009D01D0909E0140909F015090A0016090E0
:10525000A1017090A2010E9438179B01AC016096D9
:105260006FAF609761963FAF619762964FAF62975D
:1052700063965FAF63970E94671783017201609620
:105280002FAD609761963FAD619762964FAD629783
:1052900063965FAD63970E94C2086B017C016DA9A4
:1052A0006623B1F18091970190919801A0919901A5
:1052B000B0919A012DA53EA54FA558A9281B390BE1
:1052C0004A0B5B0BCA01B9010E945D319B01AC0125
:1052D0000E9452334B015C01A7019601C701B60140
:1052E0000E9452339B01AC01C501B4010E94C52F3D
:1052F0000E941D346B017C014DA55EA56FA578A9A8
:1053000040939701509398016093990170939A018B
:105310006091930170919401809195019091960113
:105320000E945B31A70196010E94C52F0E94263181
:1053300060939301709394018093950190939601EB
:105340000E94671760939F017093A0018093A10151
:105350009093A2010E94381760939B0170939C0167
:1053600080939D0190939E0110921F04409124040C
:105370005091250460912604709127048BE00E94CF
:10538000B51610922D04409132045091330460916F
:105390003404709135048CE00E94B516609193013D
:1053A0007091940180919501909196012AE030E0EE
:1053B00040E050E00E940E35BA01A90188E00E9449
:1053C000B5164DA15EA16FA178A587E00E94B51624
:1053D0004091D2015091D3016091D4017091D501D7
:1053E00084E00E94B5164091CE015091CF016091AA
:1053F000D0017091D10185E00E94B5168091A90479
:105400009091AA04DC01ED91FC910480F581E02DDE
:105410000995082F811105C080910001882309F4A6
:10542000B1C20E94CB06C0908F01D0909001E09055
:105430009101F09092016C157D058E059F0508F491
:10544000A1C20E94CB06DC01CB0188539F4FAF4F16
:10545000BF4F80938F0190939001A0939101B093DF
:10546000920111E081E1F82E003E51F480918D010E
:1054700090918E018F3091050CF09BC101960BC06D
:10548000003771F480918D0190918E0118161906E4
:105490000CF08FC1019790938E0180938D0187C18D
:1054A000003D09F05AC0E0918D01F0918E013297D4
:1054B000E930F10508F07BC1E35AFF4F0C944F35FA
:1054C00080910101882309F472C1815096C08090B7
:1054D000770390907803A0907903B0907A0320E04E
:1054E00030E040E85FE3C501B4010E94A33087FFCC
:1054F0005EC120E030E048EC52E4C501B4010E94F6
:10550000523320E030E040E85FE30E94C52F9EC0A8
:1055100080917B03843608F04AC18F5FACC08091D4
:10552000ED01882309F443C181508093ED013FC10F
:105530008091E601882309F43AC18150ACC0809182
:105540008C01882309F433C18150AEC080910301DE
:10555000882309F42CC18150B0C0003B09F029C157
:10556000E0918D01F0918E013197EF30F10508F057
:105570001EC1EA59FF4F0C944F350E94D70DE090A1
:105580008C01EE2089F16091C4017091C501072E54
:10559000000C880B990B0E945D314B015C01EE2DD4
:1055A000F0E0E15EFE4F608170E080E090E00E94FC
:1055B0005D312091C0013091C1014091C2015091F3
:1055C000C3010E9452339B01AC01C501B4010E948A
:1055D000C52F0E941F316093C4017093C5016158AB
:1055E00084E090E00E949F0DE0E0F0E0099580915A
:1055F0000101823008F0DBC08F5F80930101D7C0CA
:1056000080910201812780930201D1C080907703AD
:1056100090907803A0907903B0907A0320E030E076
:10562000A901C501B4010E94C13218160CF0BFC017
:1056300020E030E048EC52E4C501B4010E9452334E
:1056400020E030E040E85FE30E94C42F20E030E03B
:1056500048EC52E40E94AD30609377037093780376
:105660008093790390937A03A2C080917B0388236F
:1056700009F49DC0815080937B0399C08091ED0116
:10568000811195C01093ED0192C08091E6018230A6
:1056900008F08DC08F5F8093E60189C080918C01F6
:1056A0008F3008F084C08F5F80938C0180C0809120
:1056B0000301823008F07BC08F5F8093030177C0C5
:1056C0008091B70181278093B70171C08091B601A5
:1056D00081278093B6016BC08091B50181278093AB
:1056E000B50165C06091010181E090E00E949F0DCD
:1056F0006091020182E090E00E949F0D60918C0118
:1057000083E090E00E949F0D6091030185E090E0AE
:105710000E949F0D6091B70186E090E00E949F0D6E
:105720006091B60187E090E00E949F0D6091B50105
:1057300088E090E00E949F0D20E030E048EC52E4C9
:1057400060917703709178038091790390917A0347
:105750000E9452330E941F318AE090E00E949F0D08
:1057600060917B038CE090E00E949F0D6091ED01C1
:105770008DE090E00E949F0D6091E6018EE090E048
:105780000E949F0DE0E0F0E00995C12CD12C6FEF55
:10579000C6010E949F0DFFEFCF1ADF0A22E3C21657
:1057A000D104A9F70E94D70DE0E0F0E0099510932D
:1057B000000180910001882309F4E4C01A8A19824B
:1057C00080918D0190918E01F89EB001F99E700D2F
:1057D000112468577C4F40E150E0CE0142960E9470
:1057E000902FE0918D01F0918E01EE30F10508F0DF
:1057F0009DC0EB58FF4F0C944F3540E150E067E7F8
:1058000073E091C060910101FAE06F9FB001112433
:10581000675A7C4F86C080910101882309F424CE09
:105820006091020124E0629FB00111246F5A7C4F05
:1058300078C06091760339E0639FB00111246C5DFC
:105840007C4F6FC080917603882309F40DCE20E051
:1058500030E048EC52E460917703709178038091D6
:10586000790390917A030E9452330E941F317F93F3
:105870006F9384E791E00BC080917603882309F44D
:10588000F3CD80917B031F928F938BE791E09F93E1
:105890008F933F922F920E94B6380F900F900F90E7
:1058A0000F900F900F9042C06091ED014AE0649F0D
:1058B000B001112434C06091E6015BE0659FB00146
:1058C000112461517D4F2DC060918C0180E1689F52
:1058D000B001112461517E4F24C080918C01882336
:1058E00009F4C2CD6091030199E0699FB0011124D0
:1058F0006C527E4F16C06091B701AAE06A9FB0015A
:1059000011240DC06091B601BAE06B9FB001112463
:1059100006C06091B501EAE06E9FB0011124605F9E
:105920007C4F40E150E0C1010E94902FDE01529671
:10593000EBECF4E080E020E29D91992321F08111CD
:1059400002C0908302C0208381E03196CBA0DCA00E
:10595000AC15BD0589F7D101EBEDF4E09E012F5E9A
:105960003F4F80E040E29D91992321F0811102C0D8
:10597000908302C0408381E03196A217B30799F764
:1059800010920001C0906304D0906404E09065041C
:10599000F090660426E9C20ED11CE11CF11C0E94A5
:1059A000CB066C157D058E059F0508F498C00E94F6
:1059B000CB066093630470936404809365049093B2
:1059C00066048091EC04882351F18091A9049091A0
:1059D000AA04DC01ED91FC910280F381E02D40E00E
:1059E0006EE709958091A9049091AA04DC01ED91DC
:1059F000FC910280F381E02D41E061E909958091FD
:105A0000A9049091AA04DC01ED91FC910280F3813C
:105A1000E02D41E061E309951092EC045EC0109125
:105A2000EB04112309F44BC0E12E012E000CFF08FA
:105A3000C7010E947838892B31F0C7010E947F3856
:105A4000182F00E001C001E08091A9049091AA0400
:105A5000DC01ED91FC910280F381E02D40E06EE7E6
:105A600009958091A9049091AA04DC01ED91FC9123
:105A70000280F381E02D41E062E009958091A90464
:105A80009091AA04DC01ED91FC910280F381E02D5C
:105A9000011102C062E201C063E241E00995809118
:105AA000A9049091AA04DC01ED91FC910280F3819C
:105AB000E02D41E0612F09951092EB040EC080911A
:105AC0007D0490917E04892B41F08091670491E0E0
:105AD000980F909367040E9425140E94DE1380E0C3
