:100000000C945D030C9485030C9485030C94850378
:100010000C9485030C9485030C9485030C94850340
:100020000C9485030C9485030C9485030C94850330
:100030000C9485030C9485030C9485030C94850320
:100040000C94AF0F0C9485030C941D0E0C94540E5D
:100050000C94A50E0C9485030C9485030C948503D5
:100060000C94EF0C0C948503971CAA1C9C1CB31CCD
:10007000CD1CE71CEE1CF71C001D0E1D151D1C1DC4
:10008000DF1B721C181C471C61204F1C571C5F1C77
:1000900068206E2074207A20C12008000000BE92E3
:1000A0002449123EABAAAA2ABECDCCCC4C3E0000BD
:1000B0000080BEABAAAAAA3E00000000BF0000005C
:1000C000803F0000000000084178D3BB4387D11374
:1000D0003D190E3CC3BD4282AD2B3E68EC8276BE1C
:1000E000D98FE1A93E4C80EFFFBE01C4FF7F3F00E6
:1000F0000000000007634236B79BD8A71A3968563C
:1001000018AEBAAB558C1D3CB7CC5763BD6DEDFD39
:10011000753EF6177231BF000000803F20537461B6
:100120007274757000204175746F00000000204DDE
:10013000616E75616C00002044697361626C656476
:1001400000000000000000204174746F50696C6F63
:1001500074203435000000204174746F50696C6F56
:1001600074203930000000204174746F50696C6F46
:10017000742031383000002041504D322E35203966
:1001800030412F35305600204143533731322D3026
:1001900035000000000000204143533731322D323A
:1001A00030000000000000204143533731322D332E
:1001B00030000000000000204143533735382D3512
:1001C00030420000000000204143533735382D31C4
:1001D00030304200000000204143533735382D3184
:1001E00035304200000000204143533735382D326E
:1001F00030304200000000204143533735382D3560
:1002000030550000000000204143533735382D3170
:1002100030305500000000204143533735382D3130
:1002200035305500000000204143533735382D321A
:10023000303055000000002044697361626C6564D1
:10024000000020416972207370656564002047508A
:1002500053000000000000002044697361626C6577
:10026000640020456E61626C6564000020756E6BF1
:100270006E6F776E0020424D5032383000002042C1
:100280004D453238300000204D53353631310000B5
:10029000204C5053000000000056657273696F6E69
:1002A0002056322E332E32000000566172696F479D
:1002B00050532053656E736F7200005265736574FE
:1002C000206F6666736574000000000050726573ED
:1002D000737572652073656E736F723A0056617242
:1002E000696F20736D6F6F7468696E673A0056614D
:1002F00072696F20646561647A6F6E653A000041CF
:1003000069722073706565643A00000000000000A7
:10031000544543206D6F64653A0000000000000002
:10032000004D61696E2064726976653A00000000D4
:10033000000043617061636974792072657365744C
:100340003A000052783120766F6C746167653A002C
:100350000000000052783220766F6C746167653A55
:1003600000000000004578742E2054656D703A003E
:100370000000000000005361766520616E64207209
:10038000657374617274004C6F61642064656661AA
:10039000756C74730000000000000000240027004A
:1003A0002A00014C617469747564650000000000E6
:1003B0000000000000000020000000000000090014
:1003C000024C6F6E67697475646500000000000080
:1003D00000000000002000000000000009000347AA
:1003E0005053207370656564000000000000000039
:1003F0000000006B6D2F6800000001000452656C66
:100400002E20416C746974000000000000000000A0
:10041000006D0000000000000401054162732E2001
:10042000416C746974000000000000000000006D61
:10043000000000000000040006566172696F0000B1
:10044000000000000000000000000000006D2F739D
:100450000000000004020744697374616E63650064
:1004600000000000000000000000006D000000001F
:1004700000000400085472697000000000000000D1
:100480000000000000000000006B6D000000000094
:10049000040209417A696D7574680000000000006B
:1004A00000000000000000B000000000000001009B
:1004B0000A436F75727365000000000000000000C1
:1004C0000000000000B000000000000001000B531D
:1004D0006174656C6C697465730000000000000055
:1004E0000000002000000000000000000C48444F05
:1004F00050000000000000000000000000000000AC
:10050000002000000000000001020D41697220700F
:10051000726573732E000000000000000000006888
:1005200050610000000004020E54656D702E000042
:1005300000000000000000000000000000B04300C8
:100540000000000001010F48756D6964697479004D
:1005500000000000000000000000002572480000BC
:100560000000010110566F6C7461676500000000A7
:100570000000000000000000005600000000000025
:1005800001011143757272656E7400000000000075
:100590000000000000000041000000000000010118
:1005A000124361706163697479000000000000000B
:1005B00000000000006D41680000000004001350BE
:1005C0006F7765720000000000000000000000006E
:1005D00000000057000000000000040014527831B1
:1005E00020566F6C74616765000000000000000019
:1005F000005600000000000001021552783220561B
:100600006F6C746167650000000000000000005618
:100610000000000000000102164578742E20546589
:100620006D700000000000000000000000B04300FA
:100630000000000001011741697220737065656454
:1006400000000000000000000000006B6D2F68003B
:100650000000010000000000000000000000000099
:10066000000000000000000000000000000000008A
:10067000000000000000250028002B0004040404F2
:10068000040404040202020202020303030303033C
:100690000102040810204080010204081020010219
:1006A00004081020000000080002010000030407F5
:1006B0000000000000000000D42011241FBECFEF76
:1006C000D8E0DEBFCDBF11E0A0E0B1E0E8EDF7E596
:1006D00002C005900D92A437B107D9F723E0A4E733
:1006E000B1E001C01D92AE3BB207E1F713E0CDE5EA
:1006F000D3E004C02197FE010E94DD25CC35D1074F
:10070000C9F70E94F90F0C94EA2B0C940000909109
:1007100026029111FCCF91E090932602909325023E
:100720002FEF2093240210922302260F20932202FF
:100730009093010290910102880F892B809301020E
:1007400080910002813061F41092000280910102D8
:100750008093BB008091BC0083FDF8CF85EC01C085
:1007600085EE8093BC00809126028130E1F3809178
:100770002302861710F460912302A2E0B2E0E0EEBB
:10078000F1E080E0861721F09D9191938F5FFACF81
:10079000089590E0FC01EC55F94F2491FC01E057DD
:1007A000F94F3491FC01E458F94FE491EE23B1F193
:1007B000222339F1233091F038F42130A9F022308E
:1007C00001F584B58F7D12C0273091F02830A1F05B
:1007D0002430B9F4809180008F7D03C08091800027
:1007E0008F77809380000DC084B58F7784BD09C05A
:1007F0008091B0008F7703C08091B0008F7D80938F
:10080000B000F0E0EE0FFF1FEE58F94FA591B49144
:100810008FB7F894EC91E32BEC938FBF089561327E
:1008200008F060E20E9487031092DF018093DE01EE
:10083000089530914902313208F04BC08091260270
:100840008111FCCF90916B0322E02093260221E0DE
:10085000209325022FEF209324021092230230933D
:100860002202E9E2F2E0A2E0B2E020E0321721F059
:1008700041914D932F5FFACF109201022091010216
:10088000990F922B9093010290910002913061F4A4
:1008900010920002909101029093BB009091BC00D5
:1008A00093FDF8CF95EC01C095EE9093BC0090912C
:1008B00026029230E1F3909124029F3F79F08091DB
:1008C0002402803241F080912402803331F084E0B0
:1008D00005C081E003C082E001C083E010922802DD
:1008E0001092490210922702089591E090932702F6
:1008F00080936B0310922802109249020895CF93BF
:10090000DF93D82FC62F80915C020E9475046D2F53
:100910008AE492E00E94FB0B6C2F8AE492E00E9432
:10092000FB0BDF91CF910C9419041F93CF93DF93AE
:10093000182FCCE5D2E088810E947504612F8AE4EB
:1009400092E00E94FB0B0E94190461E088810E94E2
:100950000F048AE492E00E94B20BDF91CF911F91C5
:1009600008958F929F92AF92BF92CF92DF92EF92B3
:10097000FF92CF93DF93F82ECCE5D2E088810E94DE
:1009800075046F2D8AE492E00E94FB0B0E9419040B
:1009900063E088810E940F048AE492E00E94B20B17
:1009A0004C01990FAA08BB08BA2CA92C982C8824B2
:1009B0008AE492E00E94B20B6C01990FEE08FF08E6
:1009C000C828D928EA28FB28FE2CED2CDC2CCC24C6
:1009D0008AE492E00E94B20B092E000CAA0BBB0B1A
:1009E000BC01CD016C297D298E299F29DF91CF91F2
:1009F000FF90EF90DF90CF90BF90AF909F908F903F
:100A000008951F93CF93DF93182FCCE5D2E0888110
:100A10000E947504612F8AE492E00E94FB0B0E9401
:100A2000190462E088810E940F048AE492E00E9427
:100A3000B20BC82F8AE492E00E94B20B20E030E0B3
:100A40003C2F822B932BDF91CF911F9108950E9411
:100A5000010598278927982708951092DF011092A1
:100A6000DE0110922802109249021092260281E0C3
:100A7000809325021092000282E10E94C90383E163
:100A80000E94C903E9EBF0E080818E7F8083808142
:100A90008D7F808388E48093B80085E48093BC00D8
:100AA00080EA9BE09093DD018093DC0181EA9BE08A
:100AB0009093DB018093DA0108958F929F92AF9219
:100AC000BF92CF92DF92EF92FF920F931F938AEF24
:100AD0000E94B104ECE5F2E00285138520E030E0ED
:100AE000C72ED82EE92EFF24E7FCFA94C01AD10AAB
:100AF000E20AF30ADC01CB0157E0B595A79597957B
:100B000087955A95D1F7000F111F221F331F4C01F3
:100B10005D01801A910AA20AB30AA5019401A48575
:100B2000B5850E94EE254B015C017BE0B594A7944E
:100B3000979487947A95D1F7A7019601C701B601DA
:100B40000E94AE259B01AC01ACE0559547953795C9
:100B50002795AA95D1F7A685B7850E94EE25DC01D9
:100B6000CB011EE0B595A795979587951A95D1F776
:100B7000A5019401280F391F4A1F5B1F2683378365
:100B800040875187A5E0B0E00E94E325DC01CB015E
:100B900080589F4FAF4FBF4F692F7A2F8B2F9927C8
:100BA00087FD9A950E946C2220E030E048EC52E4E8
:100BB0000E94BC211F910F91FF90EF90DF90CF908A
:100BC000BF90AF909F908F9008952F923F924F9239
:100BD0005F926F927F928F929F92AF92BF92CF92CD
:100BE000DF92EF92FF920F931F93CF93DF93CDB7D6
:100BF000DEB76B970FB6F894DEBF0FBECDBF0E9475
:100C00005D0587EF0E94B1046E8B7F8B888F998F73
:100C10008091620290916302A0916402B09165029A
:100C20006C017D01FF0CCC08DC2C76019C01AD0130
:100C30006C2D7C2D8C2D9C2D345F41405109610918
:100C400071098109910929873A874B87652E762E8C
:100C5000872E982E9B8F5901C42ED52EE62EF72E67
:100C6000082F192F0E94F625322E232E488B598BE0
:100C70006A8B7B8B8C8B9D8B30916F0220916E02E7
:100C8000932F990F990B492F592F692F792F892F5E
:100C90000E94F6250CE00E94602729833C874A8F3A
:100CA0005D876E877F87582E492E30917102209183
:100CB0007002932F990F990BA32CB22CC888D98856
:100CC000EA88FB880C891D89492F592F692F792FB4
:100CD000892F0E94F62508E00E947927A980BC840C
:100CE000CA8CDD84EE84FF84052D142D0E94972785
:100CF00070588F4F9F4FE0916C02F0916D025F0131
:100D0000C12CD12CE12CF12C8701E983BA82CB8252
:100D1000DC82ED82FE820F831887C12CD12CE12C5E
:100D2000F12C00E010E00E94F62501E20E947927F4
:100D30002A8F532E49835C876D877E878F87492E44
:100D4000A0E00E94B52709F41EC1309177022091DE
:100D50007602932F990F990BA32CB22CC888D988AF
:100D6000EA88FB880C891D89492F592F692F792F13
:100D7000892F0E94F6251901488B598B6A8B7B8B32
:100D80008C8B9D8B3091750220917402932F990F5B
:100D9000990BA984BA84CB84D62CE72CF82C092D86
:100DA0001B8D492F592F692F792F892F0E94F625E6
:100DB00001E10E9460275101C888D988EA88FB8830
:100DC0000C891D890E94972759016A017B01382EE1
:100DD000192F4E895F89688D798D84E075956795A7
:100DE000579547958A95D1F780E090E0A0E1B0E073
:100DF000841B950BA60BB70B3C014D01990C6608A3
:100E0000762C43019C01AD01662D762D862D962D05
:100E10000FE10E946027722E832E942E5987B62FE1
:100E2000A72FF82FE92F3091730220917202932F90
:100E3000990F990B492F592F692F792F892F03E289
:100E40000E946027032D0E94972759016A017B01A8
:100E50008C01272D382D492D59856B2F7A2F8F2FF7
:100E60009E2F0E94AC27E5E3AE2EFCE0BF2EC12CE6
:100E7000D12CE12CF12C00E010E00E94F625AA8C88
:100E8000B52CC980DC84ED84FE840F85142D0E946E
:100E90008B262F873E8749875A876B8779838C8774
:100EA0009D870DE00E947927922E832E742E652E49
:100EB000562E472E382E292E30917D0220917C020D
:100EC000932F990F990BA92CB82CC72CD62CE52C55
:100ED000F42C032D122D492F592F692F792F892F8B
:100EE0000E94F6250E94F62509E10E947927AF8429
:100EF000BE84C984DA84EB84F9800C851D850E9448
:100F0000972719012A013B014C0130917B02209166
:100F10007A02932F990F990B492F592F692F792F07
:100F2000892F0E94F62503E10E94792759016A0161
:100F30007B018C019101A201B301C4010E9497279A
:100F400008E00E94792759016A017B01E82F192FD7
:100F50003091790220917802932F990F990B492FA4
:100F6000592F692F792F892F04E00E9460270E2FB7
:100F70000E9497270E94642220E030E040E85BE373
:100F80000E94BF2303C060E070E0CB016B960FB6F8
:100F9000F894DEBF0FBECDBFDF91CF911F910F91AF
:100FA000FF90EF90DF90CF90BF90AF909F908F9089
:100FB0007F906F905F904F903F902F900895DF92B9
:100FC000EF92FF920F931F93CF93DF93CDB7DEB7CE
:100FD0006E970FB6F894DEBF0FBECDBF8C01DC015B
:100FE0005A961C921E92599782EA93E056969C93C9
:100FF0008E935597F8017D9680E2DF011D928A95C8
:10100000E9F7D12CE12CF12CF801658976896E0D78
:101010007F1D4EE150E0CE0101960E942B21898177
:101020008823C9F0803220F4F801E80FF11DD58E35
:10103000D80159968D919C915A9701965A969C93F6
:101040008E935997BEE1EB0EF11CD394E0ECEE16B3
:10105000E3E0FE06C9F66E960FB6F894DEBF0FBE4B
:10106000CDBFDF91CF911F910F91FF90EF90DF9057
:101070000895CF93C82F8091A3029091A402892B49
:1010800021F48AE892E00E94DF07C032D0F4EC2F0E
:10109000F0E0E657FD4F858DE82FF0E093E0F59501
:1010A000E7959A95E1F7E657FD4F282F277081E0E5
:1010B00090E001C0880F2A95EAF7809595AD8923C5
:1010C00085AF1092A6021092A502CF9108958132A9
:1010D00008F080E2682F87E70E9487031092DF0103
:1010E0008093DE010895862740E1849F90011124BA
:1010F0002827622F70E0562F4427292F30E0242B19
:10110000352BCB0144E0959587954A95E1F7282743
:101110003927CB0153E0880F991F5A95E1F78227B1
:1011200093270895EF92FF920F931F93CF93DF932E
:10113000CDB7DEB76E970FB6F894DEBF0FBECDBF4A
:10114000FC0112828FEF9FEFDC0183839483A583E0
:10115000B68381E08783148E158E168E178E10A2AB
:10116000DB0193E0B595A7959A95E1F7A657BD4F9A
:10117000DD968C9190E09B012770332702C09595F6
:1011800087952A95E2F7817099278783892B09F43F
:101190007FC07B018F012EE1269FC001279F900D0C
:1011A000112460919F027091A002680F791F4EE197
:1011B00050E0CE0101960E942B218D8DF801868F83
:1011C00089818283B701660F771F660F771FE091D1
:1011D000A102F091A202E60FF71F80819181A28106
:1011E000B381F80183839483A583B683A801485F04
:1011F0005F4FDE011296FA0130E08D91882329F0CD
:10120000333129F03F5F8193F8CF832F01C083E111
:10121000F801848F20E0732F720FE6E1F0E0EC0F0D
:10122000FD1FE20FF11D6081872F90E0662341F0E2
:10123000733130F42F5FFA01E80FF91F6083EBCFB1
:10124000F801258FFA01E80FF91F10828E8D813089
:1012500021F0823029F480E401C080E2F801878F18
:10126000F801868D843091F030F4882361F081306C
:1012700079F483E00BC0883041F0893031F085305B
:1012800039F484E003C082E001C085E0F80180A366
:101290006E960FB6F894DEBF0FBECDBFDF91CF9133
:1012A0001F910F91FF90EF9008952091A10230912E
:1012B000A2022115310589F0803278F4E82FF0E0A0
:1012C000E657FD4F858DF90194E0899FE00DF11DF2
:1012D0001124408351836283738308951F93CF93B6
:1012E000DF9387E70E94750460E08AE492E00E9441
:1012F000FB0B0E94190487E70E94750483E090E0CD
:101300000E9467089091DE018091DF019817F1F348
:101310008AE492E00E94B20B182F8AE492E00E94C5
:10132000B20BC82F8AE492E00E94B20BD82F0E9421
:1013300019048C2F90E0A0E0B0E0BA2FA92F982FCD
:101340008827A12BBC01CD016D2BDF91CF911F917F
:101350000895CF93DF9390E0FC01E057F94F24917B
:10136000FC01E458F94F84918823C1F090E0880F84
:10137000991FFC01E856FC4FC591D491FC01EE5831
:10138000F94FA591B4919FB7F8948881322F309589
:1013900083238883EC91E22BEC939FBFDF91CF9165
:1013A00008958E3008F08E508770806480937C00A2
:1013B00080917A00806480937A0080917A0086FD23
:1013C000FCCF809178002091790090E0922B0895D5
:1013D0008F929F92AF92BF92CF92DF92EF92FF9245
:1013E0006B017C010E947E0F4B015C01C114D10492
:1013F000E104F104F1F00E947E0FDC01CB018819B9
:101400009909AA09BB09883E9340A105B10570F36B
:1014100021E0C21AD108E108F10888EE880E83E0C5
:10142000981EA11CB11CC114D104E104F10419F7E8
:10143000DDCFFF90EF90DF90CF90BF90AF909F9067
:101440008F900895CF9366EB80EE0E947F0464E650
:1014500070E080E090E00E94E80988E80E9427059B
:1014600090936702809366028AE80E942705909312
:101470006902809368028CE80E94270590936B02B2
:1014800080936A028EE80E94270590936D028093F4
:101490006C0280E90E94270590936F0280936E0290
:1014A00082E90E942705909371028093700284E97B
:1014B0000E942705909373028093720286E90E942E
:1014C0002705909375028093740288E90E9427058E
:1014D00090937702809376028AE90E942705909381
:1014E0007902809378028CE90E94270590937B0211
:1014F00080937A028EE90E94270590937D02809363
:101500007C0280915D028230F1F581EA0E949504AF
:1015100080937E0281EE0E94270590938002809343
:101520007F0283EE0E9495048093810284EE0E94E4
:101530009504C82F85EE0E94950440E1C49F900158
:1015400011248F70282B309383022093820286EE21
:101550000E949504C82F85EE0E94950490E1C99FD2
:101560009001112490E044E0959587954A95E1F724
:10157000822B932B909385028093840287EE0E94A6
:1015800095048093860289ED809388028091890278
:101590008F7180628093890280918702807C806253
:1015A0008093870280915D02823021F461E082EFB6
:1015B0000E947F0490918702692F677040E2649FC8
:1015C00090011124892F869586958695877048E02D
:1015D000849FB0011124622B732B97FB992790F9FC
:1015E000692B85EF0E947F0490918802692F6770B4
:1015F00080E2689F90011124892F869586958695B3
:10160000877048E0849FB0011124622B732B929560
:10161000969596959370692B84EFCF910C947F04E7
:1016200080935C020E942D0580ED0E949504883510
:1016300021F0803641F482E001C081E080935D02B8
:101640000E94220A02C010925D0280915D0290E029
:101650000895CF93DF9387E70E947504C8EBD1E02C
:101660006D8570E0605B7F4F8AE492E00E94FB0B27
:101670000E9419046C8570E080E090E00E94E80907
:10168000DF91CF910C946E09CF92DF92EF92FF928F
:101690000F931F93CF93DF936C017A018B01C0E00E
:1016A000D0E0CE15DF0581F0D8016D918D01D60116
:1016B000ED91FC910190F081E02DC6010995892BF7
:1016C00011F02196EECF7E01C701DF91CF911F91DE
:1016D0000F91FF90EF90DF90CF90089585ED80936C
:1016E000BC008091BC0084FDFCCF109226020895BE
:1016F00040918E03262F30E0240F311D2132310519
:10170000DCF4209126022430C9F4FC0180E090E052
:10171000861758F430918E032191DC01A259BC4FF9
:10172000A30FB11D2C930196F3CF80918E03680F08
:1017300060938E0380E0089581E0089582E008952B
:10174000089508950895E091DF018091DE01E81782
:1017500030F4F0E0E052FE4F808190E008958FEF8A
:101760009FEF08959091DF018091DE01981750F46A
:10177000E92FF0E0E052FE4F208130E09F5F909330
:10178000DF0102C02FEF3FEFC90108958091DE0114
:1017900090E02091DF01821B91090895CF92DF92A2
:1017A000EF92FF920F931F93CF93DF937C01CB01B6
:1017B0008A0120912702222389F0EB016B01C40EDC
:1017C000D51ECC15DD0569F06991D701ED91FC912D
:1017D0000190F081E02DC7010995F3CF642F0E949D
:1017E000780BC801DF91CF911F910F91FF90EF907F
:1017F000DF90CF900895CF93DF931F92CDB7DEB7E0
:101800006983209127022223D1F0209149022032BE
:1018100040F021E030E0FC013383228380E090E05F
:1018200015C080912802E82FF0E0E75DFD4F998117
:1018300090838F5F809328028093490205C061E006
:10184000CE0101960E94780B81E090E00F90DF912D
:10185000CF910895089580E090E00895CF92DF92AF
:10186000EF92FF920F931F93CF93DF939C01EA01B6
:10187000F89450E06C0186E4C80ED11CF901EE5BCF
:10188000FF4F89010E5F1F4F852F90E08C179D073A
:10189000F8F4D6014C914034E0F4E080F180860FFA
:1018A000971FDC018C91D7018C93D6018C918F5FAF
:1018B0008C938081918101968E179F0718F0402F9D
:1018C000812F02C0482F892F408381835F5FDCCF47
:1018D000CE01F901E457FF4F2081211108C021E01A
:1018E00020832091C1002F7628622093C100789434
:1018F000DF91CF911F910F91FF90EF90DF90CF90EC
:101900000895FC01E557FF4F2081222309F1F89447
:10191000A0916C03B0916D03A757BF4F0D90BC9180
:10192000A02D4C912081215020833297208131813C
:101930002F5F3F4FBC0169577F4F2617370718F0BD
:10194000895B9F4F01C0C90191838083789401C056
:1019500040E0842F90E0089585579F4FFC0120813F
:1019600081E090E0211102C080E090E008950E94A3
:101970001329CF93DF93EC011092C00080E980938C
:10198000C10086E08093C2001092C50087E080937A
:10199000C40080E00E94A90981E00E94A909CE014B
:1019A0000296FE01EE5BFF4F918380833296918316
:1019B0008083329610828B5B9F4FEF5BFF4F91834A
:1019C0008083329691838083329610823196108282
:1019D000D0936D03C0936C03DF91CF9108951F9254
:1019E0000F920FB60F9211242F933F934F935F9353
:1019F0006F937F938F939F93AF93BF93EF93FF93D7
:101A00008091B900887F803609F49CC068F58832DF
:101A100009F45BC090F4803109F454C038F4882391
:101A200009F4F6C0883009F44DC0F6C0883109F4D5
:101A30004CC0803209F45DC0EFC0803409F468C046
:101A400048F4803309F455C0883309F0E5C0809329
:101A50002402D8C0803509F44FC0883509F45DC030
:101A6000883409F0D9C0D6C0883909F4C7C0A8F4B1
:101A7000883709F467C038F4883609F463C08037C2
:101A800009F460C0C9C0883809F4B8C0803909F4C5
:101A90005FC0803809F0C0C05BC0803B09F486C0DD
:101AA00038F4803A09F466C0883A09F47FC0B4C0BB
:101AB000803C09F4A7C0883C09F4A4C0883B09F421
:101AC0008AC0AAC08091010210C090912302809127
:101AD0002202981770F5E091230281E08E0F809327
:101AE0002302F0E0EE5FFD4F80818093BB0085EC28
:101AF00086C0809324028EC0E091230281E08E0F85
:101B0000809323028091BB00F0E0EE5FFD4F808365
:101B100090912302809122026EC0E091230281E025
:101B20008E0F809323028091BB00F0E0EE5FFD4FAB
:101B300080838091250281116DC081E08093000235
:101B400084EA61C083E0809326021092B003CFCF75
:101B50008091B003803208F051C0E091B00381E081
:101B60008E0F8093B0038091BB00F0E0E057FC4FF4
:101B70008083BDCF85EC8093BC00109226028091BB
:101B8000B003803230F4E091B003F0E0E057FC4F56
:101B900010826091B00370E0E091DA01F091DB0116
:101BA00080E993E009951092B00336C084E08093F9
:101BB000260210928F0310928E03E091DC01F091C7
:101BC000DD01099580918E03811105C081E080932C
:101BD0008E0310926E03E0918F0381E08E0F80934D
:101BE0008F03F0E0E259FC4F80818093BB0090911D
:101BF0008F0380918E03981708F479CF85E880933E
:101C0000BC000AC085EC8093BC001092260204C080
:101C1000109224020E946E0BFF91EF91BF91AF9141
:101C20009F918F917F916F915F914F913F912F91F4
:101C30000F900FBE0F901F9018951F920F920FB626
:101C40000F9211242F933F938F939F93AF93BF9342
:101C5000EF93FF9320916C0330916D03F901E957E5
:101C6000FF4FA081B1818091C6008C93D901A55707
:101C7000BF4F8C918F5F8C938081918101968E17DD
:101C80009F0718F0C901895B9F4F91838083FF9163
:101C9000EF91BF91AF919F918F913F912F910F90B5
:101CA0000FBE0F901F9018951F920F920FB60F92B4
:101CB00011242F933F934F935F938F939F93EF93B1
:101CC000FF9380916C0390916D03FC01EA5BFF4FE1
:101CD0002081222301F132970190F081E02D808153
:101CE0008093C60020916C0330916D03F901EA5B8B
:101CF000FF4F80818150808332978081918101964E
:101D0000A9014E5B5F4F8417950710F0C901029639
:101D1000918380830DC08091C1008F7D806480930A
:101D2000C100E0916C03F0916D03E457FF4F108206
:101D3000FF91EF919F918F915F914F913F912F91E3
:101D40000F900FBE0F901F9018951F920F920FB615
:101D50000F9211242F933F938F939F93EF93FF93B1
:101D6000E1ECF0E08081877B8069808380916C0367
:101D700090916D039C01295B3F4FFC01E957FF4F98
:101D80003183208332963183208332961082FF91F3
:101D9000EF919F918F913F912F910F900FBE0F90D8
:101DA0001F901895CF92DF92EF92FF920F931F939F
:101DB000CF93DF93EB017B0124E0E20EF11C8B015A
:101DC0006C01C61AD70AC601800F911F0E943421E8
:101DD000F80181938F01EE15FF05A9F7CE01DF9180
:101DE000CF911F910F91FF90EF90DF90CF900895CA
:101DF000AF92BF92DF92EF92FF920F931F93CF9318
:101E0000DF93EC017B018B015C0184E0A80EB11C27
:101E1000F801D1908F01CE010E943421D81621F013
:101E20006D2DCE010E943C212196CA15DB0581F75C
:101E3000C701DF91CF911F910F91FF90EF90DF903D
:101E4000BF90AF9008950C943C210C943421809164
:101E50007401853010F4815008958550833010F05E
:101E600085E0089584E00895CF93C82F862F0E94BF
:101E7000D109BC01990F880B990B0E946C2220E0BC
:101E800030E040E85AE30E94BF2320E030E44CE910
:101E900055E40E94BF2324E0C29FF0011124E35CBB
:101EA000FE4F20813181428153810E94BF230E94D5
:101EB0002E22CF910895CF93DF9300D000D0CDB7DD
:101EC000DEB719821A821B821C82BE016F5F7F4FB0
:101ED00084E190E00E94F80E19821A821B821C8213
:101EE000BE016F5F7F4F88E190E00E94F80E0F9077
:101EF0000F900F900F90DF91CF9108953FB7F89416
:101F00008091B6039091B703A091B803B091B90343
:101F100026B5A89B05C02F3F19F00196A11DB11D44
:101F20003FBFBA2FA92F982F8827820F911DA11D7F
:101F3000B11DBC01CD0142E0660F771F881F991FBC
:101F40004A95D1F708952FB7F8946091B203709134
:101F5000B3038091B4039091B5032FBF08951F92EE
:101F60000F920FB60F9211242F933F938F939F934D
:101F7000AF93BF938091B2039091B303A091B40348
:101F8000B091B5033091B10323E0230F2D3720F436
:101F90000196A11DB11D05C026E8230F0296A11DC3
:101FA000B11D2093B1038093B2039093B303A09328
:101FB000B403B093B5038091B6039091B703A09199
:101FC000B803B091B9030196A11DB11D8093B6036A
:101FD0009093B703A093B803B093B903BF91AF91A7
:101FE0009F918F913F912F910F900FBE0F901F9057
:101FF0001895CF93DF93CDB7DEB7C655D1090FB68D
:10200000F894DEBF0FBECDBF789484B5826084BDE6
:1020100084B5816084BD85B5826085BD85B58160EC
:1020200085BD80916E00816080936E00109281006A
:102030008091810082608093810080918100816025
:1020400080938100809180008160809380008091E6
:10205000B10084608093B1008091B0008160809372
:10206000B00080917A00846080937A0080917A0039
:10207000826080937A0080917A00816080937A00F8
:1020800080917A00806880937A001092C10086E780
:102090000E94100B80935602811105C087E70E94B1
:1020A000100B8093560280915602811155C087E72C
:1020B0000E9475040E94190481114EC00E942D05D2
:1020C00087E70E9475046EE18AE492E00E94FB0BB0
:1020D0000E9419048AE08093C40188E08093C501BE
:1020E00064E670E080E090E00E94E80968EBC62EAC
:1020F00061E0D62E12EA87E70E947504612F8AE418
:1021000092E00E94FB0B0E94190487E70E9475046D
:1021100082E090E00E9467089091DE018091DF01EB
:102120009817F1F38AE492E00E94B20BB82E8AE489
:1021300092E00E94B20B082F0E941904FB2CE12CA4
:10214000C701802BD6018D939D936D011E5F1E3AB2
:1021500091F683E080935602809156028230B9F066
:1021600018F48130A1F02FC08330F9F0843059F594
:102170008DEC9CECACE4BFE3809357029093580243
:10218000A0935902B0935A0210925B021CC08AE9D4
:1021900099E9A9E5BFE38093570290935802A09371
:1021A0005902B0935A0285E00CC04DEC5CEC6CE433
:1021B0007FE3409357025093580260935902709303
:1021C0005A0280935B0283E090E00E94250F8F3FCC
:1021D00011F08093740184E090E00E94250F8F3FFE
:1021E00039F090E08F57910990938B0180938A0189
:1021F00085E090E00E94250F8F3F11F08093010150
:1022000086E090E00E94250F8F3F31F091E0811130
:1022100001C090E090937D0187E090E00E94250F3F
:102220008F3F31F091E0811101C090E090937C01EB
:1022300088E090E00E94250F8F3F31F091E08111FE
:1022400001C090E090937B018AE090E00E94250F0E
:102250008F3FA1F0682F70E080E090E00E946A223A
:1022600020E030E048EC52E40E94BC216093570229
:10227000709358028093590290935A028CE090E038
:102280000E94250F8F3F11F080935B028DE090E05C
:102290000E94250F8F3F11F08093B3018EE090E0F4
:1022A0000E94250F8F3F11F08093AC018091B30104
:1022B000882339F085E10E94D1099093B20180937F
:1022C000B10180915602811103C086E00E94390855
:1022D00080915602823019F08FE00E943908809177
:1022E0005602811106C08DE00E9439088EE00E94DE
:1022F000390881E00E94390882E00E94390883E0B1
:102300000E94390880915602811106C084E00E9423
:10231000390885E00E94390887E00E94390888E082
:102320000E94390889E00E9439088AE00E94390831
:102330008BE00E9439088CE00E9439088091B3013B
:10234000811103C087E10E943908809174018111D5
:102350000DC080E10E94390881E10E94390882E1C4
:102360000E94390883E10E94390840C010910101A0
:102370001123E1F162E871E084E190E00E94D20E65
:102380001130A1F50E94270F6FE00E94340F6B01FE
:102390007C01BE016F5F7F4F88E190E00E94D20E0A
:1023A000C701B6010E946C2220E030E04AE754E405
:1023B0000E94BC216B017C012CE53FE842E85FE311
:1023C00069817A818B819C810E94BF239B01AC0132
:1023D000C701B6010E946A2387FD08C010928201DE
:1023E00010928301109284011092850180917D01E9
:1023F000811103C084E10E94390880917C01811120
:1024000003C085E10E94390880917B01811103C0DE
:1024100086E10E94390886E78093CB0282E38093AD
:10242000CC0240E250E060E270E08AE493E00E9477
:10243000212980919E0281113FC043E150E06DE56A
:1024400071E08AE892E00E94282988E080939E0249
:102450008091A3029091A402892B21F48AE892E052
:102460000E94DF070091A3021091A402013CBFE18A
:102470001B0730F4C801880F991F880F991F02C0ED
:102480008FEF9FEF0E94F227FC0120E030E04FEF3A
:102490005FEFBA010217130739F04193519361932B
:1024A00071932F5F3F4FF6CF8093A1029093A202CA
:1024B0001092A6021092A5028DE890E00E94F227E9
:1024C0002DE8FC0111922A95E9F724E131E0DC01C5
:1024D0002D933C939093CE028093CD0206E010E0C2
:1024E00020E030E048E458EE61E070E00E94B90C72
:1024F0001092D1021092D0021092D2021092D30206
:102500001092D4021092D5021092D6021092CF02ED
:102510000E94A30F0091B4011091B5012091B60162
:102520003091B701DC01CB01801B910BA20BB30BE7
:10253000853B9105A105B10510F40C941A1B8091FF
:10254000B301882309F4B4C085E10E94D1095C017C
:102550000091B1011091B2016091060170910701E3
:1025600080910801909109010E946C226B017C010D
:10257000B501A016B1060CF4B801601B710B072E53
:10258000000C880B990B0E946C2220E030E040E8A0
:102590005AE30E94BF2320E030E44CE955E40E9456
:1025A000BF23A70196010E944B21A70196010E941B
:1025B0004A219B01AC010E944B214B015C0120ECA4
:1025C00036E44DEE5CE3C701B6010E94BF236B0108
:1025D0007C012BE734E948E853E4609102017091F3
:1025E000030180910401909105010E944B2129E093
:1025F00038E045E051E40E94BF239B01AC01C701D4
:10260000B6010E94BC219B01AC01C501B4010E942E
:10261000BC210E9482246B017C018090AD019090CE
:10262000AE01A090AF01B090B0019B01AC01C5011B
:10263000B4010E944A2120E030E040E05FE30E94C4
:10264000BF23A70196010E944B216B017C01809161
:10265000AC018130B1F4C092A801D092A901E092FE
:10266000AA01F092AB01A5019401C701B6010E9435
:102670004A216093A4017093A5018093A6019093D1
:10268000A701C092AD01D092AE01E092AF01F092ED
:10269000B00126E636E646E650E4C701B6010E94E0
:1026A000BF230E942E22AB01BC0187E10E94550985
:1026B00080915602882309F44AC6833009F0BBC3CF
:1026C00087E70E9475046091C50170E0605C7F4FF0
:1026D0008AE492E00E94FB0B0E9419046091C401FD
:1026E00070E080E090E00E94E8090E946E0929965F
:1026F0006CAF7DAF8EAF9FAF29970E94290B2091C1
:10270000C0013091C101890120E030E0322F212F3A
:10271000102F00271B012C01201A310A420A530AEC
:10272000E091BE01F091BF018090BA019090BB0191
:10273000940140E050E060E070E080E090E000E173
:102740000E9460272BAB3BAF4FAF24965FAF24971F
:102750004B01682E25969FAF2597BF0180E090E042
:10276000A20191010E944F268901742EB52FF62FE8
:10277000E72F7C01A0E00E94B5274CF4AFE70E9450
:10278000A0278901742EB52FF62FE72F7C01980121
:10279000472D5B2F6F2F7E2FC70107E00E947927FF
:1027A00059016A017B018C012BA93BAD4FAD2496E9
:1027B0005FAD2497B401862D25969FAD25970E9485
:1027C000972724962FAF249725963FAF25972A96D3
:1027D0004FAF2A972B965FAF2B972C966FAF2C9706
:1027E0002D967FAF2D972E968FAF2E972F969FAF5A
:1027F0002F97E090B801F090B9016091BC01709101
:10280000BD0180E090E0A20191010E944F26D22EEE
:10281000032F142FB52FF62FE72FB82EC92EA0E0C7
:102820000E94B52784F421503F4F4F4F5F4F6F4FA9
:102830007F4F8F4F9F4FD22E032F142FB52FF62F80
:10284000E72FB82EC92E2D2D302F412F5B2F6F2F44
:102850007E2F8B2D9C2D08E00E94792739014A019B
:10286000B62FA72FF82FE92FC12CD12C9701A60145
:1028700060E070E080E090E00FE00E946027590186
:102880006A017B018C019301A4016B2F7A2F8F2F9A
:102890009E2F0E94972760962FAF609761963FAF5B
:1028A000619762964FAF629763965FAF6397649646
:1028B0006FAF649765967FAF659766968FAF6697A3
:1028C00067969FAF67976091C2017091C30180E0E6
:1028D00090E0A20191010E944F26F22E032F142FA7
:1028E000B52FF62FE72FD82EE92EA0E00E94B527AE
:1028F00084F42150310940485F4F6F4F7F4F8F4F15
:102900009F4FF22E032F142FB52FF62FE72FD82E1F
:10291000E92E2F2D302F412F5B2F6F2F7E2F8D2DE6
:102920009E2D07E10E94792749015A0195018401F2
:102930000053184F2F4F3F4F23960CAF1DAF2EAFB4
:102940003FAF23971092CA011092CB011092CC0195
:102950001092CD011092CE011092CF011092D001B1
:102960001092D1011092D2011092D3011092D40191
:102970001092D5011092D6011092D7011092D80171
:102980001092D901003D1740210531050CF0C5C05A
:10299000A5019401C501B4010E94AE259B01AC01C3
:1029A000A5E0B0E00E94E3258B019C0135952795B9
:1029B000179507950BAB1CAB2DAB3EAB2B013C0128
:1029C000770C4408542C32010093CA011093CB01B8
:1029D0002093CC013093CD014092CE014092CF01A3
:1029E0004092D0014092D1019B01AC0112E055957B
:1029F0004795379527951A95D1F72BAF3CAF4DAF3B
:102A00005EAF2093D2013093D3014093D401509311
:102A1000D5014092D6014092D7014092D801409210
:102A2000D90123960CAD1DAD2EAD3FAD23970432D9
:102A30001A4F2F4F3F4F0CF070C0C501B4016455C1
:102A4000724F8F4F9F4F9B01AC010E94AE25239682
:102A50006CAF7DAF8EAF9FAF2397A7E0B0E09B0137
:102A6000AC010E94E3254B015C01BB0C8808982C4B
:102A700054019B01AC01682D782D882D982DABA8B1
:102A8000BCA8CDA8DEA8E42CF42C042D142D0E94A3
:102A900097272093CA013093CB014093CC015093E8
:102AA000CD016093CE017093CF018093D0019093BC
:102AB000D101ABE0B0E023962CAD3DAD4EAD5FADA6
:102AC00023970E94E3254B015C01B594A79497944A
:102AD00087946B017C01FF0CCC08DC2C76019401FF
:102AE000A5016C2D7C2D8C2D9C2DABACBCACCDAC44
:102AF000DEACE42CF42C0E9497272093D201309373
:102B0000D3014093D4015093D5016093D6017093C3
:102B1000D7018093D8019093D90160962FAD60972B
:102B200061963FAD619762964FAD629763965FADD8
:102B3000639764966FAD649765967FAD659766966B
:102B40008FAD669767969FAD6797A090D201B090C2
:102B5000D301C090D401D090D501E090D601F0907F
:102B6000D7010091D8011091D9010E94AC27299674
:102B7000ECACFDAC0EAD1FAD299717012801570134
:102B80006201E12CF12C00E010E00E94F625F22E0B
:102B9000032F142FB52FF62FE72FD82EE92EA0E004
:102BA0000E94B52784F421503109404E5F4F6F4F8A
:102BB0007F4F8F4F9F4FF22E032F142FB52FF62FDD
:102BC000E72FD82EE92E2F2D302F412F5B2F6F2F7F
:102BD0007E2F8D2D9E2D05E10E94792739014A0116
:102BE000B62FA72FF82FE92F24962FAD24972596DF
:102BF0003FAD25972A964FAD2A972B965FAD2B9721
:102C00002C966FAD2C972D967FAD2D972E968FAD70
:102C10002E972F969FAD2F97A090CA01B090CB0111
:102C2000C090CC01D090CD01E090CE01F090CF01CA
:102C30000091D0011091D1010E94AC2759016A0185
:102C40007B018C019301A4016B2F7A2F8F2F9E2F74
:102C50000E94AC27F22E032F142FB52FF62FE72F4B
:102C6000D82EE92EA0E00E94B52784F421503048E8
:102C70004F4F5F4F6F4F7F4F8F4F9F4FF22E032F5E
:102C8000142FB52FF62FE72FD82EE92E2F2D302F0A
:102C9000412F5B2F6F2F7E2F8D2D9E2D0FE00E94D9
:102CA0007927B901CA012093060170930701409367
:102CB0000801909309010E946C2220E836EE45EC51
:102CC00057E40E94BC212BEA3CED42E45EE30E9403
:102CD0002C249B01AC0160E070E080E89FE30E943F
:102CE0004A2120E03AE24DE257E40E94BF2320E06F
:102CF00030E048EC52E40E94BF230E942E224B0198
:102D00005C010E94290B2091C0013091C101890111
:102D100020E030E0322F212F102F00272B013C0123
:102D2000401A510A620A730A6091C2017091C3018C
:102D300080E090E0A30192010E944F26F22E032F23
:102D4000142FB52FF62FE72FD82EE92EA0E00E94E2
:102D5000B52784F42150310940485F4F6F4F7F4FB2
:102D60008F4F9F4FF22E032F142FB52FF62FE72FE3
:102D7000D82EE92E2F2D302F412F5B2F6F2F7E2F36
:102D80008D2D9E2D07E10E9479272BAB3CAB4DABDF
:102D90005EAB6FAB78AF89AF9AAFCBA8DCA8EDA8DC
:102DA000FEA800EDC00E07E0D01EE11CF11C10EDE6
:102DB000C11617E0D106E104F1044CF01092C601EF
:102DC0001092C7011092C8011092C90113C0A3014B
:102DD0009201C301B2010E94AE2520E030E0A901BA
:102DE0000E94BE252093C6013093C7014093C801BD
:102DF0005093C9018091C6019091C701A091C8016B
:102E0000B091C901A7019601281B390B4A0B5B0B36
:102E1000CA01B9010E946C2220E030E048EC52E483
:102E20000E94BC216093020170930301809304010E
:102E30009093050143C10E94E5050E942E226093F4
:102E400006017093070180930801909309010E9485
:102E5000E50520E030E048EC52E40E94BC2120E08F
:102E600030E54DE754E40E94BC2121E03EED42E410
:102E70005EE30E942C249B01AC0160E070E080E8DE
:102E80009FE30E944A2120E03AE24DE257E40E948B
:102E9000BF2320E030E048EC52E40E94BF230E94B0
:102EA0002E224B015C010E945D056093020170932C
:102EB00003018093040190930501809156028230B2
:102EC00009F0FCC00E945D058DEF0E9401056C01B8
:102ED000E12CF12CC11430E8D306E104F10409F42B
:102EE000DCC08091620290916302A0916402B09173
:102EF00065028C019D011C52214031090BAB1CABBA
:102F00002DAB3EABAEE0CC0CDD1CEE1CFF1CAA953D
:102F1000D1F78091820290918302092E000CAA0BB6
:102F2000BB0B44E1880F991FAA1FBB1F4A95D1F71D
:102F3000C81AD90AEA0AFB0AA0918402B091850254
:102F4000A90198010E94EE25C61AD70AE80AF90AD3
:102F500010E4D10EE11CF11C6FE0F594E794D794D6
:102F6000C7946A95D1F7A0918102B0E00E94E32551
:102F70002B013C017BE075946794579447947A95B4
:102F8000D1F720E8520E611C711CA09186020A2E16
:102F9000000CBB0B2BA93CA94DA95EA90E94EE25F4
:102FA000EAE09595879577956795EA95D1F7A3011E
:102FB00092010E94AE25DC01CB01FAE0B595A79500
:102FC00097958795FA95D1F79C01AD01405E5F4FCB
:102FD000A0917F02B09180020E94EE25DC01CB011E
:102FE000905EAF4FBF4FBC01CD01AEE09595879588
:102FF00077956795AA95D1F7A70196010E94AE250E
:103000006B017C01BFE09595879577956795BA959B
:10301000D1F79B01AC010E94AE259B01AC0117E0EA
:1030200055954795379527951A95D1F7A0917E022A
:10303000B0E00E94E325DC01CB0104E0B595A79543
:10304000979587950A95D1F797018601081B190B6B
:103050002A0B3B0BD901C80137FF03C080E090E089
:10306000DC0181309105A10519E1B10724F080E070
:1030700090E0A0E0B9E1BC01CD01FCE09595879519
:1030800077956795FA95D1F70E946C2220E030E0A1
:1030900040E85AE30E94BF2304C060E070E080EC87
:1030A0009FE720E030E040E251E40E94BF230E940D
:1030B0002E22AB01BC018FE00E9455098091A00136
:1030C0009091A101A091A201B091A3010097A10547
:1030D000B10589F48092A0019092A101A092A20171
:1030E000B092A30180929C0190929D01A0929E01BA
:1030F000B0929F0126C0A5019401281B390B4A0BF1
:103100005B0BCA01B9012AE030E040E050E00E94C8
:10311000BE25209398013093990140939A015093D2
:103120009B01C501B40124E630E040E050E00E947C
:10313000BE252093940130939501409396015093BE
:1031400097010E94A30F0091B4011091B501209145
:10315000B6013091B7016B017C01C01AD10AE20AB5
:10316000F30A80919C0190919D01A0919E01B091E4
:103170009F0195018401081B190B2A0B3B0BC90108
:10318000B8010E946C222B013C01C701B6010E94CC
:103190006A229B01AC0160E070E08AE794E40E943F
:1031A000BC219B01AC01C301B2010E94BF230E945C
:1031B0002E222B013C0180929C0190929D01A092B5
:1031C0009E01B0929F018091AC01813041F4C09288
:1031D0009001D0929101E0929201F0929301C090FF
:1031E0009001D0909101E0909201F0909301D7016D
:1031F000C6010197A109B109873B9B40A105B10513
:1032000050F520E038E44FE156E46091A801709158
:10321000A9018091AA019091AB010E94BF23209146
:10322000A4013091A5014091A6015091A7010E94EF
:10323000BF234B015C01C701B6010E946A229B01BA
:10324000AC01C501B4010E94BC210E942E22460E91
:10325000571E681E791EC301B2010E946C226B01C9
:103260007C019B01AC0160918C0170918D0180917A
:103270008E0190918F010E944A2120915702309136
:1032800058024091590250915A020E94BF23A7014F
:1032900096010E944B210E942E226B017C010E940C
:1032A0006C2260938C0170938D0180938E019093BA
:1032B0008F0180915B02482F50E060E070E04C1578
:1032C0005D056E057F054CF4D701C601841B950B87
:1032D000A60BB70BAC01BD0117C090E0919581958D
:1032E0009109092E000CAA0BBB0BC816D906EA06D9
:1032F000FB063CF4B701A601481B590B6A0B7B0B7C
:1033000003C040E050E0BA0186E00E9455094091B8
:1033100006015091070160910801709109018DE04B
:103320000E94550920E030E040E251E46091020142
:103330007091030180910401909105010E94BF23C7
:103340000E942E22AB01BC018EE00E9455090E9412
:10335000A30F6093B4017093B5018093B60190936D
:10336000B70110917401112309F4EBC00E94270FDB
:103370006FE00E94340F0E946C2220E030E04AE7A8
:1033800054E40E94BC2169837A838B839C8320E070
:1033900030E040E251E40E94BF230E942E22AB01A4
:1033A000BC0180E10E945509153028F01C3030F432
:1033B00084EC99E005C080E090E002C088E592E0EE
:1033C000E0908A01F0908B01E80EF91E8EE00E94D9
:1033D000D109BC01990F880B990B0E946C2220E047
:1033E00030E040E85AE30E94BF2320E030E44CE99B
:1033F00055E40E94BF234B015C01B70180E090E0DF
:103400000E946A229B01AC01C501B4010E944A21BD
:103410006B017C01E12FF0E0E55EFE4F608170E022
:1034200080E090E00E946C229B01AC01C701B601D4
:103430000E94BC216B017C0160938601709387011F
:10344000809388019093890120E030E040E251E4CC
:103450000E94BF230E942E22AB01BC0181E10E9489
:1034600055092FEF3FEF4FE951E4C701B6010E9424
:10347000BC212091820130918301409184015091BF
:1034800085010E944B216093820170938301809398
:103490008401909385010E942E22AB01BC0182E140
:1034A0000E945509809101018823B1F10E94A30F68
:1034B00000917E0110917F01209180013091810166
:1034C000DC01CB01801B910BA20BB30B8131974226
:1034D000A105B10508F120E030E040E050E4C7016B
:1034E000B6010E94B72118166CF062E871E084E121
:1034F00090E00E94F80EBE016F5F7F4F88E190E080
:103500000E94F80E0E94A30F60937E0170937F01CA
:10351000809380019093810129813A814B815C8164
:103520006091860170918701809188019091890155
:103530000E94BF230E942E22AB01BC0183E10E94A6
:10354000550980917D01882379F060E186E00E9431
:10355000340F2AE030E040E050E00E94BE25BA017E
:10356000A90184E10E94550980917C01882379F0AA
:1035700061E187E00E94340F2AE030E040E050E053
:103580000E94BE25BA01A90185E10E9455098091DA
:103590007B01882309F44EC084E10E94D109BC015B
:1035A000990F880B990B0E946C229B01AC0160E083
:1035B00070EC8FE794E40E94BC2120E030E040E80A
:1035C0005FE30E944A219B01AC0160E070E48CE162
:1035D00096E40E94BC2120E030E44CE156E40E94D5
:1035E000BC210E94772320E030EE46E755E40E949C
:1035F000BC212FE03FEC4BE55BE30E944B219B019C
:10360000AC0160E070E080E89FE30E94BC2129E902
:1036100039EF47E853E40E944A2120E030E040E2DD
:1036200051E40E94BF230E942E22AB01BC0186E11F
:103630000E945509409198015091990160919A0119
:1036400070919B0184E00E94550940919401509132
:103650009501609196017091970185E00E9455094E
:103660000091170310921703011105C0809100010A
:10367000882309F411C20E94A30FC0907701D09053
:103680007801E0907901F0907A016C157D058E0546
:103690009F0508F401C20E94A30FDC01CB018853EF
:1036A0009F4FAF4FBF4F8093770190937801A093C6
:1036B0007901B0937A0111E0E1E1FE2E003E71F450
:1036C00080917501909176018D3091050CF00CC1BF
:1036D0000196909376018093750104C1003781F4BF
:1036E0008091750190917601181619060CF0FCC0B6
:1036F0000197909376018093750110930001F9C0B2
:10370000003D09F0E4C0809175019091760185300B
:103710009105B9F134F48330910559F0049751F1D2
:10372000E1C087309105E9F1ACF1089709F440C098
:10373000D9C08090570290905802A0905902B09042
:103740005A0220E030E040E85FE3C501B4010E9486
:10375000B72187FFC7C020E030E048EC52E4C50144
:10376000B4010E94BF2320E030E040E85FE30E9404
:103770004B217EC080915B02843608F0B3C08F5F1E
:103780008BC08091B301882309F4ACC08150809331
:10379000B301A8C08091AC01882309F4A3C0815073
:1037A00083C080917401882309F49CC0815084C037
:1037B00080910101882309F495C0815085C00E9441
:1037C0005B0FE0917401EE2381F1F0E0E55EFE4FC6
:1037D000608170E080E090E00E946C222091860180
:1037E0003091870140918801509189010E94BF2347
:1037F0004B015C0160918A0170918B01072E000CD6
:10380000880B990B0E946C229B01AC01C501B4018D
:103810000E944B210E942E2260938A0170938B019B
:10382000615884E090E00E94230FE0E0F0E0099509
:103830008090570290905802A0905902B0905A027E
:1038400020E030E0A901C501B4010E946A231816E6
:103850000CF048C020E030E048EC52E4C501B4016F
:103860000E94BF2320E030E040E85FE30E944A214D
:1038700020E030E048EC52E40E94BC216093570203
:10388000709358028093590290935A022BC08091F2
:103890005B02882339F1815080935B0223C08091C1
:1038A000AC018230F8F48F5F8093AC011BC0809133
:1038B00074018F30B8F48F5F8093740113C08091CE
:1038C0000101823078F48F5F809301010BC0003BCF
:1038D00059F4E0917501F09176013197ED30F105E1
:1038E00008F4EBC31093000180910001882309F4D0
:1038F000D3C01AA219828091750190917601F89E29
:10390000B001F99E700D112466557D4F40E150E0E5
:10391000CE0182960E942B21E0917501F0917601F3
:10392000EC30F105B8F4EC5CFF4F0C94DD2540E180
:1039300050E069E972E00AC060915602F9E06F9FB9
:10394000B001112464597D4F40E150E0CE01019651
:103950000E942B21CE018296AAE4B3E06AE573E0CF
:1039600020E040E272C080915602882309F4A6CE7E
:1039700020E030E048EC52E4609157027091580228
:103980008091590290915A020E94BF230E942E22D8
:103990007F936F9386E691E00BC080915602882357
:1039A00009F48CCE80915B021F928F938DE691E09B
:1039B0009F938F93CE0101969F938F930E943729F7
:1039C0000F900F900F900F900F900F90C3CF6091BA
:1039D000B3010AE0609FB001112434C06091AC01D2
:1039E0001BE0619FB0011124695C7D4FADCF6091F8
:1039F000740120E1629FB0011124695C7E4FA4CF65
:103A000080917401882309F459CE6091010139E055
:103A1000639FB0011124645E7E4F96CF60917D015B
:103A20004AE0649FB00111240DC060917C015AE00E
:103A3000659FB001112406C060917B018AE0689FF8
:103A4000B0011124685A7D4F7FCFFC013191CF0125
:103A5000332321F0211102C03C9302C04C9321E09A
:103A60001196F3E0AA35BF0781F7DE0111962AE629
:103A700033E080E040E29D91FB01992321F0811128
:103A800002C0908302C0408381E06F5F7F4F2617A2
:103A9000370789F71092000167E0762E73E0672EF2
:103AA0008091CD029091CE02DC01ED91FC910480D9
:103AB000F581E02D0995892B09F4F5C28091CD029D
:103AC0009091CE02DC01ED91FC910680F781E02D12
:103AD00009952091D0023091D10221153105A9F428
:103AE0009C012D53310922303105D0F621E030E020
:103AF0003093D1022093D0028E33910509F020E05B
:103B00002093D2028093D702CBCF21303105A9F484
:103B10009C012D7F2130310511F522E030E03093FA
:103B2000D1022093D00221E08130910509F020E0FC
:103B30002093D3028093D802B3CF22303105A1F471
:103B400023E030E03093D1022093D0028093D4025E
:103B50008093D9026092D502813408F4A1CF1092EB
:103B6000D1021092D0029CCF2330310509F098CFBA
:103B7000E091D50201E00E0F0093D502F0E0E9528A
:103B8000FD4F80838091D40208138ACF57EDE52E34
:103B900052E0F52E4701A12CB12C80E090E010E01E
:103BA0006801B2E0CB1AD108AC14BD044CF4F401A6
:103BB00061914F010E947308FFEFAF1ABF0AF4CF63
:103BC000F801EA52FD4F208130E0322F2227F60122
:103BD000E952FD4F4081242B8217930709F0BFCF94
:103BE0008091DA028093D6029091D2028091DB021A
:103BF0009923D1F08133C1F48091DC0286958093C2
:103C00001903EDEDF2E020E030E090E028173907ED
:103C10003CF44191519154AF43AF2F5F3F4FF6CFEA
:103C200081E0809318039BCF8A3309F0F0C1809123
:103C3000D302882309F493CF8091CF0291E0980FAB
:103C40009093CF02811116C01092DE021092E4020E
:103C500010919E02812F880F880F880F8093E502B4
:103C6000412F50E06AE872E086EE92E00E94182947
:103C7000175F5CC1282F269530E04091A302509138
:103C8000A402421753070CF44AC080FD48C000E06C
:103C900010E08091A3029091A402081719070CF07C
:103CA00044C16091A60270E0CE0101960E94920884
:103CB0008091A6028F5F8093A60290E02091A302DC
:103CC0003091A4028217930714F01092A6028885FF
:103CD000882311F11092DE028B818093E4028D8D96
:103CE00008E0809FC00111249E8D892B8093E502FE
:103CF00080E019E0180FE9E0F0E0EC0FFD1FE80F9D
:103D0000F11D9081992309F411C18F5FE12FF0E03B
:103D1000E352FD4F9083EDCF0F5F1F4FBACF80E48A
:103D20008093DE0230E4C32ED12C17E06091A5020F
:103D300070E0CE0101960E9492088091A5028F5FEB
:103D40008093A50290E02091A3023091A4028217F3
:103D5000930714F01092A5028885882309F4CEC039
:103D60008C819D81AE81BF818F3F2FEF9207A2078B
:103D7000B20709F4C3C04B81612F70E02F8D51E071
:103D8000510F403160F063527D4F322F3F70FB0185
:103D900030831E5FE52FF0E0E352FD4F0BC0152F7F
:103DA000FB01E352FD4F00E1409FA0011124322F9F
:103DB0003F70432B408349A150E02430B9F128F4EF
:103DC000222369F02130E1F096C0283009F462C066
:103DD000293009F47CC0253009F08DC040C0E12FA6
:103DE000F0E0E352FD4F282F2F71B7FD02C080E0B5
:103DF00001C080E8822B98A1892B808381E07CC060
:103E0000212F30E0F901E352FD4F8083F901E252A6
:103E1000FD4F692F6F71B7FD02C080E001C080E8DF
:103E2000862B98A1892B808382E066C0212F30E009
:103E3000F901E352FD4F8083F901E252FD4F908377
:103E4000F901E152FD4F6A2F6F71B7FD02C080E0AA
:103E500001C080E8862B98A1892B808319C0212F6F
:103E600030E0F901E352FD4F8083F901E252FD4F4A
:103E70009083F901E152FD4F4D01BB2497FCB094B2
:103E8000AB2CB7FD02C080E001C080E8882A8082A8
:103E900083E032C0212F30E0F901E352FD4F8083EF
:103EA000F901E252FD4F9083F901E152FD4FA083E9
:103EB000F901E052FD4F6B2F6F71B7FD02C080E03A
:103EC00001C080E8862B98A1892B808312C0212F06
:103ED00030E0F901E352FD4F8083F901E252FD4FDA
:103EE0009083F901E152FD4FA083F901E052FD4FAB
:103EF000B08384E001C080E0180F02C040E050E0D1
:103F00002FEFC21AD20A8091A3029091A402C81680
:103F1000D90664F4812F90E02AE130E0241B350BB0
:103F2000821793070CF402CF01C010E08FE2809358
:103F3000DD029091DE028FEF810F892B8093DE02EC
:103F400089E08093DF0284EA8093E0028091CB02D3
:103F50008093E1028091CC028093E2021092E3020E
:103F6000EEEDF2E091E080E0911768F42191822774
:103F700028E087FF03C0880F872501C0880F2150E4
:103F8000C1F79F5FF1CFE12FF0E0E352FD4F808357
:103F900009E0010F0093D5028BE38093D70281E003
:103FA0008093D8020093D9028091D6028093DA02DE
:103FB0008AE38093DB021F5F1093DC02A12CB12CFB
:103FC00080E090E010E0680132E0C31AD108AC1440
:103FD000BD044CF4D7016D917D010E947308BFEFC1
:103FE000AB1ABB0AF4CFF601E952FD4F8083F8010A
:103FF000EA52FD4F90838091CD029091CE02DC0178
:10400000ED91FC910280F381E02DA80145C08B3336
:1040100009F0A5CD8091D302882309F4A0CD809129
:10402000DD02803F19F08093170302C0109217033E
:1040300098E29093D5028BE38093D70221E02093FE
:10404000D8029093D9028093DB0280E28093DC0255
:10405000EAE4F3E0ADEDB2E001900D928A95E1F76C
:1040600080E090E0F70161917F010E947308FDEF0D
:10407000EF16F2E0FF06B1F78093FD029093FE0287
:104080008091CD029091CE02DC01ED91FC910280F5
:10409000F381E02D48E250E067ED72E0099581E0A0
:1040A00080936A035CCD80E090E0892B11F40C943E
:1040B00088120E9400000C948812E05CFF4F0C9460
:1040C000DD258091B30181110DCC1093B3010ACC91
:1040D00080917D01812780937D0104CC80917C01BA
:1040E000812780937C01FECB80917B018127809387
:1040F0007B01F8CB6091740183E090E00E94230F74
:104100006091010185E090E00E94230F60917D01A4
:1041100086E090E00E94230F60917C0187E090E0B0
:104120000E94230F60917B0188E090E00E94230FA2
:1041300020E030E048EC52E4609157027091580260
:104140008091590290915A020E94BF230E942E2210
:104150008AE090E00E94230F60915B028CE090E087
:104160000E94230F6091B3018DE090E00E94230F25
:104170006091AC018EE090E00E94230FE0E0F0E05F
:104180000995C12CD12C6FEFC6010E94230FFFEFC0
:10419000CF1ADF0A22E3C216D104A9F70E945B0FEF
:1041A000E0E0F0E009959ECBEAE4F2E013821282AF
:1041B00088EE93E0A0E0B0E084839583A683B78384
:1041C0008FE291E091838083EAE8F2E0148A168A14
:1041D000158A108E178A128E118E138E148E86E712
:1041E0008093CB0282E38093CC02108244E050E0C3
:1041F0006FEF70E087EC92E00E94212980E2E7EA0D
:10420000F2E0DF011D928A95E9F71092CE0210923A
:10421000CD021092CF021092170310921803109241
:10422000190310926A031092D1021092D0021092D8
:10423000D2021092D3021092D4021092D5021092A0
:10424000D60280E3EAE1F3E0DF011D928A95E9F707
:10425000109256020895FB01DC0102C005900D92F8
:1042600041505040D8F70895F999FECF92BD81BDD5
:10427000F89A992780B50895262FF999FECF1FBA8D
:1042800092BD81BD20BD0FB6F894FA9AF99A0FBE7F
:10429000019608955058BB27AA270E9462210C94CA
:1042A00030230E94222338F00E94292320F039F481
:1042B0009F3F19F426F40C940F230EF4E095E7FBCE
:1042C0000C940923E92F0E94412358F3BA1762077F
:1042D00073078407950720F079F4A6F50C946323FF
:1042E0000EF4E0950B2EBA2FA02D0B01B901900111
:1042F0000C01CA01A0011124FF27591B99F0593F55
:1043000050F4503E68F11A16F040A22F232F342F9C
:104310004427585FF3CF469537952795A795F040EA
:104320005395C9F77EF41F16BA0B620B730B840BFF
:10433000BAF09150A1F0FF0FBB1F661F771F881FB7
:10434000C2F70EC0BA0F621F731F841F48F487950F
:1043500077956795B795F7959E3F08F0B0CF939501
:10436000880F08F09927EE0F9795879508950E947A
:10437000E52208F481E008950E94D0210C943023B6
:104380000E94292358F00E94222340F029F45F3F25
:1043900029F00C94092351110C9464230C940F23DD
:1043A0000E94412368F39923B1F3552391F3951BA0
:1043B000550BBB27AA2762177307840738F09F5F46
:1043C0005F4F220F331F441FAA1FA9F335D00E2EB3
:1043D0003AF0E0E832D091505040E695001CCAF720
:1043E0002BD0FE2F29D0660F771F881FBB1F2617E3
:1043F00037074807AB07B0E809F0BB0B802DBF01BA
:10440000FF2793585F4F3AF09E3F510578F00C9488
:1044100009230C9464235F3FE4F3983ED4F386951C
:1044200077956795B795F7959F5FC9F7880F911DA9
:104430009695879597F90895E1E0660F771F881F95
:10444000BB1F621773078407BA0720F0621B730B48
:10445000840BBA0BEE1F88F7E09508950E94352271
:104460006894B1110C94642308950E94492388F044
:104470009F5798F0B92F9927B751B0F0E1F0660F28
:10448000771F881F991F1AF0BA95C9F714C0B13069
:1044900091F00E946323B1E008950C946323672F89
:1044A000782F8827B85F39F0B93FCCF38695779598
:1044B0006795B395D9F73EF4909580957095619581
:1044C0007F4F8F4F9F4F089597FB16F40E94122342
:1044D0000C94A822E89409C097FB3EF4909580952F
:1044E000709561957F4F8F4F9F4F9923A9F0F92FBA
:1044F00096E9BB279395F695879577956795B79538
:10450000F111F8CFFAF4BB0F11F460FF1BC06F5F1D
:104510007F4F8F4F9F4F16C0882311F096E911C02F
:10452000772321F09EE8872F762F05C0662371F050
:1045300096E8862F70E060E02AF09A95660F771F64
:10454000881FDAF7880F9695879597F90895E8946C
:10455000F92F96EBFF2381F0121613061406440B75
:104560009395F69587957795679557954040FF23E6
:10457000B9F71BC099270895882351F49850D2F7B2
:10458000872B762F652F542F432F322F20E0B1F346
:10459000121613061406440B88233AF09A95440F1A
:1045A000551F661F771F881FCAF755234AF4440F0B
:1045B000551F11F460FF04C06F5F7F4F8F4F9F4FF7
:1045C000880F9695879597F90895990F0008550FCC
:1045D000AA0BE0E8FEEF16161706E807F907C0F089
:1045E00012161306E407F50798F0621B730B840B91
:1045F000950B39F40A2661F0232B242B252B21F46B
:1046000008950A2609F4A140A6958FEF811D811D0A
:10461000089597F99F6780E870E060E008959FEF44
:1046200080EC089590958095709560955095409593
:10463000309521953F4F4F4F5F4F6F4F7F4F8F4FBB
:104640009F4F089500240A941616170618060906A7
:10465000089500240A9412161306140605060895F8
:10466000092E0394000C11F4882352F0BB0F40F480
:10467000BF2B11F460FF04C06F5F7F4F8F4F9F4FC0
:10468000089557FD9058440F551F59F05F3F71F042
:104690004795880F97FB991F61F09F3F79F08795A9
:1046A0000895121613061406551FF2CF4695F1DF32
:1046B00008C0161617061806991FF1CF86957105C2
:1046C000610508940895E894BB2766277727CB01F6
:1046D00097F908950E94E52208F48FEF089516F0E7
:1046E0000C94FC240C940F2368940C9409230E94CE
:1046F0004923A8F39923C1F3AEF3DF93CF931F931C
:104700000F93FF92C92FDD2788232AF02197660F88
:10471000771F881FDAF720E030E040E85FEB9FE387
:10472000883920F0803E38F021968F770E944B2107
:10473000EAE9F0E004C00E944B21E7ECF0E00E94BF
:1047400011258B01BE01EC01FB2E6F577109759588
:10475000771F880B990B0E946C2228E132E741E316
:104760005FE30E94D223AF2D9801AE01FF900F911D
:104770001F91CF91DF910E9462210C9430230E94FF
:10478000D2230C9430230E94222338F00E94292344
:1047900020F0952311F00C9409230C940F2311247D
:1047A0000C9464230E94412370F3959FC1F3950FED
:1047B00050E0551F629FF001729FBB27F00DB11DA5
:1047C000639FAA27F00DB11DAA1F649F6627B00D35
:1047D000A11D661F829F2227B00DA11D621F739F1E
:1047E000B00DA11D621F839FA00D611D221F749F2C
:1047F0003327A00D611D231F849F600D211D822F73
:10480000762F6A2F11249F5750409AF0F1F0882399
:104810004AF0EE0FFF1FBB1F661F771F881F9150C6
:104820005040A9F79E3F510580F00C9409230C9449
:1048300064235F3FE4F3983ED4F3869577956795BC
:10484000B795F795E7959F5FC1F7FE2B880F911DF0
:104850009695879597F90895FA01EE0FFF1F309608
:1048600021053105A1F16115710561F48038BFE3BF
:104870009B0749F168949038810561F08038BFEF5B
:104880009B0741F099234AF5FF3FE10531052105DA
:1048900019F1E8940894E795D901AA2329F4AB2FDC
:1048A000BE2FF85FD0F310C0FF5F70F4A695E0F75D
:1048B000F73950F019F0FF3A38F49F779F930DD0F5
:1048C0000F9007FC9058089546F00C940F2360E079
:1048D00070E080E89FE308954FE79F775F934F93E1
:1048E0003F932F930E9477232F913F914F915F9198
:1048F0000E94BF230C94CA2419F416F40C940F23BD
:104900000C94FC240E944923B8F39923C9F3B6F30D
:104910009F57550B87FF0E940A250024A0E640EA16
:10492000900180585695979528F4805C660F771F04
:10493000881F20F026173707480730F4621B730BD7
:10494000840B202931294A2BA695179407942025FA
:1049500031254A2758F7660F771F881F20F0261742
:104960003707480730F4620B730B840B200D311DA1
:10497000411DA09581F7B901842F9158880F969514
:104980008795089529F416F00C9409230C94632359
:104990000C940F230E944923A8F39638A0F707F838
:1049A0000F92E8942BE33AEA48EB5FE70E94D523A5
:1049B0000F920F920F924DB75EB70F920E947A2519
:1049C000E4EFF0E00E9411254F915F91EF91FF918C
:1049D000E595EE1FFF1F49F0FE57E0684427EE0FF4
:1049E000441FFA95E1F74195550B0E9444250F901D
:1049F00007FE0C94382508959F3F31F0915020F424
:104A0000879577956795B795880F911D96958795AA
:104A100097F9089591505040660F771F881FD2F77D
:104A20000895DF93CF931F930F93FF92EF92DF923E
:104A30007B018C01689406C0DA2EEF010E94D2231C
:104A4000FE01E894A5912591359145915591A6F3E4
:104A5000EF010E946221FE019701A801DA9469F733
:104A6000DF90EF90FF900F911F91CF91DF9108950C
:104A70009B01AC0160E070E080E89FE30C94BC21F6
:104A80000C9409230C94FC240E944923D8F3992305
:104A9000C9F3940F511DA3F39150504094F059F075
:104AA000882332F0660F771F881F91505040C1F75E
:104AB0009E3F51052CF7880F911D9695879597F984
:104AC00008955F3FACF0983E9CF0BB2786957795A4
:104AD0006795B79508F4B1609395C1F7BB0F58F788
:104AE00011F460FFE8CF6F5F7F4F8F4F9F4FE3CF91
:104AF0000C946423FA01DC01AA0FBB1F9B01AC01DB
:104B0000BF5728F4222733274427507820C0B751B5
:104B100090F4AB2F0024469537952795011CA3955B
:104B2000D2F3002071F0220F331F441FB395DAF344
:104B30000ED00C944A2161307105A0E88A07B9466D
:104B400030F49B01AC016627772788279078309650
:104B500021F020833183428353830895DB018F93B7
:104B60009F930E94E325BF91AF91A29F800D911D5D
:104B7000A39F900DB29F900D11240895052E97FBD1
:104B80001EF400940E94D52557FD07D00E94C1272E
:104B900007FC03D04EF40C94D525509540953095E4
:104BA00021953F4F4F4F5F4F089590958095709599
:104BB00061957F4F8F4F9F4F0895EE0FFF1F059018
:104BC000F491E02D09940E94E327A59F900DB49FD6
:104BD000900DA49F800D911D11240895B7FF0C9492
:104BE000E3250E94E325821B930B0895DF93CF9367
:104BF0001F930F939A9DF02D219FF00D8B9DF00D2B
:104C00008A9DE02DF10D039FF00D029FE00DF11D37
:104C10004E9DE00DF11D5E9DF00D4F9DF00D7F93BB
:104C20006F93BF92AF925F934F93D5010E94E3279A
:104C30008B01AC01D7010E94E327EB01E80FF91FBC
:104C4000D6010E9446262F913F91D6010E94E3276C
:104C5000C60FD71FE81FF91FAF91BF910E944626CC
:104C60002F913F910E94E327C60FD71FE81FF91F1E
:104C7000D6010E94E327E60FF71F9801BE01CF017E
:104C800011240F911F91CF91DF9108950E94E32786
:104C9000460F571FC81FD91F08F43196089597FB78
:104CA00057FF0C945F269F938F930E945F266E1B85
:104CB0007F0BAF91BF918A0B9B0B0895E894DF9314
:104CC000CF93FC01DB010E94E3277F936F93E901FF
:104CD0009A01AC01BF93AF933F932F93DF010E94E2
:104CE000E32726F46C1B7D0B820B930B9E01EB01DB
:104CF000FC010E944626AF91BF912F913F910E94E7
:104D00004626BE01CF01F9012F913F91CF91DF914E
:104D10000895689401C0E894F92FF12B12F00C94D7
:104D2000BD26A0E0B0E0E7E9F6E20C942F27092EBB
:104D3000059422F40E941927112392F4F0E80F261B
:104D4000FFEFE094F09400951095B094C094D09447
:104D5000A194BF0ACF0ADF0AEF0AFF0A0F0B1F0B4D
:104D60000E94C82607FC0E941927CDB7DEB7ECE0E9
:104D70000C944B27689401C0E8948F929F92CF9334
:104D8000DF930E94C826DF91CF919F908F90089566
:104D900088249924F401E401B0E49F93AA279A158A
:104DA0008B049C04ED05FE05CF05D007A10798F400
:104DB000AD2FDC2FCF2FFE2FE92D982C892E982F89
:104DC000872F762F652F542F432F322F2227B8504D
:104DD00031F7BF9127C01B2EBF91BB27220F331F76
:104DE000441F551F661F771F881F991F881C991C19
:104DF000EE1FFF1FCC1FDD1FAA1FBB1F8A149B04C1
:104E0000EC05FD05CE05DF05A007B10748F08A18BF
:104E10009B08EC09FD09CE09DF09A00BB10B21604D
:104E20001A94E1F62EF49401AF01BE01CD01000CFD
:104E30000895609570958095909530954095509522
:104E400021953F4F4F4F5F4F6F4F7F4F8F4F9F4F7A
:104E500008952F923F924F925F926F927F928F921E
:104E60009F92AF92BF92CF92DF92EF92FF920F93F9
:104E70001F93CF93DF93CDB7DEB7CA1BDB0B0FB603
:104E8000F894DEBF0FBECDBF09942A8839884888C0
:104E90005F846E847D848C849B84AA84B984C88456
:104EA000DF80EE80FD800C811B81AA81B981CE0F4D
:104EB000D11D0FB6F894DEBF0FBECDBFED01089532
:104EC0000F93083090F0982F872F762F652F542F4F
:104ED000432F322F22270850F4CF220F331F441FB5
:104EE000551F661F771F881F991F0A95B2F70F91EC
:104EF000089597FB10F8169400080F93083098F067
:104F00000850232F342F452F562F672F782F892FA6
:104F1000902DF4CF0594979587957795679557953C
:104F20004795379527950A95AAF70F9108952A0D69
:104F30003B1D4C1D5D1D6E1D7F1D801F911F089523
:104F40000024A7FD00942A0F301D401D501D601D38
:104F5000701D801D901D08952A193B094C095D099B
:104F60006E097F09800B910B08950024A7FD009422
:104F70002A1730054005500560057005800590052D
:104F80000895A1E21A2EAA1BBB1BFD010DC0AA1F8A
:104F9000BB1FEE1FFF1FA217B307E407F50720F0A2
:104FA000A21BB30BE40BF50B661F771F881F991F1D
:104FB0001A9469F760957095809590959B01AC0166
:104FC000BD01CF010895A29FB001B39FC001A39F6F
:104FD000700D811D1124911DB29F700D811D112432
:104FE000911D08950F931F93CF93DF938230910506
:104FF00010F482E090E0E091BC03F091BD0320E06A
:1050000030E0A0E0B0E0309719F140815181028199
:10501000138148175907C8F08417950769F410974A
:1050200031F012960C93129713961C9327C000939D
:10503000BC031093BD0322C02115310519F042179E
:10504000530718F49A01BD01EF01DF01F801DBCF2E
:1050500021153105F9F0281B390B2430310580F476
:105060008A819B816115710521F0FB019383828305
:1050700004C09093BD038093BC03FE01329644C0EC
:10508000FE01E20FF31F819391932250310939837E
:1050900028833AC02091BA033091BB03232B41F4FB
:1050A00020910C0130910D013093BB032093BA0382
:1050B00020910A0130910B012115310541F42DB7E2
:1050C0003EB740910E0150910F01241B350BE0912A
:1050D000BA03F091BB03E217F307A0F42E1B3F0BBA
:1050E0002817390778F0AC014E5F5F4F241735075A
:1050F00048F04E0F5F1F5093BB034093BA03819358
:10510000919302C0E0E0F0E0CF01DF91CF911F91D9
:105110000F910895CF93DF93009709F481C0FC01AC
:10512000329713821282A091BC03B091BD031097F5
:1051300081F420813181820F931F2091BA03309135
:10514000BB032817390751F5F093BB03E093BA036B
:1051500067C0ED0120E030E0CE17DF0740F44A8160
:105160005B819E0141155105F1F0EA01F5CFD38332
:10517000C28340815181840F951FC817D90759F404
:1051800088819981840F951F0296918380838A81FB
:105190009B81938382832115310529F4F093BD030C
:1051A000E093BC033DC0E901FB83EA834991599137
:1051B000C40FD51FEC17FD0761F480819181840F26
:1051C000951F0296E90199838883828193819B834D
:1051D0008A83E0E0F0E012968D919C9113970097FE
:1051E00019F0FD01DC01F7CF8D919C9111979D0184
:1051F0002E5F3F4F820F931F2091BA033091BB0364
:105200002817390769F4309729F41092BD031092DA
:10521000BC0302C013821282B093BB03A093BA03F3
:10522000DF91CF91089581E090E0F8940C94EA2BFF
:10523000FB01DC0102C001900D9241505040D8F7B3
:105240000895DC0101C06D9341505040E0F708958E
:10525000FB01DC014150504048F001900D920020CC
:10526000C9F701C01D9241505040E0F70895AEE0EB
:10527000B0E0EDE3F9E20C9437270D891E8986E052
:105280008C831A8309838FEF9FE79E838D83AE0102
:10529000475E5F4F6F89788DCE0101960E94592934
:1052A000EF81F885E00FF11F10822E96E4E00C9458
:1052B0005327ABE0B0E0EFE5F9E20C9429276C014D
:1052C0007B018A01FC0117821682838181FFCCC198
:1052D000CE0101963C01F6019381F70193FD859182
:1052E00093FF81917F01882309F4BAC1853239F493
:1052F00093FD859193FF81917F01853229F4B60159
:1053000090E00E94502BE7CF912C212C312CFFE113
:10531000F315D8F08B3279F038F4803279F083329B
:10532000A1F4232D20611DC08D3261F0803369F41A
:10533000232D216016C0832D8260382EE32DE4607A
:105340003E2E2AC0F32DF8601DC037FC2DC020ED85
:10535000280F2A3040F08E32B9F436FC81C1232D5B
:105360002064322E19C036FE06C08AE0989E200DB9
:105370001124922E11C0EAE02E9E200D1124222E1F
:10538000F32DF0623F2E08C08C3621F4832D806807
:10539000382E02C0883641F4F70193FD859193FFC2
:1053A00081917F018111B3CF982F9F7D95549330C8
:1053B00028F40C5F1F4F9FE399830DC0833631F0B3
:1053C000833771F0833509F059C021C0F80180811D
:1053D00089830E5F1F4F88248394912C530113C03F
:1053E0002801F2E04F0E511CF801A080B18036FE7A
:1053F00003C0692D70E002C06FEF7FEFC5010E940E
:10540000452B4C018201F32DFF773F2E16C028015A
:1054100022E0420E511CF801A080B18036FE03C08C
:10542000692D70E002C06FEF7FEFC5010E943A2B3B
:105430004C01F32DF0683F2E820133FC1BC0822DFE
:1054400090E088169906B0F4B60180E290E00E94E0
:10545000502B2A94F4CFF50137FC859137FE8191CA
:105460005F01B60190E00E94502B21102A9421E0A8
:10547000821A91088114910471F7E8C0843611F002
:10548000893641F5F80137FE07C06081718182815C
:1054900093810C5F1F4F08C060817181072E000C43
:1054A000880B990B0E5F1F4FF32DFF763F2E97FF52
:1054B00009C090958095709561957F4F8F4F9F4F54
:1054C000F0683F2E2AE030E0A3010E948C2B882E4A
:1054D000861845C0853731F4232D2F7EB22E2AE061
:1054E00030E025C0932D997FB92E8F36C1F018F486
:1054F000883579F0B5C0803719F0883721F0B0C011
:10550000E92FE061BE2EB4FE0DC0FB2DF460BF2E6E
:1055100009C034FE0AC0292F2660B22E06C028E03A
:1055200030E005C020E130E002C020E132E0F801C7
:10553000B7FE07C060817181828193810C5F1F4F2C
:1055400006C06081718180E090E00E5F1F4FA30173
:105550000E948C2B882E8618FB2DFF773F2E36FE5F
:105560000DC0232D2E7FA22E891458F434FE0BC0BB
:1055700032FC09C0832D8E7EA82E05C0B82CA32C2A
:1055800003C0B82C01C0B92CA4FE0FC0FE01E80D69
:10559000F11D8081803321F49A2D997EA92E09C0B6
:1055A000A2FE06C0B394B39404C08A2D867809F095
:1055B000B394A3FC11C0A0FE06C0B21488F4280C5A
:1055C000922C9B180EC0B21460F4B60180E290E0F9
:1055D0000E94502BB394F7CFB21418F42B1802C0CA
:1055E000982C212CA4FE10C0B60180E390E00E940C
:1055F000502BA2FE17C0A1FC03C088E790E002C0B8
:1056000088E590E0B6010CC08A2D867859F0A1FE9D
:1056100002C08BE201C080E2A7FC8DE2B60190E0FF
:105620000E94502B891438F4B60180E390E00E9468
:10563000502B9A94F7CF8A94F301E80DF11D8081E5
:10564000B60190E00E94502B8110F5CF222009F482
:1056500042CEB60180E290E00E94502B2A94F6CF11
:10566000F6018681978102C08FEF9FEF2B96E2E1D2
:105670000C944527FC010590615070400110D8F74B
:10568000809590958E0F9F1F0895FC01615070408A
:1056900001900110D8F7809590958E0F9F1F089567
:1056A0000F931F93CF93DF93FB01238121FD03C051
:1056B0008FEF9FEF2CC022FF16C0468157812481B7
:1056C00035814217530744F4A081B1819D012F5FBA
:1056D0003F4F318320838C93268137812F5F3F4F4B
:1056E0003783268314C08B01EC01FB010084F18514
:1056F000E02D0995892BE1F6D80116968D919C91A4
:105700001797019617969C938E931697CE01DF916B
:10571000CF911F910F910895FA01AA27283051F1D6
:10572000203181F1E8946F936E7F6E5F7F4F8F4FD2
:105730009F4FAF4FB1E03ED0B4E03CD0670F781F31
:10574000891F9A1FA11D680F791F8A1F911DA11D16
:105750006A0F711D811D911DA11D20D009F468944F
:105760003F912AE0269F11243019305D3193DEF6F7
:10577000CF010895462F4770405D4193B3E00FD0AD
:10578000C9F7F6CF462F4F70405D4A3318F0495D98
:1057900031FD4052419302D0A9F7EACFB4E0A6957B
:1057A0009795879577956795BA95C9F7009761059D
:1057B000710508959B01AC010A2E069457954795F3
:1057C00037952795BA95C9F7620F731F841F951FE8
:0857D000A01D0895F894FFCF1D
:1057D80001010000A041CD8B01000000BE03800044
:1057E80000000000B90C2E0CAC0C810C49251249A4
:1057F800B9644228140D0A3C281B1400000000FB61
:105808000BCE0B2B0CA20BC60BB20BA30BCA158429
:105818004033337B4133337B412222224100003025
:10582800410000984100004040000040405661722D
:10583800696F475053002025326425250020253202
:0458480064636D0028
:00000001FF
