:100000000C94DE030C9406040C9406040C94060471
:100010000C9406040C9406040C9406040C94060438
:100020000C9406040C9406040C945E060C940807C9
:100030000C9417060C9406040C9406040C94060405
:100040000C9417170C9406040C94C30A0C94FF0A22
:100050000C945A0B0C9406040C9406040C9406049D
:100060000C9495090C940604F9240B250E251525EE
:100070001C254A2551255E256B2577257725772573
:100080007725772577257725772577257725772590
:100090007725772577257725772577257725772580
:1000A0007725772577257725F92406250B250E2535
:1000B00015251C25232530253D25D927C228C228F2
:1000C000E02701280828112818281F28E728F928E0
:1000D000EC28032911291A2934294C2953295C2990
:1000E000652973297A29812926285F285F2CC2284F
:1000F00068289728652C9F28A728AF286C2C722C7D
:10010000782C7E2CD12C084AD73B3BCE016E84BC88
:10011000BFFDC12F3D6C74319ABD56833DDA3D0061
:10012000C77F11BED9E4BB4C3E916BAAAABE0000AA
:1001300000803F05A84CCDB2D44EB93836A9020C88
:1001400050B9918688083CA6AAAA2ABE0000008061
:100150003F08000000BE922449123EABAAAA2ABE64
:10016000CDCCCC4C3E00000080BEABAAAAAA3E007B
:10017000000000BF000000803F00000000000841B8
:1001800078D3BB4387D1133D190E3CC3BD4282AD2A
:100190002B3E68EC8276BED98FE1A93E4C80EFFF02
:1001A000BE01C4FF7F3F000000000007634236B776
:1001B0009BD8A71A39685618AEBAAB558C1D3CB7F8
:1001C000CC5763BD6DEDFD753EF6177231BF000073
:1001D00000803F0020537461727475700020417577
:1001E000746F00000000204D616E75616C0000208E
:1001F00044697361626C65640000000000000020C7
:100200004174746F50696C6F7420343500000020A5
:100210004174746F50696C6F742039300000002095
:100220004174746F50696C6F742031383000002055
:1002300041504D322E35203930412F353056002077
:100240004143533731322D3035000000000000208B
:100250004143533731322D3230000000000000207E
:100260004143533731322D3330000000000000206D
:100270004143533735382D3530420000000000200F
:100280004143533735382D313030420000000020D3
:100290004143533735382D313530420000000020BE
:1002A0004143533735382D323030420000000020B2
:1002B0004143533735382D353055000000000020BC
:1002C0004143533735382D31303055000000002080
:1002D0004143533735382D3135305500000000206B
:1002E0004143533735382D3230305500000000205F
:1002F00044697361626C6564000020416972207317
:100300007065656400204750530000000000000045
:100310002044697361626C65640020456E61626CA3
:100320006564000020756E6B6E6F776E0020424D25
:1003300050323830000020424D4532383000002025
:100340004D53353631310000204C50530000000031
:100350000020324400203344002044697361626C01
:1003600065640020426173696300000000204578E5
:1003700074656E6465640056657273696F6E2056AD
:10038000322E332E32000000566172696F4750538F
:100390002053656E736F7200005265736574206F31
:1003A00066667365740000000000475053206D6F4F
:1003B00064653A00000000000000004750532064CC
:1003C000697374616E63653A000000005072657372
:1003D000737572652073656E736F723A0056617241
:1003E000696F20736D6F6F7468696E673A0056614C
:1003F00072696F20646561647A6F6E653A000041CE
:1004000069722073706565643A00000000000000A6
:10041000544543206D6F64653A0000000000000001
:10042000004D61696E2064726976653A00000000D3
:10043000000043617061636974792072657365744B
:100440003A000052783120766F6C746167653A002B
:100450000000000052783220766F6C746167653A54
:1004600000000000004578742E2054656D703A003D
:100470000000000000005361766520616E64207208
:10048000657374617274004C6F61642064656661A9
:10049000756C747300000000014C617469747564BC
:1004A00065000000000000000000000000200000C7
:1004B000000000000900024C6F6E67697475646586
:1004C000000000000000000000000020000000000C
:1004D00000000900034750532073706565640000F5
:1004E0000000000000000000006B6D2F680000009D
:1004F00001000452656C2E20416C74697400000088
:10050000000000000000006D000000000000040179
:10051000054162732E20416C746974000000000074
:1005200000000000006D00000000000004000656FE
:100530006172696F00000000000000000000000010
:100540000000006D2F73000000000402074469736F
:1005500074616E6365000000000000000000000090
:10056000006D000000000000040008547269700073
:100570000000000000000000000000000000006B10
:100580006D0000000000040209417A696D7574680D
:1005900000000000000000000000000000B00000AB
:1005A0000000000001000A436F75727365000000CF
:1005B0000000000000000000000000B0000000008B
:1005C000000001000B536174656C6C697465730005
:1005D00000000000000000000020000000000000FB
:1005E00000000C48444F50000000000000000000D4
:1005F00000000000000000200000000000000102D8
:100600000D4169722070726573732E000000000046
:1006100000000000006850610000000004020E5459
:10062000656D702E0000000000000000000000005A
:10063000000000B043000000000001010F48756D8C
:100640006964697479000000000000000000000087
:100650000025724800000000010110566F6C7461A3
:100660006765000000000000000000000000005668
:1006700000000000000001011143757272656E7484
:100680000000000000000000000000000041000029
:100690000000000001011243617061636974790018
:1006A00000000000000000000000006D4168000034
:1006B0000000040013506F77657200000000000016
:1006C00000000000000000000057000000000000D3
:1006D00004001452783120566F6C74616765000015
:1006E00000000000000000560000000000000102B1
:1006F0001552783220566F6C7461676500000000F7
:100700000000000000560000000000000102164535
:1007100078742E2054656D70000000000000000009
:10072000000000B0430000000000010117416972A1
:100730002073706565640000000000000000000088
:10074000006B6D2F68000000010000000000000039
:100750000000000000000000000000000000000099
:10076000000000000000000000000000250028003C
:100770002B00040404040404040402020202020222
:100780000303030303030102040810204080010255
:1007900004081020010204081020000000080002D4
:1007A000010000030407000000000000000000003A
:1007B0000000240027002A00022DE42C11241FBE73
:1007C000CFEFD8E0DEBFCDBF11E0A0E0B1E0E4EFB5
:1007D000F3E702C005900D92A23AB107D9F725E0E0
:1007E000A2EAB1E001C01D92A631B207E1F713E021
:1007F000CDEDD3E004C02197FE010E94DC33CC3D57
:10080000D107C9F70E9461170C94ED390C940000D0
:10081000CF92DF92EF92FF920F931F93CF93DF93CC
:100820006C017A018B01C0E0D0E0CE15DF0581F0CC
:10083000D8016D918D01D601ED91FC910190F0816F
:10084000E02DC6010995892B11F02196EECF7E018E
:10085000C701DF91CF911F910F91FF90EF90DF9033
:10086000CF9008955091A6014091A501852F90E069
:10087000242F30E0541710F4805B9F4F821B930BA2
:1008800008958091A601E091A5018E1751F0EF5FC8
:10089000E03508F0E0E0F0E0EF55FD4F808190E0BA
:1008A00008958FEF9FEF08958091A6019091A50183
:1008B000891769F09F5F903508F090E0E92FF0E02C
:1008C000EF55FD4F80819093A50190E008958FEF43
:1008D0009FEF089585ED8093BC008091BC0084FD5E
:1008E000FCCF10923D03089540913402262F30E052
:1008F000240F311D21323105DCF420913D032430D9
:10090000C9F4FC0180E090E0861758F4309134027D
:100910002191DC01AC5EBD4FA30FB11D2C9301965C
:10092000F3CF80913402680F6093340280E0089521
:1009300081E0089582E00895089508950895E09172
:10094000F6028091F502E81730F4F0E0E950FD4F2F
:10095000808190E008958FEF9FEF08959091F602C7
:100960008091F502981750F4E92FF0E0E950FD4F1F
:10097000208130E09F5F9093F60202C02FEF3FEF9F
:10098000C90108958091F50290E02091F602821B42
:1009900091090895CF92DF92EF92FF920F931F93E8
:1009A000CF93DF937C01CB018A0120913E03222368
:1009B00089F0EB016B01C40ED51ECC15DD0569F085
:1009C0006991D701ED91FC910190F081E02DC70173
:1009D0000995F3CF642F0E947404C801DF91CF9171
:1009E0001F910F91FF90EF90DF90CF900895CF93DC
:1009F000DF931F92CDB7DEB7698320913E03222398
:100A0000D1F020916003203240F021E030E0FC0181
:100A10003383228380E090E015C080913F03E82F6C
:100A2000F0E0E05CFC4F998190838F5F80933F03FF
:100A30008093600305C061E0CE0101960E947404BA
:100A400081E090E00F90DF91CF9108951F93CF93B5
:100A5000DF93F894EC01CA57DF4F2881203400F56A
:100A6000DC01AE57BF4F1C9111965C91119770E05D
:100A7000411103C020E030E002C020E031E0622BF1
:100A8000732BE12FF52F71836083329628812F5FBE
:100A90002883EA17FB0710F0FC013296ED93FC93D4
:100AA000FC01E057FF4F8081811108C081E0808305
:100AB0008091C1008F7688628093C1007894DF9125
:100AC000CF911F910895FC01E157FF4F2081222310
:100AD00001F1F894A0911202B0911302A357BF4FF5
:100AE0000D90BC91A02D4C912081215020833297F4
:100AF000208131812F5F3F4FBC0165577F4F261703
:100B0000370718F09C0129573F4F31832083789491
:100B100001C040E0842F089508958091A4018111BF
:100B2000FCCF08958091A3018F5F843408F080E0AA
:100B30009091A2019817E1F32FB7F8949091A40136
:100B4000992341F0E82FF0E0E95AFD4F608380934C
:100B5000A3011DC081E08093A40160939C021092C8
:100B60009B0282E086BB80916F00826080936F0061
:100B7000809180008F7B80688093800080918400CA
:100B800090918500409690938900809388002FBFB4
:100B900081E090E0089580E090E008950E94F036B2
:100BA0001092C0008CE08093C10086E38093C20065
:100BB0001092C50086E68093C40062E080E00E9447
:100BC000631662E081E00C946316CF93DF93EC012F
:100BD0000E94D005FE01329680E8DF011D928A95C1
:100BE000E9F7DE01AE57BF4F1196FC93EE931296D4
:100BF000ED93FC93EC57FF4F1082319684E0DF01B8
:100C00001D928A95E9F7DE01A557BF4F1196FC9317
:100C1000EE931296ED93FC933896108231961082E3
:100C2000D0931302C0931202DF91CF9108951F92C7
:100C30000F920FB60F9211242F938F939F93EF93E0
:100C4000FF9380916F008B7F80936F008091810074
:100C50008F7B809381008091A7012091A002205872
:100C600090919F02893020F49695922B8F5FFACF56
:100C700090939F028091A6018F5F803508F080E0FD
:100C80002091A501821739F0E82FF0E0EF55FD4FD4
:100C900090838093A6011092A701809181008F7BA1
:100CA000809381001092A002FF91EF919F918F910C
:100CB0002F910F900FBE0F901F9018951F920F92BB
:100CC0000FB60F9211242F933F934F935F936F931F
:100CD0007F938F939F93AF93BF93EF93FF938091F5
:100CE0008600909187004091A002209181004423CA
:100CF00031F02F7B209381001092A00206C0206467
:100D00002093810020E82093A0023091A7013111A7
:100D100025C041116CC02091A8013091A901280F74
:100D2000391F30938B0020938A0024E026BB20914A
:100D30006F00246020936F002091AA013091AB01D5
:100D4000820F931F36952795820F931F90939E02D3
:100D500080939D0281E08093A70149C040919D024C
:100D600050919E026091AA017091AB01DB01A095A8
:100D7000B09520919F02E091A002841B950BA817CB
:100D8000B90768F126952E2B460F571F3F5F861B2C
:100D9000970B3930A0F320939F0280916F008B7FD7
:100DA00080936F008091A6018F5F803508F080E00E
:100DB0009091A501891749F0E82FF0E090919F02EA
:100DC000EF55FD4F90838093A601809181008F7B2A
:100DD000809381001092A0021092A70108C0209376
:100DE0009F0250939E0240939D023093A701FF9172
:100DF000EF91BF91AF919F918F917F916F915F9193
:100E00004F913F912F910F900FBE0F901F9018950B
:100E10001F920F920FB60F9211242F933F934F936F
:100E20005F936F937F938F939F93EF93FF93809143
:100E3000A40160919C02209188003091890040912A
:100E4000AA015091AB0190919B028A30F8F4240FD3
:100E5000351F893019F0762F717001C071E06695E9
:100E60008F5F791791F390918000772311F0906C48
:100E700002C09F7B906890938000309389002093FC
:100E8000880070939B0260939C024AC09091A301DA
:100E9000E091A2019E1319C08A3051F48BE0809337
:100EA000A401240F351F30938900209388003AC095
:100EB0001092A401809180008F73809380008091B4
:100EC0006F008D7F80936F002DC0EF5FE43408F0DA
:100ED000E0E0E093A201F0E0E95AFD4F90819093A9
:100EE0009C0210929B02909180009F7B906890934F
:100EF00080008A3059F48091AA019091AB01280FAB
:100F0000391F309389002093880009C080918400A4
:100F1000909185004096909389008093880081E0AD
:100F20008093A401FF91EF919F918F917F916F9199
:100F30005F914F913F912F910F900FBE0F901F9097
:100F40001895CF93DF93EC018A859B85AC85BD8591
:100F50008E839F83A887B9870E940B176A837B8340
:100F60008C839D8381E089838883DF91CF9108956D
:100F7000CF93DF93EC018E819F81A885B9858A8309
:100F80009B83AC83BD830E940B176A877B878C870A
:100F90009D8781E089838883DF91CF9108954F9267
:100FA0005F926F927F928F929F92AF92BF92CF92F9
:100FB000DF92EF92FF920F931F93CF93DF93CDB702
:100FC000DEB760970FB6F894DEBF0FBECDBF698362
:100FD0007A838B839C83CA01B90127013801A6015A
:100FE00095010E94512E25E33AEF4EE85CE30E9402
:100FF000DF316B017C010E949C326D877E878F8779
:10100000988BC701B6010E94352F6D837E838F8335
:10101000988725E33AEF4EE85CE369817A818B811A
:101020009C810E94DF314B015C0125E33AEF4EE8E1
:101030005CE3C301B2010E94DF312B013C01C50119
:10104000B4010E949C3269837A838B839C83C5019F
:10105000B4010E94352F4B015C01C301B2010E9413
:101060009C3269877A878B879C87C301B2010E9473
:10107000352F6B017C0129853A854B855C85C5013F
:10108000B4010E94DF312B013C01A7019601698167
:101090007A818B819C810E94DF312D813E814F813D
:1010A00058850E94DF319B01AC01C301B2010E944F
:1010B000512E9B01AC010E94DF312B013C01A701A5
:1010C00096016D857E858F8598890E94DF319B0111
:1010D000AC010E94DF31A30192010E94522E0E94B6
:1010E000AA322B013C01A7019601C501B4010E945F
:1010F000DF312D813E814F8158850E94DF314B01C8
:101100005C0129853A854B855C8569817A818B8173
:101110009C810E94DF319B01AC01C501B4010E949A
:10112000522E9B01AC01C301B2010E94D12E26E7D1
:101130003BE742EC5AE40E94DF3160960FB6F89428
:10114000DEBF0FBECDBFDF91CF911F910F91FF90FA
:10115000EF90DF90CF90BF90AF909F908F907F9057
:101160006F905F904F9008952F923F924F925F92B1
:101170006F927F928F929F92AF92BF92CF92DF92A7
:10118000EF92FF920F931F93CF93DF93D82FC92F26
:101190008B010E94F62D24E630E040E050E00E94F2
:1011A0009B3349015A019B01AC0160E876E988E96B
:1011B00090E00E948B336B017C01F8019182808268
:1011C000ED2FFC2F2191822F022E000C990BC0973E
:1011D0000A97C0F32E3239F51F0180E8882E86E980
:1011E000982E88E9A82EB12C9AE0492E512C612C1A
:1011F000712CF101C1911F010C2E000CDD0BE09749
:10120000CA30D10580F4C501B401A30192010E9446
:101210009B3349015A01DE010E94ED33C60ED71EF1
:10122000E81EF91EE6CFA5E0B0E0A70196010E94F6
:10123000E2336F5F7F4F8F4F9F4F23E030E040E0FE
:1012400050E00E949B33F80122833383448355830B
:101250001682DF91CF911F910F91FF90EF90DF9059
:10126000CF90BF90AF909F908F907F906F905F9046
:101270004F903F902F900895FF920F931F93CF931D
:10128000DF93EC01F8802DE2F21201C02196CE012D
:101290000E94F62D9B01AC01A4E6B0E00E94E2336F
:1012A000FE014991242F042E000C330B20533109E9
:1012B0002A303105A8F34E3241F52181022E000C6F
:1012C000330B205331092A303105F8F44AE0429FAC
:1012D0008001439F100D1124012E000C220B330BB3
:1012E000600F711F821F931F0281002E000C110BD3
:1012F000005311090A30110540F4012E000C220B95
:10130000330B600F711F821F931F2DE2F21207C073
:1013100090958095709561957F4F8F4F9F4FDF918E
:10132000CF911F910F91FF9008951F920F920FB6CA
:101330000F9211242F933F934F935F936F937F935B
:101340008F939F93AF93BF93EF93FF938091B900D7
:10135000887F803609F49CC068F5883209F45BC048
:1013600090F4803109F454C038F4882309F4F6C0AD
:10137000883009F44DC0F6C0883109F44CC0803281
:1013800009F45DC0EFC0803409F468C048F48033CC
:1013900009F455C0883309F0E5C080933B03D8C0F9
:1013A000803509F44FC0883509F45DC0883409F0F0
:1013B000D9C0D6C0883909F4C7C0A8F4883709F461
:1013C00067C038F4883609F463C0803709F460C018
:1013D000C9C0883809F4B8C0803909F45FC08038C2
:1013E00009F0C0C05BC0803B09F486C038F4803A85
:1013F00009F466C0883A09F47FC0B4C0803C09F49F
:10140000A7C0883C09F4A4C0883B09F48AC0AAC0DC
:101410008091180310C090913A0380913903981776
:1014200070F5E0913A0381E08E0F80933A03F0E08B
:10143000E75EFC4F80818093BB0085EC86C0809383
:101440003B038EC0E0913A0381E08E0F80933A0314
:101450008091BB00F0E0E75EFC4F808390913A03FF
:10146000809139036EC0E0913A0381E08E0F809342
:101470003A038091BB00F0E0E75EFC4F80838091EF
:101480003C0381116DC081E08093170384EA61C041
:1014900083E080933D0310925602CFCF8091560295
:1014A000803208F051C0E091560281E08E0F8093A7
:1014B00056028091BB00F0E0EA5CFD4F8083BDCF17
:1014C00085EC8093BC0010923D03809156028032DF
:1014D00030F4E0915602F0E0EA5CFD4F108260913A
:1014E000560270E0E091F102F091F20286E392E0A0
:1014F00009951092560236C084E080933D03109205
:10150000350210923402E091F302F091F402099551
:1015100080913402811105C081E0809334021092E1
:101520001402E091350281E08E0F80933502F0E0E5
:10153000EC5EFD4F80818093BB00909135028091DD
:101540003402981708F479CF85E88093BC000AC06C
:1015500085EC8093BC0010923D0304C010923B03C5
:101560000E946A04FF91EF91BF91AF919F918F917B
:101570007F916F915F914F913F912F910F900FBE8F
:101580000F901F9018951F920F920FB60F92112473
:101590002F933F938F939F93AF93BF93EF93FF93BB
:1015A0008091C600803FF1F0982F9F70D9F4209170
:1015B000120230911302F901E557FF4FA081B1816A
:1015C0008C93D901A157BF4F8C918F5F8C938081F1
:1015D000918101968E179F0718F0C90189579F4F77
:1015E00091838083FF91EF91BF91AF919F918F91F4
:1015F0003F912F910F900FBE0F901F9018951F9243
:101600000F920FB60F9211242F933F934F935F9336
:101610008F939F93EF93FF93809112029091130207
:10162000FC01EA57FF4F2081222351F132970190AC
:10163000F081E02D208131818091C10030FF02C016
:10164000816001C08E7F8093C1002093C6002091ED
:10165000120230911302F901EA57FF4F8081815045
:1016600080833297808191810296A9014E575F4F06
:101670008417950710F0C9010296918380830DC0ED
:101680008091C1008F7D80648093C100E09112023F
:10169000F0911302E057FF4F1082FF91EF919F915D
:1016A0008F915F914F913F912F910F900FBE0F90AF
:1016B0001F9018951F920F920FB60F9211242F931F
:1016C0003F938F939F93EF93FF93E1ECF0E0808142
:1016D000877B8069808380911202909113029C0124
:1016E00029573F4FFC01E557FF4F31832083329646
:1016F0003183208332961082FF91EF919F918F91D9
:101700003F912F910F900FBE0F901F901895CF9281
:10171000DF92EF92FF920F931F93CF93DF93EB0132
:101720007B0124E0E20EF11C8B016C01C61AD70A82
:10173000C601800F911F0E943B2EF80181938F01FB
:10174000EE15FF05A9F7CE01DF91CF911F910F9103
:10175000FF90EF90DF90CF900895AF92BF92DF920D
:10176000EF92FF920F931F93CF93DF93EC017B01D6
:101770008B015C0184E0A80EB11CF801D1908F01AF
:10178000CE010E943B2ED81621F06D2DCE010E9475
:10179000432E2196CA15DB0581F7C701DF91CF9152
:1017A0001F910F91FF90EF90DF90BF90AF90089541
:1017B0000C94432E0C943B2E8091AC01853010F498
:1017C000815008958550833010F085E0089584E0BD
:1017D0000895CF93C82F862F0E949F16BC01990FA2
:1017E000880B990B0E94EA2F20E030E040E85AE392
:1017F0000E94DF3120E030E44CE955E40E94DF3103
:1018000024E0C29FF0011124E15DFE4F208131816F
:10181000428153810E94DF310E94AC2FCF91089505
:10182000CF93DF9300D000D0CDB7DEB719821A82F4
:101830001B821C82BE016F5F7F4F84E190E00E949B
:10184000AD0B19821A821B821C82BE016F5F7F4F13
:1018500088E190E00E94AD0B0F900F900F900F90D9
:10186000DF91CF91089530916003313208F04BC081
:1018700080913D038111FCCF9091E60422E02093FA
:101880003D0321E020933C032FEF20933B03109274
:101890003A0330933903E0E4F3E0A9E1B3E020E058
:1018A000321721F041914D932F5FFACF1092180318
:1018B00020911803990F922B90931803909117037E
:1018C000913061F410921703909118039093BB002C
:1018D0009091BC0093FDF8CF95EC01C095EE9093EC
:1018E000BC0090913D039230E1F390913B039F3F08
:1018F00079F080913B03803241F080913B0380334B
:1019000031F084E005C081E003C082E001C083E0E3
:1019100010923F031092600310923E03089591E0ED
:1019200090933E038093E60410923F03109260036D
:101930000895CF93DF93D82FC62F809173030E9411
:101940008F0C6D2F81E693E00E94F7046C2F81E6E7
:1019500093E00E94F704DF91CF910C94330C9091A7
:101960003D039111FCCF91E090933D0390933C0394
:101970002FEF20933B0310923A03260F2093390355
:101980009093180390911803880F892B8093180364
:1019900080911703813061F410921703809118032E
:1019A0008093BB008091BC0083FDF8CF85EC01C023
:1019B00085EE8093BC0080913D038130E1F38091FE
:1019C0003A03861710F460913A03A9E1B3E0E7EF18
:1019D000F2E080E0861721F09D9191938F5FFACF1E
:1019E0000895613208F060E20E94AF0C1092F60296
:1019F0008093F50208951F93CF93DF93182FC3E7C9
:101A0000D3E088810E948F0C612F81E693E00E94D1
:101A1000F7040E94330C61E088810E94F10C81E69A
:101A200093E00E94AE04DF91CF911F9108958F92B1
:101A30009F92AF92BF92CF92DF92EF92FF92CF939D
:101A4000DF93F82EC3E7D3E088810E948F0C6F2DBF
:101A500081E693E00E94F7040E94330C63E08881E2
:101A60000E94F10C81E693E00E94AE044C01990FB4
:101A7000AA08BB08BA2CA92C982C882481E693E0EC
:101A80000E94AE046C01990FEE08FF08C828D928FF
:101A9000EA28FB28FE2CED2CDC2CCC2481E693E0FC
:101AA0000E94AE04092E000CAA0BBB0BBC01CD0199
:101AB0006C297D298E299F29DF91CF91FF90EF908E
:101AC000DF90CF90BF90AF909F908F9008951F931D
:101AD000CF93DF93182FC3E7D3E088810E948F0C48
:101AE000612F81E693E00E94F7040E94330C62E0CC
:101AF00088810E94F10C81E693E00E94AE04C82F19
:101B000081E693E00E94AE0420E030E03C2F822B7F
:101B1000932BDF91CF911F9108950E94670D982715
:101B2000892798270895CF9366EB80EE0E94990C41
:101B300064E670E080E090E00E94B61688E80E94BB
:101B40008D0D90937E0380937D038AE80E948D0D16
:101B50009093800380937F038CE80E948D0D909377
:101B60008203809381038EE80E948D0D90938403FD
:101B70008093830380E90E948D0D90938603809368
:101B8000850382E90E948D0D9093880380938703DB
:101B900084E90E948D0D90938A038093890386E9DE
:101BA0000E948D0D90938C0380938B0388E90E9493
:101BB0008D0D90938E0380938D038AE90E948D0D85
:101BC0009093900380938F038CE90E948D0D9093E6
:101BD0009203809391038EE90E948D0D909394035C
:101BE00080939303809174038230F1F581EA0E941F
:101BF000FB0C8093950381EE0E948D0D90939703CB
:101C00008093960383EE0E94FB0C8093980384EEEE
:101C10000E94FB0CC82F85EE0E94FB0C40E1C49F84
:101C2000900111248F70282B30939A0320939903ED
:101C300086EE0E94FB0CC82F85EE0E94FB0C90E103
:101C4000C99F9001112490E044E0959587954A95AD
:101C5000E1F7822B932B90939C0380939B0387EE59
:101C60000E94FB0C80939D0389ED80939F038091DC
:101C7000A0038F7180628093A00380919E03807C7B
:101C8000806280939E0380917403823021F461E02E
:101C900082EF0E94990C90919E03692F677040E239
:101CA000649F90011124892F86958695869587706B
:101CB00048E0849FB0011124622B732B97FB992776
:101CC00090F9692B85EF0E94990C90919F03692FE1
:101CD000677080E2689F90011124892F8695869510
:101CE0008695877048E0849FB0011124622B732B86
:101CF0009295969596959370692B84EFCF910C945D
:101D0000990C90E0FC01E656F84F2491FC01EA574B
:101D1000F84F3491FC01EE58F84FE491EE23B1F105
:101D2000222339F1233091F038F42130A9F0223008
:101D300001F584B58F7D12C0273091F02830A1F0D5
:101D40002430B9F4809180008F7D03C080918000A1
:101D50008F77809380000DC084B58F7784BD09C0D4
:101D60008091B0008F7703C08091B0008F7D809309
:101D7000B000F0E0EE0FFF1FE859F84FA591B491C5
:101D80008FB7F894EC91E32BEC938FBF08951092EA
:101D9000F6021092F50210923F0310926003109227
:101DA0003D0381E080933C031092170382E10E947F
:101DB000810E83E10E94810EE9EBF0E080818E7F4D
:101DC000808380818D7F808388E48093B80085E460
:101DD0008093BC008CE994E09093F4028093F3022A
:101DE0008DE994E09093F2028093F102089580933C
:101DF00073030E94C70E80ED0E94FB0C883521F012
:101E0000803641F482E001C081E0809374030E9437
:101E1000930D02C0109274038091740390E00895B2
:101E20008F929F92AF92BF92CF92DF92EF92FF92EA
:101E30000F931F938AEF0E94170DE3E7F3E00285EB
:101E4000138520E030E0C72ED82EE92EFF24E7FCD2
:101E5000FA94C01AD10AE20AF30ADC01CB0157E076
:101E6000B595A795979587955A95D1F7000F111FAE
:101E7000221F331F4C015D01801A910AA20AB30A86
:101E8000A5019401A485B5850E94ED334B015C0149
:101E90007BE0B594A794979487947A95D1F7A7019E
:101EA0009601C701B6010E948B339B01AC01ACE0E7
:101EB0005595479537952795AA95D1F7A685B78566
:101EC0000E94ED33DC01CB011EE0B595A7959795F7
:101ED00087951A95D1F7A5019401280F391F4A1F3C
:101EE0005B1F2683378340875187A5E0B0E00E94BF
:101EF000E233DC01CB0180589F4FAF4FBF4F692FBA
:101F00007A2F8B2F992787FD9A950E94EA2F20E040
:101F100030E048EC52E40E943A2F1F910F91FF905D
:101F2000EF90DF90CF90BF90AF909F908F900895EB
:101F30002F923F924F925F926F927F928F929F92D9
:101F4000AF92BF92CF92DF92EF92FF920F931F93C7
:101F5000CF93DF93CDB7DEB76B970FB6F894DEBFA4
:101F60000FBECDBF0E94100F87EF0E94170D6E8B22
:101F70007F8B888F998F8091790390917A03A091BC
:101F80007B03B0917C036C017D01FF0CCC08DC2C41
:101F900076019C01AD016C2D7C2D8C2D9C2D345F28
:101FA00041405109610971098109910929873A87DD
:101FB0004B87652E762E872E982E9B8F5901C42E27
:101FC000D52EE62EF72E082F192F0E94F533322E2C
:101FD000232E488B598B6A8B7B8B8C8B9D8B3091FE
:101FE000860320918503932F990F990B492F592F21
:101FF000692F792F892F0E94F5330CE00E945F35FD
:1020000029833C874A8F5D876E877F87582E492EAC
:102010003091880320918703932F990F990BA32C5C
:10202000B22CC888D988EA88FB880C891D89492F79
:10203000592F692F792F892F0E94F53308E00E94CC
:102040007835A980BC84CA8CDD84EE84FF84052D9C
:10205000142D0E94963570588F4F9F4FE091830347
:10206000F09184035F01C12CD12CE12CF12C87016C
:10207000E983BA82CB82DC82ED82FE820F831887ED
:10208000C12CD12CE12CF12C00E010E00E94F533A2
:1020900001E20E9478352A8F532E49835C876D8731
:1020A0007E878F87492EA0E00E94B43509F41EC1B7
:1020B00030918E0320918D03932F990F990BA32CB0
:1020C000B22CC888D988EA88FB880C891D89492FD9
:1020D000592F692F792F892F0E94F5331901488BC9
:1020E000598B6A8B7B8B8C8B9D8B30918C032091D1
:1020F0008B03932F990F990BA984BA84CB84D62C88
:10210000E72CF82C092D1B8D492F592F692F792F7A
:10211000892F0E94F53301E10E945F355101C88883
:10212000D988EA88FB880C891D890E949635590157
:102130006A017B01382E192F4E895F89688D798D50
:1021400084E075956795579547958A95D1F780E016
:1021500090E0A0E1B0E0841B950BA60BB70B3C010F
:102160004D01990C6608762C43019C01AD01662D4A
:10217000762D862D962D0FE10E945F35722E832ECF
:10218000942E5987B62FA72FF82FE92F30918A0365
:1021900020918903932F990F990B492F592F692F5C
:1021A000792F892F03E20E945F35032D0E94963517
:1021B00059016A017B018C01272D382D492D598544
:1021C0006B2F7A2F8F2F9E2F0E94AB35E5E3AE2E1B
:1021D000FCE0BF2EC12CD12CE12CF12C00E010E052
:1021E0000E94F533AA8CB52CC980DC84ED84FE8472
:1021F0000F85142D0E948A342F873E8749875A877E
:102200006B8779838C879D870DE00E947835922EAD
:10221000832E742E652E562E472E382E292E309161
:10222000940320919303932F990F990BA92CB82C09
:10223000C72CD62CE52CF42C032D122D492F592F09
:10224000692F792F892F0E94F5330E94F53309E118
:102250000E947835AF84BE84C984DA84EB84F98027
:102260000C851D850E94963519012A013B014C0100
:102270003091920320919103932F990F990B492F3D
:10228000592F692F792F892F0E94F53303E10E947E
:10229000783559016A017B018C019101A201B301DA
:1022A000C4010E94963508E00E94783559016A0100
:1022B0007B01E82F192F3091900320918F03932FEA
:1022C000990F990B492F592F692F792F892F04E0E6
:1022D0000E945F350E2F0E9496350E94E22F20E06B
:1022E00030E040E85BE30E94DF3103C060E070E073
:1022F000CB016B960FB6F894DEBF0FBECDBFDF915A
:10230000CF911F910F91FF90EF90DF90CF90BF90F2
:10231000AF909F908F907F906F905F904F903F9085
:102320002F900895FF920F931F93CF93DF93CDB714
:10233000DEB76E970FB6F894DEBF0FBECDBF10921A
:1023400079041092780488E994E09093750480935E
:10235000740480E2ECE7F4E0DF011D928A95E9F76E
:10236000F12C00E010E06091740470917504600F2E
:10237000711F4EE150E0CE0101960E941D2EE981B1
:10238000EE23B1F0E03220F4F0E0E65AFB4FF2A287
:1023900080917804909179040196909379048093C8
:1023A0007804025E1F4FF394003CB3E01B07D9F69C
:1023B0006E960FB6F894DEBF0FBECDBFDF91CF9102
:1023C0001F910F91FF900895CF93DF938091A00408
:1023D0009091A104DC01ED91FC910280F381E02D4C
:1023E00040E06EEF09958091C204882311F1C2ECA0
:1023F000D4E08091A0049091A1046991DC01ED9159
:10240000FC910280F381E02D41E00995B4E0C23EE9
:10241000DB0779F78091A0049091A104DC01ED9194
:10242000FC910280F381E02D40E06FEFDF91CF91CE
:102430000994C0E2D0E08091A0049091A104DC0155
:10244000ED91FC910280F381E02D41E060E009957F
:10245000219789F7DFCFEF92FF920F931F93CF93CE
:10246000DF93CDB7DEB76E970FB6F894DEBF0FBE21
:10247000CDBFFC0112828FEF9FEFDC018383948339
:10248000A583B68381E08783148E158E168E178EF2
:1024900010A2DB0193E0B595A7959A95E1F7A456B4
:1024A000BB4F8C9190E09B012770332702C095951C
:1024B00087952A95E2F7817099278783892B09F4FC
:1024C0007FC07B018F012EE1269FC001279F900DC9
:1024D00011246091740470917504680F791F4EE1A6
:1024E00050E0CE0101960E941D2E8D8DF801868F41
:1024F00089818283B701660F771F660F771FE0918E
:102500007604F0917704E60FF71F80819181A28114
:10251000B381F80183839483A583B683A801485FC0
:102520005F4FDE011296FA0130E08D91882329F089
:10253000333129F03F5F8193F8CF832F01C083E1CE
:10254000F801848F20E0732F720FE6E1F0E0EC0FCA
:10255000FD1FE20FF11D6081872F90E0662341F09F
:10256000733130F42F5FFA01E80FF91F6083EBCF6E
:10257000F801258FFA01E80FF91F10828E8D813046
:1025800021F0823029F480E401C080E2F801878FD5
:10259000F801868D843091F030F4882361F0813029
:1025A00079F483E00BC0883041F0893031F0853018
:1025B00039F484E003C082E001C085E0F80180A323
:1025C0006E960FB6F894DEBF0FBECDBFDF91CF91F0
:1025D0001F910F91FF90EF9008953FB7F89480916D
:1025E0000E0590910F05A0911005B091110526B52B
:1025F000A89B05C02F3F19F00196A11DB11D3FBF3B
:10260000BA2FA92F982F8827820F911DA11DB11DC8
:10261000BC01CD0142E0660F771F881F991F4A95C4
:10262000D1F708958F929F92AF92BF92CF92DF928F
:10263000EF92FF920F931F93CF93DF93CDB7DEB747
:10264000A1970FB6F894DEBF0FBECDBF811116C0A3
:102650001092A4041092AA0410917304812F880F81
:10266000880F880F8093AB04412F50E06FE574E032
:102670008CEA94E00E940837165F62C1282F2695E5
:1026800030E04091780450917904421753070CF4DC
:102690004AC080FD48C000E010E08091780490912D
:1026A0007904081719070CF04AC160917B0470E0A7
:1026B000CE0101960E942B1280917B048F5F809344
:1026C0007B0490E02091780430917904821793077D
:1026D00014F010927B048885882311F11092A404D1
:1026E0008B818093AA048D8D28E0829FC0011124E4
:1026F0009E8D892B8093AB0480E01AE0180FE9E0EF
:10270000F0E0EC0FFD1FE80FF11D9081992309F413
:1027100017C18F5FE12FF0E0EE55FB4F9083EDCFB7
:102720000F5F1F4FBACF80E48093A404E12CF12CFB
:1027300018E03AE1C32ED12C60917A0470E0CE010A
:1027400001960E942B1280917A048F5F80937A0405
:1027500090E020917804309179048217930714F067
:1027600010927A048885882309F4D3C08C819D81D6
:10277000AE81BF818F3F3FEF9307A307B30709F4F3
:10278000C8C04B81612F70E02F8D51E0510F403157
:1027900060F06E557B4F322F3F70FB0130831E5F20
:1027A000E52FF0E0EE55FB4F0BC0152FFB01EE556A
:1027B000FB4F30E1439FA0011124322F3F70432B88
:1027C000408349A150E02430C1F128F4222369F06C
:1027D0002130E1F09BC0283009F467C0293009F4AA
:1027E00081C0253009F092C043C0E12FF0E0EE55E2
:1027F000FB4F282F2F71B7FD02C080E001C080E899
:10280000822B98A1892B808381E081C0612F70E0A9
:102810009B012E553B4FF9018083FB01ED55FB4F8A
:10282000292F2F71B7FD02C080E001C080E8822B04
:1028300098A1892B808382E06AC0612F70E09B01A0
:102840002E553B4FF90180839B012D553B4FF901DC
:102850009083FB01EC55FB4F2A2F2F71B7FD02C06F
:1028600080E001C080E8822B98A1892B80831BC067
:10287000612F70E09B012E553B4FF90180839B0136
:102880002D553B4FF9019083FB01EC55FB4F4D015A
:10289000BB2497FCB094AB2CB7FD02C080E001C014
:1028A00080E8882A808283E032C0212F30E0F9015D
:1028B000EE55FB4F8083F901ED55FB4F9083F901F5
:1028C000EC55FB4FA083F901EB55FB4F6B2F6F715C
:1028D000B7FD02C080E001C080E8862B98A1892B5B
:1028E000808312C0212F30E0F901EE55FB4F808329
:1028F000F901ED55FB4F9083F901EC55FB4FA08397
:10290000F901EB55FB4FB08384E001C080E0180F64
:1029100002C040E050E0FFEFEF1AFF0A8091780418
:1029200090917904E816F9065CF4812F90E0960105
:10293000241B350B821793070CF4FECE01C010E068
:102940008EE78093A2048FE28093A3049091A40465
:102950008EEF810F892B8093A40489E08093A504D6
:1029600084EA8093A6048091E4048093A704809174
:10297000E5048093A8041092A904E12FF0E0A4EAF2
:10298000B4E092E080E037E0911768F42D9182275F
:1029900028E087FF03C0880F832701C0880F2150DC
:1029A000C1F79F5FF1CFEE55FB4F80838091A0046C
:1029B0009091A104DC01ED91FC910280F381E02D66
:1029C00040E06EE7099501E01017A0F08091A004A7
:1029D0009091A104A02FB0E0AE55BB4FFC01208127
:1029E0003181F9012281338141E06C91F90109952E
:1029F0000F5FEACFA1960FB6F894DEBF0FBECDBF32
:102A0000DF91CF911F910F91FF90EF90DF90CF90CA
:102A1000BF90AF909F908F900895CF93C82F8091D3
:102A2000780490917904892B11F40E949211C0329C
:102A3000D0F4EC2FF0E0E65AFB4F82A1E82FF0E053
:102A400093E0F595E7959A95E1F7E456FB4F282F2B
:102A5000277081E090E001C0880F2A95EAF7809501
:102A600090818923808310925E0410927B041092DF
:102A70007A04CF910895813208F080E2682F87E7C9
:102A80000E94AF0C1092F6028093F50208952091F7
:102A90007604309177042115310589F0803278F47D
:102AA000E82FF0E0E65AFB4F82A1F90194E0899FFC
:102AB000E00DF11D112440835183628373830895D7
:102AC0004F925F926F927F92AF92BF92CF92DF92BE
:102AD000EF92FF920F931F93CF93DF9300D000D01C
:102AE000CDB7DEB7082FA62E69017A01AE014F5F80
:102AF0005F4FC701B6010E94AB312B013C018981B8
:102B00009A81AB81BC81BC01CD019F770E94B32F1C
:102B1000B62E172F2AE939E949E15FE3C301B20173
:102B20000E94DF3120E030E543EC57E40E94DF31C2
:102B30009F770E94B32F3B011170A11002C090E05B
:102B400001C090E2192B20E030E0A901C701B601D5
:102B50000E94302F881F8827881F8295880F880F32
:102B6000807C712F782BA3016B2D802F0F900F90FD
:102B70000F900F90DF91CF911F910F91FF90EF90E9
:102B8000DF90CF90BF90AF907F906F905F904F900D
:102B90000C944715CF92DF92EF92FF921092AE0302
:102BA0006091B8037091B9038091BA039091BB030F
:102BB0000E94E82F28E23BE64EE65EE40E943A2FB0
:102BC0006B017C016091B6037091B70380E090E0E7
:102BD0000E94E82F9B01AC01C701B6010E94522E52
:102BE0002091BC0321119058FF90EF90DF90CF907F
:102BF0000895CF92DF92EF92FF921092AE03609110
:102C0000B1037091B2038091B3039091B4030E9419
:102C1000E82F28E23BE64EE65EE40E943A2F6B0185
:102C20007C016091AF037091B00380E090E00E945E
:102C3000E82F9B01AC01C701B6010E94522E2091E2
:102C4000B50321119058FF90EF90DF90CF90089539
:102C50001F93CF93DF9387E70E948F0C60E081E69C
:102C600093E00E94F7040E94330C87E70E948F0CC8
:102C700083E090E00E943B159091F5028091F6026E
:102C80009817F1F381E693E00E94AE04182F81E6D5
:102C900093E00E94AE04C82F81E693E00E94AE0448
:102CA000D82F0E94330C8C2F90E0A0E0B0E0BA2F18
:102CB000A92F982F8827A12BBC01CD016D2BDF9167
:102CC000CF911F910895CF93DF9390E0FC01EA57D5
:102CD000F84F2491FC01EE58F84F8491882361F15C
:102CE00090E0880F991FFC01E255F84FC591D491EF
:102CF000FC01E859F84FA591B491611109C09FB743
:102D0000F8948881209582238883EC912E230BC030
:102D1000623061F49FB7F8948881322F3095832315
:102D20008883EC912E2B2C939FBF06C08FB7F8940D
:102D3000E8812E2B28838FBFDF91CF9108958E30AD
:102D400008F08E508770806480937C0080917A00B8
:102D5000806480937A0080917A0086FDFCCF809118
:102D600078002091790090E0922B08958F929F92A5
:102D7000AF92BF92CF92DF92EF92FF926B017C01F4
:102D80000E94ED124B015C01C114D104E104F10475
:102D9000F1F00E94ED12DC01CB0188199909AA0912
:102DA000BB09883E9340A105B10570F321E0C21A2A
:102DB000D108E108F10888EE880E83E0981EA11C76
:102DC000B11CC114D104E104F10419F7DDCFFF9067
:102DD000EF90DF90CF90BF90AF909F908F9008952D
:102DE000CF93DF9387E70E948F0CC7EED4E06D8509
:102DF00070E0605B7F4F81E693E00E94F7040E94E1
:102E0000330C6C8570E080E090E00E94B616DF9194
:102E1000CF910C9428162FB7F89460910A05709101
:102E20000B0580910C0590910D052FBF08951F9201
:102E30000F920FB60F9211242F933F938F939F936E
:102E4000AF93BF9380910A0590910B05A0910C055B
:102E5000B0910D053091090523E0230F2D3720F4A3
:102E60000196A11DB11D05C026E8230F0296A11DE4
:102E7000B11D2093090580930A0590930B05A0933B
:102E80000C05B0930D0580910E0590910F05A09152
:102E90001005B09111050196A11DB11D80930E057D
:102EA00090930F05A0931005B0931105BF91AF91BA
:102EB0009F918F913F912F910F900FBE0F901F9078
:102EC0001895CF93DF93CDB7DEB7CD54D1090FB6A8
:102ED000F894DEBF0FBECDBF789484B5826084BD08
:102EE00084B5816084BD85B5826085BD85B581600E
:102EF00085BD80916E00816080936E00109281008C
:102F00008091810082608093810080918100816046
:102F10008093810080918000816080938000809107
:102F2000B10084608093B1008091B0008160809393
:102F3000B00080917A00846080937A0080917A005A
:102F4000826080937A0080917A00816080937A0019
:102F500080917A00806880937A001092C10086E7A1
:102F60000E94F70E80936D03811105C087E70E94D0
:102F7000F70E80936D0380916D03811155C087E733
:102F80000E948F0C0E94330C81114EC00E94C70E0C
:102F900087E70E948F0C6EE181E693E00E94F704C0
:102FA0000E94330C8AE08093F30488E08093F40459
:102FB00064E670E080E090E00E94B61667EEC62EF0
:102FC00064E0D62E12EA87E70E948F0C612F81E61B
:102FD00093E00E94F7040E94330C87E70E948F0C55
:102FE00082E090E00E943B159091F5028091F602FC
:102FF0009817F1F381E693E00E94AE04B82E81E6C3
:1030000093E00E94AE04082F0E94330CFB2CE12CAD
:10301000C701802BD6018D939D936D011E5F1E3AD3
:1030200091F683E080936D0380916D038230B9F057
:1030300018F48130A1F02FC08330F9F0843059F5B5
:103040008DEC9CECACE4BFE380936E0390936F0334
:10305000A0937003B0937103109272031CC08AE9AD
:1030600099E9A9E5BFE380936E0390936F03A09362
:103070007003B093710385E00CC04DEC5CEC6CE424
:103080007FE340936E0350936F03609370037093DC
:1030900071038093720381E090E00E94DA0B8F3F0E
:1030A00011F08093010182E090E00E94DA0B8F3FE3
:1030B00031F091E0811101C090E09093020183E032
:1030C00090E00E94DA0B8F3F11F08093AC0184E016
:1030D00090E00E94DA0B8F3F39F090E08F57910912
:1030E0009093E5018093E40185E090E00E94DA0B83
:1030F0008F3F11F08093030186E090E00E94DA0B8D
:103100008F3F31F091E0811101C090E09093D701A1
:1031100087E090E00E94DA0B8F3F31F091E081115F
:1031200001C090E09093D60188E090E00E94DA0B15
:103130008F3F31F091E0811101C090E09093D50173
:103140008AE090E00E94DA0B8F3FA1F0682F70E0D8
:1031500080E090E00E94E82F20E030E048EC52E46C
:103160000E943A2F60936E0370936F0380937003F5
:10317000909371038CE090E00E94DA0B8F3F11F086
:10318000809372038DE090E00E94DA0B8F3F11F084
:1031900080930D028EE090E00E94DA0B8F3F11F0D9
:1031A0008093060210926F001092800081E8809355
:1031B000810083E896E09093AB018093AA018BE3B2
:1031C0009CE39093A9018093A80162E088E00E94AB
:1031D000631689E00E94810E61E089E00E94631617
:1031E0001092A7011092A6011092A5011092A401BD
:1031F0001092A3011092A20180E286BB80936F001F
:1032000080910D02882339F085E10E949F169093EA
:103210000C0280930B0280916D03811103C086E044
:103220000E940D1580910101813021F080916D0384
:10323000823019F08FE00E940D15809101018130DC
:1032400021F080916D03811106C08DE00E940D1563
:103250008EE00E940D1580910101811109C081E06D
:103260000E940D1582E00E940D1583E00E940D154D
:103270008091010181110AC080916D03811106C006
:1032800084E00E940D1585E00E940D1580910101DA
:10329000823091F087E00E940D1588E00E940D15A4
:1032A00089E00E940D158AE00E940D158BE00E94B6
:1032B0000D158CE00E940D1580910D02811103C047
:1032C00087E10E940D158091AC0181110DC080E154
:1032D0000E940D1581E10E940D1582E10E940D15DD
:1032E00083E10E940D1540C0109103011123E1F10B
:1032F0006CED71E084E190E00E94870B1130A1F544
:103300000E94DC0B6FE00E94E90B6B017C01BE01A7
:103310006F5F7F4F88E190E00E94870BC701B60185
:103320000E94EA2F20E030E04AE754E40E943A2F5E
:103330006B017C012CE53FE842E85FE369817A811B
:103340008B819C810E94DF319B01AC01C701B601DA
:103350000E944E3187FD08C01092DC011092DD0101
:103360001092DE011092DF018091D701811103C01C
:1033700084E10E940D158091D601811103C085E181
:103380000E940D158091D501811103C086E10E9434
:103390000D1586E78093E40482E38093E504809131
:1033A0007304882321F0FE0131961F018AC180E257
:1033B000E2EAF4E0DF011D928A95E9F740E250E08D
:1033C00060E270E082EC94E00E94113743E150E04B
:1033D00063E771E08FE594E00E94283788E08093EE
:1033E00073048091780490917904892B11F40E94E0
:1033F00092110091780410917904013CBFE11B0700
:1034000030F4C801880F991F880F991F02C08FEFF1
:103410009FEF0E94CF35FC0120E030E04FEF5FEFDF
:10342000BA010217130739F04193519361937193D5
:103430002F5F3F4FF6CF809376049093770481E916
:1034400090E00E94CF3521E9FC0111922A95E9F71D
:1034500026E131E0DC012D933C939093A10480930D
:10346000A0040E94E50510925E0410927B04109265
:103470007A040E940B176B017C01B0EDCB0EB7E014
:10348000DB1EE11CF11C8091740490917504892B62
:1034900061F10E940B176C157D058E059F0528F5BF
:1034A00004E010E00E94E41166E970E080E090E042
:1034B0000E94B61601501109A9F700E010E08091B2
:1034C00078049091790480179107ECF2802F880F8F
:1034D0000E9412130E94E41166E970E080E090E01F
:1034E0000E94B6160F5F1F4FEACF8091A004909103
:1034F000A104DC01ED91FC910480F581E02D09959A
:103500008111F3CF50CF80910D028111F1C08091D4
:103510006D038111A2C10E940B1760930E0270937C
:103520000F0280931002909311021091AC011111BF
:10353000D3C78091D701882379F060E186E00E94AB
:10354000E90B2AE030E040E050E00E94BD33BA01D0
:10355000A90184E10E9447158091D601882379F062
:1035600061E187E00E94E90B2AE030E040E050E0B2
:103570000E94BD33BA01A90185E10E9447158091DF
:10358000D501882309F44EC084E10E949F16BC0136
:10359000990F880B990B0E94EA2F9B01AC0160E008
:1035A00070EC8FE794E40E943A2F20E030E040E88E
:1035B0005FE30E94512E9B01AC0160E070E48CE15E
:1035C00096E40E943A2F20E030E44CE156E40E9459
:1035D0003A2F0E94633120E030EE46E755E40E9426
:1035E0003A2F2FE03FEC4BE55BE30E94522E9B010C
:1035F000AC0160E070E080E89FE30E943A2F29E987
:1036000039EF47E853E40E94512E20E030E040E2D9
:1036100051E40E94DF310E94AC2FAB01BC0186E176
:103620000E94471580910101882311F40C945B27B7
:1036300081EA93E00E943204892B11F40C94D42582
:1036400081EA93E00E945404182F80914A049091DB
:103650004B04A0914C04B0914D040196A11DB11DE5
:1036600080934A0490934B04A0934C04B0934D0470
:10367000143211F40C94AF25E0914404153214F087
:103680000C945C231A3011F00C945723EF3010F493
:103690000C946A2380E0909143049F5F90934304CD
:1036A0001092440491E01A3209F090E090933204B1
:1036B00081110C94D42580E090E0892B11F00E94B8
:1036C00000000E940B1700910E0210910F02209132
:1036D000100230911102DC01CB01801B910BA20B77
:1036E000B30B853B9105A105B10508F49BCF0BCF2A
:1036F00085E10E949F165C0100910B0210910C0263
:10370000609108017091090180910A0190910B016B
:103710000E94EA2F6B017C01B501A016B1060CF4E2
:10372000B801601B710B072E000C880B990B0E94CF
:10373000EA2F20E030E040E85AE30E94DF3120E049
:1037400030E44CE955E40E94DF31A70196010E9464
:10375000522EA70196010E94512E9B01AC010E949E
:10376000522E4B015C0120EC36E44DEE5CE3C701C8
:10377000B6010E94DF316B017C012BE734E948E898
:1037800053E46091040170910501809106019091CC
:1037900007010E94522E29E038E045E051E40E94E2
:1037A000DF319B01AC01C701B6010E943A2F9B019A
:1037B000AC01C501B4010E943A2F0E94AA326B01EC
:1037C0007C018090070290900802A0900902B090BE
:1037D0000A029B01AC01C501B4010E94512E20E0F8
:1037E00030E040E05FE30E94DF31A70196010E94D4
:1037F000522E6B017C01809106028130B1F4C0929F
:103800000202D0920302E0920402F0920502A501A6
:103810009401C701B6010E94512E6093FE0170937E
:10382000FF018093000290930102C0920702D092A0
:103830000802E0920902F0920A0226E636E646E61F
:1038400050E4C701B6010E94DF310E94AC2FAB01EA
:10385000BC0187E10E9447155ACE833009F0AFC3FF
:1038600087E70E948F0C6091F40470E0605C7F4FEA
:1038700081E693E00E94F7040E94330C6091F30408
:1038800070E080E090E00E94B6160E9428166FABB0
:1038900078AF89AF9AAF0E94F0162091EF04309173
:1038A000F004890120E030E0322F212F102F002773
:1038B0002B013C01401A510A620A730AE091ED049F
:1038C000F091EE048090E9049090EA04940140E0C5
:1038D00050E060E070E080E090E000E10E945F3541
:1038E0006901E42E5BA36BA7872E982E9FA7BF01CB
:1038F00080E090E0A30192010E944E345901F42E21
:10390000B52FF62FE72F8C01A0E00E94B4354CF4C0
:10391000AFE70E949F355901F42EB52FF62FE72F00
:103920008C0195014F2D5B2F6F2F7E2FC80107E073
:103930000E9478355901A42FF52FE62FF72E8C0120
:1039400096014E2D5BA16BA5782D892D9FA5CA2EC2
:10395000DF2EEE2E0E9496352BAF3FAF21964FAF54
:10396000219722965FAF229723966FAF23972496D5
:103970007FAF249725968FAF259726969FAF2697E2
:10398000E090E704F090E8046091EB047091EC049F
:1039900080E090E0A30192010E944E34D22E032FCA
:1039A000142FB52FF62FE72FB82EC92EA0E00E94B6
:1039B000B43584F421503F4F4F4F5F4F6F4F7F4FCF
:1039C0008F4F9F4FD22E032F142FB52FF62FE72F97
:1039D000B82EC92E2D2D302F412F5B2F6F2F7E2F0C
:1039E0008B2D9C2D08E00E9478352BA33BA74A0124
:1039F000B62FA72FF82FE92FC12CD12C9701A601A4
:103A000060E070E080E090E00FE00E945F355901D7
:103A10006A017B018C012BA13BA5A4016B2F7A2F9E
:103A20008F2F9E2F0E94963527962FAF2797289687
:103A30003FAF289729964FAF29972A965FAF2A97CD
:103A40002B966FAF2B972C967FAF2C972D968FAF21
:103A50002D972E969FAF2E976091F1047091F204EE
:103A600080E090E0A30192010E944E34F22E032FD9
:103A7000142FB52FF62FE72FD82EE92EA0E00E94A5
:103A8000B43584F42150310940485F4F6F4F7F4F68
:103A90008F4F9F4FF22E032F142FB52FF62FE72FA6
:103AA000D82EE92E2F2D302F412F5B2F6F2F7E2FF9
:103AB0008D2D9E2D07E10E94783549015A0195010F
:103AC00084010053184F2F4F3F4F0FA718AB29AB5E
:103AD0003AAB1092F9041092FA041092FB0410927F
:103AE000FC041092FD041092FE041092FF04109248
:103AF0000005109201051092020510920305109224
:103B00000405109205051092060510920705109203
:103B10000805003D1740210531050CF0BFC0A50187
:103B20009401C501B4010E948B339B01AC01A5E057
:103B3000B0E00E94E2338B019C01359527951795E3
:103B400007950BA31CA32DA33EA32B013C01770CCF
:103B50004408542C32010093F9041093FA04209382
:103B6000FB043093FC044092FD044092FE0440921A
:103B7000FF04409200059B01AC0112E0559547956A
:103B8000379527951A95D1F72BA73CA74DA75EA788
:103B900020930105309302054093030550930405DB
:103BA000409205054092060540920705409208059F
:103BB0000FA518A929A93AA904321A4F2F4F3F4F30
:103BC0000CF06CC0C501B4016455724F8F4F9F4F0C
:103BD0009B01AC010E948B336FA778AB89AB9AAB8A
:103BE000A7E0B0E09B01AC010E94E2334B015C0115
:103BF000BB0C8808982C54019B01AC01682D782DD2
:103C0000882D982DABA0BCA0CDA0DEA0E42CF42C78
:103C1000042D142D0E9496352093F9043093FA0454
:103C20004093FB045093FC046093FD047093FE04E6
:103C30008093FF0490930005ABE0B0E02FA538A976
:103C400049A95AA90E94E2334B015C01B594A7949B
:103C5000979487946B017C01FF0CCC08DC2C7601D7
:103C60009401A5016C2D7C2D8C2D9C2DABA4BCA4A6
:103C7000CDA4DEA4E42CF42C0E94963520930105FB
:103C800030930205409303055093040560930505A6
:103C900070930605809307059093080527962FAD2E
:103CA000279728963FAD289729964FAD29972A96B2
:103CB0005FAD2A972B966FAD2B972C967FAD2C97E7
:103CC0002D968FAD2D972E969FAD2E97A090010526
:103CD000B0900205C0900305D0900405E090050562
:103CE000F090060500910705109108050E94AB357C
:103CF000CFA8D8ACE9ACFAAC56016701E12CF12CA5
:103D00008701ABA2BCA2CDA2DEA2EFA2F8A609A7B2
:103D10001AA7E12CF12C00E010E00E94F533F22EFE
:103D2000032F142FB52FF62FE72FD82EE92EA0E062
:103D30000E94B43584F421503109404E5F4F6F4FDB
:103D40007F4F8F4F9F4FF22E032F142FB52FF62F3B
:103D5000E72FD82EE92E2F2D302F412F5B2F6F2FDD
:103D60007E2F8D2D9E2D05E10E94783539014A0167
:103D7000B62FA72FF82FE92F2BAD3FAD21964FADD2
:103D8000219722965FAD229723966FAD23972496B5
:103D90007FAD249725968FAD259726969FAD2697C4
:103DA000A090F904B090FA04C090FB04D090FC04F9
:103DB000E090FD04F090FE040091FF0410910005D6
:103DC0000E94AB3559016A017B018C019301A4016A
:103DD0006B2F7A2F8F2F9E2F0E94AB35F22E032F41
:103DE000142FB52FF62FE72FD82EE92EA0E00E9432
:103DF000B43584F4215030484F4F5F4F6F4F7F4FA1
:103E00008F4F9F4FF22E032F142FB52FF62FE72F32
:103E1000D82EE92E2F2D302F412F5B2F6F2F7E2F85
:103E20008D2D9E2D0FE00E947835B901CA01209397
:103E300008017093090140930A0190930B010E94BD
:103E4000EA2F20E836EE45EC57E40E943A2F2BEAA1
:103E50003CED42E45EE30E944C329B01AC0160E029
:103E600070E080E89FE30E94512E20E03AE24DE2AC
:103E700057E40E94DF3120E030E048EC52E40E9439
:103E8000DF310E94AC2F4B015C010E94F0162091A3
:103E9000EF043091F004890120E030E0322F212F2F
:103EA000102F00272B013C01401A510A620A730AA5
:103EB0006091F1047091F20480E090E0A30192011E
:103EC0000E944E34F22E032F142FB52FF62FE72F1A
:103ED000D82EE92EA0E00E94B43584F42150310997
:103EE00040485F4F6F4F7F4F8F4F9F4FF22E032FF2
:103EF000142FB52FF62FE72FD82EE92E2F2D302F88
:103F0000412F5B2F6F2F7E2F8D2D9E2D07E10E945D
:103F100078352BA33CA34DA35EA36FA378A789A7F5
:103F20009AA7CBA0DCA0EDA0FEA000EDC00E07E09C
:103F3000D01EE11CF11C10EDC11617E0D106E10402
:103F4000F1044CF01092F5041092F6041092F7046C
:103F50001092F80413C0A3019201C301B2010E94A0
:103F60008B3320E030E0A9010E94BD332093F5049B
:103F70003093F6044093F7045093F8048091F504CD
:103F80009091F604A091F704B091F804A70196016E
:103F9000281B390B4A0B5B0BCA01B9010E94EA2F9F
:103FA00020E030E048EC52E40E943A2F6093040194
:103FB00070930501809306019093070143C10E940D
:103FC000980F0E94AC2F60930801709309018093B1
:103FD0000A0190930B010E94980F20E030E048EC1A
:103FE00052E40E943A2F20E030E54DE754E40E946D
:103FF0003A2F21E03EED42E45EE30E944C329B0109
:10400000AC0160E070E080E89FE30E94512E20E068
:104010003AE24DE257E40E94DF3120E030E048EC24
:1040200052E40E94DF310E94AC2F4B015C010E94E0
:10403000100F609304017093050180930601909323
:10404000070180916D03823009F0FCC00E94100FBF
:104050008DEF0E94670D6C01E12CF12CC11430E84A
:10406000D306E104F10409F4DCC080917903909156
:104070007A03A0917B03B0917C038C019D011C52BB
:10408000214031090BA31CA32DA33EA34EE0CC0C71
:10409000DD1CEE1CFF1C4A95D1F78091990390918D
:1040A0009A03092E000CAA0BBB0B54E1880F991F31
:1040B000AA1FBB1F5A95D1F7C81AD90AEA0AFB0AE8
:1040C000A0919B03B0919C03A90198010E94ED333C
:1040D000C61AD70AE80AF90A10E4D10EE11CF11C4D
:1040E0006FE0F594E794D794C7946A95D1F7A091BF
:1040F0009803B0E00E94E2332B013C017BE0759411
:104100006794579447947A95D1F720E8520E611C32
:10411000711CA0919D030A2E000CBB0B2BA13CA18E
:104120004DA15EA10E94ED33EAE0959587957795C4
:104130006795EA95D1F7A30192010E948B33DC01C8
:10414000CB01FAE0B595A79597958795FA95D1F7A4
:104150009C01AD01405E5F4FA0919603B091970323
:104160000E94ED33DC01CB01905EAF4FBF4FBC012D
:10417000CD01AEE09595879577956795AA95D1F78E
:10418000A70196010E948B336B017C01BFE09595DE
:10419000879577956795BA95D1F79B01AC010E94F9
:1041A0008B339B01AC0117E05595479537952795C3
:1041B0001A95D1F7A0919503B0E00E94E233DC019B
:1041C000CB0104E0B595A795979587950A95D1F70A
:1041D00097018601081B190B2A0B3B0BD901C8015B
:1041E00037FF03C080E090E0DC0181309105A1053C
:1041F00019E1B10724F080E090E0A0E0B9E1BC0152
:10420000CD013CE095958795779567953A95D1F7DF
:104210000E94EA2F20E030E040E85AE30E94DF31BC
:1042200004C060E070E080EC9FE720E030E040E216
:1042300051E40E94DF310E94AC2FAB01BC018FE042
:104240000E9447158091FA019091FB01A091FC0119
:10425000B091FD010097A105B10589F48092FA01A2
:104260009092FB01A092FC01B092FD018092F601B8
:104270009092F701A092F801B092F90126C0A50131
:104280009401281B390B4A0B5B0BCA01B9012AE0C8
:1042900030E040E050E00E94BD332093F2013093C3
:1042A000F3014093F4015093F501C501B40124E6F4
:1042B00030E040E050E00E94BD332093EE013093A7
:1042C000EF014093F0015093F1010E940B17009110
:1042D0000E0210910F0220911002309111026B0119
:1042E0007C01C01AD10AE20AF30A8091F60190918A
:1042F000F701A091F801B091F90195018401081B23
:10430000190B2A0B3B0BC901B8010E94EA2F2B01A4
:104310003C01C701B6010E94E82F9B01AC0160E09F
:1043200070E08AE794E40E943A2F9B01AC01C3013C
:10433000B2010E94DF310E94AC2F2B013C01809220
:10434000F6019092F701A092F801B092F9018091E4
:104350000602813041F4C092EA01D092EB01E09272
:10436000EC01F092ED01C090EA01D090EB01E090F9
:10437000EC01F090ED01D701C6010197A109B10947
:10438000873B9B40A105B10550F520E038E44FE1A3
:1043900056E46091020270910302809104029091B0
:1043A00005020E94DF312091FE013091FF01409112
:1043B0000002509101020E94DF314B015C01C701F4
:1043C000B6010E94E82F9B01AC01C501B4010E9417
:1043D0003A2F0E94AC2F460E571E681E791EC3014D
:1043E000B2010E94EA2F6B017C019B01AC0160913C
:1043F000E6017091E7018091E8019091E9010E9446
:10440000512E20916E0330916F03409170035091B3
:1044100071030E94DF31A70196010E94522E0E9473
:10442000AC2F6B017C010E94EA2F6093E601709330
:10443000E7018093E8019093E90180917203482F8E
:1044400050E060E070E04C155D056E057F054CF4B2
:10445000D701C601841B950BA60BB70BAC01BD01A0
:1044600017C090E0919581959109092E000CAA0B37
:10447000BB0BC816D906EA06FB063CF4B701A60139
:10448000481B590B6A0B7B0B03C040E050E0BA019C
:1044900086E00E9447154091080150910901609102
:1044A0000A0170910B018DE00E94471520E030E079
:1044B00040E251E460910401709105018091060190
:1044C000909107010E94DF310E94AC2FAB01BC012B
:1044D0008EE00E9447151FC80E94DC0B6FE00E940F
:1044E000E90B0E94EA2F20E030E04AE754E40E9402
:1044F0003A2F69837A838B839C8320E030E040E20B
:1045000051E40E94DF310E94AC2FAB01BC0180E17D
:104510000E944715153028F01C3030F088E592E0F5
:1045200005C080E090E002C084EC99E0E090E401F6
:10453000F090E501E80EF91E8EE00E949F16BC0186
:10454000990F880B990B0E94EA2F20E030E040E899
:104550005AE30E94DF3120E030E44CE955E40E9448
:10456000DF314B015C01B70180E090E00E94E82F51
:104570009B01AC01C501B4010E94512E6B017C016D
:10458000E12FF0E0E15EFE4F608170E080E090E0BE
:104590000E94EA2F9B01AC01C701B6010E943A2F8D
:1045A0006B017C016093E0017093E1018093E20173
:1045B0009093E30120E030E040E251E40E94DF31DB
:1045C0000E94AC2FAB01BC0181E10E9447152FEF87
:1045D0003FEF4FE951E4C701B6010E943A2F209105
:1045E000DC013091DD014091DE015091DF010E943C
:1045F000522E6093DC017093DD018093DE01909375
:10460000DF010E94AC2FAB01BC0182E10E94471583
:10461000809103018823A1F10E940B170091D8011A
:104620001091D9012091DA013091DB01DC01CB013D
:10463000801B910BA20BB30B81319742A105B105F1
:10464000F8F020E030E040E050E4C701B6010E94FD
:10465000302F18165CF06CED71E084E190E00E9460
:10466000AD0BB10188E190E00E94AD0B0E940B17E9
:104670006093D8017093D9018093DA019093DB01A4
:1046800029813A814B815C816091E0017091E10167
:104690008091E2019091E3010E94DF310E94AC2FF2
:1046A000AB01BC0183E10E9447150C94991A1D309F
:1046B00009F064C20C94461B1A3211F40C94461B88
:1046C0001C3209F05BC28091310481278093310450
:1046D0000C94461BF0E0ED5CFB4F1082809132049D
:1046E000882309F422C1209133043FEB320F822F3B
:1046F000022E000C990B363010F4C79707C02156D4
:10470000263018F48755910901C0C097282F2295AB
:10471000207F309134044FEB430F832F032E000C86
:10472000990B463010F4C79707C03156363018F44D
:104730008755910901C0C097820F90913104891368
:10474000DFC08091560490915704A0915804B09115
:1047500059040196A11DB11D8093560490935704EE
:10476000A0935804B093590480914504882399F08C
:1047700080914E0490914F04A0915004B091510447
:104780000196A11DB11D80934E0490934F04A093F8
:104790005004B0935104009142040023B9F1013058
:1047A00009F084C08FEC93E00E94B8078DED93E090
:1047B0000E94B80780914504882309F477C087E0F8
:1047C000EDEBF3E0AFEAB3E001900D928A95E1F7EB
:1047D00087E0E4ECF3E0A6EBB3E001900D928A955C
:1047E000E1F70E940B176093CB037093CC03809387
:1047F000CD039093CE030093AE030093AD038BEEF5
:1048000093E00E94A10789EF93E04EC08DED93E005
:104810000E94B80780914504882329F187E0EDEBD9
:10482000F3E0AFEAB3E001900D928A95E1F787E0FB
:10483000E4ECF3E0A6EBB3E001900D928A95E1F78A
:104840000E940B176093CB037093CC038093CD032E
:104850009093CE0381E08093AE038093AD0387E015
:1048600094E00E94A10780911F0490912004A091E0
:104870002104B091220480931B0490931C04A09304
:104880001D04B0931E040E940B17609317047093CD
:1048900018048093190490931A0481E080931604FD
:1048A0008093150483E294E00E94A107E0904804FD
:1048B000F090490401E0E114F10409F44DC1E091E4
:1048C0004804F091490466A177A1D70196968D918D
:1048D0009C9197970E941837892B09F03DC1B70129
:1048E000C70140960E9421370E940B17F70160A371
:1048F00071A382A393A305A304A3E2A4F3A4DBCF33
:104900008091520490915304A0915404B0915504A5
:104910000196A11DB11D8093520490935304A0935E
:104920005404B09355040C944A1B90914304911184
:1049300048C06CE771E083E394E00E941837892B4C
:1049400041F062E871E083E394E00E941837892B1C
:1049500011F481E014C068E871E083E394E00E9400
:104960001837892B41F06EE871E083E394E00E94F0
:104970001837892B19F41092420403C082E0809307
:104980004204809146049091470490934904809397
:104990004804E0904804F0904904E114F10411F453
:1049A0000C944A1B63E374E0D70196968D919C9119
:1049B00097970E94183797FF86C5F70182A593A5A0
:1049C000E4CFE0914204E23009F491C080913304D5
:1049D000882309F48CC000E2E09FF0011124E92B48
:1049E0003197E932F10508F082C0EC5CFF4F0C947E
:1049F000DC3383E394E00E943C096093E30370930B
:104A0000E4038093E5039093E60371C091E0813461
:104A100009F043C043C06DEB73E009C091E08335FA
:104A200009F090E09093C30362C064EC73E083E309
:104A300094E00E94B4085BC091E0873509F090E0F3
:104A40009093CA0354C083E394E00E943C096093AE
:104A5000F5037093F6038093F7039093F80347C030
:104A600083E394E00E943C09609303047093040480
:104A700080930504909306043AC083E394E00E9477
:104A8000F62D6093D5037093D6038093D70390934C
:104A9000D8032DC091E081330CF490E0909345044D
:104AA00026C083E394E00E94F62D60931F04709368
:104AB0002004809321049093220419C083E394E09E
:104AC0000E943C0960932D0470932E0480932F0460
:104AD000909330040CC083E394E00E943C096093FF
:104AE0001104709312048093130490931404E090C3
:104AF0004804F0904904E114F10411F40C944A1BA9
:104B0000E0914804F091490466A177A1D7019696F7
:104B10008D919C9197970E941837892B11F00C94D6
:104B20004A1BF70120A531A58091430490E082172C
:104B3000930714F40C944A1B2817390739F440E101
:104B400050E063E374E0C7010E942837D7019A96CA
:104B5000ED90FC909B97CFCF81E00C944B1B109273
:104B60004404109243041092310482E08093420482
:104B700010923204109245040C945B1BEE3040F40A
:104B800081E08E0F80934404F0E0ED5CFB4F1083D6
:104B90008091320481110C945B1B809131041827A1
:104BA000109331040C945B1B8091AD03882309F4AE
:104BB00049C60E940B170091CB031091CC032091A2
:104BC000CD033091CE03DC01CB01801B910BA20BF6
:104BD000B30B803D9740A105B10508F033C60E9494
:104BE000F9159B01AC0160E081E00E9460150E9414
:104BF000CA159B01AC0161E082E00E946015109231
:104C0000080460910D0470910E0480910F0490913E
:104C100010040E94EA2F20E030E048EC52E40E94A9
:104C20003A2F0E94AC2F6BA37CA38DA39EA360930D
:104C3000EE017093EF018093F0019093F101809168
:104C40000602823009F067C08091EC03882309F4E2
:104C500062C01092EC036091F1037091F2038091B5
:104C6000F3039091F4030E94EA2F26E53EE04DEE17
:104C70005FE30E94DF3120E030E048EC52E40E9424
:104C80003A2F26E636E646E650E40E943A2F6B01BC
:104C90007C0160930202709303028093040290935C
:104CA00005022091D1013091D2014091D301509160
:104CB000D4010E94512E6093FE017093FF018093F6
:104CC000000290930102C092D101D092D201E092F1
:104CD000D301F092D4010E940B170091CD011091E5
:104CE000CE012091CF013091D0015B016C01A01A5F
:104CF000B10AC20AD30AA092EA01B092EB01C092B3
:104D0000EC01D092ED016093CD017093CE018093C0
:104D1000CF019093D0011092EC036091F103709158
:104D2000F2038091F3039091F4030E94EA2F26E5A9
:104D30003EE04DEE5FE30E94DF3120E030E048ECE2
:104D400052E40E943A2F0E94AC2FAB01BC0183E0D9
:104D50000E9447151092FA036091FF0370910004BE
:104D600080910104909102040E94EA2F20E030E03B
:104D700048EC52E40E943A2F0E94AC2FAB01BC01D8
:104D800089E00E9447158091CB019091CC01883B2E
:104D90000BE090070CF0A1C301969093CC01809397
:104DA000CB010E94F9156B017C016093C7017093E0
:104DB000C8018093C9019093CA010E94CA156093EB
:104DC000C3017093C4018093C5019093C601C09242
:104DD000BF01D092C001E092C101F092C201609384
:104DE000BB017093BC018093BD019093BE011092F2
:104DF000080460910D0470910E0480910F0490914D
:104E000010040E94EA2F20E030E048EC52E40E94B7
:104E10003A2F0E94AC2F6093B7017093B801809332
:104E2000B9019093BA011092B3011092B40110929B
:104E3000B5011092B60120916D03211108C0609355
:104E4000FA017093FB018093FC019093FD01109295
:104E5000160440911B0450911C0460911D04709134
:104E60001E048BE00E9447151092240440912904EF
:104E700050912A0460912B0470912C048CE00E94C4
:104E800047156091B3017091B4018091B501909183
:104E9000B6012AE030E040E050E00E949B33BA01C6
:104EA000A90188E00E9447154BA95CA96DA97EA9BC
:104EB00087E00E9447154091F2015091F301609103
:104EC000F4017091F50184E00E9447154091EE01D4
:104ED0005091EF016091F0017091F10185E00E9425
:104EE00047158091A0049091A104DC01ED91FC9103
:104EF0000480F581E02D0995082F811105C080916E
:104F00000001882309F42FC20E940B17C090AF0143
:104F1000D090B001E090B101F090B2016C157D0528
:104F20008E059F0508F41FC20E940B17DC01CB0100
:104F300088539F4FAF4FBF4F8093AF019093B00105
:104F4000A093B101B093B20111E021E1F22E003E35
:104F500071F48091AD019091AE018F3091050CF00C
:104F600013C101969093AE018093AD010BC1003740
:104F700081F48091AD019091AE01181619060CF0E4
:104F800003C101979093AE018093AD01109300018E
:104F900000C1003D09F0EBC0E091AD01F091AE0120
:104FA0003297E930F10508F0EDC0E35AFF4F0C9459
:104FB000DC3380910101882309F4E4C0815085C06D
:104FC00080906E0390906F03A0907003B090710377
:104FD00020E030E040E85FE3C501B4010E94302FDB
:104FE00087FFD0C020E030E048EC52E4C501B401B6
:104FF0000E94DF3120E030E040E85FE30E94522E63
:1050000087C080917203843608F0BCC08F5F94C063
:1050100080910D02882309F4B5C0815080930D0260
:10502000B1C080910602882309F4ACC081508CC0C5
:105030008091AC01882309F4A5C081508DC0809176
:105040000301882309F49EC081508EC00E94100C79
:10505000E091AC01EE2381F1F0E0E15EFE4F608172
:1050600070E080E090E00E94EA2F2091E001309112
:10507000E1014091E2015091E3010E94DF314B01D7
:105080005C016091E4017091E501072E000C880B32
:10509000990B0E94EA2F9B01AC01C501B4010E944B
:1050A000522E0E94AC2F6093E4017093E501615889
:1050B00084E090E00E94D80BE0E0F0E00995809158
:1050C0000101823008F05EC08F5F809301015AC0F9
:1050D00080906E0390906F03A0907003B090710366
:1050E00020E030E0A901C501B4010E944E3118163C
:1050F0000CF048C020E030E048EC52E4C501B401B7
:105100000E94DF3120E030E040E85FE30E94512E52
:1051100020E030E048EC52E40E943A2F60936E03A6
:1051200070936F0380937003909371032BC08091F1
:105130007203882339F181508093720323C08091D8
:1051400006028230F8F48F5F809306021BC08091C4
:10515000AC018F30B8F48F5F8093AC0113C08091A5
:105160000301823078F48F5F809303010BC0003B12
:1051700059F4E091AD01F091AE013197EF30F105B6
:1051800008F499C31093000180910001882309F469
:10519000EAC01A8A19828091AD019091AE01F89E01
:1051A000B001F99E700D112468577C4F40E150E02A
:1051B000CE0142960E941D2EE091AD01F091AE010C
:1051C000EE30F105B0F4EA59FF4F0C94DC3340E1C6
:1051D00050E067E773E00AC060910101FAE06F9F59
:1051E000B0011124675A7C4F40E150E0C1010E9498
:1051F0001D2E9E012E5E3F4FA2ECB4E062ED74E0E6
:1052000080E040E287C080910101882309F49FCEAD
:105210006091020104E0609FB00111246F5A7C4F3D
:10522000E3CF60916D0319E0619FB00111246C5DC3
:105230007C4FDACF80916D03882309F488CE20E07B
:1052400030E048EC52E460916E0370916F038091FE
:105250007003909171030E94DF310E94AC2F7F9305
:105260006F9384E991E00BC080916D03882309F46A
:105270006ECE809172031F928F938BE991E09F9382
:105280008F933F922F920E9437370F900F900F907D
:105290000F900F900F90ADCF60910D022AE0629FAA
:1052A000B001112434C0609106023BE0639FB0015D
:1052B000112461517D4F98CF6091AC0140E1649F12
:1052C000B001112461517E4F8FCF8091AC018823B2
:1052D00009F43DCE6091030159E0659FB0011124AE
:1052E0006C527E4F81CF6091D7018AE0689FB001F8
:1052F00011240DC06091D6019AE0699FB00111247C
:1053000006C06091D501AAE06A9FB0011124605FD8
:105310007C4F6ACFF90191919F01992321F081116E
:1053200002C09C9302C04C9381E01196F4E0A23D30
:10533000BF0781F7DE01119680E020E29D91FB011D
:10534000992321F0811102C0908302C0208381E063
:105350006F5F7F4F92EEA92E94E0B92EA616B70686
:1053600069F710920001C0905A04D0905B04E0905D
:105370005C04F0905D0406E9C00ED11CE11CF11C38
:105380000E940B176C157D058E059F0510F40C947B
:105390005B1B0E940B1760935A0470935B0480930D
:1053A0005C0490935D048091E304882351F1809123
:1053B000A0049091A104DC01ED91FC910280F381A5
:1053C000E02D40E06EE709958091A0049091A10442
:1053D000DC01ED91FC910280F381E02D41E061E977
:1053E00009958091A0049091A104DC01ED91FC91BC
:1053F0000280F381E02D41E061E309951092E3041E
:105400005EC01091E204112309F44BC0E12E012E7D
:10541000000CFF08C7010E94F936892B31F0C70143
:105420000E940037182F00E001C001E08091A00425
:105430009091A104DC01ED91FC910280F381E02DBB
:1054400040E06EE709958091A0049091A104DC01F1
:10545000ED91FC910280F381E02D41E062E009953D
:105460008091A0049091A104DC01ED91FC91028057
:10547000F381E02D002311F063E201C062E241E01C
:1054800009958091A0049091A104DC01ED91FC911B
:105490000280F381E02D41E0612F09951092E20432
:1054A0000EC08091740490917504892B41F0809115
:1054B0005E0491E0980F90935E040E9412130E9484
:1054C000E4110C945B1B892B11F40C944A1B109271
:1054D0004904109248040C944A1B80916D03811179
:1054E0001CC08091FA019091FB01A091FC01B09148
:1054F000FD012BA13CA14DA15EA1281B390B4A0B3C
:105500005B0BAAE0B0E00E94E2336093F20170937B
:10551000F3018093F4019093F5014090C301509002
:10552000C4016090C5017090C6012091C7013091FF
:10553000C8014091C9015091CA012BA73CA74DA7B2
:105540005EA70E94CA156BAB7CAB8DAB9EAB0E9475
:10555000F91563015201EBA4FCA40DA51EA52BA90E
:105560003CA94DA95EA90E94CF070E94B32F6BAB47
:105570007CAB8DAB9EAB309102013FA73323C1F1D1
:105580006091F2017091F3018091F4019091F50125
:105590002AE030E040E050E00E94BD33CA01B9018A
:1055A0000E94EA2F4B015C016BA97CA98DA99EA9E1
:1055B0000E94E82F6B017C01A5019401C501B40193
:1055C0000E94DF314B015C01A7019601C701B601C2
:1055D0000E94DF319B01AC01C501B4010E94522E33
:1055E0000E94AA320E94B32F6BAB7CAB8DAB9EABFB
:1055F0000E94CA154B015C010E94F9156B017C01E8
:10560000A3019201C501B4010E94512E25E33AEF96
:105610004EE85CE30E94DF314B015C0125E33AEF89
:105620004EE85CE36BA57CA58DA59EA50E94DF31AD
:105630002B013C0125E33AEF4EE85CE3C701B601DC
:105640000E94DF316B017C01C501B4010E949C32D4
:105650006FAB78AF89AF9AAFC701B6010E94352F03
:105660006BA77CA78DA79EA7C301B2010E949C32A5
:105670006BAF7CAF8DAF9EAFC501B4010E94352FDB
:105680004B015C012BAD3CAD4DAD5EAD6BA57CA57A
:105690008DA59EA50E94DF31A50194010E94DF31F6
:1056A0004B015C01C301B2010E94352F2B013C016B
:1056B000C701B6010E949C329B01AC01C301B2013B
:1056C0000E94DF31A50194010E94512E6B017C01E3
:1056D0002BA53CA54DA55EA56FA978AD89AD9AAD6A
:1056E0000E94DF31A70196010E94D12E6B017C013F
:1056F00020E030E0A9010E94302F87FF0AC02BED87
:105700003FE049EC50E4C701B6010E94522E6B0104
:105710007C0121EE3EE245E652E4C701B6010E945B
:10572000DF310E94AC2FAB01BC018AE00E9447151B
:10573000A090BB01B090BC01C090BD01D090BE0153
:10574000E090BF01F090C0010091C1011091C20131
:10575000EBA6FCA60DA71EA70E94CA152B013C01B3
:105760000E94F915EBA4FCA40DA51EA5A3019201AE
:105770000E94CF076B017C010FA50023B1F180913E
:10578000B7019091B801A091B901B091BA012BA1D4
:105790003CA14DA15EA1281B390B4A0B5B0BCA0132
:1057A000B9010E94EA2F9B01AC010E94DF314B013D
:1057B0005C01A7019601C701B6010E94DF319B0180
:1057C000AC01C501B4010E94522E0E94AA326B01A5
:1057D0007C018BA19CA1ADA1BEA18093B701909348
:1057E000B801A093B901B093BA016091B30170916F
:1057F000B4018091B5019091B6010E94E82FA701F4
:1058000096010E94522E0E94B32F6093B3017093B1
:10581000B4018093B5019093B6010E94F91560938D
:10582000BF017093C0018093C1019093C2010E9497
:10583000CA156093BB017093BC018093BD01909326
:10584000BE0105CB20E030E0A90160E081E00E94CC
:10585000601520E030E0A90161E082E00E9460155F
:1058600080916D03811108C01092F2011092F30132
:105870001092F4011092F5011092EE011092EF01D6
:105880001092F0011092F10140E050E0BA018AE07C
:105890000E94471540E050E0BA0183E00E9447159E
:1058A00040E050E0BA0189E00E9447151BAA1CAAFB
:1058B0001DAA1EAACCCAEC58FF4F0C94DC33809171
:1058C00002018127809302015DCC80910D0281113C
:1058D00059CC10930D0256CC8091D701812780932B
:1058E000D70150CC8091D60181278093D6014ACC34
:1058F0008091D50181278093D50144CC609101012D
:1059000081E090E00E94D80B6091020182E090E07B
:105910000E94D80B6091AC0183E090E00E94D80B0C
:105920006091030185E090E00E94D80B6091D7015F
:1059300086E090E00E94D80B6091D60187E090E06D
:105940000E94D80B6091D50188E090E00E94D80BAE
:1059500020E030E048EC52E460916E0370916F03F8
:1059600080917003909171030E94DF310E94AC2FEF
:105970008AE090E00E94D80B609172038CE090E086
:105980000E94D80B60910D028DE090E00E94D80B30
:10599000609106028EE090E00E94D80BE0E0F0E01B
:1059A0000995C12CD12C6FEFC6010E94D80BFFEFD7
:1059B000CF1ADF0A22E3C216D104A9F70E94100C05
:1059C000E0E0F0E00995DECB85E691E09093A2035C
:1059D0008093A10380916F008B7F80936F008091F3
:1059E0006F008F7D80936F008091A5018093A60149
:1059F0008091A4018111FCCF80916F008D7F8093F5
:105A00006F000895CF92DF92EF92FF92E1E6F3E00C
:105A10001382128288EEC82E83E0D82EE12CF12C5E
:105A2000C482D582E682F78283E591E09183808308
:105A3000EAE5F4E010821182128213821482118E40
:105A4000138E128E158E148E178E168E10A211A222
:105A50001092A1041092A0041092E2041092E304A8
:105A600086E78093E40482E38093E504158244E0B2
:105A700050E06FEF70E08CE994E00E94113780E213
:105A8000ECE7F4E0DF011D928A95E9F7EDEAF3E037
:105A9000108211821382128214821582168217825A
:105AA000108612861186138614861586168617862A
:105AB000118A108A128A138A148A158A168A108EFD
:105AC000178A118E128E138E148E158E12A213A2A7
:105AD00014A215A216A217A210AA11AA12AA13AAFA
