:100000000C9445030C946D030C946D030C946D03D8
:100010000C946D030C946D030C946D030C946D03A0
:100020000C946D030C946D030C946D030C946D0390
:100030000C946D030C946D030C946D030C946D0380
:100040000C948A0F0C946D030C94050E0C943C0ECA
:100050000C948D0E0C946D030C946D030C946D0335
:100060000C94D70C0C946D038B1C9E1C901CA71C2D
:10007000C11CDB1CE21CEB1CF41C021D091D101D25
:10008000D31B661C0C1C3B1C5520431C4B1C531CD7
:100090005C20622068206E20B52008000000BE921F
:1000A0002449123EABAAAA2ABECDCCCC4C3E0000BD
:1000B0000080BEABAAAAAA3E00000000BF0000005C
:1000C000803F0000000000084178D3BB4387D11374
:1000D0003D190E3CC3BD4282AD2B3E68EC8276BE1C
:1000E000D98FE1A93E4C80EFFFBE01C4FF7F3F00E6
:1000F0000000000007634236B79BD8A71A3968563C
:1001000018AEBAAB558C1D3CB7CC5763BD6DEDFD39
:10011000753EF6177231BF000000803F20537461B6
:100120007274757000204175746F00000000204DDE
:10013000616E75616C00002044697361626C656476
:1001400000000000000000204174746F50696C6F63
:1001500074203435000000204174746F50696C6F56
:1001600074203930000000204174746F50696C6F46
:10017000742031383000002041504D322E35203966
:1001800030412F35305600204143533735382D3517
:1001900030420000000000204143533735382D31F4
:1001A00030304200000000204143533735382D31B4
:1001B00035304200000000204143533735382D329E
:1001C00030304200000000204143533735382D3590
:1001D00030550000000000204143533735382D31A1
:1001E00030305500000000204143533735382D3161
:1001F00035305500000000204143533735382D324B
:10020000303055000000002044697361626C656401
:1002100000002041697220737065656400204750BA
:1002200053000000000000002044697361626C65A7
:10023000640020456E61626C6564000020756E6B21
:100240006E6F776E0020424D5032383000002042F1
:100250004D453238300000204D53353631310000E5
:10026000204C5053000000000056657273696F6E99
:100270002056322E332E33000000566172696F47CC
:1002800050532053656E736F72000052657365742E
:10029000206F66667365740000000000507265731D
:1002A000737572652073656E736F723A0056617272
:1002B000696F20736D6F6F7468696E673A0056617D
:1002C00072696F20646561647A6F6E653A000041FF
:1002D00069722073706565643A00000000000000D8
:1002E000544543206D6F64653A0000000000000033
:1002F000004D61696E2064726976653A0000000005
:10030000000043617061636974792072657365747C
:100310003A000052783120766F6C746167653A005C
:100320000000000052783220766F6C746167653A85
:1003300000000000004578742E2054656D703A006E
:100340000000000000005361766520616E64207239
:10035000657374617274004C6F61642064656661DA
:10036000756C74730000000000000000240027007A
:100370002A00014C61746974756465000000000016
:100380000000000000000020000000000000090044
:10039000024C6F6E676974756465000000000000B0
:1003A00000000000002000000000000009000347DA
:1003B0005053207370656564000000000000000069
:1003C0000000006B6D2F6800000001000452656C96
:1003D0002E20416C746974000000000000000000D1
:1003E000006D0000000000000401054162732E2032
:1003F000416C746974000000000000000000006D92
:10040000000000000000040006566172696F0000E1
:10041000000000000000000000000000006D2F73CD
:100420000000000004020744697374616E63650094
:1004300000000000000000000000006D000000004F
:100440000000040008547269700000000000000001
:100450000000000000000000006B6D0000000000C4
:10046000040209417A696D7574680000000000009B
:1004700000000000000000B00000000000000100CB
:100480000A436F75727365000000000000000000F1
:100490000000000000B000000000000001000B534D
:1004A0006174656C6C697465730000000000000085
:1004B0000000002000000000000000000C48444F35
:1004C00050000000000000000000000000000000DC
:1004D000002000000000000001020D416972207040
:1004E000726573732E0000000000000000000068B9
:1004F00050610000000004020E54656D702E000073
:1005000000000000000000000000000000B04300F8
:100510000000000001010F48756D6964697479007D
:1005200000000000000000000000002572480000EC
:100530000000010110566F6C7461676500000000D7
:100540000000000000000000005600000000000055
:1005500001011143757272656E74000000000000A5
:100560000000000000000041000000000000010148
:10057000124361706163697479000000000000003B
:1005800000000000006D41680000000004001350EE
:100590006F7765720000000000000000000000009E
:1005A00000000057000000000000040014527831E1
:1005B00020566F6C74616765000000000000000049
:1005C000005600000000000001021552783220564B
:1005D0006F6C746167650000000000000000005649
:1005E0000000000000000102164578742E205465BA
:1005F0006D700000000000000000000000B043002B
:100600000000000001011741697220737065656484
:1006100000000000000000000000006B6D2F68006B
:1006200000000100000000000000000000000000C9
:1006300000000000000000000000000000000000BA
:10064000000000000000250028002B000404040422
:10065000040404040202020202020303030303036C
:100660000102040810204080010204081020010249
:100670000408102000000008000201000003040725
:100680000000000000000000C82011241FBECFEFB2
:10069000D8E0DEBFCDBF11E0A0E0B1E0E0ECF7E5CF
:1006A00002C005900D92A237B107D9F723E0A2E767
:1006B000B1E001C01D92AC3BB207E1F713E0C5E425
:1006C000D3E004C02197FE010E94D125C434D10794
:1006D000C9F70E94D40F0C94DE2B0C94000090916B
:1006E00024029111FCCF91E0909324029093230275
:1006F0002FEF2093220210922102260F2093200236
:100700009093FF019091FF01880F892B8093FF0147
:100710008091FE01813061F41092FE018091FF0111
:100720008093BB008091BC0083FDF8CF85EC01C0B5
:1007300085EE8093BC00809124028130E1F38091AA
:100740002102861710F460912102A0E0B2E0EEEDE4
:10075000F1E080E0861721F09D9191938F5FFACFB1
:10076000089590E0FC01EC58F94F2491FC01E05A07
:10077000F94F3491FC01E45BF94FE491EE23B1F1C0
:10078000222339F1233091F038F42130A9F02230BE
:1007900001F584B58F7D12C0273091F02830A1F08B
:1007A0002430B9F4809180008F7D03C08091800057
:1007B0008F77809380000DC084B58F7784BD09C08A
:1007C0008091B0008F7703C08091B0008F7D8093BF
:1007D000B000F0E0EE0FFF1FEE5BF94FA591B49172
:1007E0008FB7F894EC91E32BEC938FBF08956132AF
:1007F00008F060E20E946F031092DD018093DC013B
:10080000089530914702313208F04BC080912402A4
:100810008111FCCF9091690322E02093240221E012
:10082000209323022FEF2093220210922102309373
:100830002002E7E2F2E0A0E0B2E020E0321721F08F
:1008400041914D932F5FFACF1092FF012091FF014C
:10085000990F922B9093FF019091FE01913061F4DA
:100860001092FE019091FF019093BB009091BC000B
:1008700093FDF8CF95EC01C095EE9093BC0090915C
:1008800024029230E1F3909122029F3F79F080910F
:100890002202803241F080912202803331F084E0E4
:1008A00005C081E003C082E001C083E0109226020F
:1008B0001092470210922502089591E0909325022C
:1008C0008093690310922602109247020895CF93F5
:1008D000DF93D82FC62F80915A020E945D046D2F9E
:1008E00088E492E00E94E30B6C2F88E492E00E947F
:1008F000E30BDF91CF910C9401041F93CF93DF930F
:10090000182FCAE5D2E088810E945D04612F88E437
:1009100092E00E94E30B0E94010461E088810E9442
:10092000F70388E492E00E949A0BDF91CF911F9128
:1009300008958F929F92AF92BF92CF92DF92EF92E3
:10094000FF92CF93DF93F82ECAE5D2E088810E9410
:100950005D046F2D88E492E00E94E30B0E94010485
:1009600063E088810E94F70388E492E00E949A0B7A
:100970004C01990FAA08BB08BA2CA92C982C8824E2
:1009800088E492E00E949A0B6C01990FEE08FF0830
:10099000C828D928EA28FB28FE2CED2CDC2CCC24F6
:1009A00088E492E00E949A0B092E000CAA0BBB0B64
:1009B000BC01CD016C297D298E299F29DF91CF9122
:1009C000FF90EF90DF90CF90BF90AF909F908F906F
:1009D00008951F93CF93DF93182FCAE5D2E0888143
:1009E0000E945D04612F88E492E00E94E30B0E9464
:1009F000010462E088810E94F70388E492E00E948B
:100A00009A0BC82F88E492E00E949A0B20E030E015
:100A10003C2F822B932BDF91CF911F9108950E9441
:100A2000E90498278927982708951092DD011092EC
:100A3000DC0110922602109247021092240281E0FB
:100A4000809323021092FE0182E10E94B10383E1B0
:100A50000E94B103E9EBF0E080818E7F808380818A
:100A60008D7F808380E28093B80085E48093BC0012
:100A700088E89BE09093DB018093DA0189E89BE0B2
:100A80009093D9018093D80108958F929F92AF924D
:100A9000BF92CF92DF92EF92FF920F931F938AEF54
:100AA0000E949904EAE5F2E00285138520E030E037
:100AB000C72ED82EE92EFF24E7FCFA94C01AD10ADB
:100AC000E20AF30ADC01CB0157E0B595A7959795AB
:100AD00087955A95D1F7000F111F221F331F4C0124
:100AE0005D01801A910AA20AB30AA5019401A485A6
:100AF000B5850E94E2254B015C017BE0B594A7948B
:100B0000979487947A95D1F7A7019601C701B6010A
:100B10000E94A2259B01AC01ACE055954795379505
:100B20002795AA95D1F7A685B7850E94E225DC0115
:100B3000CB011EE0B595A795979587951A95D1F7A6
:100B4000A5019401280F391F4A1F5B1F2683378395
:100B500040875187A5E0B0E00E94D725DC01CB019A
:100B600080589F4FAF4FBF4F692F7A2F8B2F9927F8
:100B700087FD9A950E94602220E030E048EC52E424
:100B80000E94B0211F910F91FF90EF90DF90CF90C6
:100B9000BF90AF909F908F9008952F923F924F9269
:100BA0005F926F927F928F929F92AF92BF92CF92FD
:100BB000DF92EF92FF920F931F93CF93DF93CDB706
:100BC000DEB76B970FB6F894DEBF0FBECDBF0E94A5
:100BD000450587EF0E9499046E8B7F8B888F998FD4
:100BE0008091600290916102A0916202B0916302D3
:100BF0006C017D01FF0CCC08DC2C76019C01AD0161
:100C00006C2D7C2D8C2D9C2D345F41405109610948
:100C100071098109910929873A874B87652E762EBC
:100C2000872E982E9B8F5901C42ED52EE62EF72E97
:100C3000082F192F0E94EA25322E232E488B598B1C
:100C40006A8B7B8B8C8B9D8B30916D0220916C021B
:100C5000932F990F990B492F592F692F792F892F8E
:100C60000E94EA250CE00E94542729833C874A8F82
:100C70005D876E877F87582E492E30916F022091B5
:100C80006E02932F990F990BA32CB22CC888D98888
:100C9000EA88FB880C891D89492F592F692F792FE4
:100CA000892F0E94EA2508E00E946D27A980BC8454
:100CB000CA8CDD84EE84FF84052D142D0E948B27C1
:100CC00070588F4F9F4FE0916A02F0916B025F0165
:100CD000C12CD12CE12CF12C8701E983BA82CB8283
:100CE000DC82ED82FE820F831887C12CD12CE12C8F
:100CF000F12C00E010E00E94EA2501E20E946D273D
:100D00002A8F532E49835C876D877E878F87492E74
:100D1000A0E00E94A92709F41EC13091750220911C
:100D20007402932F990F990BA32CB22CC888D988E1
:100D3000EA88FB880C891D89492F592F692F792F43
:100D4000892F0E94EA251901488B598B6A8B7B8B6E
:100D50008C8B9D8B3091730220917202932F990F8F
:100D6000990BA984BA84CB84D62CE72CF82C092DB6
:100D70001B8D492F592F692F792F892F0E94EA2522
:100D800001E10E9454275101C888D988EA88FB886C
:100D90000C891D890E948B2759016A017B01382E1D
:100DA000192F4E895F89688D798D84E075956795D7
:100DB000579547958A95D1F780E090E0A0E1B0E0A3
:100DC000841B950BA60BB70B3C014D01990C6608D3
:100DD000762C43019C01AD01662D762D862D962D36
:100DE0000FE10E945427722E832E942E5987B62F1E
:100DF000A72FF82FE92F3091710220917002932FC5
:100E0000990F990B492F592F692F792F892F03E2B9
:100E10000E945427032D0E948B2759016A017B01F0
:100E20008C01272D382D492D59856B2F7A2F8F2F27
:100E30009E2F0E94A027E5E3AE2EFCE0BF2EC12C22
:100E4000D12CE12CF12C00E010E00E94EA25AA8CC4
:100E5000B52CC980DC84ED84FE840F85142D0E949E
:100E60007F262F873E8749875A876B8779838C87B0
:100E70009D870DE00E946D27922E832E742E652E85
:100E8000562E472E382E292E30917B0220917A0241
:100E9000932F990F990BA92CB82CC72CD62CE52C85
:100EA000F42C032D122D492F592F692F792F892FBB
:100EB0000E94EA250E94EA2509E10E946D27AF847D
:100EC000BE84C984DA84EB84F9800C851D850E9478
:100ED0008B2719012A013B014C01309179022091A5
:100EE0007802932F990F990B492F592F692F792F3A
:100EF000892F0E94EA2503E10E946D2759016A01AA
:100F00007B018C019101A201B301C4010E948B27D6
:100F100008E00E946D2759016A017B01E82F192F13
:100F20003091770220917602932F990F990B492FD8
:100F3000592F692F792F892F04E00E9454270E2FF3
:100F40000E948B270E94582220E030E040E85BE3BB
:100F50000E94B32303C060E070E0CB016B960FB634
:100F6000F894DEBF0FBECDBFDF91CF911F910F91DF
:100F7000FF90EF90DF90CF90BF90AF909F908F90B9
:100F80007F906F905F904F903F902F900895DF92E9
:100F9000EF92FF920F931F93CF93DF93CDB7DEB7FE
:100FA0006E970FB6F894DEBF0FBECDBF8C01DC018B
:100FB0005A961C921E92599782E793E056969C93FC
:100FC0008E935597F8017D9680E2DF011D928A95F8
:100FD000E9F7D12CE12CF12CF801658976896E0DA9
:100FE0007F1D4EE150E0CE0101960E941F218981B4
:100FF0008823C9F0803220F4F801E80FF11DD58E66
:10100000D80159968D919C915A9701965A969C9326
:101010008E935997BEE1EB0EF11CD394E0ECEE16E3
:10102000E3E0FE06C9F66E960FB6F894DEBF0FBE7B
:10103000CDBFDF91CF911F910F91FF90EF90DF9087
:101040000895CF93C82F8091A1029091A202892B7D
:1010500021F488E892E00E94C707C032D0F4EC2F58
:10106000F0E0E857FD4F858DE82FF0E093E0F5952F
:10107000E7959A95E1F7E857FD4F282F277081E013
:1010800090E001C0880F2A95EAF7809595AD8923F5
:1010900085AF1092A4021092A302CF9108958132DD
:1010A00008F080E2682F87E70E946F031092DD014D
:1010B0008093DC010895862740E1849F90011124EC
:1010C0002827622F70E0562F4427292F30E0242B49
:1010D000352BCB0144E0959587954A95E1F7282774
:1010E0003927CB0153E0880F991F5A95E1F78227E2
:1010F00093270895EF92FF920F931F93CF93DF935F
:10110000CDB7DEB76E970FB6F894DEBF0FBECDBF7A
:10111000FC0112828FEF9FEFDC0183839483A58310
:10112000B68381E08783148E158E168E178E10A2DB
:10113000DB0193E0B595A7959A95E1F7A857BD4FC8
:10114000DD968C9190E09B012770332702C0959526
:1011500087952A95E2F7817099278783892B09F46F
:101160007FC07B018F012EE1269FC001279F900D3C
:10117000112460919D0270919E02680F791F4EE1CB
:1011800050E0CE0101960E941F218D8DF801868FBF
:1011900089818283B701660F771F660F771FE09101
:1011A0009F02F091A002E60FF71F80819181A2813A
:1011B000B381F80183839483A583B683A801485F34
:1011C0005F4FDE011296FA0130E08D91882329F0FD
:1011D000333129F03F5F8193F8CF832F01C083E142
:1011E000F801848F20E0732F720FE6E1F0E0EC0F3E
:1011F000FD1FE20FF11D6081872F90E0662341F013
:10120000733130F42F5FFA01E80FF91F6083EBCFE1
:10121000F801258FFA01E80FF91F10828E8D8130B9
:1012200021F0823029F480E401C080E2F801878F48
:10123000F801868D843091F030F4882361F081309C
:1012400079F483E00BC0883041F0893031F085308B
:1012500039F484E003C082E001C085E0F80180A396
:101260006E960FB6F894DEBF0FBECDBFDF91CF9163
:101270001F910F91FF90EF90089520919F02309160
:10128000A0022115310589F0803278F4E82FF0E0D2
:10129000E857FD4F858DF90194E0899FE00DF11D20
:1012A0001124408351836283738308951F93CF93E6
:1012B000DF9387E70E945D0460E088E492E00E948B
:1012C000E30B0E94010487E70E945D0483E090E045
:1012D0000E944F089091DC018091DD019817F1F395
:1012E00088E492E00E949A0B182F88E492E00E9412
:1012F0009A0BC82F88E492E00E949A0BD82F0E9484
:1013000001048C2F90E0A0E0B0E0BA2FA92F982F15
:101310008827A12BBC01CD016D2BDF91CF911F91AF
:101320000895CF93DF9390E0FC01E05AF94F2491A8
:10133000FC01E45BF94F84918823C1F090E0880FB1
:10134000991FFC01E859FC4FC591D491FC01EE5B5B
:10135000F94FA591B4919FB7F8948881322F3095B9
:1013600083238883EC91E22BEC939FBFDF91CF9195
:1013700008958E3008F08E508770806480937C00D2
:1013800080917A00806480937A0080917A0086FD53
:10139000FCCF809178002091790090E0922B089505
:1013A0008F929F92AF92BF92CF92DF92EF92FF9275
:1013B0006B017C010E94590F4B015C01C114D104E7
:1013C000E104F104F1F00E94590FDC01CB0188190E
:1013D0009909AA09BB09883E9340A105B10570F39C
:1013E00021E0C21AD108E108F10888EE880E83E0F6
:1013F000981EA11CB11CC114D104E104F10419F719
:10140000DDCFFF90EF90DF90CF90BF90AF909F9097
:101410008F900895CF9366EB80EE0E94670464E698
:1014200070E080E090E00E94D00988E80E940F05FB
:1014300090936502809364028AE80E940F0590935E
:101440006702809366028CE80E940F059093690200
:10145000809368028EE80E940F0590936B02809340
:101460006A0280E90E940F0590936D0280936C02DE
:1014700082E90E940F0590936F0280936E0284E9C7
:101480000E940F05909371028093700286E90E947A
:101490000F05909373028093720288E90E940F05F2
:1014A00090937502809374028AE90E940F059093CD
:1014B0007702809376028CE90E940F05909379025F
:1014C000809378028EE90E940F0590937B028093AF
:1014D0007A0280915B028230F1F581EA0E947D04FC
:1014E00080937C0281EE0E940F0590937E02809390
:1014F0007D0283EE0E947D0480937F0284EE0E9431
:101500007D04C82F85EE0E947D0440E1C49F9001B8
:1015100011248F70282B309381022093800286EE55
:101520000E947D04C82F85EE0E947D0490E1C99F32
:101530009001112490E044E0959587954A95E1F754
:10154000822B932B909383028093820287EE0E94DA
:101550007D048093840289ED8093860280918702C6
:101560008F7180628093870280918502807C806287
:101570008093850280915B02823021F461E082EFEA
:101580000E94670490918502692F677040E2649F12
:1015900090011124892F869586958695877048E05D
:1015A000849FB0011124622B732B97FB992790F92C
:1015B000692B85EF0E94670490918602692F6770FE
:1015C00080E2689F90011124892F869586958695E3
:1015D000877048E0849FB0011124622B732B929591
:1015E000969596959370692B84EFCF910C94670430
:1015F00080935A020E94150580ED0E947D04883573
:1016000021F0803641F482E001C081E080935B02EA
:101610000E940A0A02C010925B0280915B0290E075
:101620000895CF93DF9387E70E945D04C6EBD1E076
:101630006D8570E0605B7F4F88E492E00E94E30B71
:101640000E9401046C8570E080E090E00E94D00967
:10165000DF91CF910C945609CF92DF92EF92FF92D7
:101660000F931F93CF93DF936C017A018B01C0E03E
:10167000D0E0CE15DF0581F0D8016D918D01D60146
:10168000ED91FC910190F081E02DC6010995892B27
:1016900011F02196EECF7E01C701DF91CF911F910E
:1016A0000F91FF90EF90DF90CF90089585ED80939C
:1016B000BC008091BC0084FDFCCF109224020895F0
:1016C00040918C03262F30E0240F311D213231054B
:1016D000DCF4209124022430C9F4FC0180E090E085
:1016E000861758F430918C032191DC01A459BC4F2A
:1016F000A30FB11D2C930196F3CF80918C03680F3B
:1017000060938C0380E0089581E0089582E008955D
:10171000089508950895E091DD018091DC01E817B6
:1017200030F4F0E0E252FE4F808190E008958FEFB8
:101730009FEF08959091DD018091DC01981750F49E
:10174000E92FF0E0E252FE4F208130E09F5F90935E
:10175000DD0102C02FEF3FEFC90108958091DC0148
:1017600090E02091DD01821B91090895CF92DF92D4
:10177000EF92FF920F931F93CF93DF937C01CB01E6
:101780008A0120912502222389F0EB016B01C40E0E
:10179000D51ECC15DD0569F06991D701ED91FC915D
:1017A0000190F081E02DC7010995F3CF642F0E94CD
:1017B000600BC801DF91CF911F910F91FF90EF90C7
:1017C000DF90CF900895CF93DF931F92CDB7DEB710
:1017D0006983209125022223D1F0209147022032F3
:1017E00040F021E030E0FC013383228380E090E090
:1017F00015C080912602E82FF0E0E95DFD4F998148
:1018000090838F5F809326028093470205C061E03A
:10181000CE0101960E94600B81E090E00F90DF9175
:10182000CF910895089580E090E00895CF92DF92DF
:10183000EF92FF920F931F93CF93DF939C01EA01E6
:10184000F89450E06C0186E4C80ED11CF901EE5BFF
:10185000FF4F89010E5F1F4F852F90E08C179D076A
:10186000F8F4D6014C914034E0F4E080F180860F2A
:10187000971FDC018C91D7018C93D6018C918F5FDF
:101880008C938081918101968E179F0718F0402FCD
:10189000812F02C0482F892F408381835F5FDCCF77
:1018A000CE01F901E457FF4F2081211108C021E04A
:1018B00020832091C1002F7628622093C100789464
:1018C000DF91CF911F910F91FF90EF90DF90CF901C
:1018D0000895FC01E557FF4F2081222309F1F89478
:1018E000A0916A03B0916B03A757BF4F0D90BC91B5
:1018F000A02D4C912081215020833297208131816D
:101900002F5F3F4FBC0169577F4F2617370718F0ED
:10191000895B9F4F01C0C90191838083789401C086
:1019200040E0842F90E0089585579F4FFC0120816F
:1019300081E090E0211102C080E090E008950E94D3
:101940000729CF93DF93EC011092C00080E98093C8
:10195000C10086E08093C2001092C50083E08093AE
:10196000C40080E00E94910981E00E949109CE01AB
:101970000296FE01EE5BFF4F918380833296918346
:101980008083329610828B5B9F4FEF5BFF4F91837A
:1019900080833296918380833296108231961082B2
:1019A000D0936B03C0936A03DF91CF9108951F9288
:1019B0000F920FB60F9211242F933F934F935F9383
:1019C0006F937F938F939F93AF93BF93EF93FF9307
:1019D0008091B900887F803609F49CC068F5883210
:1019E00009F45BC090F4803109F454C038F48823C2
:1019F00009F4F6C0883009F44DC0F6C0883109F406
:101A00004CC0803209F45DC0EFC0803409F468C076
:101A100048F4803309F455C0883309F0E5C0809359
:101A20002202D8C0803509F44FC0883509F45DC062
:101A3000883409F0D9C0D6C0883909F4C7C0A8F4E1
:101A4000883709F467C038F4883609F463C08037F2
:101A500009F460C0C9C0883809F4B8C0803909F4F5
:101A60005FC0803809F0C0C05BC0803B09F486C00D
:101A700038F4803A09F466C0883A09F47FC0B4C0EB
:101A8000803C09F4A7C0883C09F4A4C0883B09F451
:101A90008AC0AAC08091FF0110C09091210280915C
:101AA0002002981770F5E091210281E08E0F80935B
:101AB0002102F0E0E050FE4F80818093BB0085EC76
:101AC00086C0809322028EC0E091210281E08E0FB9
:101AD000809321028091BB00F0E0E050FE4F8083B4
:101AE00090912102809120026EC0E091210281E05C
:101AF0008E0F809321028091BB00F0E0E050FE4FFA
:101B000080838091230281116DC081E08093FE016A
:101B100084EA61C083E0809324021092AE03CFCFA9
:101B20008091AE03803208F051C0E091AE0381E0B5
:101B30008E0F8093AE038091BB00F0E0E257FC4F24
:101B40008083BDCF85EC8093BC00109224028091ED
:101B5000AE03803230F4E091AE03F0E0E257FC4F88
:101B600010826091AE0370E0E091D801F091D9014C
:101B70008EE893E009951092AE0336C084E080931E
:101B8000240210928D0310928C03E091DA01F091FF
:101B9000DB01099580918C03811105C081E0809360
:101BA0008C0310926C03E0918D0381E08E0F809383
:101BB0008D03F0E0E459FC4F80818093BB0090914D
:101BC0008D0380918C03981708F479CF85E8809372
:101BD000BC000AC085EC8093BC001092240204C0B3
:101BE000109222020E94560BFF91EF91BF91AF918C
:101BF0009F918F917F916F915F914F913F912F9125
:101C00000F900FBE0F901F9018951F920F920FB656
:101C10000F9211242F933F938F939F93AF93BF9372
:101C2000EF93FF9320916A0330916B03F901E95719
:101C3000FF4FA081B1818091C6008C93D901A55737
:101C4000BF4F8C918F5F8C938081918101968E170D
:101C50009F0718F0C901895B9F4F91838083FF9193
:101C6000EF91BF91AF919F918F913F912F910F90E5
:101C70000FBE0F901F9018951F920F920FB60F92E4
:101C800011242F933F934F935F938F939F93EF93E1
:101C9000FF9380916A0390916B03FC01EA5BFF4F15
:101CA0002081222301F132970190F081E02D808183
:101CB0008093C60020916A0330916B03F901EA5BBF
:101CC000FF4F80818150808332978081918101967E
:101CD000A9014E5B5F4F8417950710F0C90102966A
:101CE000918380830DC08091C1008F7D806480933B
:101CF000C100E0916A03F0916B03E457FF4F10823B
:101D0000FF91EF919F918F915F914F913F912F9113
:101D10000F900FBE0F901F9018951F920F920FB645
:101D20000F9211242F933F938F939F93EF93FF93E1
:101D3000E1ECF0E08081877B8069808380916A0399
:101D400090916B039C01295B3F4FFC01E957FF4FCA
:101D50003183208332963183208332961082FF9123
:101D6000EF919F918F913F912F910F900FBE0F9008
:101D70001F901895CF92DF92EF92FF920F931F93CF
:101D8000CF93DF93EB017B0124E0E20EF11C8B018A
:101D90006C01C61AD70AC601800F911F0E94282124
:101DA000F80181938F01EE15FF05A9F7CE01DF91B0
:101DB000CF911F910F91FF90EF90DF90CF900895FA
:101DC000AF92BF92DF92EF92FF920F931F93CF9348
:101DD000DF93EC017B018B015C0184E0A80EB11C58
:101DE000F801D1908F01CE010E942821D81621F050
:101DF0006D2DCE010E9430212196CA15DB0581F799
:101E0000C701DF91CF911F910F91FF90EF90DF906D
:101E1000BF90AF9008950C9430210C942821CF935B
:101E2000C82F862F0E94B909BC01990F880B990B06
:101E30000E94602220E030E040E85AE30E94B32391
:101E400020E030E44EE455E40E94B32324E0C29F36
:101E5000F0011124E65CFE4F2081318142815381E3
:101E60000E94B3230E942222CF910895CF93DF9343
:101E700000D000D0CDB7DEB719821A821B821C8237
:101E8000BE016F5F7F4F84E190E00E94E00E1982F7
:101E90001A821B821C82BE016F5F7F4F88E190E037
:101EA0000E94E00E0F900F900F900F90DF91CF9156
:101EB00008953FB7F8948091B4039091B503A09131
:101EC000B603B091B70326B5A89B05C02F3F19F004
:101ED0000196A11DB11D3FBFBA2FA92F982F8827AA
:101EE000820F911DA11DB11DBC01CD0143E0660F04
:101EF000771F881F991F4A95D1F708952FB7F89437
:101F00006091B0037091B1038091B2039091B303DB
:101F10002FBF08951F920F920FB60F9211242F9387
:101F20003F938F939F93AF93BF938091B003909112
:101F3000B103A091B203B091B3033091AF0326E097
:101F4000230F2D3720F40296A11DB11D05C029E8ED
:101F5000230F0396A11DB11D2093AF038093B003FF
:101F60009093B103A093B203B093B3038091B403F1
:101F70009091B503A091B603B091B7030196A11D4E
:101F8000B11D8093B4039093B503A093B603B093AF
:101F9000B703BF91AF919F918F913F912F910F9078
:101FA0000FBE0F901F901895CF93DF93CDB7DEB77C
:101FB000C655D1090FB6F894DEBF0FBECDBF7894D9
:101FC00084B5826084BD84B5816084BD85B582603E
:101FD00085BD85B5816085BD80916E0081608093EF
:101FE0006E00109281008091810082608093810058
:101FF0008091810081608093810080918000816068
:10200000809380008091B10084608093B1008091C2
:10201000B00081608093B00080917A0084608093EA
:102020007A0080917A00826080937A0080917A00B1
:102030008E7F80937A0080917A00806880937A0006
:102040001092C10086E70E94F80A80935402811121
:1020500005C087E70E94F80A8093540280915402D9
:10206000811155C087E70E945D040E94010481111F
:102070004EC00E94150587E70E945D046EE188E46A
:1020800092E00E94E30B0E9401048AE08093C20167
:1020900088E08093C30164E670E080E090E00E94F5
:1020A000D00966EBC62E61E0D62E12EA87E70E94C1
:1020B0005D04612F88E492E00E94E30B0E9401041A
:1020C00087E70E945D0482E090E00E944F089091B3
:1020D000DC018091DD019817F1F388E492E00E9421
:1020E0009A0BB82E88E492E00E949A0B082F0E9467
:1020F0000104FB2CE12CC701802BD6018D939D930D
:102100006D011E5F1E3A91F683E080935402809128
:1021100054028230B9F018F48130A1F02FC083301E
:10212000F9F0843059F58DEC9CECACE4BFE380937E
:10213000550290935602A0935702B0935802109202
:1021400059021CC08AE999E9A9E5BFE380935502C9
:1021500090935602A0935702B093580285E00CC0AA
:102160004DEC5CEC6CE47FE34093550250935602D7
:1021700060935702709358028093590283E090E075
:102180000E940D0F8F3F11F08093890184E090E051
:102190000E940D0F8F3F39F090E08F579109909377
:1021A00088018093870185E090E00E940D0F8F3FAA
:1021B00011F08093010186E090E00E940D0F8F3FA7
:1021C00031F091E0811101C090E090937A0187E0B5
:1021D00090E00E940D0F8F3F31F091E0811101C01E
:1021E00090E09093790188E090E00E940D0F8F3F7E
:1021F00031F091E0811101C090E0909378018AE084
:1022000090E00E940D0F8F3FA1F0682F70E080E0FA
:1022100090E00E945E2220E030E048EC52E40E9410
:10222000B0216093550270935602809357029093A9
:1022300058028CE090E00E940D0F8F3F11F08093C8
:1022400059028DE090E00E940D0F8F3F11F08093B6
:10225000B1018EE090E00E940D0F8F3F11F080934E
:10226000AA018091B101882339F085E10E94B90962
:102270009093B0018093AF0180915402811103C00B
:1022800086E00E94210880915402823019F08FE08C
:102290000E94210880915402811106C08DE00E94A5
:1022A00021088EE00E94210881E00E94210882E03E
:1022B0000E94210883E00E9421088091540281112C
:1022C00006C084E00E94210885E00E94210887E082
:1022D0000E94210888E00E94210889E00E942108CC
:1022E0008AE00E9421088BE00E9421088CE00E9475
:1022F00021088091B101811103C087E10E9421086A
:102300001091890111110DC080E10E94210881E125
:102310000E94210882E10E94210883E10E94210895
:1023200045C000910101002309F440C06FE771E04E
:1023300084E190E00E94BA0E0130C1F5153018F426
:102340008FEF810F01C085E06FE00E940F0F6B01DE
:102350007C01BE016F5F7F4F88E190E00E94BA0E62
:10236000C701B6010E94602220E030E04AE754E451
:102370000E94B0216B017C012CE53FE842E85FE35D
:1023800069817A818B819C810E94B3239B01AC017E
:10239000C701B6010E945E2387FD08C010927F012D
:1023A00010928001109281011092820180917A0135
:1023B000811103C084E10E9421088091790181117B
:1023C00003C085E10E94210880917801811103C03A
:1023D00086E10E94210886E78093C90282E3809308
:1023E000CA0240E250E060E270E088E493E00E94BC
:1023F000152980919C0281113FC043E150E06AE5BC
:1024000071E088E892E00E941C2988E080939C0299
:102410008091A1029091A202892B21F488E892E098
:102420000E94C7070091A1021091A202013CBFE1E6
:102430001B0730F4C801880F991F880F991F02C02D
:102440008FEF9FEF0E94E627FC0120E030E04FEF86
:102450005FEFBA010217130739F04193519361936B
:1024600071932F5F3F4FF6CF80939F029093A0020E
:102470001092A4021092A3028DE890E00E94E62739
:102480002DE8FC0111922A95E9F724E131E0DC0105
:102490002D933C939093CC028093CB0206E010E006
:1024A00020E030E048E458EE61E070E00E94A10CCA
:1024B0001092CF021092CE021092D0021092D1024E
:1024C0001092D2021092D3021092D4021092CD0236
:1024D0000E947E0F0091B2011091B3012091B401CE
:1024E0003091B501DC01CB01801B910BA20BB30B2A
:1024F000853B9105A105B10510F40C940E1B80914C
:10250000B101882309F4B4C085E10E94B9095C01D6
:102510000091AF011091B001609106017091070127
:1025200080910801909109010E9460226B017C0159
:10253000B501A016B1060CF4B801601B710B072E93
:10254000000C880B990B0E94602220E030E040E8EC
:102550005AE30E94B32320E030E44CE955E40E94A2
:10256000B323A70196010E943F21A70196010E9473
:102570003E219B01AC010E943F214B015C0120ECFC
:1025800036E44DEE5CE3C701B6010E94B3236B0154
:102590007C012BE734E948E853E460910201709133
:1025A000030180910401909105010E943F2129E0DF
:1025B00038E045E051E40E94B3239B01AC01C70120
:1025C000B6010E94B0219B01AC01C501B4010E947B
:1025D000B0210E9476246B017C018090AB01909029
:1025E000AC01A090AD01B090AE019B01AC01C50162
:1025F000B4010E943E2120E030E040E05FE30E9411
:10260000B323A70196010E943F216B017C018091B9
:10261000AA018130B1F4C092A601D092A701E09244
:10262000A801F092A901A5019401C701B6010E9479
:102630003E216093A2017093A3018093A401909323
:10264000A501C092AB01D092AC01E092AD01F09235
:10265000AE0126E636E646E650E4C701B6010E9422
:10266000B3230E942222AB01BC0187E10E943D09F5
:1026700080915402882309F44AC6833009F0BBC311
:1026800087E70E945D046091C30170E0605C7F4F4A
:1026900088E492E00E94E30B0E9401046091C20171
:1026A00070E080E090E00E94D0090E9456092996CF
:1026B0006CAF7DAF8EAF9FAF29970E94110B209119
:1026C000BE013091BF01890120E030E0322F212F7F
:1026D000102F00271B012C01201A310A420A530A2D
:1026E000E091BC01F091BD018090B8019090B901DA
:1026F000940140E050E060E070E080E090E000E1B4
:102700000E9454272BAB3BAF4FAF24965FAF24976B
:102710004B01682E25969FAF2597BF0180E090E082
:10272000A20191010E9443268901742EB52FF62F34
:10273000E72F7C01A0E00E94A9274CF4AFE70E949C
:1027400094278901742EB52FF62FE72F7C0198016D
:10275000472D5B2F6F2F7E2FC70107E00E946D274B
:1027600059016A017B018C012BA93BAD4FAD249629
:102770005FAD2497B401862D25969FAD25970E94C5
:102780008B2724962FAF249725963FAF25972A961F
:102790004FAF2A972B965FAF2B972C966FAF2C9746
:1027A0002D967FAF2D972E968FAF2E972F969FAF9A
:1027B0002F97E090B601F090B7016091BA01709147
:1027C000BB0180E090E0A20191010E944326D22E3D
:1027D000032F142FB52FF62FE72FB82EC92EA0E008
:1027E0000E94A92784F421503F4F4F4F5F4F6F4FF6
:1027F0007F4F8F4F9F4FD22E032F142FB52FF62FC1
:10280000E72FB82EC92E2D2D302F412F5B2F6F2F84
:102810007E2F8B2D9C2D08E00E946D2739014A01E7
:10282000B62FA72FF82FE92FC12CD12C9701A60185
:1028300060E070E080E090E00FE00E9454275901D2
:102840006A017B018C019301A4016B2F7A2F8F2FDA
:102850009E2F0E948B2760962FAF609761963FAFA7
:10286000619762964FAF629763965FAF6397649686
:102870006FAF649765967FAF659766968FAF6697E3
:1028800067969FAF67976091C0017091C10180E02A
:1028900090E0A20191010E944326F22E032F142FF3
:1028A000B52FF62FE72FD82EE92EA0E00E94A927FA
:1028B00084F42150310940485F4F6F4F7F4F8F4F55
:1028C0009F4FF22E032F142FB52FF62FE72FD82E60
:1028D000E92E2F2D302F412F5B2F6F2F7E2F8D2D27
:1028E0009E2D07E10E946D2749015A01950184013F
:1028F0000053184F2F4F3F4F23960CAF1DAF2EAFF5
:102900003FAF23971092C8011092C9011092CA01DB
:102910001092CB011092CC011092CD011092CE01F9
:102920001092CF011092D0011092D1011092D201D9
:102930001092D3011092D4011092D5011092D601B9
:102940001092D701003D1740210531050CF0C5C09C
:10295000A5019401C501B4010E94A2259B01AC010F
:10296000A5E0B0E00E94D7258B019C013595279505
:10297000179507950BAB1CAB2DAB3EAB2B013C0168
:10298000770C4408542C32010093C8011093C901FC
:102990002093CA013093CB014092CC014092CD01EB
:1029A0004092CE014092CF019B01AC0112E05595BF
:1029B0004795379527951A95D1F72BAF3CAF4DAF7B
:1029C0005EAF2093D0013093D1014093D201509358
:1029D000D3014092D4014092D5014092D601409259
:1029E000D70123960CAD1DAD2EAD3FAD239704321C
:1029F0001A4F2F4F3F4F0CF070C0C501B401645502
:102A0000724F8F4F9F4F9B01AC010E94A2252396CE
:102A10006CAF7DAF8EAF9FAF2397A7E0B0E09B0177
:102A2000AC010E94D7254B015C01BB0C8808982C97
:102A300054019B01AC01682D782D882D982DABA8F1
:102A4000BCA8CDA8DEA8E42CF42C042D142D0E94E3
:102A50008B272093C8013093C9014093CA0150933A
:102A6000CB016093CC017093CD018093CE01909304
:102A7000CF01ABE0B0E023962CAD3DAD4EAD5FADE8
:102A800023970E94D7254B015C01B594A794979496
:102A900087946B017C01FF0CCC08DC2C760194013F
:102AA000A5016C2D7C2D8C2D9C2DABACBCACCDAC84
:102AB000DEACE42CF42C0E948B272093D0013093C1
:102AC000D1014093D2015093D3016093D40170930C
:102AD000D5018093D6019093D70160962FAD609772
:102AE00061963FAD619762964FAD629763965FAD19
:102AF000639764966FAD649765967FAD65976696AC
:102B00008FAD669767969FAD6797A090D001B09004
:102B1000D101C090D201D090D301E090D401F090C7
:102B2000D5010091D6011091D7010E94A0272996C6
:102B3000ECACFDAC0EAD1FAD299717012801570174
:102B40006201E12CF12C00E010E00E94EA25F22E57
:102B5000032F142FB52FF62FE72FD82EE92EA0E044
:102B60000E94A92784F421503109404E5F4F6F4FD6
:102B70007F4F8F4F9F4FF22E032F142FB52FF62F1D
:102B8000E72FD82EE92E2F2D302F412F5B2F6F2FBF
:102B90007E2F8D2D9E2D05E10E946D2739014A0162
:102BA000B62FA72FF82FE92F24962FAD249725961F
:102BB0003FAD25972A964FAD2A972B965FAD2B9761
:102BC0002C966FAD2C972D967FAD2D972E968FADB1
:102BD0002E972F969FAD2F97A090C801B090C90156
:102BE000C090CA01D090CB01E090CC01F090CD0113
:102BF0000091CE011091CF010E94A02759016A01D6
:102C00007B018C019301A4016B2F7A2F8F2F9E2FB4
:102C10000E94A027F22E032F142FB52FF62FE72F97
:102C2000D82EE92EA0E00E94A92784F42150304834
:102C30004F4F5F4F6F4F7F4F8F4F9F4FF22E032F9E
:102C4000142FB52FF62FE72FD82EE92E2F2D302F4A
:102C5000412F5B2F6F2F7E2F8D2D9E2D0FE00E9419
:102C60006D27B901CA0120930601709307014093B3
:102C70000801909309010E94602220E836EE45EC9D
:102C800057E40E94B0212BEA3CED42E45EE30E944F
:102C900020249B01AC0160E070E080E89FE30E948B
:102CA0003E2120E03AE24DE257E40E94B32320E0C7
:102CB00030E048EC52E40E94B3230E9422224B01F0
:102CC0005C010E94110B2091BE013091BF0189016E
:102CD00020E030E0322F212F102F00272B013C0164
:102CE000401A510A620A730A6091C0017091C101D1
:102CF00080E090E0A30192010E944326F22E032F70
:102D0000142FB52FF62FE72FD82EE92EA0E00E9422
:102D1000A92784F42150310940485F4F6F4F7F4FFE
:102D20008F4F9F4FF22E032F142FB52FF62FE72F23
:102D3000D82EE92E2F2D302F412F5B2F6F2F7E2F76
:102D40008D2D9E2D07E10E946D272BAB3CAB4DAB2B
:102D50005EAB6FAB78AF89AF9AAFCBA8DCA8EDA81C
:102D6000FEA800EDC00E07E0D01EE11CF11C10ED26
:102D7000C11617E0D106E104F1044CF01092C40131
:102D80001092C5011092C6011092C70113C0A30191
:102D90009201C301B2010E94A22520E030E0A90106
:102DA0000E94B2252093C4013093C5014093C6010F
:102DB0005093C7018091C4019091C501A091C601B3
:102DC000B091C701A7019601281B390B4A0B5B0B79
:102DD000CA01B9010E94602220E030E048EC52E4D0
:102DE0000E94B0216093020170930301809304015B
:102DF0009093050143C10E94CD050E942222609359
:102E000006017093070180930801909309010E94C5
:102E1000CD0520E030E048EC52E40E94B02120E0F3
:102E200030E54DE754E40E94B02121E03EED42E45C
:102E30005EE30E9420249B01AC0160E070E080E82A
:102E40009FE30E943E2120E03AE24DE257E40E94D7
:102E5000B32320E030E048EC52E40E94B3230E9408
:102E600022224B015C010E94450560930201709390
:102E700003018093040190930501809154028230F4
:102E800009F0FCC00E9445058DEF0E94E9046C0129
:102E9000E12CF12CC11430E8D306E104F10409F46B
:102EA000DCC08091600290916102A0916202B091B9
:102EB00063028C019D011C52214031090BAB1CABFC
:102EC0002DAB3EABAEE0CC0CDD1CEE1CFF1CAA957E
:102ED000D1F78091800290918102092E000CAA0BFB
:102EE000BB0B44E1880F991FAA1FBB1F4A95D1F75E
:102EF000C81AD90AEA0AFB0AA0918202B091830299
:102F0000A90198010E94E225C61AD70AE80AF90A1F
:102F100010E4D10EE11CF11C6FE0F594E794D79416
:102F2000C7946A95D1F7A0917F02B0E00E94D7259F
:102F30002B013C017BE075946794579447947A95F4
:102F4000D1F720E8520E611C711CA09184020A2E58
:102F5000000CBB0B2BA93CA94DA95EA90E94E22540
:102F6000EAE09595879577956795EA95D1F7A3015E
:102F700092010E94A225DC01CB01FAE0B595A7954C
:102F800097958795FA95D1F79C01AD01405E5F4F0B
:102F9000A0917D02B0917E020E94E225DC01CB016E
:102FA000905EAF4FBF4FBC01CD01AEE095958795C8
:102FB00077956795AA95D1F7A70196010E94A2255A
:102FC0006B017C01BFE09595879577956795BA95DC
:102FD000D1F79B01AC010E94A2259B01AC0117E037
:102FE00055954795379527951A95D1F7A0917C026D
:102FF000B0E00E94D725DC01CB0104E0B595A79590
:10300000979587950A95D1F797018601081B190BAB
:103010002A0B3B0BD901C80137FF03C080E090E0C9
:10302000DC0181309105A10519E1B10724F080E0B0
:1030300090E0A0E0B9E1BC01CD01FCE09595879559
:1030400077956795FA95D1F70E94602220E030E0ED
:1030500040E85AE30E94B32304C060E070E080ECD3
:103060009FE720E030E040E251E40E94B3230E9459
:103070002222AB01BC018FE00E943D0980919E019C
:1030800090919F01A091A001B091A1010097A1058D
:10309000B10589F480929E0190929F01A092A001B7
:1030A000B092A10180929A0190929B01A0929C0102
:1030B000B0929D0126C0A5019401281B390B4A0B33
:1030C0005B0BCA01B9012AE030E040E050E00E9409
:1030D000B225209396013093970140939801509325
:1030E0009901C501B40124E630E040E050E00E94BF
:1030F000B225209392013093930140939401509311
:1031000095010E947E0F0091B2011091B3012091B0
:10311000B4013091B5016B017C01C01AD10AE20AF9
:10312000F30A80919A0190919B01A0919C01B0912A
:103130009D0195018401081B190B2A0B3B0BC9014A
:10314000B8010E9460222B013C01C701B6010E9418
:103150005E229B01AC0160E070E08AE794E40E948B
:10316000B0219B01AC01C301B2010E94B3230E94B4
:1031700022222B013C0180929A0190929B01A09205
:103180009C01B0929D018091AA01813041F4C092CE
:103190008E01D0928F01E0929001F0929101C09047
:1031A0008E01D0908F01E0909001F0909101D701B5
:1031B000C6010197A109B109873B9B40A105B10553
:1031C00050F520E038E44FE156E46091A60170919B
:1031D000A7018091A8019091A9010E94B323209199
:1031E000A2013091A3014091A4015091A5010E9438
:1031F000B3234B015C01C701B6010E945E229B0113
:10320000AC01C501B4010E94B0210E942222460EE9
:10321000571E681E791EC301B2010E9460226B0115
:103220007C019B01AC0160918A0170918B018091BE
:103230008C0190918D010E943E2120915502309188
:10324000560240915702509158020E94B323A701A1
:1032500096010E943F210E9422226B017C010E9464
:10326000602260938A0170938B0180938C0190930C
:103270008D0180915902482F50E060E070E04C15BC
:103280005D056E057F054CF4D701C601841B950BC7
:10329000A60BB70BAC01BD0117C090E091958195CD
:1032A0009109092E000CAA0BBB0BC816D906EA0619
:1032B000FB063CF4B701A601481B590B6A0B7B0BBC
:1032C00003C040E050E0BA0186E00E943D09409111
:1032D00006015091070160910801709109018DE08C
:1032E0000E943D0920E030E040E251E4609102019B
:1032F0007091030180910401909105010E94B32314
:103300000E942222AB01BC018EE00E943D090E9476
:103310007E0F6093B2017093B3018093B4019093D8
:10332000B50110918901112309F4FFC0153018F47B
:103330008FEF810F01C085E06FE00E940F0F0E94A8
:10334000602220E030E04AE754E40E94B021698323
:103350007A838B839C8320E030E040E251E40E943A
:10336000B3230E942222AB01BC0180E10E943D09EF
:10337000153028F0193030F482E796E005C080E07F
:1033800090E002C08CE891E0E0908701F090880125
:10339000E80EF91E8EE00E94B909BC01990F880B56
:1033A000990B0E94602220E030E040E85AE30E943E
:1033B000B32320E030E44EE455E40E94B3234B01F4
:1033C0005C01B70180E090E00E945E229B01AC01AD
:1033D000C501B4010E943E216B017C01E12FF0E0A8
:1033E000E55EFE4F608170E080E090E00E94602228
:1033F0009B01AC01C701B6010E94B021153030F02D
:103400002CE730EF41EC5FE30E94B323609383012C
:10341000709384018093850190938601C09083010D
:10342000D0908401E0908501F090860120E030E0AA
:1034300040E251E4C701B6010E94B3230E94222258
:10344000AB01BC0181E10E943D092FEF3FEF4FE945
:1034500051E4C701B6010E94B02120917F01309153
:10346000800140918101509182010E943F2160932F
:103470007F017093800180938101909382010E946B
:103480002222AB01BC0182E10E943D098091010131
:103490008823B1F10E947E0F00917B0110917C0185
:1034A00020917D0130917E01DC01CB01801B910BCD
:1034B000A20BB30B81319742A105B10508F120E0C1
:1034C00030E040E050E4C701B6010E94AB2118167D
:1034D0006CF06FE771E084E190E00E94E00EBE01C5
:1034E0006F5F7F4F88E190E00E94E00E0E947E0FA8
:1034F00060937B0170937C0180937D0190937E01AA
:1035000029813A814B815C816091830170918401B2
:1035100080918501909186010E94B3230E9422220E
:10352000AB01BC0183E10E943D0980917A018823AF
:1035300079F060E186E00E940F0F2AE030E040E081
:1035400050E00E94B225BA01A90184E10E943D0920
:1035500080917901882379F061E187E00E940F0F63
:103560002AE030E040E050E00E94B225BA01A90113
:1035700085E10E943D0980917801882309F44EC0BD
:1035800084E10E94B909BC01990F880B990B0E9434
:1035900060229B01AC0160E070EC8FE794E40E9434
:1035A000B02120E030E040E85FE30E943E219B0133
:1035B000AC0160E070E48CE196E40E94B02120E070
:1035C00030E44CE156E40E94B0210E946B2320E0DD
:1035D00030EE46E755E40E94B0212FE03FEC4BE58A
:1035E0005BE30E943F219B01AC0160E070E080E85A
:1035F0009FE30E94B02129E939EF47E853E40E9494
:103600003E2120E030E040E251E40E94B3230E94DA
:103610002222AB01BC0186E10E943D094091960146
:1036200050919701609198017091990184E00E94F6
:103630003D094091920150919301609194017091E4
:10364000950185E00E943D09009115031092150334
:10365000011105C080910001882309F411C20E9464
:103660007E0FC0907401D0907501E0907601F090CB
:1036700077016C157D058E059F0508F401C20E9437
:103680007E0FDC01CB0188539F4FAF4FBF4F80931C
:10369000740190937501A0937601B093770111E0C6
:1036A000E1E1FE2E003E71F4809172019091730170
:1036B0008D3091050CF00CC10196909373018093AD
:1036C000720104C1003781F48091720190917301FD
:1036D000181619060CF0FCC00197909373018093A3
:1036E000720110930001F9C0003D09F0E4C080911F
:1036F00072019091730185309105B9F134F48330F2
:10370000910559F0049751F1E1C087309105E9F135
:10371000ACF1089709F440C0D9C080905502909050
:103720005602A0905702B090580220E030E040E8E6
:103730005FE3C501B4010E94AB2187FFC7C020E051
:1037400030E048EC52E4C501B4010E94B32320E00C
:1037500030E040E85FE30E943F217EC08091590243
:10376000843608F0B3C08F5F8BC08091B10188238D
:1037700009F4ACC081508093B101A8C08091AA0126
:10378000882309F4A3C0815083C0809189018823D4
:1037900009F49CC0815084C080910101882309F400
:1037A00095C0815085C00E94360FE0918901EE23BB
:1037B00081F1F0E0E55EFE4F608170E080E090E036
:1037C0000E94602220918301309184014091850103
:1037D000509186010E94B3234B015C0160918701E7
:1037E00070918801072E000C880B990B0E946022B3
:1037F0009B01AC01C501B4010E943F210E9422221D
:103800006093870170938801615884E090E00E9482
:103810000B0FE0E0F0E00995809055029090560281
:10382000A0905702B090580220E030E0A901C501F5
:10383000B4010E945E2318160CF048C020E030E06E
:1038400048EC52E4C501B4010E94B32320E030E00B
:1038500040E85FE30E943E2120E030E048EC52E483
:103860000E94B021609355027093560280935702D4
:10387000909358022BC080915902882339F18150CE
:103880008093590223C08091AA018230F8F48F5F9F
:103890008093AA011BC0809189018C30B8F48F5F9E
:1038A0008093890113C080910101823078F48F5F89
:1038B000809301010BC0003B59F4E0917201F0913B
:1038C00073013197ED30F10508F4EBC3109300015B
:1038D00080910001882309F4D3C01AA21982809133
:1038E000720190917301F89EB001F99E700D112440
:1038F00066587D4F40E150E0CE0182960E941F2124
:10390000E0917201F0917301EC30F105B8F4EC5CD8
:10391000FF4F0C94D12540E150E069E672E00AC007
:1039200060915402F9E06F9FB0011124645C7D4FF7
:1039300040E150E0CE0101960E941F21CE01829607
:10394000A8E4B3E068E573E020E040E272C0809153
:103950005402882309F4A6CE20E030E048EC52E47B
:1039600060915502709156028091570290915802D1
:103970000E94B3230E9422227F936F9383E691E0FB
:103980000BC080915402882309F48CCE8091590297
:103990001F928F938AE691E09F938F93CE010196B9
:1039A0009F938F930E942B290F900F900F900F9051
:1039B0000F900F90C3CF6091B1010AE0609FB001FA
:1039C000112434C06091AA011BE0619FB001112451
:1039D000695F7D4FADCF6091890120E1629FB001A9
:1039E0001124695C7E4FA4CF80918901882309F45A
:1039F00059CE6091010139E0639FB0011124645EEA
:103A00007E4F96CF60917A014AE0649FB001112405
:103A10000DC0609179015AE0659FB001112406C084
:103A2000609178018AE0689FB0011124685D7D4F44
:103A30007FCFFC013191CF01332321F0211102C04E
:103A40003C9302C04C9321E01196F3E0A835BF07E8
:103A500081F7DE01119628E633E080E040E29D9197
:103A6000FB01992321F0811102C0908302C04083A1
:103A700081E06F5F7F4F2617370789F710920001AB
:103A800067E0762E73E0672E8091CB029091CC0296
:103A9000DC01ED91FC910480F581E02D0995892BE5
:103AA00009F4F5C28091CB029091CC02DC01ED913A
:103AB000FC910680F781E02D09952091CE0230918E
:103AC000CF0221153105A9F49C012D533109223073
:103AD0003105D0F621E030E03093CF022093CE02C2
:103AE0008E33910509F020E02093D0028093D50217
:103AF000CBCF21303105A9F49C012D7F2130310538
:103B000011F522E030E03093CF022093CE0221E085
:103B10008130910509F020E02093D1028093D602F4
:103B2000B3CF22303105A1F423E030E03093CF024F
:103B30002093CE028093D2028093D7026092D30268
:103B4000813408F4A1CF1092CF021092CE029CCF04
:103B50002330310509F098CFE091D30201E00E0F38
:103B60000093D302F0E0EB52FD4F80838091D202AC
:103B700008138ACF55EDE52E52E0F52E4701A12C12
:103B8000B12C80E090E010E06801B2E0CB1AD108DF
:103B9000AC14BD044CF4F40161914F010E945B0828
:103BA000FFEFAF1ABF0AF4CFF801EC52FD4F2081AE
:103BB00030E0322F2227F601EB52FD4F4081242BBB
:103BC0008217930709F0BFCF8091D8028093D40267
:103BD0009091D0028091D9029923D1F08133C1F420
:103BE0008091DA02869580931703EBEDF2E020E0F6
:103BF00030E090E0281739073CF44191519154AFDF
:103C000043AF2F5F3F4FF6CF81E0809316039BCFEA
:103C10008A3309F0F0C18091D102882309F493CF4F
:103C20008091CD0291E0980F9093CD02811116C042
:103C30001092DC021092E20210919C02812F880FF8
:103C4000880F880F8093E302412F50E068E872E00C
:103C500084EE92E00E940C29175F5CC1282F269504
:103C600030E04091A1025091A202421753070CF498
:103C70004AC080FD48C000E010E08091A102909110
:103C8000A202081719070CF044C16091A40270E069
:103C9000CE0101960E947A088091A4028F5F8093E2
:103CA000A40290E02091A1023091A2028217930712
:103CB00014F01092A4028885882311F11092DC027E
:103CC0008B818093E2028D8D08E0809FC0011124DA
:103CD0009E8D892B8093E30280E019E0180FE9E0C4
:103CE000F0E0EC0FFD1FE80FF11D9081992309F41E
:103CF00011C18F5FE12FF0E0E552FD4F9083EDCFD2
:103D00000F5F1F4FBACF80E48093DC0230E4C32EF4
:103D1000D12C17E06091A30270E0CE0101960E94C1
:103D20007A088091A3028F5F8093A30290E0209194
:103D3000A1023091A2028217930714F01092A302FD
:103D40008885882309F4CEC08C819D81AE81BF8196
:103D50008F3F2FEF9207A207B20709F4C3C04B8130
:103D6000612F70E02F8D51E0510F403160F06552AE
:103D70007D4F322F3F70FB0130831E5FE52FF0E057
:103D8000E552FD4F0BC0152FFB01E552FD4F00E141
:103D9000409FA0011124322F3F70432B408349A143
:103DA00050E02430B9F128F4222369F02130E1F009
:103DB00096C0283009F462C0293009F47CC025304F
:103DC00009F08DC040C0E12FF0E0E552FD4F282FF3
:103DD0002F71B7FD02C080E001C080E8822B98A15E
:103DE000892B808381E07CC0212F30E0F901E552EE
:103DF000FD4F8083F901E452FD4F692F6F71B7FDCC
:103E000002C080E001C080E8862B98A1892B8083C6
:103E100082E066C0212F30E0F901E552FD4F80833A
:103E2000F901E452FD4F9083F901E352FD4F6A2FEF
:103E30006F71B7FD02C080E001C080E8862B98A1B9
:103E4000892B808319C0212F30E0F901E552FD4F05
:103E50008083F901E452FD4F9083F901E352FD4F55
:103E60004D01BB2497FCB094AB2CB7FD02C080E0A1
:103E700001C080E8882A808283E032C0212F30E0B0
:103E8000F901E552FD4F8083F901E452FD4F908323
:103E9000F901E352FD4FA083F901E252FD4F6B2F70
:103EA0006F71B7FD02C080E001C080E8862B98A149
:103EB000892B808312C0212F30E0F901E552FD4F9C
:103EC0008083F901E452FD4F9083F901E352FD4FE5
:103ED000A083F901E252FD4FB08384E001C080E08D
:103EE000180F02C040E050E02FEFC21AD20A8091B2
:103EF000A1029091A202C816D90664F4812F90E025
:103F00002AE130E0241B350B821793070CF402CF13
:103F100001C010E08FE28093DB029091DC028FEF12
:103F2000810F892B8093DC0289E08093DD0284EA93
:103F30008093DE028091C9028093DF028091CA02E1
:103F40008093E0021092E102ECEDF2E091E080E07B
:103F5000911768F42191822728E087FF03C0880F1A
:103F6000872501C0880F2150C1F79F5FF1CFE12F56
:103F7000F0E0E552FD4F808309E0010F0093D3028A
:103F80008BE38093D50281E08093D6020093D70221
:103F90008091D4028093D8028AE38093D9021F5F74
:103FA0001093DA02A12CB12C80E090E010E06801BF
:103FB00032E0C31AD108AC14BD044CF4D7016D91A2
:103FC0007D010E945B08BFEFAB1ABB0AF4CFF6017C
:103FD000EB52FD4F8083F801EC52FD4F90838091AE
:103FE000CB029091CC02DC01ED91FC910280F38137
:103FF000E02DA80145C08B3309F0A5CD8091D102F9
:10400000882309F4A0CD8091DB02803F19F08093D2
:10401000150302C01092150398E29093D3028BE32C
:104020008093D50221E02093D6029093D70280930B
:10403000D90280E28093DA02E8E4F3E0ABEDB2E08B
:1040400001900D928A95E1F780E090E0F70161918F
:104050007F010E945B08FBEFEF16F2E0FF06B1F76D
:104060008093FB029093FC028091CB029091CC0252
:10407000DC01ED91FC910280F381E02D48E250E0FB
:1040800065ED72E0099581E0809368035CCD80E086
:1040900090E0892B11F40C9468120E9400000C949B
:1040A0006812E05CFF4F0C94D1258091B101811121
:1040B0000DCC1093B1010ACC80917A0181278093B5
:1040C0007A0104CC80917901812780937901FECB1C
:1040D00080917801812780937801F8CB60918901E4
:1040E00083E090E00E940B0F6091010185E090E079
:1040F0000E940B0F60917A0186E090E00E940B0F06
:104100006091790187E090E00E940B0F6091780147
:1041100088E090E00E940B0F20E030E048EC52E491
:104120006091550270915602809157029091580209
:104130000E94B3230E9422228AE090E00E940B0F8B
:10414000609159028CE090E00E940B0F6091B101E8
:104150008DE090E00E940B0F6091AA018EE090E04C
:104160000E940B0FE0E0F0E00995C12CD12C6FEF1D
:10417000C6010E940B0FFFEFCF1ADF0A22E3C2161F
:10418000D104A9F70E94360FE0E0F0E009959ECB3C
:10419000E8E4F2E01382128288EE93E0A0E0B0E05F
:1041A00084839583A683B7838CE291E09183808397
:1041B000E8E8F2E0148A168A158A108E178A128EA1
:1041C000118E138E148E86E78093C90282E380934A
:1041D000CA02108244E050E06FEF70E085EC92E09C
:1041E0000E94152980E2E5EAF2E0DF011D928A953E
:1041F000E9F71092CC021092CB021092CD021092ED
:104200001503109216031092170310926803109270
:10421000CF021092CE021092D0021092D1021092D0
:10422000D2021092D3021092D40280E3E8E1F3E0CC
:10423000DF011D928A95E9F7109254020895FB015F
:10424000DC0102C005900D9241505040D8F708950E
:10425000F999FECF92BD81BDF89A992780B508954E
:10426000262FF999FECF1FBA92BD81BD20BD0FB692
:10427000F894FA9AF99A0FBE019608955058BB2700
:10428000AA270E9456210C9424230E94162338F05A
:104290000E941D2320F039F49F3F19F426F40C945A
:1042A00003230EF4E095E7FB0C94FD22E92F0E9416
:1042B000352358F3BA17620773078407950720F070
:1042C00079F4A6F50C9457230EF4E0950B2EBA2F33
:1042D000A02D0B01B90190010C01CA01A00111240C
:1042E000FF27591B99F0593F50F4503E68F11A16B8
:1042F000F040A22F232F342F4427585FF3CF469549
:1043000037952795A795F0405395C9F77EF41F166A
:10431000BA0B620B730B840BBAF09150A1F0FF0F34
:10432000BB1F661F771F881FC2F70EC0BA0F621F20
:10433000731F841F48F4879577956795B795F79510
:104340009E3F08F0B0CF9395880F08F09927EE0FA5
:104350009795879508950E94D92208F481E00895E1
:104360000E94C4210C9424230E941D2358F00E9413
:10437000162340F029F45F3F29F00C94FD225111DF
:104380000C9458230C9403230E94352368F399233B
:10439000B1F3552391F3951B550BBB27AA27621741
:1043A0007307840738F09F5F5F4F220F331F441F4E
:1043B000AA1FA9F335D00E2E3AF0E0E832D0915082
:1043C0005040E695001CCAF72BD0FE2F29D0660F6F
:1043D000771F881FBB1F261737074807AB07B0E8B2
:1043E00009F0BB0B802DBF01FF2793585F4F3AF0B8
:1043F0009E3F510578F00C94FD220C9458235F3FAA
:10440000E4F3983ED4F3869577956795B795F7953D
:104410009F5FC9F7880F911D9695879597F9089525
:10442000E1E0660F771F881FBB1F621773078407C1
:10443000BA0720F0621B730B840BBA0BEE1F88F7D0
:10444000E09508950E9429226894B1110C94582394
:1044500008950E943D2388F09F5798F0B92F99271F
:10446000B751B0F0E1F0660F771F881F991F1AF05F
:10447000BA95C9F714C0B13091F00E945723B1E04A
:1044800008950C945723672F782F8827B85F39F049
:10449000B93FCCF3869577956795B395D9F73EF4F8
:1044A00090958095709561957F4F8F4F9F4F0895A0
:1044B00097FB16F40E9406230C949C22E89409C0F2
:1044C00097FB3EF490958095709561957F4F8F4F47
:1044D0009F4F9923A9F0F92F96E9BB279395F6955D
:1044E000879577956795B795F111F8CFFAF4BB0FDB
:1044F00011F460FF1BC06F5F7F4F8F4F9F4F16C03F
:10450000882311F096E911C0772321F09EE8872FC8
:10451000762F05C0662371F096E8862F70E060E084
:104520002AF09A95660F771F881FDAF7880F9695FD
:10453000879597F90895E894F92F96EBFF2381F07A
:10454000121613061406440B9395F69587957795E6
:10455000679557954040FF23B9F71BC099270895E9
:10456000882351F49850D2F7872B762F652F542F3C
:10457000432F322F20E0B1F3121613061406440B1A
:1045800088233AF09A95440F551F661F771F881F9E
:10459000CAF755234AF4440F551F11F460FF04C0B5
:1045A0006F5F7F4F8F4F9F4F880F9695879597F935
:1045B0000895990F0008550FAA0BE0E8FEEF1616B4
:1045C0001706E807F907C0F012161306E407F50707
:1045D00098F0621B730B840B950B39F40A2661F07B
:1045E000232B242B252B21F408950A2609F4A1401E
:1045F000A6958FEF811D811D089597F99F6780E82B
:1046000070E060E008959FEF80EC089590958095AC
:104610007095609550954095309521953F4F4F4F3F
:104620005F4F6F4F7F4F8F4F9F4F089500240A9425
:104630001616170618060906089500240A9412167D
:104640001306140605060895092E0394000C11F4B0
:10465000882352F0BB0F40F4BF2B11F460FF04C05D
:104660006F5F7F4F8F4F9F4F089557FD9058440FB6
:10467000551F59F05F3F71F04795880F97FB991FC1
:1046800061F09F3F79F0879508951216130614067E
:10469000551FF2CF4695F1DF08C01616170618060B
:1046A000991FF1CF86957105610508940895E894E6
:1046B000BB2766277727CB0197F908950E94D92257
:1046C00008F48FEF089516F00C94F0240C94032353
:1046D00068940C94FD220E943D23A8F39923C1F312
:1046E000AEF3DF93CF931F930F93FF92C92FDD2774
:1046F00088232AF02197660F771F881FDAF720E0BA
:1047000030E040E85FEB9FE3883920F0803E38F0EE
:1047100021968F770E943F21EAE9F0E004C00E94D1
:104720003F21E7ECF0E00E9405258B01BE01EC0182
:10473000FB2E6F5771097595771F880B990B0E9497
:10474000602228E132E741E35FE30E94C623AF2DF8
:104750009801AE01FF900F911F91CF91DF910E94C0
:1047600056210C9424230E94C6230C9424230E94D7
:10477000162338F00E941D2320F0952311F00C948D
:10478000FD220C94032311240C9458230E943523FA
:1047900070F3959FC1F3950F50E0551F629FF00194
:1047A000729FBB27F00DB11D639FAA27F00DB11DAD
:1047B000AA1F649F6627B00DA11D661F829F222736
:1047C000B00DA11D621F739FB00DA11D621F839FBD
:1047D000A00D611D221F749F3327A00D611D231F93
:1047E000849F600D211D822F762F6A2F11249F57E1
:1047F00050409AF0F1F088234AF0EE0FFF1FBB1FE4
:10480000661F771F881F91505040A9F79E3F5105A2
:1048100080F00C94FD220C9458235F3FE4F3983E03
:10482000D4F3869577956795B795F795E7959F5F4C
:10483000C1F7FE2B880F911D9695879597F90895DE
:10484000FA01EE0FFF1F309621053105A1F1611528
:10485000710561F48038BFE39B0749F16894903893
:10486000810561F08038BFEF9B0741F099234AF53D
:10487000FF3FE1053105210519F1E8940894E7951A
:10488000D901AA2329F4AB2FBE2FF85FD0F310C0B3
:10489000FF5F70F4A695E0F7F73950F019F0FF3A92
:1048A00038F49F779F930DD00F9007FC9058089590
:1048B00046F00C94032360E070E080E89FE30895E5
:1048C0004FE79F775F934F933F932F930E946B2304
:1048D0002F913F914F915F910E94B3230C94BE247E
:1048E00019F416F40C9403230C94F0240E943D2335
:1048F000B8F39923C9F3B6F39F57550B87FF0E946E
:10490000FE240024A0E640EA900180585695979531
:1049100028F4805C660F771F881F20F02617370762
:10492000480730F4621B730B840B202931294A2B72
:10493000A69517940794202531254A2758F7660F26
:10494000771F881F20F026173707480730F4620BBF
:10495000730B840B200D311D411DA09581F7B9010A
:10496000842F9158880F96958795089529F416F00D
:104970000C94FD220C9457230C9403230E943D2396
:10498000A8F39638A0F707F80F92E8942BE33AEAD9
:1049900048EB5FE70E94C9230F920F920F924DB729
:1049A0005EB70F920E946E25E4EFF0E00E940525AD
:1049B0004F915F91EF91FF91E595EE1FFF1F49F039
:1049C000FE57E0684427EE0F441FFA95E1F7419542
:1049D000550B0E9438250F9007FE0C942C25089546
:1049E0009F3F31F0915020F4879577956795B79563
:1049F000880F911D9695879597F90895915050408D
:104A0000660F771F881FD2F70895DF93CF931F9308
:104A10000F93FF92EF92DF927B018C01689406C0A6
:104A2000DA2EEF010E94C623FE01E894A59125919C
:104A3000359145915591A6F3EF010E945621FE0153
:104A40009701A801DA9469F7DF90EF90FF900F913A
:104A50001F91CF91DF9108959B01AC0160E070E060
:104A600080E89FE30C94B0210C94FD220C94F02478
:104A70000E943D23D8F39923C9F3940F511DA3F34A
:104A80009150504094F059F0882332F0660F771F10
:104A9000881F91505040C1F79E3F51052CF7880F59
:104AA000911D9695879597F908955F3FACF0983ED4
:104AB0009CF0BB27869577956795B79508F4B1600C
:104AC0009395C1F7BB0F58F711F460FFE8CF6F5F04
:104AD0007F4F8F4F9F4FE3CF0C945823FA01DC0197
:104AE000AA0FBB1F9B01AC01BF5728F42227332715
:104AF0004427507820C0B75190F4AB2F002446953E
:104B000037952795011CA395D2F3002071F0220F51
:104B1000331F441FB395DAF30ED00C943E2161305D
:104B20007105A0E88A07B94630F49B01AC016627FD
:104B3000772788279078309621F02083318342832D
:104B400053830895DB018F939F930E94D725BF91D4
:104B5000AF91A29F800D911DA39F900DB29F900DCC
:104B600011240895052E97FB1EF400940E94C92578
:104B700057FD07D00E94B52707FC03D04EF40C94D4
:104B8000C92550954095309521953F4F4F4F5F4F28
:104B9000089590958095709561957F4F8F4F9F4FA9
:104BA0000895EE0FFF1F0590F491E02D09940E94E7
:104BB000D727A59F900DB49F900DA49F800D911DA8
:104BC00011240895B7FF0C94D7250E94D725821B86
:104BD000930B0895DF93CF931F930F939A9DF02D1E
:104BE000219FF00D8B9DF00D8A9DE02DF10D039F0F
:104BF000F00D029FE00DF11D4E9DE00DF11D5E9D3B
:104C0000F00D4F9DF00D7F936F93BF92AF925F9326
:104C10004F93D5010E94D7278B01AC01D7010E9489
:104C2000D727EB01E80FF91FD6010E943A262F91F2
:104C30003F91D6010E94D727C60FD71FE81FF91F43
:104C4000AF91BF910E943A262F913F910E94D727A2
:104C5000C60FD71FE81FF91FD6010E94D727E60FFE
:104C6000F71F9801BE01CF0111240F911F91CF9121
:104C7000DF9108950E94D727460F571FC81FD91FDD
:104C800008F43196089597FB57FF0C9453269F9391
:104C90008F930E9453266E1B7F0BAF91BF918A0B9F
:104CA0009B0B0895E894DF93CF93FC01DB010E94F6
:104CB000D7277F936F93E9019A01AC01BF93AF931C
:104CC0003F932F93DF010E94D72726F46C1B7D0BA7
:104CD000820B930B9E01EB01FC010E943A26AF91DF
:104CE000BF912F913F910E943A26BE01CF01F90159
:104CF0002F913F91CF91DF910895689401C0E8947E
:104D0000F92FF12B12F00C94B126A0E0B0E0EBE803
:104D1000F6E20C942327092E059422F40E940D2715
:104D2000112392F4F0E80F26FFEFE094F094009541
:104D30001095B094C094D094A194BF0ACF0ADF0A12
:104D4000EF0AFF0A0F0B1F0B0E94BC2607FC0E94F4
:104D50000D27CDB7DEB7ECE00C943F27689401C077
:104D6000E8948F929F92CF93DF930E94BC26DF91AD
:104D7000CF919F908F90089588249924F401E401A5
:104D8000B0E49F93AA279A158B049C04ED05FE05B9
:104D9000CF05D007A10798F4AD2FDC2FCF2FFE2F22
:104DA000E92D982C892E982F872F762F652F542F39
:104DB000432F322F2227B85031F7BF9127C01B2E27
:104DC000BF91BB27220F331F441F551F661F771F3C
:104DD000881F991F881C991CEE1FFF1FCC1FDD1F09
:104DE000AA1FBB1F8A149B04EC05FD05CE05DF0539
:104DF000A007B10748F08A189B08EC09FD09CE0905
:104E0000DF09A00BB10B21601A94E1F62EF4940196
:104E1000AF01BE01CD01000C08956095709580959D
:104E2000909530954095509521953F4F4F4F5F4F4E
:104E30006F4F7F4F8F4F9F4F08952F923F924F920A
:104E40005F926F927F928F929F92AF92BF92CF921A
:104E5000DF92EF92FF920F931F93CF93DF93CDB723
:104E6000DEB7CA1BDB0B0FB6F894DEBF0FBECDBF9B
:104E700009942A88398848885F846E847D848C846C
:104E80009B84AA84B984C884DF80EE80FD800C8175
:104E90001B81AA81B981CE0FD11D0FB6F894DEBF58
:104EA0000FBECDBFED0108950F93083090F0982FFD
:104EB000872F762F652F542F432F322F222708500C
:104EC000F4CF220F331F441F551F661F771F881F03
:104ED000991F0A95B2F70F91089597FB10F8169451
:104EE00000080F93083098F00850232F342F452FD7
:104EF000562F672F782F892F902DF4CF05949795F3
:104F000087957795679557954795379527950A958E
:104F1000AAF70F9108952A0D3B1D4C1D5D1D6E1DB6
:104F20007F1D801F911F08950024A7FD00942A0F64
:104F3000301D401D501D601D701D801D901D089569
:104F40002A193B094C095D096E097F09800B910BF9
:104F500008950024A7FD00942A1730054005500548
:104F600060057005800590050895A1E21A2EAA1B20
:104F7000BB1BFD010DC0AA1FBB1FEE1FFF1FA21709
:104F8000B307E407F50720F0A21BB30BE40BF50B06
:104F9000661F771F881F991F1A9469F7609570958F
:104FA000809590959B01AC01BD01CF010895A29F12
:104FB000B001B39FC001A39F700D811D1124911DED
:104FC000B29F700D811D1124911D08950F931F93A1
:104FD000CF93DF938230910510F482E090E0E0916E
:104FE000BA03F091BB0320E030E0A0E0B0E03097DE
:104FF00019F1408151810281138148175907C8F086
:105000008417950769F4109731F012960C93129754
:1050100013961C9327C00093BA031093BB0322C0BE
:105020002115310519F04217530718F49A01BD01F3
:10503000EF01DF01F801DBCF21153105F9F0281B65
:10504000390B2430310580F48A819B81611571050B
:1050500021F0FB019383828304C09093BB03809370
:10506000BA03FE01329644C0FE01E20FF31F8193A2
:10507000919322503109398328833AC02091B80393
:105080003091B903232B41F420910C0130910D0193
:105090003093B9032093B80320910A0130910B019A
:1050A0002115310541F42DB73EB740910E015091C5
:1050B0000F01241B350BE091B803F091B903E217FF
:1050C000F307A0F42E1B3F0B2817390778F0AC012B
:1050D0004E5F5F4F2417350748F04E0F5F1F509308
:1050E000B9034093B8038193919302C0E0E0F0E0EC
:1050F000CF01DF91CF911F910F910895CF93DF934F
:10510000009709F481C0FC01329713821282A091AA
:10511000BA03B091BB03109781F420813181820FD3
:10512000931F2091B8033091B9032817390751F51F
:10513000F093B903E093B80367C0ED0120E030E0DD
:10514000CE17DF0740F44A815B819E01411551056E
:10515000F1F0EA01F5CFD383C28340815181840FFE
:10516000951FC817D90759F488819981840F951F15
:105170000296918380838A819B8193838283211508
:10518000310529F4F093BB03E093BA033DC0E90174
:10519000FB83EA8349915991C40FD51FEC17FD0792
:1051A00061F480819181840F951F0296E9019983B2
:1051B0008883828193819B838A83E0E0F0E012966A
:1051C0008D919C911397009719F0FD01DC01F7CFA9
:1051D0008D919C9111979D012E5F3F4F820F931FE0
:1051E0002091B8033091B9032817390769F4309733
:1051F00029F41092BB031092BA0302C013821282E8
:10520000B093B903A093B803DF91CF91089581E0E3
:1052100090E0F8940C94DE2BFB01DC0102C00190BD
:105220000D9241505040D8F70895DC0101C06D93B4
:1052300041505040E0F70895FB01DC0141505040DF
:1052400048F001900D920020C9F701C01D92415015
:105250005040E0F70895AEE0B0E0E1E3F9E20C94ED
:105260002B270D891E8986E08C831A8309838FEF93
:105270009FE79E838D83AE01475E5F4F6F89788D78
:10528000CE0101960E944D29EF81F885E00FF11FB4
:1052900010822E96E4E00C944727ABE0B0E0E3E503
:1052A000F9E20C941D276C017B018A01FC01178235
:1052B0001682838181FFCCC1CE0101963C01F601AB
:1052C0009381F70193FD859193FF81917F0188235D
:1052D00009F4BAC1853239F493FD859193FF819128
:1052E0007F01853229F4B60190E00E94442BE7CF7C
:1052F000912C212C312CFFE1F315D8F08B3279F071
:1053000038F4803279F08332A1F4232D20611DC05E
:105310008D3261F0803369F4232D216016C0832D16
:105320008260382EE32DE4603E2E2AC0F32DF86013
:105330001DC037FC2DC020ED280F2A3040F08E32E2
:10534000B9F436FC81C1232D2064322E19C036FEFB
:1053500006C08AE0989E200D1124922E11C0EAE02A
:105360002E9E200D1124222EF32DF0623F2E08C018
:105370008C3621F4832D8068382E02C0883641F4A3
:10538000F70193FD859193FF81917F018111B3CF47
:10539000982F9F7D9554933028F40C5F1F4F9FE307
:1053A00099830DC0833631F0833771F0833509F06E
:1053B00059C021C0F801808189830E5F1F4F882466
:1053C0008394912C530113C02801F2E04F0E511C1D
:1053D000F801A080B18036FE03C0692D70E002C0E4
:1053E0006FEF7FEFC5010E94392B4C018201F32D35
:1053F000FF773F2E16C0280122E0420E511CF80113
:10540000A080B18036FE03C0692D70E002C06FEF4E
:105410007FEFC5010E942E2B4C01F32DF0683F2E2B
:10542000820133FC1BC0822D90E088169906B0F4EF
:10543000B60180E290E00E94442B2A94F4CFF5015B
:1054400037FC859137FE81915F01B60190E00E94A3
:10545000442B21102A9421E0821A9108811491048E
:1054600071F7E8C0843611F0893641F5F80137FE4E
:1054700007C060817181828193810C5F1F4F08C0DA
:1054800060817181072E000C880B990B0E5F1F4FF6
:10549000F32DFF763F2E97FF09C09095809570956C
:1054A00061957F4F8F4F9F4FF0683F2E2AE030E08D
:1054B000A3010E94802B882E861845C0853731F4C1
:1054C000232D2F7EB22E2AE030E025C0932D997F28
:1054D000B92E8F36C1F018F4883579F0B5C0803711
:1054E00019F0883721F0B0C0E92FE061BE2EB4FE7C
:1054F0000DC0FB2DF460BF2E09C034FE0AC0292F59
:105500002660B22E06C028E030E005C020E130E081
:1055100002C020E132E0F801B7FE07C0608171816E
:10552000828193810C5F1F4F06C06081718180E092
:1055300090E00E5F1F4FA3010E94802B882E8618DB
:10554000FB2DFF773F2E36FE0DC0232D2E7FA22E82
:10555000891458F434FE0BC032FC09C0832D8E7EB2
:10556000A82E05C0B82CA32C03C0B82C01C0B92CA0
:10557000A4FE0FC0FE01E80DF11D8081803321F4EF
:105580009A2D997EA92E09C0A2FE06C0B394B394A9
:1055900004C08A2D867809F0B394A3FC11C0A0FE44
:1055A00006C0B21488F4280C922C9B180EC0B214BA
:1055B00060F4B60180E290E00E94442BB394F7CFF0
:1055C000B21418F42B1802C0982C212CA4FE10C081
:1055D000B60180E390E00E94442BA2FE17C0A1FC1C
:1055E00003C088E790E002C088E590E0B6010CC0F7
:1055F0008A2D867859F0A1FE02C08BE201C080E2BC
:10560000A7FC8DE2B60190E00E94442B891438F487
:10561000B60180E390E00E94442B9A94F7CF8A94DD
:10562000F301E80DF11D8081B60190E00E94442B4A
:105630008110F5CF222009F442CEB60180E290E03D
:105640000E94442B2A94F6CFF6018681978102C0EE
:105650008FEF9FEF2B96E2E10C943927FC01059028
:10566000615070400110D8F7809590958E0F9F1F64
:105670000895FC016150704001900110D8F78095A9
:1056800090958E0F9F1F08950F931F93CF93DF93D5
:10569000FB01238121FD03C08FEF9FEF2CC022FF70
:1056A00016C046815781248135814217530744F43F
:1056B000A081B1819D012F5F3F4F318320838C9367
:1056C000268137812F5F3F4F3783268314C08B019C
:1056D000EC01FB010084F185E02D0995892BE1F6B1
:1056E000D80116968D919C911797019617969C93C9
:1056F0008E931697CE01DF91CF911F910F91089550
:10570000FA01AA27283051F1203181F1E8946F93F2
:105710006E7F6E5F7F4F8F4F9F4FAF4FB1E03ED098
:10572000B4E03CD0670F781F891F9A1FA11D680F36
:10573000791F8A1F911DA11D6A0F711D811D911D69
:10574000A11D20D009F468943F912AE0269F1124DE
:105750003019305D3193DEF6CF010895462F477042
:10576000405D4193B3E00FD0C9F7F6CF462F4F709D
:10577000405D4A3318F0495D31FD4052419302D0FB
:10578000A9F7EACFB4E0A6959795879577956795A1
:10579000BA95C9F700976105710508959B01AC01A1
:1057A0000A2E06945795479537952795BA95C9F7C8
:1057B000620F731F841F951FA01D0895F894FFCFDB
:1057C00001010000A041CD8B01000000BC0380005E
:1057D00000000000A10C160C940C690C492512491C
:1057E00028140D0A3C281B1400000000E30BB60B24
:1057F000130C8A0BAE0B9A0B8B0BCA1584403333F8
:105800007B4133337B4122222241000030410000A2
:1058100098410000404000004040566172696F4767
:105820005053002025326425250020253264636D05
:02583000000076
:00000001FF
