:100000000C945D030C9485030C9485030C94850378
:100010000C9485030C9485030C9485030C94850340
:100020000C9485030C9485030C9485030C94850330
:100030000C9485030C9485030C9485030C94850320
:100040000C944E0C0C9485030C94B70E0C94EE0E8D
:100050000C943F0F0C9485030C9485030C9485033A
:100060000C94980C0C9485039D1C991DD61C051DA1
:100070000E1D151D1E1D271D301D361D3C1D421D4C
:10008000881DBE1DD11DC31DDB1DF51D0F1E161EB7
:100090001F1E281E361E3D1E441E08000000BE9274
:1000A0002449123EABAAAA2ABECDCCCC4C3E0000BD
:1000B0000080BEABAAAAAA3E00000000BF0000005C
:1000C000803F0000000000084178D3BB4387D11374
:1000D0003D190E3CC3BD4282AD2B3E68EC8276BE1C
:1000E000D98FE1A93E4C80EFFFBE01C4FF7F3F00E6
:1000F0000000000007634236B79BD8A71A3968563C
:1001000018AEBAAB558C1D3CB7CC5763BD6DEDFD39
:10011000753EF6177231BF000000803F20537461B6
:100120007274757000204175746F00000000204DDE
:10013000616E75616C00002044697361626C656476
:1001400000000000000000204174746F50696C6F63
:1001500074203435000000204174746F50696C6F56
:1001600074203930000000204174746F50696C6F46
:10017000742031383000002041504D322E35203966
:1001800030412F35305600204143533731322D3026
:1001900035000000000000204143533731322D323A
:1001A00030000000000000204143533731322D332E
:1001B00030000000000000204143533735382D3512
:1001C00030420000000000204143533735382D31C4
:1001D00030304200000000204143533735382D3184
:1001E00035304200000000204143533735382D326E
:1001F00030304200000000204143533735382D3560
:1002000030550000000000204143533735382D3170
:1002100030305500000000204143533735382D3130
:1002200035305500000000204143533735382D321A
:10023000303055000000002044697361626C6564D1
:10024000000020416972207370656564002047508A
:1002500053000000000000002044697361626C6577
:10026000640020456E61626C6564000020756E6BF1
:100270006E6F776E0020424D5032383000002042C1
:100280004D453238300000204D53353631310000B5
:10029000204C5053000000000056657273696F6E69
:1002A0002056322E330000000000566172696F47FD
:1002B00050532053656E736F7200005265736574FE
:1002C000206F6666736574000000000050726573ED
:1002D000737572652073656E736F723A0056617242
:1002E000696F20736D6F6F7468696E673A0056614D
:1002F00072696F20646561647A6F6E653A000041CF
:1003000069722073706565643A00000000000000A7
:10031000544543206D6F64653A0000000000000002
:10032000004D61696E2064726976653A00000000D4
:10033000000043617061636974792072657365744C
:100340003A000052783120766F6C746167653A002C
:100350000000000052783220766F6C746167653A55
:1003600000000000004578742E2054656D703A003E
:100370000000000000005361766520616E64207209
:10038000657374617274004C6F61642064656661AA
:10039000756C747300000000014C617469747564BD
:1003A00065000000000000000000000000200000C8
:1003B000000000000900024C6F6E67697475646587
:1003C000000000000000000000000020000000000D
:1003D00000000900034750532073706565640000F6
:1003E0000000000000000000006B6D2F680000009E
:1003F00001000452656C2E20416C74697400000089
:10040000000000000000006D00000000000004017A
:10041000054162732E20416C746974000000000075
:1004200000000000006D00000000000004000656FF
:100430006172696F00000000000000000000000011
:100440000000006D2F730000000004020744697370
:1004500074616E6365000000000000000000000091
:10046000006D000000000000040008547269700074
:100470000000000000000000000000000000006B11
:100480006D0000000000040209417A696D7574680E
:1004900000000000000000000000000000B00000AC
:1004A0000000000001000A436F75727365000000D0
:1004B0000000000000000000000000B0000000008C
:1004C000000001000B536174656C6C697465730006
:1004D00000000000000000000020000000000000FC
:1004E00000000C48444F50000000000000000000D5
:1004F00000000000000000200000000000000102D9
:100500000D4169722070726573732E000000000047
:1005100000000000006850610000000004020E545A
:10052000656D702E0000000000000000000000005B
:10053000000000B043000000000001010F48756D8D
:100540006964697479000000000000000000000088
:100550000025724800000000010110566F6C7461A4
:100560006765000000000000000000000000005669
:1005700000000000000001011143757272656E7485
:10058000000000000000000000000000004100002A
:100590000000000001011243617061636974790019
:1005A00000000000000000000000006D4168000035
:1005B0000000040013506F77657200000000000017
:1005C00000000000000000000057000000000000D4
:1005D00004001452783120566F6C74616765000016
:1005E00000000000000000560000000000000102B2
:1005F0001552783220566F6C7461676500000000F8
:100600000000000000560000000000000102164536
:1006100078742E2054656D7000000000000000000A
:10062000000000B0430000000000010117416972A2
:100630002073706565640000000000000000000089
:10064000006B6D2F6800000001000000000000003A
:10065000000000000000000000000000000000009A
:10066000000000000000000000000000250028003D
:100670002B00040404040404040402020202020223
:100680000303030303030102040810204080010256
:1006900004081020010204081020000000080002D5
:1006A000010000030407000000000000000000003B
:1006B0000000240027002A007F2111241FBECFEF55
:1006C000D8E0DEBFCDBF11E0A0E0B1E0ECE9F9E594
:1006D00002C005900D92A235B107D9F723E0A2E53B
:1006E000B1E001C01D92AC3BB207E1F713E0CDE5EC
:1006F000D3E004C02197FE010E94C526CC35D10766
:10070000C9F70E9464100C94CC2C0C9400009091BA
:1007100000029111FCCF91E0909300029093FF01B1
:100720002FEF2093FE011092FD01260F2093FC0174
:100730009093DB019091DB01880F892B8093DB0183
:100740008091DA01813061F41092DA018091DB014D
:100750008093BB008091BC0083FDF8CF85EC01C085
:1007600085EE8093BC00809100028130E1F380919E
:10077000FD01861710F46091FD01ACEDB1E02AEBAC
:1007800031E0F9018E2F821B861718F48D91819329
:10079000F9CF862F0895613208F060E20E94870346
:1007A0001092B9018093B80108952091230290918D
:1007B0006503213208F04AC0809100028111FCCF0C
:1007C00032E03093000231E03093FF013FEF30938D
:1007D000FE011092FD012093FC01A3E0B2E04CED7C
:1007E00051E0FA013E2F341B321718F43D9131933A
:1007F000F9CF1092DB012091DB01990F922B90939E
:10080000DB019091DA01913061F41092DA0190915C
:10081000DB019093BB009091BC0093FDF8CF95EC69
:1008200001C095EE9093BC00909100029230E1F3EC
:100830009091FE019F3F79F08091FE01803241F05E
:100840008091FE01803331F084E005C081E003C077
:1008500082E001C083E01092020210922302109203
:100860000102089591E09093010280936503109234
:100870000202109223020895CF93DF93D82FC62F40
:10088000809156020E9432046D2F84E292E00E9411
:10089000FE0A6C2F84E292E00E94FE0ADF91CF9163
:1008A0000C94D5030F931F93CF93DF931F92CDB773
:1008B000DEB7682F06E512E0F801808169830E94A7
:1008C0003204698184E292E00E94FE0A0E94D5030C
:1008D00061E0F80180810E94CB0384E292E00E94F3
:1008E000B20A0F90DF91CF911F910F910895CF928F
:1008F000DF92EF92FF920F931F93CF93DF931F929C
:10090000CDB7DEB7682F06E512E0F8018081698374
:100910000E943204698184E292E00E94FE0A0E94F1
:10092000D50363E0F80180810E94CB0384E292E06A
:100930000E94B20A6C01990FEE08FF08FE2CED2C04
:10094000DC2CCC2484E292E00E94B20AAC01990F24
:10095000660B770BC42AD52AE62AF72AFE2CED2C43
:10096000DC2CCC2484E292E00E94B20A092E000C16
:10097000AA0BBB0BBC01CD016C297D298E299F29B7
:100980000F90DF91CF911F910F91FF90EF90DF902B
:10099000CF9008950F931F93CF93DF931F92CDB7FE
:1009A000DEB7682F06E512E0F801808169830E94B6
:1009B0003204698184E292E00E94FE0A0E94D5031B
:1009C00062E0F80180810E94CB0384E292E00E9401
:1009D000B20A182F84E292E00E94B20A20E030E0CE
:1009E000312F822B932B0F90DF91CF911F910F917D
:1009F00008950E94CA049827892798270895CF93BD
:100A000066EB80EE0E943C0464E670E080E090E0DB
:100A10000E94080C88E80E94F90490936102809378
:100A200060028AE80E94F904909363028093620254
:100A30008CE80E94F90490936502809364028EE82A
:100A40000E94F904909367028093660280E90E94F5
:100A5000F904909369028093680282E90E94F90484
:100A600090936B0280936A0284E90E94F904909348
:100A70006D0280936C0286E90E94F90490936F02E4
:100A800080936E0288E90E94F9049093710280932A
:100A900070028AE90E94F9049093730280937202B3
:100AA0008CE90E94F90490937502809374028EE998
:100AB0000E94F90490937702809376028091570206
:100AC000823009F03FC081EA0E945204809378028C
:100AD00081EE0E94F90490937A028093790283EE6A
:100AE0000E94520480937B0284EE0E945204C82F1D
:100AF00085EE0E945204282F2F7030E1C39FC00161
:100B00001124822B90937D0280937C0286EE0E94BA
:100B10005204C82F85EE0E94520490E024E095957F
:100B200087952A95E1F740E1C49F90011124822B1B
:100B3000932B90937F0280937E0287EE0E94520453
:100B40008093800289ED80938202809183028F716D
:100B500080628093830280918102807C8062809396
:100B6000810280915702823021F461E082EF0E947D
:100B70003C0490918102692F677080E2689F900128
:100B80001124892F869586958695877048E0849FE5
:100B9000B0011124622B732B97FB992790F9692BD5
:100BA00085EF0E943C0490918202692F677080E279
:100BB000689F90011124892F869586958695877068
:100BC00048E0849FB0011124622B732B9295969577
:100BD00096959370692B84EFCF910C943C0490E030
:100BE000FC01E656F94F2491FC01EA57F94F349184
:100BF000FC01EE58F94FE491EE23B1F1222339F1D3
:100C0000233091F038F42130A9F0223001F584B579
:100C10008F7D12C0273091F02830A1F02430B9F434
:100C2000809180008F7D03C0809180008F778093BA
:100C300080000DC084B58F7784BD09C08091B0005D
:100C40008F7703C08091B0008F7D8093B000F0E07B
:100C5000EE0FFF1FE859F94FA591B4918FB7F894A3
:100C6000EC913E2B3C938FBF0895809356021092D7
:100C7000B9011092B80110920202109223020E9450
:100C8000C60D80ED0E945204883521F0803641F473
:100C900082E001C081E0809357020E94FF0402C0FD
:100CA000109257028091570290E008958F929F9280
:100CB000AF92BF92CF92DF92EF92FF928AEF0E94A3
:100CC0007704E6E5F2E0428553854A01A12CB12C78
:100CD000C72ED82EE92EFF24E7FCFA94C818D908AD
:100CE000EA08FB08DC01CB0137E0B595A79597959D
:100CF00087953A95D1F7B501A401440F551F661F9A
:100D0000771F4C015D01841A950AA60AB70AA5014E
:100D10009401A485B5850E94D6264B015C013BE079
:100D2000B594A794979487943A95D1F7A701960123
:100D3000C701B6010E9496269B01AC016CE0559557
:100D40004795379527956A95D1F7A685B7850E946F
:100D5000D626DC01CB017EE0B595A79597958795C2
:100D60007A95D1F7A5019401280F391F4A1F5B1FFF
:100D70002683378340875187A5E0B0E00E94CB26C9
:100D8000DC01CB0180589F4FAF4FBF4F692F7A2FA7
:100D90008B2F992787FD9A950E94542320E030E0FD
:100DA00048EC52E40E94A422FF90EF90DF90CF9095
:100DB000BF90AF909F908F9008952F923F924F9247
:100DC0005F926F927F928F929F92AF92BF92CF92DB
:100DD000DF92EF92FF920F931F93CF93DF93CDB7E4
:100DE000DEB7A2970FB6F894DEBF0FBECDBF0E944C
:100DF000560687EF0E9477046A8F7B8F8C8F9D8FBA
:100E000080915C0290915D02A0915E02B0915F02C0
:100E10006C017D01FF0CCC08DC2C76019C01AD013E
:100E20006C2D7C2D8C2D9C2D345F41405109610926
:100E30007109810991092AA339A349835A836B83D4
:100E40007C838D839E8359016A017B018C010E9402
:100E5000DE262A8B3B8B4C8B5D8B6E8B7F8B888F3A
:100E6000998F809170028E8FE0917102EF83F091E3
:100E70006E02FF8F80916F028887E0916C02E8A379
:100E8000F0916D02F987B0906902A09068021B2D65
:100E9000110F110BC12ED12EE12EF12E012F2AA1FF
:100EA00039A149815A816B817C818D819E810E940B
:100EB000DE260CE00E94482819012A013B014C0162
:100EC000B0906B02A0906A021B2D110F110BC12E66
:100ED000D12EE12EF12E012F2A893B894C895D8983
:100EE0006E897F89888D998D0E94DE2608E00E9498
:100EF000612851016201730184010E947F287058AA
:100F00008F4F9F4F20906602309067025101C12C95
:100F1000D12CE12CF12C00E010E00E94DE2601E251
:100F20000E9461282A873B874C875D876E877F8771
:100F3000888B998BA0E00E949D2809F45EC1AE8C3D
:100F40001F81110F110BBF80C12ED12EE12EF12E6A
:100F5000012F2A893B894C895D896E897F89888D1B
:100F6000998D0E94DE2619012A013B014C01AF8CAC
:100F70001885110F110BB884C12ED12EE12EF12E40
:100F8000012F2AA139A149815A816B817C818D81F0
:100F90009E810E94DE2601E10E94482859016A01D3
:100FA0007B018C019101A201B301C4010E947F2841
:100FB00019012A013B014C014A8D5B8D6C8D7D8DA1
:100FC00084E075956795579547958A95D1F780E0A8
:100FD00090E0A0E1B0E0841B950BA60BB70B6C0171
:100FE0007D01FF0CCC08DC2C76019C01AD016C2D41
:100FF0007C2D8C2D9C2D0FE10E944828F901B42FE7
:10100000A52F6C837D8389839A8328A19985990F65
:10101000990B3985492F592F692F792F892F03E291
:101020000E94482859016A017B018C019101A201AB
:10103000B301C4010E947F2859016A017B018C0120
:101040009F014B2F5A2F6C817D8189819A810E944B
:1010500094284901542E652EB62FA72FF82FE92F7B
:1010600003E00E9448285401C52CD62CEB2EFA2E02
:101070000F2F1E2F0E94942859016A017B01782EA0
:10108000192F03E00E944828072D0E94942803E0AE
:101090000E9448285401C52CD62CEB2EFA2E0F2F77
:1010A0001E2F0E94942802E00E9448280F2F0E94C1
:1010B000942801E00E9448280F2F0E949428AA84B7
:1010C000BB84CC84DD84EE84FF84088919890E9466
:1010D000732728873F8349835A836B837C838D835F
:1010E0009E830DE00E946128922E832E742E652E21
:1010F000562E472E382E292E3091770220917602D7
:10110000932F990F990BA92CB82CC72CD62CE52C12
:10111000F42C032D122D492F592F692F792F892F48
:101120000E94DE260E94DE2609E10E946128590104
:101130006A017B018C0128853F8149815A816B813D
:101140007C818D819E810E947F2819012A013B01AB
:101150004C013091750220917402932F990F990BD5
:10116000A884BF80C980DA80EB80FC800D811E815D
:10117000492F592F692F792F892F0E94DE2603E1ED
:101180000E94612859016A017B018C019101A20131
:10119000B301C4010E947F2808E00E946128522EFA
:1011A000632E742E852E962EF72FE82FB92F3091AF
:1011B000730220917202932F990F990B492F592F87
:1011C000692F792F892F04E00E94482859016A016C
:1011D0007B018C01252D362D472D582D692D7F2F14
:1011E0008E2F9B2F0E947F280E944C2320E030E00E
:1011F00040E85BE30E94A72403C060E070E0CB01FD
:10120000A2960FB6F894DEBF0FBECDBFDF91CF918F
:101210001F910F91FF90EF90DF90CF90BF90AF9014
:101220009F908F907F906F905F904F903F902F9006
:101230000895DF92EF92FF920F931F93CF93DF9366
:10124000CDB7DEB76E970FB6F894DEBF0FBECDBF39
:101250008C01DC015A961C921E92599788E993E002
:1012600056969C938E935597F8017D9680E2DF0108
:101270001D928A95E9F7D12CE12CF12CF8016589B2
:1012800076896E0D7F1D4EE150E0CE0101960E94E1
:10129000132289818823C9F0803220F4F801E80FF5
:1012A000F11DD58ED80159968D919C915A97019632
:1012B0005A969C938E935997BEE1EB0EF11CD394F2
:1012C000E0ECEE16E3E0FE06C9F66E960FB6F89473
:1012D000DEBF0FBECDBFDF91CF911F910F91FF9069
:1012E000EF90DF900895CF93C82F80919D02909149
:1012F0009E02892B21F484E892E00E941909C032F1
:10130000D0F4EC2FF0E0EC57FD4F858DE82FF0E0A6
:1013100093E0F595E7959A95E1F7EF53FD4F282F68
:10132000277081E090E001C0880F2A95EAF7809548
:101330009081892380831092A00210929F02CF9106
:101340000895813208F080E2682F87E70E948703C2
:101350001092B9018093B8010895862740E1849FD7
:10136000900111242827622F70E0562F4427292F3F
:1013700030E0242B352BCB0144E0959587954A9599
:10138000E1F728273927CB0153E0880F991F5A9599
:10139000E1F782279327089520919B0230919C02C8
:1013A0002115310589F0803278F4E82FF0E0EC5710
:1013B000FD4F858DF90194E0899FE00DF11D112409
:1013C000408351836283738308951F93CF93DF9388
:1013D00087E70E94320460E084E292E00E94FE0A05
:1013E0000E94D50387E70E94320483E090E00E94C8
:1013F000A1099091B8018091B9019817F1F384E2A5
:1014000092E00E94B20AD82F84E292E00E94B20ACF
:10141000182F84E292E00E94B20AC82F0E94D503DE
:10142000812F90E0A0E0B0E0BA2FA92F982F882755
:10143000AD2BBC01CD016C2BDF91CF911F91089595
:10144000CF92DF92EF92FF920F931F93CF93DF9390
:101450006C017A018B01C0E0D0E0CE15DF0589F088
:10146000D8016D918D01D601ED91FC910190F08133
:10147000E02DC6010995892B11F47E0102C0219649
:10148000ECCFC701DF91CF911F910F91FF90EF90AB
:10149000DF90CF9008953FB7F8948091B403909176
:1014A000B503A091B603B091B70326B5A89B05C0BC
:1014B0002F3F19F00196A11DB11D3FBFBA2FA92FD3
:1014C000982F8827820F911DA11DB11DBC01CD0150
:1014D00042E0660F771F881F991F4A95D1F708953C
:1014E00085ED8093BC008091BC0084FDFCCF109200
:1014F0000002089540918A03262F30E0240F311D09
:1015000021323105DCF4209100022430C9F4FC01C1
:1015100080E090E0861758F430918A032191DC0135
:10152000A859BC4FA30FB11D2C930196F3CF809106
:101530008A03680F60938A0380E0089581E008952C
:1015400082E008950895E091B9018091B801E8170B
:1015500030F4F0E0E654FE4F808190E008958FEF84
:101560009FEF08959091B9018091B801981750F4B8
:10157000E92FF0E0E654FE4F208130E09F5F90932A
:10158000B90102C02FEF3FEFC90108958091B80162
:1015900090E02091B901821B91090895CF92DF92CA
:1015A000EF92FF920F931F93CF93DF937C01262F2F
:1015B000972F8A0180910102882391F0C62FD72F9F
:1015C0006E01C40ED51ECC15DD0571F06991D701F1
:1015D000ED91FC910190F081E02DC7010995F3CFC9
:1015E000642F822F0E947A0AC801DF91CF911F9148
:1015F0000F91FF90EF90DF90CF900895CF93DF93FE
:101600001F92CDB7DEB76983209101022223D1F06A
:1016100020912302203240F021E030E0FC013383AE
:10162000228380E090E015C080910202E82FF0E074
:10163000ED5FFD4F998190838F5F809302028093CD
:10164000230205C061E0CE0101960E947A0A81E082
:1016500090E00F90DF91CF910895089580E090E0A1
:101660000895CF92DF92EF92FF920F931F93CF9343
:10167000DF939C01EA01F89450E06C0186E4C80E07
:10168000D11CF901EE5BFF4F89010E5F1F4F852FC3
:1016900090E08C179D07F8F4D6014C914034E0F4AB
:1016A000E080F180860F971FDC018C91D7018C932D
:1016B000D6018C918F5F8C938081918101968E17DA
:1016C0009F0718F0402F812F02C0482F892F408399
:1016D00081835F5FDCCFCE01F901E457FF4F2081AA
:1016E000211108C021E020832091C1002F762862BB
:1016F0002093C1007894DF91CF911F910F91FF90BB
:10170000EF90DF90CF900895FC01E557FF4F2081C7
:10171000222301F1F894A0916603B0916703A757C3
:10172000BF4F0D90BC91A02D4C9120812150208362
:101730003297208131812F5F3F4FBC0169577F4F26
:101740002617370718F09C01295B3F4F3183208310
:10175000789401C040E0842F90E00895FC01E557A3
:10176000FF4F208181E090E0211102C080E090E0F5
:1017700008950E94072ACF93DF93EC011092C000D6
:1017800080E98093C10086E08093C2001092C5007A
:1017900087E08093C40080E00E943C1081E00E94BA
:1017A0003C10CE010296FE01EE5BFF4F91838083D9
:1017B000329691838083329610828B5B9F4FEF5BD2
:1017C000FF4F91838083329691838083329610827B
:1017D00031961082D0936703C0936603DF91CF9157
:1017E00008958E3008F08E508770806480937C005E
:1017F00080917A00806480937A0080917A0086FDDF
:10180000FCCF809178002091790090E0922B089590
:101810008F929F92AF92BF92CF92DF92EF92FF9200
:101820006B017C010E944B0A4B015C01C114D10485
:10183000E104F104F1F00E944B0ADC01CB018819AC
:101840009909AA09BB09883E9340A105B10570F327
:1018500021E0C21AD108E108F10888EE880E83E081
:10186000981EA11CB11CC114D104E104F10419F7A4
:10187000DDCFFF90EF90DF90CF90BF90AF909F9023
:101880008F9008952FB7F8946091B0037091B103D1
:101890008091B2039091B3032FBF08951F920F92CE
:1018A0000FB60F9211242F933F938F939F93AF9373
:1018B000BF938091B0039091B103A091B203B09116
:1018C000B3033091AF0323E0230F2D3720F40196AB
:1018D000A11DB11D05C026E8230F0296A11DB11D53
:1018E0002093AF038093B0039093B103A093B2030E
:1018F000B093B3038091B4039091B503A091B60364
:10190000B091B7030196A11DB11D8093B4039093CC
:10191000B503A093B603B093B703BF91AF919F9166
:101920008F913F912F910F900FBE0F901F901895A0
:101930001F920F920FB60F9211242F933F934F9344
:101940005F936F937F938F939F93AF93BF93EF9327
:10195000FF938091B900887F803609F49CC068F5B8
:10196000883209F45BC090F4803109F454C038F433
:10197000882309F4F6C0883009F44DC0F6C08831D8
:1019800009F44CC0803209F45DC0EFC0803409F422
:1019900068C048F4803309F455C0883309F0E5C0C5
:1019A0008093FE01D8C0803509F44FC0883509F412
:1019B0005DC0883409F0D9C0D6C0883909F4C7C0E1
:1019C000A8F4883709F467C038F4883609F463C08E
:1019D000803709F460C0C9C0883809F4B8C08039BC
:1019E00009F45FC0803809F0C0C05BC0803B09F4D7
:1019F00086C038F4803A09F466C0883A09F47FC09A
:101A0000B4C0803C09F4A7C0883C09F4A4C0883B5A
:101A100009F48AC0AAC08091DB0110C09091FD0139
:101A20008091FC01981770F5E091FD0181E08E0F27
:101A30008093FD01F0E0E452FE4F80818093BB0073
:101A400085EC86C08093FE018EC0E091FD0181E0AF
:101A50008E0F8093FD018091BB00F0E0E452FE4FB9
:101A600080839091FD018091FC016EC0E091FD01A9
:101A700081E08E0F8093FD018091BB00F0E0E45285
:101A8000FE4F80838091FF0181116DC081E08093C2
:101A9000DA0184EA61C083E0809300021092AE0311
:101AA000CFCF8091AE03803208F051C0E091AE03F9
:101AB00081E08E0F8093AE038091BB00F0E0E2578F
:101AC000FC4F8083BDCF85EC8093BC001092000258
:101AD0008091AE03803230F4E091AE03F0E0E25743
:101AE000FC4F10826091AE0370E0E0918C03F091A6
:101AF0008D038EE893E009951092AE0336C084E022
:101B00008093000210928B0310928A03E091880365
:101B1000F0918903099580918A03811105C081E0C4
:101B200080938A0310926803E0918B0381E08E0F0B
:101B300080938B03F0E0E859FC4F80818093BB00D9
:101B400090918B0380918A03981708F479CF85E8E8
:101B50008093BC000AC085EC8093BC001092000208
:101B600004C01092FE010E94700AFF91EF91BF9194
:101B7000AF919F918F917F916F915F914F913F9125
:101B80002F910F900FBE0F901F901895109200028A
:101B900081E08093FF011092DA0182E10E94EF055B
:101BA00083E10E94EF05E9EBF0E080818E7F808386
:101BB00080818D7F808388E48093B80085E4809362
:101BC000BC000895CF92DF92EF92FF920F931F9384
:101BD000CF93DF93CDB7DEB76E970FB6F894DEBF25
:101BE0000FBECDBFFC0112828FEF9FEFDC0183831C
:101BF0009483A583B68381E08783148E158E168E19
:101C0000178E10A2DB0193E0B595A7959A95E1F7A1
:101C1000A40FB51FDD962C9130E0CB01877099277A
:101C200002C0359527958A95E2F7217033272783DF
:101C3000232B09F48DC06A017B018F012EE1269FC1
:101C4000C001279F900D1124DA0155966D917C916A
:101C50005697680F791F4EE150E0CE0101960E9421
:101C600013228D8DF801868F89818283B701660FDB
:101C7000771F660F771FD6015796ED91FC91589705
:101C8000E60FF71F80819181A281B381F8018383E0
:101C90009483A583B683A801485F5F4FFE01329607
:101CA000DA0190E08191811106C0392FD8015C964C
:101CB0009C93232F0FC0933119F09F5F8D93F2CF28
:101CC00033E1F4CF8331910594F4FA01E80FF91F61
:101CD00070832F5F622F631BE1E0F0E0EC0FFD1FCC
:101CE000E60FF11D7589822F90E07111EBCFF8019D
:101CF000658FFA01E80FF91F10828E8D813031F067
:101D0000823041F480E4F801878F04C080E2D8017A
:101D10005F968C93D8015E968C91843091F030F46C
:101D2000882361F08130A1F483E00FC0883041F056
:101D3000893051F0853061F484E007C082E001C051
:101D400085E0F80180A304C085E0D80190968C93CB
:101D50006E960FB6F894DEBF0FBECDBFDF91CF9168
:101D60001F910F91FF90EF90DF90CF9008951F92F9
:101D70000F920FB60F9211242F933F938F939F933F
:101D8000AF93BF93EF93FF93209166033091670366
:101D9000F901E957FF4FA081B1818091C6008C9372
:101DA000D901A557BF4F8C918F5F8C938081918112
:101DB00001968E179F0718F0C901895B9F4F918389
:101DC0008083FF91EF91BF91AF919F918F913F9150
:101DD0002F910F900FBE0F901F9018951F920F928A
:101DE0000FB60F9211242F933F934F935F938F93CE
:101DF0009F93EF93FF938091660390916703FC019B
:101E0000EA5BFF4F2081222301F132970190F0819C
:101E1000E02D80818093C600209166033091670396
:101E2000F901EA5BFF4F8081815080833297808186
:101E300091810196A9014E5B5F4F8417950710F0C1
:101E4000C9010296918380830DC08091C1008F7D6E
:101E500080648093C100E0916603F0916703E457CA
:101E6000FF4F1082FF91EF919F918F915F914F9162
:101E70003F912F910F900FBE0F901F9018951F92BA
:101E80000F920FB60F9211242F933F938F939F932E
:101E9000EF93FF93E1ECF0E08081877B80698083A2
:101EA00080916603909167039C01295B3F4FFC0181
:101EB000E957FF4F31832083329631832083329656
:101EC0001082FF91EF919F918F913F912F910F90F1
:101ED0000FBE0F901F901895CF92DF92EF92FF9256
:101EE0000F931F93CF93DF93EB017B0124E0E20E6E
:101EF000F11C8B016C01C61AD70AC601800F911F15
:101F00000E941C22F80181938F01EE15FF05A9F7AD
:101F1000CE01DF91CF911F910F91FF90EF90DF9055
:101F2000CF900895AF92BF92CF92DF92EF92FF923F
:101F30000F931F93CF93DF931F92CDB7DEB75C0152
:101F40007B018B016C0184E0C80ED11CF80161910A
:101F50008F01C50169830E941C226981681719F0ED
:101F6000C5010E942422FFEFAF1ABF0AAC14BD04C2
:101F700069F7C7010F90DF91CF911F910F91FF90EB
:101F8000EF90DF90CF90BF90AF9008950C942422F3
:101F90000C941C2280915201853010F481500895D8
:101FA0008550833010F085E0089584E00895CF9344
:101FB000C82F862F0E94F10BBC01990F880B990B3B
:101FC0000E94542320E030E040E85AE30E94A72416
:101FD00020E030E44CE955E40E94A72424E0C29FAD
:101FE000F0011124E05DFD4F208131814281538158
:101FF0000E94A7240E941623CF910895CF93DF93C8
:1020000000D000D0CDB7DEB719821A821B821C82A5
:10201000BE016F5F7F4F84E190E00E94920F1982B2
:102020001A821B821C82BE016F5F7F4F88E190E0A5
:102030000E94920F0F900F900F900F90DF91CF9111
:102040000895CF93DF9387E70E943204C6E9D1E079
:102050006D8570E0605B7F4F84E292E00E94FE0A33
:102060000E94D5036C8570E080E090E00E94080C2F
:10207000DF91CF910C94E509CF93DF9390E0FC01C1
:10208000EA57F94F2491FC01EE58F94F84918823C7
:10209000C1F090E0880F991FFC01E255F94FC591FE
:1020A000D491FC01E859F94FA591B4919FB7F894E8
:1020B0003881822F809583238883EC91E22BEC93E7
:1020C0009FBFDF91CF910895CF93DF93CDB7DEB758
:1020D000C755D1090FB6F894DEBF0FBECDBF7894B7
:1020E00084B5826084BD84B5816084BD85B582601D
:1020F00085BD85B5816085BD80916E0081608093CE
:102100006E00109281008091810082608093810036
:102110008091810081608093810080918000816046
:10212000809380008091B10084608093B1008091A1
:10213000B00081608093B00080917A0084608093C9
:102140007A0080917A00826080937A0080917A0090
:10215000816080937A0080917A00806880937A0011
:102160001092C10086E70E943506809350028111CB
:1021700005C087E70E943506809350028091500287
:1021800081115DC087E70E9432040E94D50381114E
:1021900056C01092B9011092B8011092020210922A
:1021A00023020E94C60D87E70E9432046EE184E29A
:1021B00092E00E94FE0A0E94D5038AE08093A20169
:1021C00088E08093A30164E670E080E090E00E94E4
:1021D000080C66E9C62E61E0D62E12EA87E70E9457
:1021E0003204612F84E292E00E94FE0A0E94D5032D
:1021F00087E70E94320482E090E00E94A10990915A
:10220000B8018091B9019817F1F384E292E00E943D
:10221000B20AB82E84E292E00E94B20A082F0E940D
:10222000D503FB2CE12CC701802BD6018D939D9308
:102230006D011E5F1E3A91F683E0809350028091FB
:1022400050028230B9F018F48130A1F02FC08330F1
:10225000F9F0843059F58DEC9CECACE4BFE380934D
:10226000510290935202A0935302B09354021092E1
:1022700055021CC08AE999E9A9E5BFE380935102A0
:1022800090935202A0935302B093540285E00CC085
:102290004DEC5CEC6CE47FE34093510250935202AE
:1022A00060935302709354028093550283E090E050
:1022B0000E94C80F8F3F11F08093520184E090E09C
:1022C0000E94C80F8F3F39F090E08F57910990938B
:1022D00069018093680185E090E00E94C80F8F3FFC
:1022E00011F08093010186E090E00E94C80F8F3FBB
:1022F00031F091E0811101C090E090935B0187E0A3
:1023000090E00E94C80F8F3F31F091E0811101C031
:1023100090E090935A0188E090E00E94C80F8F3FB0
:1023200031F091E0811101C090E0909359018AE071
:1023300090E00E94C80F8F3FA1F0682F70E080E00E
:1023400090E00E94522320E030E048EC52E40E94EA
:10235000A42260935102709352028093530290938F
:1023600054028CE090E00E94C80F8F3F11F08093E0
:1023700055028DE090E00E94C80F8F3F11F08093CE
:1023800091018EE090E00E94C80F8F3F11F0809382
:102390008A0180919101882339F085E10E94F10B37
:1023A0009093900180938F0180915002811103C01E
:1023B00086E00E94730980915002823019F08FE00C
:1023C0000E94730980915002811106C08DE00E9425
:1023D00073098EE00E94730981E00E94730982E014
:1023E0000E94730983E00E94730980915002811159
:1023F00006C084E00E94730985E00E94730987E0AB
:102400000E94730988E00E94730989E00E947309A1
:102410008AE00E9473098BE00E9473098CE00E949D
:10242000730980919101811103C087E10E947309B2
:102430008091520181110DC080E10E94730981E1F8
:102440000E94730982E10E94730983E10E9473096B
:1024500040C0109101011123E1F160E671E084E1D7
:1024600090E00E946C0F1130A1F50E94CA0F6FE03E
:102470000E94D70F6B017C01BE016F5F7F4F88E127
:1024800090E00E946C0FC701B6010E94542320E027
:1024900030E04AE754E40E94A4226B017C012CE561
:1024A0003FE842E85FE369817A818B819C810E94E9
:1024B000A7249B01AC01C701B6010E94522487FDED
:1024C00008C0109260011092610110926201109296
:1024D000630180915B01811103C084E10E94730953
:1024E00080915A01811103C085E10E947309809196
:1024F0005901811103C086E10E94730986E7809328
:10250000C50282E38093C60240E250E060E270E0E0
:1025100084E493E00E94152A8091980281113FC0C3
:1025200043E150E06BE371E084E892E00E941C2AF2
:1025300088E08093980280919D0290919E02892B61
:1025400021F484E892E00E94190900919D02109103
:102550009E02013CBFE11B0730F4C801880F991FA0
:10256000880F991F02C08FEF9FEF0E94DA28FC01AD
:1025700020E030E04FEF5FEFBA012017310739F06C
:1025800041935193619371932F5F3F4FF6CF8093A7
:102590009B0290939C021092A00210929F028DE8E1
:1025A00090E00E94DA282DE8FC0111922A95E9F7C3
:1025B00022E131E0DC012D933C939093C80280939B
:1025C000C70206E010E020E030E048E458EE61E0A9
:1025D00070E00E94BB0B1092CB021092CA021092C4
:1025E000CC021092CD021092CE021092CF02109225
:1025F000D0021092C9023324339488ED92E0B32DB7
:10260000B81B6796BFAF67970E94420C009192017A
:10261000109193012091940130919501DC01CB013F
:10262000801B910BA20BB30B853B9105A105B10556
:1026300010F40C94CE1B80919101882309F4D1C031
:1026400085E10E94F10B5C0100918F0110919001D6
:10265000609104017091050180910601909107013C
:102660000E9454236B017C01B501A016B1060CF445
:10267000B801601B710B072E000C880B990B0E9490
:10268000542320E030E040E85AE30E94A72420E0F1
:1026900030E44CE955E40E94A724A70196010E946A
:1026A0003322A70196010E9432229B01AC010E94B5
:1026B00033224B015C0120EC36E44DEE5CE3C701B4
:1026C000B6010E94A7246B017C0160910201709108
:1026D0000301072E000C880B990B0E9454232BE753
:1026E00034E948E853E40E94332229E038E045E029
:1026F00051E40E94A7249B01AC01C701B6010E94CE
:10270000A4229B01AC01C501B4010E94A4220E9435
:102710006A250E9416236B017C0100918B011091A8
:102720008C01072E000C880B990B0E9454234B013F
:102730005C01B8016C197D09072E000C880B990B00
:102740000E94542320E030E040E05FE30E94A72491
:102750009B01AC01C501B4010E9433220E941623E3
:102760006B017C0170938E0160938D0180918A01D1
:1027700046010D2C000CAA08BB088130E9F4C50104
:10278000B4010E9454236093860170938701809363
:10279000880190938901B601601B710B072E000C14
:1027A000880B990B0E9454236093820170938301DC
:1027B0008093840190938501D0928C01C0928B010B
:1027C000C501B4010E94542326E636E646E650E4ED
:1027D0000E94A7240E941623AB01BC0187E10E943E
:1027E000CC0980915002882309F465C6833009F032
:1027F000D5C387E70E9432046091A30170E0605C5A
:102800007F4F84E292E00E94FE0A0E94D50360910D
:10281000A20170E080E090E00E94080C0E94E509AF
:1028200027966CAF7DAF8EAF9FAF27970E94211088
:1028300020919E0130919F01890120E030E0322FEC
:10284000212F102F00272B013C01401A510A620A48
:10285000730AE0919C01F0919D0180909801909005
:102860009901940140E050E060E070E080E090E089
:1028700000E10E944828B22EE32EF42E252E6BABE9
:10288000872E982E9BAF9F0140E050E0C301B2011C
:102890000E943727A22E032F142FB52FF62FE72FD4
:1028A0006C01A0E00E949D2854F4AFE70E948828A4
:1028B000A22E032F142FB52FF62FE72F6C012A2DF0
:1028C000302F412F5B2F6F2F7E2FC60107E00E9414
:1028D0006128A22EA32F6A01F62FE72F8C012B2D42
:1028E0003E2D4F2D522D6BA9782D892D9BADBA2EE3
:1028F000EF2EFE2E0E947F2828962FAF289729962C
:102900003FAF29972A964FAF2A972B965FAF2B9709
:102910002C966FAF2C972D967FAF2D972E968FAF5D
:102920002E972F969FAF2F976091960170919701E8
:1029300000919A0110919B0180E090E020E030E846
:1029400040E050E00E944627D22EE32EF42E252EA2
:102950006BAB872E982E9BAF980140E050E0C301EF
:10296000B2010E943727C22E032F142FB52FF62F46
:10297000E72F5C01A0E00E949D287CF421503F4F8E
:102980004F4F5F4F6F4F7F4F8F4F9F4FC22E032F81
:10299000142FB52FF62FE72F5C012C2D302F412F50
:1029A0005B2F6F2F7E2FC50108E00E94612859011F
:1029B000C42EA52FF62FE72F8C012D2D3E2D4F2D48
:1029C000522D6BA9782D892D9BADDA2EEF2EFE2E80
:1029D0000E947F2860962FAF6097232E61964FAF9D
:1029E000619762965FAF629763966FAF63976496E5
:1029F0007FAF649765968FAF659766969FAF669732
:102A00002091A0013091A10140E050E0C301B2014A
:102A10000E943727F22E032F142FB52FF62FE72F02
:102A2000D82EE92EA0E00E949D2884F4215031097F
:102A300040485F4F6F4F7F4F8F4F9F4FF22E032FB6
:102A4000142FB52FF62FE72FD82EE92E2F2D302F4C
:102A5000412F5B2F6F2F7E2F8D2D9E2D07E10E9422
:102A600061282BAB3CAB4DAB5EABCBA8DCA8EDA893
:102A7000FEA8E0EDCE0EE7E0DE1EE11CF11C109298
:102A8000A8011092A9011092AA011092AB01109214
:102A9000AC011092AD011092AE011092AF011092F4
:102AA000B0011092B1011092B2011092B3011092D4
:102AB000B4011092B5011092B6011092B701F0ED79
:102AC000CF16F7E0DF06E104F1040CF0CCC02BA92F
:102AD0003CA94DA95EA9CA01B9010E9496269B0195
:102AE000AC01A5E0B0E00E94CB264B015C01B5949F
:102AF000A794979487942B013C01770C4408542C9D
:102B000032018092A8019092A901A092AA01B092EC
:102B1000AB014092AC014092AD014092AE014092B7
:102B2000AF019B01AC0182E05595479537952795FC
:102B30008A95D1F72BAF3CAF4DAF5EAF2093B0017C
:102B40003093B1014093B2015093B3014092B4016C
:102B50004092B5014092B6014092B70134E2C316EB
:102B60003AEFD3063FEFE306F3060CF07CC06BA907
:102B70007CA98DA99EA96455724F8F4F9F4F9B01D1
:102B8000AC010E94962623966CAF7DAF8EAF9FAFAF
:102B90002397A7E0B0E09B01AC010E94CB267B010C
:102BA0008C01AB01BC01770F440B542FBA014BAB26
:102BB0005CAB6DAB7EAB9401A501642D742D842DAF
:102BC000942D57016801EBA8FE2C0E2D1E2D0E949E
:102BD0007F282093A8013093A9014093AA01509324
:102BE000AB016093AC017093AD018093AE01909303
:102BF000AF01ABE0B0E023962CAD3DAD4EAD5FAD87
:102C000023970E94CB267B018C0115950795F7949D
:102C1000E7949B01AC01550F220B322FA9012BAB7E
:102C20003CAB4DAB5EAB2BAD3CAD4DAD5EAD642D65
:102C3000742D842D942D57016801EBA8FE2C0E2DC8
:102C40001E2D0E947F282093B0013093B101409344
:102C5000B2015093B3016093B4017093B5018093B6
:102C6000B6019093B70127966CAD7DAD8EAD9FAD4B
:102C70002797AB01BC0180E090E0DC014BAB5CAB83
:102C80006DAB7EAB8FAB98AFA9AFBAAF60962FADEF
:102C90006097322D61964FAD619762965FAD6297F6
:102CA00063966FAD639764967FAD649765968FADBD
:102CB000659766969FAD6697A090B001B090B10100
:102CC000C090B201D090B301E090B401F090B50192
:102CD0000091B6011091B7010E94942859016A0130
:102CE0007B018C012BA93CA94DA95EA960E070E095
:102CF00080E090E00E94DE26F22E032F142FB52FE5
:102D0000F62FE72FD82EE92EA0E00E949D2884F40C
:102D100021503109404E5F4F6F4F7F4F8F4F9F4F74
:102D2000F22E032F142FB52FF62FE72FD82EE92ED2
:102D30002F2D302F412F5B2F6F2F7E2F8D2D9E2D0E
:102D400005E10E94612839014A01B62FA72FF82F0B
:102D5000E92F28962FAD289729963FAD29972A96D7
:102D60004FAD2A972B965FAD2B972C966FAD2C9776
:102D70002D967FAD2D972E968FAD2E972F969FADCA
:102D80002F97A090A801B090A901C090AA01D0905F
:102D9000AB01E090AC01F090AD010091AE0110915B
:102DA000AF010E94942859016A017B018C019301B3
:102DB000A4016B2F7A2F8F2F9E2F0E949428F22E22
:102DC000032F142FB52FF62FE72FD82EE92EA0E0D2
:102DD0000E949D2884F4215030484F4F5F4F6F4F21
:102DE0007F4F8F4F9F4FF22E032F142FB52FF62FAB
:102DF000E72FD82EE92E2F2D302F412F5B2F6F2F4D
:102E00007E2F8D2D9E2D0FE00E946128B901CA01F1
:102E100020930401709305014093060190930701EC
:102E20000E94542320E836EE45EC57E40E94A42289
:102E30002BEA3CED42E45EE30E9414259B01AC01C9
:102E400060E070E080E89FE30E94322220E03AE2F6
:102E50004DE257E40E94A72420E030E048EC52E421
:102E60000E94A7240E9416234B015C010E9421109E
:102E700020919E0130919F01890120E030E0322FA6
:102E8000212F102F00276B017C01C01AD10AE20A02
:102E9000F30A2091A0013091A10140E050E0C70168
:102EA000B6010E943727722E032F142FB52FF62F4D
:102EB000E72F582E692EA0E00E949D2884F421500F
:102EC000310940485F4F6F4F7F4F8F4F9F4F722E9A
:102ED000032F142FB52FF62FE72F582E692E272DED
:102EE000302F412F5B2F6F2F7E2F852D962D07E1E1
:102EF0000E9461282BAB3CAB4DAB5EAB6FAB78AFA8
:102F000089AF9AAF4BA85CA86DA87EA870ED470E5C
:102F100077E0571E611C711C80ED481687E058064B
:102F2000610471044CF01092A4011092A50110925A
:102F3000A6011092A70113C0A7019601C701B6010F
:102F40000E94962620E030E0A9010E94A626209348
:102F5000A4013093A5014093A6015093A70180914D
:102F6000A4019091A501A091A601B091A701A30190
:102F70009201281B390B4A0B5B0BCA01B9010E9455
:102F8000542320E030E048EC52E40E94A4220E9446
:102F90001623709303016093020146C10E94DD066F
:102FA0000E9416236093040170930501809306012B
:102FB000909307010E94DD0620E030E048EC52E4E7
:102FC0000E94A42220E030E54DE754E40E94A422B0
:102FD00021E03EED42E45EE30E9414259B01AC013A
:102FE00060E070E080E89FE30E94322220E03AE255
:102FF0004DE257E40E94A72420E030E048EC52E480
:103000000E94A7240E9416234B015C010E945606D1
:103010000E94162370930301609302018091500275
:10302000823009F001C10E9456068DEF0E94CA0449
:103030006C01E12CF12CC11430E8D306E104F10459
:1030400009F4E1C040905C0250905D0260905E0225
:1030500070905F024CE2541A41E0640A71086EE01D
:10306000CC0CDD1CEE1CFF1C6A95D1F780917C0214
:1030700090917D02092E000CAA0BBB0B74E1880F06
:10308000991FAA1FBB1F7A95D1F7C81AD90AEA0A55
:10309000FB0AA0917E02B0917F02A30192010E94DF
:1030A000D626C61AD70AE80AF90A50E4D50EE11C5A
:1030B000F11CEFE0F594E794D794C794EA95D1F723
:1030C000A09180020A2E000CBB0BA30192010E946A
:1030D000D6269B01AC01FAE0559547953795279583
:1030E000FA95D1F72BAB3CAB4DAB5EABA0917B021D
:1030F000B0E0A30192010E94CB26DC01CB011BE0D2
:10310000B595A795979587951A95D1F7BC01CD01EF
:1031100070588F4F9F4F2BA93CA94DA95EA90E94C3
:103120009626DC01CB010AE0B595A7959795879582
:103130000A95D1F79C01AD01405E5F4FA0917902E5
:10314000B0917A020E94D626DC01CB01905EAF4F8F
:10315000BF4FBC01CD012EE095958795779567957A
:103160002A95D1F7A70196010E9496266B017C0152
:103170003FE095958795779567953A95D1F79B01AF
:10318000AC010E9496269B01AC0167E055954795DE
:10319000379527956A95D1F7A0917802B0E00E9403
:1031A000CB26DC01CB0174E0B595A7959795879563
:1031B0007A95D1F7B701A601481B590B6A0B7B0B17
:1031C000DB01CA0177FF03C080E090E0DC018130C1
:1031D0009105A10559E1B50724F080E090E0A0E059
:1031E000B9E1BC01CD015CE0959587957795679530
:1031F0005A95D1F70E94542320E030E040E85AE38A
:103200000E94A72404C060E070E080EC9FE720E00B
:1032100030E040E251E40E94A7240E941623AB0153
:10322000BC018FE00E94CC0980917E0190917F01CA
:10323000A0918001B09181010097A105B10589F4A9
:1032400080927E0190927F01A0928001B0928101D4
:1032500080927A0190927B01A0927C01B0927D01D4
:1032600026C0A5019401281B390B4A0B5B0BCA0130
:10327000B9012AE030E040E050E00E94A626209309
:103280007601309377014093780150937901C5011D
:10329000B40124E630E040E050E00E94A6262093EE
:1032A00072013093730140937401509375010E9431
:1032B000420C009192011091930120919401309160
:1032C00095016B017C01C01AD10AE20AF30A8091D0
:1032D0007A0190917B01A0917C01B0917D01A501C3
:1032E0009401281B390B4A0B5B0BCA01B9010E94E0
:1032F00054232B013C01C701B6010E9452239B01BC
:10330000AC0160E070E08AE794E40E94A4229B0193
:10331000AC01C301B2010E94A7240E9416232B0115
:103320003C0180927A0190927B01A0927C01B09244
:103330007D0180918A01813041F4C0926E01D0926A
:103340006F01E0927001F0927101C0906E01D09017
:103350006F01E0907001F0907101D701C6010197F3
:10336000A109B109873B9B40A105B10550F520E0BB
:1033700038E44FE156E460918601709187018091B5
:103380008801909189010E94A724209182013091A7
:10339000830140918401509185010E94A7244B0133
:1033A0005C01C701B6010E9452239B01AC01C5011B
:1033B000B4010E94A4220E941623460E571E681EC6
:1033C000791EC301B2010E9454236B017C019B0151
:1033D000AC0160916A0170916B0180916C019091D8
:1033E0006D010E943222209151023091520240918F
:1033F0005302509154020E94A7249B01AC01C701C3
:10340000B6010E9433220E9416236B017C010E94A8
:10341000542360936A0170936B0180936C019093C5
:103420006D0180915502482F50E060E070E04C152E
:103430005D056E057F054CF4D701C601841B950B15
:10344000A60BB70BAC01BD0117C090E0919581951B
:103450009109092E000CAA0BBB0BC816D906EA0667
:10346000FB063CF4B701A601481B590B6A0B7B0B0A
:1034700003C040E050E0BA0186E00E94CC094091D0
:1034800004015091050160910601709107018DE0E2
:103490000E94CC0980910201909103012AE0289FAB
:1034A000A001299F500D1124052E000C660B770BEF
:1034B0008EE00E94CC090E94420C609392017093AE
:1034C00093018093940190939501109152011123DF
:1034D00009F4EBC00E94CA0F6FE00E94D70F0E9450
:1034E000542320E030E04AE754E40E94A422698398
:1034F0007A838B839C8320E030E040E251E40E9499
:10350000A7240E941623AB01BC0180E10E94CC09D4
:10351000153028F01C3030F484EC99E005C080E0D0
:1035200090E002C088E592E0E0906801F0906901C7
:10353000E80EF91E8EE00E94F10BBC01990F880B7A
:10354000990B0E94542320E030E040E85AE30E94A7
:10355000A72420E030E44CE955E40E94A7244B0165
:103560005C01B70180E090E00E9452239B01AC0116
:10357000C501B4010E9432226B017C01E12FF0E011
:10358000E75EFE4F608170E080E090E00E9454238F
:103590009B01AC01C701B6010E94A4226B017C0112
:1035A0006093640170936501809366019093670155
:1035B00020E030E040E251E40E94A7240E9416235C
:1035C000AB01BC0181E10E94CC092FEF3FEF4FE935
:1035D00051E4C701B6010E94A422209160013091FC
:1035E000610140916201509163010E943322609316
:1035F00060017093610180936201909363010E9466
:103600001623AB01BC0182E10E94CC09809101012B
:103610008823B1F10E94420C00915C0110915D0180
:1036200020915E0130915F01DC01CB01801B910B89
:10363000A20BB30B81319742A105B10508F120E03F
:1036400030E040E050E4C701B6010E949F22181606
:103650006CF060E671E084E190E00E94920FBE01A0
:103660006F5F7F4F88E190E00E94920F0E94420CB2
:1036700060935C0170935D0180935E0190935F01A4
:1036800029813A814B815C8160916401709165016F
:1036900080916601909167010E94A7240E941623E1
:1036A000AB01BC0183E10E94CC0980915B018823BE
:1036B00079F060E186E00E94D70F2AE030E040E038
:1036C00050E00E94A626BA01A90184E10E94CC091B
:1036D00080915A01882379F061E187E00E94D70F39
:1036E0002AE030E040E050E00E94A626BA01A9019D
:1036F00085E10E94CC0980915901882309F44EC0CC
:1037000084E10E94F10BBC01990F880B990B0E9478
:1037100054239B01AC0160E070EC8FE794E40E94BD
:10372000A42220E030E040E85FE30E9432229B01C7
:10373000AC0160E070E48CE196E40E94A42220E0F9
:1037400030E44CE156E40E94A4220E945F2420E071
:1037500030EE46E755E40E94A4222FE03FEC4BE513
:103760005BE30E9433229B01AC0160E070E080E8E3
:103770009FE30E94A42229E939EF47E853E40E941D
:10378000322220E030E040E251E40E94A7240E946F
:103790001623AB01BC0186E10E94CC094091760161
:1037A00050917701609178017091790184E00E94D5
:1037B000CC09409172015091730160917401709134
:1037C000750185E00E94CC0910911103109211033C
:1037D000111105C080910001882309F49CC20E9448
:1037E000420CC0905501D0905601E0905701F090E6
:1037F00058016C157D058E059F0508F48CC20E944A
:10380000420CDC01CB0188539F4FAF4FBF4F8093D9
:10381000550190935601A0935701B0935801E12CA4
:10382000F12C01E1103E51F480915301909154012B
:103830008D3091050CF07FC101960BC0103771F4EB
:103840008091530190915401181619060CF073C120
:10385000019790935401809353016BC1103D09F07F
:103860005CC0809153019091540185309105B9F16C
:1038700034F48330910559F0049751F15AC18730DF
:103880009105E9F1ACF1089709F440C052C180906C
:10389000510290905202A0905302B090540220E046
:1038A00030E040E85FE3C501B4010E949F2287FF3A
:1038B00040C120E030E048EC52E4C501B4010E9470
:1038C000A72420E030E040E85FE30E9433228EC06E
:1038D00080915502843608F02CC18F5F9CC0809186
:1038E0009101882309F425C181508093910121C160
:1038F00080918A01882309F41CC181509CC0809169
:103900005201882309F415C181509EC080910101A4
:10391000882309F40EC18150A0C0103B09F00BC1EF
:10392000E0915301F09154013197ED30F10508F029
:1039300000C1EC5CFF4F0C94C5260E94FE0FD09096
:103940005201DD2089F16091680170916901072EB3
:10395000000C880B990B0E9454234B015C01ED2D48
:10396000F0E0E75EFE4F608170E080E090E00E9452
:10397000542320916401309165014091660150917A
:1039800067010E94A7249B01AC01C501B4010E94FC
:1039900033220E9416236093680170936901615875
:1039A00084E090E00E94C60FF701099580905102D3
:1039B00090905202A0905302B090540220E030E068
:1039C000A901C501B4010E94522418160CF0B1C01F
:1039D00020E030E048EC52E4C501B4010E94A72485
:1039E00020E030E040E85FE30E94322220E030E057
:1039F00048EC52E40E94A422609351027093520258
:103A0000809353029093540294C08091550288236E
:103A100009F48FC08150809355028BC08091910131
:103A2000811187C03092910184C080918A018230D7
:103A300008F07FC08F5F80938A017BC08091520124
:103A40008F3008F076C08F5F8093520172C08091F2
:103A50000101823008F06DC08F5F8093010169C061
:103A600080915B01832580935B0163C080915A0143
:103A7000832580935A015DC08091590183258093ED
:103A8000590157C06091520183E090E00E94C60F37
:103A90006091010185E090E00E94C60F60915B019A
:103AA00086E090E00E94C60F60915A0187E090E0A6
:103AB0000E94C60F6091590188E090E00E94C60FF5
:103AC00020E030E048EC52E46091510270915202E3
:103AD00080915302909154020E94A7240E941623C1
:103AE0008AE090E00E94C60F609155028CE090E061
:103AF0000E94C60F609191018DE090E00E94C60F78
:103B000060918A018EE090E00E94C60FF70109954E
:103B1000C12CD12C6FEFC6010E94C60FFFEFCF1A48
:103B2000DF0A22E3C216D104A9F70E94FE0FF701B3
:103B300009953092000180910001882309F4EBC0BF
:103B40001AA219828091530190915401089FB001EB
:103B5000099F700D112466557D4F40E150E0CE0164
:103B600082960E941322E0915301F0915401EC30AF
:103B7000F105B8F4EF5BFF4F0C94C52640E150E02F
:103B800069E972E00AC060915002F9E06F9FB001EC
:103B9000112464597D4F40E150E0CE0101960E940E
:103BA0001322DE019296E4E4F3E09E012E5C3F4F87
:103BB00080E040E272C080915002882309F432CE46
:103BC00020E030E048EC52E46091510270915202E2
:103BD00080915302909154020E94A7240E941623C0
:103BE0007F936F9384E491E00BC08091500288230F
:103BF00009F418CE809155021F928F938BE491E0C7
:103C00009F938F93CE0101969F938F930E942B2AAF
:103C10000F900F900F900F900F900F90C2CF609168
:103C200091012AE0629FB001112434C060918A01A1
:103C30003BE0639FB0011124695C7D4FACCF609184
:103C4000520140E1649FB0011124695C7E4FA3CF13
:103C500080915201882309F4E5CD6091010159E07A
:103C6000659FB0011124645E7E4F95CF60915B012A
:103C70008AE0689FB00111240DC060915A019AE05A
:103C8000699FB001112406C060915901AAE06A9FA2
:103C9000B0011124685A7D4F7ECF9D91992321F068
:103CA000811102C0908302C0408381E03196A21747
:103CB000B30799F7DE011196E4E5F3E09E012F5E6C
:103CC0003F4F80E040E29D91992321F0811102C095
:103CD000908302C0408381E03196A217B30799F721
:103CE0001092000118C08091C7029091C802DC01B7
:103CF000ED91FC910680F781E02D09952091CA0293
:103D00003091CB022115310519F59C012D53310954
:103D10002230310570F08091C7029091C802DC0119
:103D2000ED91FC910480F581E02D0995892BD9F660
:103D3000DCC221E030E03093CB022093CA028E3304
:103D4000910509F020E02093CC028093D102E3CFCB
:103D500021303105A9F49C012D7F2130310519F561
:103D600022E030E03093CB022093CA0221E0813080
:103D7000910509F020E02093CD028093D202CBCFB1
:103D800022303105A9F423E030E03093CB022093B8
:103D9000CA028093CE028093D30293E09093CF0225
:103DA000813408F4B8CF1092CB021092CA02B3CF7C
:103DB0002330310509F0AFCFE091CF0201E00E0FC3
:103DC0000093CF02F0E0EF52FD4F80838091CE024E
:103DD0000813A1CFE12CF12C80E090E010E0680105
:103DE000E2E0CE1AD108EC14FD0454F4F701EF52CE
:103DF000FD4F60810E94AD09BFEFEB1AFB0AF3CFC4
:103E00000C571D4FF801E45BFF4F208130E0322F4B
:103E1000222731974081242B8217930721F6809126
:103E2000D4028093D0029091CC028091D502992344
:103E3000C9F08133B9F48091D6028695809313033B
:103E4000E7EDF2E020E030E090E0281739073CF49D
:103E50004191519154AF43AF2F5F3F4FF6CF309216
:103E60001203A1CF8A3309F0F5C18091CD028823D6
:103E700009F499CF8091C90291E0980F9093C902FB
:103E8000811117C01092D8021092DE021091980290
:103E9000812F880F880F880F8093DF02412F50E019
:103EA00064E872E080EE92E00E940C2A29E0210F83
:103EB0005BC1282F269530E040919D0250919E02D3
:103EC000421753070CF44EC080FD4CC000E010E0D8
:103ED00080919D0290919E02081719070CF040C036
:103EE0006091A00270E044E852E0CE0101960E9489
:103EF000E20D8091A0028F5F8093A00290E020915C
:103F00009D0230919E028217930714F01092A00236
:103F10008885882311F11092D8028B818093DE026C
:103F20008D8DF8E08F9FC00111249E8D892B809389
:103F3000DF0280E029E0280FE9E0F0E0EC0FFD1F50
:103F4000E80FF11D9081992309F40EC18F5FE22FD4
:103F5000F0E0E952FD4F9083EDCF0F5F1F4FB8CFD8
:103F600020E002C180E48093D80200E410E027E062
:103F700060919F0270E044E852E0CE01019668969D
:103F80002FAF68970E94E20D80919F028F5F809310
:103F90009F0290E040919D0250919E0268962FAD45
:103FA00068978417950714F010929F0288858823DC
:103FB00009F4C5C08C819D81AE81BF818F3F3FEFE9
:103FC0009307A307B30709F4BAC03B81422F50E01F
:103FD0006F8DFF24F394F20E303160F049525D4F43
:103FE000762F7F70FA0170832E5FEF2DF0E0E9529B
:103FF000FD4F0BC02F2D49525D4F70E1379FF001EF
:104000001124362F3F703E2BFA01308349A150E036
:1040100030E06430A1F128F4662369F06130D9F012
:104020008BC0683009F45BC0693009F473C0653037
:1040300009F082C03BC0F901E952FD4F682F6F7152
:10404000B7FD02C080E001C080E8862B98A1892BD3
:10405000808381E072C0F901E952FD4F8083F9014C
:10406000E852FD4F692F6F71B7FD02C080E001C0BB
:1040700080E8862B98A1892B808382E05EC0F901BD
:10408000E952FD4F8083F901E852FD4F9083F90119
:10409000E752FD4F6A2F6F71B7FD02C080E001C08B
:1040A00080E8862B98A1892B808317C0F901E952FB
:1040B000FD4F8083F901E852FD4F9083F901E752EB
:1040C000FD4F6D01FF24D7FCF094EF2CB7FD02C02B
:1040D00080E001C080E8C82AC08283E02EC0F901D8
:1040E000E952FD4F8083F901E852FD4F9083F901B9
:1040F000E752FD4FA083F901E652FD4F6B2F6F7120
:10410000B7FD02C080E001C080E8862B98A1892B12
:10411000808310C0F901E952FD4F8083F901E85214
:10412000FD4F9083F901E752FD4FA083F901E6525C
:10413000FD4FB08384E001C080E0280F02C040E062
:1041400050E00F5F1F4F80919D0290919E020817D3
:10415000190754F4822F90E06AE170E0641B750B3C
:10416000861797070CF404CF8FE28093D7028091D3
:10417000D8029FEF920F892B8093D80289E0809319
:10418000D90284EA8093DA028091C5028093DB022F
:104190008091C6028093DC021092DD02E8EDF2E02D
:1041A00080E037E067969FAD67979E0F921760F4A7
:1041B0009191892798E087FF03C0880F832701C06A
:1041C000880F9150C1F7EECFE22FF0E0E952FD4F9A
:1041D000808309E0020F0093CF028BE38093D1022A
:1041E00081E08093D2020093D3028091D002809329
:1041F000D4028AE38093D5022F5F2093D602E12C6C
:10420000F12C80E090E010E0680172E0C71AD1085C
:10421000EC14FD0454F4F701EF52FD4F60810E944D
:10422000AD09AFEFEA1AFA0AF3CF98012C573D4FC8
:10423000F901E55BFF4F8083319690838091C7023F
:104240009091C802DC01ED91FC910280F381E02D98
:10425000A80145C08B3309F0A6CD8091CD028823FB
:1042600009F4A1CD8091D702803F19F0809311030A
:1042700002C01092110398E29093CF028BE38093D7
:10428000D1023092D2029093D3028093D50280E281
:104290008093D602E4E4F3E0A7EDB2E001900D9242
:1042A0008A95E1F701ED12E080E090E0F80161917C
:1042B0008F010E94AD09F2E0073F1F07B9F7809315
:1042C000F7029093F8028091C7029091C802DC0136
:1042D000ED91FC910280F381E02D48E250E061ED28
:1042E00072E00995309264035ECD80E090E0892B06
:1042F00011F40C9404130E9400000C94FB12E4E2ED
:10430000F2E01382128288EE93E0A0E0B0E08483B2
:104310009583A683B7838DE291E091838083E4E85F
:10432000F2E0148A168A158A108E178A128E118E60
:10433000138E148E86E78093C50282E38093C602B3
:1043400010828FEF9FEFDC018093C1029093C20235
:10435000A093C302B093C40280E2E1EAF2E0DF017D
:104360001D928A95E9F71092C8021092C702109226
:10437000C9021092110310921203109213031092AB
:1043800064031092CB021092CA021092CC021092D7
:10439000CD021092CE021092CF021092D00280E392
:1043A000E4E1F3E0DF011D928A95E9F710925002F3
:1043B000E0E3F2E08AEC95E1A4E8B0E48083918345
:1043C000A283B38383E393E3ABE7B1E48483958370
:1043D000A683B78380879187A287B38782E292E220
:1043E000A2E2B1E484879587A687B78780E090E052
:1043F000A0E3B1E4808B918BA28BB38B80E090E043
:10440000A8E9B1E4848B958BA68BB78B80E090E014
:10441000A0E4B0E4808F918FA28FB38F848F958FAB
:10442000A68FB78F0895FB01DC0102C005900D92A5
:1044300041505040D8F70895F999FECF92BD81BD03
:10444000F89A992780B50895262FF999FECF1FBABB
:1044500092BD81BD20BD0FB6F894FA9AF99A0FBEAD
:10446000019608955058BB27AA270E944A220C940F
:1044700018240E940A2438F00E94112420F039F4F4
:104480009F3F19F426F40C94F7230EF4E095E7FB14
:104490000C94F123E92F0E94292458F3BA176207DC
:1044A00073078407950720F079F4A6F50C944B2444
:1044B0000EF4E0950B2EBA2FA02D0B01B90190013F
:1044C0000C01CA01A0011124FF27591B99F0593F83
:1044D00050F4503E68F11A16F040A22F232F342FCB
:1044E0004427585FF3CF469537952795A795F04019
:1044F0005395C9F77EF41F16BA0B620B730B840B2E
:10450000BAF09150A1F0FF0FBB1F661F771F881FE5
:10451000C2F70EC0BA0F621F731F841F48F487953D
:1045200077956795B795F7959E3F08F0B0CF93952F
:10453000880F08F09927EE0F9795879508950E94A8
:10454000CD2308F481E008950E94B8220C94182429
:104550000E94112458F00E940A2440F029F45F3F81
:1045600029F00C94F12351110C944C240C94F72352
:104570000E94292468F39923B1F3552391F3951BE5
:10458000550BBB27AA2762177307840738F09F5F74
:104590005F4F220F331F441FAA1FA9F335D00E2EE1
:1045A0003AF0E0E832D091505040E695001CCAF74E
:1045B0002BD0FE2F29D0660F771F881FBB1F261711
:1045C00037074807AB07B0E809F0BB0B802DBF01E8
:1045D000FF2793585F4F3AF09E3F510578F00C94B7
:1045E000F1230C944C245F3FE4F3983ED4F386957A
:1045F00077956795B795F7959F5FC9F7880F911DD8
:104600009695879597F90895E1E0660F771F881FC3
:10461000BB1F621773078407BA0720F0621B730B76
:10462000840BBA0BEE1F88F7E09508950E941D23B6
:104630006894B1110C944C2408950E94312488F0A0
:104640009F5798F0B92F9927B751B0F0E1F0660F56
:10465000771F881F991F1AF0BA95C9F714C0B13097
:1046600091F00E944B24B1E008950C944B24672FE5
:10467000782F8827B85F39F0B93FCCF386957795C6
:104680006795B395D9F73EF49095809570956195AF
:104690007F4F8F4F9F4F089597FB16F40E94FA2388
:1046A0000C949023E89409C097FB3EF49095809574
:1046B000709561957F4F8F4F9F4F9923A9F0F92FE8
:1046C00096E9BB279395F695879577956795B79566
:1046D000F111F8CFFAF4BB0F11F460FF1BC06F5F4C
:1046E0007F4F8F4F9F4F16C0882311F096E911C05E
:1046F000772321F09EE8872F762F05C0662371F07F
:1047000096E8862F70E060E02AF09A95660F771F92
:10471000881FDAF7880F9695879597F90895E8949A
:10472000F92F96EBFF2381F0121613061406440BA3
:104730009395F69587957795679557954040FF2314
:10474000B9F71BC099270895882351F49850D2F7E0
:10475000872B762F652F542F432F322F20E0B1F374
:10476000121613061406440B88233AF09A95440F48
:10477000551F661F771F881FCAF755234AF4440F39
:10478000551F11F460FF04C06F5F7F4F8F4F9F4F25
:10479000880F9695879597F90895990F0008550FFA
:1047A000AA0BE0E8FEEF16161706E807F907C0F0B7
:1047B00012161306E407F50798F0621B730B840BBF
:1047C000950B39F40A2661F0232B242B252B21F499
:1047D00008950A2609F4A140A6958FEF811D811D39
:1047E000089597F99F6780E870E060E008959FEF73
:1047F00080EC0895909580957095609550954095C2
:10480000309521953F4F4F4F5F4F6F4F7F4F8F4FE9
:104810009F4F089500240A941616170618060906D5
:10482000089500240A941216130614060506089526
:10483000092E0394000C11F4882352F0BB0F40F4AE
:10484000BF2B11F460FF04C06F5F7F4F8F4F9F4FEE
:10485000089557FD9058440F551F59F05F3F71F070
:104860004795880F97FB991F61F09F3F79F08795D7
:104870000895121613061406551FF2CF4695F1DF60
:1048800008C0161617061806991FF1CF86957105F0
:10489000610508940895E894BB2766277727CB0124
:1048A00097F908950E94CD2308F48FEF089516F02C
:1048B0000C94E4250C94F72368940C94F1230E9443
:1048C0003124A8F39923C1F3AEF3DF93CF931F9361
:1048D0000F93FF92C92FDD2788232AF02197660FB7
:1048E000771F881FDAF720E030E040E85FEB9FE3B6
:1048F000883920F0803E38F021968F770E9433224D
:10490000EAE9F0E004C00E943322E7ECF0E00E9404
:10491000F9258B01BE01EC01FB2E6F5771097595CE
:10492000771F880B990B0E94542328E132E741E35B
:104930005FE30E94BA24AF2D9801AE01FF900F9162
:104940001F91CF91DF910E944A220C9418240E945B
:10495000BA240C9418240E940A2438F00E941124CE
:1049600020F0952311F00C94F1230C94F7231124DB
:104970000C944C240E94292470F3959FC1F3950F49
:1049800050E0551F629FF001729FBB27F00DB11DD3
:10499000639FAA27F00DB11DAA1F649F6627B00D63
:1049A000A11D661F829F2227B00DA11D621F739F4C
:1049B000B00DA11D621F839FA00D611D221F749F5A
:1049C0003327A00D611D231F849F600D211D822FA1
:1049D000762F6A2F11249F5750409AF0F1F08823C8
:1049E0004AF0EE0FFF1FBB1F661F771F881F9150F5
:1049F0005040A9F79E3F510580F00C94F1230C9490
:104A00004C245F3FE4F3983ED4F386957795679501
:104A1000B795F795E7959F5FC1F7FE2B880F911D1E
:104A20009695879597F90895FA01EE0FFF1F309636
:104A300021053105A1F16115710561F48038BFE3ED
:104A40009B0749F168949038810561F08038BFEF89
:104A50009B0741F099234AF5FF3FE1053105210508
:104A600019F1E8940894E795D901AA2329F4AB2F0A
:104A7000BE2FF85FD0F310C0FF5F70F4A695E0F78B
:104A8000F73950F019F0FF3A38F49F779F930DD023
:104A90000F9007FC9058089546F00C94F72360E0BF
:104AA00070E080E89FE308954FE79F775F934F930F
:104AB0003F932F930E945F242F913F914F915F91DD
:104AC0000E94A7240C94B22519F416F40C94F72331
:104AD0000C94E4250E943124B8F39923C9F3B6F36A
:104AE0009F57550B87FF0E94F2250024A0E640EA5D
:104AF000900180585695979528F4805C660F771F33
:104B0000881F20F026173707480730F4621B730B05
:104B1000840B202931294A2BA69517940794202528
:104B200031254A2758F7660F771F881F20F0261770
:104B30003707480730F4620B730B840B200D311DCF
:104B4000411DA09581F7B901842F9158880F969542
:104B50008795089529F416F00C94F1230C944B24B6
:104B60000C94F7230E943124A8F39638A0F707F895
:104B70000F92E8942BE33AEA48EB5FE70E94BD24EA
:104B80000F920F920F924DB75EB70F920E9462265E
:104B9000E4EFF0E00E94F9254F915F91EF91FF91D2
:104BA000E595EE1FFF1F49F0FE57E0684427EE0F22
:104BB000441FFA95E1F74195550B0E942C260F9062
:104BC00007FE0C94202608959F3F31F0915020F469
:104BD000879577956795B795880F911D96958795D9
:104BE00097F9089591505040660F771F881FD2F7AC
:104BF0000895DF93CF931F930F93FF92EF92DF926D
:104C00007B018C01689406C0DA2EEF010E94BA2461
:104C1000FE01E894A5912591359145915591A6F312
:104C2000EF010E944A22FE019701A801DA9469F778
:104C3000DF90EF90FF900F911F91CF91DF9108953A
:104C40009B01AC0160E070E080E89FE30C94A4223B
:104C50000C94F1230C94E4250E943124D8F3992379
:104C6000C9F3940F511DA3F39150504094F059F0A3
:104C7000882332F0660F771F881F91505040C1F78C
:104C80009E3F51052CF7880F911D9695879597F9B2
:104C900008955F3FACF0983E9CF0BB2786957795D2
:104CA0006795B79508F4B1609395C1F7BB0F58F7B6
:104CB00011F460FFE8CF6F5F7F4F8F4F9F4FE3CFBF
:104CC0000C944C24FA01DC01AA0FBB1F9B01AC0120
:104CD000BF5728F4222733274427507820C0B751E4
:104CE00090F4AB2F0024469537952795011CA3958A
:104CF000D2F3002071F0220F331F441FB395DAF373
:104D00000ED00C94322261307105A0E88A07B946B2
:104D100030F49B01AC01662777278827907830967E
:104D200021F020833183428353830895DB018F93E5
:104D30009F930E94CB26BF91AF91A29F800D911DA2
:104D4000A39F900DB29F900D11240895052E97FBFF
:104D50001EF400940E94BD2657FD07D00E94A9288A
:104D600007FC03D04EF40C94BD2650954095309529
:104D700021953F4F4F4F5F4F0895909580957095C7
:104D800061957F4F8F4F9F4F0895EE0FFF1F059046
:104D9000F491E02D09940E94CB28A59F900DB49F1B
:104DA000900DA49F800D911D11240895B7FF0C94C0
:104DB000CB260E94CB26821B930B0895DF93CF93C3
:104DC0001F930F939A9DF02D219FF00D8B9DF00D59
:104DD0008A9DE02DF10D039FF00D029FE00DF11D66
:104DE0004E9DE00DF11D5E9DF00D4F9DF00D7F93EA
:104DF0006F93BF92AF925F934F93D5010E94CB28E0
:104E00008B01AC01D7010E94CB28EB01E80FF91F01
:104E1000D6010E942E272F913F91D6010E94CB28C8
:104E2000C60FD71FE81FF91FAF91BF910E942E2711
:104E30002F913F910E94CB28C60FD71FE81FF91F63
:104E4000D6010E94CB28E60FF71F9801BE01CF01C3
:104E500011240F911F91CF91DF9108950E94CB28CB
:104E6000460F571FC81FD91F08F43196089597FBA6
:104E700057FF0C9447279F938F930E9447276E1BE1
:104E80007F0BAF91BF918A0B9B0B0895E894DF9342
:104E9000CF93FC01DB010E94CB287F936F93E90144
:104EA0009A01AC01BF93AF933F932F93DF010E9410
:104EB000CB2826F46C1B7D0B820B930B9E01EB0120
:104EC000FC010E942E27AF91BF912F913F910E942C
:104ED0002E27BE01CF01F9012F913F91CF91DF9194
:104EE0000895689401C0E894F92FF12B12F00C9406
:104EF000A527A0E0B0E0EFE7F7E20C941728092E11
:104F0000059422F40E940128112392F4F0E80F2660
:104F1000FFEFE094F09400951095B094C094D09475
:104F2000A194BF0ACF0ADF0AEF0AFF0A0F0B1F0B7B
:104F30000E94B02707FC0E940128CDB7DEB7ECE045
:104F40000C943328689401C0E8948F929F92CF9379
:104F5000DF930E94B027DF91CF919F908F900895AB
:104F600088249924F401E401B0E49F93AA279A15B8
:104F70008B049C04ED05FE05CF05D007A10798F42E
:104F8000AD2FDC2FCF2FFE2FE92D982C892E982FB7
:104F9000872F762F652F542F432F322F2227B8507B
:104FA00031F7BF9127C01B2EBF91BB27220F331FA4
:104FB000441F551F661F771F881F991F881C991C47
:104FC000EE1FFF1FCC1FDD1FAA1FBB1F8A149B04EF
:104FD000EC05FD05CE05DF05A007B10748F08A18EE
:104FE0009B08EC09FD09CE09DF09A00BB10B21607C
:104FF0001A94E1F62EF49401AF01BE01CD01000C2C
:105000000895609570958095909530954095509550
:1050100021953F4F4F4F5F4F6F4F7F4F8F4F9F4FA8
:1050200008952F923F924F925F926F927F928F924C
:105030009F92AF92BF92CF92DF92EF92FF920F9327
:105040001F93CF93DF93CDB7DEB7CA1BDB0B0FB631
:10505000F894DEBF0FBECDBF09942A8839884888EE
:105060005F846E847D848C849B84AA84B984C88484
:10507000DF80EE80FD800C811B81AA81B981CE0F7B
:10508000D11D0FB6F894DEBF0FBECDBFED01089560
:105090000F93083090F0982F872F762F652F542F7D
:1050A000432F322F22270850F4CF220F331F441FE3
:1050B000551F661F771F881F991F0A95B2F70F911A
:1050C000089597FB10F8169400080F93083098F095
:1050D0000850232F342F452F562F672F782F892FD5
:1050E000902DF4CF0594979587957795679557956B
:1050F0004795379527950A95AAF70F9108952A0D98
:105100003B1D4C1D5D1D6E1D7F1D801F911F089551
:105110000024A7FD00942A0F301D401D501D601D66
:10512000701D801D901D08952A193B094C095D09C9
:105130006E097F09800B910B08950024A7FD009450
:105140002A1730054005500560057005800590055B
:105150000895A1E21A2EAA1BBB1BFD010DC0AA1FB8
:10516000BB1FEE1FFF1FA217B307E407F50720F0D0
:10517000A21BB30BE40BF50B661F771F881F991F4B
:105180001A9469F760957095809590959B01AC0194
:10519000BD01CF010895A29FB001B39FC001A39F9D
:1051A000700D811D1124911DB29F700D811D112460
:1051B000911D0895CF93DF938230910510F482E022
:1051C00090E0E091BA03F091BB0320E030E0C0E052
:1051D000D0E0309711F14081518148175907C0F054
:1051E0004817590761F482819381209719F09B83B6
:1051F0008A832BC09093BB038093BA0326C02115EA
:10520000310519F04217530718F49A01BE01DF0166
:10521000EF010280F381E02DDCCF2115310509F18A
:10522000281B390B2430310590F412968D919C91F6
:1052300013976115710521F0FB019383828304C0EC
:105240009093BB038093BA03FD01329644C0FD01E5
:10525000E20FF31F81939193225031092D933C93D8
:105260003AC02091B8033091B903232B41F4209127
:105270000A0130910B013093B9032093B8032091B8
:105280000801309109012115310541F42DB73EB7D0
:1052900040910C0150910D01241B350BE091B80396
:1052A000F091B903E217F307A0F42E1B3F0B281768
:1052B000390778F0AC014E5F5F4F2417350748F08F
:1052C0004E0F5F1F5093B9034093B803819391939E
:1052D00002C0E0E0F0E0CF01DF91CF9108950F939D
:1052E0001F93CF93DF93009709F48CC0FC01329792
:1052F000138212820091BA031091BB0301151105AC
:1053000081F420813181820F931F2091B803309165
:10531000B9032817390779F5F093B903E093B80377
:1053200071C0D80140E050E0AE17BF0750F41296AC
:105330002D913C911397AD012115310509F1D9014A
:10534000F3CF9D01DA013383228360817181860F5F
:10535000971F8217930769F4EC0128813981260F82
:10536000371F2E5F3F4F318320838A819B81938338
:105370008283452B29F4F093BB03E093BA0342C028
:105380001396FC93EE931297ED01499159919E016A
:10539000240F351FE217F30771F480819181840F88
:1053A000951F029611969C938E93828193811396FA
:1053B0009C938E931297E0E0F0E0D80112968D91C5
:1053C0009C911397009719F0F8018C01F6CF8D91FD
:1053D0009C9198012E5F3F4F820F931F2091B8033D
:1053E0003091B9032817390769F4309729F41092DE
:1053F000BB031092BA0302C0138212821093B90346
:105400000093B803DF91CF911F910F91089581E030
:1054100090E0F8940C94CC2CFB01DC0102C00190CC
:105420000D9241505040D8F70895DC0101C06D93B2
:1054300041505040E0F70895FB01DC0141505040DD
:1054400048F001900D920020C9F701C01D92415013
:105450005040E0F70895AEE0B0E0E1E3FAE20C94EA
:105460001F280D891E8986E08C831A8309838FEF9C
:105470009FE79E838D83AE01475E5F4F6F89788D76
:10548000CE0101960E944E2A2F813885F801E20F45
:10549000F31F10822E96E4E00C943B28ACE0B0E0C1
:1054A000E4E5FAE20C9411287C016B018A01FC010D
:1054B00017821682838181FFBDC1CE0101964C0106
:1054C000F7019381F60193FD859193FF81916F011F
:1054D000882309F4ABC1853239F493FD859193FF9C
:1054E00081916F01853229F4B70190E00E94362C3A
:1054F000E7CF512C312C20E02032A0F48B3269F020
:1055000030F4803259F0833269F420612CC08D323E
:1055100039F0803339F4216026C02260246023C032
:10552000286021C027FD27C030ED380F3A3078F4CD
:1055300026FF06C0FAE05F9E300D1124532E13C0E3
:105540008AE0389E300D1124332E20620CC08E323A
:1055500021F426FD6BC1206406C08C3611F420684E
:1055600002C0883641F4F60193FD859193FF819145
:105570006F018111C1CF982F9F7D9554933028F4EE
:105580000C5F1F4FFFE3F9830DC0833631F0833783
:1055900071F0833509F05BC022C0F80180818983F6
:1055A0000E5F1F4F44244394512C540115C0380101
:1055B000F2E06F0E711CF801A080B18026FF03C0DD
:1055C000652D70E002C06FEF7FEFC5012C870E9450
:1055D0002B2C2C0183012C852F77222E17C038010C
:1055E000F2E06F0E711CF801A080B18026FF03C0AD
:1055F000652D70E002C06FEF7FEFC5012C870E9420
:10560000202C2C012C852068222E830123FC1BC01A
:10561000832D90E048165906B0F4B70180E290E07F
:105620000E94362C3A94F4CFF50127FC859127FE91
:1056300081915F01B70190E00E94362C31103A94BD
:10564000F1E04F1A51084114510471F7E5C0843656
:1056500011F0893639F5F80127FF07C060817181A3
:10566000828193810C5F1F4F08C060817181072E7A
:10567000000C880B990B0E5F1F4F2F76722E97FF31
:1056800009C090958095709561957F4F8F4F9F4F82
:105690002068722E2AE030E0A4010E946E2CA82E11
:1056A000A81844C0853729F42F7EB22E2AE030E0B6
:1056B00025C0F22FF97FBF2E8F36C1F018F4883540
:1056C00079F0B4C0803719F0883721F0AFC02F2FA0
:1056D0002061B22EB4FE0DC08B2D8460B82E09C09F
:1056E00024FF0AC09F2F9660B92E06C028E030E044
:1056F00005C020E130E002C020E132E0F801B7FE51
:1057000007C060817181828193810C5F1F4F06C049
:105710006081718180E090E00E5F1F4FA4010E94C4
:105720006E2CA82EA818FB2DFF777F2E76FE0BC0BF
:10573000372D3E7FA51450F474FE0AC072FC08C0D9
:10574000372D3E7E05C0BA2C372D03C0BA2C01C0C0
:10575000B52C34FF0DC0FE01EA0DF11D80818033B0
:1057600011F4397E09C032FF06C0B394B39404C06B
:10577000832F867809F0B39433FD13C030FF06C041
:105780005A2CB31418F4530C5B18B32CB31468F4EC
:10579000B70180E290E03C870E94362CB3943C85B0
:1057A000F5CFB31410F43B1801C0312C34FF12C0F4
:1057B000B70180E390E03C870E94362C3C8532FFA5
:1057C00017C031FD03C088E790E002C088E590E093
:1057D000B7010CC0832F867859F031FF02C08BE2ED
:1057E00001C080E237FD8DE2B70190E00E94362CC7
:1057F000A51438F4B70180E390E00E94362C5A9447
:10580000F7CFAA94F401EA0DF11D8081B70190E071
:105810000E94362CA110F5CF332009F451CEB701E8
:1058200080E290E00E94362C3A94F6CFF701868110
:10583000978102C08FEF9FEF2C96E2E10C942D2808
:10584000FC010590615070400110D8F7809590954B
:105850008E0F9F1F0895FC01615070400190011050
:10586000D8F7809590958E0F9F1F08950F931F93E3
:10587000CF93DF93FB01238121FD03C08FEF9FEFC7
:1058800028C022FF16C046815781248135814217E6
:10589000530744F4A081B1819D012F5F3F4F3183B5
:1058A00020838C93268137812F5F3F4F3783268358
:1058B00010C0EB01092F182F0084F185E02D099508
:1058C000892BE1F68E819F8101969F838E83812FA4
:1058D000902FDF91CF911F910F910895FA01AA2780
:1058E000283051F1203181F1E8946F936E7F6E5F23
:1058F0007F4F8F4F9F4FAF4FB1E03ED0B4E03CD0D1
:10590000670F781F891F9A1FA11D680F791F8A1FB3
:10591000911DA11D6A0F711D811D911DA11D20D01A
:1059200009F468943F912AE0269F11243019305DD4
:105930003193DEF6CF010895462F4770405D4193C5
:10594000B3E00FD0C9F7F6CF462F4F70405D4A3312
:1059500018F0495D31FD4052419302D0A9F7EACFDA
:10596000B4E0A6959795879577956795BA95C9F709
:1059700000976105710508959B01AC010A2E0694FC
:105980005795479537952795BA95C9F7620F731FB5
:0C599000841F951FA01D0895F894FFCF00
:10599C0001011400CD8B01000000BC03800000004D
:1059AC000000BB0B310BAE0B840B49251249B964BB
:1059BC004228140D0A3C281B1400000000FE0ACEDD
:1059CC000A2E0BA20AC60AB20AA30A566172696FA2
:1059DC00475053002025326425250020253264636E
:0259EC006D004C
:00000001FF
