:100000000C94B3030C94DB030C94DB030C94DB0320
:100010000C94DB030C94DB030C94DB030C94DB03E8
:100020000C94DB030C94DB030C943D070C94E70762
:100030000C94F6060C94DB030C94DB030C94DB03AA
:100040000C94AC060C94DB030C94AB0B0C94E70BF8
:100050000C94420C0C94DB030C94DB030C94DB0338
:100060000C94610A0C94DB03EB24FD240025072586
:100070000E253C25432550255D25692569256925E3
:100080006925692569256925692569256925692500
:1000900069256925692569256925692569256925F0
:1000A0006925692569256925EB24F824FD240025A7
:1000B00007250E25152522252F25A929E329EC2919
:1000C000B62AF229212A2A2A332A3C2A452A4B2AEF
:1000D000512A572AA42ADC2A6E2BE12AEA2AF82A76
:1000E000012B1B2B332B3C2B452B532B5A2B612BDA
:1000F000084AD73B3BCE016E84BCBFFDC12F3D6C8F
:1001000074319ABD56833DDA3D00C77F11BED9E4F4
:10011000BB4C3E916BAAAABE000000803F05A84CD4
:10012000CDB2D44EB93836A9020C50B991868808A0
:100130003CA6AAAA2ABE000000803F08000000BE1C
:10014000922449123EABAAAA2ABECDCCCC4C3E008A
:10015000000080BEABAAAAAA3E00000000BF0000BB
:1001600000803F0000000000084178D3BB4387D1E6
:10017000133D190E3CC3BD4282AD2B3E68EC827626
:10018000BED98FE1A93E4C80EFFFBE01C4FF7F3F87
:10019000000000000007634236B79BD8A71A3968F1
:1001A0005618AEBAAB558C1D3CB7CC5763BD6DED40
:1001B000FD753EF6177231BF000000803F002044FD
:1001C000697361626C65640020456E61626C656490
:1001D0000000205374617274757000204175746F53
:1001E00000000000204D616E75616C0000204469C4
:1001F0007361626C656400000000000000204174BF
:10020000746F50696C6F74203435000000204174A5
:10021000746F50696C6F7420393000000020417495
:10022000746F50696C6F7420313830000020415079
:100230004D322E35203930412F3530560020414384
:10024000533735382D35304200000000002041433F
:10025000533735382D313030420000000020414303
:10026000533735382D3135304200000000204143EE
:10027000533735382D3230304200000000204143E2
:10028000533735382D3530550000000000204143EC
:10029000533735382D3130305500000000204143B0
:1002A000533735382D31353055000000002041439B
:1002B000533735382D323030550000000020446966
:1002C0007361626C6564000020416972207370651F
:1002D00065640020475053000000000000002075B6
:1002E0006E6B6E6F776E0020424D503238300000DA
:1002F00020424D453238300000204D5335363131E3
:100300000000204C50530000000000203244002028
:100310003344002044697361626C6564002042616B
:100320007369630000000020457874656E6465643D
:100330000056657273696F6E2056322E33000000CE
:100340000000566172696F4750532053656E736F9A
:100350007200005265736574206F66667365740081
:1003600000000000475053206D6F64653A000000A4
:1003700000000000004750532064697374616E638D
:10038000653A0000000050726573737572652073E2
:10039000656E736F723A00566172696F20736D6F8C
:1003A0006F7468696E673A00566172696F206465A0
:1003B00061647A6F6E653A0000544543206D6F6446
:1003C000653A00000000000000004D61696E206485
:1003D000726976653A000000000000436170616355
:1003E0006974792072657365743A0000527831201F
:1003F000766F6C746167653A0000000000527832D5
:1004000020766F6C746167653A00000000004578E3
:10041000742E2054656D703A0000000000000053F7
:1004200061766520616E6420726573746172740018
:100430004C6F61642064656661756C7473000000C4
:100440000000000000240027002A00000000002512
:100450000028002B00040404040404040402020223
:1004600002020203030303030301020408102040F5
:10047000800102040810200102040810200000007E
:100480000800020100000304070000000000000053
:1004900000014C617469747564650000000000001F
:1004A0000000000000002000000000000009000221
:1004B0004C6F6E6769747564650000000000000091
:1004C0000000000020000000000000090003475069
:1004D0005320737065656400000000000000000098
:1004E00000006B6D2F6800000001000452656C2E47
:1004F00020416C74697400000000000000000000DE
:100500006D0000000000000401054162732E2041CF
:100510006C746974000000000000000000006D00B1
:100520000000000000040006566172696F000000C0
:100530000000000000000000000000006D2F7300AC
:1005400000000004020744697374616E6365000073
:10055000000000000000000000006D00000000002E
:1005600000040008547269700000000000000000E0
:1005700000000000000000006B6D0000000000049F
:100580000209417A696D757468000000000000007E
:10059000000000000000B000000000000001000AA0
:1005A000436F7572736500000000000000000000DA
:1005B00000000000B000000000000001000B5361CB
:1005C00074656C6C697465730000000000000000C5
:1005D00000002000000000000000000C48444F50C4
:1005E000000000000000000000000000000000000B
:1005F0002000000000000001020D416972207072AD
:100600006573732E000000000000000000006850B9
:10061000610000000004020E54656D702E000000A1
:10062000000000000000000000000000B0430000D7
:1006300000000001010F48756D696469747900005C
:1006400000000000000000000000257248000000CB
:1006500000010110566F6C746167650000000000B6
:100660000000000000000000560000000000000133
:10067000011143757272656E740000000000000085
:100680000000000000004100000000000001011215
:10069000436170616369747900000000000000002C
:1006A000000000006D416800000000040013506F5E
:1006B00077657200000000000000000000000000EC
:1006C00000005700000000000004001452783120A0
:1006D000566F6C7461676500000000000000000048
:1006E0005600000000000001021552783220566FBB
:1006F0006C74616765000000000000000000560097
:1007000000000000000102164578742E2054656D2B
:10071000700000000000000000000000B043000076
:100720000000000101174169722073706565640063
:10073000000000000000000000006B6D2F6800004A
:1007400000010000000000000000000000000000A8
:100750000000000000000000000000000000000099
:100760000000142DF62C11241FBECFEFD8E0DEBF01
:10077000CDBF11E0A0E0B1E0EEE7F4E702C00590E4
:100780000D92AE37B107D9F725E0AEE7B1E001C071
:100790001D92AB30B207E1F713E0C2EBD3E004C027
:1007A0002197FE010E942734C13BD107C9F70E945F
:1007B000B4170C94323A0C940000CF92DF92EF926F
:1007C000FF920F931F93CF93DF936C017A018B01FC
:1007D000C0E0D0E0CE15DF0589F0D8016D918D0124
:1007E000D601ED91FC910190F081E02DC6010995B3
:1007F000892B11F47E0102C02196ECCFC701DF9155
:10080000CF911F910F91FF90EF90DF90CF900895BF
:100810003FB7F8948091CF029091D002A091D1027D
:10082000B091D20226B5A89B05C02F3F19F00196C2
:10083000A11DB11D3FBFBA2FA92F982F8827820F66
:10084000911DA11DB11DBC01CD0143E0660F771FB5
:10085000881F991F4A95D1F70895509182014091C0
:100860008101852F90E0242F30E0541710F4805B35
:100870009F4F821B930B089580918201E09181012B
:100880008E1751F0EF5FE03508F0E0E0F0E0E65859
:10089000FD4F808190E008958FEF9FEF0895809144
:1008A000820190918101891769F09F5F903508F06E
:1008B00090E0E92FF0E0E658FD4F808190938101B0
:1008C00090E008958FEF9FEF08958091800181114E
:1008D000FCCF089580917F018F5F843408F080E021
:1008E00090917E019817E1F32FB7F89490918001D1
:1008F000992341F0E82FF0E0E05DFD4F60838093A5
:100900007F011DC081E08093800160937502109289
:10091000740282E086BB80916F00826080936F00DA
:10092000809180008F738068809380008091840024
:1009300090918500409690938900809388002FBF06
:1009400081E090E0089585ED8093BC008091BC002B
:1009500084FDFCCF10921B03089540910B02262FBB
:1009600030E0240F311D21323105DCF420911B03CE
:100970002430C9F4FC0180E090E0861758F43091EF
:100980000B022191DC01A751BE4FA30FB11D2C9387
:100990000196F3CF80910B02680F60930B0280E009
:1009A000089581E0089582E008950895E091D402C9
:1009B0008091D302E81730F4F0E0EB52FD4F8081D4
:1009C00090E008958FEF9FEF08959091D402809169
:1009D000D302981750F4E92FF0E0EB52FD4F20813D
:1009E00030E09F5F9093D40202C02FEF3FEFC90128
:1009F00008958091D30290E02091D402821B910946
:100A00000895CF92DF92EF92FF920F931F93CF93AF
:100A1000DF937C01262F972F8A0180911C03882366
:100A200091F0C62FD72F6E01C40ED51ECC15DD0553
:100A300071F06991D701ED91FC910190F081E02D69
:100A4000C7010995F3CF642F822F0E94AD04C8011E
:100A5000DF91CF911F910F91FF90EF90DF90CF909A
:100A60000895CF93DF931F92CDB7DEB769832091AE
:100A70001C032223D1F020913E03203240F021E0DC
:100A800030E0FC013383228380E090E015C0809148
:100A90001D03E82FF0E0E25EFC4F998190838F5FA9
:100AA00080931D0380933E0305C061E0CE01019653
:100AB0000E94AD0481E090E00F90DF91CF91089506
:100AC0001F93CF93DF93F894EC01CA57DF4F28812F
:100AD000203400F5DC01AE57BF4F1C9111965C919C
:100AE000119770E0411103C020E030E002C020E027
:100AF00031E0622B732BE12FF52F718360833296E7
:100B000028812F5F2883EA17FB0710F0FC0132963B
:100B1000ED93FC93FC01E057FF4F8081811108C0E9
:100B200081E080838091C1008F7688628093C100CC
:100B30007894DF91CF911F910895FC01E157FF4F09
:100B40002081222301F1F894A091E701B091E801FE
:100B5000A357BF4F0D90BC91A02D4C9120812150E7
:100B600020833297208131812F5F3F4FBC01655731
:100B70007F4F2617370718F09C0129573F4F3183C5
:100B80002083789401C040E0842F0895089508954B
:100B9000089580E090E008950E944737CF93DF9357
:100BA00090E0FC01E759FB4F2491FC01EB5AFB4F0D
:100BB0008491882361F190E0880F991FFC01EF5B1D
:100BC000FB4FC591D491FC01E55BFB4FA591B4911E
:100BD000611109C09FB7F89488812095822388838A
:100BE000EC912E230BC0623061F49FB7F8943881EA
:100BF000822F809583238883EC912E2B2C939FBF8B
:100C000006C08FB7F894E8812E2B28838FBFDF9121
:100C1000CF9108951092C0008CE08093C10086E3CC
:100C20008093C2001092C50082E38093C40062E00A
:100C300080E00E94CE0562E081E00C94CE05CF9367
:100C4000DF93EC010E940A06FE01329680E8DF0184
:100C50001D928A95E9F7DE01AE57BF4F1196FC93BE
:100C6000EE9312961196FC93EE93EC57FF4F108281
:100C70003196108211821282138217961196FC937C
:100C8000EE931296ED93FC93389610823196108273
:100C9000D093E801C093E701DF91CF9108958E30A2
:100CA00008F08E508770806480937C0080917A0079
:100CB000806480937A0080917A0086FDFCCF8091D9
:100CC00078002091790090E0922B08958F929F9266
:100CD000AF92BF92CF92DF92EF92FF926B017C01B5
:100CE0000E9408044B015C01C114D104E104F10429
:100CF000F1F00E940804DC01CB0188199909AA09C6
:100D0000BB09883E9340A105B10570F321E0C21AEA
:100D1000D108E108F10888EE880E83E0981EA11C36
:100D2000B11CC114D104E104F10419F7DDCFFF9027
:100D3000EF90DF90CF90BF90AF909F908F900895ED
:100D40002FB7F8946091CB027091CC028091CD02C4
:100D50009091CE022FBF08951F920F920FB60F925F
:100D600011242F933F938F939F93AF93BF938091C1
:100D7000CB029091CC02A091CD02B091CE023091E5
:100D8000CA0226E0230F2D3720F40296A11DB11DC3
:100D900005C029E8230F0396A11DB11D2093CA02A7
:100DA0008093CB029093CC02A093CD02B093CE025D
:100DB0008091CF029091D002A091D102B091D20245
:100DC0000196A11DB11D8093CF029093D002A093F4
:100DD000D102B093D202BF91AF919F918F913F9179
:100DE0002F910F900FBE0F901F9018951F920F928A
:100DF0000FB60F9211242F938F939F93EF93FF932E
:100E000080916F008B7F80936F00809181008F7B3A
:100E100080938100809183012091790220589091E4
:100E20007802893020F49695922B8F5FFACF9093B9
:100E30007802809182018F5F803508F080E02091F8
:100E40008101821739F0E82FF0E0E658FD4F9083DA
:100E50008093820110928301809181008F7B809327
:100E6000810010927902FF91EF919F918F912F91C4
:100E70000F900FBE0F901F9018951F920F920FB6F4
:100E80000F9211242F933F934F935F936F937F9310
:100E90008F939F93AF93BF93EF93FF9380918600BF
:100EA000909187004091790220918100442331F094
:100EB0002F7B209381001092790206C0206420933A
:100EC000810020E82093790230918301311125C0FF
:100ED00041116CC02091840130918501280F391F88
:100EE00030938B0020938A0024E026BB20916F0072
:100EF000246020936F002091860130918701820F3A
:100F0000931F36952795820F931F909377028093B6
:100F1000760281E08093830149C04091760250912E
:100F200077026091860170918701DB01A095B095F1
:100F300020917802E0917902841B950BA817B907DC
:100F400068F126952E2B460F571F3F5F861B970B88
:100F50003930A0F32093780280916F008B7F8093CB
:100F60006F00809182018F5F803508F080E0909162
:100F70008101891749F0E82FF0E090917802E65856
:100F8000FD4F908380938201809181008F7B8093BD
:100F90008100109279021092830108C02093780298
:100FA000509377024093760230938301FF91EF9143
:100FB000BF91AF919F918F917F916F915F914F9171
:100FC0003F912F910F900FBE0F901F9018951F9279
:100FD0000F920FB60F9211242F933F934F935F936D
:100FE0006F937F938F939F93EF93FF9380918001F3
:100FF00060917502209188003091890040918601AE
:1010000050918701909174028A30F8F4240F351FB3
:10101000893019F0762F717001C071E066958F5F8D
:10102000791791F390918000772311F0906C02C0B2
:101030009F7390689093800030938900209388007C
:1010400070937402609375024AC090917F01E091A1
:101050007E019E1319C08A3051F48BE08093800189
:10106000240F351F30938900209388003AC01092D6
:101070008001809180008F738093800080916F0049
:101080008D7F80936F002DC0EF5FE43408F0E0E0C7
:10109000E0937E01F0E0E05DFD4F9081909375025A
:1010A00010927402909180009F73906890938000DA
:1010B0008A3059F48091860190918701280F391F59
:1010C000309389002093880009C08091840090911A
:1010D00085004096909389008093880081E08093FA
:1010E0008001FF91EF919F918F917F916F915F911F
:1010F0004F913F912F910F900FBE0F901F90189519
:10110000CF93DF93EC018A859B85AC85BD858E836B
:101110009F83A887B9870E94A0066A837B838C83FC
:101120009D8381E089838883DF91CF9108954F92D9
:101130005F926F927F928F929F92AF92BF92CF9267
:10114000DF92EF92FF920F931F93CF93DF93CDB770
:10115000DEB760970FB6F894DEBF0FBECDBF6983D0
:101160007A838B839C83CA01B90127013801A601C8
:1011700095010E949C2E25E33AEF4EE85CE30E9425
:101180002A326B017C010E94E7326D877E878F8750
:10119000988BC701B6010E94802F6D837E838F8359
:1011A000988725E33AEF4EE85CE369817A818B8189
:1011B0009C810E942A326B017C0125E33AEF4EE8C4
:1011C0005CE3C301B2010E942A322B013C01C7013A
:1011D000B6010E94E7324B015C01C701B6010E94D3
:1011E000802F69837A838B839C83C301B2010E9421
:1011F000E73269877A878B879C87C301B2010E9497
:10120000802F6B017C0129853A854B855C8569813E
:101210007A818B819C810E942A322B013C01A7019B
:101220009601C501B4010E942A322D813E814F8171
:1012300058850E942A329B01AC01C301B2010E9471
:101240009C2E9B01AC010E942A322B013C012D8572
:101250003E854F855889C701B6010E942A329B01FD
:10126000AC010E942A329B01AC01C301B2010E9471
:101270009D2E0E94F5322B013C0129853A854B8534
:101280005C85C501B4010E942A324B015C01A701B3
:10129000960169817A818B819C810E942A322D81FD
:1012A0003E814F8158850E942A329B01AC01C501C5
:1012B000B4010E949D2E9B01AC01C301B2010E94AA
:1012C0001C2F26E73BE742EC5AE40E942A32609644
:1012D0000FB6F894DEBF0FBECDBFDF91CF911F9147
:1012E0000F91FF90EF90DF90CF90BF90AF909F90C5
:1012F0008F907F906F905F904F9008952F923F92C4
:101300004F925F926F927F928F929F92AF92BF9215
:10131000CF92DF92EF92FF920F931F93CF93DF93C1
:10132000D82FC92F8B010E94412E24E630E040E0E7
:1013300050E00E94E63349015A019B01AC0160E88C
:1013400076E988E990E00E94D6336B017C01F801D0
:1013500091828082ED2FFC2F2191822F022E000C92
:10136000990BC0970A97C0F32E3239F51F0180E818
:10137000882E86E9982E88E9A82EB12C9AE0492E6D
:10138000512C612C712CF101C1911F010C2E000C0C
:10139000DD0BE097CA30D10580F4C501B401A3018B
:1013A00092010E94E63349015A01DE010E9438345D
:1013B000C60ED71EE81EF91EE6CFA5E0B0E0A701D5
:1013C00096010E942D346F5F7F4F8F4F9F4F23E018
:1013D00030E040E050E00E94E633F801228333839E
:1013E000448355831682DF91CF911F910F91FF9017
:1013F000EF90DF90CF90BF90AF909F908F907F90B5
:101400006F905F904F903F902F900895FF920F93B1
:101410001F93CF93DF93EC01FF24F39488818D32E7
:1014200011F0F12C01C02196CE010E94412E9B01AA
:10143000AC01A4E6B0E00E942D34FE014991242FB6
:10144000042E000C330B205331092A303105A8F348
:101450004E3241F52181022E000C330B205331090D
:101460002A303105F8F44AE0429F8001439F100D75
:101470001124012E000C220B330B600F711F821FF1
:10148000931F0281002E000C110B005311090A302A
:10149000110540F4012E000C220B330B600F711F5D
:1014A000821F931FFF2039F090958095709561956C
:1014B0007F4F8F4F9F4FDF91CF911F910F91FF90E3
:1014C00008951F920F920FB60F9211242F933F93FE
:1014D0004F935F936F937F938F939F93AF93BF933C
:1014E000EF93FF938091B900887F803609F49CC008
:1014F00068F5883209F45BC090F4803109F454C077
:1015000038F4882309F4F6C0883009F44DC0F6C0D9
:10151000883109F44CC0803209F45DC0EFC08034DA
:1015200009F468C048F4803309F455C0883309F0E1
:10153000E5C080931903D8C0803509F44FC08835C1
:1015400009F45DC0883409F0D9C0D6C0883909F4DF
:10155000C7C0A8F4883709F467C038F4883609F49E
:1015600063C0803709F460C0C9C0883809F4B8C0C6
:10157000803909F45FC0803809F0C0C05BC0803B8F
:1015800009F486C038F4803A09F466C0883A09F450
:101590007FC0B4C0803C09F4A7C0883C09F4A4C053
:1015A000883B09F48AC0AAC08091F60210C09091CD
:1015B000180380911703981770F5E091180381E0E4
:1015C0008E0F80931803F0E0E950FD4F80818093E7
:1015D000BB0085EC86C0809319038EC0E091180390
:1015E00081E08E0F809318038091BB00F0E0E950FA
:1015F000FD4F808390911803809117036EC0E09196
:10160000180381E08E0F809318038091BB00F0E0F7
:10161000E950FD4F808380911A0381116DC081E0F4
:101620008093F50284EA61C083E080931B031092EB
:101630002F02CFCF80912F02803208F051C0E0916D
:101640002F0281E08E0F80932F028091BB00F0E08B
:10165000E15FFD4F8083BDCF85EC8093BC0010928D
:101660001B0380912F02803230F4E0912F02F0E0D2
:10167000E15FFD4F108260912F0270E0E0910D025A
:10168000F0910E028FE092E0099510922F0236C081
:1016900084E080931B0310920C0210920B02E091E5
:1016A0000902F0910A02099580910B02811105C08F
:1016B00081E080930B021092E901E0910C0281E03D
:1016C0008E0F80930C02F0E0E751FE4F80818093F3
:1016D000BB0090910C0280910B02981708F479CF0F
:1016E00085E88093BC000AC085EC8093BC00109212
:1016F0001B0304C0109219030E94A304FF91EF91F1
:10170000BF91AF919F918F917F916F915F914F9119
:101710003F912F910F900FBE0F901F901895109230
:101720001B0381E080931A031092F50282E10E946C
:10173000D70F83E10E94D70FE9EBF0E080818E7F25
:10174000808380818D7F808380E28093B80085E4F0
:101750008093BC0008951F920F920FB60F92112430
:101760002F933F938F939F93AF93BF93EF93FF93E9
:101770008091C600803FF1F0982F9F70D9F420919E
:10178000E7013091E801F901E557FF4FA081B181F0
:101790008C93D901A157BF4F8C918F5F8C9380811F
:1017A000918101968E179F0718F0C90189579F4FA5
:1017B00091838083FF91EF91BF91AF919F918F9122
:1017C0003F912F910F900FBE0F901F9018951F9271
:1017D0000F920FB60F9211242F933F934F935F9365
:1017E0008F939F93EF93FF938091E7019091E8018E
:1017F000FC01EA57FF4F2081222351F132970190DB
:10180000F081E02D208131818091C10030FF02C044
:10181000816001C08E7F8093C1002093C60020911B
:10182000E7013091E801F901EA57FF4F80818150CB
:1018300080833297808191810296A9014E575F4F34
:101840008417950710F0C9010296918380830DC01B
:101850008091C1008F7D80648093C100E091E70199
:10186000F091E801E057FF4F1082FF91EF919F91B7
:101870008F915F914F913F912F910F900FBE0F90DD
:101880001F9018951F920F920FB60F9211242F934D
:101890003F938F939F93EF93FF93E1ECF0E0808170
:1018A000877B806980838091E7019091E8019C01AA
:1018B00029573F4FFC01E557FF4F31832083329674
:1018C0003183208332961082FF91EF919F918F9107
:1018D0003F912F910F900FBE0F901F901895CF92B0
:1018E000DF92EF92FF920F931F93CF93DF93CDB7C9
:1018F000DEB76E970FB6F894DEBF0FBECDBF8C017A
:101900007B016A012EE1269FC001279F900D1124C3
:10191000DA015A966D917C915B97680F791F4EE1C1
:1019200050E0CE0101960E94682E8D8DF801868FC1
:1019300089818283EE0CFF1CEE0CFF1CD6015C96A5
:10194000ED91FC915D97EE0DFF1D80819181A2814B
:10195000B381F80183839483A583B683A801485F8C
:101960005F4FFE013296DA0190E08191811106C04D
:10197000392FD8015C969C93232F0FC0933119F017
:101980009F5F8D93F2CF33E1F4CF8331910594F4CF
:10199000FA01E80FF91F70832F5F622F631BE1E0EC
:1019A000F0E0EC0FFD1FE60FF11D7589822F90E02E
:1019B0007111EBCFF801658FFA01E80FF91F108262
:1019C0008E8D813031F0823041F480E4F801878FD0
:1019D00004C080E2D8015F968C93D8015E968C910A
:1019E000843091F030F4882361F08130A1F483E0F9
:1019F0000FC0883041F0893051F0853061F484E0C7
:101A000007C082E001C085E0F80180A304C085E042
:101A1000D80190968C936E960FB6F894DEBF0FBEE9
:101A2000CDBFDF91CF911F910F91FF90EF90DF908D
:101A3000CF900895CF92DF92EF92FF920F931F9372
:101A4000CF93DF93EB017B0124E0E20EF11C8B01CD
:101A50006C01C61AD70AC601800F911F0E94862EFC
:101A6000F80181938F01EE15FF05A9F7CE01DF91F3
:101A7000CF911F910F91FF90EF90DF90CF9008953D
:101A8000AF92BF92CF92DF92EF92FF920F931F938C
:101A9000CF93DF931F92CDB7DEB75C017B018B0143
:101AA0006C0184E0C80ED11CF80161918F01C50161
:101AB00069830E94862E6981681719F0C5010E940A
:101AC0008E2EFFEFAF1ABF0AAC14BD0469F7C70131
:101AD0000F90DF91CF911F910F91FF90EF90DF90CA
:101AE000CF90BF90AF9008950C948E2E0C94862EBC
:101AF000CF93C82F862F0E944F06BC01990F880BE9
:101B0000990B0E94353020E030E040E85AE30E9413
:101B10002A3220E030E44EE455E40E942A3224E0E8
:101B2000C29FF0011124E55BFC4F2081318142818D
:101B300053810E942A320E94F72FCF910895CF93AC
:101B4000DF9300D000D0CDB7DEB719821A821B8296
:101B50001C82BE016F5F7F4F84E190E00E94400DC8
:101B600019821A821B821C82BE016F5F7F4F88E13F
:101B700090E00E94400D0F900F900F900F90DF911A
:101B8000CF91089520913E039091E404213208F012
:101B90004AC080911B038111FCCF32E030931B03BC
:101BA00031E030931A033FEF30931903109218037A
:101BB00020931703AEE1B3E047EF52E0FA013E2F66
:101BC000341B321718F43D913193F9CF1092F6027D
:101BD0002091F602990F922B9093F6029091F502C4
:101BE000913061F41092F5029091F6029093BB004F
:101BF0009091BC0093FDF8CF95EC01C095EE9093C9
:101C0000BC0090911B039230E1F3909119039F3F28
:101C100079F080911903803241F08091190380336B
:101C200031F084E005C081E003C082E001C083E0C0
:101C300010921D0310923E0310921C03089591E030
:101C400090931C038093E40410921D0310923E03B2
:101C50000895CF93DF93D82FC62F809171030E94F0
:101C60001F0E6D2F8FE393E00E9431056C2F8FE3E1
:101C700093E00E943105DF91CF910C94C20D9091B9
:101C80001B039111FCCF91E090931B0390931A03D7
:101C90002FEF2093190310921803260F2093170398
:101CA0009093F6029091F602880F892B8093F602AA
:101CB0008091F502813061F41092F5028091F60274
:101CC0008093BB008091BC0083FDF8CF85EC01C000
:101CD00085EE8093BC0080911B038130E1F38091FD
:101CE0001803861710F460911803A7EFB2E025EDF2
:101CF00032E0F9018E2F821B861718F48D918193A3
:101D0000F9CF862F0895613208F060E20E943F0EFD
:101D10001092D4028093D30208950F931F93CF9310
:101D2000DF931F92CDB7DEB7682F01E713E0F8010C
:101D3000808169830E941F0E69818FE393E00E9476
:101D400031050E94C20D61E0F80180810E94830E7E
:101D50008FE393E00E94E5040F90DF91CF911F91F4
:101D60000F9108950F931F93CF93DF931F92CDB7D9
:101D7000DEB7682F01E713E0F801808169830E94D4
:101D80001F0E69818FE393E00E9431050E94C20D0E
:101D900062E0F80180810E94830E8FE393E00E944D
:101DA000E504182F8FE393E00E94E50420E030E083
:101DB000312F822B932B0F90DF91CF911F910F9199
:101DC00008950E94B20E9827892798270895CF93E7
:101DD00066EB80EE0E94290E64E670E080E090E001
:101DE0000E94660688E80E94E10E90937C0380932F
:101DF0007B038AE80E94E10E90937E0380937D032B
:101E00008CE80E94E10E9093800380937F038EE81C
:101E10000E94E10E909382038093810380E90E94E7
:101E2000E10E909384038093830382E90E94E10E84
:101E3000909386038093850384E90E94E10E90933A
:101E400088038093870386E90E94E10E90938A03BA
:101E50008093890388E90E94E10E90938C0380931C
:101E60008B038AE90E94E10E90938E0380938D0389
:101E70008CE90E94E10E9093900380938F038EE98A
:101E80000E94E10E909392038093910380917203DC
:101E9000823009F03FC081EA0E948D0E8093930347
:101EA00081EE0E94E10E909395038093940383EE5C
:101EB0000E948D0E8093960384EE0E948D0EC82F93
:101EC00085EE0E948D0E282F2F7030E1C39FC00138
:101ED0001124822B909398038093970386EE0E949F
:101EE0008D0EC82F85EE0E948D0E90E024E0959512
:101EF00087952A95E1F740E1C49F90011124822B38
:101F0000932B90939A038093990387EE0E948D0EF2
:101F100080939B0389ED80939D0380919E038F7135
:101F2000806280939E0380919C03807C806280937A
:101F30009C0380917203823021F461E082EF0E9461
:101F4000290E90919C03692F677080E2689F900131
:101F50001124892F869586958695877048E0849F01
:101F6000B0011124622B732B97FB992790F9692BF1
:101F700085EF0E94290E90919D03692F677080E282
:101F8000689F90011124892F869586958695877084
:101F900048E0849FB0011124622B732B9295969593
:101FA00096959370692B84EFCF910C94290E90E055
:101FB000FC01E358FB4F2491FC01E759FB4F34919E
:101FC000FC01EB5AFB4FE491EE23B1F1222339F1EE
:101FD000233091F038F42130A9F0223001F584B596
:101FE0008F7D12C0273091F02830A1F02430B9F451
:101FF000809180008F7D03C0809180008F778093D7
:1020000080000DC084B58F7784BD09C08091B00079
:102010008F7703C08091B0008F7D8093B000F0E097
:10202000EE0FFF1FE55BFB4FA591B4918FB7F894BE
:10203000EC913E2B3C938FBF0895809371031092D7
:10204000D4021092D30210921D0310923E030E94FC
:102050008F0B80ED0E948D0E883521F0803641F483
:1020600082E001C081E0809372030E94E70E02C00B
:10207000109272038091720390E00895CF92DF92E4
:10208000EF92FF920F931F93CF93DF931F92CDB7E1
:10209000DEB7682F01E713E0F801808169830E94B1
:1020A0001F0E69818FE393E00E9431050E94C20DEB
:1020B00063E0F80180810E94830E8FE393E00E9429
:1020C000E5046C01990FEE08FF08FE2CED2CDC2CCA
:1020D000CC248FE393E00E94E504AC01990F660BDA
:1020E000770BC42AD52AE62AF72AFE2CED2CDC2C05
:1020F000CC248FE393E00E94E504092E000CAA0B88
:10210000BB0BBC01CD016C297D298E299F290F9025
:10211000DF91CF911F910F91FF90EF90DF90CF90C3
:1021200008958F929F92AF92BF92CF92DF92EF92DB
:10213000FF928AEF0E943E10E1E7F3E0428553856B
:102140004A01A12CB12CC72ED82EE92EFF24E7FC82
:10215000FA94C818D908EA08FB08DC01CB0137E07B
:10216000B595A795979587953A95D1F7B501A401AF
:10217000440F551F661F771F4C015D01841A950A95
:10218000A60AB70AA5019401A485B5850E94383432
:102190004B015C013BE0B594A794979487943A95E2
:1021A000D1F7A7019601C701B6010E94D6339B0162
:1021B000AC016CE055954795379527956A95D1F711
:1021C000A685B7850E943834DC01CB017EE0B59549
:1021D000A795979587957A95D1F7A5019401280F32
:1021E000391F4A1F5B1F2683378340875187A5E02D
:1021F000B0E00E942D34DC01CB0180589F4FAF4FDF
:10220000BF4F692F7A2F8B2F992787FD9A950E94B0
:10221000353020E030E048EC52E40E94852FFF90FA
:10222000EF90DF90CF90BF90AF909F908F900895E8
:102230002F923F924F925F926F927F928F929F92D6
:10224000AF92BF92CF92DF92EF92FF920F931F93C4
:10225000CF93DF93CDB7DEB7A2970FB6F894DEBF6A
:102260000FBECDBF0E94911087EF0E943E106A8F73
:102270007B8F8C8F9D8F8091770390917803A091B5
:102280007903B0917A036C017D01FF0CCC08DC2C42
:1022900076019C01AD016C2D7C2D8C2D9C2D345F25
:1022A0004140510961097109810991092AA339A3A2
:1022B00049835A836B837C838D839E8359016A0192
:1022C0007B018C010E9440342A8B3B8B4C8B5D8BB5
:1022D0006E8B7F8B888F998F80918B038E8FE0918F
:1022E0008C03EF83F0918903FF8F80918A038887A5
:1022F000E0918703E8A3F0918803F987B090840305
:10230000A09083031B2D110F110BC12ED12EE12E96
:10231000F12E012F2AA139A149815A816B817C813B
:102320008D819E810E9440340CE00E94AA351901E3
:102330002A013B014C01B0908603A09085031B2D20
:10234000110F110BC12ED12EE12EF12E012F2A8952
:102350003B894C895D896E897F89888D998D0E9422
:10236000403408E00E94C3355101620173018401C9
:102370000E94E13570588F4F9F4F2090810330901D
:1023800082035101C12CD12CE12CF12C00E010E092
:102390000E94403401E20E94C3352A873B874C8764
:1023A0005D876E877F87888B998BA0E00E94FF35C1
:1023B00009F45EC1AE8C1F81110F110BBF80C12EBD
:1023C000D12EE12EF12E012F2A893B894C895D897E
:1023D0006E897F89888D998D0E94403419012A0168
:1023E0003B014C01AF8C1885110F110BB884C12E25
:1023F000D12EE12EF12E012F2AA139A149815A8136
:102400006B817C818D819E810E94403401E10E941C
:10241000AA3559016A017B018C019101A201B30126
:10242000C4010E94E13519012A013B014C014A8D8A
:102430005B8D6C8D7D8D84E075956795579547957F
:102440008A95D1F780E090E0A0E1B0E0841B950B85
:10245000A60BB70B6C017D01FF0CCC08DC2C7601C0
:102460009C01AD016C2D7C2D8C2D9C2D0FE10E94CB
:10247000AA35F901B42FA52F6C837D8389839A83B4
:1024800028A19985990F990B3985492F592F692FC3
:10249000792F892F03E20E94AA3559016A017B0135
:1024A0008C019101A201B301C4010E94E1355901DF
:1024B0006A017B018C019F014B2F5A2F6C817D811A
:1024C00089819A810E94F6354901542E652EB62FD6
:1024D000A72FF82FE92F03E00E94AA355401C52C3D
:1024E000D62CEB2EFA2E0F2F1E2F0E94F6355901F7
:1024F0006A017B01782E192F03E00E94AA35072D6F
:102500000E94F63503E00E94AA355401C52CD62C52
:10251000EB2EFA2E0F2F1E2F0E94F63502E00E949E
:10252000AA350F2F0E94F63501E00E94AA350F2F21
:102530000E94F635AA84BB84CC84DD84EE84FF84BB
:10254000088919890E94D53428873F8349835A8393
:102550006B837C838D839E830DE00E94C335922E16
:10256000832E742E652E562E472E382E292E30910E
:10257000920320919103932F990F990BA92CB82CBA
:10258000C72CD62CE52CF42C032D122D492F592FB6
:10259000692F792F892F0E9440340E94403409E12D
:1025A0000E94C33559016A017B018C0128853F8156
:1025B00049815A816B817C818D819E810E94E135A8
:1025C00019012A013B014C013091900320918F03A6
:1025D000932F990F990BA884BF80C980DA80EB8074
:1025E000FC800D811E81492F592F692F792F892F4A
:1025F0000E94403403E10E94C33559016A017B0106
:102600008C019101A201B301C4010E94E13508E0EF
:102610000E94C335522E632E742E852E962EF72FD0
:10262000E82FB92F30918E0320918D03932F990FAE
:10263000990B492F592F692F792F892F04E00E9478
:10264000AA3559016A017B018C01252D362D472DB4
:10265000582D692D7F2F8E2F9B2F0E94E1350E94D0
:102660002D3020E030E040E85BE30E942A3203C0D6
:1026700060E070E0CB01A2960FB6F894DEBF0FBE0B
:10268000CDBFDF91CF911F910F91FF90EF90DF9021
:10269000CF90BF90AF909F908F907F906F905F9002
:1026A0004F903F902F900895FF920F931F93CF93D9
:1026B000DF93CDB7DEB76E970FB6F894DEBF0FBECF
:1026C000CDBF109277041092760481E994E0909344
:1026D00073048093720480E2EAE7F4E0DF011D9264
:1026E0008A95E9F7F12C00E010E060917204709196
:1026F0007304600F711F4EE150E0CE0101960E94FD
:10270000682EE981EE23B1F0E03220F4F0E0E85ADF
:10271000FB4FF2A2809176049091770401969093FA
:10272000770480937604025E1F4FF394003CB3E07D
:102730001B07D9F66E960FB6F894DEBF0FBECDBF5D
:10274000DF91CF911F910F91FF900895CF93DF9369
:1027500080919E0490919F04DC01ED91FC91028098
:10276000F381E02D40E06EEF09958091C00488234D
:1027700011F1C0ECD4E080919E0490919F04699186
:10278000DC01ED91FC910280F381E02D41E009959F
:10279000B4E0C03EDB0779F780919E0490919F04DE
:1027A000DC01ED91FC910280F381E02D40E06FEFC0
:1027B000DF91CF910994C0E2D0E080919E04909186
:1027C0009F04DC01ED91FC910280F381E02D41E05A
:1027D00060E00995219789F7DFCF2F923F924F92C2
:1027E0005F926F927F929F92AF92BF92CF92DF9251
:1027F000EF92FF920F931F93CF93DF93CDB7DEB786
:10280000A1970FB6F894DEBF0FBECDBF811118C0DF
:102810001092A2041092A80410917104812F880FC5
:10282000880F880F8093A904412F50E06DE574E074
:102830008AEA94E00E945F37BAE09B2E910EA8C10D
:10284000282F269530E04091760450917704421766
:1028500053070CF473C080FD71C000E010E0CC247D
:10286000CA94DC2C76018091760490917704081745
:1028700019070CF061C020917904622F70E01B826F
:10288000CC82DD82EE82FF821D8E1E8E1F8E18A2EC
:1028900019A2FB01A3E0F595E795AA95E1F7E656A5
:1028A000FB4F808190E0277002C0959587952A950F
:1028B000E2F7817099278887892B31F048E554E049
:1028C000CE0101960E946F0C809179048F5F8093F6
:1028D000790490E020917604309177048217930771
:1028E00014F0109279048885882319F11092A204BB
:1028F0008B818093A8048D8D28E0829FC0011124D4
:102900009E8D892B8093A90480E02AE0280FE9E0BE
:10291000F0E0EC0FFD1FE80FF11D9081992339F0D5
:102920008F5FE22FF0E0E056FB4F9083EECF922EC8
:102930002FC10F5F1F4F97CF912C2AC180E4809346
:10294000A20400E010E058E0952ECC24CA94DC2CC0
:1029500076017AE1672E712C20917804622F70E065
:102960001B82CC82DD82EE82FF821D8E1E8E1F8E28
:1029700018A219A2FB0143E0F595E7954A95E1F706
:10298000E656FB4F808190E0277002C095958795B1
:102990002A95E2F7817099278887892B31F048E5DD
:1029A00054E0CE0101960E946F0C809178048F5FF5
:1029B0008093780490E0A0907604B09077048A1514
:1029C0009B0514F0109278048885882309F4D0C000
:1029D0008C819D81AE81BF818F3F5FEF9507A507F9
:1029E000B50709F4C5C03B81692D70E04F8D51E0FA
:1029F000590D303168F060567B4F242F2F70FB014A
:102A0000208322E0290DE52FF0E0E056FB4F0BC0BC
:102A1000252F60567B4F50E1359FF0011124342F54
:102A20003F703E2BFB01308369A170E030E0443001
:102A3000B9F128F4442369F04130D9F095C0483009
:102A400009F466C0493009F480C0453009F08CC0F3
:102A500042C0482F4F71B7FD02C080E001C080E83E
:102A6000F901E056FB4F842B98A1892B808381E0EC
:102A70007CC0F901E056FB4F8083A9014F5F5F4F97
:102A8000E92FEF71B7FD02C080E001C080E8DA01F4
:102A9000A056BB4F8E2B98A1892B8C9382E065C0EA
:102AA000A901485A5B4FFA01E85BFF4F80833196DA
:102AB0009083A9014E5F5F4FEA2FEF71B7FD02C00F
:102AC00080E001C080E8DA01A056BB4F8E2B98A1B0
:102AD000892B8C931BC0A901485A5B4FFA01E85B14
:102AE000FF4F808331969083A9014E5F5F4F1D0198
:102AF000552437FC5094452CB7FD02C080E001C03E
:102B000080E8FA01E056FB4F282A208283E02DC09E
:102B1000A901485A5B4FFA01E85BFF4F8083319669
:102B200090833196A083A9014D5F5F4FEB2FEF712A
:102B3000B7FD02C080E001C080E8DA01A056BB4FBB
:102B40008E2B98A1892B8C930DC0A901485A5B4FFD
:102B5000FA01E85BFF4F8083319690833196A08322
:102B60003196B08384E001C080E0982E920E02C0BE
:102B700060E070E00F5F1F4F0A151B054CF4892DB4
:102B800090E09301261B370B821793070CF4E4CED9
:102B90008EE78093A0048FE28093A1048091A20429
:102BA0009EEF990D892B8093A20489E08093A30462
:102BB00084EA8093A4048091E2048093A504809128
:102BC000E3048093A6041092A704292D30E0E2EAE2
:102BD000F4E080E092E09E1B57E0492F4E0F49152C
:102BE00060F44191842748E087FF03C0880F852760
:102BF00001C0880F4150C1F7F0CFF901E056FB4FFB
:102C0000808380919E0490919F04DC01ED91FC9162
:102C10000280F381E02D40E06EE7099511E0911606
:102C200098F080919E0490919F04DC01ED91FC91BD
:102C3000A12FB0E0A056BB4F0280F381E02D41E010
:102C40006C9109951F5FEBCFA1960FB6F894DEBF8C
:102C50000FBECDBFDF91CF911F910F91FF90EF90ED
:102C6000DF90CF90BF90AF909F907F906F905F90DC
:102C70004F903F902F900895CF93DF931F92CDB741
:102C8000DEB72091760430917704232B21F48983D9
:102C90000E94541389818032D0F4E82FF0E0E85A82
:102CA000FB4F82A1E82FF0E093E0F595E7959A9528
:102CB000E1F7E656FB4F282F277081E090E001C036
:102CC000880F2A95EAF78095908189238083109256
:102CD0005C0410927904109278040F90DF91CF91E8
:102CE0000895813208F080E2682F87E70E943F0E46
:102CF0001092D4028093D3020895209174043091ED
:102D000075042115310589F0803278F4E82FF0E060
:102D1000E85AFB4F82A1F90194E0899FE00DF11D73
:102D20001124408351836283738308954F925F928D
:102D30006F927F92AF92BF92CF92DF92EF92FF920B
:102D40000F931F93CF93DF9300D000D0CDB7DEB7A2
:102D5000082FA62E69017A01AE014F5F5F4FC701B0
:102D6000B6010E94F6312B013C0189819A81AB8129
:102D7000BC81BC01CD019F770E94FE2FB62E172F7C
:102D80002AE939E949E15FE3C301B2010E942A322D
:102D900020E030E543EC57E40E942A329F770E94FE
:102DA000FE2F3B011170A11002C090E001C090E223
:102DB000192B20E030E0A901C701B6010E947B2F4A
:102DC000881F8827881F8295880F880F807C712F25
:102DD000782BA3016B2D802F0F900F900F900F90E9
:102DE000DF91CF911F910F91FF90EF90DF90CF90E7
:102DF000BF90AF907F906F905F904F900C947D1636
:102E0000CF92DF92EF92FF921092AC036091B403E5
:102E10007091B50380E090E00E9433306B017C013B
:102E20006091B6037091B7038091B8039091B90394
:102E30000E94333028E23BE64EE65EE40E94852F96
:102E40009B01AC01C701B6010E949D2E2091BA03DF
:102E500021119058FF90EF90DF90CF900895CF927E
:102E6000DF92EF92FF921092AC036091AD037091EC
:102E7000AE0380E090E00E9433306B017C016091F2
:102E8000AF037091B0038091B1039091B2030E949F
:102E9000333028E23BE64EE65EE40E94852F9B013C
:102EA000AC01C701B6010E949D2E2091B3032111F0
:102EB0009058FF90EF90DF90CF9008951F93CF939D
:102EC000DF9387E70E941F0E60E08FE393E00E948C
:102ED00031050E94C20D87E70E941F0E83E090E03B
:102EE0000E9471169091D3028091D4029817F1F349
:102EF0008FE393E00E94E504D82F8FE393E00E94D4
:102F0000E504182F8FE393E00E94E504C82F0E9488
:102F1000C20D812F90E0A0E0B0E0BA2FA92F982F2A
:102F20008827AD2BBC01CD016C2BDF91CF911F9178
:102F30000895CF93DF9387E70E941F0EC5EED4E07C
:102F40006D8570E0605B7F4F8FE393E00E943105F9
:102F50000E94C20D6C8570E080E090E00E946606E1
:102F6000DF91CF910C945E17CF93DF93CDB7DEB78F
:102F7000C255D1090FB6F894DEBF0FBECDBF78940D
:102F800084B5826084BD84B5816084BD85B582606E
:102F900085BD85B5816085BD80916E00816080931F
:102FA0006E00109281008091810082608093810088
:102FB0008091810081608093810080918000816098
:102FC000809380008091B10084608093B1008091F3
:102FD000B00081608093B00080917A00846080931B
:102FE0007A0080917A00826080937A0080917A00E2
:102FF0008E7F80937A0080917A00806880937A0037
:103000001092C10086E70E941D1080936B0381110E
:1030100005C087E70E941D1080936B0380916B03AE
:1030200081115DC087E70E941F0E0E94C20D8111B1
:1030300056C01092D4021092D30210921D03109227
:103040003E030E948F0B87E70E941F0E6EE18FE305
:1030500093E00E9431050E94C20D8AE08093F10442
:1030600088E08093F20464E670E080E090E00E94E3
:10307000660665EEC62E64E0D62E12EA87E70E9449
:103080001F0E612F8FE393E00E9431050E94C20D55
:1030900087E70E941F0E82E090E00E9471169091D7
:1030A000D3028091D4029817F1F38FE393E00E944A
:1030B000E504B82E8FE393E00E94E504082F0E94F8
:1030C000C20DFB2CE12CC701802BD6018D939D9363
:1030D0006D011E5F1E3A91F683E080936B03809131
:1030E0006B038230B9F018F48130A1F02FC0833027
:1030F000F9F0843059F58DEC9CECACE4BFE380939F
:103100006C0390936D03A0936E03B0936F031092C2
:1031100070031CC08AE999E9A9E5BFE380936C03B9
:1031200090936D03A0936E03B0936F0385E00CC082
:103130004DEC5CEC6CE47FE340936C0350936D03C7
:1031400060936E0370936F038093700381E090E04F
:103150000E94760D8F3F11F08093010182E090E094
:103160000E94760D8F3F31F091E0811101C090E017
:103170009093020183E090E00E94760D8F3F11F062
:103180008093C10184E090E00E94760D8F3F39F07A
:1031900090E08F5791099093C0018093BF0185E023
:1031A00090E00E94760D8F3F11F08093030186E03E
:1031B00090E00E94760D8F3F31F091E0811101C0C7
:1031C00090E09093B20187E090E00E94760D8F3FEF
:1031D00031F091E0811101C090E09093B10188E05D
:1031E00090E00E94760D8F3F31F091E0811101C097
:1031F00090E09093B0018AE090E00E94760D8F3FBE
:10320000A1F0682F70E080E090E00E94333020E071
:1032100030E048EC52E40E94852F60936C03709379
:103220006D0380936E0390936F038CE090E00E9497
:10323000760D8F3F11F0809370038EE090E00E9436
:10324000760D8F3F11F08093D20110926F00109293
:10325000800081E88093810081E493E0909387016E
:103260008093860189E19EE190938501809384019A
:1032700062E088E00E94CE0589E00E94D70F61E0FD
:1032800089E00E94CE051092830110928201109273
:1032900081011092800110927F0110927E0180E2E4
:1032A00086BB80936F0080916B03811103C086E021
:1032B0000E943C1680910101813021F080916B03C6
:1032C000823019F08FE00E943C168091010181301C
:1032D00021F080916B03811106C08DE00E943C16A5
:1032E0008EE00E943C1680910101811109C081E0AD
:1032F0000E943C1682E00E943C1683E00E943C162D
:103300008091010181110AC080916B03811106C077
:1033100084E00E943C1685E00E943C1680910101E9
:10332000823091F087E00E943C1688E00E943C16B3
:1033300089E00E943C168AE00E943C168BE00E94C5
:103340003C168CE00E943C1687E10E943C161091CE
:10335000C10111110DC080E10E943C1681E10E9463
:103360003C1682E10E943C1683E10E943C1645C057
:1033700000910301002309F440C067EB71E084E190
:1033800090E00E941A0D0130C1F5153018F48FEF4E
:10339000810F01C085E06FE00E94780D6B017C0118
:1033A000BE016F5F7F4F88E190E00E941A0DC70158
:1033B000B6010E94353020E030E04AE754E40E9434
:1033C000852F6B017C012CE53FE842E85FE36981D2
:1033D0007A818B819C810E942A329B01AC01C701BA
:1033E000B6010E94993187FD08C01092B701109272
:1033F000B8011092B9011092BA018091B201811105
:1034000003C084E10E943C168091B101811103C088
:1034100085E10E943C168091B001811103C086E1D4
:103420000E943C1686E78093E20482E38093E304E3
:10343000809171048111ABC080E2E0EAF4E0DF0129
:103440001D928A95E9F740E250E060E270E080EC7E
:1034500094E00E94683743E150E06EE471E08DE54E
:1034600094E00E947F3788E0809371048091760415
:1034700090917704892B11F40E94541300917604E3
:1034800010917704013CBFE11B0730F4C801880F9D
:10349000991F880F991F02C08FEF9FEF0E941A3665
:1034A000FC0120E030E04FEF5FEFBA012017310759
:1034B00039F041935193619371932F5F3F4FF6CF52
:1034C000809374049093750481E990E00E941A3609
:1034D00021E9FC0111922A95E9F724E131E0DC01B0
:1034E0002D933C9390939F0480939E040E941F060B
:1034F00010925C0410927904109278040E94A00645
:103500006B017C01B0EDCB0EB7E0DB1EE11CF11CC2
:103510008091720490917304892B61F10E94A0063E
:103520006C157D058E059F0528F504E010E00E94CE
:10353000A61366E970E080E090E00E946606015004
:103540001109A9F700E010E08091760490917704CA
:1035500080179107ECF2802F880F0E94ED130E94D4
:10356000A61366E970E080E090E00E9466060F5FB7
:103570001F4FEACF80919E0490919F04DC01ED9152
:10358000FC910480F581E02D09958111F3CFFE01B6
:1035900031961F019E012E5D3F4F3CA32BA30E943D
:1035A000A0060091E3011091E4012091E501309122
:1035B000E601DC01CB01801B910BA20BB30B853B19
:1035C0009105A105B10508F4E3C780916B03882339
:1035D00009F459C6833009F0C9C387E70E941F0E5A
:1035E0006091F20470E0605C7F4F8FE393E00E9493
:1035F00031050E94C20D6091F10470E080E090E01E
:103600000E9466060E945E176DAB7EAB8FAB98AFD3
:103610000E9499172091ED043091EE04890120E079
:1036200030E0322F212F102F00272B013C01401AB0
:10363000510A620A730AE091EB04F091EC04809065
:10364000E7049090E804940140E050E060E070E00E
:1036500080E090E000E10E94AA35D22EE32EF42E05
:103660005DA36DA7872E982E99AB9F0140E050E097
:10367000C301B2010E949934C22E032F142FB52F1B
:10368000F62FE72F5C01A0E00E94FF3554F4AFE76E
:103690000E94EA35C22E032F142FB52FF62FE72FE5
:1036A0005C012C2D302F412F5B2F6F2F7E2FC501FA
:1036B00007E00E94C3355901C42EA52FF62FE72F2E
:1036C0008C012D2D3E2D4F2D5DA16DA5782D892DC1
:1036D00099A9DA2EEF2EFE2E0E94E13529AF3DAFDB
:1036E00022964FAF229723965FAF239724966FAF12
:1036F000249725967FAF259726968FAF26972796F6
:103700009FAF27976091E5047091E6040091E9046A
:103710001091EA0480E090E020E030E840E050E0E2
:103720000E94A834D22EE32EF42E5DA36DA7872E1F
:10373000982E99AB980140E050E0C301B2010E947D
:103740009934C22E032F142FB52FF62FE72F5C01CB
:10375000A0E00E94FF357CF421503F4F4F4F5F4F58
:103760006F4F7F4F8F4F9F4FC22E032F142FB52FB8
:10377000F62FE72F5C012C2D302F412F5B2F6F2F61
:103780007E2FC50108E00E94C3355901C42EA52F24
:10379000F62FE72F8C012D2D3E2D4F2D5DA16DA510
:1037A000782D892D99A9DA2EEF2EFE2E0E94E13573
:1037B00028962FAF289729963FAF29972A964FAF83
:1037C0002A972B965FAF2B972C966FAF2C972D9641
:1037D0007FAF2D972E968FAF2E972F969FAF2F9757
:1037E0002091EF043091F00440E050E0C301B201B9
:1037F0000E949934F22E032F142FB52FF62FE72FA6
:10380000D82EE92EA0E00E94FF3584F42150310922
:1038100040485F4F6F4F7F4F8F4F9F4FF22E032FC8
:10382000142FB52FF62FE72FD82EE92E2F2D302F5E
:10383000412F5B2F6F2F7E2F8D2D9E2D07E10E9434
:10384000C3352DA33EA34FA358A7CDA0DEA0EFA064
:10385000F8A430EDC30E37E0D31EE11CF11C10922A
:10386000F7041092F8041092F9041092FA041092DE
:10387000FB041092FC041092FD041092FE041092BE
:10388000FF0410920005109201051092020510929B
:10389000030510920405109205051092060540EDEF
:1038A000C41647E0D406E104F1040CF0C8C02DA111
:1038B0003EA14FA158A5CA01B9010E94D6339B0170
:1038C000AC01A5E0B0E00E942D344B015C01B59441
:1038D000A794979487942B013C01770C4408542CAF
:1038E00032018092F7049092F804A092F904B09209
:1038F000FA044092FB044092FC044092FD04409282
:10390000FE049B01AC0102E055954795379527953C
:103910000A95D1F72DA73EA74FA758AB2093FF04D8
:103920003093000540930105509302054092030532
:1039300040920405409205054092060534E2C31604
:103940003AEFD3063FEFE306F3060CF078C06DA123
:103950007EA18FA198A56455724F8F4F9F4F9B01F9
:10396000AC010E94D63369AB7AAB8BAB9CABA7E0C2
:10397000B0E09B01AC010E942D347B018C01AB01B6
:10398000BC01770F440B542FBA014DA35EA36FA364
:1039900078A79401A501642D742D842D942D5701D1
:1039A0006801EDA0FE2C0E2D1E2D0E94E135209306
:1039B000F7043093F8044093F9045093FA046093A9
:1039C000FB047093FC048093FD049093FE04ABE031
:1039D000B0E029A93AA94BA95CA90E942D347B012A
:1039E0008C0115950795F794E7949B01AC01550F51
:1039F000220B322FA9012DA33EA34FA358A72DA51B
:103A00003EA54FA558A9642D742D842D942D5701E2
:103A10006801EDA0FE2C0E2D1E2D0E94E135209395
:103A2000FF04309300054093010550930205609315
:103A300003057093040580930505909306056DA911
:103A40007EA98FA998ADAB01BC0180E090E0DC01BC
:103A50004DA35EA36FA378A789A79AA7ABA7BCA71E
:103A600028962FAD289729963FAD29972A964FADD6
:103A70002A972B965FAD2B972C966FAD2C972D9692
:103A80007FAD2D972E968FAD2E972F969FAD2F97AA
:103A9000A090FF04B0900005C0900105D0900205F1
:103AA000E0900305F09004050091050510910605CE
:103AB0000E94F63559016A017B018C012DA13EA1BE
:103AC0004FA158A560E070E080E090E00E94403493
:103AD000F22E032F142FB52FF62FE72FD82EE92E15
:103AE000A0E00E94FF3584F421503109404E5F4F21
:103AF0006F4F7F4F8F4F9F4FF22E032F142FB52FF5
:103B0000F62FE72FD82EE92E2F2D302F412F5B2FA8
:103B10006F2F7E2F8D2D9E2D05E10E94C33539011B
:103B20004A01B62FA72FF82FE92F29AD3DAD2296D8
:103B30004FAD229723965FAD239724966FAD2497C0
:103B400025967FAD259726968FAD269727969FAD14
:103B50002797A090F704B090F804C090F904D09093
:103B6000FA04E090FB04F090FC040091FD04109135
:103B7000FE040E94F63559016A017B018C01930114
:103B8000A4016B2F7A2F8F2F9E2F0E94F635F22ED5
:103B9000032F142FB52FF62FE72FD82EE92EA0E0F4
:103BA0000E94FF3584F4215030484F4F5F4F6F4FD4
:103BB0007F4F8F4F9F4FF22E032F142FB52FF62FCD
:103BC000E72FD82EE92E2F2D302F412F5B2F6F2F6F
:103BD0007E2F8D2D9E2D0FE00E94C335B901CA01A5
:103BE0002093060170930701409308019093090107
:103BF0000E94353020E836EE45EC57E40E94852FD0
:103C00002BEA3CED42E45EE30E9497329B01AC015B
:103C100060E070E080E89FE30E949C2E20E03AE2A2
:103C20004DE257E40E942A3220E030E048EC52E4B2
:103C30000E942A320E94F72F4B015C010E949917C3
:103C40002091ED043091EE04890120E030E0322F24
:103C5000212F102F00276B017C01C01AD10AE20A24
:103C6000F30A2091EF043091F00440E050E0C701E6
:103C7000B6010E949934722E032F142FB52FF62F00
:103C8000E72F582E692EA0E00E94FF3584F42150C2
:103C9000310940485F4F6F4F7F4F8F4F9F4F722EBC
:103CA000032F142FB52FF62FE72F582E692E272D0F
:103CB000302F412F5B2F6F2F7E2F852D962D07E103
:103CC0000E94C3352DA33EA34FA358A769A77AA787
:103CD0008BA79CA74DA05EA06FA078A470ED470EA7
:103CE00077E0571E611C711C80ED481687E058066E
:103CF000610471044CF01092F3041092F4041092D9
:103D0000F5041092F60413C0A7019601C701B6018D
:103D10000E94D63320E030E0A9010E9408342093AD
:103D2000F3043093F4044093F5045093F604809127
:103D3000F3049091F404A091F504B091F60473019A
:103D40006201C81AD90AEA0AFB0AC701B6010E9431
:103D5000353020E030E048EC52E40E94852F0E948C
:103D6000F72F709305016093040146C10E9418115A
:103D70000E94F72F6093060170930701809308015A
:103D8000909309010E94181120E030E048EC52E4C1
:103D90000E94852F20E030E54DE754E40E94852FF6
:103DA00021E03EED42E45EE30E9497329B01AC01CC
:103DB00060E070E080E89FE30E949C2E20E03AE201
:103DC0004DE257E40E942A3220E030E048EC52E411
:103DD0000E942A320E94F72F4B015C010E94911031
:103DE0000E94F72F709305016093040180916B038B
:103DF000823009F001C10E9491108DEF0E94B20E35
:103E00006C01E12CF12CC11420E8D206E104F1048C
:103E100009F4E1C0409077035090780360907903F3
:103E200070907A033CE2531A31E0630A71083EE075
:103E3000CC0CDD1CEE1CFF1C3A95D1F7809197034A
:103E400090919803092E000CAA0BBB0B44E1880F3C
:103E5000991FAA1FBB1F4A95D1F7C81AD90AEA0AA7
:103E6000FB0AA0919903B0919A03A30192010E94C9
:103E70003834C61AD70AE80AF90A40E4D40EE11C1D
:103E8000F11C5FE0F594E794D794C7945A95D1F765
:103E9000A0919B030A2E000CBB0BA30192010E9470
:103EA00038349B01AC016AE05595479537952795C5
:103EB0006A95D1F72DA33EA34FA358A7A0919603CF
:103EC000B0E0A30192010E942D34DC01CB017BE024
:103ED000B595A795979587957A95D1F7BC01CD01B2
:103EE00070588F4F9F4F2DA13EA14FA158A50E9402
:103EF000D633DC01CB01EAE0B595A7959795879578
:103F0000EA95D1F79C01AD01405E5F4FA09194030B
:103F1000B09195030E943834DC01CB01905EAF4F25
:103F2000BF4FBC01CD01FEE09595879577956795CC
:103F3000FA95D1F7A70196010E94D6336B017C0157
:103F4000AFE09595879577956795AA95D1F79B01F1
:103F5000AC010E94D6339B01AC01B7E05595479563
:103F600037952795BA95D1F7A0919303B0E00E94B9
:103F70002D34DC01CB0114E0B595A7959795879575
:103F80001A95D1F7B701A601481B590B6A0B7B0B99
:103F9000DB01CA0177FF03C080E090E0DC018130E3
:103FA0009105A10559E1B50724F080E090E0A0E07B
:103FB000B9E1BC01CD012CE0959587957795679582
:103FC0002A95D1F70E94353020E030E040E85AE3EE
:103FD0000E942A3204C060E070E080EC9FE720E09D
:103FE00030E040E251E40E942A320E94F72FAB01F8
:103FF000BC018FE00E947D168091DF019091E0016D
:10400000A091E101B091E2010097A105B10589F409
:104010008092DF019092E001A092E101B092E20172
:104020008092DB019092DC01A092DD01B092DE0172
:1040300026C075016401C81AD90AEA0AFB0AC70139
:10404000B6012AE030E040E050E00E9408342093BE
:10405000D7013093D8014093D9015093DA01C501BB
:10406000B40124E630E040E050E00E9408342093A0
:10407000D3013093D4014093D5015093D6010E94CF
:10408000A0060091E3011091E4012091E501309137
:10409000E6016B017C01C01AD10AE20AF30A8091A1
:1040A000DB019091DC01A091DD01B091DE01A50161
:1040B0009401281B390B4A0B5B0BCA01B9010E9402
:1040C00035302B013C01C701B6010E9433309B0102
:1040D000AC0160E070E08AE794E40E94852F9B01C8
:1040E000AC01C301B2010E942A320E94F72F2B01BA
:1040F0003C018092DB019092DC01A092DD01B09244
:10410000DE018091D201813041F4C092CE01D09283
:10411000CF01E092D001F092D101C090CE01D090B9
:10412000CF01E090D001F090D101D701C6010197F5
:10413000A109B109873B9B40A105B10550F520E0DD
:1041400038E44FE156E46091CA017091CB0180914F
:10415000CC019091CD010E942A322091C60130916C
:10416000C7014091C8015091C9010E942A324B01F8
:104170005C01C701B6010E9433309B01AC01C5014F
:10418000B4010E94852F0E94F72F460E571E681E0D
:10419000791EC301B2010E9435306B017C019B0185
:1041A000AC016091C2017091C3018091C4019091F2
:1041B000C5010E949C2E20916C0330916D034091AB
:1041C0006E0350916F030E942A329B01AC01C7011C
:1041D000B6010E949D2E0E94F72F6B017C010E9468
:1041E00035306093C2017093C3018093C4019093F2
:1041F000C50180917003482F50E060E070E04C15DD
:104200005D056E057F054CF4D701C601841B950B37
:10421000A60BB70BAC01BD0117C090E0919581953D
:104220009109092E000CAA0BBB0BC816D906EA0689
:10423000FB063CF4B701A601481B590B6A0B7B0B2C
:1042400003C040E050E0BA0186E00E947D16409134
:1042500006015091070160910801709109018DE0FC
:104260000E947D1680910401909105012AE0289F0B
:10427000A001299F500D1124052E000C660B770B11
:104280008EE00E947D160E94A0066093E301709369
:10429000E4018093E5019093E6011091C10111239F
:1042A00009F4FDC0153018F48FEF810F01C085E0CF
:1042B0006FE00E94780D0E94353020E030E04AE740
:1042C00054E40E94852F69837A838B839C8320E04A
:1042D00030E040E251E40E942A320E94F72FAB0105
:1042E000BC0180E10E947D16153028F0193030F4B1
:1042F00082E796E005C080E090E002C08CE891E0A3
:10430000E090BF01F090C001E80EF91E8EE00E941F
:104310004F06BC01990F880B990B0E94353020E0A5
:1043200030E040E85AE30E942A3220E030E44EE4D4
:1043300055E40E942A324B015C01B70180E090E015
:104340000E9433309B01AC01C501B4010E949C2E38
:104350006B017C01E12FF0E0E35EFE4F608170E0D5
:1043600080E090E00E9435309B01AC01C701B601AE
:104370000E94852F153030F02CE730EF41EC5FE3E1
:104380000E942A326093BB017093BC018093BD01EF
:104390009093BE01C090BB01D090BC01E090BD01E4
:1043A000F090BE0120E030E040E251E4C701B601E8
:1043B0000E942A320E94F72FAB01BC0181E10E94CA
:1043C0007D162FEF3FEF4FE951E4C701B6010E9480
:1043D000852F2091B7013091B8014091B9015091DA
:1043E000BA010E949D2E6093B7017093B80180932B
:1043F000B9019093BA010E94F72FAB01BC0182E191
:104400000E947D16809103018823A1F10E94A006DD
:104410000091B3011091B4012091B5013091B60122
:10442000DC01CB01801B910BA20BB30B81319742B6
:10443000A105B105F8F020E030E040E050E4C7010C
:10444000B6010E947B2F18165CF067EB71E084E1E7
:1044500090E00E94400DB10188E190E00E94400D83
:104460000E94A0066093B3017093B4018093B501DC
:104470009093B60129813A814B815C816091BB01A7
:104480007091BC018091BD019091BE010E942A32C1
:104490000E94F72FAB01BC0183E10E947D16809141
:1044A000B201882379F060E186E00E94780D2AE06D
:1044B00030E040E050E00E940834BA01A90184E1F4
:1044C0000E947D168091B101882379F061E187E037
:1044D0000E94780D2AE030E040E050E00E9408346D
:1044E000BA01A90185E10E947D168091B00188235F
:1044F00009F44EC084E10E944F06BC01990F880B5D
:10450000990B0E9435309B01AC0160E070EC8FE7A5
:1045100094E40E94852F20E030E040E85FE30E94B1
:104520009C2E9B01AC0160E070E48CE196E40E945B
:10453000852F20E030E44CE156E40E94852F0E9454
:10454000AE3120E030EE46E755E40E94852F2FE0A3
:104550003FEC4BE55BE30E949D2E9B01AC0160E0CC
:1045600070E080E89FE30E94852F29E939EF47E852
:1045700053E40E949C2E20E030E040E251E40E948F
:104580002A320E94F72FAB01BC0186E10E947D1602
:1045900080910101882309F408C68FE993E00E9405
:1045A0002D04892B09F4D8C28FE993E00E944F04AF
:1045B000182F8091480490914904A0914A04B09129
:1045C0004B040196A11DB11D8093480490934904AA
:1045D000A0934A04B0934B04143209F4C3C2E0918F
:1045E0004204153234F41A3071F01D3009F0C8C29B
:1045F0000AC01A3241F01C3209F0C2C280912F0465
:10460000812780932F04EF3008F07EC1F0E0EF5C4B
:10461000FB4F108280913004882309F477C12091E8
:1046200031043FEB320F822F022E000C990B3630F3
:1046300010F4C79707C02156263018F48755910902
:1046400001C0C097282F2295207F309132044FEB74
:10465000430F832F032E000C990B463010F4C7979D
:1046600007C03156363018F48755910901C0C097FC
:10467000820F90912F04891334C18091540490913A
:104680005504A0915604B09157040196A11DB11D87
:104690008093540490935504A0935604B093570408
:1046A00080914304882399F080914C0490914D04AB
:1046B000A0914E04B0914F040196A11DB11D8093AD
:1046C0004C0490934D04A0934E04B0934F0400917A
:1046D0004004002309F46BC0013009F0D2C080917E
:1046E000D3039091D403A091D503B091D6038093C6
:1046F000CF039093D003A093D103B093D2030E9431
:10470000A0066093D7037093D8038093D903909346
:10471000DA030093CE030093CD038091E1039091DF
:10472000E203A091E303B091E4038093DD0390934F
:10473000DE03A093DF03B093E0030E94A006609322
:10474000E5037093E6038093E7039093E8030093F7
:10475000DC030093DB0380914304882309F491C0B8
:1047600087E0EBEBF3E0ADEAB3E001900D928A95C0
:10477000E1F787E0E2ECF3E0A4EBB3E001900D9207
:104780008A95E1F70E94A0066093C9037093CA035B
:104790008093CB039093CC030093AC030093AB03C3
:1047A00089EE93E00E94800887EF93E068C08091D3
:1047B000E1039091E203A091E303B091E4038093BD
:1047C000DD039093DE03A093DF03B093E0030E9428
:1047D000A0066093E5037093E6038093E70390934C
:1047E000E80301E00093DC030093DB0380914304C2
:1047F000882321F187E0EBEBF3E0ADEAB3E0019031
:104800000D928A95E1F787E0E2ECF3E0A4EBB3E0E8
:1048100001900D928A95E1F70E94A0066093C9036A
:104820007093CA038093CB039093CC030093AC03A3
:104830000093AB0385E094E00E94800880911D0402
:1048400090911E04A0911F04B0912004809319043C
:1048500090931A04A0931B04B0931C040E94A0061A
:1048600060931504709316048093170490931804B2
:1048700081E0809314048093130481E294E00E9409
:104880008008E0904604F090470401E0E114F10450
:1048900009F451C1E0914604F091470466A177A163
:1048A000F70186A197A10E946F37892B09F043C1B8
:1048B000B701C70140960E9478370E94A006D70131
:1048C00090966D937D938D939C93939795960C936F
:1048D000959794960C9394979A96ED90FC909B974D
:1048E000D5CF8091500490915104A0915204B09181
:1048F00053040196A11DB11D80935004909351045F
:10490000A0935204B093530480E016C190914104E7
:10491000911149C067E571E081E394E00E946F372F
:10492000892B41F06DE571E081E394E00E946F37DF
:10493000892B11F481E014C063E671E081E394E017
:104940000E946F37892B41F069E671E081E394E0C2
:104950000E946F37892B19F41092400403C082E043
:1049600080934004809144049091450490934704BF
:1049700080934604E0904604F0904704E114F1046B
:1049800019F2F701C6A0D7A061E374E0C6010E9446
:104990006F3797FD02C00C94E62CD7019A968D9143
:1049A0009C919B97E3CFE0914004E23009F491C0E1
:1049B00080913104882309F48CC020E2E29FF00149
:1049C0001124E92B3197E932F10508F082C0EC5C43
:1049D000FF4F0C94273481E394E00E94060A609311
:1049E000E1037093E2038093E3039093E40371C0C7
:1049F00091E0813409F043C043C06BEB73E009C020
:104A000091E0833509F090E09093C10362C062ECBD
:104A100073E081E394E00E947E095BC091E08735FA
:104A200009F090E09093C80354C081E394E00E94A1
:104A3000060A6093F3037093F4038093F503909355
:104A4000F60347C081E394E00E94060A60930104E4
:104A50007093020480930304909304043AC081E3AA
:104A600094E00E94412E6093D3037093D40380930B
:104A7000D5039093D6032DC091E081330CF490E0E0
:104A80009093430426C081E394E00E94412E6093FA
:104A90001D0470931E0480931F049093200419C07A
:104AA00081E394E00E94060A60932B0470932C0427
:104AB00080932D0490932E040CC081E394E00E9417
:104AC000060A60930F04709310048093110490936E
:104AD0001204E0904604F0904704E114F10409F454
:104AE00013CFE0914604F091470466A177A1F70146
:104AF00086A197A10E946F37892B09F005CFD701B6
:104B000098962D913C9199978091410490E082175D
:104B100093070CF4F9CE2817390739F440E150E037
:104B200061E374E0C7010E947F37D7019A96ED9048
:104B3000FC909B97D2CF81E0909141049F5F90932E
:104B400041041092420491E01A3209F090E09093EF
:104B50003004882309F49BC68091AB03882309F4B1
:104B6000FCC622C0109242041092410410922F04FD
:104B700082E080934004109230041092430487C670
:104B8000EE3040F481E08E0F80934204F0E0EF5C61
:104B9000FB4F108380913004811179C680912F04DE
:104BA000182710932F0473C60E94A0060091C90312
:104BB0001091CA032091CB033091CC03DC01CB01CF
:104BC000801B910BA20BB30B803D9740A105B10553
:104BD00008F0C3C60E942F179B01AC0160E081E082
:104BE0000E9496160E9400179B01AC0161E082E0D2
:104BF0000E9496161092060460910B0470910C04AA
:104C000080910D0490910E040E94353020E030E038
:104C100048EC52E40E94852F0E94F72F6DA77EA7D3
:104C20008FA798AB6093D3017093D4018093D50183
:104C30009093D6018091D201823009F067C08091B3
:104C4000EA03882309F462C01092EA036091EF033B
:104C50007091F0038091F1039091F2030E9435303E
:104C600026E53EE04DEE5FE30E942A3220E030E090
:104C700048EC52E40E94852F26E636E646E650E4EC
:104C80000E94852F6B017C016093CA017093CB0158
:104C90008093CC019093CD012091AC013091AD0176
:104CA0004091AE015091AF010E949C2E6093C601CD
:104CB0007093C7018093C8019093C901C092AC0161
:104CC000D092AD01E092AE01F092AF010E94A00639
:104CD0000091A8011091A9012091AA013091AB0186
:104CE0006B017C01C01AD10AE20AF30AC092CE011C
:104CF000D092CF01E092D001F092D1016093A8014F
:104D00007093A9018093AA019093AB011092EA03DA
:104D10006091EF037091F0038091F1039091F203A1
:104D20000E94353026E53EE04DEE5FE30E942A32D8
:104D300020E030E048EC52E40E94852F0E94F72FDB
:104D4000AB01BC0183E00E947D161092F8036091D4
:104D5000FD037091FE038091FF03909100040E9477
:104D6000353020E030E048EC52E40E94852F0E946C
:104D7000F72FAB01BC0189E00E947D168091A6014E
:104D80009091A701883B2BE092070CF48AC5809193
:104D90006B0381111CC08091DF019091E001A09113
:104DA000E101B091E2012DA53EA54FA558A9281B10
:104DB000390B4A0B5B0BAAE0B0E00E942D346093E4
:104DC000D7017093D8018093D9019093DA01409074
:104DD0009E0150909F016090A0017090A1014091B0
:104DE000A2015091A3016091A4017091A50149AB6A
:104DF0005AAB6BAB7CAB0E9400179B01AC01609679
:104E00006FAF609761963FAF619762964FAF6297C1
:104E100063965FAF63970E942F1763015201E9A861
:104E2000FAA80BA91CA960962FAD609761963FADBB
:104E3000619762964FAD629763965FAD63970E94EC
:104E400097080E94FE2F6DA37EA38FA398A7509171
:104E500002015DAB5523C1F16091D7017091D8017A
:104E60008091D9019091DA012AE030E040E050E0F1
:104E70000E940834CA01B9010E9435306B017C01DF
:104E80006DA17EA18FA198A50E9433304B015C01DA
:104E9000A7019601C701B6010E942A326B017C016D
:104EA000A5019401C501B4010E942A329B01AC0105
:104EB000C701B6010E949D2E0E94F5320E94FE2F6E
:104EC0006DA37EA38FA398A70E9400174B015C01DE
:104ED0000E942F176B017C01A3019201C501B4014F
:104EE0000E949C2E25E33AEF4EE85CE30E942A32B2
:104EF0004B015C0125E33AEF4EE85CE369A97AA92E
:104F00008BA99CA90E942A322B013C0125E33AEF90
:104F10004EE85CE3C701B6010E942A326B017C01B6
:104F2000C501B4010E94E73269AF7AAF8BAF9CAF85
:104F3000C701B6010E94802F69AB7AAB8BAB9CABEB
:104F4000C301B2010E94E73221966CAF7DAF8EAFF4
:104F50009FAF2197C501B4010E94802F4B015C01D6
:104F600029A93AA94BA95CA921966CAD7DAD8EAD5E
:104F70009FAD21970E942A32A50194010E942A32F6
:104F80004B015C01C301B2010E94802F2B013C0147
:104F9000C701B6010E94E7329B01AC01C301B20117
:104FA0000E942A32A50194010E949C2E6B017C0173
:104FB00029A93AA94BA95CA969AD7AAD8BAD9CAD85
:104FC0000E942A32A70196010E941C2F6B017C01CE
:104FD00020E030E0A9010E947B2F87FF0AC02BED63
:104FE0003FE049EC50E4C701B6010E949D2E6B01E1
:104FF0007C0121EE3EE245E652E4C701B6010E9483
:105000002A320E94F72FAB01BC018AE00E947D1674
:10501000A0909601B0909701C0909801D09099010E
:1050200040909A0150909B0160909C0170909D016E
:105030000E9400179B01AC0160966FAF609761966C
:105040003FAF619762964FAF629763965FAF63978A
:105050000E942F178301720160962FAD60976196B1
:105060003FAD619762964FAD629763965FAD639770
:105070000E9497086B017C016DA96623B1F18091B4
:10508000920190919301A0919401B09195012DA569
:105090003EA54FA558A9281B390B4A0B5B0BCA012B
:1050A000B9010E9435309B01AC010E942A324B01AC
:1050B0005C01A7019601C701B6010E942A329B013B
:1050C000AC01C501B4010E949D2E0E94F5326B0116
:1050D0007C014DA55EA56FA578A9409392015093E0
:1050E0009301609394017093950160918E0170918A
:1050F0008F0180919001909191010E943330A7011E
:1051000096010E949D2E0E94FE2F60938E01709347
:105110008F0180939001909391010E942F176093CB
:105120009A0170939B0180939C0190939D010E9432
:105130000017609396017093970180939801909364
:105140009901109214044091190450911A0460912D
:105150001B0470911C048BE00E947D1610922204A7
:1051600040912704509128046091290470912A04E9
:105170008CE00E947D1660918E0170918F0180916C
:105180009001909191012AE030E040E050E00E94CF
:10519000E633BA01A90188E00E947D164DA15EA107
:1051A0006FA178A587E00E947D164091D7015091AC
:1051B000D8016091D9017091DA0184E00E947D16D6
:1051C0004091D3015091D4016091D5017091D601E5
:1051D00085E00E947D1680919E0490919F04DC01E1
:1051E000ED91FC910480F581E02D0995082F811146
:1051F00005C080910001882309F49CC20E94A0068A
:10520000C0908A01D0908B01E0908C01F0908D01CC
:105210006C157D058E059F0508F48CC20E94A006C2
:10522000DC01CB0188539F4FAF4FBF4F80938A0162
:1052300090938B01A0938C01B0938D0111E081E1DB
:10524000F82E003E51F480918801909189018E30B2
:1052500091050CF08DC101960BC0003771F480915F
:10526000880190918901181619060CF081C10197E7
:10527000909389018093880179C1003D09F059C05C
:10528000809188019091890186309105B1F134F4C3
:105290008230910551F0059779F068C18830910509
:1052A000D1F194F10997F1F161C180910101882355
:1052B00009F45CC181508DC080906C0390906D03A7
:1052C000A0906E03B0906F0320E030E040E85FE311
:1052D000C501B4010E947B2F87FF48C120E030E068
:1052E00048EC52E4C501B4010E942A3220E030E0CB
:1052F00040E85FE30E949D2E95C080917003843644
:1053000008F034C18F5FA3C08091D201882309F4D3
:105310002DC18150A5C08091C101882309F426C107
:105320008150A7C080910301882309F41FC18150D7
:10533000A9C0003B09F01CC1E0918801F0918901EE
:105340003197EE30F10508F011C1E35AFF4F0C948C
:1053500027340E949F0DE090C101EE2089F16091F9
:10536000BF017091C001072E000C880B990B0E94A1
:1053700035304B015C01EE2DF0E0E35EFE4F6081C5
:1053800070E080E090E00E9435302091BB013091C8
:10539000BC014091BD015091BE010E942A329B0187
:1053A000AC01C501B4010E949D2E0E94F72F6093AD
:1053B000BF017093C001615884E090E00E94740DB9
:1053C000E0E0F0E0099580910101823008F0CEC064
:1053D0008F5F80930101CAC0809102018127809371
:1053E0000201C4C080906C0390906D03A0906E0386
:1053F000B0906F0320E030E0A901C501B4010E9424
:10540000993118160CF0B2C020E030E048EC52E4BC
:10541000C501B4010E942A3220E030E040E85FE399
:105420000E949C2E20E030E048EC52E40E94852F40
:1054300060936C0370936D0380936E0390936F037E
:1054400095C080917003882309F490C081508093A7
:1054500070038CC08091D201823008F087C08F5FCA
:105460008093D20183C08091C1018C3008F07EC04E
:105470008F5F8093C1017AC080910301823008F070
:1054800075C08F5F8093030171C08091B201812745
:105490008093B2016BC08091B10181278093B101EB
:1054A00065C08091B00181278093B0015FC0609199
:1054B000010181E090E00E94740D6091020182E0A0
:1054C00090E00E94740D6091C10183E090E00E9421
:1054D000740D6091030185E090E00E94740D60916D
:1054E000B20186E090E00E94740D6091B10187E006
:1054F00090E00E94740D6091B00188E090E00E94FD
:10550000740D20E030E048EC52E460916C0370913F
:105510006D0380916E0390916F030E942A320E9466
:10552000F72F8AE090E00E94740D609170038CE088
:1055300090E00E94740D6091D2018EE090E00E9494
:10554000740DE0E0F0E00995C12CD12C6FEFC6019D
:105550000E94740DFFEFCF1ADF0A22E3C216D104B6
:10556000A9F70E949F0DE0E0F0E00995109300017B
:1055700080910001882309F4DDC01A8A1982809184
:10558000880190918901F89EB001F99E700D112457
:105590006E5B7C4F40E150E0CE0142960E94682E47
:1055A000E0918801F0918901ED30F10508F096C095
:1055B000E559FF4F0C94273440E150E061E373E07C
:1055C0008AC060910101FAE06F9FB00111246D5E05
:1055D0007C4F7FC080910101882309F432CE609115
:1055E000020124E0629FB0011124655F7C4F71C00D
:1055F00060916B0339E0639FB001112462527D4FCB
:1056000068C080916B03882309F41BCE20E030E052
:1056100048EC52E460916C0370916D0380916E03CD
:1056200090916F030E942A320E94F72F7F936F930D
:105630008FE691E00BC080916B03882309F401CEC3
:10564000809170031F928F9386E791E09F938F93D1
:105650003F922F920E948E370F900F900F900F90D5
:105660000F900F903BC06091D2014BE0649FB0015E
:10567000112463547D4F2DC06091C10150E1659F9D
:10568000B001112463517E4F24C08091C101882351
:1056900009F4D7CD6091030189E0689FB00111241E
:1056A0006E527E4F16C06091B2019AE0699FB001C0
:1056B00011240DC06091B101AAE06A9FB0011124CC
:1056C00006C06091B001BAE06B9FB0011124625432
:1056D0007E4F40E150E0C1010E94682EDE015296EB
:1056E000E0ECF4E080E020E29D91992321F081112B
:1056F00002C0908302C0208381E03196CBA0DCA061
:10570000AC15BD0589F7D101E0EDF4E09E012F5EF7
:105710003F4F80E040E29D91992321F0811102C02A
:10572000908302C0408381E03196A217B30799F7B6
:1057300010920001C0905804D0905904E0905A048F
:10574000F0905B0426E9C20ED11CE11CF11C0E9402
:10575000A0066C157D058E059F0508F498C00E9473
:10576000A006609358047093590480935A04909350
:105770005B048091E104882351F180919E04909113
:105780009F04DC01ED91FC910280F381E02D40E06B
:105790006EE7099580919E0490919F04DC01ED9144
:1057A000FC910280F381E02D41E061E9099580914F
:1057B0009E0490919F04DC01ED91FC910280F381A5
:1057C000E02D41E061E309951092E1045EC0109183
:1057D000E004112309F44BC0E12E012E000CFF0858
:1057E000C7010E945037892B31F0C7010E945737FB
:1057F000182F00E001C001E080919E0490919F0469
:10580000DC01ED91FC910280F381E02D40E06EE738
:10581000099580919E0490919F04DC01ED91FC918B
:105820000280F381E02D41E062E0099580919E04C1
:1058300090919F04DC01ED91FC910280F381E02DB9
:10584000011102C062E201C063E241E0099580916A
:105850009E0490919F04DC01ED91FC910280F38104
:10586000E02D41E0612F09951092E0040EC0809177
:10587000720490917304892B41F080915C0491E053
:10588000980F90935C040E94ED130E94A61380E091
:1058900090E0892B11F40C94CF1A0E9400000C9414
:1058A000C71A01969093A7018093A6010E942F1713
:1058B0006B017C016093A2017093A3018093A4010A
:1058C0009093A5010E94001760939E0170939F0121
:1058D0008093A0019093A101C0929A01D0929B0164
:1058E000E0929C01F0929D01609396017093970164
:1058F00080939801909399011092060460910B0493
:1059000070910C0480910D0490910E040E9435302A
:1059100020E030E048EC52E40E94852F0E94F72FEF
:1059200060939201709393018093940190939501F9
:1059300010928E0110928F0110929001109291019D
:1059400020916B0321113DC06093DF017093E00152
:105950008093E1019093E20134C020E030E0A9019E
:1059600060E081E00E94961620E030E0A90161E04D
:1059700082E00E94961680916B03811108C01092FC
:10598000D7011092D8011092D9011092DA01109229
:10599000D3011092D4011092D5011092D60140E0AB
:1059A00050E0BA018AE00E947D1640E050E0BA0162
:1059B00083E00E947D1640E050E0BA0189E00E9439
:1059C0007D161DA21EA21FA218A6BBCB61E374E028
:1059D000C6010E946F371816190614F00C9484241F
:1059E00010924704109246040C94842480E491E0C1
:1059F0009093A00380939F0380916F008B7F80938F
:105A00006F0080916F008F7D80936F008091810186
:105A100080938201809180018111FCCF80916F0081
:105A20008D7F80936F000895CF93DF93EFE3F3E0D2
:105A30001382128288EE93E0A0E0B0E08483958325
:105A4000A683B7832EE231E031832083E8E5F4E0DA
:105A500010821182128213821482118E138E128E82
:105A6000158E148E178E168E10A211A210929F04FE
:105A700010929E041092E0041092E10426E7209315
:105A8000E20422E32093E30415824FEF5FEFBA01B3
:105A900040939A0450939B0460939C0470939D04DC
:105AA00020E2EAE7F4E0EF0119922A95E9F7EBEA40
:105AB000F3E0108211821382128214821582168200
:105AC000178210861286118613861486158616860E
:105AD0001786118A108A128A138A148A158A168ADE
