:100000000C94A1030C94C9030C94C9030C94C90368
:100010000C94C9030C94C9030C94C9030C94C90330
:100020000C94C9030C94C9030C942B070C94D507AA
:100030000C94E4060C94C9030C94C9030C94C903F2
:100040000C949A060C94C9030C947D0B0C94B90B78
:100050000C94140C0C94C9030C94C9030C94C9039C
:100060000C944F0A0C94C903F8240A250D25142575
:100070001B25492550255D256A257625762576257B
:100080007625762576257625762576257625762598
:100090007625762576257625762576257625762588
:1000A0007625762576257625F82405250A250D253D
:1000B00014251B2522252F253C2546295F29682943
:1000C0004C2A6E29A129BB29C429CD29D329D92994
:1000D000DF29262A722A132B772A802A8E2A972A2A
:1000E000BF2AE02AE92AF72AFE2A052B084AD73B2D
:1000F0003BCE016E84BCBFFDC12F3D6C74319ABDF7
:1001000056833DDA3D00C77F11BED9E4BB4C3E911A
:100110006BAAAABE000000803F05A84CCDB2D44E09
:10012000B93836A9020C50B9918688083CA6AAAA0B
:100130002ABE000000803F08000000BE9224491241
:100140003EABAAAA2ABECDCCCC4C3E00000080BE5D
:10015000ABAAAAAA3E00000000BF000000803F003A
:1001600000000000084178D3BB4387D1133D190E2E
:100170003CC3BD4282AD2B3E68EC8276BED98FE196
:10018000A93E4C80EFFFBE01C4FF7F3F000000008E
:100190000007634236B79BD8A71A39685618AEBA1B
:1001A000AB558C1D3CB7CC5763BD6DEDFD753EF670
:1001B000177231BF000000803F0020446973616204
:1001C0006C65640020456E61626C656400002053BC
:1001D00074617274757000204175746F00000000C6
:1001E000204D616E75616C00002044697361626C22
:1001F000656400000000000000204174746F5069C5
:100200006C6F74203435000000204174746F5069A5
:100210006C6F74203930000000204174746F506995
:100220006C6F742031383000002041504D322E3533
:10023000203930412F353056002041435337313279
:100240002D3035000000000000204143533731328B
:100250002D3230000000000000204143533731327E
:100260002D33300000000000002041435337353863
:100270002D3530420000000000204143533735380F
:100280002D313030420000000020414353373538D3
:100290002D313530420000000020414353373538BE
:1002A0002D323030420000000020414353373538B2
:1002B0002D353055000000000020414353373538BC
:1002C0002D31303055000000002041435337353880
:1002D0002D3135305500000000204143533735386B
:1002E0002D323030550000000020756E6B6E6F7738
:1002F0006E0020424D50323830000020424D4532D1
:1003000038300000204D53353631310000204C503C
:1003100053000000000020334400203244002044F9
:10032000697361626C6564002042617369630000F7
:10033000000020457874656E6465640056657273CC
:10034000696F6E2056322E32000000000056617236
:10035000696F4750532053656E736F72000052658A
:10036000736574206F666673657400000000004753
:100370005053206D6F64653A0000000000000000DB
:100380004750532064697374616E63653A000000DE
:100390000050726573737572652073656E736F724A
:1003A0003A00566172696F20736D6F6F7468696E81
:1003B000673A00566172696F20646561647A6F6E96
:1003C000653A00004D61696E2064726976653A0095
:1003D00000000000004361706163697479207265F8
:1003E0007365743A000052783120766F6C746167DF
:1003F000653A000000000052783220766F6C74611C
:1004000067653A00000000004578742E2054656D41
:10041000703A000000000000005361766520616EB4
:10042000642072657374617274004C6F616420643F
:10043000656661756C7473000000000000000024A4
:100440000027002A00014C6174697475646500001E
:10045000000000000000000000002000000000007C
:10046000000900024C6F6E676974756465000000D6
:100470000000000000000000200000000000000953
:100480000003537065656400000000000000000078
:100490000000000000006B6D2F68000000010004E8
:1004A00052656C2E20416C746974000000000000DD
:1004B000000000006D000000000000040105416C18
:1004C000746974756465000000000000000000009D
:1004D00000006D0000000000000400065661726913
:1004E0006F0000000000000000000000000000009D
:1004F0006D2F730000000004020744697374616E7D
:1005000063650000000000000000000000006D00B6
:100510000000000000040008547269700000000030
:100520000000000000000000000000006B6D0000F3
:1005300000000004020948656164696E67000000FC
:1005400000000000000000000000B00000000000FB
:100550000001000A436F757273650000000000001F
:100560000000000000000000B000000000000001DA
:10057000000B536174656C6C697465730000000056
:100580000000000000002000000000000000000C3F
:1005900048444F5000000000000000000000000030
:1005A000000000002000000000000001020D507259
:1005B00065737375726500000000000000000000A4
:1005C00000006850610000000004020E54656D7068
:1005D0006572617475726500000000000000000023
:1005E000B043000000000001010F48756D696469A7
:1005F0007479000000000000000000000000257277
:100600004800000000010110566F6C7461676500BE
:100610000000000000000000000000005600000084
:1006200000000001011143757272656E74000000D4
:100630000000000000000000000041000000000079
:100640000001011243617061636974790000000068
:1006500000000000000000006D4168000000000480
:100660000013506F7765720000000000000000006A
:10067000000000000000570000000000000400140B
:1006800052783120566F6C7461676500000000007D
:100690000000000056000000000000010215527822
:1006A0003220566F6C746167650000000000000026
:1006B0000000560000000000000102164578742E6C
:1006C0002054656D70000000000000000000000074
:1006D000B043000000000001010000000000000025
:1006E000000000000000000000000000000000000A
:1006F0000000000000000000000000250028002B82
:1007000000040404040404040402020202020203BA
:1007100003030303030102040810204080010204C4
:100720000810200102040810200000000800020147
:100730000000030407000000000000000000442D3A
:10074000262D11241FBECFEFD8E0DEBFCDBF11E0B4
:10075000A0E0B1E0EEEEF4E702C005900D92AA37FA
:10076000B107D9F724E0AAE7B1E001C01D92AD3F7F
:10077000B207E1F713E0C0EAD3E004C02197FE011D
:100780000E945F34CF39D107C9F70E94C5170C9476
:100790006A3A0C940000CF92DF92EF92FF920F938F
:1007A0001F93CF93DF936C017A018B01C0E0D0E0FF
:1007B000CE15DF0589F0D8016D918D01D601ED913F
:1007C000FC910190F081E02DC6010995892B11F46F
:1007D0007E0102C02196ECCFC701DF91CF911F911E
:1007E0000F91FF90EF90DF90CF9008953FB7F8946E
:1007F0008091B1029091B202A091B302B091B40283
:1008000026B5A89B05C02F3F19F00196A11DB11D6B
:100810003FBFBA2FA92F982F8827820F911DA11DA6
:10082000B11DBC01CD0142E0660F771F881F991FE3
:100830004A95D1F7089550917E0140917D01852F11
:1008400090E0242F30E0541710F4805B9F4F821B00
:10085000930B089580917E01E0917D018E1751F0F8
:10086000EF5FE03508F0E0E0F0E0E45AFD4F808112
:1008700090E008958FEF9FEF089580917E01909111
:100880007D01891769F09F5F903508F090E0E92FAE
:10089000F0E0E45AFD4F808190937D0190E008954F
:1008A0008FEF9FEF089580917C018111FCCF089517
:1008B00080917B018F5F843408F080E090917A0111
:1008C0009817E1F32FB7F89490917C01992341F0A8
:1008D000E82FF0E0EE5EFD4F608380937B011DC04A
:1008E00081E080937C01609357021092560282E06F
:1008F00086BB80916F00826080936F008091800042
:100900008F7380688093800080918400909185002F
:10091000409690938900809388002FBF81E090E0FB
:10092000089585ED8093BC008091BC0084FDFCCFD0
:100930001092FD0208954091ED01262F30E0240F22
:10094000311D21323105DCF42091FD022430C9F43F
:10095000FC0180E090E0861758F43091ED01219180
:10096000DC01A553BE4FA30FB11D2C930196F3CF0D
:100970008091ED01680F6093ED0180E0089581E0C2
:10098000089582E008950895E091B6028091B5023D
:10099000E81730F4F0E0E954FD4F808190E00895CD
:1009A0008FEF9FEF08959091B6028091B50298174E
:1009B00050F4E92FF0E0E954FD4F208130E09F5FD3
:1009C0009093B60202C02FEF3FEFC90108958091C6
:1009D000B50290E02091B602821B91090895CF9252
:1009E000DF92EF92FF920F931F93CF93DF937C01DF
:1009F000262F972F8A018091FE02882391F0C62F1F
:100A0000D72F6E01C40ED51ECC15DD0571F069918E
:100A1000D701ED91FC910190F081E02DC70109957E
:100A2000F3CF642F822F0E949B04C801DF91CF91E6
:100A30001F910F91FF90EF90DF90CF900895CF938B
:100A4000DF931F92CDB7DEB769832091FE02222388
:100A5000D1F020912003203240F021E030E0FC0171
:100A60003383228380E090E015C08091FF02E82F5D
:100A7000F0E0E050FD4F998190838F5F8093FF02FB
:100A80008093200305C061E0CE0101960E949B0483
:100A900081E090E00F90DF91CF9108951F93CF9365
:100AA000DF93F894EC01CA57DF4F2881203400F51A
:100AB000DC01AE57BF4F1C9111965C91119770E00D
:100AC000411103C020E030E002C020E031E0622BA1
:100AD000732BE12FF52F71836083329628812F5F6E
:100AE0002883EA17FB0710F0FC013296ED93FC9384
:100AF000FC01E057FF4F8081811108C081E08083B5
:100B00008091C1008F7688628093C1007894DF91D4
:100B1000CF911F910895FC01E157FF4F20812223BF
:100B200001F1F894A091C901B091CA01A357BF4F38
:100B30000D90BC91A02D4C912081215020833297A3
:100B4000208131812F5F3F4FBC0165577F4F2617B2
:100B5000370718F09C0129573F4F31832083789441
:100B600001C040E0842F089508950895089580E01D
:100B700090E008950E947F37CF93DF9390E0FC01CF
:100B8000EB5EF84F2491FC01EF5FF84F84918823CE
:100B900061F190E0880F991FFC01E55CFB4FC59166
:100BA000D491FC01E950F94FA591B491611109C0AC
:100BB0009FB7F8948881209582238883EC912E2317
:100BC0000BC0623061F49FB7F8943881822F809512
:100BD00083238883EC912E2B2C939FBF06C08FB765
:100BE000F894E8812E2B28838FBFDF91CF91089551
:100BF0001092C0008CE08093C10086E38093C20015
:100C00001092C50086E68093C40062E080E00E94F6
:100C1000BC0562E081E00C94BC05CF93DF93EC014E
:100C20000E94F805FE01329680E8DF011D928A9548
:100C3000E9F7DE01AE57BF4F1196FC93EE93129683
:100C40001196FC93EE93EC57FF4F10823196108271
:100C500011821282138217961196FC93EE931296CC
:100C6000ED93FC933896108231961082D093CA018E
:100C7000C093C901DF91CF9108958E3008F08E5056
:100C80008770806480937C0080917A008064809378
:100C90007A0080917A0086FDFCCF809178002091C7
:100CA000790090E0922B08958F929F92AF92BF921D
:100CB000CF92DF92EF92FF926B017C010E94F603CC
:100CC0004B015C01C114D104E104F104F1F00E9474
:100CD000F603DC01CB0188199909AA09BB09883EF2
:100CE0009340A105B10570F321E0C21AD108E108D3
:100CF000F10888EE880E83E0981EA11CB11CC11477
:100D0000D104E104F10419F7DDCFFF90EF90DF90FB
:100D1000CF90BF90AF909F908F9008952FB7F89489
:100D20006091AD027091AE028091AF029091B002DD
:100D30002FBF08951F920F920FB60F9211242F9379
:100D40003F938F939F93AF93BF938091AD02909108
:100D5000AE02A091AF02B091B0023091AC0223E09C
:100D6000230F2D3720F40196A11DB11D05C026E8E3
:100D7000230F0296A11DB11D2093AC028093AD02FA
:100D80009093AE02A093AF02B093B0028091B102F3
:100D90009091B202A091B302B091B4020196A11D4C
:100DA000B11D8093B1029093B202A093B302B093AD
:100DB000B402BF91AF919F918F913F912F910F906E
:100DC0000FBE0F901F9018951F920F920FB60F92A3
:100DD00011242F938F939F93EF93FF9380916F0034
:100DE0008B7F80936F00809181008F7B8093810047
:100DF00080917F0120915B02205890915A028930A6
:100E000020F49695922B8F5FFACF90935A0280919F
:100E10007E018F5F803508F080E020917D01821790
:100E200039F0E82FF0E0E45AFD4F908380937E0183
:100E300010927F01809181008F7B809381001092BE
:100E40005B02FF91EF919F918F912F910F900FBEB9
:100E50000F901F9018951F920F920FB60F921124AA
:100E60002F933F934F935F936F937F938F939F93B2
:100E7000AF93BF93EF93FF9380918600909187008B
:100E800040915B0220918100442331F02F7B20931D
:100E9000810010925B0206C020642093810020E84C
:100EA00020935B0230917F01311125C041116CC04C
:100EB0002091800130918101280F391F30938B00E0
:100EC00020938A0024E026BB20916F0024602093A9
:100ED0006F002091820130918301820F931F36951C
:100EE0002795820F931F909359028093580281E0B7
:100EF00080937F0149C040915802509159026091FE
:100F0000820170918301DB01A095B09520915A0276
:100F1000E0915B02841B950BA817B90768F1269531
:100F20002E2B460F571F3F5F861B970B3930A0F3C0
:100F300020935A0280916F008B7F80936F00809185
:100F40007E018F5F803508F080E090917D018917E8
:100F500049F0E82FF0E090915A02E45AFD4F908357
:100F600080937E01809181008F7B8093810010921D
:100F70005B0210927F0108C020935A0250935902DD
:100F80004093580230937F01FF91EF91BF91AF9151
:100F90009F918F917F916F915F914F913F912F9191
:100FA0000F900FBE0F901F9018951F920F920FB6C3
:100FB0000F9211242F933F934F935F936F937F93DF
:100FC0008F939F93EF93FF9380917C0160915702E1
:100FD00020918800309189004091820150918301D5
:100FE000909156028A30F8F4240F351F893019F099
:100FF000762F717001C071E066958F5F791791F35C
:1010000090918000772311F0906C02C09F739068DC
:10101000909380003093890020938800709356024B
:10102000609357024AC090917B01E0917A019E1330
:1010300019C08A3051F48BE080937C01240F351F56
:1010400030938900209388003AC010927C018091EF
:1010500080008F738093800080916F008D7F8093DC
:101060006F002DC0EF5FE43408F0E0E0E0937A0118
:10107000F0E0EE5EFD4F9081909357021092560281
:10108000909180009F739068909380008A3059F40B
:101090008091820190918301280F391F309389003C
:1010A0002093880009C0809184009091850040962B
:1010B000909389008093880081E080937C01FF9168
:1010C000EF919F918F917F916F915F914F913F91A0
:1010D0002F910F900FBE0F901F901895CF93DF9315
:1010E000EC018A859B85AC85BD858E839F83A8870F
:1010F000B9870E948E066A837B838C839D8381E0FF
:1011000089838883DF91CF9108954F925F926F9288
:101110007F928F929F92AF92BF92CF92DF92EF9287
:10112000FF920F931F93CF93DF93CDB7DEB76097F6
:101130000FB6F894DEBF0FBECDBF69837A838B8371
:101140009C83CA01B90127013801A60195010E94BB
:10115000D42E25E33AEF4EE85CE30E9462326B0145
:101160007C010E941F336D877E878F87988BC70114
:10117000B6010E94B82F6D837E838F83988725E305
:101180003AEF4EE85CE369817A818B819C810E9411
:1011900062326B017C0125E33AEF4EE85CE3C30168
:1011A000B2010E9462322B013C01C701B6010E94CC
:1011B0001F334B015C01C701B6010E94B82F698340
:1011C0007A838B839C83C301B2010E941F3369879A
:1011D0007A878B879C87C301B2010E94B82F6B016D
:1011E0007C0129853A854B855C8569817A818B8173
:1011F0009C810E9462322B013C01A7019601C5012E
:10120000B4010E9462322D813E814F8158850E9437
:1012100062329B01AC01C301B2010E94D42E9B013A
:10122000AC010E9462322B013C012D853E854F8529
:101230005889C701B6010E9462329B01AC010E942D
:1012400062329B01AC01C301B2010E94D52E0E9403
:101250002D332B013C0129853A854B855C85C501E1
:10126000B4010E9462324B015C01A70196016981C1
:101270007A818B819C810E9462322D813E814F81D7
:1012800058850E9462329B01AC01C501B4010E94E5
:10129000D52E9B01AC01C301B2010E94542F26E759
:1012A0003BE742EC5AE40E94623260960FB6F89433
:1012B000DEBF0FBECDBFDF91CF911F910F91FF9089
:1012C000EF90DF90CF90BF90AF909F908F907F90E6
:1012D0006F905F904F9008952F923F924F925F9240
:1012E0006F927F928F929F92AF92BF92CF92DF9236
:1012F000EF92FF920F931F93CF93DF93D82FC92FB5
:101300008B010E94792E24E630E040E050E00E94FC
:101310001E3449015A019B01AC0160E876E988E975
:1013200090E00E940E346B017C01F8019182808272
:10133000ED2FFC2F2191822F022E000C990BC097CC
:101340000A97C0F32E3239F51F0180E8882E86E90E
:10135000982E88E9A82EB12C9AE0492E512C612CA8
:10136000712CF101C1911F010C2E000CDD0BE097D7
:10137000CA30D10580F4C501B401A30192010E94D5
:101380001E3449015A01DE010E947034C60ED71E78
:10139000E81EF91EE6CFA5E0B0E0A70196010E9485
:1013A00065346F5F7F4F8F4F9F4F23E030E040E009
:1013B00050E00E941E34F801228333834483558316
:1013C0001682DF91CF911F910F91FF90EF90DF90E8
:1013D000CF90BF90AF909F908F907F906F905F90D5
:1013E0004F903F902F900895FF920F931F93CF93AC
:1013F000DF93EC01FF24F39488818D3211F0F12CFE
:1014000001C02196CE010E94792E9B01AC01A4E679
:10141000B0E00E946534FE014991242F042E000C97
:10142000330B205331092A303105A8F34E3241F5F0
:101430002181022E000C330B205331092A30310553
:10144000F8F44AE0429F8001439F100D1124012EC1
:10145000000C220B330B600F711F821F931F028140
:10146000002E000C110B005311090A30110540F435
:10147000012E000C220B330B600F711F821F931F74
:10148000FF2039F090958095709561957F4F8F4F33
:101490009F4FDF91CF911F910F91FF9008951F9261
:1014A0000F920FB60F9211242F933F934F935F9398
:1014B0006F937F938F939F93AF93BF93EF93FF931C
:1014C0008091B900887F803609F49CC068F5883225
:1014D00009F45BC090F4803109F454C038F48823D7
:1014E00009F4F6C0883009F44DC0F6C0883109F41B
:1014F0004CC0803209F45DC0EFC0803409F468C08C
:1015000048F4803309F455C0883309F0E5C080936E
:10151000FB02D8C0803509F44FC0883509F45DC09E
:10152000883409F0D9C0D6C0883909F4C7C0A8F4F6
:10153000883709F467C038F4883609F463C0803707
:1015400009F460C0C9C0883809F4B8C0803909F40A
:101550005FC0803809F0C0C05BC0803B09F486C022
:1015600038F4803A09F466C0883A09F47FC0B4C000
:10157000803C09F4A7C0883C09F4A4C0883B09F466
:101580008AC0AAC08091D80210C09091FA028091BE
:10159000F902981770F5E091FA0281E08E0F8093BE
:1015A000FA02F0E0E752FD4F80818093BB0085ECAA
:1015B00086C08093FB028EC0E091FA0281E08E0F1C
:1015C0008093FA028091BB00F0E0E752FD4F8083E8
:1015D0009091FA028091F9026EC0E091FA0281E0E6
:1015E0008E0F8093FA028091BB00F0E0E752FD4F2E
:1015F00080838091FC0281116DC081E08093D702CD
:1016000084EA61C083E08093FD0210921102CFCF83
:1016100080911102803208F051C0E091110281E006
:101620008E0F809311028091BB00F0E0EF50FE4FCF
:101630008083BDCF85EC8093BC001092FD02809129
:101640001102803230F4E0911102F0E0EF50FE4FD1
:1016500010826091110270E0E091EF01F091F001D1
:1016600081EF91E009951092110236C084E08093D9
:10167000FD021092EE011092ED01E091EB01F0916C
:10168000EC0109958091ED01811105C081E0809305
:10169000ED011092CB01E091EE0181E08E0F80937D
:1016A000EE01F0E0E553FE4F80818093BB00909106
:1016B000EE018091ED01981708F479CF85E88093C9
:1016C000BC000AC085EC8093BC001092FD0204C0EF
:1016D0001092FB020E949104FF91EF91BF91AF9194
:1016E0009F918F917F916F915F914F913F912F913A
:1016F0000F900FBE0F901F9018951F920F920FB66C
:101700000F9211242F933F938F939F93AF93BF9387
:10171000EF93FF938091C600803FF1F0982F9F7068
:10172000D9F42091C9013091CA01F901E557FF4F61
:10173000A081B1818C93D901A157BF4F8C918F5F4C
:101740008C938081918101968E179F0718F0C901B3
:1017500089579F4F91838083FF91EF91BF91AF9104
:101760009F918F913F912F910F900FBE0F901F90DF
:1017700018951F920F920FB60F9211242F933F933B
:101780004F935F938F939F93EF93FF938091C90142
:101790009091CA01FC01EA57FF4F2081222351F1A9
:1017A00032970190F081E02D208131818091C1003C
:1017B00030FF02C0816001C08E7F8093C100209302
:1017C000C6002091C9013091CA01F901EA57FF4FC3
:1017D0008081815080833297808191810296A90116
:1017E0004E575F4F8417950710F0C90102969183F9
:1017F00080830DC08091C1008F7D80648093C10083
:10180000E091C901F091CA01E057FF4F1082FF91AA
:10181000EF919F918F915F914F913F912F910F90F9
:101820000FBE0F901F9018951F920F920FB60F9238
:1018300011242F933F938F939F93EF93FF93E1ECAA
:10184000F0E08081877B806980838091C9019091DD
:10185000CA019C0129573F4FFC01E557FF4F3183D7
:10186000208332963183208332961082FF91EF914C
:101870009F918F913F912F910F900FBE0F901F90CE
:101880001895CF92DF92EF92FF920F931F93CF9311
:10189000DF93CDB7DEB76E970FB6F894DEBF0FBEFD
:1018A000CDBF8C017B016A012EE1269FC001279FDD
:1018B000900D1124DA015A966D917C915B97680F17
:1018C000791F4EE150E0CE0101960E94A02E8D8D31
:1018D000F801868F89818283EE0CFF1CEE0CFF1CC1
:1018E000D6015C96ED91FC915D97EE0DFF1D808118
:1018F0009181A281B381F80183839483A583B68308
:10190000A801485F5F4FFE013296DA0190E08191B5
:10191000811106C0392FD8015C969C93232F0FC0EC
:10192000933119F09F5F8D93F2CF33E1F4CF833180
:10193000910594F4FA01E80FF91F70832F5F622F6D
:10194000631BE1E0F0E0EC0FFD1FE60FF11D758970
:10195000822F90E07111EBCFF801658FFA01E80F4B
:10196000F91F10828E8D813031F0823041F480E495
:10197000F801878F04C080E2D8015F968C93D8016C
:101980005E968C91843091F030F4882361F0813040
:10199000A1F483E00FC0883041F0893051F08530E8
:1019A00061F484E007C082E001C085E0F80180A313
:1019B00004C085E0D80190968C936E960FB6F8948B
:1019C000DEBF0FBECDBFDF91CF911F910F91FF9072
:1019D000EF90DF90CF900895CF92DF92EF92FF9239
:1019E0000F931F93CF93DF93EB017B0124E0E20E73
:1019F000F11C8B016C01C61AD70AC601800F911F1A
:101A00000E94BE2EF80181938F01EE15FF05A9F704
:101A1000CE01DF91CF911F910F91FF90EF90DF905A
:101A2000CF900895AF92BF92CF92DF92EF92FF9244
:101A30000F931F93CF93DF931F92CDB7DEB75C0157
:101A40007B018B016C0184E0C80ED11CF80161910F
:101A50008F01C50169830E94BE2E6981681719F044
:101A6000C5010E94C62EFFEFAF1ABF0AAC14BD0419
:101A700069F7C7010F90DF91CF911F910F91FF90F0
:101A8000EF90DF90CF90BF90AF9008950C94C62E4A
:101A90000C94BE2E80918401853010F481500895FD
:101AA0008550833010F085E0089584E00895CF9349
:101AB000C82F862F0E943D06BC01990F880B990BF9
:101AC0000E946D3020E030EC4FE754E40E94BD2FBF
:101AD00020E030E44CE955E40E94623224E0C29FE9
:101AE000F0011124E35DFC4F20813181428153815B
:101AF0000E9462320E942F30CF91089520912003DE
:101B00009091D604213208F04AC08091FD028111E3
:101B1000FCCF32E03093FD0231E03093FC023FEF26
:101B20003093FB021092FA022093F902A0E0B3E096
:101B300049ED52E0FA013E2F341B321718F43D9163
:101B40003193F9CF1092D8022091D802990F922B9D
:101B50009093D8029091D702913061F41092D702FD
:101B60009091D8029093BB009091BC0093FDF8CF68
:101B700095EC01C095EE9093BC009091FD029230DF
:101B8000E1F39091FB029F3F79F08091FB0280325C
:101B900041F08091FB02803331F084E005C081E0A8
:101BA00003C082E001C083E01092FF021092200384
:101BB0001092FE02089591E09093FE028093D60465
:101BC0001092FF02109220030895CF93DF93D82F35
:101BD000C62F809163030E94DB0D6D2F81E293E09D
:101BE0000E941F056C2F81E293E00E941F05DF9188
:101BF000CF910C947E0D9091FD029111FCCF91E05C
:101C00009093FD029093FC022FEF2093FB02109221
:101C1000FA02260F2093F9029093D8029091D802ED
:101C2000880F892B8093D8028091D702813061F48C
:101C30001092D7028091D8028093BB008091BC00A3
:101C400083FDF8CF85EC01C085EE8093BC008091C8
:101C5000FD028130E1F38091FA02861710F4609161
:101C6000FA02A9EDB2E027EB32E0F9018E2F821BD8
:101C7000861718F48D918193F9CF862F08956132DC
:101C800008F060E20E94FB0D1092B6028093B5024C
:101C900008950F931F93CF93DF931F92CDB7DEB7B5
:101CA000682F03E613E0F801808169830E94DB0D51
:101CB000698181E293E00E941F050E947E0D61E030
:101CC000F80180810E943F0E81E293E00E94D304DC
:101CD0000F90DF91CF911F910F910895CF92DF92D6
:101CE000EF92FF920F931F93CF93DF931F92CDB785
:101CF000DEB7682F03E613E0F801808169830E9454
:101D0000DB0D698181E293E00E941F050E947E0D38
:101D100063E0F80180810E943F0E81E293E00E941F
:101D2000D3046C01990FEE08FF08FE2CED2CDC2C7F
:101D3000CC2481E293E00E94D304AC01990F660B9E
:101D4000770BC42AD52AE62AF72AFE2CED2CDC2CA8
:101D5000CC2481E293E00E94D304092E000CAA0B4C
:101D6000BB0BBC01CD016C297D298E299F290F90C9
:101D7000DF91CF911F910F91FF90EF90DF90CF9067
:101D800008950F931F93CF93DF931F92CDB7DEB7C4
:101D9000682F03E613E0F801808169830E94DB0D60
:101DA000698181E293E00E941F050E947E0D62E03E
:101DB000F80180810E943F0E81E293E00E94D304EB
:101DC000182F81E293E00E94D30420E030E0312F0D
:101DD000822B932B0F90DF91CF911F910F9108953C
:101DE0000E94C10E9827892798270895CF9366EB04
:101DF00080EE0E94E50D64E670E080E090E00E94D5
:101E0000540688E80E94F00E90936E0380936D0351
:101E10008AE80E94F00E9093700380936F038CE821
:101E20000E94F00E90937203809371038EE80E94DB
:101E3000F00E909374038093730380E90E94F00E78
:101E4000909376038093750382E90E94F00E90933D
:101E500078038093770384E90E94F00E90937A03CD
:101E60008093790386E90E94F00E90937C0380931F
:101E70007B0388E90E94F00E90937E0380937D039C
:101E80008AE90E94F00E9093800380937F038CE98F
:101E90000E94F00E90938203809381038EE90E944A
:101EA000F00E9093840380938303809164038230C7
:101EB00009F03FC081EA0E94490E8093850381EEBC
:101EC0000E94F00E909387038093860383EE0E9416
:101ED000490E8093880384EE0E94490EC82F85EE38
:101EE0000E94490E282F2F7030E1C39FC00111249A
:101EF000822B90938A038093890386EE0E94490E79
:101F0000C82F85EE0E94490E90E024E095958795B4
:101F10002A95E1F740E1C49F90011124822B932B75
:101F200090938C0380938B0387EE0E94490E8093DD
:101F30008D0389ED80938F03809190038F71806270
:101F40008093900380918E03807C806280938E03C7
:101F500080916403823021F461E082EF0E94E50DFC
:101F600090918E03692F677080E2689F9001112421
:101F7000892F869586958695877048E0849FB00165
:101F80001124622B732B97FB992790F9692B85EF0E
:101F90000E94E50D90918F03692F677080E2689F22
:101FA00090011124892F869586958695877048E043
:101FB000849FB0011124622B732B92959695969570
:101FC0009370692B84EFCF910C94E50D90E0FC01A8
:101FD000E75DF84F2491FC01EB5EF84F3491FC0172
:101FE000EF5FF84FE491EE23B1F1222339F1233072
:101FF00091F038F42130A9F0223001F584B58F7DBD
:1020000012C0273091F02830A1F02430B9F480912B
:1020100080008F7D03C0809180008F778093800047
:102020000DC084B58F7784BD09C08091B0008F77D3
:1020300003C08091B0008F7D8093B000F0E0EE0F80
:10204000FF1FE950F94FA591B4918FB7F894EC9127
:102050003E2B3C938FBF08951092B6021092B502AA
:102060001092FF02109220031092FD0281E08093F3
:10207000FC021092D70282E10E94E60F83E10E94E7
:10208000E60FE9EBF0E080818E7F808380818D7F99
:10209000808388E48093B80085E48093BC00089531
:1020A000809363030E942C1080ED0E94490E8835B6
:1020B00021F0803641F482E001C081E08093640326
:1020C0000E94F60E02C0109264038091640390E0B7
:1020D00008958F929F92AF92BF92CF92DF92EF922C
:1020E000FF928AEF0E946E0EE3E6F3E0428553858D
:1020F0004A01A12CB12CC72ED82EE92EFF24E7FCD3
:10210000FA94C818D908EA08FB08DC01CB0137E0CB
:10211000B595A795979587953A95D1F7B501A401FF
:10212000440F551F661F771F4C015D01841A950AE5
:10213000A60AB70AA5019401A485B5850E9470344A
:102140004B015C013BE0B594A794979487943A9532
:10215000D1F7A7019601C701B6010E940E349B0179
:10216000AC016CE055954795379527956A95D1F761
:10217000A685B7850E947034DC01CB017EE0B59561
:10218000A795979587957A95D1F7A5019401280F82
:10219000391F4A1F5B1F2683378340875187A5E07D
:1021A000B0E00E946534DC01CB0180589F4FAF4FF7
:1021B000BF4F692F7A2F8B2F992787FD9A950E9401
:1021C0006D3020E030E048EC52E40E94BD2FFF90DB
:1021D000EF90DF90CF90BF90AF909F908F90089539
:1021E0002F923F924F925F926F927F928F929F9227
:1021F000AF92BF92CF92DF92EF92FF920F931F9315
:10220000CF93DF93CDB7DEB7A2970FB6F894DEBFBA
:102210000FBECDBF0E94691087EF0E946E0E6A8FBD
:102220007B8F8C8F9D8F8091690390916A03A09121
:102230006B03B0916C036C017D01FF0CCC08DC2CAE
:1022400076019C01AD016C2D7C2D8C2D9C2D345F75
:102250004140510961097109810991092AA339A3F2
:1022600049835A836B837C838D839E8359016A01E2
:102270007B018C010E9478342A8B3B8B4C8B5D8BCD
:102280006E8B7F8B888F998F80917D038E8FE091ED
:102290007E03EF83F0917B03FF8F80917C0388871F
:1022A000E0917903E8A3F0917A03F987B09076037F
:1022B000A09075031B2D110F110BC12ED12EE12EF5
:1022C000F12E012F2AA139A149815A816B817C818C
:1022D0008D819E810E9478340CE00E94E2351901C4
:1022E0002A013B014C01B0907803A09077031B2D8D
:1022F000110F110BC12ED12EE12EF12E012F2A89A3
:102300003B894C895D896E897F89888D998D0E9472
:10231000783408E00E94FB355101620173018401A9
:102320000E94193670588F4F9F4F20907303309042
:1023300074035101C12CD12CE12CF12C00E010E0F0
:102340000E94783401E20E94FB352A873B874C8744
:102350005D876E877F87888B998BA0E00E943736D8
:1023600009F45EC1AE8C1F81110F110BBF80C12E0D
:10237000D12EE12EF12E012F2A893B894C895D89CE
:102380006E897F89888D998D0E94783419012A0180
:102390003B014C01AF8C1885110F110BB884C12E75
:1023A000D12EE12EF12E012F2AA139A149815A8186
:1023B0006B817C818D819E810E94783401E10E9435
:1023C000E23559016A017B018C019101A201B3013F
:1023D000C4010E94193619012A013B014C014A8DA2
:1023E0005B8D6C8D7D8D84E07595679557954795D0
:1023F0008A95D1F780E090E0A0E1B0E0841B950BD6
:10240000A60BB70B6C017D01FF0CCC08DC2C760110
:102410009C01AD016C2D7C2D8C2D9C2D0FE10E941B
:10242000E235F901B42FA52F6C837D8389839A83CC
:1024300028A19985990F990B3985492F592F692F13
:10244000792F892F03E20E94E23559016A017B014D
:102450008C019101A201B301C4010E9419365901F6
:102460006A017B018C019F014B2F5A2F6C817D816A
:1024700089819A810E942E364901542E652EB62FED
:10248000A72FF82FE92F03E00E94E2355401C52C55
:10249000D62CEB2EFA2E0F2F1E2F0E942E3659010E
:1024A0006A017B01782E192F03E00E94E235072D87
:1024B0000E942E3603E00E94E2355401C52CD62C32
:1024C000EB2EFA2E0F2F1E2F0E942E3602E00E94B6
:1024D000E2350F2F0E942E3601E00E94E2350F2FC9
:1024E0000E942E36AA84BB84CC84DD84EE84FF84D3
:1024F000088919890E940D3528873F8349835A83AB
:102500006B837C838D839E830DE00E94FB35922E2E
:10251000832E742E652E562E472E382E292E30915E
:10252000840320918303932F990F990BA92CB82C26
:10253000C72CD62CE52CF42C032D122D492F592F06
:10254000692F792F892F0E9478340E94783409E10D
:102550000E94FB3559016A017B018C0128853F816E
:1025600049815A816B817C818D819E810E941936BF
:1025700019012A013B014C01309182032091810312
:10258000932F990F990BA884BF80C980DA80EB80C4
:10259000FC800D811E81492F592F692F792F892F9A
:1025A0000E94783403E10E94FB3559016A017B01E6
:1025B0008C019101A201B301C4010E94193608E007
:1025C0000E94FB35522E632E742E852E962EF72FE9
:1025D000E82FB92F3091800320917F03932F990F1B
:1025E000990B492F592F692F792F892F04E00E94C9
:1025F000E23559016A017B018C01252D362D472DCD
:10260000582D692D7F2F8E2F9B2F0E9419360E94E7
:10261000653020E030E040E85BE30E94623203C0B6
:1026200060E070E0CB01A2960FB6F894DEBF0FBE5B
:10263000CDBFDF91CF911F910F91FF90EF90DF9071
:10264000CF90BF90AF909F908F907F906F905F9052
:102650004F903F902F900895FF920F931F93CF9329
:10266000DF93CDB7DEB76E970FB6F894DEBF0FBE1F
:10267000CDBF109269041092680485E494E09093B1
:1026800065048093640480E2ECE6F4E0DF011D92CF
:102690008A95E9F7F12C00E010E0609164047091F4
:1026A0006504600F711F4EE150E0CE0101960E945B
:1026B000A02EE981EE23B1F0E03220F4F0E0E65BF9
:1026C000FB4FF2A280916804909169040196909367
:1026D000690480936804025E1F4FF394003CB3E0EA
:1026E0001B07D9F66E960FB6F894DEBF0FBECDBFAE
:1026F000DF91CF911F910F91FF900895CF93DF93BA
:102700008091900490919104DC01ED91FC91028004
:10271000F381E02D40E06EEF09958091B2048823AB
:1027200011F1C2EBD4E080919004909191046991F1
:10273000DC01ED91FC910280F381E02D41E00995EF
:10274000B4E0C23DDB0779F7809190049091910449
:10275000DC01ED91FC910280F381E02D40E06FEF10
:10276000DF91CF910994C0E2D0E0809190049091E4
:102770009104DC01ED91FC910280F381E02D41E0B8
:1027800060E00995219789F7DFCF2F923F924F9212
:102790005F926F927F929F92AF92BF92CF92DF92A1
:1027A000EF92FF920F931F93CF93DF93CDB7DEB7D6
:1027B000A1970FB6F894DEBF0FBECDBF811118C030
:1027C0001092940410929A0410916304812F880F40
:1027D000880F880F80939B04412F50E06FE474E0D2
:1027E0008CE994E00E949737BAE09B2E910EA8C125
:1027F000282F269530E040916804509169044217D3
:1028000053070CF473C080FD71C000E010E0CC24CD
:10281000CA94DC2C760180916804909169040817B1
:1028200019070CF061C020916B04622F70E01B82CD
:10283000CC82DD82EE82FF821D8E1E8E1F8E18A23C
:1028400019A2FB01A3E0F595E795AA95E1F7E457F6
:10285000FB4F808190E0277002C0959587952A955F
:10286000E2F7817099278887892B31F04AE454E098
:10287000CE0101960E94410C80916B048F5F809382
:102880006B0490E0209168043091690482179307EB
:1028900014F010926B048885882319F11092940427
:1028A0008B8180939A048D8D28E0829FC001112432
:1028B0009E8D892B80939B0480E02AE0280FE9E01D
:1028C000F0E0EC0FFD1FE80FF11D9081992339F026
:1028D0008F5FE22FF0E0EE56FB4F9083EECF922E0B
:1028E0002FC10F5F1F4F97CF912C2AC180E4809397
:1028F000940400E010E058E0952ECC24CA94DC2C1F
:1029000076017AE1672E712C20916A04622F70E0C3
:102910001B82CC82DD82EE82FF821D8E1E8E1F8E78
:1029200018A219A2FB0143E0F595E7954A95E1F756
:10293000E457FB4F808190E0277002C09595879502
:102940002A95E2F7817099278887892B31F04AE42C
:1029500054E0CE0101960E94410C80916A048F5F81
:1029600080936A0490E0A0906804B09069048A158E
:102970009B0514F010926A048885882309F4D0C05E
:102980008C819D81AE81BF818F3F5FEF9507A50749
:10299000B50709F4C5C03B81692D70E04F8D51E04A
:1029A000590D303168F06E567B4F242F2F70FB018C
:1029B000208322E0290DE52FF0E0EE56FB4F0BC0FF
:1029C000252F6E567B4F50E1359FF0011124342F97
:1029D0003F703E2BFB01308369A170E030E0443052
:1029E000B9F128F4442369F04130D9F095C048305A
:1029F00009F466C0493009F480C0453009F08CC044
:102A000042C0482F4F71B7FD02C080E001C080E88E
:102A1000F901EE56FB4F842B98A1892B808381E02E
:102A20007CC0F901EE56FB4F8083A9014F5F5F4FD9
:102A3000E92FEF71B7FD02C080E001C080E8DA0144
:102A4000AE56BB4F8E2B98A1892B8C9382E065C02C
:102A5000A901465B5B4FFA01E85BFF4F808331962B
:102A60009083A9014E5F5F4FEA2FEF71B7FD02C05F
:102A700080E001C080E8DA01AE56BB4F8E2B98A1F2
:102A8000892B8C931BC0A901465B5B4FFA01E85B65
:102A9000FF4F808331969083A9014E5F5F4F1D01E8
:102AA000552437FC5094452CB7FD02C080E001C08E
:102AB00080E8FA01EE56FB4F282A208283E02DC0E1
:102AC000A901465B5B4FFA01E85BFF4F80833196BB
:102AD00090833196A083A9014D5F5F4FEB2FEF717B
:102AE000B7FD02C080E001C080E8DA01AE56BB4FFE
:102AF0008E2B98A1892B8C930DC0A901465B5B4F4F
:102B0000FA01E85BFF4F8083319690833196A08372
:102B10003196B08384E001C080E0982E920E02C00E
:102B200060E070E00F5F1F4F0A151B054CF4892D04
:102B300090E09301261B370B821793070CF4E4CE29
:102B40008EE7809392048FE28093930480919404A3
:102B50009EEF990D892B8093940489E080939504CE
:102B600084EA809396048091D404809397048091A2
:102B7000D5048093980410929904292D30E0E4E95B
:102B8000F4E080E092E09E1B57E0492F4E0F49157C
:102B900060F44191842748E087FF03C0880F8527B0
:102BA00001C0880F4150C1F7F0CFF901EE56FB4F3D
:102BB00080838091900490919104DC01ED91FC91CF
:102BC0000280F381E02D40E06EE7099511E0911657
:102BD00098F08091900490919104DC01ED91FC912A
:102BE000A12FB0E0AE56BB4F0280F381E02D41E053
:102BF0006C9109951F5FEBCFA1960FB6F894DEBFDD
:102C00000FBECDBFDF91CF911F910F91FF90EF903D
:102C1000DF90CF90BF90AF909F907F906F905F902C
:102C20004F903F902F900895CF93DF931F92CDB791
:102C3000DEB72091680430916904232B21F4898345
:102C40000E942C1389818032D0F4E82FF0E0E65BFB
:102C5000FB4F82A1E82FF0E093E0F595E7959A9578
:102C6000E1F7E457FB4F282F277081E090E001C087
:102C7000880F2A95EAF780959081892380831092A6
:102C80004E0410926B0410926A040F90DF91CF9162
:102C90000895813208F080E2682F87E70E94FB0DDB
:102CA0001092B6028093B5020895682F81E293E0F6
:102CB0000C941F05CF93DF931F92CDB7DEB7682F1B
:102CC0008091580369830E94DB0D80E290E00E94AE
:102CD0005516698181E293E00E941F050F90DF91F4
:102CE000CF910C947E0DCF93C82F0E94DB0D8FE007
:102CF00090E00E9455160E947E0D61E08C2F0E948C
:102D00003F0E9091B5028091B602981729F081E2AA
:102D100093E0CF910C94D3048FEF9FEFCF91089560
:102D200020916604309167042115310589F08032C5
:102D300078F4E82FF0E0E65BFB4F82A1F90194E024
:102D4000899FE00DF11D11244083518362837383B9
:102D500008954F925F926F927F92AF92BF92CF92FF
:102D6000DF92EF92FF920F931F93CF93DF9300D0E8
:102D700000D0CDB7DEB7082FA62E69017A01AE01CB
:102D80004F5F5F4FC701B6010E942E322B013C01FD
:102D900089819A81AB81BC81BC01CD019F770E9462
:102DA0003630B62E172F2AE939E949E15FE3C3012E
:102DB000B2010E94623220E030E543EC57E40E9409
:102DC00062329F770E9436303B011170A11002C021
:102DD00090E001C090E2192B20E030E0A901C7018A
:102DE000B6010E94B32F881F8827881F8295880FFD
:102DF000880F807C712F782BA3016B2D802F0F9073
:102E00000F900F900F90DF91CF911F910F91FF9036
:102E1000EF90DF90CF90BF90AF907F906F905F90DA
:102E20004F900C949016CF92DF92EF92FF921092F7
:102E30009E036091A6037091A70380E090E00E943A
:102E40006B306B017C016091A8037091A9038091A4
:102E5000AA039091AB030E946B3028E23BE64EE65A
:102E60005EE40E94BD2F9B01AC01C701B6010E9428
:102E7000D52E2091AC0321119058FF90EF90DF9058
:102E8000CF900895CF92DF92EF92FF9210929E031F
:102E900060919F037091A00380E090E00E946B30EE
:102EA0006B017C016091A1037091A2038091A30347
:102EB0009091A4030E946B3028E23BE64EE65EE46C
:102EC0000E94BD2F9B01AC01C701B6010E94D52E07
:102ED0002091A50321119058FF90EF90DF90CF90A3
:102EE00008951F93CF93DF9387E70E94DB0D60E087
:102EF00081E293E00E941F050E947E0D87E70E94F9
:102F0000DB0D83E090E00E9449169091B50280911C
:102F1000B6029817F1F381E293E00E94D304D82F10
:102F200081E293E00E94D304182F81E293E00E9493
:102F3000D304C82F0E947E0D812F90E0A0E0B0E066
:102F4000BA2FA92F982F8827AD2BBC01CD016C2B50
:102F5000DF91CF911F910895CF93DF9387E70E9470
:102F6000DB0DC7EDD4E08D8590E0805B9F4F0E9424
:102F700055160E947E0D6C8570E080E090E00E9406
:102F80005406DF91CF910C947117CF93DF93CDB797
:102F9000DEB7C355D1090FB6F894DEBF0FBECDBF63
:102FA000789484B5826084BD84B5816084BD85B524
:102FB000826085BD85B5816085BD80916E00816030
:102FC00080936E00109281008091810082608093D6
:102FD00081008091810081608093810080918000D8
:102FE0008160809380008091B10084608093B10003
:102FF0008091B00081608093B00080917A008460FD
:1030000080937A0080917A00826080937A00809128
:103010007A00816080937A0080917A008068809342
:103020007A001092C10086E70E94501080934D03F1
:10303000811105C087E70E94501080934D03809155
:103040004D03811148C08DE5809358030E9473168B
:103050008D3B910541F481E090E09093570380937C
:1030600056030C94F82B8B3B910511F00C941D2CFE
:1030700010925703109256030C94F82B019711F0FD
:103080000C942C2C84E290E090935C0380935B037F
:1030900085E290E090935E0380935D0380E390E08F
:1030A0009093600380935F0381E390E090936203C9
:1030B000809361030E942C108091560390915703D6
:1030C0008130910511F00C94162C80EB0E945A1659
:1030D00084E080934D0380914D03823049F018F4D1
:1030E000813031F032C08330E1F08430D1F02DC036
:1030F0008AE999E9A9E5BFE380934E0390934F03D2
:10310000A0935003B093510385E090E0A0E0B0E0BD
:103110008093520390935303A0935403B0935503A9
:1031200014C08DEC9CECACE4BFE380934E03909311
:103130004F03A0935003B093510310925203109287
:103140005303109254031092550381E090E00E94C3
:10315000480D8F3F11F08093010182E090E00E94C2
:10316000480D8F3F31F091E0811101C090E09093C4
:10317000020183E090E00E94480D8F3F11F08093A0
:10318000840185E090E00E94480D8F3F11F080930C
:10319000030186E090E00E94480D8F3F31F091E0FE
:1031A000811101C090E09093A70187E090E00E9418
:1031B000480D8F3F31F091E0811101C090E0909374
:1031C000A60188E090E00E94480D8F3F31F091E029
:1031D000811101C090E09093A5018AE090E00E94E7
:1031E000480D8F3FA1F0682F70E080E090E00E94D2
:1031F0006B3020E030E048EC52E40E94BD2F609339
:103200004E0370934F0380935003909351038CE0CF
:1032100090E00E94480D8F3F59F090E0A0E0B0E0B0
:103220008093520390935303A0935403B093550398
:1032300010926F001092800081E88093810083E8F3
:1032400096E090938301809382018BE39CE39093BB
:1032500081018093800162E088E00E94BC0589E0E2
:103260000E94E60F61E089E00E94BC0510927F0198
:1032700010927E0110927D0110927C0110927B01D0
:1032800010927A0180E286BB80936F0080914D039B
:10329000811103C086E00E941416809101018130E3
:1032A00021F080914D03823019F08FE00E941416B6
:1032B00080910101813021F080914D03811106C080
:1032C0008DE00E9414168EE00E9414168091010178
:1032D000811109C081E00E94141682E00E94141638
:1032E00083E00E9414168091010181110AC080912F
:1032F0004D03811106C084E00E94141685E00E94EF
:10330000141680910101823091F087E00E9414161A
:1033100088E00E94141689E00E9414168AE00E9438
:1033200014168BE00E9414168CE00E9414168091F3
:10333000840181110DC080E10E94141681E10E9478
:10334000141682E10E94141683E10E94141640C0F4
:10335000109103011123E1F16CEA71E084E190E046
:103360000E94EC0C1130A1F50E944A0D6FE00E9402
:10337000570D6B017C01BE016F5F7F4F88E190E0CC
:103380000E94EC0CC701B6010E946D3020E030E0D5
:103390004AE754E40E94BD2F6B017C012CE53FE815
:1033A00042E85FE369817A818B819C810E9462326D
:1033B0009B01AC01C701B6010E94D13187FD08C055
:1033C0001092AC011092AD011092AE011092AF01BB
:1033D0008091A701811103C084E10E94141680919D
:1033E000A601811103C085E10E9414168091A501F8
:1033F000811103C086E10E94141686E78093D404ED
:1034000082E38093D504809163048111ABC080E294
:10341000E2E9F4E0DF011D928A95E9F740E250E02D
:1034200060E270E082EB94E00E94A03743E150E05C
:103430006BE471E08FE494E00E94B73788E08093FA
:1034400063048091680490916904892B11F40E94AF
:103450002C130091680410916904013CBFE11B0723
:1034600030F4C801880F991F880F991F02C08FEF91
:103470009FEF0E945236FC0120E030E04FEF5FEFFB
:10348000BA012017310739F0419351936193719339
:103490002F5F3F4FF6CF809366049093670481E9D6
:1034A00090E00E94523621E9FC0111922A95E9F739
:1034B0002EE031E0DC012D933C93909391048093B6
:1034C00090040E940D0610924E0410926B0410920C
:1034D0006A040E948E066B017C01B0EDCB0EB7E052
:1034E000DB1EE11CF11C8091640490916504892B22
:1034F00061F10E948E066C157D058E059F0528F5ED
:1035000004E010E00E947E1366E970E080E090E045
:103510000E94540601501109A9F700E010E08091C3
:1035200068049091690480179107ECF2802F880F4E
:103530000E94C5130E947E1366E970E080E090E06F
:103540000E9454060F5F1F4FEACF80919004909124
:103550009104DC01ED91FC910480F581E02D099549
:103560008111F3CF0E948E060091C5011091C60112
:103570002091C7013091C801DC01CB01801B910B68
:10358000A20BB30B853B9105A105B10510F40C947A
:10359000D52280914D03882309F4A4C68330D1F04D
:1035A000843009F070C4809158030E94DB0D88EAD2
:1035B00090E00E9455160E947E0D63E080915803B2
:1035C0000E943F0E8091B50290E02091B602821BCE
:1035D0009109B5C387E70E94DB0D8091E40490E078
:1035E000805C9F4F0E9455160E947E0D6091E304FF
:1035F00070E080E090E00E9454060E9471176FAB6B
:1036000078AF89AF9AAF0E94AC172091DF04309158
:10361000E004890120E030E0322F212F102F002715
:103620002B013C01401A510A620A730AE091DD0441
:10363000F091DE048090D9049090DA04940140E087
:1036400050E060E070E080E090E000E10E94E23550
:10365000D22EE32EF42E252E362E872E982E9FA3C3
:103660009F0140E050E0C301B2010E94D134C22E5C
:10367000032F142FB52FF62FE72F5C01A0E00E9437
:10368000373654F4AFE70E942236C22E032F142F90
:10369000B52FF62FE72F5C012C2D302F412F5B2FFC
:1036A0006F2F7E2FC50107E00E94FB355901C42E04
:1036B000A52FF62FE72F8C012D2D3E2D4F2D522DAE
:1036C000632D782D892D9FA1DA2EEF2EFE2E0E94DC
:1036D00019362BAF22963FAF229723964FAF2397F1
:1036E00024965FAF249725966FAF259726967FAFD8
:1036F000269727968FAF279728969FAF2897609198
:10370000D7047091D8040091DB041091DC0480E0B0
:1037100090E020E030E840E050E00E94E034D22E1B
:10372000E32EF42E252E362E872E982E9FA3980159
:1037300040E050E0C301B2010E94D134C22E032FF9
:10374000142FB52FF62FE72F5C01A0E00E9437362B
:103750007CF421503F4F4F4F5F4F6F4F7F4F8F4F44
:103760009F4FC22E032F142FB52FF62FE72F5C018A
:103770002C2D302F412F5B2F6F2F7E2FC50108E09E
:103780000E94FB355901C42EA52FF62FE72F8C017F
:103790002D2D3E2D4F2D522D632D782D892D9FA13E
:1037A000DA2EEF2EFE2E0E94193629962FAF29977A
:1037B0002A963FAF2A972B964FAF2B972C965FAF49
:1037C0002C972D966FAF2D972E967FAF2E972F9615
:1037D0008FAF2F9760969FAF60972091E104309153
:1037E000E20440E050E0C301B2010E94D134F22E65
:1037F000032F142FB52FF62FE72FD82EE92EA0E098
:103800000E94373684F42150310940485F4F6F4F92
:103810007F4F8F4F9F4FF22E032F142FB52FF62F70
:10382000E72FD82EE92E2F2D302F412F5B2F6F2F12
:103830007E2F8D2D9E2D07E10E94FB352FA338A7EB
:1038400049A75AA76BA77CA78DA79EA7CFA0D8A4EE
:10385000E9A4FAA4B0EDCB0EB7E0DB1EE11CF11C2D
:103860001092E9041092EA041092EB041092EC0416
:103870001092ED041092EE041092EF041092F004F6
:103880001092F1041092F2041092F3041092F404D6
:103890001092F5041092F6041092F7041092F804B6
:1038A000E0EDCE16E7E0DE06E104F1040CF0C8C05E
:1038B0002FA138A549A55AA5CA01B9010E940E3405
:1038C0009B01AC01A5E0B0E00E9465344B015C01B6
:1038D000B594A794979487942B013C01770C4408E6
:1038E000542C32018092E9049092EA04A092EB04F5
:1038F000B092EC044092ED044092EE044092EF044A
:103900004092F0048B019C0142E035952795179574
:1039100007954A95D1F70FA718AB29AB3AAB00939F
:10392000F1041093F2042093F3043093F4044092D2
:10393000F5044092F6044092F7044092F80414E231
:10394000C1161AEFD1061FEFE106F1060CF078C0A0
:103950006FA178A589A59AA56455724F8F4F9F4F87
:103960009B01AC010E940E346BAB7CAB8DAB9EAB6C
:10397000A7E0B0E09B01AC010E9465347B018C01A3
:103980009B01AC01550F220B322FA9012FA338A7A1
:1039900049A75AA79401A501642D742D842D942D57
:1039A00057016801EFA0FE2C0E2D1E2D0E94193626
:1039B0002093E9043093EA044093EB045093EC0421
:1039C0006093ED047093EE048093EF049093F00401
:1039D000ABE0B0E02BA93CA94DA95EA90E946534DB
:1039E0007B018C0115950795F794E7949B01AC0139
:1039F000550F220B322FA9012FA338A749A75AA789
:103A00002FA538A949A95AA9642D742D842D942D68
:103A100057016801EFA0FE2C0E2D1E2D0E941936B5
:103A20002093F1043093F2044093F3045093F40490
:103A30006093F5047093F6048093F7049093F80470
:103A40008FA998ADA9ADBAAD1C012D0129962FAD56
:103A500029972A963FAD2A972B964FAD2B972C96F8
:103A60005FAD2C972D966FAD2D972E967FAD2E972F
:103A70002F968FAD2F9760969FAD6097A090F10421
:103A8000B090F204C090F304D090F404E090F504F8
:103A9000F090F6040091F7041091F8040E942E367D
:103AA00059016A017B018C019101A20160E070E083
:103AB00080E090E00E947834F22E032F142FB52F6F
:103AC000F62FE72FD82EE92EA0E00E94373684F497
:103AD00021503109404E5F4F6F4F7F4F8F4F9F4FA7
:103AE000F22E032F142FB52FF62FE72FD82EE92E05
:103AF0002F2D302F412F5B2F6F2F7E2F8D2D9E2D41
:103B000005E10E94FB3539014A01B62FA72FF82F96
:103B1000E92F2BAD22963FAD229723964FAD2397E9
:103B200024965FAD249725966FAD259726967FAD99
:103B3000269727968FAD279728969FAD2897A09018
:103B4000E904B090EA04C090EB04D090EC04E0905B
:103B5000ED04F090EE040091EF041091F0040E9447
:103B60002E3659016A017B018C019301A4016B2F50
:103B70007A2F8F2F9E2F0E942E36F22E032F142F76
:103B8000B52FF62FE72FD82EE92EA0E00E9437366A
:103B900084F4215030484F4F5F4F6F4F7F4F8F4F0E
:103BA0009F4FF22E032F142FB52FF62FE72FD82E6D
:103BB000E92E2F2D302F412F5B2F6F2F7E2F8D2D34
:103BC0009E2D0FE00E94FB35122F332E242E1FA7AF
:103BD0005BAB612F732D822D952F0E946D3020E8F5
:103BE00036EE45EC57E40E94BD2F2BEA3CED42E453
:103BF0005EE30E94CF329B01AC0160E070E080E8A0
:103C00009FE30E94D42E20E03AE24DE257E40E9466
:103C1000623220E030E048EC52E40E9462320E94BE
:103C20002F304B015C010E94AC172091DF043091D2
:103C3000E004890120E030E0322F212F102F0027EF
:103C40006B017C01C01AD10AE20AF30A2091E10457
:103C50003091E20440E050E0C701B6010E94D13447
:103C60003901042FB52FF62FE72F2C01A0E00E9479
:103C7000373674F42150310940485F4F6F4F7F4F02
:103C80008F4F9F4F3901042FB52FF62FE72F2C01AF
:103C90009301402F5B2F6F2F7E2FC20107E10E94FF
:103CA000FB352FA338A749A75AA76BA77CA78DA7D9
:103CB0009EA74FA058A469A47AA490ED490E97E05E
:103CC000591E611C711CA0ED4A16A7E05A0661043A
:103CD00071044CF01092E5041092E6041092E7048F
:103CE0001092E80413C0A7019601C701B6010E9413
:103CF0000E3420E030E0A9010E9440342093E50416
:103D00003093E6044093E7045093E8048091E5047F
:103D10009091E604A091E704B091E8049301820138
:103D2000081B190B2A0B3B0BC901B8010E946D300F
:103D300020E030E048EC52E40E94BD2F9AC083306E
:103D40009105ECF381E293E00E94D304082F81E215
:103D500093E00E94D304182F81E293E00E94D304E1
:103D6000482F880F550B660B770BBA015527442750
:103D7000402B21961FAF21971FAE21962EAD3FAD50
:103D80002197C901A0E0B0E08A019B01082B192B03
:103D90002A2B3B2BC901B8010E946D3020E030E096
:103DA00040E859E30E9462320E942F306FA7372EFD
:103DB000282E9BAB822D0E946D3020E030E54DE730
:103DC00054E40E94BD2F2EE434ED42E45EE30E94F1
:103DD000CF329B01AC0160E070E080E89FE30E947D
:103DE000D42E2DEC3AE24DE257E40E94623220E0FC
:103DF00030E048EC52E40E9462320E942F304B01C6
:103E00005C01809158030E94DB0D8BEA90E00E94D8
:103E100055160E947E0D62E0809158030E943F0E6D
:103E20008091B50290E02091B602821B9109823008
:103E30009105ECF381E293E00E94D304082F81E224
:103E400093E00E94D304982F8827BC01602B072E93
:103E5000000C880B990B0E946D3020E030E040EFA1
:103E600053E40E94BD2F20E030E04AE252E40E9479
:103E7000D52E20E030E040E251E40E9462320E9400
:103E80002F308B0144C10E94F0100E942F306FA789
:103E9000372E282E9BAB0E94F01020E030E048EC3B
:103EA00052E40E94BD2F20E030E54DE754E40E942B
:103EB000BD2F21E03EED42E45EE30E94CF329B0144
:103EC000AC0160E070E080E89FE30E94D42E20E027
:103ED0003AE24DE257E40E94623220E030E048ECE2
:103EE00052E40E9462320E942F304B015C010E941A
:103EF000691020E030E040E251E40E9462320E940A
:103F00002F308B0180914D03823009F000C10E9457
:103F100069108DEF0E94C10E6C01E12CF12CC114CF
:103F200020E8D206E104F10409F4E0C040906903FE
:103F300050906A0360906B0370906C033CE2531ADC
:103F400031E0630A71084EE0CC0CDD1CEE1CFF1C56
:103F50004A95D1F78091890390918A03092E000C2C
:103F6000AA0BBB0B54E1880F991FAA1FBB1F5A95C0
:103F7000D1F7C81AD90AEA0AFB0AA0918B03B091BB
:103F80008C03A30192010E947034C61AD70AE80A72
:103F9000F90A40E4D40EE11CF11C6FE0F594E794BB
:103FA000D794C7946A95D1F7A0918D030A2E000C7F
:103FB000BB0BA30192010E9470349B01AC017AE01B
:103FC00055954795379527957A95D1F72FA338A71B
:103FD00049A75AA7A0918803B0E0A30192010E94CB
:103FE0006534DC01CB01EBE0B595A79597958795F6
:103FF000EA95D1F7BC01CD0170588F4F9F4F2FA18B
:1040000038A549A55AA50E940E34DC01CB01FAE07F
:10401000B595A79597958795FA95D1F79C01AD0130
:10402000405E5F4FA0918603B09187030E94703479
:10403000DC01CB01905EAF4FBF4FBC01CD01AEE0C4
:104040009595879577956795AA95D1F7A7019601DC
:104050000E940E346B017C01BFE0959587957795A2
:104060006795BA95D1F79B01AC010E940E349B0174
:10407000AC0187E055954795379527958A95D1F7F7
:10408000A0918503B0E00E946534DC01CB0124E0FF
:10409000B595A795979587952A95D1F7C81AD90A06
:1040A000EA0AFB0AF7FE03C0C12CD12C7601D70126
:1040B000C60131E0C316D104E10439E1F30624F06E
:1040C00080E090E0A0E0B9E1BC01CD013CE0959535
:1040D0008795779567953A95D1F70E946D3020E0E6
:1040E00030E040E85AE30E94623204C060E070E0D1
:1040F00080EC9FE720E030E040E251E40E94623231
:104100000E942F30AB01BC018FE00E94901680917D
:10411000C401811114C081E08093C4018092C00168
:104120009092C101A092C201B092C3018092BC01E1
:104130009092BD01A092BE01B092BF012EC08091AD
:10414000C0019091C101A091C201B091C301A5012C
:104150009401281B390B4A0B5B0BCA01B9012AE0F9
:1041600030E040E050E00E9440342093B8013093AA
:10417000B9014093BA015093BB01C501B40124E6D3
:1041800030E040E050E00E9440342093B40130938E
:10419000B5014093B6015093B7018091BC01909155
:1041A000BD01A091BE01B091BF01A5019401281BE2
:1041B000390B4A0B5B0BCA01B9010E946D306B01D0
:1041C0007C010E948E064090C5015090C60160900F
:1041D000C7017090C80164197509860997090E9482
:1041E0006B309B01AC0160E070E08AE794E40E94D0
:1041F000BD2F9B01AC01C701B6010E9462320E9433
:104200002F308092BC019092BD01A092BE01B0926D
:10421000BF010E946D306B017C019B01AC0160917C
:10422000B0017091B1018091B2019091B3010E94EF
:10423000D42E20914E0330914F0340915003509162
:1042400051030E9462329B01AC01C701B6010E947A
:10425000D52E0E942F306B017C010E946D3060933F
:10426000B0017093B1018093B2019093B30140917A
:1042700052035091530360915403709155034C15B0
:104280005D056E057F054CF4D701C601841B950BB7
:10429000A60BB70BAC01BD0114C088279927DC0120
:1042A000841B950BA60BB70BC816D906EA06FB06AE
:1042B0002CF44C0D5D1D6E1D7F1D03C040E050E0D1
:1042C000BA0186E00E9490164FA5532D622D7BA95E
:1042D0008DE00E949016A801110F660B770B8EE0FF
:1042E0000E9490160E948E066093C5017093C601CD
:1042F0008093C7019093C80110918401112309F4A0
:10430000DBC00E944A0D6FE00E94570D0E946D3085
:1043100020E030E04AE754E40E94BD2F69837A83AD
:104320008B839C8320E030E040E251E40E946232C3
:104330000E942F30AB01BC0180E10E949016153025
:1043400038F01C3040F424ECE22E29E0F22E07C0B5
:10435000E12CF12C04C098E5E92E92E0F92E8EE0D4
:104360000E943D06BC01990F880B990B0E946D308D
:1043700020E030EC4FE754E40E94BD2F20E030E411
:104380004CE955E40E9462324B015C01B70180E0C8
:1043900090E00E946B309B01AC01C501B4010E940A
:1043A000D42E6B017C01E12FF0E0E95EFE4F6081CD
:1043B00070E080E090E00E946D309B01AC01C7018D
:1043C000B6010E94BD2F6B017C0120E030E040E28D
:1043D00051E40E9462320E942F30AB01BC0181E1A6
:1043E0000E9490162FEF3FEF4FE951E4C701B6014D
:1043F0000E94BD2F2091AC013091AD014091AE01E2
:104400005091AF010E94D52E6093AC017093AD0125
:104410008093AE019093AF010E942F30AB01BC019D
:1044200082E10E949016809103018823B1F10E94DD
:104430008E060091A8011091A9012091AA01309146
:10444000AB01DC01CB01801B910BA20BB30B8131C3
:104450009742A105B10508F120E030E040E050E4CA
:10446000C701B6010E94B32F18166CF06CEA71E018
:1044700084E190E00E94120DBE016F5F7F4F88E1E2
:1044800090E00E94120D0E948E066093A801709326
:10449000A9018093AA019093AB0129813A814B81B4
:1044A0005C81C701B6010E9462320E942F30AB01CD
:1044B000BC0183E10E9490168091A701882379F0C6
:1044C00060E186E00E94570D2AE030E040E050E0D5
:1044D0000E944034BA01A90184E10E9490168091A3
:1044E000A601882379F061E187E00E94570D2AE058
:1044F00030E040E050E00E944034BA01A90185E17B
:104500000E9490168091A501882309F44EC084E191
:104510000E943D06BC01990F880B990B0E946D30DB
:104520009B01AC0160E070EC8FE794E40E94BD2F2A
:1045300020E030E040E85FE30E94D42E9B01AC0114
:1045400060E070E48CE196E40E94BD2F20E030E44E
:104550004CE156E40E94BD2F0E94E63120E030EE8F
:1045600046E755E40E94BD2F2FE03FEC4BE55BE3AF
:104570000E94D52E9B01AC0160E070E080E89FE3D3
:104580000E94BD2F29E939EF47E853E40E94D42E59
:1045900020E030E040E251E40E9462320E942F307D
:1045A000AB01BC0186E10E94901680910101882335
:1045B00009F496C581E993E00E941B04892B09F454
:1045C000D8C281E993E00E943D04182F80913A04FB
:1045D00090913B04A0913C04B0913D040196A11D33
:1045E000B11D80933A0490933B04A0933C04B09394
:1045F0003D04143209F4C3C2E0913404153234F49A
:104600001A3071F01D3009F0C8C20AC01A3241F0E8
:104610001C3209F0C2C280912104812780932104B9
:10462000EF3008F07EC1F0E0ED5DFB4F108280912D
:104630002204882309F477C1209123043FEB320F31
:10464000822F022E000C990B363010F4C79707C04A
:104650002156263018F48755910901C0C097282F9C
:104660002295207F309124044FEB430F832F032E9C
:10467000000C990B463010F4C79707C031563630FE
:1046800018F48755910901C0C097820F90912104B9
:10469000891334C18091460490914704A091480445
:1046A000B09149040196A11DB11D809346049093D9
:1046B0004704A0934804B0934904809135048823AB
:1046C00099F080913E0490913F04A0914004B091F4
:1046D00041040196A11DB11D80933E0490933F04B7
:1046E000A0934004B093410400913204002309F4E4
:1046F0006BC0013009F0D2C08091C5039091C60310
:10470000A091C703B091C8038093C1039093C203E3
:10471000A093C303B093C4030E948E066093C903A1
:104720007093CA038093CB039093CC030093C00390
:104730000093BF038091D3039091D403A091D5033C
:10474000B091D6038093CF039093D003A093D1036D
:10475000B093D2030E948E066093D7037093D80360
:104760008093D9039093DA030093CE030093CD0393
:1047700080913504882309F491C087E0EDEAF3E0E5
:10478000AFE9B3E001900D928A95E1F787E0E4EBA1
:10479000F3E0A6EAB3E001900D928A95E1F70E945A
:1047A0008E066093BB037093BC038093BD0390930C
:1047B000BE0300939E0300939D038BED93E00E9444
:1047C0006E0889EE93E068C08091D3039091D40382
:1047D000A091D503B091D6038093CF039093D003DB
:1047E000A093D103B093D2030E948E066093D703A7
:1047F0007093D8038093D9039093DA0301E0009378
:10480000CE030093CD0380913504882321F187E006
:10481000EDEAF3E0AFE9B3E001900D928A95E1F79C
:1048200087E0E4EBF3E0A6EAB3E001900D928A950D
:10483000E1F70E948E066093BB037093BC038093E4
:10484000BD039093BE0300939E0300939D0387EFE7
:1048500093E00E946E0880910F0490911004A09143
:104860001104B091120480930B0490930C04A09354
:104870000D04B0930E040E948E066093070470939B
:1048800008048093090490930A0481E0809306044D
:104890008093050483E194E00E946E08E090380460
:1048A000F090390401E0E114F10409F451C1E09100
:1048B0003804F091390466A177A1F70186A197A188
:1048C0000E94A737892B09F043C1B701C701409661
:1048D0000E94B0370E948E06D70190966D937D930B
:1048E0008D939C93939795960C93959794960C9390
:1048F00094979A96ED90FC909B97D5CF8091420427
:1049000090914304A0914404B09145040196A11DE7
:10491000B11D8093420490934304A0934404B09348
:10492000450480E016C190913304911149C064E5BB
:1049300071E083E294E00E94A737892B41F06AE599
:1049400071E083E294E00E94A737892B11F481E0A3
:1049500014C060E671E083E294E00E94A737892BDF
:1049600041F066E671E083E294E00E94A737892B6C
:1049700019F41092320403C082E0809332048091D3
:104980003604909137049093390480933804E09072
:104990003804F0903904E114F10419F2F701C6A0CB
:1049A000D7A063E274E0C6010E94A73797FD02C05A
:1049B0000C94162DD7019A968D919C919B97E3CFDD
:1049C000E0913204E23009F491C0809123048823FD
:1049D00009F48CC000E2E09FF0011124E92B31972B
:1049E000E932F10508F082C0EC5CFF4F0C945F34B3
:1049F00083E294E00E94F4096093D3037093D4039C
:104A00008093D5039093D60371C091E0813409F06F
:104A100043C043C06DEA73E009C091E0833509F0FB
:104A200090E09093B30362C064EB73E083E294E0A0
:104A30000E946C095BC091E0873509F090E090938B
:104A4000BA0354C083E294E00E94F4096093E50342
:104A50007093E6038093E7039093E80347C083E2F3
:104A600094E00E94F4096093F3037093F40380933D
:104A7000F5039093F6033AC083E294E00E94792E06
:104A80006093C5037093C6038093C7039093C803D4
:104A90002DC091E081330CF490E09093350426C052
:104AA00083E294E00E94792E60930F0470931004C7
:104AB000809311049093120419C083E294E00E9441
:104AC000F40960931D0470931E0480931F04909357
:104AD00020040CC083E294E00E94F4096093010476
:104AE000709302048093030490930404E0903804CC
:104AF000F0903904E114F10409F413CFE091380483
:104B0000F091390466A177A1F70186A197A10E94CF
:104B1000A737892B09F005CFD70198962D913C91A5
:104B200099978091330490E0821793070CF4F9CEA3
:104B30002817390739F440E150E063E274E0C70117
:104B40000E94B737D7019A96ED90FC909B97D2CFF1
:104B500081E0909133049F5F90933304109234046A
:104B600091E01A3209F090E090932204882309F42E
:104B700035C680919D03882309F41FC722C0109277
:104B80003404109233041092210482E080933204A2
:104B9000109222041092350421C6EE3040F481E0D8
:104BA0008E0F80933404F0E0ED5DFB4F1083809115
:104BB0002204811113C68091210418271093210427
:104BC0000DC60E948E060091BB031091BC0320917C
:104BD000BD033091BE03DC01CB01801B910BA20B06
:104BE000B30B803D9740A105B10508F0E6C60E94D1
:104BF00042179B01AC0160E081E00E94A9160E946F
:104C000013179B01AC0161E082E00E94A91610928B
:104C1000F8036091FD037091FE038091FF03909172
:104C200000040E946D3020E030E048EC52E40E9425
:104C3000BD2F0E942F306FA778AB89AB9AAB6093E2
:104C4000B4017093B5018093B6019093B7011092AF
:104C5000DC036091E1037091E2038091E3039091A2
:104C6000E4030E946D3026E53EE04DEE5FE30E94D6
:104C7000623220E030E048EC52E40E94BD2F0E94F6
:104C80002F30AB01BC0183E00E9490161092EA0322
:104C90006091EF037091F0038091F1039091F20322
:104CA0000E946D3020E030E048EC52E40E94BD2FBD
:104CB0000E942F30AB01BC0189E00E9490168091C8
:104CC000A3019091A401883BBBE09B070CF419C69B
:104CD00080914D0381111CC08091C0019091C10150
:104CE000A091C201B091C3012FA538A949A95AA921
:104CF000281B390B4A0B5B0BAAE0B0E00E9465341D
:104D00006093B8017093B9018093BA019093BB018D
:104D100040909B0150909C0160909D0170909E017D
:104D200000919F011091A0012091A1013091A20159
:104D30000BAB1CAB2DAB3EAB0E9413179B01AC0120
:104D400061966FAF619762963FAF629763964FAF80
:104D5000639764965FAF64970E94421763015201A4
:104D6000EBA8FCA80DA91EA961962FAD61976296CC
:104D70003FAD629763964FAD639764965FAD64975E
:104D80000E9485080E9436306FA378A789A79AA74A
:104D9000309002013320C1F16091B8017091B901E6
:104DA0008091BA019091BB012AE030E040E050E0F0
:104DB0000E944034CA01B9010E946D306B017C0130
:104DC0006FA178A589A59AA50E946B304B015C0163
:104DD000A7019601C701B6010E9462326B017C01F6
:104DE000A5019401C501B4010E9462329B01AC018E
:104DF000C701B6010E94D52E0E942D330E94363085
:104E00006FA378A789A79AA70E9413174B015C018B
:104E10000E9442176B017C01A3019201C501B401FC
:104E20000E94D42E25E33AEF4EE85CE30E94623202
:104E30004B015C0125E33AEF4EE85CE36BA97CA9EA
:104E40008DA99EA90E9462322B013C0125E33AEF15
:104E50004EE85CE3C701B6010E9462326B017C013F
:104E6000C501B4010E941F336FAB78AF89AF9AAF11
:104E7000C701B6010E94B82F6BAB7CAB8DAB9EAB6C
:104E8000C301B2010E941F336BAF7CAF8DAF9EAFE9
:104E9000C501B4010E94B82F4B015C012BA93CA9AC
:104EA0004DA95EA96BAD7CAD8DAD9EAD0E94623209
:104EB000A50194010E9462324B015C01C301B20161
:104EC0000E94B82F2B013C01C701B6010E941F337D
:104ED0009B01AC01C301B2010E946232A5019401A1
:104EE0000E94D42E6B017C012BA93CA94DA95EA97F
:104EF0006FA978AD89AD9AAD0E946232A701960183
:104F00000E94542F6B017C0120E030E0A9010E9437
:104F1000B32F87FF0AC02BED3FE049EC50E4C701F7
:104F2000B6010E94D52E6B017C0121EE3EE245E6E2
:104F300052E4C701B6010E9462320E942F30AB01D9
:104F4000BC018AE00E949016A0909301B090940159
:104F5000C0909501D0909601409097015090980193
:104F60006090990170909A010E9413179B01AC0107
:104F700061966FAF619762963FAF629763964FAF4E
:104F8000639764965FAF64970E9442178301720132
:104F900061962FAD619762963FAD629763964FAD74
:104FA000639764965FAD64970E9485086B017C01EE
:104FB0003320B1F180918F0190919001A0919101E6
:104FC000B09192012FA538A949A95AA9281B390BDC
:104FD0004A0B5B0BCA01B9010E946D309B01AC0109
:104FE0000E9462324B015C01A7019601C701B60124
:104FF0000E9462329B01AC01C501B4010E94D52E12
:105000000E942D336B017C018FA598A9A9A9BAA98B
:1050100080938F0190939001A0939101B09392019E
:1050200060918B0170918C0180918D0190918E0126
:105030000E946B30A70196010E94D52E0E94363047
:1050400060938B0170938C0180938D0190938E01FE
:105050000E94421760939701709398018093990181
:1050600090939A010E941317609393017093940197
:1050700080939501909396011092060440910B0441
:1050800050910C0460910D0470910E048BE00E940D
:105090009016109214044091190450911A046091D2
:1050A0001B0470911C048CE00E94901660918B018F
:1050B00070918C0180918D0190918E012AE030E0F9
:1050C00040E050E00E941E34BA01A90188E00E942D
:1050D00090164FA158A569A57AA587E00E94901661
:1050E0004091B8015091B9016091BA017091BB0132
:1050F00084E00E9490164091B4015091B5016091F6
:10510000B6017091B70185E00E94901680919004DD
:1051100090919104DC01ED91FC910480F581E02DEA
:105120000995082F811105C080910001882309F499
:10513000A8C20E948E06C0908701D0908801E0909E
:105140008901F0908A016C157D058E059F0508F494
:1051500098C20E948E06DC01CB0188539F4FAF4F4F
:10516000BF4F8093870190938801A0938901B093EA
:105170008A0111E081E1F82E003E51F48091850111
:10518000909186018D3091050CF088C101960BC07D
:10519000003771F4809185019091860118161906E7
:1051A0000CF07CC10197909386018093850174C1B6
:1051B000003D09F05BC080918501909186018630A9
:1051C0009105A1F134F48230910551F0059779F001
:1051D00063C187309105E1F1089709F440C05CC1D3
:1051E00080910101882309F457C181506EC08090DD
:1051F0004E0390904F03A0905003B090510320E0D5
:1052000030E040E85FE3C501B4010E94B32F87FF9F
:1052100043C120E030E048EC52E4C501B4010E94F3
:1052200062320E942F306F5F7F4F76C080915203B1
:1052300090915303A0915403B09155038436910586
:10524000A105B1050CF028C10196A11DB11D8AC0B0
:1052500080918401882309F41FC1815092C08091FC
:105260000301882309F418C1815094C0003B09F060
:1052700015C1E0918501F09186013197ED30F1057E
:1052800008F00AC1E35AFF4F0C945F341BA21CA222
:105290001DA21EA2BE016D5D7F4F84E190E00E94C1
:1052A000120D1BA21CA21DA21EA2BE016D5D7F4F8E
:1052B00088E190E00E94120DE0E0F0E00995809115
:1052C0000101823008F0E8C08F5F80930101E4C0E3
:1052D00080910201812780930201DEC080904E03FD
:1052E00090904F03A0905003B090510320E030E025
:1052F000A901C501B4010E94D13118160CF0CCC02F
:1053000020E030E048EC52E4C501B4010E94623272
:105310000E942F3061507109072E000C880B990BE9
:105320000E946D3020E030E048EC52E40E94BD2F36
:1053300060934E0370934F038093500390935103F7
:10534000ABC08091520390915303A0915403B0914C
:105350005503181619061A061B060CF09DC0019776
:10536000A109B1098093520390935303A09354036E
:10537000B093550391C0809184018F3008F08CC0A8
:105380008F5F8093840188C080910301823008F090
:1053900083C08F5F809303017FC08091A701812725
:1053A0008093A70179C08091A60181278093A601EF
:1053B00073C08091A50181278093A5016DC0609184
:1053C000010181E090E00E94460D6091020182E0BF
:1053D00090E00E94460D6091840183E090E00E947D
:1053E000460D6091030185E090E00E94460D6091BA
:1053F000A70186E090E00E94460D6091A60187E03B
:1054000090E00E94460D6091A50188E090E00E9426
:10541000460D20E030E048EC52E460914E0370917C
:105420004F0380915003909151030E9462320E9479
:105430002F308AE090E00E94460D609152038CE08C
:1054400090E00E94460DE0E0F0E00995C12CD12CDF
:105450006FEFC6010E94460DFFEFCF1ADF0A22E36D
:10546000C216D104A9F71BA21CA21DA21EA2BE0136
:105470006D5D7F4F84E190E00E94120D1BA21CA283
:105480001DA21EA2BE016D5D7F4F88E190E00E94CB
:10549000120DE0E0F0E00995109300018091000109
:1054A000882309F4EEC01A8A1982809185019091AF
:1054B0008601F89EB001F99E700D1124635B7C4F4C
:1054C00040E150E0CE0142960E94A02EE09185017D
:1054D000F0918601EC30F10508F0A5C0E659FF4FC8
:1054E0000C945F3440E150E06CE373E098C060914D
:1054F0000101FAE06F9FB0011124625E7C4F8DC004
:1055000080910101882309F437CE6091020104E003
:10551000609FB00111246A5E7C4F7FC060914D0393
:1055200019E0619FB001112467517D4F76C08091D1
:105530004D03882309F420CE20E030E048EC52E40B
:1055400060914E0370914F038091500390915103ED
:105550000E9462320E942F307F936F938CE691E01D
:105560009F938F93CE0101969F938F930E94C6378E
:105570000F900F900F900F900F900F9054C080914C
:105580004D03882309F4F8CD809155038F938091C2
:1055900054038F93809153038F93809152038F9381
:1055A00083E791E09F938F93CE0101969F938F9312
:1055B0000E94C6370FB6F894DEBF0FBECDBF33C012
:1055C0006091840130E1639FB001112467517E4FE7
:1055D00024C080918401882309F4CECD6091030119
:1055E00049E0649FB001112462537E4F16C0609160
:1055F000A7015AE0659FB00111240DC06091A6017A
:105600008AE0689FB001112406C06091A5019AE06C
:10561000699FB001112466547E4F40E150E0CE01F5
:1056200001960E94A02EDE015296E2EBF4E09E016C
:105630002E5D3F4F80E040E29D91992321F0811142
:1056400002C0908302C0408381E03196A217B30765
:1056500099F7DE011196E2ECF4E09E012F5E3F4FD8
:1056600080E040E29D91992321F0811102C0908356
:1056700002C0408381E03196A217B30799F71092D8
:105680000001C0904A04D0904B04E0904C04F0908C
:105690004D04A6E9CA0ED11CE11CF11C0E948E0625
:1056A0006C157D058E059F0508F498C00E948E0636
:1056B00060934A0470934B0480934C0490934D0480
:1056C0008091D304882351F18091900490919104AA
:1056D000DC01ED91FC910280F381E02D40E06EE76A
:1056E00009958091900490919104DC01ED91FC91D9
:1056F0000280F381E02D41E061E9099580919004F9
:1057000090919104DC01ED91FC910280F381E02DF8
:1057100041E061E309951092D3045EC01091D20478
:10572000112309F44BC0E12E012E000CFF08C70124
:105730000E948837892B31F0C7010E948F37182FBC
:1057400000E001C001E08091900490919104DC019F
:10575000ED91FC910280F381E02D40E06EE7099528
:105760008091900490919104DC01ED91FC91028074
:10577000F381E02D41E062E00995809190049091E1
:105780009104DC01ED91FC910280F381E02D011187
:1057900002C062E201C063E241E009958091900499
:1057A00090919104DC01ED91FC910280F381E02D58
:1057B00041E0612F09951092D2040EC080916404DB
:1057C00090916504892B41F080914E0491E0980FEF
:1057D00090934E040E94C5130E947E1380E090E0D7
:1057E000892B11F40C94B21A0E9400000C94B21A86
:1057F0008091560390915703009711F00C943E1836
:1058000083E290E090935C0380935B0384E290E0FA
:1058100090935E0380935D0385E290E09093600334
:1058200080935F0386E290E00C945618892B11F068
:105830000C94681880EE0C9466188CE580935803DD
:105840000E9473168D3B910511F40C942B188B3B21
:10585000910511F40C94381887E70E94DB0D0E9423
:105860007E0D81110C946B180E942C1087E70E940A
:10587000DB0D8EE190E00E9455160E947E0D8AE0BD
:105880008093E30488E08093E40464E670E080E0C1
:1058900090E00E94540677EDC72E74E0D72E12EAEE
:1058A00087E70E94DB0D612F81E293E00E941F05D4
:1058B0000E947E0D87E70E94DB0D82E090E00E944F
:1058C00049169091B5028091B6029817F1F381E2E2
:1058D00093E00E94D304B82E81E293E00E94D304A7
:1058E000082F0E947E0DFB2CE12CC701802BD601D6
:1058F0008D939D936D011E5F1E3A91F683E00C948B
:10590000691801969093A4018093A3010E94421705
:105910006B017C0160939F017093A0018093A101B2
:105920009093A2010E94131760939B0170939C01B6
:1059300080939D0190939E01C0929701D09298010F
:10594000E0929901F0929A0160939301709394010F
:1059500080939501909396011092F8036091FD0356
:105960007091FE038091FF03909100040E946D30BE
:1059700020E030E048EC52E40E94BD2F0E942F301E
:1059800060938F01709390018093910190939201A5
:1059900010928B0110928C0110928D0110928E0149
:1059A00020914D0321113DC06093C0017093C1014E
:1059B0008093C2019093C30134C020E030E0A9017C
:1059C00060E081E00E94A91620E030E0A90161E0DA
:1059D00082E00E94A91680914D03811108C01092A7
:1059E000B8011092B9011092BA011092BB01109245
:1059F000B4011092B5011092B6011092B70140E0C7
:105A000050E0BA018AE00E94901640E050E0BA01EE
:105A100083E00E94901640E050E0BA0189E00E94C5
:105A200090161FA218A619A61AA626CB63E274E048
:105A3000C6010E94A7371816190614F00C94912479
:105A400010923904109238040C9491248DE391E063
:105A5000909392038093910380916F008B7F80934A
:105A60006F0080916F008F7D80936F0080917D012A
:105A700080937E0180917C018111FCCF80916F0029
:105A80008D7F80936F000895CF93DF93E1E2F3E081
:105A90001382128288EE93E0A0E0B0E084839583C5
:105AA000A683B7832BE231E031832083EAE4F4E07C
:105AB00010821182128213821482118E138E128E22
:105AC000158E148E178E168E10A211A210929104AC
:105AD000109290041092D2041092D30426E72093DF
